{
	"data": {
		"bytecode": {
			"linkReferences": {},
			"object": "615b40610026600b82828239805160001a60731461001957fe5b30600052607381538281f3fe73000000000000000000000000000000000000000030146080604052600436106100355760003560e01c8063c49917d71461003a575b600080fd5b61004d610048366004613b44565b610063565b60405161005a9190614184565b60405180910390f35b6060600061007e83610079856101800151610170565b6103b6565b905060006100b26100928560600151610471565b61009f8660800151610471565b6100ad876101a001516105dd565b6105f3565b905060006101006100c68660000151610625565b6100d38760800151610471565b6100e088602001516105dd565b6100ed89604001516105dd565b6100fb8a6101800151610170565b610700565b9050600061011561011087610736565b610971565b9050610145848484846040516020016101319493929190613ec5565b604051602081830303815290604052610971565b604051602001610155919061413f565b6040516020818303038152906040529450505050505b919050565b606062ffffff821661019b5750604080518082019091526002815261302560f01b602082015261016b565b816000805b62ffffff8316156101eb5760ff8116156101bc576001016101d5565b600a62ffffff84160662ffffff166000146101d5576001015b600190910190600a62ffffff84160492506101a0565b6101f3613a3e565b6000600584106102e8576000600461020e8660ff8716610ab2565b101561021b57600161021e565b60005b60ff90811691506102329085166001610ab2565b61023d866005610ab2565b106102695761026461025360ff86166001610ab2565b61025e876005610ab2565b90610ab2565b61026c565b60005b60ff85166080850181905290925061028b9060019061025e9085610b0f565b60ff90811660a085015260808401516102b29183916102ac91166001610ab2565b90610b0f565b60ff90811660408501526102da9082906102ac906102d39088166001610b0f565b8590610b0f565b60ff16602084015250610358565b6102f3600585610ab2565b6002608084018190529091506103119060019061025e908490610b0f565b60ff90811660a08401526103339061032c9085166002610b0f565b8290610b0f565b60ff1660208301819052610348906002610ab2565b60ff166040830152600160c08301525b6103776103688560ff8616610ab2565b62ffffff891690600a0a610b69565b8252600160e08301526004841161038f57600061039a565b61039a846004610ab2565b60ff1660608301526103ab82610bd0565b979650505050505050565b6060816103c68460600151610471565b6103d38560800151610471565b61040c8660e00151156103eb578661012001516103f2565b8661010001515b8761016001518860c001518960a001518a60e00151610de0565b6104458760e00151156104245787610100015161042b565b8761012001515b8861016001518960c001518a60a001518b60e00151610de0565b604051602001610459959493929190613fa3565b60405160208183030381529060405290505b92915050565b6060816000805b82518160ff1610156104bd57828160ff168151811061049357fe5b6020910101516001600160f81b031916601160f91b14156104b5576001909101905b600101610478565b5060ff8116156105d55760008160ff1683510167ffffffffffffffff811180156104e657600080fd5b506040519080825280601f01601f191660200182016040528015610511576020820181803683370190505b5090506000805b84518160ff1610156105c857848160ff168151811061053357fe5b6020910101516001600160f81b031916601160f91b141561057d57601760fa1b83838060010194508151811061056557fe5b60200101906001600160f81b031916908160001a9053505b848160ff168151811061058c57fe5b602001015160f81c60f81b8383806001019450815181106105a957fe5b60200101906001600160f81b031916908160001a905350600101610518565b508194505050505061016b565b509192915050565b606061046b6001600160a01b0383166014610ef5565b60608383838660405160200161060c9493929190613d9c565b60405160208183030381529060405290505b9392505050565b60608161064a57506040805180820190915260018152600360fc1b602082015261016b565b8160005b811561066257600101600a8204915061064e565b60008167ffffffffffffffff8111801561067b57600080fd5b506040519080825280601f01601f1916602001820160405280156106a6576020820181803683370190505b50859350905060001982015b83156106f757600a840660300160f81b828280600190039350815181106106d557fe5b60200101906001600160f81b031916908160001a905350600a840493506106b2565b50949350505050565b6060838584848960405160200161071b95949392919061405c565b60405160208183030381529060405290505b95945050505050565b60606000604051806102a0016040528061075385602001516105dd565b815260200161076585604001516105dd565b8152602001846101a001516001600160a01b0316815260200184606001518152602001846080015181526020016107a0856101800151610170565b815260200184610100015160020b815260200184610120015160020b815260200184610160015160020b81526020016107e9856101000151866101200151876101400151611054565b60000b81526020018460000151815260200161081385602001516001600160a01b0316608861108b565b815260200161083085604001516001600160a01b0316608861108b565b815260200161084d85602001516001600160a01b0316600061108b565b815260200161086a85604001516001600160a01b0316600061108b565b815260200161089d61088f86602001516001600160a01b03166010886000015161109a565b600060ff60106101126110ba565b81526020016108d06108c286604001516001600160a01b03166010886000015161109a565b600060ff60646101e46110ba565b81526020016108f561088f86602001516001600160a01b03166020886000015161109a565b815260200161091a6108c286604001516001600160a01b03166020886000015161109a565b815260200161093f61088f86602001516001600160a01b03166030886000015161109a565b81526020016109646108c286604001516001600160a01b03166030886000015161109a565b9052905061061e81611102565b6060815160001415610992575060408051602081019091526000815261016b565b6000604051806060016040528060408152602001614da5604091399050600060038451600201816109bf57fe5b0460040267ffffffffffffffff811180156109d957600080fd5b506040519080825280601f01601f191660200182016040528015610a04576020820181803683370190505b509050600182016020820185865187015b80821015610a70576003820191508151603f8160121c168501518453600184019350603f81600c1c168501518453600184019350603f8160061c168501518453600184019350603f8116850151845350600183019250610a15565b5050600386510660018114610a8c5760028114610a9f57610aa7565b603d6001830353603d6002830353610aa7565b603d60018303535b509195945050505050565b600082821115610b09576040805162461bcd60e51b815260206004820152601e60248201527f536166654d6174683a207375627472616374696f6e206f766572666c6f770000604482015290519081900360640190fd5b50900390565b60008282018381101561061e576040805162461bcd60e51b815260206004820152601b60248201527f536166654d6174683a206164646974696f6e206f766572666c6f770000000000604482015290519081900360640190fd5b6000808211610bbf576040805162461bcd60e51b815260206004820152601a60248201527f536166654d6174683a206469766973696f6e206279207a65726f000000000000604482015290519081900360640190fd5b818381610bc857fe5b049392505050565b60606000826020015160ff1667ffffffffffffffff81118015610bf257600080fd5b506040519080825280601f01601f191660200182016040528015610c1d576020820181803683370190505b5090508260e0015115610c5757602560f81b81600183510381518110610c3f57fe5b60200101906001600160f81b031916908160001a9053505b8260c0015115610cb457600360fc1b81600081518110610c7357fe5b60200101906001600160f81b031916908160001a905350601760f91b81600181518110610c9c57fe5b60200101906001600160f81b031916908160001a9053505b608083015160ff165b60a0840151610cd09060ff166001610b0f565b811015610d0757603060f81b828281518110610ce857fe5b60200101906001600160f81b031916908160001a905350600101610cbd565b505b82511561046b576000836060015160ff16118015610d345750826060015160ff16836040015160ff16145b15610d775760408301805160ff600019820181169092528251601760f91b92849216908110610d5f57fe5b60200101906001600160f81b031916908160001a9053505b8251610d8990603090600a9006610b0f565b60f81b818460400180518091906001900360ff1660ff1681525060ff1681518110610db057fe5b60200101906001600160f81b031916908160001a905350600a8360000181815181610dd757fe5b04905250610d09565b606084600281900b620d89e71981610df457fe5b050260020b8660020b1415610e4e578115610e2a576040518060400160405280600381526020016209a82b60eb1b815250610e47565b6040518060400160405280600381526020016226a4a760e91b8152505b905061072d565b84600281900b620d89e881610e5f57fe5b050260020b8660020b1415610eb5578115610e95576040518060400160405280600381526020016226a4a760e91b815250610e47565b5060408051808201909152600381526209a82b60eb1b602082015261072d565b6000610ec08761137a565b90508215610ee257610edf600160c01b6001600160a01b038316610b69565b90505b610eed8186866116ac565b91505061072d565b606060008260020260020167ffffffffffffffff81118015610f1657600080fd5b506040519080825280601f01601f191660200182016040528015610f41576020820181803683370190505b509050600360fc1b81600081518110610f5657fe5b60200101906001600160f81b031916908160001a905350600f60fb1b81600181518110610f7f57fe5b60200101906001600160f81b031916908160001a905350600160028402015b6001811115611000576f181899199a1a9b1b9c1cb0b131b232b360811b85600f1660108110610fc957fe5b1a60f81b828281518110610fd957fe5b60200101906001600160f81b031916908160001a90535060049490941c9360001901610f9e565b50831561061e576040805162461bcd60e51b815260206004820181905260248201527f537472696e67733a20686578206c656e67746820696e73756666696369656e74604482015290519081900360640190fd5b60008360020b8260020b121561106d575060001961061e565b8260020b8260020b13156110835750600161061e565b50600061061e565b606061061e83831c600361186c565b600060ff826110a98686611926565b02816110b157fe5b06949350505050565b60606110f86110f3846102ac6110d0888a610ab2565b6110ed6110dd888a610ab2565b6110e78d8d610ab2565b9061192d565b90610b69565b610625565b9695505050505050565b606061110d82611986565b6111298360000151846020015185606001518660800151611fe5565b611140846060015185608001518660a00151612310565b61115e8560c001518660e00151876101000151886101200151612460565b61117e61116f876101400151610625565b8760c001518860e00151612743565b6111918761014001518860400151612b5b565b6040516020018087805190602001908083835b602083106111c35780518252601f1990920191602091820191016111a4565b51815160209384036101000a600019018019909216911617905289519190930192890191508083835b6020831061120b5780518252601f1990920191602091820191016111ec565b51815160209384036101000a600019018019909216911617905288519190930192880191508083835b602083106112535780518252601f199092019160209182019101611234565b51815160209384036101000a600019018019909216911617905287519190930192870191508083835b6020831061129b5780518252601f19909201916020918201910161127c565b51815160209384036101000a600019018019909216911617905286519190930192860191508083835b602083106112e35780518252601f1990920191602091820191016112c4565b51815160209384036101000a600019018019909216911617905285519190930192850191508083835b6020831061132b5780518252601f19909201916020918201910161130c565b5181516020939093036101000a6000190180199091169216919091179052651e17b9bb339f60d11b92019182525060408051808303601919018152600690920190529998505050505050505050565b60008060008360020b12611391578260020b611399565b8260020b6000035b9050620d89e88111156113d7576040805162461bcd60e51b81526020600482015260016024820152601560fa1b604482015290519081900360640190fd5b6000600182166113eb57600160801b6113fd565b6ffffcb933bd6fad37aa2d162d1a5940015b70ffffffffffffffffffffffffffffffffff1690506002821615611431576ffff97272373d413259a46990580e213a0260801c5b6004821615611450576ffff2e50f5f656932ef12357cf3c7fdcc0260801c5b600882161561146f576fffe5caca7e10e4e61c3624eaa0941cd00260801c5b601082161561148e576fffcb9843d60f6159c9db58835c9266440260801c5b60208216156114ad576fff973b41fa98c081472e6896dfb254c00260801c5b60408216156114cc576fff2ea16466c96a3843ec78b326b528610260801c5b60808216156114eb576ffe5dee046a99a2a811c461f1969c30530260801c5b61010082161561150b576ffcbe86c7900a88aedcffc83b479aa3a40260801c5b61020082161561152b576ff987a7253ac413176f2b074cf7815e540260801c5b61040082161561154b576ff3392b0822b70005940c7a398e4b70f30260801c5b61080082161561156b576fe7159475a2c29b7443b29c7fa6e889d90260801c5b61100082161561158b576fd097f3bdfd2022b8845ad8f792aa58250260801c5b6120008216156115ab576fa9f746462d870fdf8a65dc1f90e061e50260801c5b6140008216156115cb576f70d869a156d2a1b890bb3df62baf32f70260801c5b6180008216156115eb576f31be135f97d08fd981231505542fcfa60260801c5b6201000082161561160c576f09aa508b5b7a84e1c677de54f3e99bc90260801c5b6202000082161561162c576e5d6af8dedb81196699c329225ee6040260801c5b6204000082161561164b576d2216e584f5fa1ea926041bedfe980260801c5b62080000821615611668576b048a170391f7dc42444e8fa20260801c5b60008460020b131561168357806000198161167f57fe5b0490505b64010000000081061561169757600161169a565b60005b60ff16602082901c0192505050919050565b606060006116bb858585612bd3565b905060006116ce8283600160401b612cd5565b9050600160601b82108015611706576116ff8272047bf19673df52e37f2410011d100000000000600160801b612cd5565b915061171b565b61171882620186a0600160801b612cd5565b91505b8160005b811561173357600101600a8204915061171f565b600019016000806117448684612d84565b915091508015611755576001909201915b61175d613a3e565b85156117ca5761177c611774602b60ff8716610ab2565b600790610b0f565b60ff9081166020830152600260808301526117a2906001906102ac90602b908816610ab2565b60ff90811660a083015260208201516117bd91166001610ab2565b60ff166040820152611841565b60098460ff1610611813576117e360ff85166004610ab2565b60ff1660208201819052600560808301526117ff906001610ab2565b60ff1660a082015260046040820152611841565b60066020820152600560408201819052611838906001906102ac9060ff881690610ab2565b60ff1660608201525b82815285151560c0820152600060e082015261185c81610bd0565b9c9b505050505050505050505050565b606060008260020267ffffffffffffffff8111801561188a57600080fd5b506040519080825280601f01601f1916602001820160405280156118b5576020820181803683370190505b5080519091505b801561191e576f181899199a1a9b1b9c1cb0b131b232b360811b85600f16601081106118e457fe5b1a60f81b8260018303815181106118f757fe5b60200101906001600160f81b031916908160001a90535060049490941c93600019016118bc565b509392505050565b1c60ff1690565b60008261193c5750600061046b565b8282028284828161194957fe5b041461061e5760405162461bcd60e51b8152600401808060200182810382526021815260200180614fc46021913960400191505060405180910390fd5b6060611a1b8261016001516040516020018080614b7e6081913960810182805190602001908083835b602083106119ce5780518252601f1990920191602091820191016119af565b6001836020036101000a038019825116818451168082178552505050505050905001806813979f1e17b9bb339f60b91b815250600901915050604051602081830303815290604052610971565b611b7d836101e0015184610200015185610180015160405160200180806146bb6063913960630184805190602001908083835b60208310611a6d5780518252601f199092019160209182019101611a4e565b51815160209384036101000a600019018019909216911617905265272063793d2760d01b919093019081528551600690910192860191508083835b60208310611ac75780518252601f199092019160209182019101611aa8565b51815160209384036101000a6000190180199092169116179052722720723d273132307078272066696c6c3d272360681b919093019081528451601390910192850191508083835b60208310611b2e5780518252601f199092019160209182019101611b0f565b6001836020036101000a038019825116818451168082178552505050505050905001806813979f1e17b9bb339f60b91b8152506009019350505050604051602081830303815290604052610971565b611bce846102200151856102400151866101a0015160405160200180806146bb60639139606301848051906020019080838360208310611a6d5780518252601f199092019160209182019101611a4e565b611ce3856102600151866102800151876101c0015160405160200180806146bb6063913960630184805190602001908083835b60208310611c205780518252601f199092019160209182019101611c01565b51815160209384036101000a600019018019909216911617905265272063793d2760d01b919093019081528551600690910192860191508083835b60208310611c7a5780518252601f199092019160209182019101611c5b565b51815160001960209485036101000a01908116901991909116179052722720723d273130307078272066696c6c3d272360681b939091019283528451601390930192908501915080838360208310611b2e5780518252601f199092019160209182019101611b0f565b6101608601516040516020018060566144368239605601602c614de58239651e3232b3399f60d11b602c820152603201604b614b338239604b0186805190602001908083835b60208310611d485780518252601f199092019160209182019101611d29565b6001836020036101000a0380198251168184511680821785525050505050509050018061566b603e9139603e0185805190602001908083835b60208310611da05780518252601f199092019160209182019101611d81565b6001836020036101000a03801982511681845116808217855250505050505090500180614bff603e9139603e0184805190602001908083835b60208310611df85780518252601f199092019160209182019101611dd9565b5181516020939093036101000a6000190180199091169216919091179052631110179f60e11b920191825250600401603b61432e8239603b0183805190602001908083835b60208310611e5c5780518252601f199092019160209182019101611e3d565b6001836020036101000a0380198251168184511680821785525050505050509050018061477b60999139609901607f61521c8239607f0160886155e3823960880160416148148239604101605d6157a38239605d0160726152c882396072016049614297823960490160be614a75823960be0160716145478239607101607561515f82396075016066614855823960660160a4614e11823960a40160856156a982397f3c6720636c69702d706174683d2275726c2823636f726e65727329223e00000060858201526b1e3932b1ba103334b6361e9160a11b60a2820152825160ae9091019060208401908083835b60208310611f695780518252601f199092019160209182019101611f4a565b6001836020036101000a038019825116818451168082178552505050505050905001806148bb60319139603101604e6142e08239604e01605d61471e8239605d016041614d6482396041016052614c3d8239605201607561572e8239607501955050505050506040516020818303038152906040529050919050565b60608382858488878a89604051602001808061588660259139602501607d6149f88239607d0189805190602001908083835b602083106120365780518252601f199092019160209182019101612017565b51815160209384036101000a600019018019909216911617905264010714051160dd1b919093019081528a516005909101928b0191508083835b6020831061208f5780518252601f199092019160209182019101612070565b6001836020036101000a038019825116818451168082178552505050505050905001806148ec607991396079016086615800823960860187805190602001908083835b602083106120f15780518252601f1990920191602091820191016120d2565b51815160209384036101000a600019018019909216911617905264010714051160dd1b919093019081528851600590910192890191508083835b6020831061214a5780518252601f19909201916020918201910161212b565b6001836020036101000a038019825116818451168082178552505050505050905001806144c260859139608501607b6154518239607b0185805190602001908083835b602083106121ac5780518252601f19909201916020918201910161218d565b51815160209384036101000a600019018019909216911617905264010714051160dd1b919093019081528651600590910192870191508083835b602083106122055780518252601f1990920191602091820191016121e6565b6001836020036101000a0380198251168184511680821785525050505050509050018061460c605d9139605d0160a36150bc823960a30183805190602001908083835b602083106122675780518252601f199092019160209182019101612248565b51815160209384036101000a600019018019909216911617905264010714051160dd1b919093019081528451600590910192850191508083835b602083106122c05780518252601f1990920191602091820191016122a1565b6001836020036101000a0380198251168184511680821785525050505050509050018061420c608b9139608b01985050505050505050506040516020818303038152906040529050949350505050565b6060838383604051602001808061436960cd913960cd0184805190602001908083835b602083106123525780518252601f199092019160209182019101612333565b6001836020036101000a03801982511681845116808217855250505050505090500180602f60f81b81525060010183805190602001908083835b602083106123ab5780518252601f19909201916020918201910161238c565b6001836020036101000a03801982511681845116808217855250505050505090500180615a2f6077913960770182805190602001908083835b602083106124035780518252601f1990920191602091820191016123e4565b5181516020939093036101000a60001901801990911692169190911790526a1e17ba32bc3a1f1e17b39f60a91b920191825250600b0160736158cf8239607301935050505060405160208183030381529060405290509392505050565b606060008260000b6001146124c7578260000b6000191461249e5760405180604001604052806005815260200164236e6f6e6560d81b8152506124c2565b6040518060400160405280600a81526020016911b330b23296b237bbb760b11b8152505b6124e9565b60405180604001604052806008815260200167023666164652d75760c41b8152505b905060006124f8878787612df5565b90508181838361250788613043565b60405160200180806c078ce40dac2e6d67a44eae4d85609b1b815250600d0186805190602001908083835b602083106125515780518252601f199092019160209182019101612532565b5181516020939093036101000a600019018019909116921691909117905261149160f11b9201918252506002016077614eb5823960770185805190602001908083835b602083106125b35780518252601f199092019160209182019101612594565b6001836020036101000a038019825116818451168082178552505050505050905001806145b86054913960540180700785ece7c78ce40dac2e6d67a44eae4d85607b1b81525060110184805190602001908083835b602083106126275780518252601f199092019160209182019101612608565b5181516020939093036101000a600019018019909116921691909117905261149160f11b9201918252506002016029614f2c82396029016045614f7f823960450180681e3830ba3410321e9160b91b81525060090183805190602001908083835b602083106126a75780518252601f199092019160209182019101612688565b6001836020036101000a038019825116818451168082178552505050505050905001806151d46048913960480182805190602001908083835b602083106126ff5780518252601f1990920191602091820191016126e0565b6001836020036101000a0380198251168184511680821785525050505050509050019550505050505060405160208183030381529060405292505050949350505050565b60606000612750846134ae565b9050600061275d846134ae565b865183518251929350600490910191600a91820191016000806127808a8a6135b8565b9150915061279385600401600702610625565b8b6127a386600401600702610625565b896127b387600401600702610625565b8a8787604051602001808061529b602d9139602d01806c1e3932b1ba103bb4b23a341e9160991b815250600d0189805190602001908083835b6020831061280b5780518252601f1990920191602091820191016127ec565b6001836020036101000a03801982511681845116808217855250505050505090500180614c8f603d9139603d01608d6159428239608d0188805190602001908083835b6020831061286d5780518252601f19909201916020918201910161284e565b5181516020939093036101000a60001901801990911692169190911790526a1e17ba32bc3a1f1e17b39f60a91b920191825250600b01602d615ade8239602d01806c1e3932b1ba103bb4b23a341e9160991b815250600d0187805190602001908083835b602083106128f05780518252601f1990920191602091820191016128d1565b6001836020036101000a03801982511681845116808217855250505050505090500180614c8f603d9139603d016093614965823960930186805190602001908083835b602083106129525780518252601f199092019160209182019101612933565b5181516020939093036101000a60001901801990911692169190911790526a1e17ba32bc3a1f1e17b39f60a91b920191825250600b01602d6146698239602d01806c1e3932b1ba103bb4b23a341e9160991b815250600d0185805190602001908083835b602083106129d55780518252601f1990920191602091820191016129b6565b6001836020036101000a03801982511681845116808217855250505050505090500180614c8f603d9139603d0160936154cc823960930184805190602001908083835b60208310612a375780518252601f199092019160209182019101612a18565b6001836020036101000a03801982511681845116808217855250505050505090500180615aa66038913960380160606159cf8239606001606461505882396064016025614696823960250183805190602001908083835b60208310612aad5780518252601f199092019160209182019101612a8e565b51815160209384036101000a6000190180199092169116179052630383c16160e51b919093019081528451600490910192850191508083835b60208310612b055780518252601f199092019160209182019101612ae6565b6001836020036101000a0380198251168184511680821785525050505050509050018061448c60369139603601985050505050505050506040516020818303038152906040529750505050505050509392505050565b6060612b6783836138c4565b15612bbd5760405160200180608d6153c48239608d016073614fe582396073016071614cf38239607101608a61533a8239608a01608461555f82396084019050604051602081830303815290604052905061046b565b5060408051602081019091526000815292915050565b600080612bee612be960ff868116908616613927565b61398c565b9050600081118015612c01575060128111155b15612cc2578260ff168460ff161115612c6b57612c35612c22826002610b69565b6001600160a01b03871690600a0a61192d565b91506002810660011415612c6657612c63827003298b075b4b6a5240945790619b37fd4a600160801b612cd5565b91505b612cbd565b612c8c612c79826002610b69565b6001600160a01b03871690600a0a610b69565b91506002810660011415612cbd57612cba82600160801b7003298b075b4b6a5240945790619b37fd4a612cd5565b91505b61191e565b50506001600160a01b0390921692915050565b6000808060001985870986860292508281109083900303905080612d0b5760008411612d0057600080fd5b50829004905061061e565b808411612d1757600080fd5b6000848688096000868103871696879004966002600389028118808a02820302808a02820302808a02820302808a02820302808a02820302808a02909103029181900381900460010186841190950394909402919094039290920491909117919091029150509392505050565b600080600060058460ff161115612dac57612da98560ff600419870116600a0a610b69565b94505b60006004600a8706119050612dc286600a610b69565b95508015612dd1578560010195505b85620186a01415612de757600a86049550600191505b5084925090505b9250929050565b606060008260020b85850360020b81612e0a57fe5b05905060048160020b13612e55576040518060400160405280601a81526020017f4d31203143343120343120313035203130352031343520313435000000000000815250915061191e565b60088160020b13612e9d576040518060400160405280601981526020017f4d31203143333320343920393720313133203134352031343500000000000000815250915061191e565b60108160020b13612ee5576040518060400160405280601981526020017f4d31203143333320353720383920313133203134352031343500000000000000815250915061191e565b60208160020b13612f2d576040518060400160405280601981526020017f4d31203143323520363520383120313231203134352031343500000000000000815250915061191e565b60408160020b13612f75576040518060400160405280601981526020017f4d31203143313720373320373320313239203134352031343500000000000000815250915061191e565b60808160020b13612fbd576040518060400160405280601881526020017f4d31203143392038312036352031333720313435203134350000000000000000815250915061191e565b6101008160020b13613006576040518060400160405280601a81526020017f4d31203143312038392035372e35203134352031343520313435000000000000815250915061191e565b505060408051808201909152601881527f4d3120314331203937203439203134352031343520313435000000000000000060208201529392505050565b6040805180820182526002815261373360f01b6020808301919091528251808401845260038082526203139360ec1b82840152845180860186528181526232313760e81b818501528551808701909652908552620ccccd60ea1b928501929092526060939091906001600087900b14806130c157508560000b600019145b156132b8578560000b600019146130d857816130da565b835b8660000b600019146130ec57816130ee565b835b8760000b600019146131005783613102565b855b8860000b600019146131145783613116565b855b60405160200180806b1e31b4b931b6329031bc1e9160a11b815250600c0185805190602001908083835b6020831061315f5780518252601f199092019160209182019101613140565b51815160209384036101000a600019018019909216911617905267383c111031bc9e9160c11b919093019081528651600890910192870191508083835b602083106131bb5780518252601f19909201916020918201910161319c565b6001836020036101000a03801982511681845116808217855250505050505090500180614ccc6027913960270183805190602001908083835b602083106132135780518252601f1990920191602091820191016131f4565b51815160209384036101000a600019018019909216911617905267383c111031bc9e9160c11b919093019081528451600890910192850191508083835b6020831061326f5780518252601f199092019160209182019101613250565b6001836020036101000a03801982511681845116808217855250505050505090500180614f55602a9139602a0194505050505060405160208183030381529060405294506134a5565b8383838360405160200180806b1e31b4b931b6329031bc1e9160a11b815250600c0185805190602001908083835b602083106133055780518252601f1990920191602091820191016132e6565b51815160209384036101000a600019018019909216911617905267383c111031bc9e9160c11b919093019081528651600890910192870191508083835b602083106133615780518252601f199092019160209182019101613342565b51815160209384036101000a60001901801990921691161790527f70782220723d22347078222066696c6c3d22776869746522202f3e0000000000919093019081526b1e31b4b931b6329031bc1e9160a11b601b8201528551602790910192860191508083835b602083106133e75780518252601f1990920191602091820191016133c8565b51815160209384036101000a600019018019909216911617905267383c111031bc9e9160c11b919093019081528451600890910192850191508083835b602083106134435780518252601f199092019160209182019101613424565b6001836020036101000a038019825116818451168082178552505050505050905001807f70782220723d22347078222066696c6c3d22776869746522202f3e0000000000815250601b0194505050505060405160208183030381529060405294505b50505050919050565b6060600060405180602001604052806000815250905060008360020b12156134f45782600019029250604051806040016040528060018152602001602d60f81b81525090505b806135018460020b610625565b6040516020018083805190602001908083835b602083106135335780518252601f199092019160209182019101613514565b51815160209384036101000a600019018019909216911617905285519190930192850191508083835b6020831061357b5780518252601f19909201916020918201910161355c565b6001836020036101000a03801982511681845116808217855250505050505090500192505050604051602081830303815290604052915050919050565b60608060006002858501810b0590506201e847198160020b121561361457604051806040016040528060018152602001600760fb1b815250604051806040016040528060018152602001603760f81b8152509250925050612dee565b620124f7198160020b121561366457604051806040016040528060018152602001600760fb1b8152506040518060400160405280600481526020016331302e3560e01b8152509250925050612dee565b6161a7198160020b12156136b457604051806040016040528060018152602001600760fb1b8152506040518060400160405280600581526020016431342e323560d81b8152509250925050612dee565b611387198160020b12156137025760405180604001604052806002815260200161031360f41b81525060405180604001604052806002815260200161062760f31b8152509250925050612dee565b60008160020b121561374e5760405180604001604052806002815260200161313160f01b81525060405180604001604052806002815260200161323160f01b8152509250925050612dee565b6113888160020b121561379b5760405180604001604052806002815260200161313360f01b81525060405180604001604052806002815260200161323360f01b8152509250925050612dee565b6161a88160020b12156137e85760405180604001604052806002815260200161313560f01b81525060405180604001604052806002815260200161323560f01b8152509250925050612dee565b620124f88160020b12156138365760405180604001604052806002815260200161062760f31b81525060405180604001604052806002815260200161191b60f11b8152509250925050612dee565b6201e8488160020b12156138845760405180604001604052806002815260200161323160f01b81525060405180604001604052806002815260200161323760f01b8152509250925050612dee565b604051806040016040528060028152602001610c8d60f21b81525060405180604001604052806002815260200161323760f01b8152509250925050612dee565b6040805160208082018590526bffffffffffffffffffffffff19606085901b1682840152825160348184030181526054909201909252805191012060009061390b846139a3565b60020260010160ff166000198161391e57fe5b04119392505050565b600081830381831280159061393c5750838113155b80613951575060008312801561395157508381135b61061e5760405162461bcd60e51b81526004018080602001828103825260248152602001806158ab6024913960400191505060405180910390fd5b60008082121561399f578160000361046b565b5090565b60008082116139b157600080fd5b600160801b82106139c457608091821c91015b600160401b82106139d757604091821c91015b64010000000082106139eb57602091821c91015b6201000082106139fd57601091821c91015b6101008210613a0e57600891821c91015b60108210613a1e57600491821c91015b60048210613a2e57600291821c91015b6002821061016b57600101919050565b6040805161010081018252600080825260208201819052918101829052606081018290526080810182905260a0810182905260c0810182905260e081019190915290565b80356001600160a01b038116811461016b57600080fd5b8035801515811461016b57600080fd5b8035600281900b811461016b57600080fd5b600082601f830112613acb578081fd5b813567ffffffffffffffff811115613adf57fe5b613af2601f8201601f19166020016141b7565b818152846020838601011115613b06578283fd5b816020850160208301379081016020019190915292915050565b803562ffffff8116811461016b57600080fd5b803560ff8116811461016b57600080fd5b600060208284031215613b55578081fd5b813567ffffffffffffffff80821115613b6c578283fd5b81840191506101c0808387031215613b82578384fd5b613b8b816141b7565b905082358152613b9d60208401613a82565b6020820152613bae60408401613a82565b6040820152606083013582811115613bc4578485fd5b613bd087828601613abb565b606083015250608083013582811115613be7578485fd5b613bf387828601613abb565b608083015250613c0560a08401613b33565b60a0820152613c1660c08401613b33565b60c0820152613c2760e08401613a99565b60e08201526101009150613c3c828401613aa9565b828201526101209150613c50828401613aa9565b828201526101409150613c64828401613aa9565b828201526101609150613c78828401613aa9565b828201526101809150613c8c828401613b20565b828201526101a09150613ca0828401613a82565b91810191909152949350505050565b60008151613cc18185602086016141db565b9290920192915050565b7fe29aa0efb88f20444953434c41494d45523a204475652064696c6967656e636581527f20697320696d7065726174697665207768656e20617373657373696e6720746860208201527f6973204e46542e204d616b65207375726520746f6b656e20616464726573736560408201527f73206d617463682074686520657870656374656420746f6b656e732c2061732060608201527f746f6b656e2073796d626f6c73206d617920626520696d6974617465642e00006080820152609e0190565b632e372e3760e11b815260040190565b60007f54686973204e465420726570726573656e74732061206c69717569646974792082527f706f736974696f6e20696e206120556e6973776170205633200000000000000060208301528551613dfa816039850160208a016141db565b602d60f81b6039918401918201528551613e1b81603a840160208a016141db565b660103837b7b617160cd1b603a92909101918201527f546865206f776e6572206f662074686973204e46542063616e206d6f6469667960418201527f206f722072656465656d2074686520706f736974696f6e2e5c6e00000000000060618201526f02e372837b7b61020b2323932b9b99d160851b607b8201528451613ea881608b8401602089016141db565b612e3760f11b608b92909101918201526103ab608d820185613caf565b683d913730b6b2911d1160b91b81528451600090613eea816009850160208a016141db565b71111610113232b9b1b934b83a34b7b7111d1160711b6009918401918201528551613f1c81601b840160208a016141db565b8551910190613f3281601b8401602089016141db565b6c1116101134b6b0b3b2911d101160991b601b92909101918201527f646174613a696d6167652f7376672b786d6c3b6261736536342c00000000000060288201528351613f868160428401602088016141db565b61227d60f01b604292909101918201526044019695505050505050565b60006902ab734b9bbb0b81016960b51b82528651613fc881600a850160208b016141db565b80830190506201016960ed1b80600a8301528751613fed81600d850160208c016141db565b602f60f81b600d9390910192830152865161400f81600e850160208b016141db565b600e920191820152845161402a8160118401602089016141db565b611e1f60f11b60119290910191820152835161404d8160138401602088016141db565b01601301979650505050505050565b60006901020b2323932b9b99d160b51b808352875161408281600a860160208c016141db565b612e3760f11b600a9185019182015287516140a481600c840160208c016141db565b01600c8101919091528551906140c1826016830160208a016141db565b8181019150506b02e372332b2902a34b2b91d160a51b601682015284516140ef8160228401602089016141db565b6b02e372a37b5b2b71024a21d160a51b60229290910191820152835161411c81602e8401602088016141db565b61413261412d602e83850101613d8c565b613ccb565b9998505050505050505050565b60007f646174613a6170706c69636174696f6e2f6a736f6e3b6261736536342c0000008252825161417781601d8501602087016141db565b91909101601d0192915050565b60006020825282518060208401526141a38160408501602087016141db565b601f01601f19169190910160400192915050565b60405181810167ffffffffffffffff811182821017156141d357fe5b604052919050565b60005b838110156141f65781810151838201526020016141de565b83811115614205576000848401525b5050505056fe203c616e696d6174652061646469746976653d2273756d22206174747269627574654e616d653d2273746172744f6666736574222066726f6d3d2230252220746f3d22313030252220626567696e3d22307322206475723d223330732220726570656174436f756e743d22696e646566696e69746522202f3e3c2f74657874506174683e3c2f746578743e3c73746f70206f66667365743d222e39222073746f702d636f6c6f723d227768697465222073746f702d6f7061636974793d223022202f3e3c2f6c696e6561724772616469656e743e3c72656374207374796c653d2266696c7465723a2075726c28236631292220783d223070782220793d22307078222077696474683d22323930707822206865696768743d22353030707822202f3e3c6665496d61676520726573756c743d2270332220786c696e6b3a687265663d22646174613a696d6167652f7376672b786d6c3b6261736536342c3c67206d61736b3d2275726c2823666164652d73796d626f6c29223e3c726563742066696c6c3d226e6f6e652220783d223070782220793d22307078222077696474683d22323930707822206865696768743d22323030707822202f3e203c7465787420793d22373070782220783d2233327078222066696c6c3d2277686974652220666f6e742d66616d696c793d2227436f7572696572204e6577272c206d6f6e6f73706163652220666f6e742d7765696768743d223230302220666f6e742d73697a653d2233367078223e3c7376672077696474683d2232393022206865696768743d22353030222076696577426f783d2230203020323930203530302220786d6c6e733d22687474703a2f2f7777772e77332e6f72672f323030302f7376672270782c2030707829222063783d22307078222063793d223070782220723d22347078222066696c6c3d227768697465222f3e3c2f673e203c616e696d6174652061646469746976653d2273756d22206174747269627574654e616d653d2273746172744f6666736574222066726f6d3d2230252220746f3d22313030252220626567696e3d22307322206475723d223330732220726570656174436f756e743d22696e646566696e69746522202f3e203c2f74657874506174683e3c6d61736b2069643d22666164652d757022206d61736b436f6e74656e74556e6974733d226f626a656374426f756e64696e67426f78223e3c726563742077696474683d223122206865696768743d2231222066696c6c3d2275726c2823677261642d75702922202f3e3c2f6d61736b3e22207374726f6b653d227267626128302c302c302c302e332922207374726f6b652d77696474683d2233327078222066696c6c3d226e6f6e6522207374726f6b652d6c696e656361703d22726f756e6422202f3e203c616e696d6174652061646469746976653d2273756d22206174747269627574654e616d653d2273746172744f6666736574222066726f6d3d2230252220746f3d22313030252220626567696e3d22307322206475723d2233307322203c67207374796c653d227472616e73666f726d3a7472616e736c61746528323970782c20343434707829223e3c636972636c65207374796c653d227472616e73666f726d3a7472616e736c6174653364283c7376672077696474683d2732393027206865696768743d27353030272076696577426f783d2730203020323930203530302720786d6c6e733d27687474703a2f2f7777772e77332e6f72672f323030302f737667273e3c636972636c652063783d27203c67207374796c653d2266696c7465723a75726c2823746f702d726567696f6e2d626c7572293b207472616e73666f726d3a7363616c6528312e35293b207472616e73666f726d2d6f726967696e3a63656e74657220746f703b223e22202f3e3c6665426c656e64206d6f64653d226f7665726c61792220696e3d2270302220696e323d22703122202f3e3c6665426c656e64206d6f64653d226578636c7573696f6e2220696e323d22703222202f3e3c6665426c656e64206d6f64653d226f7665726c61792220696e323d2270332220726573756c743d22626c656e644f757422202f3e3c6665476175737369616e426c7572203c706174682069643d226d696e696d61702220643d224d3233342034343443323334203435372e393439203234322e323120343633203235332034363322202f3e3c6d61736b2069643d226e6f6e6522206d61736b436f6e74656e74556e6974733d226f626a656374426f756e64696e67426f78223e3c726563742077696474683d223122206865696768743d2231222066696c6c3d22776869746522202f3e3c2f6d61736b3e2220783d223070782220793d22307078222077696474683d22323930707822206865696768743d22353030707822202f3e203c616e696d6174652061646469746976653d2273756d22206174747269627574654e616d653d2273746172744f6666736574222066726f6d3d2230252220746f3d22313030252220626567696e3d22307322206475723d223330732220726570656174436f756e743d22696e646566696e69746522202f3e3c7465787420783d22313270782220793d22313770782220666f6e742d66616d696c793d2227436f7572696572204e6577272c206d6f6e6f73706163652220666f6e742d73697a653d2231327078222066696c6c3d227768697465223e3c747370616e2066696c6c3d2272676261283235352c3235352c3235352c302e3629223e4d696e205469636b3a203c2f747370616e3e3c74657874506174682073746172744f66667365743d222d31303025222066696c6c3d2277686974652220666f6e742d66616d696c793d2227436f7572696572204e6577272c206d6f6e6f73706163652220666f6e742d73697a653d22313070782220786c696e6b3a687265663d2223746578742d706174682d61223e3c6c696e6561724772616469656e742069643d22677261642d646f776e222078313d2230222078323d2231222079313d2230222079323d2231223e3c73746f70206f66667365743d22302e30222073746f702d636f6c6f723d227768697465222073746f702d6f7061636974793d223122202f3e3c73746f70206f66667365743d22302e39222073746f702d636f6c6f723d227768697465222073746f702d6f7061636974793d223022202f3e3c2f6c696e6561724772616469656e743e3c66696c7465722069643d226631223e3c6665496d61676520726573756c743d2270302220786c696e6b3a687265663d22646174613a696d6167652f7376672b786d6c3b6261736536342c3c7376672077696474683d2732393027206865696768743d27353030272076696577426f783d2730203020323930203530302720786d6c6e733d27687474703a2f2f7777772e77332e6f72672f323030302f737667273e3c726563742077696474683d27323930707827206865696768743d273530307078272066696c6c3d2723222f3e3c6665496d61676520726573756c743d2270322220786c696e6b3a687265663d22646174613a696d6167652f7376672b786d6c3b6261736536342c3c656c6c697073652063783d22353025222063793d22307078222072783d223138307078222072793d223132307078222066696c6c3d222330303022206f7061636974793d22302e383522202f3e3c2f673e707822206865696768743d2232367078222072783d22387078222072793d22387078222066696c6c3d227267626128302c302c302c302e362922202f3e70782220723d22347078222066696c6c3d22776869746522202f3e3c636972636c652063783d2231312e333437384c32342031324c31342e343334312031322e363532324c32322e333932332031384c31332e373831392031332e373831394c31382032322e333932334c31322e363532322031342e343334314c31322032344c31312e333437382031342e343334314c362032322e33393c726563742066696c6c3d226e6f6e652220783d223070782220793d22307078222077696474683d22323930707822206865696768743d22353030707822202f3e4142434445464748494a4b4c4d4e4f505152535455565758595a6162636465666768696a6b6c6d6e6f707172737475767778797a303132333435363738392b2f20786d6c6e733a786c696e6b3d27687474703a2f2f7777772e77332e6f72672f313939392f786c696e6b273e3c6c696e6561724772616469656e742069643d22677261642d73796d626f6c223e3c73746f70206f66667365743d22302e37222073746f702d636f6c6f723d227768697465222073746f702d6f7061636974793d223122202f3e3c73746f70206f66667365743d222e3935222073746f702d636f6c6f723d227768697465222073746f702d6f7061636974793d223022202f3e3c2f6c696e6561724772616469656e743e207374796c653d227472616e73666f726d3a7472616e736c61746528373270782c313839707829223e3c7265637420783d222d313670782220793d222d31367078222077696474683d22313830707822206865696768743d223138307078222066696c6c3d226e6f6e6522202f3e3c7061746820643d22207374796c653d227472616e73666f726d3a7472616e736c61746528373270782c313839707829223e70782220723d2232347078222066696c6c3d226e6f6e6522207374726f6b653d22776869746522202f3e3c7265637420783d222d313670782220793d222d31367078222077696474683d22313830707822206865696768743d223138307078222066696c6c3d226e6f6e6522202f3e536166654d6174683a206d756c7469706c69636174696f6e206f766572666c6f773c673e3c70617468207374796c653d227472616e73666f726d3a7472616e736c617465283670782c367078292220643d224d313220304c31322e3635323220392e35363538374c313820312e363037374c31332e373831392031302e323138314c32322e3339323320364c31342e34333431203c70617468207374726f6b652d6c696e656361703d22726f756e642220643d224d38203943382e30303030342032322e393439342031362e32303939203238203237203238222066696c6c3d226e6f6e6522207374726f6b653d22776869746522202f3e20726570656174436f756e743d22696e646566696e69746522202f3e3c2f74657874506174683e3c74657874506174682073746172744f66667365743d222d353025222066696c6c3d2277686974652220666f6e742d66616d696c793d2227436f7572696572204e6577272c206d6f6e6f73706163652220666f6e742d73697a653d22313070782220786c696e6b3a687265663d2223746578742d706174682d61223e3c6d61736b2069643d22666164652d646f776e22206d61736b436f6e74656e74556e6974733d226f626a656374426f756e64696e67426f78223e3c726563742077696474683d223122206865696768743d2231222066696c6c3d2275726c2823677261642d646f776e2922202f3e3c2f6d61736b3e22207374726f6b653d2272676261283235352c3235352c3235352c3129222066696c6c3d226e6f6e6522207374726f6b652d6c696e656361703d22726f756e6422202f3e3c2f673e696e3d22626c656e644f75742220737464446576696174696f6e3d22343222202f3e3c2f66696c7465723e203c636c6970506174682069643d22636f726e657273223e3c726563742077696474683d2232393022206865696768743d22353030222072783d223432222072793d22343222202f3e3c2f636c6970506174683e203c67207374796c653d227472616e73666f726d3a7472616e736c61746528323970782c20333834707829223e3c6c696e6561724772616469656e742069643d22677261642d7570222078313d2231222078323d2230222079313d2231222079323d2230223e3c73746f70206f66667365743d22302e30222073746f702d636f6c6f723d227768697465222073746f702d6f7061636974793d223122202f3e32334c31302e323138312031332e373831394c312e363037372031384c392e35363538372031322e363532324c302031324c392e35363538372031312e333437384c312e3630373720364c31302e323138312031302e323138314c3620312e363037374c31312e3334373820392e35363538374c313220305a222066696c6c3d22776869746522202f3e3c67207374796c653d227472616e73666f726d3a7472616e736c6174652832323670782c20333932707829223e3c726563742077696474683d223336707822206865696768743d2233367078222072783d22387078222072793d22387078222066696c6c3d226e6f6e6522207374726f6b653d2272676261283235352c3235352c3235352c302e322922202f3e3c74657874506174682073746172744f66667365743d22353025222066696c6c3d2277686974652220666f6e742d66616d696c793d2227436f7572696572204e6577272c206d6f6e6f73706163652220666f6e742d73697a653d22313070782220786c696e6b3a687265663d2223746578742d706174682d61223e3c7465787420783d22313270782220793d22313770782220666f6e742d66616d696c793d2227436f7572696572204e6577272c206d6f6e6f73706163652220666f6e742d73697a653d2231327078222066696c6c3d227768697465223e3c747370616e2066696c6c3d2272676261283235352c3235352c3235352c302e3629223e4d6178205469636b3a203c2f747370616e3e3c616e696d6174655472616e73666f726d206174747269627574654e616d653d227472616e73666f726d2220747970653d22726f74617465222066726f6d3d22302031382031382220746f3d2233363020313820313822206475723d223130732220726570656174436f756e743d22696e646566696e697465222f3e3c2f673e3c2f673e3c706174682069643d22746578742d706174682d612220643d224d34302031322048323530204132382032382030203020312032373820343020563436302041323820323820302030203120323530203438382048343020413238203238203020302031203132203436302056343020413238203238203020302031203430203132207a22202f3e222f3e3c6665496d61676520726573756c743d2270312220786c696e6b3a687265663d22646174613a696d6167652f7376672b786d6c3b6261736536342c3c6d61736b2069643d22666164652d73796d626f6c22206d61736b436f6e74656e74556e6974733d227573657253706163654f6e557365223e3c726563742077696474683d22323930707822206865696768743d223230307078222066696c6c3d2275726c2823677261642d73796d626f6c2922202f3e3c2f6d61736b3e3c2f646566733e3c7265637420783d22302220793d2230222077696474683d2232393022206865696768743d22353030222072783d223432222072793d223432222066696c6c3d227267626128302c302c302c302922207374726f6b653d2272676261283235352c3235352c3235352c302e322922202f3e3c2f673e3c66696c7465722069643d22746f702d726567696f6e2d626c7572223e3c6665476175737369616e426c757220696e3d22536f75726365477261706869632220737464446576696174696f6e3d22323422202f3e3c2f66696c7465723e3c2f74657874506174683e203c74657874506174682073746172744f66667365743d223025222066696c6c3d2277686974652220666f6e742d66616d696c793d2227436f7572696572204e6577272c206d6f6e6f73706163652220666f6e742d73697a653d22313070782220786c696e6b3a687265663d2223746578742d706174682d61223e3c7465787420746578742d72656e646572696e673d226f7074696d697a655370656564223e5369676e6564536166654d6174683a207375627472616374696f6e206f766572666c6f773c7265637420783d2231362220793d223136222077696474683d2232353822206865696768743d22343638222072783d223236222072793d223236222066696c6c3d227267626128302c302c302c302922207374726f6b653d2272676261283235352c3235352c3235352c302e322922202f3e3c7465787420783d22313270782220793d22313770782220666f6e742d66616d696c793d2227436f7572696572204e6577272c206d6f6e6f73706163652220666f6e742d73697a653d2231327078222066696c6c3d227768697465223e3c747370616e2066696c6c3d2272676261283235352c3235352c3235352c302e3629223e49443a203c2f747370616e3e3c726563742077696474683d223336707822206865696768743d2233367078222072783d22387078222072793d22387078222066696c6c3d226e6f6e6522207374726f6b653d2272676261283235352c3235352c3235352c302e322922202f3e3c2f746578743e3c7465787420793d2231313570782220783d2233327078222066696c6c3d2277686974652220666f6e742d66616d696c793d2227436f7572696572204e6577272c206d6f6e6f73706163652220666f6e742d7765696768743d223230302220666f6e742d73697a653d2233367078223e3c2f746578743e3c2f673e3c67207374796c653d227472616e73666f726d3a7472616e736c6174652832323670782c20343333707829223e203c67207374796c653d227472616e73666f726d3a7472616e736c61746528323970782c20343134707829223ea2646970667358221220e6a1ea8e17fea10a7dcf33be5b97d221356efa33223b924ec56e053139e0787c64736f6c63430007060033",
			"opcodes": "PUSH2 0x5B40 PUSH2 0x26 PUSH1 0xB DUP3 DUP3 DUP3 CODECOPY DUP1 MLOAD PUSH1 0x0 BYTE PUSH1 0x73 EQ PUSH2 0x19 JUMPI INVALID JUMPDEST ADDRESS PUSH1 0x0 MSTORE PUSH1 0x73 DUP2 MSTORE8 DUP3 DUP2 RETURN INVALID PUSH20 0x0 ADDRESS EQ PUSH1 0x80 PUSH1 0x40 MSTORE PUSH1 0x4 CALLDATASIZE LT PUSH2 0x35 JUMPI PUSH1 0x0 CALLDATALOAD PUSH1 0xE0 SHR DUP1 PUSH4 0xC49917D7 EQ PUSH2 0x3A JUMPI JUMPDEST PUSH1 0x0 DUP1 REVERT JUMPDEST PUSH2 0x4D PUSH2 0x48 CALLDATASIZE PUSH1 0x4 PUSH2 0x3B44 JUMP JUMPDEST PUSH2 0x63 JUMP JUMPDEST PUSH1 0x40 MLOAD PUSH2 0x5A SWAP2 SWAP1 PUSH2 0x4184 JUMP JUMPDEST PUSH1 0x40 MLOAD DUP1 SWAP2 SUB SWAP1 RETURN JUMPDEST PUSH1 0x60 PUSH1 0x0 PUSH2 0x7E DUP4 PUSH2 0x79 DUP6 PUSH2 0x180 ADD MLOAD PUSH2 0x170 JUMP JUMPDEST PUSH2 0x3B6 JUMP JUMPDEST SWAP1 POP PUSH1 0x0 PUSH2 0xB2 PUSH2 0x92 DUP6 PUSH1 0x60 ADD MLOAD PUSH2 0x471 JUMP JUMPDEST PUSH2 0x9F DUP7 PUSH1 0x80 ADD MLOAD PUSH2 0x471 JUMP JUMPDEST PUSH2 0xAD DUP8 PUSH2 0x1A0 ADD MLOAD PUSH2 0x5DD JUMP JUMPDEST PUSH2 0x5F3 JUMP JUMPDEST SWAP1 POP PUSH1 0x0 PUSH2 0x100 PUSH2 0xC6 DUP7 PUSH1 0x0 ADD MLOAD PUSH2 0x625 JUMP JUMPDEST PUSH2 0xD3 DUP8 PUSH1 0x80 ADD MLOAD PUSH2 0x471 JUMP JUMPDEST PUSH2 0xE0 DUP9 PUSH1 0x20 ADD MLOAD PUSH2 0x5DD JUMP JUMPDEST PUSH2 0xED DUP10 PUSH1 0x40 ADD MLOAD PUSH2 0x5DD JUMP JUMPDEST PUSH2 0xFB DUP11 PUSH2 0x180 ADD MLOAD PUSH2 0x170 JUMP JUMPDEST PUSH2 0x700 JUMP JUMPDEST SWAP1 POP PUSH1 0x0 PUSH2 0x115 PUSH2 0x110 DUP8 PUSH2 0x736 JUMP JUMPDEST PUSH2 0x971 JUMP JUMPDEST SWAP1 POP PUSH2 0x145 DUP5 DUP5 DUP5 DUP5 PUSH1 0x40 MLOAD PUSH1 0x20 ADD PUSH2 0x131 SWAP5 SWAP4 SWAP3 SWAP2 SWAP1 PUSH2 0x3EC5 JUMP JUMPDEST PUSH1 0x40 MLOAD PUSH1 0x20 DUP2 DUP4 SUB SUB DUP2 MSTORE SWAP1 PUSH1 0x40 MSTORE PUSH2 0x971 JUMP JUMPDEST PUSH1 0x40 MLOAD PUSH1 0x20 ADD PUSH2 0x155 SWAP2 SWAP1 PUSH2 0x413F JUMP JUMPDEST PUSH1 0x40 MLOAD PUSH1 0x20 DUP2 DUP4 SUB SUB DUP2 MSTORE SWAP1 PUSH1 0x40 MSTORE SWAP5 POP POP POP POP POP JUMPDEST SWAP2 SWAP1 POP JUMP JUMPDEST PUSH1 0x60 PUSH3 0xFFFFFF DUP3 AND PUSH2 0x19B JUMPI POP PUSH1 0x40 DUP1 MLOAD DUP1 DUP3 ADD SWAP1 SWAP2 MSTORE PUSH1 0x2 DUP2 MSTORE PUSH2 0x3025 PUSH1 0xF0 SHL PUSH1 0x20 DUP3 ADD MSTORE PUSH2 0x16B JUMP JUMPDEST DUP2 PUSH1 0x0 DUP1 JUMPDEST PUSH3 0xFFFFFF DUP4 AND ISZERO PUSH2 0x1EB JUMPI PUSH1 0xFF DUP2 AND ISZERO PUSH2 0x1BC JUMPI PUSH1 0x1 ADD PUSH2 0x1D5 JUMP JUMPDEST PUSH1 0xA PUSH3 0xFFFFFF DUP5 AND MOD PUSH3 0xFFFFFF AND PUSH1 0x0 EQ PUSH2 0x1D5 JUMPI PUSH1 0x1 ADD JUMPDEST PUSH1 0x1 SWAP1 SWAP2 ADD SWAP1 PUSH1 0xA PUSH3 0xFFFFFF DUP5 AND DIV SWAP3 POP PUSH2 0x1A0 JUMP JUMPDEST PUSH2 0x1F3 PUSH2 0x3A3E JUMP JUMPDEST PUSH1 0x0 PUSH1 0x5 DUP5 LT PUSH2 0x2E8 JUMPI PUSH1 0x0 PUSH1 0x4 PUSH2 0x20E DUP7 PUSH1 0xFF DUP8 AND PUSH2 0xAB2 JUMP JUMPDEST LT ISZERO PUSH2 0x21B JUMPI PUSH1 0x1 PUSH2 0x21E JUMP JUMPDEST PUSH1 0x0 JUMPDEST PUSH1 0xFF SWAP1 DUP2 AND SWAP2 POP PUSH2 0x232 SWAP1 DUP6 AND PUSH1 0x1 PUSH2 0xAB2 JUMP JUMPDEST PUSH2 0x23D DUP7 PUSH1 0x5 PUSH2 0xAB2 JUMP JUMPDEST LT PUSH2 0x269 JUMPI PUSH2 0x264 PUSH2 0x253 PUSH1 0xFF DUP7 AND PUSH1 0x1 PUSH2 0xAB2 JUMP JUMPDEST PUSH2 0x25E DUP8 PUSH1 0x5 PUSH2 0xAB2 JUMP JUMPDEST SWAP1 PUSH2 0xAB2 JUMP JUMPDEST PUSH2 0x26C JUMP JUMPDEST PUSH1 0x0 JUMPDEST PUSH1 0xFF DUP6 AND PUSH1 0x80 DUP6 ADD DUP2 SWAP1 MSTORE SWAP1 SWAP3 POP PUSH2 0x28B SWAP1 PUSH1 0x1 SWAP1 PUSH2 0x25E SWAP1 DUP6 PUSH2 0xB0F JUMP JUMPDEST PUSH1 0xFF SWAP1 DUP2 AND PUSH1 0xA0 DUP6 ADD MSTORE PUSH1 0x80 DUP5 ADD MLOAD PUSH2 0x2B2 SWAP2 DUP4 SWAP2 PUSH2 0x2AC SWAP2 AND PUSH1 0x1 PUSH2 0xAB2 JUMP JUMPDEST SWAP1 PUSH2 0xB0F JUMP JUMPDEST PUSH1 0xFF SWAP1 DUP2 AND PUSH1 0x40 DUP6 ADD MSTORE PUSH2 0x2DA SWAP1 DUP3 SWAP1 PUSH2 0x2AC SWAP1 PUSH2 0x2D3 SWAP1 DUP9 AND PUSH1 0x1 PUSH2 0xB0F JUMP JUMPDEST DUP6 SWAP1 PUSH2 0xB0F JUMP JUMPDEST PUSH1 0xFF AND PUSH1 0x20 DUP5 ADD MSTORE POP PUSH2 0x358 JUMP JUMPDEST PUSH2 0x2F3 PUSH1 0x5 DUP6 PUSH2 0xAB2 JUMP JUMPDEST PUSH1 0x2 PUSH1 0x80 DUP5 ADD DUP2 SWAP1 MSTORE SWAP1 SWAP2 POP PUSH2 0x311 SWAP1 PUSH1 0x1 SWAP1 PUSH2 0x25E SWAP1 DUP5 SWAP1 PUSH2 0xB0F JUMP JUMPDEST PUSH1 0xFF SWAP1 DUP2 AND PUSH1 0xA0 DUP5 ADD MSTORE PUSH2 0x333 SWAP1 PUSH2 0x32C SWAP1 DUP6 AND PUSH1 0x2 PUSH2 0xB0F JUMP JUMPDEST DUP3 SWAP1 PUSH2 0xB0F JUMP JUMPDEST PUSH1 0xFF AND PUSH1 0x20 DUP4 ADD DUP2 SWAP1 MSTORE PUSH2 0x348 SWAP1 PUSH1 0x2 PUSH2 0xAB2 JUMP JUMPDEST PUSH1 0xFF AND PUSH1 0x40 DUP4 ADD MSTORE PUSH1 0x1 PUSH1 0xC0 DUP4 ADD MSTORE JUMPDEST PUSH2 0x377 PUSH2 0x368 DUP6 PUSH1 0xFF DUP7 AND PUSH2 0xAB2 JUMP JUMPDEST PUSH3 0xFFFFFF DUP10 AND SWAP1 PUSH1 0xA EXP PUSH2 0xB69 JUMP JUMPDEST DUP3 MSTORE PUSH1 0x1 PUSH1 0xE0 DUP4 ADD MSTORE PUSH1 0x4 DUP5 GT PUSH2 0x38F JUMPI PUSH1 0x0 PUSH2 0x39A JUMP JUMPDEST PUSH2 0x39A DUP5 PUSH1 0x4 PUSH2 0xAB2 JUMP JUMPDEST PUSH1 0xFF AND PUSH1 0x60 DUP4 ADD MSTORE PUSH2 0x3AB DUP3 PUSH2 0xBD0 JUMP JUMPDEST SWAP8 SWAP7 POP POP POP POP POP POP POP JUMP JUMPDEST PUSH1 0x60 DUP2 PUSH2 0x3C6 DUP5 PUSH1 0x60 ADD MLOAD PUSH2 0x471 JUMP JUMPDEST PUSH2 0x3D3 DUP6 PUSH1 0x80 ADD MLOAD PUSH2 0x471 JUMP JUMPDEST PUSH2 0x40C DUP7 PUSH1 0xE0 ADD MLOAD ISZERO PUSH2 0x3EB JUMPI DUP7 PUSH2 0x120 ADD MLOAD PUSH2 0x3F2 JUMP JUMPDEST DUP7 PUSH2 0x100 ADD MLOAD JUMPDEST DUP8 PUSH2 0x160 ADD MLOAD DUP9 PUSH1 0xC0 ADD MLOAD DUP10 PUSH1 0xA0 ADD MLOAD DUP11 PUSH1 0xE0 ADD MLOAD PUSH2 0xDE0 JUMP JUMPDEST PUSH2 0x445 DUP8 PUSH1 0xE0 ADD MLOAD ISZERO PUSH2 0x424 JUMPI DUP8 PUSH2 0x100 ADD MLOAD PUSH2 0x42B JUMP JUMPDEST DUP8 PUSH2 0x120 ADD MLOAD JUMPDEST DUP9 PUSH2 0x160 ADD MLOAD DUP10 PUSH1 0xC0 ADD MLOAD DUP11 PUSH1 0xA0 ADD MLOAD DUP12 PUSH1 0xE0 ADD MLOAD PUSH2 0xDE0 JUMP JUMPDEST PUSH1 0x40 MLOAD PUSH1 0x20 ADD PUSH2 0x459 SWAP6 SWAP5 SWAP4 SWAP3 SWAP2 SWAP1 PUSH2 0x3FA3 JUMP JUMPDEST PUSH1 0x40 MLOAD PUSH1 0x20 DUP2 DUP4 SUB SUB DUP2 MSTORE SWAP1 PUSH1 0x40 MSTORE SWAP1 POP JUMPDEST SWAP3 SWAP2 POP POP JUMP JUMPDEST PUSH1 0x60 DUP2 PUSH1 0x0 DUP1 JUMPDEST DUP3 MLOAD DUP2 PUSH1 0xFF AND LT ISZERO PUSH2 0x4BD JUMPI DUP3 DUP2 PUSH1 0xFF AND DUP2 MLOAD DUP2 LT PUSH2 0x493 JUMPI INVALID JUMPDEST PUSH1 0x20 SWAP2 ADD ADD MLOAD PUSH1 0x1 PUSH1 0x1 PUSH1 0xF8 SHL SUB NOT AND PUSH1 0x11 PUSH1 0xF9 SHL EQ ISZERO PUSH2 0x4B5 JUMPI PUSH1 0x1 SWAP1 SWAP2 ADD SWAP1 JUMPDEST PUSH1 0x1 ADD PUSH2 0x478 JUMP JUMPDEST POP PUSH1 0xFF DUP2 AND ISZERO PUSH2 0x5D5 JUMPI PUSH1 0x0 DUP2 PUSH1 0xFF AND DUP4 MLOAD ADD PUSH8 0xFFFFFFFFFFFFFFFF DUP2 GT DUP1 ISZERO PUSH2 0x4E6 JUMPI PUSH1 0x0 DUP1 REVERT JUMPDEST POP PUSH1 0x40 MLOAD SWAP1 DUP1 DUP3 MSTORE DUP1 PUSH1 0x1F ADD PUSH1 0x1F NOT AND PUSH1 0x20 ADD DUP3 ADD PUSH1 0x40 MSTORE DUP1 ISZERO PUSH2 0x511 JUMPI PUSH1 0x20 DUP3 ADD DUP2 DUP1 CALLDATASIZE DUP4 CALLDATACOPY ADD SWAP1 POP JUMPDEST POP SWAP1 POP PUSH1 0x0 DUP1 JUMPDEST DUP5 MLOAD DUP2 PUSH1 0xFF AND LT ISZERO PUSH2 0x5C8 JUMPI DUP5 DUP2 PUSH1 0xFF AND DUP2 MLOAD DUP2 LT PUSH2 0x533 JUMPI INVALID JUMPDEST PUSH1 0x20 SWAP2 ADD ADD MLOAD PUSH1 0x1 PUSH1 0x1 PUSH1 0xF8 SHL SUB NOT AND PUSH1 0x11 PUSH1 0xF9 SHL EQ ISZERO PUSH2 0x57D JUMPI PUSH1 0x17 PUSH1 0xFA SHL DUP4 DUP4 DUP1 PUSH1 0x1 ADD SWAP5 POP DUP2 MLOAD DUP2 LT PUSH2 0x565 JUMPI INVALID JUMPDEST PUSH1 0x20 ADD ADD SWAP1 PUSH1 0x1 PUSH1 0x1 PUSH1 0xF8 SHL SUB NOT AND SWAP1 DUP2 PUSH1 0x0 BYTE SWAP1 MSTORE8 POP JUMPDEST DUP5 DUP2 PUSH1 0xFF AND DUP2 MLOAD DUP2 LT PUSH2 0x58C JUMPI INVALID JUMPDEST PUSH1 0x20 ADD ADD MLOAD PUSH1 0xF8 SHR PUSH1 0xF8 SHL DUP4 DUP4 DUP1 PUSH1 0x1 ADD SWAP5 POP DUP2 MLOAD DUP2 LT PUSH2 0x5A9 JUMPI INVALID JUMPDEST PUSH1 0x20 ADD ADD SWAP1 PUSH1 0x1 PUSH1 0x1 PUSH1 0xF8 SHL SUB NOT AND SWAP1 DUP2 PUSH1 0x0 BYTE SWAP1 MSTORE8 POP PUSH1 0x1 ADD PUSH2 0x518 JUMP JUMPDEST POP DUP2 SWAP5 POP POP POP POP POP PUSH2 0x16B JUMP JUMPDEST POP SWAP2 SWAP3 SWAP2 POP POP JUMP JUMPDEST PUSH1 0x60 PUSH2 0x46B PUSH1 0x1 PUSH1 0x1 PUSH1 0xA0 SHL SUB DUP4 AND PUSH1 0x14 PUSH2 0xEF5 JUMP JUMPDEST PUSH1 0x60 DUP4 DUP4 DUP4 DUP7 PUSH1 0x40 MLOAD PUSH1 0x20 ADD PUSH2 0x60C SWAP5 SWAP4 SWAP3 SWAP2 SWAP1 PUSH2 0x3D9C JUMP JUMPDEST PUSH1 0x40 MLOAD PUSH1 0x20 DUP2 DUP4 SUB SUB DUP2 MSTORE SWAP1 PUSH1 0x40 MSTORE SWAP1 POP JUMPDEST SWAP4 SWAP3 POP POP POP JUMP JUMPDEST PUSH1 0x60 DUP2 PUSH2 0x64A JUMPI POP PUSH1 0x40 DUP1 MLOAD DUP1 DUP3 ADD SWAP1 SWAP2 MSTORE PUSH1 0x1 DUP2 MSTORE PUSH1 0x3 PUSH1 0xFC SHL PUSH1 0x20 DUP3 ADD MSTORE PUSH2 0x16B JUMP JUMPDEST DUP2 PUSH1 0x0 JUMPDEST DUP2 ISZERO PUSH2 0x662 JUMPI PUSH1 0x1 ADD PUSH1 0xA DUP3 DIV SWAP2 POP PUSH2 0x64E JUMP JUMPDEST PUSH1 0x0 DUP2 PUSH8 0xFFFFFFFFFFFFFFFF DUP2 GT DUP1 ISZERO PUSH2 0x67B JUMPI PUSH1 0x0 DUP1 REVERT JUMPDEST POP PUSH1 0x40 MLOAD SWAP1 DUP1 DUP3 MSTORE DUP1 PUSH1 0x1F ADD PUSH1 0x1F NOT AND PUSH1 0x20 ADD DUP3 ADD PUSH1 0x40 MSTORE DUP1 ISZERO PUSH2 0x6A6 JUMPI PUSH1 0x20 DUP3 ADD DUP2 DUP1 CALLDATASIZE DUP4 CALLDATACOPY ADD SWAP1 POP JUMPDEST POP DUP6 SWAP4 POP SWAP1 POP PUSH1 0x0 NOT DUP3 ADD JUMPDEST DUP4 ISZERO PUSH2 0x6F7 JUMPI PUSH1 0xA DUP5 MOD PUSH1 0x30 ADD PUSH1 0xF8 SHL DUP3 DUP3 DUP1 PUSH1 0x1 SWAP1 SUB SWAP4 POP DUP2 MLOAD DUP2 LT PUSH2 0x6D5 JUMPI INVALID JUMPDEST PUSH1 0x20 ADD ADD SWAP1 PUSH1 0x1 PUSH1 0x1 PUSH1 0xF8 SHL SUB NOT AND SWAP1 DUP2 PUSH1 0x0 BYTE SWAP1 MSTORE8 POP PUSH1 0xA DUP5 DIV SWAP4 POP PUSH2 0x6B2 JUMP JUMPDEST POP SWAP5 SWAP4 POP POP POP POP JUMP JUMPDEST PUSH1 0x60 DUP4 DUP6 DUP5 DUP5 DUP10 PUSH1 0x40 MLOAD PUSH1 0x20 ADD PUSH2 0x71B SWAP6 SWAP5 SWAP4 SWAP3 SWAP2 SWAP1 PUSH2 0x405C JUMP JUMPDEST PUSH1 0x40 MLOAD PUSH1 0x20 DUP2 DUP4 SUB SUB DUP2 MSTORE SWAP1 PUSH1 0x40 MSTORE SWAP1 POP JUMPDEST SWAP6 SWAP5 POP POP POP POP POP JUMP JUMPDEST PUSH1 0x60 PUSH1 0x0 PUSH1 0x40 MLOAD DUP1 PUSH2 0x2A0 ADD PUSH1 0x40 MSTORE DUP1 PUSH2 0x753 DUP6 PUSH1 0x20 ADD MLOAD PUSH2 0x5DD JUMP JUMPDEST DUP2 MSTORE PUSH1 0x20 ADD PUSH2 0x765 DUP6 PUSH1 0x40 ADD MLOAD PUSH2 0x5DD JUMP JUMPDEST DUP2 MSTORE PUSH1 0x20 ADD DUP5 PUSH2 0x1A0 ADD MLOAD PUSH1 0x1 PUSH1 0x1 PUSH1 0xA0 SHL SUB AND DUP2 MSTORE PUSH1 0x20 ADD DUP5 PUSH1 0x60 ADD MLOAD DUP2 MSTORE PUSH1 0x20 ADD DUP5 PUSH1 0x80 ADD MLOAD DUP2 MSTORE PUSH1 0x20 ADD PUSH2 0x7A0 DUP6 PUSH2 0x180 ADD MLOAD PUSH2 0x170 JUMP JUMPDEST DUP2 MSTORE PUSH1 0x20 ADD DUP5 PUSH2 0x100 ADD MLOAD PUSH1 0x2 SIGNEXTEND DUP2 MSTORE PUSH1 0x20 ADD DUP5 PUSH2 0x120 ADD MLOAD PUSH1 0x2 SIGNEXTEND DUP2 MSTORE PUSH1 0x20 ADD DUP5 PUSH2 0x160 ADD MLOAD PUSH1 0x2 SIGNEXTEND DUP2 MSTORE PUSH1 0x20 ADD PUSH2 0x7E9 DUP6 PUSH2 0x100 ADD MLOAD DUP7 PUSH2 0x120 ADD MLOAD DUP8 PUSH2 0x140 ADD MLOAD PUSH2 0x1054 JUMP JUMPDEST PUSH1 0x0 SIGNEXTEND DUP2 MSTORE PUSH1 0x20 ADD DUP5 PUSH1 0x0 ADD MLOAD DUP2 MSTORE PUSH1 0x20 ADD PUSH2 0x813 DUP6 PUSH1 0x20 ADD MLOAD PUSH1 0x1 PUSH1 0x1 PUSH1 0xA0 SHL SUB AND PUSH1 0x88 PUSH2 0x108B JUMP JUMPDEST DUP2 MSTORE PUSH1 0x20 ADD PUSH2 0x830 DUP6 PUSH1 0x40 ADD MLOAD PUSH1 0x1 PUSH1 0x1 PUSH1 0xA0 SHL SUB AND PUSH1 0x88 PUSH2 0x108B JUMP JUMPDEST DUP2 MSTORE PUSH1 0x20 ADD PUSH2 0x84D DUP6 PUSH1 0x20 ADD MLOAD PUSH1 0x1 PUSH1 0x1 PUSH1 0xA0 SHL SUB AND PUSH1 0x0 PUSH2 0x108B JUMP JUMPDEST DUP2 MSTORE PUSH1 0x20 ADD PUSH2 0x86A DUP6 PUSH1 0x40 ADD MLOAD PUSH1 0x1 PUSH1 0x1 PUSH1 0xA0 SHL SUB AND PUSH1 0x0 PUSH2 0x108B JUMP JUMPDEST DUP2 MSTORE PUSH1 0x20 ADD PUSH2 0x89D PUSH2 0x88F DUP7 PUSH1 0x20 ADD MLOAD PUSH1 0x1 PUSH1 0x1 PUSH1 0xA0 SHL SUB AND PUSH1 0x10 DUP9 PUSH1 0x0 ADD MLOAD PUSH2 0x109A JUMP JUMPDEST PUSH1 0x0 PUSH1 0xFF PUSH1 0x10 PUSH2 0x112 PUSH2 0x10BA JUMP JUMPDEST DUP2 MSTORE PUSH1 0x20 ADD PUSH2 0x8D0 PUSH2 0x8C2 DUP7 PUSH1 0x40 ADD MLOAD PUSH1 0x1 PUSH1 0x1 PUSH1 0xA0 SHL SUB AND PUSH1 0x10 DUP9 PUSH1 0x0 ADD MLOAD PUSH2 0x109A JUMP JUMPDEST PUSH1 0x0 PUSH1 0xFF PUSH1 0x64 PUSH2 0x1E4 PUSH2 0x10BA JUMP JUMPDEST DUP2 MSTORE PUSH1 0x20 ADD PUSH2 0x8F5 PUSH2 0x88F DUP7 PUSH1 0x20 ADD MLOAD PUSH1 0x1 PUSH1 0x1 PUSH1 0xA0 SHL SUB AND PUSH1 0x20 DUP9 PUSH1 0x0 ADD MLOAD PUSH2 0x109A JUMP JUMPDEST DUP2 MSTORE PUSH1 0x20 ADD PUSH2 0x91A PUSH2 0x8C2 DUP7 PUSH1 0x40 ADD MLOAD PUSH1 0x1 PUSH1 0x1 PUSH1 0xA0 SHL SUB AND PUSH1 0x20 DUP9 PUSH1 0x0 ADD MLOAD PUSH2 0x109A JUMP JUMPDEST DUP2 MSTORE PUSH1 0x20 ADD PUSH2 0x93F PUSH2 0x88F DUP7 PUSH1 0x20 ADD MLOAD PUSH1 0x1 PUSH1 0x1 PUSH1 0xA0 SHL SUB AND PUSH1 0x30 DUP9 PUSH1 0x0 ADD MLOAD PUSH2 0x109A JUMP JUMPDEST DUP2 MSTORE PUSH1 0x20 ADD PUSH2 0x964 PUSH2 0x8C2 DUP7 PUSH1 0x40 ADD MLOAD PUSH1 0x1 PUSH1 0x1 PUSH1 0xA0 SHL SUB AND PUSH1 0x30 DUP9 PUSH1 0x0 ADD MLOAD PUSH2 0x109A JUMP JUMPDEST SWAP1 MSTORE SWAP1 POP PUSH2 0x61E DUP2 PUSH2 0x1102 JUMP JUMPDEST PUSH1 0x60 DUP2 MLOAD PUSH1 0x0 EQ ISZERO PUSH2 0x992 JUMPI POP PUSH1 0x40 DUP1 MLOAD PUSH1 0x20 DUP2 ADD SWAP1 SWAP2 MSTORE PUSH1 0x0 DUP2 MSTORE PUSH2 0x16B JUMP JUMPDEST PUSH1 0x0 PUSH1 0x40 MLOAD DUP1 PUSH1 0x60 ADD PUSH1 0x40 MSTORE DUP1 PUSH1 0x40 DUP2 MSTORE PUSH1 0x20 ADD PUSH2 0x4DA5 PUSH1 0x40 SWAP2 CODECOPY SWAP1 POP PUSH1 0x0 PUSH1 0x3 DUP5 MLOAD PUSH1 0x2 ADD DUP2 PUSH2 0x9BF JUMPI INVALID JUMPDEST DIV PUSH1 0x4 MUL PUSH8 0xFFFFFFFFFFFFFFFF DUP2 GT DUP1 ISZERO PUSH2 0x9D9 JUMPI PUSH1 0x0 DUP1 REVERT JUMPDEST POP PUSH1 0x40 MLOAD SWAP1 DUP1 DUP3 MSTORE DUP1 PUSH1 0x1F ADD PUSH1 0x1F NOT AND PUSH1 0x20 ADD DUP3 ADD PUSH1 0x40 MSTORE DUP1 ISZERO PUSH2 0xA04 JUMPI PUSH1 0x20 DUP3 ADD DUP2 DUP1 CALLDATASIZE DUP4 CALLDATACOPY ADD SWAP1 POP JUMPDEST POP SWAP1 POP PUSH1 0x1 DUP3 ADD PUSH1 0x20 DUP3 ADD DUP6 DUP7 MLOAD DUP8 ADD JUMPDEST DUP1 DUP3 LT ISZERO PUSH2 0xA70 JUMPI PUSH1 0x3 DUP3 ADD SWAP2 POP DUP2 MLOAD PUSH1 0x3F DUP2 PUSH1 0x12 SHR AND DUP6 ADD MLOAD DUP5 MSTORE8 PUSH1 0x1 DUP5 ADD SWAP4 POP PUSH1 0x3F DUP2 PUSH1 0xC SHR AND DUP6 ADD MLOAD DUP5 MSTORE8 PUSH1 0x1 DUP5 ADD SWAP4 POP PUSH1 0x3F DUP2 PUSH1 0x6 SHR AND DUP6 ADD MLOAD DUP5 MSTORE8 PUSH1 0x1 DUP5 ADD SWAP4 POP PUSH1 0x3F DUP2 AND DUP6 ADD MLOAD DUP5 MSTORE8 POP PUSH1 0x1 DUP4 ADD SWAP3 POP PUSH2 0xA15 JUMP JUMPDEST POP POP PUSH1 0x3 DUP7 MLOAD MOD PUSH1 0x1 DUP2 EQ PUSH2 0xA8C JUMPI PUSH1 0x2 DUP2 EQ PUSH2 0xA9F JUMPI PUSH2 0xAA7 JUMP JUMPDEST PUSH1 0x3D PUSH1 0x1 DUP4 SUB MSTORE8 PUSH1 0x3D PUSH1 0x2 DUP4 SUB MSTORE8 PUSH2 0xAA7 JUMP JUMPDEST PUSH1 0x3D PUSH1 0x1 DUP4 SUB MSTORE8 JUMPDEST POP SWAP2 SWAP6 SWAP5 POP POP POP POP POP JUMP JUMPDEST PUSH1 0x0 DUP3 DUP3 GT ISZERO PUSH2 0xB09 JUMPI PUSH1 0x40 DUP1 MLOAD PUSH3 0x461BCD PUSH1 0xE5 SHL DUP2 MSTORE PUSH1 0x20 PUSH1 0x4 DUP3 ADD MSTORE PUSH1 0x1E PUSH1 0x24 DUP3 ADD MSTORE PUSH32 0x536166654D6174683A207375627472616374696F6E206F766572666C6F770000 PUSH1 0x44 DUP3 ADD MSTORE SWAP1 MLOAD SWAP1 DUP2 SWAP1 SUB PUSH1 0x64 ADD SWAP1 REVERT JUMPDEST POP SWAP1 SUB SWAP1 JUMP JUMPDEST PUSH1 0x0 DUP3 DUP3 ADD DUP4 DUP2 LT ISZERO PUSH2 0x61E JUMPI PUSH1 0x40 DUP1 MLOAD PUSH3 0x461BCD PUSH1 0xE5 SHL DUP2 MSTORE PUSH1 0x20 PUSH1 0x4 DUP3 ADD MSTORE PUSH1 0x1B PUSH1 0x24 DUP3 ADD MSTORE PUSH32 0x536166654D6174683A206164646974696F6E206F766572666C6F770000000000 PUSH1 0x44 DUP3 ADD MSTORE SWAP1 MLOAD SWAP1 DUP2 SWAP1 SUB PUSH1 0x64 ADD SWAP1 REVERT JUMPDEST PUSH1 0x0 DUP1 DUP3 GT PUSH2 0xBBF JUMPI PUSH1 0x40 DUP1 MLOAD PUSH3 0x461BCD PUSH1 0xE5 SHL DUP2 MSTORE PUSH1 0x20 PUSH1 0x4 DUP3 ADD MSTORE PUSH1 0x1A PUSH1 0x24 DUP3 ADD MSTORE PUSH32 0x536166654D6174683A206469766973696F6E206279207A65726F000000000000 PUSH1 0x44 DUP3 ADD MSTORE SWAP1 MLOAD SWAP1 DUP2 SWAP1 SUB PUSH1 0x64 ADD SWAP1 REVERT JUMPDEST DUP2 DUP4 DUP2 PUSH2 0xBC8 JUMPI INVALID JUMPDEST DIV SWAP4 SWAP3 POP POP POP JUMP JUMPDEST PUSH1 0x60 PUSH1 0x0 DUP3 PUSH1 0x20 ADD MLOAD PUSH1 0xFF AND PUSH8 0xFFFFFFFFFFFFFFFF DUP2 GT DUP1 ISZERO PUSH2 0xBF2 JUMPI PUSH1 0x0 DUP1 REVERT JUMPDEST POP PUSH1 0x40 MLOAD SWAP1 DUP1 DUP3 MSTORE DUP1 PUSH1 0x1F ADD PUSH1 0x1F NOT AND PUSH1 0x20 ADD DUP3 ADD PUSH1 0x40 MSTORE DUP1 ISZERO PUSH2 0xC1D JUMPI PUSH1 0x20 DUP3 ADD DUP2 DUP1 CALLDATASIZE DUP4 CALLDATACOPY ADD SWAP1 POP JUMPDEST POP SWAP1 POP DUP3 PUSH1 0xE0 ADD MLOAD ISZERO PUSH2 0xC57 JUMPI PUSH1 0x25 PUSH1 0xF8 SHL DUP2 PUSH1 0x1 DUP4 MLOAD SUB DUP2 MLOAD DUP2 LT PUSH2 0xC3F JUMPI INVALID JUMPDEST PUSH1 0x20 ADD ADD SWAP1 PUSH1 0x1 PUSH1 0x1 PUSH1 0xF8 SHL SUB NOT AND SWAP1 DUP2 PUSH1 0x0 BYTE SWAP1 MSTORE8 POP JUMPDEST DUP3 PUSH1 0xC0 ADD MLOAD ISZERO PUSH2 0xCB4 JUMPI PUSH1 0x3 PUSH1 0xFC SHL DUP2 PUSH1 0x0 DUP2 MLOAD DUP2 LT PUSH2 0xC73 JUMPI INVALID JUMPDEST PUSH1 0x20 ADD ADD SWAP1 PUSH1 0x1 PUSH1 0x1 PUSH1 0xF8 SHL SUB NOT AND SWAP1 DUP2 PUSH1 0x0 BYTE SWAP1 MSTORE8 POP PUSH1 0x17 PUSH1 0xF9 SHL DUP2 PUSH1 0x1 DUP2 MLOAD DUP2 LT PUSH2 0xC9C JUMPI INVALID JUMPDEST PUSH1 0x20 ADD ADD SWAP1 PUSH1 0x1 PUSH1 0x1 PUSH1 0xF8 SHL SUB NOT AND SWAP1 DUP2 PUSH1 0x0 BYTE SWAP1 MSTORE8 POP JUMPDEST PUSH1 0x80 DUP4 ADD MLOAD PUSH1 0xFF AND JUMPDEST PUSH1 0xA0 DUP5 ADD MLOAD PUSH2 0xCD0 SWAP1 PUSH1 0xFF AND PUSH1 0x1 PUSH2 0xB0F JUMP JUMPDEST DUP2 LT ISZERO PUSH2 0xD07 JUMPI PUSH1 0x30 PUSH1 0xF8 SHL DUP3 DUP3 DUP2 MLOAD DUP2 LT PUSH2 0xCE8 JUMPI INVALID JUMPDEST PUSH1 0x20 ADD ADD SWAP1 PUSH1 0x1 PUSH1 0x1 PUSH1 0xF8 SHL SUB NOT AND SWAP1 DUP2 PUSH1 0x0 BYTE SWAP1 MSTORE8 POP PUSH1 0x1 ADD PUSH2 0xCBD JUMP JUMPDEST POP JUMPDEST DUP3 MLOAD ISZERO PUSH2 0x46B JUMPI PUSH1 0x0 DUP4 PUSH1 0x60 ADD MLOAD PUSH1 0xFF AND GT DUP1 ISZERO PUSH2 0xD34 JUMPI POP DUP3 PUSH1 0x60 ADD MLOAD PUSH1 0xFF AND DUP4 PUSH1 0x40 ADD MLOAD PUSH1 0xFF AND EQ JUMPDEST ISZERO PUSH2 0xD77 JUMPI PUSH1 0x40 DUP4 ADD DUP1 MLOAD PUSH1 0xFF PUSH1 0x0 NOT DUP3 ADD DUP2 AND SWAP1 SWAP3 MSTORE DUP3 MLOAD PUSH1 0x17 PUSH1 0xF9 SHL SWAP3 DUP5 SWAP3 AND SWAP1 DUP2 LT PUSH2 0xD5F JUMPI INVALID JUMPDEST PUSH1 0x20 ADD ADD SWAP1 PUSH1 0x1 PUSH1 0x1 PUSH1 0xF8 SHL SUB NOT AND SWAP1 DUP2 PUSH1 0x0 BYTE SWAP1 MSTORE8 POP JUMPDEST DUP3 MLOAD PUSH2 0xD89 SWAP1 PUSH1 0x30 SWAP1 PUSH1 0xA SWAP1 MOD PUSH2 0xB0F JUMP JUMPDEST PUSH1 0xF8 SHL DUP2 DUP5 PUSH1 0x40 ADD DUP1 MLOAD DUP1 SWAP2 SWAP1 PUSH1 0x1 SWAP1 SUB PUSH1 0xFF AND PUSH1 0xFF AND DUP2 MSTORE POP PUSH1 0xFF AND DUP2 MLOAD DUP2 LT PUSH2 0xDB0 JUMPI INVALID JUMPDEST PUSH1 0x20 ADD ADD SWAP1 PUSH1 0x1 PUSH1 0x1 PUSH1 0xF8 SHL SUB NOT AND SWAP1 DUP2 PUSH1 0x0 BYTE SWAP1 MSTORE8 POP PUSH1 0xA DUP4 PUSH1 0x0 ADD DUP2 DUP2 MLOAD DUP2 PUSH2 0xDD7 JUMPI INVALID JUMPDEST DIV SWAP1 MSTORE POP PUSH2 0xD09 JUMP JUMPDEST PUSH1 0x60 DUP5 PUSH1 0x2 DUP2 SWAP1 SIGNEXTEND PUSH3 0xD89E7 NOT DUP2 PUSH2 0xDF4 JUMPI INVALID JUMPDEST SDIV MUL PUSH1 0x2 SIGNEXTEND DUP7 PUSH1 0x2 SIGNEXTEND EQ ISZERO PUSH2 0xE4E JUMPI DUP2 ISZERO PUSH2 0xE2A JUMPI PUSH1 0x40 MLOAD DUP1 PUSH1 0x40 ADD PUSH1 0x40 MSTORE DUP1 PUSH1 0x3 DUP2 MSTORE PUSH1 0x20 ADD PUSH3 0x9A82B PUSH1 0xEB SHL DUP2 MSTORE POP PUSH2 0xE47 JUMP JUMPDEST PUSH1 0x40 MLOAD DUP1 PUSH1 0x40 ADD PUSH1 0x40 MSTORE DUP1 PUSH1 0x3 DUP2 MSTORE PUSH1 0x20 ADD PUSH3 0x26A4A7 PUSH1 0xE9 SHL DUP2 MSTORE POP JUMPDEST SWAP1 POP PUSH2 0x72D JUMP JUMPDEST DUP5 PUSH1 0x2 DUP2 SWAP1 SIGNEXTEND PUSH3 0xD89E8 DUP2 PUSH2 0xE5F JUMPI INVALID JUMPDEST SDIV MUL PUSH1 0x2 SIGNEXTEND DUP7 PUSH1 0x2 SIGNEXTEND EQ ISZERO PUSH2 0xEB5 JUMPI DUP2 ISZERO PUSH2 0xE95 JUMPI PUSH1 0x40 MLOAD DUP1 PUSH1 0x40 ADD PUSH1 0x40 MSTORE DUP1 PUSH1 0x3 DUP2 MSTORE PUSH1 0x20 ADD PUSH3 0x26A4A7 PUSH1 0xE9 SHL DUP2 MSTORE POP PUSH2 0xE47 JUMP JUMPDEST POP PUSH1 0x40 DUP1 MLOAD DUP1 DUP3 ADD SWAP1 SWAP2 MSTORE PUSH1 0x3 DUP2 MSTORE PUSH3 0x9A82B PUSH1 0xEB SHL PUSH1 0x20 DUP3 ADD MSTORE PUSH2 0x72D JUMP JUMPDEST PUSH1 0x0 PUSH2 0xEC0 DUP8 PUSH2 0x137A JUMP JUMPDEST SWAP1 POP DUP3 ISZERO PUSH2 0xEE2 JUMPI PUSH2 0xEDF PUSH1 0x1 PUSH1 0xC0 SHL PUSH1 0x1 PUSH1 0x1 PUSH1 0xA0 SHL SUB DUP4 AND PUSH2 0xB69 JUMP JUMPDEST SWAP1 POP JUMPDEST PUSH2 0xEED DUP2 DUP7 DUP7 PUSH2 0x16AC JUMP JUMPDEST SWAP2 POP POP PUSH2 0x72D JUMP JUMPDEST PUSH1 0x60 PUSH1 0x0 DUP3 PUSH1 0x2 MUL PUSH1 0x2 ADD PUSH8 0xFFFFFFFFFFFFFFFF DUP2 GT DUP1 ISZERO PUSH2 0xF16 JUMPI PUSH1 0x0 DUP1 REVERT JUMPDEST POP PUSH1 0x40 MLOAD SWAP1 DUP1 DUP3 MSTORE DUP1 PUSH1 0x1F ADD PUSH1 0x1F NOT AND PUSH1 0x20 ADD DUP3 ADD PUSH1 0x40 MSTORE DUP1 ISZERO PUSH2 0xF41 JUMPI PUSH1 0x20 DUP3 ADD DUP2 DUP1 CALLDATASIZE DUP4 CALLDATACOPY ADD SWAP1 POP JUMPDEST POP SWAP1 POP PUSH1 0x3 PUSH1 0xFC SHL DUP2 PUSH1 0x0 DUP2 MLOAD DUP2 LT PUSH2 0xF56 JUMPI INVALID JUMPDEST PUSH1 0x20 ADD ADD SWAP1 PUSH1 0x1 PUSH1 0x1 PUSH1 0xF8 SHL SUB NOT AND SWAP1 DUP2 PUSH1 0x0 BYTE SWAP1 MSTORE8 POP PUSH1 0xF PUSH1 0xFB SHL DUP2 PUSH1 0x1 DUP2 MLOAD DUP2 LT PUSH2 0xF7F JUMPI INVALID JUMPDEST PUSH1 0x20 ADD ADD SWAP1 PUSH1 0x1 PUSH1 0x1 PUSH1 0xF8 SHL SUB NOT AND SWAP1 DUP2 PUSH1 0x0 BYTE SWAP1 MSTORE8 POP PUSH1 0x1 PUSH1 0x2 DUP5 MUL ADD JUMPDEST PUSH1 0x1 DUP2 GT ISZERO PUSH2 0x1000 JUMPI PUSH16 0x181899199A1A9B1B9C1CB0B131B232B3 PUSH1 0x81 SHL DUP6 PUSH1 0xF AND PUSH1 0x10 DUP2 LT PUSH2 0xFC9 JUMPI INVALID JUMPDEST BYTE PUSH1 0xF8 SHL DUP3 DUP3 DUP2 MLOAD DUP2 LT PUSH2 0xFD9 JUMPI INVALID JUMPDEST PUSH1 0x20 ADD ADD SWAP1 PUSH1 0x1 PUSH1 0x1 PUSH1 0xF8 SHL SUB NOT AND SWAP1 DUP2 PUSH1 0x0 BYTE SWAP1 MSTORE8 POP PUSH1 0x4 SWAP5 SWAP1 SWAP5 SHR SWAP4 PUSH1 0x0 NOT ADD PUSH2 0xF9E JUMP JUMPDEST POP DUP4 ISZERO PUSH2 0x61E JUMPI PUSH1 0x40 DUP1 MLOAD PUSH3 0x461BCD PUSH1 0xE5 SHL DUP2 MSTORE PUSH1 0x20 PUSH1 0x4 DUP3 ADD DUP2 SWAP1 MSTORE PUSH1 0x24 DUP3 ADD MSTORE PUSH32 0x537472696E67733A20686578206C656E67746820696E73756666696369656E74 PUSH1 0x44 DUP3 ADD MSTORE SWAP1 MLOAD SWAP1 DUP2 SWAP1 SUB PUSH1 0x64 ADD SWAP1 REVERT JUMPDEST PUSH1 0x0 DUP4 PUSH1 0x2 SIGNEXTEND DUP3 PUSH1 0x2 SIGNEXTEND SLT ISZERO PUSH2 0x106D JUMPI POP PUSH1 0x0 NOT PUSH2 0x61E JUMP JUMPDEST DUP3 PUSH1 0x2 SIGNEXTEND DUP3 PUSH1 0x2 SIGNEXTEND SGT ISZERO PUSH2 0x1083 JUMPI POP PUSH1 0x1 PUSH2 0x61E JUMP JUMPDEST POP PUSH1 0x0 PUSH2 0x61E JUMP JUMPDEST PUSH1 0x60 PUSH2 0x61E DUP4 DUP4 SHR PUSH1 0x3 PUSH2 0x186C JUMP JUMPDEST PUSH1 0x0 PUSH1 0xFF DUP3 PUSH2 0x10A9 DUP7 DUP7 PUSH2 0x1926 JUMP JUMPDEST MUL DUP2 PUSH2 0x10B1 JUMPI INVALID JUMPDEST MOD SWAP5 SWAP4 POP POP POP POP JUMP JUMPDEST PUSH1 0x60 PUSH2 0x10F8 PUSH2 0x10F3 DUP5 PUSH2 0x2AC PUSH2 0x10D0 DUP9 DUP11 PUSH2 0xAB2 JUMP JUMPDEST PUSH2 0x10ED PUSH2 0x10DD DUP9 DUP11 PUSH2 0xAB2 JUMP JUMPDEST PUSH2 0x10E7 DUP14 DUP14 PUSH2 0xAB2 JUMP JUMPDEST SWAP1 PUSH2 0x192D JUMP JUMPDEST SWAP1 PUSH2 0xB69 JUMP JUMPDEST PUSH2 0x625 JUMP JUMPDEST SWAP7 SWAP6 POP POP POP POP POP POP JUMP JUMPDEST PUSH1 0x60 PUSH2 0x110D DUP3 PUSH2 0x1986 JUMP JUMPDEST PUSH2 0x1129 DUP4 PUSH1 0x0 ADD MLOAD DUP5 PUSH1 0x20 ADD MLOAD DUP6 PUSH1 0x60 ADD MLOAD DUP7 PUSH1 0x80 ADD MLOAD PUSH2 0x1FE5 JUMP JUMPDEST PUSH2 0x1140 DUP5 PUSH1 0x60 ADD MLOAD DUP6 PUSH1 0x80 ADD MLOAD DUP7 PUSH1 0xA0 ADD MLOAD PUSH2 0x2310 JUMP JUMPDEST PUSH2 0x115E DUP6 PUSH1 0xC0 ADD MLOAD DUP7 PUSH1 0xE0 ADD MLOAD DUP8 PUSH2 0x100 ADD MLOAD DUP9 PUSH2 0x120 ADD MLOAD PUSH2 0x2460 JUMP JUMPDEST PUSH2 0x117E PUSH2 0x116F DUP8 PUSH2 0x140 ADD MLOAD PUSH2 0x625 JUMP JUMPDEST DUP8 PUSH1 0xC0 ADD MLOAD DUP9 PUSH1 0xE0 ADD MLOAD PUSH2 0x2743 JUMP JUMPDEST PUSH2 0x1191 DUP8 PUSH2 0x140 ADD MLOAD DUP9 PUSH1 0x40 ADD MLOAD PUSH2 0x2B5B JUMP JUMPDEST PUSH1 0x40 MLOAD PUSH1 0x20 ADD DUP1 DUP8 DUP1 MLOAD SWAP1 PUSH1 0x20 ADD SWAP1 DUP1 DUP4 DUP4 JUMPDEST PUSH1 0x20 DUP4 LT PUSH2 0x11C3 JUMPI DUP1 MLOAD DUP3 MSTORE PUSH1 0x1F NOT SWAP1 SWAP3 ADD SWAP2 PUSH1 0x20 SWAP2 DUP3 ADD SWAP2 ADD PUSH2 0x11A4 JUMP JUMPDEST MLOAD DUP2 MLOAD PUSH1 0x20 SWAP4 DUP5 SUB PUSH2 0x100 EXP PUSH1 0x0 NOT ADD DUP1 NOT SWAP1 SWAP3 AND SWAP2 AND OR SWAP1 MSTORE DUP10 MLOAD SWAP2 SWAP1 SWAP4 ADD SWAP3 DUP10 ADD SWAP2 POP DUP1 DUP4 DUP4 JUMPDEST PUSH1 0x20 DUP4 LT PUSH2 0x120B JUMPI DUP1 MLOAD DUP3 MSTORE PUSH1 0x1F NOT SWAP1 SWAP3 ADD SWAP2 PUSH1 0x20 SWAP2 DUP3 ADD SWAP2 ADD PUSH2 0x11EC JUMP JUMPDEST MLOAD DUP2 MLOAD PUSH1 0x20 SWAP4 DUP5 SUB PUSH2 0x100 EXP PUSH1 0x0 NOT ADD DUP1 NOT SWAP1 SWAP3 AND SWAP2 AND OR SWAP1 MSTORE DUP9 MLOAD SWAP2 SWAP1 SWAP4 ADD SWAP3 DUP9 ADD SWAP2 POP DUP1 DUP4 DUP4 JUMPDEST PUSH1 0x20 DUP4 LT PUSH2 0x1253 JUMPI DUP1 MLOAD DUP3 MSTORE PUSH1 0x1F NOT SWAP1 SWAP3 ADD SWAP2 PUSH1 0x20 SWAP2 DUP3 ADD SWAP2 ADD PUSH2 0x1234 JUMP JUMPDEST MLOAD DUP2 MLOAD PUSH1 0x20 SWAP4 DUP5 SUB PUSH2 0x100 EXP PUSH1 0x0 NOT ADD DUP1 NOT SWAP1 SWAP3 AND SWAP2 AND OR SWAP1 MSTORE DUP8 MLOAD SWAP2 SWAP1 SWAP4 ADD SWAP3 DUP8 ADD SWAP2 POP DUP1 DUP4 DUP4 JUMPDEST PUSH1 0x20 DUP4 LT PUSH2 0x129B JUMPI DUP1 MLOAD DUP3 MSTORE PUSH1 0x1F NOT SWAP1 SWAP3 ADD SWAP2 PUSH1 0x20 SWAP2 DUP3 ADD SWAP2 ADD PUSH2 0x127C JUMP JUMPDEST MLOAD DUP2 MLOAD PUSH1 0x20 SWAP4 DUP5 SUB PUSH2 0x100 EXP PUSH1 0x0 NOT ADD DUP1 NOT SWAP1 SWAP3 AND SWAP2 AND OR SWAP1 MSTORE DUP7 MLOAD SWAP2 SWAP1 SWAP4 ADD SWAP3 DUP7 ADD SWAP2 POP DUP1 DUP4 DUP4 JUMPDEST PUSH1 0x20 DUP4 LT PUSH2 0x12E3 JUMPI DUP1 MLOAD DUP3 MSTORE PUSH1 0x1F NOT SWAP1 SWAP3 ADD SWAP2 PUSH1 0x20 SWAP2 DUP3 ADD SWAP2 ADD PUSH2 0x12C4 JUMP JUMPDEST MLOAD DUP2 MLOAD PUSH1 0x20 SWAP4 DUP5 SUB PUSH2 0x100 EXP PUSH1 0x0 NOT ADD DUP1 NOT SWAP1 SWAP3 AND SWAP2 AND OR SWAP1 MSTORE DUP6 MLOAD SWAP2 SWAP1 SWAP4 ADD SWAP3 DUP6 ADD SWAP2 POP DUP1 DUP4 DUP4 JUMPDEST PUSH1 0x20 DUP4 LT PUSH2 0x132B JUMPI DUP1 MLOAD DUP3 MSTORE PUSH1 0x1F NOT SWAP1 SWAP3 ADD SWAP2 PUSH1 0x20 SWAP2 DUP3 ADD SWAP2 ADD PUSH2 0x130C JUMP JUMPDEST MLOAD DUP2 MLOAD PUSH1 0x20 SWAP4 SWAP1 SWAP4 SUB PUSH2 0x100 EXP PUSH1 0x0 NOT ADD DUP1 NOT SWAP1 SWAP2 AND SWAP3 AND SWAP2 SWAP1 SWAP2 OR SWAP1 MSTORE PUSH6 0x1E17B9BB339F PUSH1 0xD1 SHL SWAP3 ADD SWAP2 DUP3 MSTORE POP PUSH1 0x40 DUP1 MLOAD DUP1 DUP4 SUB PUSH1 0x19 NOT ADD DUP2 MSTORE PUSH1 0x6 SWAP1 SWAP3 ADD SWAP1 MSTORE SWAP10 SWAP9 POP POP POP POP POP POP POP POP POP JUMP JUMPDEST PUSH1 0x0 DUP1 PUSH1 0x0 DUP4 PUSH1 0x2 SIGNEXTEND SLT PUSH2 0x1391 JUMPI DUP3 PUSH1 0x2 SIGNEXTEND PUSH2 0x1399 JUMP JUMPDEST DUP3 PUSH1 0x2 SIGNEXTEND PUSH1 0x0 SUB JUMPDEST SWAP1 POP PUSH3 0xD89E8 DUP2 GT ISZERO PUSH2 0x13D7 JUMPI PUSH1 0x40 DUP1 MLOAD PUSH3 0x461BCD PUSH1 0xE5 SHL DUP2 MSTORE PUSH1 0x20 PUSH1 0x4 DUP3 ADD MSTORE PUSH1 0x1 PUSH1 0x24 DUP3 ADD MSTORE PUSH1 0x15 PUSH1 0xFA SHL PUSH1 0x44 DUP3 ADD MSTORE SWAP1 MLOAD SWAP1 DUP2 SWAP1 SUB PUSH1 0x64 ADD SWAP1 REVERT JUMPDEST PUSH1 0x0 PUSH1 0x1 DUP3 AND PUSH2 0x13EB JUMPI PUSH1 0x1 PUSH1 0x80 SHL PUSH2 0x13FD JUMP JUMPDEST PUSH16 0xFFFCB933BD6FAD37AA2D162D1A594001 JUMPDEST PUSH17 0xFFFFFFFFFFFFFFFFFFFFFFFFFFFFFFFFFF AND SWAP1 POP PUSH1 0x2 DUP3 AND ISZERO PUSH2 0x1431 JUMPI PUSH16 0xFFF97272373D413259A46990580E213A MUL PUSH1 0x80 SHR JUMPDEST PUSH1 0x4 DUP3 AND ISZERO PUSH2 0x1450 JUMPI PUSH16 0xFFF2E50F5F656932EF12357CF3C7FDCC MUL PUSH1 0x80 SHR JUMPDEST PUSH1 0x8 DUP3 AND ISZERO PUSH2 0x146F JUMPI PUSH16 0xFFE5CACA7E10E4E61C3624EAA0941CD0 MUL PUSH1 0x80 SHR JUMPDEST PUSH1 0x10 DUP3 AND ISZERO PUSH2 0x148E JUMPI PUSH16 0xFFCB9843D60F6159C9DB58835C926644 MUL PUSH1 0x80 SHR JUMPDEST PUSH1 0x20 DUP3 AND ISZERO PUSH2 0x14AD JUMPI PUSH16 0xFF973B41FA98C081472E6896DFB254C0 MUL PUSH1 0x80 SHR JUMPDEST PUSH1 0x40 DUP3 AND ISZERO PUSH2 0x14CC JUMPI PUSH16 0xFF2EA16466C96A3843EC78B326B52861 MUL PUSH1 0x80 SHR JUMPDEST PUSH1 0x80 DUP3 AND ISZERO PUSH2 0x14EB JUMPI PUSH16 0xFE5DEE046A99A2A811C461F1969C3053 MUL PUSH1 0x80 SHR JUMPDEST PUSH2 0x100 DUP3 AND ISZERO PUSH2 0x150B JUMPI PUSH16 0xFCBE86C7900A88AEDCFFC83B479AA3A4 MUL PUSH1 0x80 SHR JUMPDEST PUSH2 0x200 DUP3 AND ISZERO PUSH2 0x152B JUMPI PUSH16 0xF987A7253AC413176F2B074CF7815E54 MUL PUSH1 0x80 SHR JUMPDEST PUSH2 0x400 DUP3 AND ISZERO PUSH2 0x154B JUMPI PUSH16 0xF3392B0822B70005940C7A398E4B70F3 MUL PUSH1 0x80 SHR JUMPDEST PUSH2 0x800 DUP3 AND ISZERO PUSH2 0x156B JUMPI PUSH16 0xE7159475A2C29B7443B29C7FA6E889D9 MUL PUSH1 0x80 SHR JUMPDEST PUSH2 0x1000 DUP3 AND ISZERO PUSH2 0x158B JUMPI PUSH16 0xD097F3BDFD2022B8845AD8F792AA5825 MUL PUSH1 0x80 SHR JUMPDEST PUSH2 0x2000 DUP3 AND ISZERO PUSH2 0x15AB JUMPI PUSH16 0xA9F746462D870FDF8A65DC1F90E061E5 MUL PUSH1 0x80 SHR JUMPDEST PUSH2 0x4000 DUP3 AND ISZERO PUSH2 0x15CB JUMPI PUSH16 0x70D869A156D2A1B890BB3DF62BAF32F7 MUL PUSH1 0x80 SHR JUMPDEST PUSH2 0x8000 DUP3 AND ISZERO PUSH2 0x15EB JUMPI PUSH16 0x31BE135F97D08FD981231505542FCFA6 MUL PUSH1 0x80 SHR JUMPDEST PUSH3 0x10000 DUP3 AND ISZERO PUSH2 0x160C JUMPI PUSH16 0x9AA508B5B7A84E1C677DE54F3E99BC9 MUL PUSH1 0x80 SHR JUMPDEST PUSH3 0x20000 DUP3 AND ISZERO PUSH2 0x162C JUMPI PUSH15 0x5D6AF8DEDB81196699C329225EE604 MUL PUSH1 0x80 SHR JUMPDEST PUSH3 0x40000 DUP3 AND ISZERO PUSH2 0x164B JUMPI PUSH14 0x2216E584F5FA1EA926041BEDFE98 MUL PUSH1 0x80 SHR JUMPDEST PUSH3 0x80000 DUP3 AND ISZERO PUSH2 0x1668 JUMPI PUSH12 0x48A170391F7DC42444E8FA2 MUL PUSH1 0x80 SHR JUMPDEST PUSH1 0x0 DUP5 PUSH1 0x2 SIGNEXTEND SGT ISZERO PUSH2 0x1683 JUMPI DUP1 PUSH1 0x0 NOT DUP2 PUSH2 0x167F JUMPI INVALID JUMPDEST DIV SWAP1 POP JUMPDEST PUSH5 0x100000000 DUP2 MOD ISZERO PUSH2 0x1697 JUMPI PUSH1 0x1 PUSH2 0x169A JUMP JUMPDEST PUSH1 0x0 JUMPDEST PUSH1 0xFF AND PUSH1 0x20 DUP3 SWAP1 SHR ADD SWAP3 POP POP POP SWAP2 SWAP1 POP JUMP JUMPDEST PUSH1 0x60 PUSH1 0x0 PUSH2 0x16BB DUP6 DUP6 DUP6 PUSH2 0x2BD3 JUMP JUMPDEST SWAP1 POP PUSH1 0x0 PUSH2 0x16CE DUP3 DUP4 PUSH1 0x1 PUSH1 0x40 SHL PUSH2 0x2CD5 JUMP JUMPDEST SWAP1 POP PUSH1 0x1 PUSH1 0x60 SHL DUP3 LT DUP1 ISZERO PUSH2 0x1706 JUMPI PUSH2 0x16FF DUP3 PUSH19 0x47BF19673DF52E37F2410011D100000000000 PUSH1 0x1 PUSH1 0x80 SHL PUSH2 0x2CD5 JUMP JUMPDEST SWAP2 POP PUSH2 0x171B JUMP JUMPDEST PUSH2 0x1718 DUP3 PUSH3 0x186A0 PUSH1 0x1 PUSH1 0x80 SHL PUSH2 0x2CD5 JUMP JUMPDEST SWAP2 POP JUMPDEST DUP2 PUSH1 0x0 JUMPDEST DUP2 ISZERO PUSH2 0x1733 JUMPI PUSH1 0x1 ADD PUSH1 0xA DUP3 DIV SWAP2 POP PUSH2 0x171F JUMP JUMPDEST PUSH1 0x0 NOT ADD PUSH1 0x0 DUP1 PUSH2 0x1744 DUP7 DUP5 PUSH2 0x2D84 JUMP JUMPDEST SWAP2 POP SWAP2 POP DUP1 ISZERO PUSH2 0x1755 JUMPI PUSH1 0x1 SWAP1 SWAP3 ADD SWAP2 JUMPDEST PUSH2 0x175D PUSH2 0x3A3E JUMP JUMPDEST DUP6 ISZERO PUSH2 0x17CA JUMPI PUSH2 0x177C PUSH2 0x1774 PUSH1 0x2B PUSH1 0xFF DUP8 AND PUSH2 0xAB2 JUMP JUMPDEST PUSH1 0x7 SWAP1 PUSH2 0xB0F JUMP JUMPDEST PUSH1 0xFF SWAP1 DUP2 AND PUSH1 0x20 DUP4 ADD MSTORE PUSH1 0x2 PUSH1 0x80 DUP4 ADD MSTORE PUSH2 0x17A2 SWAP1 PUSH1 0x1 SWAP1 PUSH2 0x2AC SWAP1 PUSH1 0x2B SWAP1 DUP9 AND PUSH2 0xAB2 JUMP JUMPDEST PUSH1 0xFF SWAP1 DUP2 AND PUSH1 0xA0 DUP4 ADD MSTORE PUSH1 0x20 DUP3 ADD MLOAD PUSH2 0x17BD SWAP2 AND PUSH1 0x1 PUSH2 0xAB2 JUMP JUMPDEST PUSH1 0xFF AND PUSH1 0x40 DUP3 ADD MSTORE PUSH2 0x1841 JUMP JUMPDEST PUSH1 0x9 DUP5 PUSH1 0xFF AND LT PUSH2 0x1813 JUMPI PUSH2 0x17E3 PUSH1 0xFF DUP6 AND PUSH1 0x4 PUSH2 0xAB2 JUMP JUMPDEST PUSH1 0xFF AND PUSH1 0x20 DUP3 ADD DUP2 SWAP1 MSTORE PUSH1 0x5 PUSH1 0x80 DUP4 ADD MSTORE PUSH2 0x17FF SWAP1 PUSH1 0x1 PUSH2 0xAB2 JUMP JUMPDEST PUSH1 0xFF AND PUSH1 0xA0 DUP3 ADD MSTORE PUSH1 0x4 PUSH1 0x40 DUP3 ADD MSTORE PUSH2 0x1841 JUMP JUMPDEST PUSH1 0x6 PUSH1 0x20 DUP3 ADD MSTORE PUSH1 0x5 PUSH1 0x40 DUP3 ADD DUP2 SWAP1 MSTORE PUSH2 0x1838 SWAP1 PUSH1 0x1 SWAP1 PUSH2 0x2AC SWAP1 PUSH1 0xFF DUP9 AND SWAP1 PUSH2 0xAB2 JUMP JUMPDEST PUSH1 0xFF AND PUSH1 0x60 DUP3 ADD MSTORE JUMPDEST DUP3 DUP2 MSTORE DUP6 ISZERO ISZERO PUSH1 0xC0 DUP3 ADD MSTORE PUSH1 0x0 PUSH1 0xE0 DUP3 ADD MSTORE PUSH2 0x185C DUP2 PUSH2 0xBD0 JUMP JUMPDEST SWAP13 SWAP12 POP POP POP POP POP POP POP POP POP POP POP POP JUMP JUMPDEST PUSH1 0x60 PUSH1 0x0 DUP3 PUSH1 0x2 MUL PUSH8 0xFFFFFFFFFFFFFFFF DUP2 GT DUP1 ISZERO PUSH2 0x188A JUMPI PUSH1 0x0 DUP1 REVERT JUMPDEST POP PUSH1 0x40 MLOAD SWAP1 DUP1 DUP3 MSTORE DUP1 PUSH1 0x1F ADD PUSH1 0x1F NOT AND PUSH1 0x20 ADD DUP3 ADD PUSH1 0x40 MSTORE DUP1 ISZERO PUSH2 0x18B5 JUMPI PUSH1 0x20 DUP3 ADD DUP2 DUP1 CALLDATASIZE DUP4 CALLDATACOPY ADD SWAP1 POP JUMPDEST POP DUP1 MLOAD SWAP1 SWAP2 POP JUMPDEST DUP1 ISZERO PUSH2 0x191E JUMPI PUSH16 0x181899199A1A9B1B9C1CB0B131B232B3 PUSH1 0x81 SHL DUP6 PUSH1 0xF AND PUSH1 0x10 DUP2 LT PUSH2 0x18E4 JUMPI INVALID JUMPDEST BYTE PUSH1 0xF8 SHL DUP3 PUSH1 0x1 DUP4 SUB DUP2 MLOAD DUP2 LT PUSH2 0x18F7 JUMPI INVALID JUMPDEST PUSH1 0x20 ADD ADD SWAP1 PUSH1 0x1 PUSH1 0x1 PUSH1 0xF8 SHL SUB NOT AND SWAP1 DUP2 PUSH1 0x0 BYTE SWAP1 MSTORE8 POP PUSH1 0x4 SWAP5 SWAP1 SWAP5 SHR SWAP4 PUSH1 0x0 NOT ADD PUSH2 0x18BC JUMP JUMPDEST POP SWAP4 SWAP3 POP POP POP JUMP JUMPDEST SHR PUSH1 0xFF AND SWAP1 JUMP JUMPDEST PUSH1 0x0 DUP3 PUSH2 0x193C JUMPI POP PUSH1 0x0 PUSH2 0x46B JUMP JUMPDEST DUP3 DUP3 MUL DUP3 DUP5 DUP3 DUP2 PUSH2 0x1949 JUMPI INVALID JUMPDEST DIV EQ PUSH2 0x61E JUMPI PUSH1 0x40 MLOAD PUSH3 0x461BCD PUSH1 0xE5 SHL DUP2 MSTORE PUSH1 0x4 ADD DUP1 DUP1 PUSH1 0x20 ADD DUP3 DUP2 SUB DUP3 MSTORE PUSH1 0x21 DUP2 MSTORE PUSH1 0x20 ADD DUP1 PUSH2 0x4FC4 PUSH1 0x21 SWAP2 CODECOPY PUSH1 0x40 ADD SWAP2 POP POP PUSH1 0x40 MLOAD DUP1 SWAP2 SUB SWAP1 REVERT JUMPDEST PUSH1 0x60 PUSH2 0x1A1B DUP3 PUSH2 0x160 ADD MLOAD PUSH1 0x40 MLOAD PUSH1 0x20 ADD DUP1 DUP1 PUSH2 0x4B7E PUSH1 0x81 SWAP2 CODECOPY PUSH1 0x81 ADD DUP3 DUP1 MLOAD SWAP1 PUSH1 0x20 ADD SWAP1 DUP1 DUP4 DUP4 JUMPDEST PUSH1 0x20 DUP4 LT PUSH2 0x19CE JUMPI DUP1 MLOAD DUP3 MSTORE PUSH1 0x1F NOT SWAP1 SWAP3 ADD SWAP2 PUSH1 0x20 SWAP2 DUP3 ADD SWAP2 ADD PUSH2 0x19AF JUMP JUMPDEST PUSH1 0x1 DUP4 PUSH1 0x20 SUB PUSH2 0x100 EXP SUB DUP1 NOT DUP3 MLOAD AND DUP2 DUP5 MLOAD AND DUP1 DUP3 OR DUP6 MSTORE POP POP POP POP POP POP SWAP1 POP ADD DUP1 PUSH9 0x13979F1E17B9BB339F PUSH1 0xB9 SHL DUP2 MSTORE POP PUSH1 0x9 ADD SWAP2 POP POP PUSH1 0x40 MLOAD PUSH1 0x20 DUP2 DUP4 SUB SUB DUP2 MSTORE SWAP1 PUSH1 0x40 MSTORE PUSH2 0x971 JUMP JUMPDEST PUSH2 0x1B7D DUP4 PUSH2 0x1E0 ADD MLOAD DUP5 PUSH2 0x200 ADD MLOAD DUP6 PUSH2 0x180 ADD MLOAD PUSH1 0x40 MLOAD PUSH1 0x20 ADD DUP1 DUP1 PUSH2 0x46BB PUSH1 0x63 SWAP2 CODECOPY PUSH1 0x63 ADD DUP5 DUP1 MLOAD SWAP1 PUSH1 0x20 ADD SWAP1 DUP1 DUP4 DUP4 JUMPDEST PUSH1 0x20 DUP4 LT PUSH2 0x1A6D JUMPI DUP1 MLOAD DUP3 MSTORE PUSH1 0x1F NOT SWAP1 SWAP3 ADD SWAP2 PUSH1 0x20 SWAP2 DUP3 ADD SWAP2 ADD PUSH2 0x1A4E JUMP JUMPDEST MLOAD DUP2 MLOAD PUSH1 0x20 SWAP4 DUP5 SUB PUSH2 0x100 EXP PUSH1 0x0 NOT ADD DUP1 NOT SWAP1 SWAP3 AND SWAP2 AND OR SWAP1 MSTORE PUSH6 0x272063793D27 PUSH1 0xD0 SHL SWAP2 SWAP1 SWAP4 ADD SWAP1 DUP2 MSTORE DUP6 MLOAD PUSH1 0x6 SWAP1 SWAP2 ADD SWAP3 DUP7 ADD SWAP2 POP DUP1 DUP4 DUP4 JUMPDEST PUSH1 0x20 DUP4 LT PUSH2 0x1AC7 JUMPI DUP1 MLOAD DUP3 MSTORE PUSH1 0x1F NOT SWAP1 SWAP3 ADD SWAP2 PUSH1 0x20 SWAP2 DUP3 ADD SWAP2 ADD PUSH2 0x1AA8 JUMP JUMPDEST MLOAD DUP2 MLOAD PUSH1 0x20 SWAP4 DUP5 SUB PUSH2 0x100 EXP PUSH1 0x0 NOT ADD DUP1 NOT SWAP1 SWAP3 AND SWAP2 AND OR SWAP1 MSTORE PUSH19 0x2720723D273132307078272066696C6C3D2723 PUSH1 0x68 SHL SWAP2 SWAP1 SWAP4 ADD SWAP1 DUP2 MSTORE DUP5 MLOAD PUSH1 0x13 SWAP1 SWAP2 ADD SWAP3 DUP6 ADD SWAP2 POP DUP1 DUP4 DUP4 JUMPDEST PUSH1 0x20 DUP4 LT PUSH2 0x1B2E JUMPI DUP1 MLOAD DUP3 MSTORE PUSH1 0x1F NOT SWAP1 SWAP3 ADD SWAP2 PUSH1 0x20 SWAP2 DUP3 ADD SWAP2 ADD PUSH2 0x1B0F JUMP JUMPDEST PUSH1 0x1 DUP4 PUSH1 0x20 SUB PUSH2 0x100 EXP SUB DUP1 NOT DUP3 MLOAD AND DUP2 DUP5 MLOAD AND DUP1 DUP3 OR DUP6 MSTORE POP POP POP POP POP POP SWAP1 POP ADD DUP1 PUSH9 0x13979F1E17B9BB339F PUSH1 0xB9 SHL DUP2 MSTORE POP PUSH1 0x9 ADD SWAP4 POP POP POP POP PUSH1 0x40 MLOAD PUSH1 0x20 DUP2 DUP4 SUB SUB DUP2 MSTORE SWAP1 PUSH1 0x40 MSTORE PUSH2 0x971 JUMP JUMPDEST PUSH2 0x1BCE DUP5 PUSH2 0x220 ADD MLOAD DUP6 PUSH2 0x240 ADD MLOAD DUP7 PUSH2 0x1A0 ADD MLOAD PUSH1 0x40 MLOAD PUSH1 0x20 ADD DUP1 DUP1 PUSH2 0x46BB PUSH1 0x63 SWAP2 CODECOPY PUSH1 0x63 ADD DUP5 DUP1 MLOAD SWAP1 PUSH1 0x20 ADD SWAP1 DUP1 DUP4 DUP4 PUSH1 0x20 DUP4 LT PUSH2 0x1A6D JUMPI DUP1 MLOAD DUP3 MSTORE PUSH1 0x1F NOT SWAP1 SWAP3 ADD SWAP2 PUSH1 0x20 SWAP2 DUP3 ADD SWAP2 ADD PUSH2 0x1A4E JUMP JUMPDEST PUSH2 0x1CE3 DUP6 PUSH2 0x260 ADD MLOAD DUP7 PUSH2 0x280 ADD MLOAD DUP8 PUSH2 0x1C0 ADD MLOAD PUSH1 0x40 MLOAD PUSH1 0x20 ADD DUP1 DUP1 PUSH2 0x46BB PUSH1 0x63 SWAP2 CODECOPY PUSH1 0x63 ADD DUP5 DUP1 MLOAD SWAP1 PUSH1 0x20 ADD SWAP1 DUP1 DUP4 DUP4 JUMPDEST PUSH1 0x20 DUP4 LT PUSH2 0x1C20 JUMPI DUP1 MLOAD DUP3 MSTORE PUSH1 0x1F NOT SWAP1 SWAP3 ADD SWAP2 PUSH1 0x20 SWAP2 DUP3 ADD SWAP2 ADD PUSH2 0x1C01 JUMP JUMPDEST MLOAD DUP2 MLOAD PUSH1 0x20 SWAP4 DUP5 SUB PUSH2 0x100 EXP PUSH1 0x0 NOT ADD DUP1 NOT SWAP1 SWAP3 AND SWAP2 AND OR SWAP1 MSTORE PUSH6 0x272063793D27 PUSH1 0xD0 SHL SWAP2 SWAP1 SWAP4 ADD SWAP1 DUP2 MSTORE DUP6 MLOAD PUSH1 0x6 SWAP1 SWAP2 ADD SWAP3 DUP7 ADD SWAP2 POP DUP1 DUP4 DUP4 JUMPDEST PUSH1 0x20 DUP4 LT PUSH2 0x1C7A JUMPI DUP1 MLOAD DUP3 MSTORE PUSH1 0x1F NOT SWAP1 SWAP3 ADD SWAP2 PUSH1 0x20 SWAP2 DUP3 ADD SWAP2 ADD PUSH2 0x1C5B JUMP JUMPDEST MLOAD DUP2 MLOAD PUSH1 0x0 NOT PUSH1 0x20 SWAP5 DUP6 SUB PUSH2 0x100 EXP ADD SWAP1 DUP2 AND SWAP1 NOT SWAP2 SWAP1 SWAP2 AND OR SWAP1 MSTORE PUSH19 0x2720723D273130307078272066696C6C3D2723 PUSH1 0x68 SHL SWAP4 SWAP1 SWAP2 ADD SWAP3 DUP4 MSTORE DUP5 MLOAD PUSH1 0x13 SWAP1 SWAP4 ADD SWAP3 SWAP1 DUP6 ADD SWAP2 POP DUP1 DUP4 DUP4 PUSH1 0x20 DUP4 LT PUSH2 0x1B2E JUMPI DUP1 MLOAD DUP3 MSTORE PUSH1 0x1F NOT SWAP1 SWAP3 ADD SWAP2 PUSH1 0x20 SWAP2 DUP3 ADD SWAP2 ADD PUSH2 0x1B0F JUMP JUMPDEST PUSH2 0x160 DUP7 ADD MLOAD PUSH1 0x40 MLOAD PUSH1 0x20 ADD DUP1 PUSH1 0x56 PUSH2 0x4436 DUP3 CODECOPY PUSH1 0x56 ADD PUSH1 0x2C PUSH2 0x4DE5 DUP3 CODECOPY PUSH6 0x1E3232B3399F PUSH1 0xD1 SHL PUSH1 0x2C DUP3 ADD MSTORE PUSH1 0x32 ADD PUSH1 0x4B PUSH2 0x4B33 DUP3 CODECOPY PUSH1 0x4B ADD DUP7 DUP1 MLOAD SWAP1 PUSH1 0x20 ADD SWAP1 DUP1 DUP4 DUP4 JUMPDEST PUSH1 0x20 DUP4 LT PUSH2 0x1D48 JUMPI DUP1 MLOAD DUP3 MSTORE PUSH1 0x1F NOT SWAP1 SWAP3 ADD SWAP2 PUSH1 0x20 SWAP2 DUP3 ADD SWAP2 ADD PUSH2 0x1D29 JUMP JUMPDEST PUSH1 0x1 DUP4 PUSH1 0x20 SUB PUSH2 0x100 EXP SUB DUP1 NOT DUP3 MLOAD AND DUP2 DUP5 MLOAD AND DUP1 DUP3 OR DUP6 MSTORE POP POP POP POP POP POP SWAP1 POP ADD DUP1 PUSH2 0x566B PUSH1 0x3E SWAP2 CODECOPY PUSH1 0x3E ADD DUP6 DUP1 MLOAD SWAP1 PUSH1 0x20 ADD SWAP1 DUP1 DUP4 DUP4 JUMPDEST PUSH1 0x20 DUP4 LT PUSH2 0x1DA0 JUMPI DUP1 MLOAD DUP3 MSTORE PUSH1 0x1F NOT SWAP1 SWAP3 ADD SWAP2 PUSH1 0x20 SWAP2 DUP3 ADD SWAP2 ADD PUSH2 0x1D81 JUMP JUMPDEST PUSH1 0x1 DUP4 PUSH1 0x20 SUB PUSH2 0x100 EXP SUB DUP1 NOT DUP3 MLOAD AND DUP2 DUP5 MLOAD AND DUP1 DUP3 OR DUP6 MSTORE POP POP POP POP POP POP SWAP1 POP ADD DUP1 PUSH2 0x4BFF PUSH1 0x3E SWAP2 CODECOPY PUSH1 0x3E ADD DUP5 DUP1 MLOAD SWAP1 PUSH1 0x20 ADD SWAP1 DUP1 DUP4 DUP4 JUMPDEST PUSH1 0x20 DUP4 LT PUSH2 0x1DF8 JUMPI DUP1 MLOAD DUP3 MSTORE PUSH1 0x1F NOT SWAP1 SWAP3 ADD SWAP2 PUSH1 0x20 SWAP2 DUP3 ADD SWAP2 ADD PUSH2 0x1DD9 JUMP JUMPDEST MLOAD DUP2 MLOAD PUSH1 0x20 SWAP4 SWAP1 SWAP4 SUB PUSH2 0x100 EXP PUSH1 0x0 NOT ADD DUP1 NOT SWAP1 SWAP2 AND SWAP3 AND SWAP2 SWAP1 SWAP2 OR SWAP1 MSTORE PUSH4 0x1110179F PUSH1 0xE1 SHL SWAP3 ADD SWAP2 DUP3 MSTORE POP PUSH1 0x4 ADD PUSH1 0x3B PUSH2 0x432E DUP3 CODECOPY PUSH1 0x3B ADD DUP4 DUP1 MLOAD SWAP1 PUSH1 0x20 ADD SWAP1 DUP1 DUP4 DUP4 JUMPDEST PUSH1 0x20 DUP4 LT PUSH2 0x1E5C JUMPI DUP1 MLOAD DUP3 MSTORE PUSH1 0x1F NOT SWAP1 SWAP3 ADD SWAP2 PUSH1 0x20 SWAP2 DUP3 ADD SWAP2 ADD PUSH2 0x1E3D JUMP JUMPDEST PUSH1 0x1 DUP4 PUSH1 0x20 SUB PUSH2 0x100 EXP SUB DUP1 NOT DUP3 MLOAD AND DUP2 DUP5 MLOAD AND DUP1 DUP3 OR DUP6 MSTORE POP POP POP POP POP POP SWAP1 POP ADD DUP1 PUSH2 0x477B PUSH1 0x99 SWAP2 CODECOPY PUSH1 0x99 ADD PUSH1 0x7F PUSH2 0x521C DUP3 CODECOPY PUSH1 0x7F ADD PUSH1 0x88 PUSH2 0x55E3 DUP3 CODECOPY PUSH1 0x88 ADD PUSH1 0x41 PUSH2 0x4814 DUP3 CODECOPY PUSH1 0x41 ADD PUSH1 0x5D PUSH2 0x57A3 DUP3 CODECOPY PUSH1 0x5D ADD PUSH1 0x72 PUSH2 0x52C8 DUP3 CODECOPY PUSH1 0x72 ADD PUSH1 0x49 PUSH2 0x4297 DUP3 CODECOPY PUSH1 0x49 ADD PUSH1 0xBE PUSH2 0x4A75 DUP3 CODECOPY PUSH1 0xBE ADD PUSH1 0x71 PUSH2 0x4547 DUP3 CODECOPY PUSH1 0x71 ADD PUSH1 0x75 PUSH2 0x515F DUP3 CODECOPY PUSH1 0x75 ADD PUSH1 0x66 PUSH2 0x4855 DUP3 CODECOPY PUSH1 0x66 ADD PUSH1 0xA4 PUSH2 0x4E11 DUP3 CODECOPY PUSH1 0xA4 ADD PUSH1 0x85 PUSH2 0x56A9 DUP3 CODECOPY PUSH32 0x3C6720636C69702D706174683D2275726C2823636F726E65727329223E000000 PUSH1 0x85 DUP3 ADD MSTORE PUSH12 0x1E3932B1BA103334B6361E91 PUSH1 0xA1 SHL PUSH1 0xA2 DUP3 ADD MSTORE DUP3 MLOAD PUSH1 0xAE SWAP1 SWAP2 ADD SWAP1 PUSH1 0x20 DUP5 ADD SWAP1 DUP1 DUP4 DUP4 JUMPDEST PUSH1 0x20 DUP4 LT PUSH2 0x1F69 JUMPI DUP1 MLOAD DUP3 MSTORE PUSH1 0x1F NOT SWAP1 SWAP3 ADD SWAP2 PUSH1 0x20 SWAP2 DUP3 ADD SWAP2 ADD PUSH2 0x1F4A JUMP JUMPDEST PUSH1 0x1 DUP4 PUSH1 0x20 SUB PUSH2 0x100 EXP SUB DUP1 NOT DUP3 MLOAD AND DUP2 DUP5 MLOAD AND DUP1 DUP3 OR DUP6 MSTORE POP POP POP POP POP POP SWAP1 POP ADD DUP1 PUSH2 0x48BB PUSH1 0x31 SWAP2 CODECOPY PUSH1 0x31 ADD PUSH1 0x4E PUSH2 0x42E0 DUP3 CODECOPY PUSH1 0x4E ADD PUSH1 0x5D PUSH2 0x471E DUP3 CODECOPY PUSH1 0x5D ADD PUSH1 0x41 PUSH2 0x4D64 DUP3 CODECOPY PUSH1 0x41 ADD PUSH1 0x52 PUSH2 0x4C3D DUP3 CODECOPY PUSH1 0x52 ADD PUSH1 0x75 PUSH2 0x572E DUP3 CODECOPY PUSH1 0x75 ADD SWAP6 POP POP POP POP POP POP PUSH1 0x40 MLOAD PUSH1 0x20 DUP2 DUP4 SUB SUB DUP2 MSTORE SWAP1 PUSH1 0x40 MSTORE SWAP1 POP SWAP2 SWAP1 POP JUMP JUMPDEST PUSH1 0x60 DUP4 DUP3 DUP6 DUP5 DUP9 DUP8 DUP11 DUP10 PUSH1 0x40 MLOAD PUSH1 0x20 ADD DUP1 DUP1 PUSH2 0x5886 PUSH1 0x25 SWAP2 CODECOPY PUSH1 0x25 ADD PUSH1 0x7D PUSH2 0x49F8 DUP3 CODECOPY PUSH1 0x7D ADD DUP10 DUP1 MLOAD SWAP1 PUSH1 0x20 ADD SWAP1 DUP1 DUP4 DUP4 JUMPDEST PUSH1 0x20 DUP4 LT PUSH2 0x2036 JUMPI DUP1 MLOAD DUP3 MSTORE PUSH1 0x1F NOT SWAP1 SWAP3 ADD SWAP2 PUSH1 0x20 SWAP2 DUP3 ADD SWAP2 ADD PUSH2 0x2017 JUMP JUMPDEST MLOAD DUP2 MLOAD PUSH1 0x20 SWAP4 DUP5 SUB PUSH2 0x100 EXP PUSH1 0x0 NOT ADD DUP1 NOT SWAP1 SWAP3 AND SWAP2 AND OR SWAP1 MSTORE PUSH5 0x107140511 PUSH1 0xDD SHL SWAP2 SWAP1 SWAP4 ADD SWAP1 DUP2 MSTORE DUP11 MLOAD PUSH1 0x5 SWAP1 SWAP2 ADD SWAP3 DUP12 ADD SWAP2 POP DUP1 DUP4 DUP4 JUMPDEST PUSH1 0x20 DUP4 LT PUSH2 0x208F JUMPI DUP1 MLOAD DUP3 MSTORE PUSH1 0x1F NOT SWAP1 SWAP3 ADD SWAP2 PUSH1 0x20 SWAP2 DUP3 ADD SWAP2 ADD PUSH2 0x2070 JUMP JUMPDEST PUSH1 0x1 DUP4 PUSH1 0x20 SUB PUSH2 0x100 EXP SUB DUP1 NOT DUP3 MLOAD AND DUP2 DUP5 MLOAD AND DUP1 DUP3 OR DUP6 MSTORE POP POP POP POP POP POP SWAP1 POP ADD DUP1 PUSH2 0x48EC PUSH1 0x79 SWAP2 CODECOPY PUSH1 0x79 ADD PUSH1 0x86 PUSH2 0x5800 DUP3 CODECOPY PUSH1 0x86 ADD DUP8 DUP1 MLOAD SWAP1 PUSH1 0x20 ADD SWAP1 DUP1 DUP4 DUP4 JUMPDEST PUSH1 0x20 DUP4 LT PUSH2 0x20F1 JUMPI DUP1 MLOAD DUP3 MSTORE PUSH1 0x1F NOT SWAP1 SWAP3 ADD SWAP2 PUSH1 0x20 SWAP2 DUP3 ADD SWAP2 ADD PUSH2 0x20D2 JUMP JUMPDEST MLOAD DUP2 MLOAD PUSH1 0x20 SWAP4 DUP5 SUB PUSH2 0x100 EXP PUSH1 0x0 NOT ADD DUP1 NOT SWAP1 SWAP3 AND SWAP2 AND OR SWAP1 MSTORE PUSH5 0x107140511 PUSH1 0xDD SHL SWAP2 SWAP1 SWAP4 ADD SWAP1 DUP2 MSTORE DUP9 MLOAD PUSH1 0x5 SWAP1 SWAP2 ADD SWAP3 DUP10 ADD SWAP2 POP DUP1 DUP4 DUP4 JUMPDEST PUSH1 0x20 DUP4 LT PUSH2 0x214A JUMPI DUP1 MLOAD DUP3 MSTORE PUSH1 0x1F NOT SWAP1 SWAP3 ADD SWAP2 PUSH1 0x20 SWAP2 DUP3 ADD SWAP2 ADD PUSH2 0x212B JUMP JUMPDEST PUSH1 0x1 DUP4 PUSH1 0x20 SUB PUSH2 0x100 EXP SUB DUP1 NOT DUP3 MLOAD AND DUP2 DUP5 MLOAD AND DUP1 DUP3 OR DUP6 MSTORE POP POP POP POP POP POP SWAP1 POP ADD DUP1 PUSH2 0x44C2 PUSH1 0x85 SWAP2 CODECOPY PUSH1 0x85 ADD PUSH1 0x7B PUSH2 0x5451 DUP3 CODECOPY PUSH1 0x7B ADD DUP6 DUP1 MLOAD SWAP1 PUSH1 0x20 ADD SWAP1 DUP1 DUP4 DUP4 JUMPDEST PUSH1 0x20 DUP4 LT PUSH2 0x21AC JUMPI DUP1 MLOAD DUP3 MSTORE PUSH1 0x1F NOT SWAP1 SWAP3 ADD SWAP2 PUSH1 0x20 SWAP2 DUP3 ADD SWAP2 ADD PUSH2 0x218D JUMP JUMPDEST MLOAD DUP2 MLOAD PUSH1 0x20 SWAP4 DUP5 SUB PUSH2 0x100 EXP PUSH1 0x0 NOT ADD DUP1 NOT SWAP1 SWAP3 AND SWAP2 AND OR SWAP1 MSTORE PUSH5 0x107140511 PUSH1 0xDD SHL SWAP2 SWAP1 SWAP4 ADD SWAP1 DUP2 MSTORE DUP7 MLOAD PUSH1 0x5 SWAP1 SWAP2 ADD SWAP3 DUP8 ADD SWAP2 POP DUP1 DUP4 DUP4 JUMPDEST PUSH1 0x20 DUP4 LT PUSH2 0x2205 JUMPI DUP1 MLOAD DUP3 MSTORE PUSH1 0x1F NOT SWAP1 SWAP3 ADD SWAP2 PUSH1 0x20 SWAP2 DUP3 ADD SWAP2 ADD PUSH2 0x21E6 JUMP JUMPDEST PUSH1 0x1 DUP4 PUSH1 0x20 SUB PUSH2 0x100 EXP SUB DUP1 NOT DUP3 MLOAD AND DUP2 DUP5 MLOAD AND DUP1 DUP3 OR DUP6 MSTORE POP POP POP POP POP POP SWAP1 POP ADD DUP1 PUSH2 0x460C PUSH1 0x5D SWAP2 CODECOPY PUSH1 0x5D ADD PUSH1 0xA3 PUSH2 0x50BC DUP3 CODECOPY PUSH1 0xA3 ADD DUP4 DUP1 MLOAD SWAP1 PUSH1 0x20 ADD SWAP1 DUP1 DUP4 DUP4 JUMPDEST PUSH1 0x20 DUP4 LT PUSH2 0x2267 JUMPI DUP1 MLOAD DUP3 MSTORE PUSH1 0x1F NOT SWAP1 SWAP3 ADD SWAP2 PUSH1 0x20 SWAP2 DUP3 ADD SWAP2 ADD PUSH2 0x2248 JUMP JUMPDEST MLOAD DUP2 MLOAD PUSH1 0x20 SWAP4 DUP5 SUB PUSH2 0x100 EXP PUSH1 0x0 NOT ADD DUP1 NOT SWAP1 SWAP3 AND SWAP2 AND OR SWAP1 MSTORE PUSH5 0x107140511 PUSH1 0xDD SHL SWAP2 SWAP1 SWAP4 ADD SWAP1 DUP2 MSTORE DUP5 MLOAD PUSH1 0x5 SWAP1 SWAP2 ADD SWAP3 DUP6 ADD SWAP2 POP DUP1 DUP4 DUP4 JUMPDEST PUSH1 0x20 DUP4 LT PUSH2 0x22C0 JUMPI DUP1 MLOAD DUP3 MSTORE PUSH1 0x1F NOT SWAP1 SWAP3 ADD SWAP2 PUSH1 0x20 SWAP2 DUP3 ADD SWAP2 ADD PUSH2 0x22A1 JUMP JUMPDEST PUSH1 0x1 DUP4 PUSH1 0x20 SUB PUSH2 0x100 EXP SUB DUP1 NOT DUP3 MLOAD AND DUP2 DUP5 MLOAD AND DUP1 DUP3 OR DUP6 MSTORE POP POP POP POP POP POP SWAP1 POP ADD DUP1 PUSH2 0x420C PUSH1 0x8B SWAP2 CODECOPY PUSH1 0x8B ADD SWAP9 POP POP POP POP POP POP POP POP POP PUSH1 0x40 MLOAD PUSH1 0x20 DUP2 DUP4 SUB SUB DUP2 MSTORE SWAP1 PUSH1 0x40 MSTORE SWAP1 POP SWAP5 SWAP4 POP POP POP POP JUMP JUMPDEST PUSH1 0x60 DUP4 DUP4 DUP4 PUSH1 0x40 MLOAD PUSH1 0x20 ADD DUP1 DUP1 PUSH2 0x4369 PUSH1 0xCD SWAP2 CODECOPY PUSH1 0xCD ADD DUP5 DUP1 MLOAD SWAP1 PUSH1 0x20 ADD SWAP1 DUP1 DUP4 DUP4 JUMPDEST PUSH1 0x20 DUP4 LT PUSH2 0x2352 JUMPI DUP1 MLOAD DUP3 MSTORE PUSH1 0x1F NOT SWAP1 SWAP3 ADD SWAP2 PUSH1 0x20 SWAP2 DUP3 ADD SWAP2 ADD PUSH2 0x2333 JUMP JUMPDEST PUSH1 0x1 DUP4 PUSH1 0x20 SUB PUSH2 0x100 EXP SUB DUP1 NOT DUP3 MLOAD AND DUP2 DUP5 MLOAD AND DUP1 DUP3 OR DUP6 MSTORE POP POP POP POP POP POP SWAP1 POP ADD DUP1 PUSH1 0x2F PUSH1 0xF8 SHL DUP2 MSTORE POP PUSH1 0x1 ADD DUP4 DUP1 MLOAD SWAP1 PUSH1 0x20 ADD SWAP1 DUP1 DUP4 DUP4 JUMPDEST PUSH1 0x20 DUP4 LT PUSH2 0x23AB JUMPI DUP1 MLOAD DUP3 MSTORE PUSH1 0x1F NOT SWAP1 SWAP3 ADD SWAP2 PUSH1 0x20 SWAP2 DUP3 ADD SWAP2 ADD PUSH2 0x238C JUMP JUMPDEST PUSH1 0x1 DUP4 PUSH1 0x20 SUB PUSH2 0x100 EXP SUB DUP1 NOT DUP3 MLOAD AND DUP2 DUP5 MLOAD AND DUP1 DUP3 OR DUP6 MSTORE POP POP POP POP POP POP SWAP1 POP ADD DUP1 PUSH2 0x5A2F PUSH1 0x77 SWAP2 CODECOPY PUSH1 0x77 ADD DUP3 DUP1 MLOAD SWAP1 PUSH1 0x20 ADD SWAP1 DUP1 DUP4 DUP4 JUMPDEST PUSH1 0x20 DUP4 LT PUSH2 0x2403 JUMPI DUP1 MLOAD DUP3 MSTORE PUSH1 0x1F NOT SWAP1 SWAP3 ADD SWAP2 PUSH1 0x20 SWAP2 DUP3 ADD SWAP2 ADD PUSH2 0x23E4 JUMP JUMPDEST MLOAD DUP2 MLOAD PUSH1 0x20 SWAP4 SWAP1 SWAP4 SUB PUSH2 0x100 EXP PUSH1 0x0 NOT ADD DUP1 NOT SWAP1 SWAP2 AND SWAP3 AND SWAP2 SWAP1 SWAP2 OR SWAP1 MSTORE PUSH11 0x1E17BA32BC3A1F1E17B39F PUSH1 0xA9 SHL SWAP3 ADD SWAP2 DUP3 MSTORE POP PUSH1 0xB ADD PUSH1 0x73 PUSH2 0x58CF DUP3 CODECOPY PUSH1 0x73 ADD SWAP4 POP POP POP POP PUSH1 0x40 MLOAD PUSH1 0x20 DUP2 DUP4 SUB SUB DUP2 MSTORE SWAP1 PUSH1 0x40 MSTORE SWAP1 POP SWAP4 SWAP3 POP POP POP JUMP JUMPDEST PUSH1 0x60 PUSH1 0x0 DUP3 PUSH1 0x0 SIGNEXTEND PUSH1 0x1 EQ PUSH2 0x24C7 JUMPI DUP3 PUSH1 0x0 SIGNEXTEND PUSH1 0x0 NOT EQ PUSH2 0x249E JUMPI PUSH1 0x40 MLOAD DUP1 PUSH1 0x40 ADD PUSH1 0x40 MSTORE DUP1 PUSH1 0x5 DUP2 MSTORE PUSH1 0x20 ADD PUSH5 0x236E6F6E65 PUSH1 0xD8 SHL DUP2 MSTORE POP PUSH2 0x24C2 JUMP JUMPDEST PUSH1 0x40 MLOAD DUP1 PUSH1 0x40 ADD PUSH1 0x40 MSTORE DUP1 PUSH1 0xA DUP2 MSTORE PUSH1 0x20 ADD PUSH10 0x11B330B23296B237BBB7 PUSH1 0xB1 SHL DUP2 MSTORE POP JUMPDEST PUSH2 0x24E9 JUMP JUMPDEST PUSH1 0x40 MLOAD DUP1 PUSH1 0x40 ADD PUSH1 0x40 MSTORE DUP1 PUSH1 0x8 DUP2 MSTORE PUSH1 0x20 ADD PUSH8 0x23666164652D757 PUSH1 0xC4 SHL DUP2 MSTORE POP JUMPDEST SWAP1 POP PUSH1 0x0 PUSH2 0x24F8 DUP8 DUP8 DUP8 PUSH2 0x2DF5 JUMP JUMPDEST SWAP1 POP DUP2 DUP2 DUP4 DUP4 PUSH2 0x2507 DUP9 PUSH2 0x3043 JUMP JUMPDEST PUSH1 0x40 MLOAD PUSH1 0x20 ADD DUP1 DUP1 PUSH13 0x78CE40DAC2E6D67A44EAE4D85 PUSH1 0x9B SHL DUP2 MSTORE POP PUSH1 0xD ADD DUP7 DUP1 MLOAD SWAP1 PUSH1 0x20 ADD SWAP1 DUP1 DUP4 DUP4 JUMPDEST PUSH1 0x20 DUP4 LT PUSH2 0x2551 JUMPI DUP1 MLOAD DUP3 MSTORE PUSH1 0x1F NOT SWAP1 SWAP3 ADD SWAP2 PUSH1 0x20 SWAP2 DUP3 ADD SWAP2 ADD PUSH2 0x2532 JUMP JUMPDEST MLOAD DUP2 MLOAD PUSH1 0x20 SWAP4 SWAP1 SWAP4 SUB PUSH2 0x100 EXP PUSH1 0x0 NOT ADD DUP1 NOT SWAP1 SWAP2 AND SWAP3 AND SWAP2 SWAP1 SWAP2 OR SWAP1 MSTORE PUSH2 0x1491 PUSH1 0xF1 SHL SWAP3 ADD SWAP2 DUP3 MSTORE POP PUSH1 0x2 ADD PUSH1 0x77 PUSH2 0x4EB5 DUP3 CODECOPY PUSH1 0x77 ADD DUP6 DUP1 MLOAD SWAP1 PUSH1 0x20 ADD SWAP1 DUP1 DUP4 DUP4 JUMPDEST PUSH1 0x20 DUP4 LT PUSH2 0x25B3 JUMPI DUP1 MLOAD DUP3 MSTORE PUSH1 0x1F NOT SWAP1 SWAP3 ADD SWAP2 PUSH1 0x20 SWAP2 DUP3 ADD SWAP2 ADD PUSH2 0x2594 JUMP JUMPDEST PUSH1 0x1 DUP4 PUSH1 0x20 SUB PUSH2 0x100 EXP SUB DUP1 NOT DUP3 MLOAD AND DUP2 DUP5 MLOAD AND DUP1 DUP3 OR DUP6 MSTORE POP POP POP POP POP POP SWAP1 POP ADD DUP1 PUSH2 0x45B8 PUSH1 0x54 SWAP2 CODECOPY PUSH1 0x54 ADD DUP1 PUSH17 0x785ECE7C78CE40DAC2E6D67A44EAE4D85 PUSH1 0x7B SHL DUP2 MSTORE POP PUSH1 0x11 ADD DUP5 DUP1 MLOAD SWAP1 PUSH1 0x20 ADD SWAP1 DUP1 DUP4 DUP4 JUMPDEST PUSH1 0x20 DUP4 LT PUSH2 0x2627 JUMPI DUP1 MLOAD DUP3 MSTORE PUSH1 0x1F NOT SWAP1 SWAP3 ADD SWAP2 PUSH1 0x20 SWAP2 DUP3 ADD SWAP2 ADD PUSH2 0x2608 JUMP JUMPDEST MLOAD DUP2 MLOAD PUSH1 0x20 SWAP4 SWAP1 SWAP4 SUB PUSH2 0x100 EXP PUSH1 0x0 NOT ADD DUP1 NOT SWAP1 SWAP2 AND SWAP3 AND SWAP2 SWAP1 SWAP2 OR SWAP1 MSTORE PUSH2 0x1491 PUSH1 0xF1 SHL SWAP3 ADD SWAP2 DUP3 MSTORE POP PUSH1 0x2 ADD PUSH1 0x29 PUSH2 0x4F2C DUP3 CODECOPY PUSH1 0x29 ADD PUSH1 0x45 PUSH2 0x4F7F DUP3 CODECOPY PUSH1 0x45 ADD DUP1 PUSH9 0x1E3830BA3410321E91 PUSH1 0xB9 SHL DUP2 MSTORE POP PUSH1 0x9 ADD DUP4 DUP1 MLOAD SWAP1 PUSH1 0x20 ADD SWAP1 DUP1 DUP4 DUP4 JUMPDEST PUSH1 0x20 DUP4 LT PUSH2 0x26A7 JUMPI DUP1 MLOAD DUP3 MSTORE PUSH1 0x1F NOT SWAP1 SWAP3 ADD SWAP2 PUSH1 0x20 SWAP2 DUP3 ADD SWAP2 ADD PUSH2 0x2688 JUMP JUMPDEST PUSH1 0x1 DUP4 PUSH1 0x20 SUB PUSH2 0x100 EXP SUB DUP1 NOT DUP3 MLOAD AND DUP2 DUP5 MLOAD AND DUP1 DUP3 OR DUP6 MSTORE POP POP POP POP POP POP SWAP1 POP ADD DUP1 PUSH2 0x51D4 PUSH1 0x48 SWAP2 CODECOPY PUSH1 0x48 ADD DUP3 DUP1 MLOAD SWAP1 PUSH1 0x20 ADD SWAP1 DUP1 DUP4 DUP4 JUMPDEST PUSH1 0x20 DUP4 LT PUSH2 0x26FF JUMPI DUP1 MLOAD DUP3 MSTORE PUSH1 0x1F NOT SWAP1 SWAP3 ADD SWAP2 PUSH1 0x20 SWAP2 DUP3 ADD SWAP2 ADD PUSH2 0x26E0 JUMP JUMPDEST PUSH1 0x1 DUP4 PUSH1 0x20 SUB PUSH2 0x100 EXP SUB DUP1 NOT DUP3 MLOAD AND DUP2 DUP5 MLOAD AND DUP1 DUP3 OR DUP6 MSTORE POP POP POP POP POP POP SWAP1 POP ADD SWAP6 POP POP POP POP POP POP PUSH1 0x40 MLOAD PUSH1 0x20 DUP2 DUP4 SUB SUB DUP2 MSTORE SWAP1 PUSH1 0x40 MSTORE SWAP3 POP POP POP SWAP5 SWAP4 POP POP POP POP JUMP JUMPDEST PUSH1 0x60 PUSH1 0x0 PUSH2 0x2750 DUP5 PUSH2 0x34AE JUMP JUMPDEST SWAP1 POP PUSH1 0x0 PUSH2 0x275D DUP5 PUSH2 0x34AE JUMP JUMPDEST DUP7 MLOAD DUP4 MLOAD DUP3 MLOAD SWAP3 SWAP4 POP PUSH1 0x4 SWAP1 SWAP2 ADD SWAP2 PUSH1 0xA SWAP2 DUP3 ADD SWAP2 ADD PUSH1 0x0 DUP1 PUSH2 0x2780 DUP11 DUP11 PUSH2 0x35B8 JUMP JUMPDEST SWAP2 POP SWAP2 POP PUSH2 0x2793 DUP6 PUSH1 0x4 ADD PUSH1 0x7 MUL PUSH2 0x625 JUMP JUMPDEST DUP12 PUSH2 0x27A3 DUP7 PUSH1 0x4 ADD PUSH1 0x7 MUL PUSH2 0x625 JUMP JUMPDEST DUP10 PUSH2 0x27B3 DUP8 PUSH1 0x4 ADD PUSH1 0x7 MUL PUSH2 0x625 JUMP JUMPDEST DUP11 DUP8 DUP8 PUSH1 0x40 MLOAD PUSH1 0x20 ADD DUP1 DUP1 PUSH2 0x529B PUSH1 0x2D SWAP2 CODECOPY PUSH1 0x2D ADD DUP1 PUSH13 0x1E3932B1BA103BB4B23A341E91 PUSH1 0x99 SHL DUP2 MSTORE POP PUSH1 0xD ADD DUP10 DUP1 MLOAD SWAP1 PUSH1 0x20 ADD SWAP1 DUP1 DUP4 DUP4 JUMPDEST PUSH1 0x20 DUP4 LT PUSH2 0x280B JUMPI DUP1 MLOAD DUP3 MSTORE PUSH1 0x1F NOT SWAP1 SWAP3 ADD SWAP2 PUSH1 0x20 SWAP2 DUP3 ADD SWAP2 ADD PUSH2 0x27EC JUMP JUMPDEST PUSH1 0x1 DUP4 PUSH1 0x20 SUB PUSH2 0x100 EXP SUB DUP1 NOT DUP3 MLOAD AND DUP2 DUP5 MLOAD AND DUP1 DUP3 OR DUP6 MSTORE POP POP POP POP POP POP SWAP1 POP ADD DUP1 PUSH2 0x4C8F PUSH1 0x3D SWAP2 CODECOPY PUSH1 0x3D ADD PUSH1 0x8D PUSH2 0x5942 DUP3 CODECOPY PUSH1 0x8D ADD DUP9 DUP1 MLOAD SWAP1 PUSH1 0x20 ADD SWAP1 DUP1 DUP4 DUP4 JUMPDEST PUSH1 0x20 DUP4 LT PUSH2 0x286D JUMPI DUP1 MLOAD DUP3 MSTORE PUSH1 0x1F NOT SWAP1 SWAP3 ADD SWAP2 PUSH1 0x20 SWAP2 DUP3 ADD SWAP2 ADD PUSH2 0x284E JUMP JUMPDEST MLOAD DUP2 MLOAD PUSH1 0x20 SWAP4 SWAP1 SWAP4 SUB PUSH2 0x100 EXP PUSH1 0x0 NOT ADD DUP1 NOT SWAP1 SWAP2 AND SWAP3 AND SWAP2 SWAP1 SWAP2 OR SWAP1 MSTORE PUSH11 0x1E17BA32BC3A1F1E17B39F PUSH1 0xA9 SHL SWAP3 ADD SWAP2 DUP3 MSTORE POP PUSH1 0xB ADD PUSH1 0x2D PUSH2 0x5ADE DUP3 CODECOPY PUSH1 0x2D ADD DUP1 PUSH13 0x1E3932B1BA103BB4B23A341E91 PUSH1 0x99 SHL DUP2 MSTORE POP PUSH1 0xD ADD DUP8 DUP1 MLOAD SWAP1 PUSH1 0x20 ADD SWAP1 DUP1 DUP4 DUP4 JUMPDEST PUSH1 0x20 DUP4 LT PUSH2 0x28F0 JUMPI DUP1 MLOAD DUP3 MSTORE PUSH1 0x1F NOT SWAP1 SWAP3 ADD SWAP2 PUSH1 0x20 SWAP2 DUP3 ADD SWAP2 ADD PUSH2 0x28D1 JUMP JUMPDEST PUSH1 0x1 DUP4 PUSH1 0x20 SUB PUSH2 0x100 EXP SUB DUP1 NOT DUP3 MLOAD AND DUP2 DUP5 MLOAD AND DUP1 DUP3 OR DUP6 MSTORE POP POP POP POP POP POP SWAP1 POP ADD DUP1 PUSH2 0x4C8F PUSH1 0x3D SWAP2 CODECOPY PUSH1 0x3D ADD PUSH1 0x93 PUSH2 0x4965 DUP3 CODECOPY PUSH1 0x93 ADD DUP7 DUP1 MLOAD SWAP1 PUSH1 0x20 ADD SWAP1 DUP1 DUP4 DUP4 JUMPDEST PUSH1 0x20 DUP4 LT PUSH2 0x2952 JUMPI DUP1 MLOAD DUP3 MSTORE PUSH1 0x1F NOT SWAP1 SWAP3 ADD SWAP2 PUSH1 0x20 SWAP2 DUP3 ADD SWAP2 ADD PUSH2 0x2933 JUMP JUMPDEST MLOAD DUP2 MLOAD PUSH1 0x20 SWAP4 SWAP1 SWAP4 SUB PUSH2 0x100 EXP PUSH1 0x0 NOT ADD DUP1 NOT SWAP1 SWAP2 AND SWAP3 AND SWAP2 SWAP1 SWAP2 OR SWAP1 MSTORE PUSH11 0x1E17BA32BC3A1F1E17B39F PUSH1 0xA9 SHL SWAP3 ADD SWAP2 DUP3 MSTORE POP PUSH1 0xB ADD PUSH1 0x2D PUSH2 0x4669 DUP3 CODECOPY PUSH1 0x2D ADD DUP1 PUSH13 0x1E3932B1BA103BB4B23A341E91 PUSH1 0x99 SHL DUP2 MSTORE POP PUSH1 0xD ADD DUP6 DUP1 MLOAD SWAP1 PUSH1 0x20 ADD SWAP1 DUP1 DUP4 DUP4 JUMPDEST PUSH1 0x20 DUP4 LT PUSH2 0x29D5 JUMPI DUP1 MLOAD DUP3 MSTORE PUSH1 0x1F NOT SWAP1 SWAP3 ADD SWAP2 PUSH1 0x20 SWAP2 DUP3 ADD SWAP2 ADD PUSH2 0x29B6 JUMP JUMPDEST PUSH1 0x1 DUP4 PUSH1 0x20 SUB PUSH2 0x100 EXP SUB DUP1 NOT DUP3 MLOAD AND DUP2 DUP5 MLOAD AND DUP1 DUP3 OR DUP6 MSTORE POP POP POP POP POP POP SWAP1 POP ADD DUP1 PUSH2 0x4C8F PUSH1 0x3D SWAP2 CODECOPY PUSH1 0x3D ADD PUSH1 0x93 PUSH2 0x54CC DUP3 CODECOPY PUSH1 0x93 ADD DUP5 DUP1 MLOAD SWAP1 PUSH1 0x20 ADD SWAP1 DUP1 DUP4 DUP4 JUMPDEST PUSH1 0x20 DUP4 LT PUSH2 0x2A37 JUMPI DUP1 MLOAD DUP3 MSTORE PUSH1 0x1F NOT SWAP1 SWAP3 ADD SWAP2 PUSH1 0x20 SWAP2 DUP3 ADD SWAP2 ADD PUSH2 0x2A18 JUMP JUMPDEST PUSH1 0x1 DUP4 PUSH1 0x20 SUB PUSH2 0x100 EXP SUB DUP1 NOT DUP3 MLOAD AND DUP2 DUP5 MLOAD AND DUP1 DUP3 OR DUP6 MSTORE POP POP POP POP POP POP SWAP1 POP ADD DUP1 PUSH2 0x5AA6 PUSH1 0x38 SWAP2 CODECOPY PUSH1 0x38 ADD PUSH1 0x60 PUSH2 0x59CF DUP3 CODECOPY PUSH1 0x60 ADD PUSH1 0x64 PUSH2 0x5058 DUP3 CODECOPY PUSH1 0x64 ADD PUSH1 0x25 PUSH2 0x4696 DUP3 CODECOPY PUSH1 0x25 ADD DUP4 DUP1 MLOAD SWAP1 PUSH1 0x20 ADD SWAP1 DUP1 DUP4 DUP4 JUMPDEST PUSH1 0x20 DUP4 LT PUSH2 0x2AAD JUMPI DUP1 MLOAD DUP3 MSTORE PUSH1 0x1F NOT SWAP1 SWAP3 ADD SWAP2 PUSH1 0x20 SWAP2 DUP3 ADD SWAP2 ADD PUSH2 0x2A8E JUMP JUMPDEST MLOAD DUP2 MLOAD PUSH1 0x20 SWAP4 DUP5 SUB PUSH2 0x100 EXP PUSH1 0x0 NOT ADD DUP1 NOT SWAP1 SWAP3 AND SWAP2 AND OR SWAP1 MSTORE PUSH4 0x383C161 PUSH1 0xE5 SHL SWAP2 SWAP1 SWAP4 ADD SWAP1 DUP2 MSTORE DUP5 MLOAD PUSH1 0x4 SWAP1 SWAP2 ADD SWAP3 DUP6 ADD SWAP2 POP DUP1 DUP4 DUP4 JUMPDEST PUSH1 0x20 DUP4 LT PUSH2 0x2B05 JUMPI DUP1 MLOAD DUP3 MSTORE PUSH1 0x1F NOT SWAP1 SWAP3 ADD SWAP2 PUSH1 0x20 SWAP2 DUP3 ADD SWAP2 ADD PUSH2 0x2AE6 JUMP JUMPDEST PUSH1 0x1 DUP4 PUSH1 0x20 SUB PUSH2 0x100 EXP SUB DUP1 NOT DUP3 MLOAD AND DUP2 DUP5 MLOAD AND DUP1 DUP3 OR DUP6 MSTORE POP POP POP POP POP POP SWAP1 POP ADD DUP1 PUSH2 0x448C PUSH1 0x36 SWAP2 CODECOPY PUSH1 0x36 ADD SWAP9 POP POP POP POP POP POP POP POP POP PUSH1 0x40 MLOAD PUSH1 0x20 DUP2 DUP4 SUB SUB DUP2 MSTORE SWAP1 PUSH1 0x40 MSTORE SWAP8 POP POP POP POP POP POP POP POP SWAP4 SWAP3 POP POP POP JUMP JUMPDEST PUSH1 0x60 PUSH2 0x2B67 DUP4 DUP4 PUSH2 0x38C4 JUMP JUMPDEST ISZERO PUSH2 0x2BBD JUMPI PUSH1 0x40 MLOAD PUSH1 0x20 ADD DUP1 PUSH1 0x8D PUSH2 0x53C4 DUP3 CODECOPY PUSH1 0x8D ADD PUSH1 0x73 PUSH2 0x4FE5 DUP3 CODECOPY PUSH1 0x73 ADD PUSH1 0x71 PUSH2 0x4CF3 DUP3 CODECOPY PUSH1 0x71 ADD PUSH1 0x8A PUSH2 0x533A DUP3 CODECOPY PUSH1 0x8A ADD PUSH1 0x84 PUSH2 0x555F DUP3 CODECOPY PUSH1 0x84 ADD SWAP1 POP PUSH1 0x40 MLOAD PUSH1 0x20 DUP2 DUP4 SUB SUB DUP2 MSTORE SWAP1 PUSH1 0x40 MSTORE SWAP1 POP PUSH2 0x46B JUMP JUMPDEST POP PUSH1 0x40 DUP1 MLOAD PUSH1 0x20 DUP2 ADD SWAP1 SWAP2 MSTORE PUSH1 0x0 DUP2 MSTORE SWAP3 SWAP2 POP POP JUMP JUMPDEST PUSH1 0x0 DUP1 PUSH2 0x2BEE PUSH2 0x2BE9 PUSH1 0xFF DUP7 DUP2 AND SWAP1 DUP7 AND PUSH2 0x3927 JUMP JUMPDEST PUSH2 0x398C JUMP JUMPDEST SWAP1 POP PUSH1 0x0 DUP2 GT DUP1 ISZERO PUSH2 0x2C01 JUMPI POP PUSH1 0x12 DUP2 GT ISZERO JUMPDEST ISZERO PUSH2 0x2CC2 JUMPI DUP3 PUSH1 0xFF AND DUP5 PUSH1 0xFF AND GT ISZERO PUSH2 0x2C6B JUMPI PUSH2 0x2C35 PUSH2 0x2C22 DUP3 PUSH1 0x2 PUSH2 0xB69 JUMP JUMPDEST PUSH1 0x1 PUSH1 0x1 PUSH1 0xA0 SHL SUB DUP8 AND SWAP1 PUSH1 0xA EXP PUSH2 0x192D JUMP JUMPDEST SWAP2 POP PUSH1 0x2 DUP2 MOD PUSH1 0x1 EQ ISZERO PUSH2 0x2C66 JUMPI PUSH2 0x2C63 DUP3 PUSH17 0x3298B075B4B6A5240945790619B37FD4A PUSH1 0x1 PUSH1 0x80 SHL PUSH2 0x2CD5 JUMP JUMPDEST SWAP2 POP JUMPDEST PUSH2 0x2CBD JUMP JUMPDEST PUSH2 0x2C8C PUSH2 0x2C79 DUP3 PUSH1 0x2 PUSH2 0xB69 JUMP JUMPDEST PUSH1 0x1 PUSH1 0x1 PUSH1 0xA0 SHL SUB DUP8 AND SWAP1 PUSH1 0xA EXP PUSH2 0xB69 JUMP JUMPDEST SWAP2 POP PUSH1 0x2 DUP2 MOD PUSH1 0x1 EQ ISZERO PUSH2 0x2CBD JUMPI PUSH2 0x2CBA DUP3 PUSH1 0x1 PUSH1 0x80 SHL PUSH17 0x3298B075B4B6A5240945790619B37FD4A PUSH2 0x2CD5 JUMP JUMPDEST SWAP2 POP JUMPDEST PUSH2 0x191E JUMP JUMPDEST POP POP PUSH1 0x1 PUSH1 0x1 PUSH1 0xA0 SHL SUB SWAP1 SWAP3 AND SWAP3 SWAP2 POP POP JUMP JUMPDEST PUSH1 0x0 DUP1 DUP1 PUSH1 0x0 NOT DUP6 DUP8 MULMOD DUP7 DUP7 MUL SWAP3 POP DUP3 DUP2 LT SWAP1 DUP4 SWAP1 SUB SUB SWAP1 POP DUP1 PUSH2 0x2D0B JUMPI PUSH1 0x0 DUP5 GT PUSH2 0x2D00 JUMPI PUSH1 0x0 DUP1 REVERT JUMPDEST POP DUP3 SWAP1 DIV SWAP1 POP PUSH2 0x61E JUMP JUMPDEST DUP1 DUP5 GT PUSH2 0x2D17 JUMPI PUSH1 0x0 DUP1 REVERT JUMPDEST PUSH1 0x0 DUP5 DUP7 DUP9 MULMOD PUSH1 0x0 DUP7 DUP2 SUB DUP8 AND SWAP7 DUP8 SWAP1 DIV SWAP7 PUSH1 0x2 PUSH1 0x3 DUP10 MUL DUP2 XOR DUP1 DUP11 MUL DUP3 SUB MUL DUP1 DUP11 MUL DUP3 SUB MUL DUP1 DUP11 MUL DUP3 SUB MUL DUP1 DUP11 MUL DUP3 SUB MUL DUP1 DUP11 MUL DUP3 SUB MUL DUP1 DUP11 MUL SWAP1 SWAP2 SUB MUL SWAP2 DUP2 SWAP1 SUB DUP2 SWAP1 DIV PUSH1 0x1 ADD DUP7 DUP5 GT SWAP1 SWAP6 SUB SWAP5 SWAP1 SWAP5 MUL SWAP2 SWAP1 SWAP5 SUB SWAP3 SWAP1 SWAP3 DIV SWAP2 SWAP1 SWAP2 OR SWAP2 SWAP1 SWAP2 MUL SWAP2 POP POP SWAP4 SWAP3 POP POP POP JUMP JUMPDEST PUSH1 0x0 DUP1 PUSH1 0x0 PUSH1 0x5 DUP5 PUSH1 0xFF AND GT ISZERO PUSH2 0x2DAC JUMPI PUSH2 0x2DA9 DUP6 PUSH1 0xFF PUSH1 0x4 NOT DUP8 ADD AND PUSH1 0xA EXP PUSH2 0xB69 JUMP JUMPDEST SWAP5 POP JUMPDEST PUSH1 0x0 PUSH1 0x4 PUSH1 0xA DUP8 MOD GT SWAP1 POP PUSH2 0x2DC2 DUP7 PUSH1 0xA PUSH2 0xB69 JUMP JUMPDEST SWAP6 POP DUP1 ISZERO PUSH2 0x2DD1 JUMPI DUP6 PUSH1 0x1 ADD SWAP6 POP JUMPDEST DUP6 PUSH3 0x186A0 EQ ISZERO PUSH2 0x2DE7 JUMPI PUSH1 0xA DUP7 DIV SWAP6 POP PUSH1 0x1 SWAP2 POP JUMPDEST POP DUP5 SWAP3 POP SWAP1 POP JUMPDEST SWAP3 POP SWAP3 SWAP1 POP JUMP JUMPDEST PUSH1 0x60 PUSH1 0x0 DUP3 PUSH1 0x2 SIGNEXTEND DUP6 DUP6 SUB PUSH1 0x2 SIGNEXTEND DUP2 PUSH2 0x2E0A JUMPI INVALID JUMPDEST SDIV SWAP1 POP PUSH1 0x4 DUP2 PUSH1 0x2 SIGNEXTEND SGT PUSH2 0x2E55 JUMPI PUSH1 0x40 MLOAD DUP1 PUSH1 0x40 ADD PUSH1 0x40 MSTORE DUP1 PUSH1 0x1A DUP2 MSTORE PUSH1 0x20 ADD PUSH32 0x4D31203143343120343120313035203130352031343520313435000000000000 DUP2 MSTORE POP SWAP2 POP PUSH2 0x191E JUMP JUMPDEST PUSH1 0x8 DUP2 PUSH1 0x2 SIGNEXTEND SGT PUSH2 0x2E9D JUMPI PUSH1 0x40 MLOAD DUP1 PUSH1 0x40 ADD PUSH1 0x40 MSTORE DUP1 PUSH1 0x19 DUP2 MSTORE PUSH1 0x20 ADD PUSH32 0x4D31203143333320343920393720313133203134352031343500000000000000 DUP2 MSTORE POP SWAP2 POP PUSH2 0x191E JUMP JUMPDEST PUSH1 0x10 DUP2 PUSH1 0x2 SIGNEXTEND SGT PUSH2 0x2EE5 JUMPI PUSH1 0x40 MLOAD DUP1 PUSH1 0x40 ADD PUSH1 0x40 MSTORE DUP1 PUSH1 0x19 DUP2 MSTORE PUSH1 0x20 ADD PUSH32 0x4D31203143333320353720383920313133203134352031343500000000000000 DUP2 MSTORE POP SWAP2 POP PUSH2 0x191E JUMP JUMPDEST PUSH1 0x20 DUP2 PUSH1 0x2 SIGNEXTEND SGT PUSH2 0x2F2D JUMPI PUSH1 0x40 MLOAD DUP1 PUSH1 0x40 ADD PUSH1 0x40 MSTORE DUP1 PUSH1 0x19 DUP2 MSTORE PUSH1 0x20 ADD PUSH32 0x4D31203143323520363520383120313231203134352031343500000000000000 DUP2 MSTORE POP SWAP2 POP PUSH2 0x191E JUMP JUMPDEST PUSH1 0x40 DUP2 PUSH1 0x2 SIGNEXTEND SGT PUSH2 0x2F75 JUMPI PUSH1 0x40 MLOAD DUP1 PUSH1 0x40 ADD PUSH1 0x40 MSTORE DUP1 PUSH1 0x19 DUP2 MSTORE PUSH1 0x20 ADD PUSH32 0x4D31203143313720373320373320313239203134352031343500000000000000 DUP2 MSTORE POP SWAP2 POP PUSH2 0x191E JUMP JUMPDEST PUSH1 0x80 DUP2 PUSH1 0x2 SIGNEXTEND SGT PUSH2 0x2FBD JUMPI PUSH1 0x40 MLOAD DUP1 PUSH1 0x40 ADD PUSH1 0x40 MSTORE DUP1 PUSH1 0x18 DUP2 MSTORE PUSH1 0x20 ADD PUSH32 0x4D31203143392038312036352031333720313435203134350000000000000000 DUP2 MSTORE POP SWAP2 POP PUSH2 0x191E JUMP JUMPDEST PUSH2 0x100 DUP2 PUSH1 0x2 SIGNEXTEND SGT PUSH2 0x3006 JUMPI PUSH1 0x40 MLOAD DUP1 PUSH1 0x40 ADD PUSH1 0x40 MSTORE DUP1 PUSH1 0x1A DUP2 MSTORE PUSH1 0x20 ADD PUSH32 0x4D31203143312038392035372E35203134352031343520313435000000000000 DUP2 MSTORE POP SWAP2 POP PUSH2 0x191E JUMP JUMPDEST POP POP PUSH1 0x40 DUP1 MLOAD DUP1 DUP3 ADD SWAP1 SWAP2 MSTORE PUSH1 0x18 DUP2 MSTORE PUSH32 0x4D31203143312039372034392031343520313435203134350000000000000000 PUSH1 0x20 DUP3 ADD MSTORE SWAP4 SWAP3 POP POP POP JUMP JUMPDEST PUSH1 0x40 DUP1 MLOAD DUP1 DUP3 ADD DUP3 MSTORE PUSH1 0x2 DUP2 MSTORE PUSH2 0x3733 PUSH1 0xF0 SHL PUSH1 0x20 DUP1 DUP4 ADD SWAP2 SWAP1 SWAP2 MSTORE DUP3 MLOAD DUP1 DUP5 ADD DUP5 MSTORE PUSH1 0x3 DUP1 DUP3 MSTORE PUSH3 0x31393 PUSH1 0xEC SHL DUP3 DUP5 ADD MSTORE DUP5 MLOAD DUP1 DUP7 ADD DUP7 MSTORE DUP2 DUP2 MSTORE PUSH3 0x323137 PUSH1 0xE8 SHL DUP2 DUP6 ADD MSTORE DUP6 MLOAD DUP1 DUP8 ADD SWAP1 SWAP7 MSTORE SWAP1 DUP6 MSTORE PUSH3 0xCCCCD PUSH1 0xEA SHL SWAP3 DUP6 ADD SWAP3 SWAP1 SWAP3 MSTORE PUSH1 0x60 SWAP4 SWAP1 SWAP2 SWAP1 PUSH1 0x1 PUSH1 0x0 DUP8 SWAP1 SIGNEXTEND EQ DUP1 PUSH2 0x30C1 JUMPI POP DUP6 PUSH1 0x0 SIGNEXTEND PUSH1 0x0 NOT EQ JUMPDEST ISZERO PUSH2 0x32B8 JUMPI DUP6 PUSH1 0x0 SIGNEXTEND PUSH1 0x0 NOT EQ PUSH2 0x30D8 JUMPI DUP2 PUSH2 0x30DA JUMP JUMPDEST DUP4 JUMPDEST DUP7 PUSH1 0x0 SIGNEXTEND PUSH1 0x0 NOT EQ PUSH2 0x30EC JUMPI DUP2 PUSH2 0x30EE JUMP JUMPDEST DUP4 JUMPDEST DUP8 PUSH1 0x0 SIGNEXTEND PUSH1 0x0 NOT EQ PUSH2 0x3100 JUMPI DUP4 PUSH2 0x3102 JUMP JUMPDEST DUP6 JUMPDEST DUP9 PUSH1 0x0 SIGNEXTEND PUSH1 0x0 NOT EQ PUSH2 0x3114 JUMPI DUP4 PUSH2 0x3116 JUMP JUMPDEST DUP6 JUMPDEST PUSH1 0x40 MLOAD PUSH1 0x20 ADD DUP1 DUP1 PUSH12 0x1E31B4B931B6329031BC1E91 PUSH1 0xA1 SHL DUP2 MSTORE POP PUSH1 0xC ADD DUP6 DUP1 MLOAD SWAP1 PUSH1 0x20 ADD SWAP1 DUP1 DUP4 DUP4 JUMPDEST PUSH1 0x20 DUP4 LT PUSH2 0x315F JUMPI DUP1 MLOAD DUP3 MSTORE PUSH1 0x1F NOT SWAP1 SWAP3 ADD SWAP2 PUSH1 0x20 SWAP2 DUP3 ADD SWAP2 ADD PUSH2 0x3140 JUMP JUMPDEST MLOAD DUP2 MLOAD PUSH1 0x20 SWAP4 DUP5 SUB PUSH2 0x100 EXP PUSH1 0x0 NOT ADD DUP1 NOT SWAP1 SWAP3 AND SWAP2 AND OR SWAP1 MSTORE PUSH8 0x383C111031BC9E91 PUSH1 0xC1 SHL SWAP2 SWAP1 SWAP4 ADD SWAP1 DUP2 MSTORE DUP7 MLOAD PUSH1 0x8 SWAP1 SWAP2 ADD SWAP3 DUP8 ADD SWAP2 POP DUP1 DUP4 DUP4 JUMPDEST PUSH1 0x20 DUP4 LT PUSH2 0x31BB JUMPI DUP1 MLOAD DUP3 MSTORE PUSH1 0x1F NOT SWAP1 SWAP3 ADD SWAP2 PUSH1 0x20 SWAP2 DUP3 ADD SWAP2 ADD PUSH2 0x319C JUMP JUMPDEST PUSH1 0x1 DUP4 PUSH1 0x20 SUB PUSH2 0x100 EXP SUB DUP1 NOT DUP3 MLOAD AND DUP2 DUP5 MLOAD AND DUP1 DUP3 OR DUP6 MSTORE POP POP POP POP POP POP SWAP1 POP ADD DUP1 PUSH2 0x4CCC PUSH1 0x27 SWAP2 CODECOPY PUSH1 0x27 ADD DUP4 DUP1 MLOAD SWAP1 PUSH1 0x20 ADD SWAP1 DUP1 DUP4 DUP4 JUMPDEST PUSH1 0x20 DUP4 LT PUSH2 0x3213 JUMPI DUP1 MLOAD DUP3 MSTORE PUSH1 0x1F NOT SWAP1 SWAP3 ADD SWAP2 PUSH1 0x20 SWAP2 DUP3 ADD SWAP2 ADD PUSH2 0x31F4 JUMP JUMPDEST MLOAD DUP2 MLOAD PUSH1 0x20 SWAP4 DUP5 SUB PUSH2 0x100 EXP PUSH1 0x0 NOT ADD DUP1 NOT SWAP1 SWAP3 AND SWAP2 AND OR SWAP1 MSTORE PUSH8 0x383C111031BC9E91 PUSH1 0xC1 SHL SWAP2 SWAP1 SWAP4 ADD SWAP1 DUP2 MSTORE DUP5 MLOAD PUSH1 0x8 SWAP1 SWAP2 ADD SWAP3 DUP6 ADD SWAP2 POP DUP1 DUP4 DUP4 JUMPDEST PUSH1 0x20 DUP4 LT PUSH2 0x326F JUMPI DUP1 MLOAD DUP3 MSTORE PUSH1 0x1F NOT SWAP1 SWAP3 ADD SWAP2 PUSH1 0x20 SWAP2 DUP3 ADD SWAP2 ADD PUSH2 0x3250 JUMP JUMPDEST PUSH1 0x1 DUP4 PUSH1 0x20 SUB PUSH2 0x100 EXP SUB DUP1 NOT DUP3 MLOAD AND DUP2 DUP5 MLOAD AND DUP1 DUP3 OR DUP6 MSTORE POP POP POP POP POP POP SWAP1 POP ADD DUP1 PUSH2 0x4F55 PUSH1 0x2A SWAP2 CODECOPY PUSH1 0x2A ADD SWAP5 POP POP POP POP POP PUSH1 0x40 MLOAD PUSH1 0x20 DUP2 DUP4 SUB SUB DUP2 MSTORE SWAP1 PUSH1 0x40 MSTORE SWAP5 POP PUSH2 0x34A5 JUMP JUMPDEST DUP4 DUP4 DUP4 DUP4 PUSH1 0x40 MLOAD PUSH1 0x20 ADD DUP1 DUP1 PUSH12 0x1E31B4B931B6329031BC1E91 PUSH1 0xA1 SHL DUP2 MSTORE POP PUSH1 0xC ADD DUP6 DUP1 MLOAD SWAP1 PUSH1 0x20 ADD SWAP1 DUP1 DUP4 DUP4 JUMPDEST PUSH1 0x20 DUP4 LT PUSH2 0x3305 JUMPI DUP1 MLOAD DUP3 MSTORE PUSH1 0x1F NOT SWAP1 SWAP3 ADD SWAP2 PUSH1 0x20 SWAP2 DUP3 ADD SWAP2 ADD PUSH2 0x32E6 JUMP JUMPDEST MLOAD DUP2 MLOAD PUSH1 0x20 SWAP4 DUP5 SUB PUSH2 0x100 EXP PUSH1 0x0 NOT ADD DUP1 NOT SWAP1 SWAP3 AND SWAP2 AND OR SWAP1 MSTORE PUSH8 0x383C111031BC9E91 PUSH1 0xC1 SHL SWAP2 SWAP1 SWAP4 ADD SWAP1 DUP2 MSTORE DUP7 MLOAD PUSH1 0x8 SWAP1 SWAP2 ADD SWAP3 DUP8 ADD SWAP2 POP DUP1 DUP4 DUP4 JUMPDEST PUSH1 0x20 DUP4 LT PUSH2 0x3361 JUMPI DUP1 MLOAD DUP3 MSTORE PUSH1 0x1F NOT SWAP1 SWAP3 ADD SWAP2 PUSH1 0x20 SWAP2 DUP3 ADD SWAP2 ADD PUSH2 0x3342 JUMP JUMPDEST MLOAD DUP2 MLOAD PUSH1 0x20 SWAP4 DUP5 SUB PUSH2 0x100 EXP PUSH1 0x0 NOT ADD DUP1 NOT SWAP1 SWAP3 AND SWAP2 AND OR SWAP1 MSTORE PUSH32 0x70782220723D22347078222066696C6C3D22776869746522202F3E0000000000 SWAP2 SWAP1 SWAP4 ADD SWAP1 DUP2 MSTORE PUSH12 0x1E31B4B931B6329031BC1E91 PUSH1 0xA1 SHL PUSH1 0x1B DUP3 ADD MSTORE DUP6 MLOAD PUSH1 0x27 SWAP1 SWAP2 ADD SWAP3 DUP7 ADD SWAP2 POP DUP1 DUP4 DUP4 JUMPDEST PUSH1 0x20 DUP4 LT PUSH2 0x33E7 JUMPI DUP1 MLOAD DUP3 MSTORE PUSH1 0x1F NOT SWAP1 SWAP3 ADD SWAP2 PUSH1 0x20 SWAP2 DUP3 ADD SWAP2 ADD PUSH2 0x33C8 JUMP JUMPDEST MLOAD DUP2 MLOAD PUSH1 0x20 SWAP4 DUP5 SUB PUSH2 0x100 EXP PUSH1 0x0 NOT ADD DUP1 NOT SWAP1 SWAP3 AND SWAP2 AND OR SWAP1 MSTORE PUSH8 0x383C111031BC9E91 PUSH1 0xC1 SHL SWAP2 SWAP1 SWAP4 ADD SWAP1 DUP2 MSTORE DUP5 MLOAD PUSH1 0x8 SWAP1 SWAP2 ADD SWAP3 DUP6 ADD SWAP2 POP DUP1 DUP4 DUP4 JUMPDEST PUSH1 0x20 DUP4 LT PUSH2 0x3443 JUMPI DUP1 MLOAD DUP3 MSTORE PUSH1 0x1F NOT SWAP1 SWAP3 ADD SWAP2 PUSH1 0x20 SWAP2 DUP3 ADD SWAP2 ADD PUSH2 0x3424 JUMP JUMPDEST PUSH1 0x1 DUP4 PUSH1 0x20 SUB PUSH2 0x100 EXP SUB DUP1 NOT DUP3 MLOAD AND DUP2 DUP5 MLOAD AND DUP1 DUP3 OR DUP6 MSTORE POP POP POP POP POP POP SWAP1 POP ADD DUP1 PUSH32 0x70782220723D22347078222066696C6C3D22776869746522202F3E0000000000 DUP2 MSTORE POP PUSH1 0x1B ADD SWAP5 POP POP POP POP POP PUSH1 0x40 MLOAD PUSH1 0x20 DUP2 DUP4 SUB SUB DUP2 MSTORE SWAP1 PUSH1 0x40 MSTORE SWAP5 POP JUMPDEST POP POP POP POP SWAP2 SWAP1 POP JUMP JUMPDEST PUSH1 0x60 PUSH1 0x0 PUSH1 0x40 MLOAD DUP1 PUSH1 0x20 ADD PUSH1 0x40 MSTORE DUP1 PUSH1 0x0 DUP2 MSTORE POP SWAP1 POP PUSH1 0x0 DUP4 PUSH1 0x2 SIGNEXTEND SLT ISZERO PUSH2 0x34F4 JUMPI DUP3 PUSH1 0x0 NOT MUL SWAP3 POP PUSH1 0x40 MLOAD DUP1 PUSH1 0x40 ADD PUSH1 0x40 MSTORE DUP1 PUSH1 0x1 DUP2 MSTORE PUSH1 0x20 ADD PUSH1 0x2D PUSH1 0xF8 SHL DUP2 MSTORE POP SWAP1 POP JUMPDEST DUP1 PUSH2 0x3501 DUP5 PUSH1 0x2 SIGNEXTEND PUSH2 0x625 JUMP JUMPDEST PUSH1 0x40 MLOAD PUSH1 0x20 ADD DUP1 DUP4 DUP1 MLOAD SWAP1 PUSH1 0x20 ADD SWAP1 DUP1 DUP4 DUP4 JUMPDEST PUSH1 0x20 DUP4 LT PUSH2 0x3533 JUMPI DUP1 MLOAD DUP3 MSTORE PUSH1 0x1F NOT SWAP1 SWAP3 ADD SWAP2 PUSH1 0x20 SWAP2 DUP3 ADD SWAP2 ADD PUSH2 0x3514 JUMP JUMPDEST MLOAD DUP2 MLOAD PUSH1 0x20 SWAP4 DUP5 SUB PUSH2 0x100 EXP PUSH1 0x0 NOT ADD DUP1 NOT SWAP1 SWAP3 AND SWAP2 AND OR SWAP1 MSTORE DUP6 MLOAD SWAP2 SWAP1 SWAP4 ADD SWAP3 DUP6 ADD SWAP2 POP DUP1 DUP4 DUP4 JUMPDEST PUSH1 0x20 DUP4 LT PUSH2 0x357B JUMPI DUP1 MLOAD DUP3 MSTORE PUSH1 0x1F NOT SWAP1 SWAP3 ADD SWAP2 PUSH1 0x20 SWAP2 DUP3 ADD SWAP2 ADD PUSH2 0x355C JUMP JUMPDEST PUSH1 0x1 DUP4 PUSH1 0x20 SUB PUSH2 0x100 EXP SUB DUP1 NOT DUP3 MLOAD AND DUP2 DUP5 MLOAD AND DUP1 DUP3 OR DUP6 MSTORE POP POP POP POP POP POP SWAP1 POP ADD SWAP3 POP POP POP PUSH1 0x40 MLOAD PUSH1 0x20 DUP2 DUP4 SUB SUB DUP2 MSTORE SWAP1 PUSH1 0x40 MSTORE SWAP2 POP POP SWAP2 SWAP1 POP JUMP JUMPDEST PUSH1 0x60 DUP1 PUSH1 0x0 PUSH1 0x2 DUP6 DUP6 ADD DUP2 SIGNEXTEND SDIV SWAP1 POP PUSH3 0x1E847 NOT DUP2 PUSH1 0x2 SIGNEXTEND SLT ISZERO PUSH2 0x3614 JUMPI PUSH1 0x40 MLOAD DUP1 PUSH1 0x40 ADD PUSH1 0x40 MSTORE DUP1 PUSH1 0x1 DUP2 MSTORE PUSH1 0x20 ADD PUSH1 0x7 PUSH1 0xFB SHL DUP2 MSTORE POP PUSH1 0x40 MLOAD DUP1 PUSH1 0x40 ADD PUSH1 0x40 MSTORE DUP1 PUSH1 0x1 DUP2 MSTORE PUSH1 0x20 ADD PUSH1 0x37 PUSH1 0xF8 SHL DUP2 MSTORE POP SWAP3 POP SWAP3 POP POP PUSH2 0x2DEE JUMP JUMPDEST PUSH3 0x124F7 NOT DUP2 PUSH1 0x2 SIGNEXTEND SLT ISZERO PUSH2 0x3664 JUMPI PUSH1 0x40 MLOAD DUP1 PUSH1 0x40 ADD PUSH1 0x40 MSTORE DUP1 PUSH1 0x1 DUP2 MSTORE PUSH1 0x20 ADD PUSH1 0x7 PUSH1 0xFB SHL DUP2 MSTORE POP PUSH1 0x40 MLOAD DUP1 PUSH1 0x40 ADD PUSH1 0x40 MSTORE DUP1 PUSH1 0x4 DUP2 MSTORE PUSH1 0x20 ADD PUSH4 0x31302E35 PUSH1 0xE0 SHL DUP2 MSTORE POP SWAP3 POP SWAP3 POP POP PUSH2 0x2DEE JUMP JUMPDEST PUSH2 0x61A7 NOT DUP2 PUSH1 0x2 SIGNEXTEND SLT ISZERO PUSH2 0x36B4 JUMPI PUSH1 0x40 MLOAD DUP1 PUSH1 0x40 ADD PUSH1 0x40 MSTORE DUP1 PUSH1 0x1 DUP2 MSTORE PUSH1 0x20 ADD PUSH1 0x7 PUSH1 0xFB SHL DUP2 MSTORE POP PUSH1 0x40 MLOAD DUP1 PUSH1 0x40 ADD PUSH1 0x40 MSTORE DUP1 PUSH1 0x5 DUP2 MSTORE PUSH1 0x20 ADD PUSH5 0x31342E3235 PUSH1 0xD8 SHL DUP2 MSTORE POP SWAP3 POP SWAP3 POP POP PUSH2 0x2DEE JUMP JUMPDEST PUSH2 0x1387 NOT DUP2 PUSH1 0x2 SIGNEXTEND SLT ISZERO PUSH2 0x3702 JUMPI PUSH1 0x40 MLOAD DUP1 PUSH1 0x40 ADD PUSH1 0x40 MSTORE DUP1 PUSH1 0x2 DUP2 MSTORE PUSH1 0x20 ADD PUSH2 0x313 PUSH1 0xF4 SHL DUP2 MSTORE POP PUSH1 0x40 MLOAD DUP1 PUSH1 0x40 ADD PUSH1 0x40 MSTORE DUP1 PUSH1 0x2 DUP2 MSTORE PUSH1 0x20 ADD PUSH2 0x627 PUSH1 0xF3 SHL DUP2 MSTORE POP SWAP3 POP SWAP3 POP POP PUSH2 0x2DEE JUMP JUMPDEST PUSH1 0x0 DUP2 PUSH1 0x2 SIGNEXTEND SLT ISZERO PUSH2 0x374E JUMPI PUSH1 0x40 MLOAD DUP1 PUSH1 0x40 ADD PUSH1 0x40 MSTORE DUP1 PUSH1 0x2 DUP2 MSTORE PUSH1 0x20 ADD PUSH2 0x3131 PUSH1 0xF0 SHL DUP2 MSTORE POP PUSH1 0x40 MLOAD DUP1 PUSH1 0x40 ADD PUSH1 0x40 MSTORE DUP1 PUSH1 0x2 DUP2 MSTORE PUSH1 0x20 ADD PUSH2 0x3231 PUSH1 0xF0 SHL DUP2 MSTORE POP SWAP3 POP SWAP3 POP POP PUSH2 0x2DEE JUMP JUMPDEST PUSH2 0x1388 DUP2 PUSH1 0x2 SIGNEXTEND SLT ISZERO PUSH2 0x379B JUMPI PUSH1 0x40 MLOAD DUP1 PUSH1 0x40 ADD PUSH1 0x40 MSTORE DUP1 PUSH1 0x2 DUP2 MSTORE PUSH1 0x20 ADD PUSH2 0x3133 PUSH1 0xF0 SHL DUP2 MSTORE POP PUSH1 0x40 MLOAD DUP1 PUSH1 0x40 ADD PUSH1 0x40 MSTORE DUP1 PUSH1 0x2 DUP2 MSTORE PUSH1 0x20 ADD PUSH2 0x3233 PUSH1 0xF0 SHL DUP2 MSTORE POP SWAP3 POP SWAP3 POP POP PUSH2 0x2DEE JUMP JUMPDEST PUSH2 0x61A8 DUP2 PUSH1 0x2 SIGNEXTEND SLT ISZERO PUSH2 0x37E8 JUMPI PUSH1 0x40 MLOAD DUP1 PUSH1 0x40 ADD PUSH1 0x40 MSTORE DUP1 PUSH1 0x2 DUP2 MSTORE PUSH1 0x20 ADD PUSH2 0x3135 PUSH1 0xF0 SHL DUP2 MSTORE POP PUSH1 0x40 MLOAD DUP1 PUSH1 0x40 ADD PUSH1 0x40 MSTORE DUP1 PUSH1 0x2 DUP2 MSTORE PUSH1 0x20 ADD PUSH2 0x3235 PUSH1 0xF0 SHL DUP2 MSTORE POP SWAP3 POP SWAP3 POP POP PUSH2 0x2DEE JUMP JUMPDEST PUSH3 0x124F8 DUP2 PUSH1 0x2 SIGNEXTEND SLT ISZERO PUSH2 0x3836 JUMPI PUSH1 0x40 MLOAD DUP1 PUSH1 0x40 ADD PUSH1 0x40 MSTORE DUP1 PUSH1 0x2 DUP2 MSTORE PUSH1 0x20 ADD PUSH2 0x627 PUSH1 0xF3 SHL DUP2 MSTORE POP PUSH1 0x40 MLOAD DUP1 PUSH1 0x40 ADD PUSH1 0x40 MSTORE DUP1 PUSH1 0x2 DUP2 MSTORE PUSH1 0x20 ADD PUSH2 0x191B PUSH1 0xF1 SHL DUP2 MSTORE POP SWAP3 POP SWAP3 POP POP PUSH2 0x2DEE JUMP JUMPDEST PUSH3 0x1E848 DUP2 PUSH1 0x2 SIGNEXTEND SLT ISZERO PUSH2 0x3884 JUMPI PUSH1 0x40 MLOAD DUP1 PUSH1 0x40 ADD PUSH1 0x40 MSTORE DUP1 PUSH1 0x2 DUP2 MSTORE PUSH1 0x20 ADD PUSH2 0x3231 PUSH1 0xF0 SHL DUP2 MSTORE POP PUSH1 0x40 MLOAD DUP1 PUSH1 0x40 ADD PUSH1 0x40 MSTORE DUP1 PUSH1 0x2 DUP2 MSTORE PUSH1 0x20 ADD PUSH2 0x3237 PUSH1 0xF0 SHL DUP2 MSTORE POP SWAP3 POP SWAP3 POP POP PUSH2 0x2DEE JUMP JUMPDEST PUSH1 0x40 MLOAD DUP1 PUSH1 0x40 ADD PUSH1 0x40 MSTORE DUP1 PUSH1 0x2 DUP2 MSTORE PUSH1 0x20 ADD PUSH2 0xC8D PUSH1 0xF2 SHL DUP2 MSTORE POP PUSH1 0x40 MLOAD DUP1 PUSH1 0x40 ADD PUSH1 0x40 MSTORE DUP1 PUSH1 0x2 DUP2 MSTORE PUSH1 0x20 ADD PUSH2 0x3237 PUSH1 0xF0 SHL DUP2 MSTORE POP SWAP3 POP SWAP3 POP POP PUSH2 0x2DEE JUMP JUMPDEST PUSH1 0x40 DUP1 MLOAD PUSH1 0x20 DUP1 DUP3 ADD DUP6 SWAP1 MSTORE PUSH12 0xFFFFFFFFFFFFFFFFFFFFFFFF NOT PUSH1 0x60 DUP6 SWAP1 SHL AND DUP3 DUP5 ADD MSTORE DUP3 MLOAD PUSH1 0x34 DUP2 DUP5 SUB ADD DUP2 MSTORE PUSH1 0x54 SWAP1 SWAP3 ADD SWAP1 SWAP3 MSTORE DUP1 MLOAD SWAP2 ADD KECCAK256 PUSH1 0x0 SWAP1 PUSH2 0x390B DUP5 PUSH2 0x39A3 JUMP JUMPDEST PUSH1 0x2 MUL PUSH1 0x1 ADD PUSH1 0xFF AND PUSH1 0x0 NOT DUP2 PUSH2 0x391E JUMPI INVALID JUMPDEST DIV GT SWAP4 SWAP3 POP POP POP JUMP JUMPDEST PUSH1 0x0 DUP2 DUP4 SUB DUP2 DUP4 SLT DUP1 ISZERO SWAP1 PUSH2 0x393C JUMPI POP DUP4 DUP2 SGT ISZERO JUMPDEST DUP1 PUSH2 0x3951 JUMPI POP PUSH1 0x0 DUP4 SLT DUP1 ISZERO PUSH2 0x3951 JUMPI POP DUP4 DUP2 SGT JUMPDEST PUSH2 0x61E JUMPI PUSH1 0x40 MLOAD PUSH3 0x461BCD PUSH1 0xE5 SHL DUP2 MSTORE PUSH1 0x4 ADD DUP1 DUP1 PUSH1 0x20 ADD DUP3 DUP2 SUB DUP3 MSTORE PUSH1 0x24 DUP2 MSTORE PUSH1 0x20 ADD DUP1 PUSH2 0x58AB PUSH1 0x24 SWAP2 CODECOPY PUSH1 0x40 ADD SWAP2 POP POP PUSH1 0x40 MLOAD DUP1 SWAP2 SUB SWAP1 REVERT JUMPDEST PUSH1 0x0 DUP1 DUP3 SLT ISZERO PUSH2 0x399F JUMPI DUP2 PUSH1 0x0 SUB PUSH2 0x46B JUMP JUMPDEST POP SWAP1 JUMP JUMPDEST PUSH1 0x0 DUP1 DUP3 GT PUSH2 0x39B1 JUMPI PUSH1 0x0 DUP1 REVERT JUMPDEST PUSH1 0x1 PUSH1 0x80 SHL DUP3 LT PUSH2 0x39C4 JUMPI PUSH1 0x80 SWAP2 DUP3 SHR SWAP2 ADD JUMPDEST PUSH1 0x1 PUSH1 0x40 SHL DUP3 LT PUSH2 0x39D7 JUMPI PUSH1 0x40 SWAP2 DUP3 SHR SWAP2 ADD JUMPDEST PUSH5 0x100000000 DUP3 LT PUSH2 0x39EB JUMPI PUSH1 0x20 SWAP2 DUP3 SHR SWAP2 ADD JUMPDEST PUSH3 0x10000 DUP3 LT PUSH2 0x39FD JUMPI PUSH1 0x10 SWAP2 DUP3 SHR SWAP2 ADD JUMPDEST PUSH2 0x100 DUP3 LT PUSH2 0x3A0E JUMPI PUSH1 0x8 SWAP2 DUP3 SHR SWAP2 ADD JUMPDEST PUSH1 0x10 DUP3 LT PUSH2 0x3A1E JUMPI PUSH1 0x4 SWAP2 DUP3 SHR SWAP2 ADD JUMPDEST PUSH1 0x4 DUP3 LT PUSH2 0x3A2E JUMPI PUSH1 0x2 SWAP2 DUP3 SHR SWAP2 ADD JUMPDEST PUSH1 0x2 DUP3 LT PUSH2 0x16B JUMPI PUSH1 0x1 ADD SWAP2 SWAP1 POP JUMP JUMPDEST PUSH1 0x40 DUP1 MLOAD PUSH2 0x100 DUP2 ADD DUP3 MSTORE PUSH1 0x0 DUP1 DUP3 MSTORE PUSH1 0x20 DUP3 ADD DUP2 SWAP1 MSTORE SWAP2 DUP2 ADD DUP3 SWAP1 MSTORE PUSH1 0x60 DUP2 ADD DUP3 SWAP1 MSTORE PUSH1 0x80 DUP2 ADD DUP3 SWAP1 MSTORE PUSH1 0xA0 DUP2 ADD DUP3 SWAP1 MSTORE PUSH1 0xC0 DUP2 ADD DUP3 SWAP1 MSTORE PUSH1 0xE0 DUP2 ADD SWAP2 SWAP1 SWAP2 MSTORE SWAP1 JUMP JUMPDEST DUP1 CALLDATALOAD PUSH1 0x1 PUSH1 0x1 PUSH1 0xA0 SHL SUB DUP2 AND DUP2 EQ PUSH2 0x16B JUMPI PUSH1 0x0 DUP1 REVERT JUMPDEST DUP1 CALLDATALOAD DUP1 ISZERO ISZERO DUP2 EQ PUSH2 0x16B JUMPI PUSH1 0x0 DUP1 REVERT JUMPDEST DUP1 CALLDATALOAD PUSH1 0x2 DUP2 SWAP1 SIGNEXTEND DUP2 EQ PUSH2 0x16B JUMPI PUSH1 0x0 DUP1 REVERT JUMPDEST PUSH1 0x0 DUP3 PUSH1 0x1F DUP4 ADD SLT PUSH2 0x3ACB JUMPI DUP1 DUP2 REVERT JUMPDEST DUP2 CALLDATALOAD PUSH8 0xFFFFFFFFFFFFFFFF DUP2 GT ISZERO PUSH2 0x3ADF JUMPI INVALID JUMPDEST PUSH2 0x3AF2 PUSH1 0x1F DUP3 ADD PUSH1 0x1F NOT AND PUSH1 0x20 ADD PUSH2 0x41B7 JUMP JUMPDEST DUP2 DUP2 MSTORE DUP5 PUSH1 0x20 DUP4 DUP7 ADD ADD GT ISZERO PUSH2 0x3B06 JUMPI DUP3 DUP4 REVERT JUMPDEST DUP2 PUSH1 0x20 DUP6 ADD PUSH1 0x20 DUP4 ADD CALLDATACOPY SWAP1 DUP2 ADD PUSH1 0x20 ADD SWAP2 SWAP1 SWAP2 MSTORE SWAP3 SWAP2 POP POP JUMP JUMPDEST DUP1 CALLDATALOAD PUSH3 0xFFFFFF DUP2 AND DUP2 EQ PUSH2 0x16B JUMPI PUSH1 0x0 DUP1 REVERT JUMPDEST DUP1 CALLDATALOAD PUSH1 0xFF DUP2 AND DUP2 EQ PUSH2 0x16B JUMPI PUSH1 0x0 DUP1 REVERT JUMPDEST PUSH1 0x0 PUSH1 0x20 DUP3 DUP5 SUB SLT ISZERO PUSH2 0x3B55 JUMPI DUP1 DUP2 REVERT JUMPDEST DUP2 CALLDATALOAD PUSH8 0xFFFFFFFFFFFFFFFF DUP1 DUP3 GT ISZERO PUSH2 0x3B6C JUMPI DUP3 DUP4 REVERT JUMPDEST DUP2 DUP5 ADD SWAP2 POP PUSH2 0x1C0 DUP1 DUP4 DUP8 SUB SLT ISZERO PUSH2 0x3B82 JUMPI DUP4 DUP5 REVERT JUMPDEST PUSH2 0x3B8B DUP2 PUSH2 0x41B7 JUMP JUMPDEST SWAP1 POP DUP3 CALLDATALOAD DUP2 MSTORE PUSH2 0x3B9D PUSH1 0x20 DUP5 ADD PUSH2 0x3A82 JUMP JUMPDEST PUSH1 0x20 DUP3 ADD MSTORE PUSH2 0x3BAE PUSH1 0x40 DUP5 ADD PUSH2 0x3A82 JUMP JUMPDEST PUSH1 0x40 DUP3 ADD MSTORE PUSH1 0x60 DUP4 ADD CALLDATALOAD DUP3 DUP2 GT ISZERO PUSH2 0x3BC4 JUMPI DUP5 DUP6 REVERT JUMPDEST PUSH2 0x3BD0 DUP8 DUP3 DUP7 ADD PUSH2 0x3ABB JUMP JUMPDEST PUSH1 0x60 DUP4 ADD MSTORE POP PUSH1 0x80 DUP4 ADD CALLDATALOAD DUP3 DUP2 GT ISZERO PUSH2 0x3BE7 JUMPI DUP5 DUP6 REVERT JUMPDEST PUSH2 0x3BF3 DUP8 DUP3 DUP7 ADD PUSH2 0x3ABB JUMP JUMPDEST PUSH1 0x80 DUP4 ADD MSTORE POP PUSH2 0x3C05 PUSH1 0xA0 DUP5 ADD PUSH2 0x3B33 JUMP JUMPDEST PUSH1 0xA0 DUP3 ADD MSTORE PUSH2 0x3C16 PUSH1 0xC0 DUP5 ADD PUSH2 0x3B33 JUMP JUMPDEST PUSH1 0xC0 DUP3 ADD MSTORE PUSH2 0x3C27 PUSH1 0xE0 DUP5 ADD PUSH2 0x3A99 JUMP JUMPDEST PUSH1 0xE0 DUP3 ADD MSTORE PUSH2 0x100 SWAP2 POP PUSH2 0x3C3C DUP3 DUP5 ADD PUSH2 0x3AA9 JUMP JUMPDEST DUP3 DUP3 ADD MSTORE PUSH2 0x120 SWAP2 POP PUSH2 0x3C50 DUP3 DUP5 ADD PUSH2 0x3AA9 JUMP JUMPDEST DUP3 DUP3 ADD MSTORE PUSH2 0x140 SWAP2 POP PUSH2 0x3C64 DUP3 DUP5 ADD PUSH2 0x3AA9 JUMP JUMPDEST DUP3 DUP3 ADD MSTORE PUSH2 0x160 SWAP2 POP PUSH2 0x3C78 DUP3 DUP5 ADD PUSH2 0x3AA9 JUMP JUMPDEST DUP3 DUP3 ADD MSTORE PUSH2 0x180 SWAP2 POP PUSH2 0x3C8C DUP3 DUP5 ADD PUSH2 0x3B20 JUMP JUMPDEST DUP3 DUP3 ADD MSTORE PUSH2 0x1A0 SWAP2 POP PUSH2 0x3CA0 DUP3 DUP5 ADD PUSH2 0x3A82 JUMP JUMPDEST SWAP2 DUP2 ADD SWAP2 SWAP1 SWAP2 MSTORE SWAP5 SWAP4 POP POP POP POP JUMP JUMPDEST PUSH1 0x0 DUP2 MLOAD PUSH2 0x3CC1 DUP2 DUP6 PUSH1 0x20 DUP7 ADD PUSH2 0x41DB JUMP JUMPDEST SWAP3 SWAP1 SWAP3 ADD SWAP3 SWAP2 POP POP JUMP JUMPDEST PUSH32 0xE29AA0EFB88F20444953434C41494D45523A204475652064696C6967656E6365 DUP2 MSTORE PUSH32 0x20697320696D7065726174697665207768656E20617373657373696E67207468 PUSH1 0x20 DUP3 ADD MSTORE PUSH32 0x6973204E46542E204D616B65207375726520746F6B656E206164647265737365 PUSH1 0x40 DUP3 ADD MSTORE PUSH32 0x73206D617463682074686520657870656374656420746F6B656E732C20617320 PUSH1 0x60 DUP3 ADD MSTORE PUSH32 0x746F6B656E2073796D626F6C73206D617920626520696D6974617465642E0000 PUSH1 0x80 DUP3 ADD MSTORE PUSH1 0x9E ADD SWAP1 JUMP JUMPDEST PUSH4 0x2E372E37 PUSH1 0xE1 SHL DUP2 MSTORE PUSH1 0x4 ADD SWAP1 JUMP JUMPDEST PUSH1 0x0 PUSH32 0x54686973204E465420726570726573656E74732061206C697175696469747920 DUP3 MSTORE PUSH32 0x706F736974696F6E20696E206120556E69737761702056332000000000000000 PUSH1 0x20 DUP4 ADD MSTORE DUP6 MLOAD PUSH2 0x3DFA DUP2 PUSH1 0x39 DUP6 ADD PUSH1 0x20 DUP11 ADD PUSH2 0x41DB JUMP JUMPDEST PUSH1 0x2D PUSH1 0xF8 SHL PUSH1 0x39 SWAP2 DUP5 ADD SWAP2 DUP3 ADD MSTORE DUP6 MLOAD PUSH2 0x3E1B DUP2 PUSH1 0x3A DUP5 ADD PUSH1 0x20 DUP11 ADD PUSH2 0x41DB JUMP JUMPDEST PUSH7 0x103837B7B6171 PUSH1 0xCD SHL PUSH1 0x3A SWAP3 SWAP1 SWAP2 ADD SWAP2 DUP3 ADD MSTORE PUSH32 0x546865206F776E6572206F662074686973204E46542063616E206D6F64696679 PUSH1 0x41 DUP3 ADD MSTORE PUSH32 0x206F722072656465656D2074686520706F736974696F6E2E5C6E000000000000 PUSH1 0x61 DUP3 ADD MSTORE PUSH16 0x2E372837B7B61020B2323932B9B99D1 PUSH1 0x85 SHL PUSH1 0x7B DUP3 ADD MSTORE DUP5 MLOAD PUSH2 0x3EA8 DUP2 PUSH1 0x8B DUP5 ADD PUSH1 0x20 DUP10 ADD PUSH2 0x41DB JUMP JUMPDEST PUSH2 0x2E37 PUSH1 0xF1 SHL PUSH1 0x8B SWAP3 SWAP1 SWAP2 ADD SWAP2 DUP3 ADD MSTORE PUSH2 0x3AB PUSH1 0x8D DUP3 ADD DUP6 PUSH2 0x3CAF JUMP JUMPDEST PUSH9 0x3D913730B6B2911D11 PUSH1 0xB9 SHL DUP2 MSTORE DUP5 MLOAD PUSH1 0x0 SWAP1 PUSH2 0x3EEA DUP2 PUSH1 0x9 DUP6 ADD PUSH1 0x20 DUP11 ADD PUSH2 0x41DB JUMP JUMPDEST PUSH18 0x111610113232B9B1B934B83A34B7B7111D11 PUSH1 0x71 SHL PUSH1 0x9 SWAP2 DUP5 ADD SWAP2 DUP3 ADD MSTORE DUP6 MLOAD PUSH2 0x3F1C DUP2 PUSH1 0x1B DUP5 ADD PUSH1 0x20 DUP11 ADD PUSH2 0x41DB JUMP JUMPDEST DUP6 MLOAD SWAP2 ADD SWAP1 PUSH2 0x3F32 DUP2 PUSH1 0x1B DUP5 ADD PUSH1 0x20 DUP10 ADD PUSH2 0x41DB JUMP JUMPDEST PUSH13 0x1116101134B6B0B3B2911D1011 PUSH1 0x99 SHL PUSH1 0x1B SWAP3 SWAP1 SWAP2 ADD SWAP2 DUP3 ADD MSTORE PUSH32 0x646174613A696D6167652F7376672B786D6C3B6261736536342C000000000000 PUSH1 0x28 DUP3 ADD MSTORE DUP4 MLOAD PUSH2 0x3F86 DUP2 PUSH1 0x42 DUP5 ADD PUSH1 0x20 DUP9 ADD PUSH2 0x41DB JUMP JUMPDEST PUSH2 0x227D PUSH1 0xF0 SHL PUSH1 0x42 SWAP3 SWAP1 SWAP2 ADD SWAP2 DUP3 ADD MSTORE PUSH1 0x44 ADD SWAP7 SWAP6 POP POP POP POP POP POP JUMP JUMPDEST PUSH1 0x0 PUSH10 0x2AB734B9BBB0B810169 PUSH1 0xB5 SHL DUP3 MSTORE DUP7 MLOAD PUSH2 0x3FC8 DUP2 PUSH1 0xA DUP6 ADD PUSH1 0x20 DUP12 ADD PUSH2 0x41DB JUMP JUMPDEST DUP1 DUP4 ADD SWAP1 POP PUSH3 0x10169 PUSH1 0xED SHL DUP1 PUSH1 0xA DUP4 ADD MSTORE DUP8 MLOAD PUSH2 0x3FED DUP2 PUSH1 0xD DUP6 ADD PUSH1 0x20 DUP13 ADD PUSH2 0x41DB JUMP JUMPDEST PUSH1 0x2F PUSH1 0xF8 SHL PUSH1 0xD SWAP4 SWAP1 SWAP2 ADD SWAP3 DUP4 ADD MSTORE DUP7 MLOAD PUSH2 0x400F DUP2 PUSH1 0xE DUP6 ADD PUSH1 0x20 DUP12 ADD PUSH2 0x41DB JUMP JUMPDEST PUSH1 0xE SWAP3 ADD SWAP2 DUP3 ADD MSTORE DUP5 MLOAD PUSH2 0x402A DUP2 PUSH1 0x11 DUP5 ADD PUSH1 0x20 DUP10 ADD PUSH2 0x41DB JUMP JUMPDEST PUSH2 0x1E1F PUSH1 0xF1 SHL PUSH1 0x11 SWAP3 SWAP1 SWAP2 ADD SWAP2 DUP3 ADD MSTORE DUP4 MLOAD PUSH2 0x404D DUP2 PUSH1 0x13 DUP5 ADD PUSH1 0x20 DUP9 ADD PUSH2 0x41DB JUMP JUMPDEST ADD PUSH1 0x13 ADD SWAP8 SWAP7 POP POP POP POP POP POP POP JUMP JUMPDEST PUSH1 0x0 PUSH10 0x1020B2323932B9B99D1 PUSH1 0xB5 SHL DUP1 DUP4 MSTORE DUP8 MLOAD PUSH2 0x4082 DUP2 PUSH1 0xA DUP7 ADD PUSH1 0x20 DUP13 ADD PUSH2 0x41DB JUMP JUMPDEST PUSH2 0x2E37 PUSH1 0xF1 SHL PUSH1 0xA SWAP2 DUP6 ADD SWAP2 DUP3 ADD MSTORE DUP8 MLOAD PUSH2 0x40A4 DUP2 PUSH1 0xC DUP5 ADD PUSH1 0x20 DUP13 ADD PUSH2 0x41DB JUMP JUMPDEST ADD PUSH1 0xC DUP2 ADD SWAP2 SWAP1 SWAP2 MSTORE DUP6 MLOAD SWAP1 PUSH2 0x40C1 DUP3 PUSH1 0x16 DUP4 ADD PUSH1 0x20 DUP11 ADD PUSH2 0x41DB JUMP JUMPDEST DUP2 DUP2 ADD SWAP2 POP POP PUSH12 0x2E372332B2902A34B2B91D1 PUSH1 0xA5 SHL PUSH1 0x16 DUP3 ADD MSTORE DUP5 MLOAD PUSH2 0x40EF DUP2 PUSH1 0x22 DUP5 ADD PUSH1 0x20 DUP10 ADD PUSH2 0x41DB JUMP JUMPDEST PUSH12 0x2E372A37B5B2B71024A21D1 PUSH1 0xA5 SHL PUSH1 0x22 SWAP3 SWAP1 SWAP2 ADD SWAP2 DUP3 ADD MSTORE DUP4 MLOAD PUSH2 0x411C DUP2 PUSH1 0x2E DUP5 ADD PUSH1 0x20 DUP9 ADD PUSH2 0x41DB JUMP JUMPDEST PUSH2 0x4132 PUSH2 0x412D PUSH1 0x2E DUP4 DUP6 ADD ADD PUSH2 0x3D8C JUMP JUMPDEST PUSH2 0x3CCB JUMP JUMPDEST SWAP10 SWAP9 POP POP POP POP POP POP POP POP POP JUMP JUMPDEST PUSH1 0x0 PUSH32 0x646174613A6170706C69636174696F6E2F6A736F6E3B6261736536342C000000 DUP3 MSTORE DUP3 MLOAD PUSH2 0x4177 DUP2 PUSH1 0x1D DUP6 ADD PUSH1 0x20 DUP8 ADD PUSH2 0x41DB JUMP JUMPDEST SWAP2 SWAP1 SWAP2 ADD PUSH1 0x1D ADD SWAP3 SWAP2 POP POP JUMP JUMPDEST PUSH1 0x0 PUSH1 0x20 DUP3 MSTORE DUP3 MLOAD DUP1 PUSH1 0x20 DUP5 ADD MSTORE PUSH2 0x41A3 DUP2 PUSH1 0x40 DUP6 ADD PUSH1 0x20 DUP8 ADD PUSH2 0x41DB JUMP JUMPDEST PUSH1 0x1F ADD PUSH1 0x1F NOT AND SWAP2 SWAP1 SWAP2 ADD PUSH1 0x40 ADD SWAP3 SWAP2 POP POP JUMP JUMPDEST PUSH1 0x40 MLOAD DUP2 DUP2 ADD PUSH8 0xFFFFFFFFFFFFFFFF DUP2 GT DUP3 DUP3 LT OR ISZERO PUSH2 0x41D3 JUMPI INVALID JUMPDEST PUSH1 0x40 MSTORE SWAP2 SWAP1 POP JUMP JUMPDEST PUSH1 0x0 JUMPDEST DUP4 DUP2 LT ISZERO PUSH2 0x41F6 JUMPI DUP2 DUP2 ADD MLOAD DUP4 DUP3 ADD MSTORE PUSH1 0x20 ADD PUSH2 0x41DE JUMP JUMPDEST DUP4 DUP2 GT ISZERO PUSH2 0x4205 JUMPI PUSH1 0x0 DUP5 DUP5 ADD MSTORE JUMPDEST POP POP POP POP JUMP INVALID KECCAK256 EXTCODECOPY PUSH2 0x6E69 PUSH14 0x6174652061646469746976653D22 PUSH20 0x756D22206174747269627574654E616D653D2273 PUSH21 0x6172744F6666736574222066726F6D3D2230252220 PUSH21 0x6F3D22313030252220626567696E3D223073222064 PUSH22 0x723D223330732220726570656174436F756E743D2269 PUSH15 0x646566696E69746522202F3E3C2F74 PUSH6 0x787450617468 RETURNDATACOPY EXTCODECOPY 0x2F PUSH21 0x6578743E3C73746F70206F66667365743D222E3922 KECCAK256 PUSH20 0x746F702D636F6C6F723D22776869746522207374 PUSH16 0x702D6F7061636974793D223022202F3E EXTCODECOPY 0x2F PUSH13 0x696E6561724772616469656E74 RETURNDATACOPY EXTCODECOPY PUSH19 0x656374207374796C653D2266696C7465723A20 PUSH22 0x726C28236631292220783D223070782220793D223070 PUSH25 0x222077696474683D22323930707822206865696768743D2235 ADDRESS ADDRESS PUSH17 0x7822202F3E3C6665496D61676520726573 PUSH22 0x6C743D2270332220786C696E6B3A687265663D226461 PUSH21 0x613A696D6167652F7376672B786D6C3B6261736536 CALLVALUE 0x2C EXTCODECOPY PUSH8 0x206D61736B3D2275 PUSH19 0x6C2823666164652D73796D626F6C29223E3C72 PUSH6 0x63742066696C PUSH13 0x3D226E6F6E652220783D223070 PUSH25 0x2220793D22307078222077696474683D223239307078222068 PUSH6 0x696768743D22 ORIGIN ADDRESS ADDRESS PUSH17 0x7822202F3E203C7465787420793D223730 PUSH17 0x782220783D2233327078222066696C6C3D 0x22 PUSH24 0x686974652220666F6E742D66616D696C793D2227436F7572 PUSH10 0x6572204E6577272C206D PUSH16 0x6E6F73706163652220666F6E742D7765 PUSH10 0x6768743D223230302220 PUSH7 0x6F6E742D73697A PUSH6 0x3D2233367078 0x22 RETURNDATACOPY EXTCODECOPY PUSH20 0x76672077696474683D2232393022206865696768 PUSH21 0x3D22353030222076696577426F783D223020302032 CODECOPY ADDRESS KECCAK256 CALLDATALOAD ADDRESS ADDRESS 0x22 KECCAK256 PUSH25 0x6D6C6E733D22687474703A2F2F7777772E77332E6F72672F32 ADDRESS ADDRESS ADDRESS 0x2F PUSH20 0x76672270782C2030707829222063783D22307078 0x22 KECCAK256 PUSH4 0x793D2230 PUSH17 0x782220723D22347078222066696C6C3D22 PUSH24 0x68697465222F3E3C2F673E203C616E696D61746520616464 PUSH10 0x746976653D2273756D22 KECCAK256 PUSH2 0x7474 PUSH19 0x69627574654E616D653D2273746172744F6666 PUSH20 0x6574222066726F6D3D2230252220746F3D223130 ADDRESS 0x25 0x22 KECCAK256 PUSH3 0x656769 PUSH15 0x3D22307322206475723D2233307322 KECCAK256 PUSH19 0x6570656174436F756E743D22696E646566696E PUSH10 0x746522202F3E203C2F74 PUSH6 0x787450617468 RETURNDATACOPY EXTCODECOPY PUSH14 0x61736B2069643D22666164652D75 PUSH17 0x22206D61736B436F6E74656E74556E6974 PUSH20 0x3D226F626A656374426F756E64696E67426F7822 RETURNDATACOPY EXTCODECOPY PUSH19 0x6563742077696474683D223122206865696768 PUSH21 0x3D2231222066696C6C3D2275726C2823677261642D PUSH22 0x702922202F3E3C2F6D61736B3E22207374726F6B653D 0x22 PUSH19 0x67626128302C302C302C302E33292220737472 PUSH16 0x6B652D77696474683D22333270782220 PUSH7 0x696C6C3D226E6F PUSH15 0x6522207374726F6B652D6C696E6563 PUSH2 0x703D 0x22 PUSH19 0x6F756E6422202F3E203C616E696D6174652061 PUSH5 0x6469746976 PUSH6 0x3D2273756D22 KECCAK256 PUSH2 0x7474 PUSH19 0x69627574654E616D653D2273746172744F6666 PUSH20 0x6574222066726F6D3D2230252220746F3D223130 ADDRESS 0x25 0x22 KECCAK256 PUSH3 0x656769 PUSH15 0x3D22307322206475723D2233307322 KECCAK256 EXTCODECOPY PUSH8 0x207374796C653D22 PUSH21 0x72616E73666F726D3A7472616E736C617465283239 PUSH17 0x782C20343434707829223E3C636972636C PUSH6 0x207374796C65 RETURNDATASIZE 0x22 PUSH21 0x72616E73666F726D3A7472616E736C617465336428 EXTCODECOPY PUSH20 0x76672077696474683D2732393027206865696768 PUSH21 0x3D27353030272076696577426F783D273020302032 CODECOPY ADDRESS KECCAK256 CALLDATALOAD ADDRESS ADDRESS 0x27 KECCAK256 PUSH25 0x6D6C6E733D27687474703A2F2F7777772E77332E6F72672F32 ADDRESS ADDRESS ADDRESS 0x2F PUSH20 0x7667273E3C636972636C652063783D27203C6720 PUSH20 0x74796C653D2266696C7465723A75726C2823746F PUSH17 0x2D726567696F6E2D626C7572293B207472 PUSH2 0x6E73 PUSH7 0x6F726D3A736361 PUSH13 0x6528312E35293B207472616E73 PUSH7 0x6F726D2D6F7269 PUSH8 0x696E3A63656E7465 PUSH19 0x20746F703B223E22202F3E3C6665426C656E64 KECCAK256 PUSH14 0x6F64653D226F7665726C61792220 PUSH10 0x6E3D2270302220696E32 RETURNDATASIZE 0x22 PUSH17 0x3122202F3E3C6665426C656E64206D6F64 PUSH6 0x3D226578636C PUSH22 0x73696F6E2220696E323D22703222202F3E3C6665426C PUSH6 0x6E64206D6F64 PUSH6 0x3D226F766572 PUSH13 0x61792220696E323D2270332220 PUSH19 0x6573756C743D22626C656E644F757422202F3E EXTCODECOPY PUSH7 0x65476175737369 PUSH2 0x6E42 PUSH13 0x7572203C706174682069643D22 PUSH14 0x696E696D61702220643D224D3233 CALLVALUE KECCAK256 CALLVALUE CALLVALUE CALLVALUE NUMBER ORIGIN CALLER CALLVALUE KECCAK256 CALLVALUE CALLDATALOAD CALLDATACOPY 0x2E CODECOPY CALLVALUE CODECOPY KECCAK256 ORIGIN CALLVALUE ORIGIN 0x2E ORIGIN BALANCE KECCAK256 CALLVALUE CALLDATASIZE CALLER KECCAK256 ORIGIN CALLDATALOAD CALLER KECCAK256 CALLVALUE CALLDATASIZE CALLER 0x22 KECCAK256 0x2F RETURNDATACOPY EXTCODECOPY PUSH14 0x61736B2069643D226E6F6E652220 PUSH14 0x61736B436F6E74656E74556E6974 PUSH20 0x3D226F626A656374426F756E64696E67426F7822 RETURNDATACOPY EXTCODECOPY PUSH19 0x6563742077696474683D223122206865696768 PUSH21 0x3D2231222066696C6C3D22776869746522202F3E3C 0x2F PUSH14 0x61736B3E2220783D223070782220 PUSH26 0x3D22307078222077696474683D22323930707822206865696768 PUSH21 0x3D22353030707822202F3E203C616E696D61746520 PUSH2 0x6464 PUSH10 0x746976653D2273756D22 KECCAK256 PUSH2 0x7474 PUSH19 0x69627574654E616D653D2273746172744F6666 PUSH20 0x6574222066726F6D3D2230252220746F3D223130 ADDRESS 0x25 0x22 KECCAK256 PUSH3 0x656769 PUSH15 0x3D22307322206475723D2233307322 KECCAK256 PUSH19 0x6570656174436F756E743D22696E646566696E PUSH10 0x746522202F3E3C746578 PUSH21 0x20783D22313270782220793D22313770782220666F PUSH15 0x742D66616D696C793D2227436F7572 PUSH10 0x6572204E6577272C206D PUSH16 0x6E6F73706163652220666F6E742D7369 PUSH27 0x653D2231327078222066696C6C3D227768697465223E3C74737061 PUSH15 0x2066696C6C3D227267626128323535 0x2C ORIGIN CALLDATALOAD CALLDATALOAD 0x2C ORIGIN CALLDATALOAD CALLDATALOAD 0x2C ADDRESS 0x2E CALLDATASIZE 0x29 0x22 RETURNDATACOPY 0x4D PUSH10 0x6E205469636B3A203C2F PUSH21 0x7370616E3E3C74657874506174682073746172744F PUSH7 0x667365743D222D BALANCE ADDRESS ADDRESS 0x25 0x22 KECCAK256 PUSH7 0x696C6C3D227768 PUSH10 0x74652220666F6E742D66 PUSH2 0x6D69 PUSH13 0x793D2227436F7572696572204E PUSH6 0x77272C206D6F PUSH15 0x6F73706163652220666F6E742D7369 PUSH27 0x653D22313070782220786C696E6B3A687265663D2223746578742D PUSH17 0x6174682D61223E3C6C696E656172477261 PUSH5 0x69656E7420 PUSH10 0x643D22677261642D646F PUSH24 0x6E222078313D2230222078323D2231222079313D22302220 PUSH26 0x323D2231223E3C73746F70206F66667365743D22302E30222073 PUSH21 0x6F702D636F6C6F723D227768697465222073746F70 0x2D PUSH16 0x7061636974793D223122202F3E3C7374 PUSH16 0x70206F66667365743D22302E39222073 PUSH21 0x6F702D636F6C6F723D227768697465222073746F70 0x2D PUSH16 0x7061636974793D223022202F3E3C2F6C PUSH10 0x6E656172477261646965 PUSH15 0x743E3C66696C7465722069643D2266 BALANCE 0x22 RETURNDATACOPY EXTCODECOPY PUSH7 0x65496D61676520 PUSH19 0x6573756C743D2270302220786C696E6B3A6872 PUSH6 0x663D22646174 PUSH2 0x3A69 PUSH14 0x6167652F7376672B786D6C3B6261 PUSH20 0x6536342C3C7376672077696474683D2732393027 KECCAK256 PUSH9 0x65696768743D273530 ADDRESS 0x27 KECCAK256 PUSH23 0x696577426F783D2730203020323930203530302720786D PUSH13 0x6E733D27687474703A2F2F7777 PUSH24 0x2E77332E6F72672F323030302F737667273E3C7265637420 PUSH24 0x696474683D27323930707827206865696768743D27353030 PUSH17 0x78272066696C6C3D2723222F3E3C666549 PUSH14 0x61676520726573756C743D227032 0x22 KECCAK256 PUSH25 0x6C696E6B3A687265663D22646174613A696D6167652F737667 0x2B PUSH25 0x6D6C3B6261736536342C3C656C6C697073652063783D223530 0x25 0x22 KECCAK256 PUSH4 0x793D2230 PUSH17 0x78222072783D223138307078222072793D 0x22 BALANCE ORIGIN ADDRESS PUSH17 0x78222066696C6C3D222330303022206F70 PUSH2 0x6369 PUSH21 0x793D22302E383522202F3E3C2F673E707822206865 PUSH10 0x6768743D223236707822 KECCAK256 PUSH19 0x783D22387078222072793D2238707822206669 PUSH13 0x6C3D227267626128302C302C30 0x2C ADDRESS 0x2E CALLDATASIZE 0x29 0x22 KECCAK256 0x2F RETURNDATACOPY PUSH17 0x782220723D22347078222066696C6C3D22 PUSH24 0x6869746522202F3E3C636972636C652063783D2231312E33 CALLVALUE CALLDATACOPY CODESIZE 0x4C ORIGIN CALLVALUE KECCAK256 BALANCE ORIGIN 0x4C BALANCE CALLVALUE 0x2E CALLVALUE CALLER CALLVALUE BALANCE KECCAK256 BALANCE ORIGIN 0x2E CALLDATASIZE CALLDATALOAD ORIGIN ORIGIN 0x4C ORIGIN ORIGIN 0x2E CALLER CODECOPY ORIGIN CALLER KECCAK256 BALANCE CODESIZE 0x4C BALANCE CALLER 0x2E CALLDATACOPY CODESIZE BALANCE CODECOPY KECCAK256 BALANCE CALLER 0x2E CALLDATACOPY CODESIZE BALANCE CODECOPY 0x4C BALANCE CODESIZE KECCAK256 ORIGIN ORIGIN 0x2E CALLER CODECOPY ORIGIN CALLER 0x4C BALANCE ORIGIN 0x2E CALLDATASIZE CALLDATALOAD ORIGIN ORIGIN KECCAK256 BALANCE CALLVALUE 0x2E CALLVALUE CALLER CALLVALUE BALANCE 0x4C BALANCE ORIGIN KECCAK256 ORIGIN CALLVALUE 0x4C BALANCE BALANCE 0x2E CALLER CALLVALUE CALLDATACOPY CODESIZE KECCAK256 BALANCE CALLVALUE 0x2E CALLVALUE CALLER CALLVALUE BALANCE 0x4C CALLDATASIZE KECCAK256 ORIGIN ORIGIN 0x2E CALLER CODECOPY EXTCODECOPY PUSH19 0x6563742066696C6C3D226E6F6E652220783D22 ADDRESS PUSH17 0x782220793D22307078222077696474683D 0x22 ORIGIN CODECOPY ADDRESS PUSH17 0x7822206865696768743D22353030707822 KECCAK256 0x2F RETURNDATACOPY COINBASE TIMESTAMP NUMBER DIFFICULTY GASLIMIT CHAINID SELFBALANCE 0x48 0x49 0x4A 0x4B 0x4C 0x4D 0x4E 0x4F POP MLOAD MSTORE MSTORE8 SLOAD SSTORE JUMP JUMPI PC MSIZE GAS PUSH2 0x6263 PUSH5 0x6566676869 PUSH11 0x6B6C6D6E6F707172737475 PUSH23 0x7778797A303132333435363738392B2F20786D6C6E733A PUSH25 0x6C696E6B3D27687474703A2F2F7777772E77332E6F72672F31 CODECOPY CODECOPY CODECOPY 0x2F PUSH25 0x6C696E6B273E3C6C696E6561724772616469656E742069643D 0x22 PUSH8 0x7261642D73796D62 PUSH16 0x6C223E3C73746F70206F66667365743D 0x22 ADDRESS 0x2E CALLDATACOPY 0x22 KECCAK256 PUSH20 0x746F702D636F6C6F723D22776869746522207374 PUSH16 0x702D6F7061636974793D223122202F3E EXTCODECOPY PUSH20 0x746F70206F66667365743D222E3935222073746F PUSH17 0x2D636F6C6F723D22776869746522207374 PUSH16 0x702D6F7061636974793D223022202F3E EXTCODECOPY 0x2F PUSH13 0x696E6561724772616469656E74 RETURNDATACOPY KECCAK256 PUSH20 0x74796C653D227472616E73666F726D3A7472616E PUSH20 0x6C61746528373270782C313839707829223E3C72 PUSH6 0x637420783D22 0x2D BALANCE CALLDATASIZE PUSH17 0x782220793D222D31367078222077696474 PUSH9 0x3D2231383070782220 PUSH9 0x65696768743D223138 ADDRESS PUSH17 0x78222066696C6C3D226E6F6E6522202F3E EXTCODECOPY PUSH17 0x61746820643D22207374796C653D227472 PUSH2 0x6E73 PUSH7 0x6F726D3A747261 PUSH15 0x736C61746528373270782C31383970 PUSH25 0x29223E70782220723D2232347078222066696C6C3D226E6F6E PUSH6 0x22207374726F PUSH12 0x653D22776869746522202F3E EXTCODECOPY PUSH19 0x65637420783D222D313670782220793D222D31 CALLDATASIZE PUSH17 0x78222077696474683D2231383070782220 PUSH9 0x65696768743D223138 ADDRESS PUSH17 0x78222066696C6C3D226E6F6E6522202F3E MSTORE8 PUSH2 0x6665 0x4D PUSH2 0x7468 GASPRICE KECCAK256 PUSH14 0x756C7469706C69636174696F6E20 PUSH16 0x766572666C6F773C673E3C7061746820 PUSH20 0x74796C653D227472616E73666F726D3A7472616E PUSH20 0x6C617465283670782C367078292220643D224D31 ORIGIN KECCAK256 ADDRESS 0x4C BALANCE ORIGIN 0x2E CALLDATASIZE CALLDATALOAD ORIGIN ORIGIN KECCAK256 CODECOPY 0x2E CALLDATALOAD CALLDATASIZE CALLDATALOAD CODESIZE CALLDATACOPY 0x4C BALANCE CODESIZE KECCAK256 BALANCE 0x2E CALLDATASIZE ADDRESS CALLDATACOPY CALLDATACOPY 0x4C BALANCE CALLER 0x2E CALLDATACOPY CODESIZE BALANCE CODECOPY KECCAK256 BALANCE ADDRESS 0x2E ORIGIN BALANCE CODESIZE BALANCE 0x4C ORIGIN ORIGIN 0x2E CALLER CODECOPY ORIGIN CALLER KECCAK256 CALLDATASIZE 0x4C BALANCE CALLVALUE 0x2E CALLVALUE CALLER CALLVALUE BALANCE KECCAK256 EXTCODECOPY PUSH17 0x617468207374726F6B652D6C696E656361 PUSH17 0x3D22726F756E642220643D224D38203943 CODESIZE 0x2E ADDRESS ADDRESS ADDRESS ADDRESS CALLVALUE KECCAK256 ORIGIN ORIGIN 0x2E CODECOPY CALLVALUE CODECOPY CALLVALUE KECCAK256 BALANCE CALLDATASIZE 0x2E ORIGIN ADDRESS CODECOPY CODECOPY KECCAK256 ORIGIN CODESIZE KECCAK256 ORIGIN CALLDATACOPY KECCAK256 ORIGIN CODESIZE 0x22 KECCAK256 PUSH7 0x696C6C3D226E6F PUSH15 0x6522207374726F6B653D2277686974 PUSH6 0x22202F3E2072 PUSH6 0x70656174436F PUSH22 0x6E743D22696E646566696E69746522202F3E3C2F7465 PUSH25 0x74506174683E3C74657874506174682073746172744F666673 PUSH6 0x743D222D3530 0x25 0x22 KECCAK256 PUSH7 0x696C6C3D227768 PUSH10 0x74652220666F6E742D66 PUSH2 0x6D69 PUSH13 0x793D2227436F7572696572204E PUSH6 0x77272C206D6F PUSH15 0x6F73706163652220666F6E742D7369 PUSH27 0x653D22313070782220786C696E6B3A687265663D2223746578742D PUSH17 0x6174682D61223E3C6D61736B2069643D22 PUSH7 0x6164652D646F77 PUSH15 0x22206D61736B436F6E74656E74556E PUSH10 0x74733D226F626A656374 TIMESTAMP PUSH16 0x756E64696E67426F78223E3C72656374 KECCAK256 PUSH24 0x696474683D223122206865696768743D2231222066696C6C RETURNDATASIZE 0x22 PUSH22 0x726C2823677261642D646F776E2922202F3E3C2F6D61 PUSH20 0x6B3E22207374726F6B653D227267626128323535 0x2C ORIGIN CALLDATALOAD CALLDATALOAD 0x2C ORIGIN CALLDATALOAD CALLDATALOAD 0x2C BALANCE 0x29 0x22 KECCAK256 PUSH7 0x696C6C3D226E6F PUSH15 0x6522207374726F6B652D6C696E6563 PUSH2 0x703D 0x22 PUSH19 0x6F756E6422202F3E3C2F673E696E3D22626C65 PUSH15 0x644F75742220737464446576696174 PUSH10 0x6F6E3D22343222202F3E EXTCODECOPY 0x2F PUSH7 0x696C7465723E20 EXTCODECOPY PUSH4 0x6C697050 PUSH2 0x7468 KECCAK256 PUSH10 0x643D22636F726E657273 0x22 RETURNDATACOPY EXTCODECOPY PUSH19 0x6563742077696474683D223239302220686569 PUSH8 0x68743D2235303022 KECCAK256 PUSH19 0x783D223432222072793D22343222202F3E3C2F PUSH4 0x6C697050 PUSH2 0x7468 RETURNDATACOPY KECCAK256 EXTCODECOPY PUSH8 0x207374796C653D22 PUSH21 0x72616E73666F726D3A7472616E736C617465283239 PUSH17 0x782C20333834707829223E3C6C696E6561 PUSH19 0x4772616469656E742069643D22677261642D75 PUSH17 0x222078313D2231222078323D2230222079 BALANCE RETURNDATASIZE 0x22 BALANCE 0x22 KECCAK256 PUSH26 0x323D2230223E3C73746F70206F66667365743D22302E30222073 PUSH21 0x6F702D636F6C6F723D227768697465222073746F70 0x2D PUSH16 0x7061636974793D223122202F3E32334C BALANCE ADDRESS 0x2E ORIGIN BALANCE CODESIZE BALANCE KECCAK256 BALANCE CALLER 0x2E CALLDATACOPY CODESIZE BALANCE CODECOPY 0x4C BALANCE 0x2E CALLDATASIZE ADDRESS CALLDATACOPY CALLDATACOPY KECCAK256 BALANCE CODESIZE 0x4C CODECOPY 0x2E CALLDATALOAD CALLDATASIZE CALLDATALOAD CODESIZE CALLDATACOPY KECCAK256 BALANCE ORIGIN 0x2E CALLDATASIZE CALLDATALOAD ORIGIN ORIGIN 0x4C ADDRESS KECCAK256 BALANCE ORIGIN 0x4C CODECOPY 0x2E CALLDATALOAD CALLDATASIZE CALLDATALOAD CODESIZE CALLDATACOPY KECCAK256 BALANCE BALANCE 0x2E CALLER CALLVALUE CALLDATACOPY CODESIZE 0x4C BALANCE 0x2E CALLDATASIZE ADDRESS CALLDATACOPY CALLDATACOPY KECCAK256 CALLDATASIZE 0x4C BALANCE ADDRESS 0x2E ORIGIN BALANCE CODESIZE BALANCE KECCAK256 BALANCE ADDRESS 0x2E ORIGIN BALANCE CODESIZE BALANCE 0x4C CALLDATASIZE KECCAK256 BALANCE 0x2E CALLDATASIZE ADDRESS CALLDATACOPY CALLDATACOPY 0x4C BALANCE BALANCE 0x2E CALLER CALLVALUE CALLDATACOPY CODESIZE KECCAK256 CODECOPY 0x2E CALLDATALOAD CALLDATASIZE CALLDATALOAD CODESIZE CALLDATACOPY 0x4C BALANCE ORIGIN KECCAK256 ADDRESS GAS 0x22 KECCAK256 PUSH7 0x696C6C3D227768 PUSH10 0x746522202F3E3C672073 PUSH21 0x796C653D227472616E73666F726D3A7472616E736C PUSH2 0x7465 0x28 ORIGIN ORIGIN CALLDATASIZE PUSH17 0x782C20333932707829223E3C7265637420 PUSH24 0x696474683D223336707822206865696768743D2233367078 0x22 KECCAK256 PUSH19 0x783D22387078222072793D2238707822206669 PUSH13 0x6C3D226E6F6E6522207374726F PUSH12 0x653D2272676261283235352C ORIGIN CALLDATALOAD CALLDATALOAD 0x2C ORIGIN CALLDATALOAD CALLDATALOAD 0x2C ADDRESS 0x2E ORIGIN 0x29 0x22 KECCAK256 0x2F RETURNDATACOPY EXTCODECOPY PUSH21 0x657874506174682073746172744F66667365743D22 CALLDATALOAD ADDRESS 0x25 0x22 KECCAK256 PUSH7 0x696C6C3D227768 PUSH10 0x74652220666F6E742D66 PUSH2 0x6D69 PUSH13 0x793D2227436F7572696572204E PUSH6 0x77272C206D6F PUSH15 0x6F73706163652220666F6E742D7369 PUSH27 0x653D22313070782220786C696E6B3A687265663D2223746578742D PUSH17 0x6174682D61223E3C7465787420783D2231 ORIGIN PUSH17 0x782220793D22313770782220666F6E742D PUSH7 0x616D696C793D22 0x27 NUMBER PUSH16 0x7572696572204E6577272C206D6F6E6F PUSH20 0x706163652220666F6E742D73697A653D22313270 PUSH25 0x222066696C6C3D227768697465223E3C747370616E2066696C PUSH13 0x3D2272676261283235352C3235 CALLDATALOAD 0x2C ORIGIN CALLDATALOAD CALLDATALOAD 0x2C ADDRESS 0x2E CALLDATASIZE 0x29 0x22 RETURNDATACOPY 0x4D PUSH2 0x7820 SLOAD PUSH10 0x636B3A203C2F74737061 PUSH15 0x3E3C616E696D6174655472616E7366 PUSH16 0x726D206174747269627574654E616D65 RETURNDATASIZE 0x22 PUSH21 0x72616E73666F726D2220747970653D22726F746174 PUSH6 0x222066726F6D RETURNDATASIZE 0x22 ADDRESS KECCAK256 BALANCE CODESIZE KECCAK256 BALANCE CODESIZE 0x22 KECCAK256 PUSH21 0x6F3D2233363020313820313822206475723D223130 PUSH20 0x2220726570656174436F756E743D22696E646566 PUSH10 0x6E697465222F3E3C2F67 RETURNDATACOPY EXTCODECOPY 0x2F PUSH8 0x3E3C706174682069 PUSH5 0x3D22746578 PUSH21 0x2D706174682D612220643D224D3430203132204832 CALLDATALOAD ADDRESS KECCAK256 COINBASE ORIGIN CODESIZE KECCAK256 ORIGIN CODESIZE KECCAK256 ADDRESS KECCAK256 ADDRESS KECCAK256 BALANCE KECCAK256 ORIGIN CALLDATACOPY CODESIZE KECCAK256 CALLVALUE ADDRESS KECCAK256 JUMP CALLVALUE CALLDATASIZE ADDRESS KECCAK256 COINBASE ORIGIN CODESIZE KECCAK256 ORIGIN CODESIZE KECCAK256 ADDRESS KECCAK256 ADDRESS KECCAK256 BALANCE KECCAK256 ORIGIN CALLDATALOAD ADDRESS KECCAK256 CALLVALUE CODESIZE CODESIZE KECCAK256 0x48 CALLVALUE ADDRESS KECCAK256 COINBASE ORIGIN CODESIZE KECCAK256 ORIGIN CODESIZE KECCAK256 ADDRESS KECCAK256 ADDRESS KECCAK256 BALANCE KECCAK256 BALANCE ORIGIN KECCAK256 CALLVALUE CALLDATASIZE ADDRESS KECCAK256 JUMP CALLVALUE ADDRESS KECCAK256 COINBASE ORIGIN CODESIZE KECCAK256 ORIGIN CODESIZE KECCAK256 ADDRESS KECCAK256 ADDRESS KECCAK256 BALANCE KECCAK256 CALLVALUE ADDRESS KECCAK256 BALANCE ORIGIN KECCAK256 PUSH27 0x22202F3E222F3E3C6665496D61676520726573756C743D22703122 KECCAK256 PUSH25 0x6C696E6B3A687265663D22646174613A696D6167652F737667 0x2B PUSH25 0x6D6C3B6261736536342C3C6D61736B2069643D22666164652D PUSH20 0x796D626F6C22206D61736B436F6E74656E74556E PUSH10 0x74733D22757365725370 PUSH2 0x6365 0x4F PUSH15 0x557365223E3C726563742077696474 PUSH9 0x3D2232393070782220 PUSH9 0x65696768743D223230 ADDRESS PUSH17 0x78222066696C6C3D2275726C2823677261 PUSH5 0x2D73796D62 PUSH16 0x6C2922202F3E3C2F6D61736B3E3C2F64 PUSH6 0x66733E3C7265 PUSH4 0x7420783D 0x22 ADDRESS 0x22 KECCAK256 PUSH26 0x3D2230222077696474683D2232393022206865696768743D2235 ADDRESS ADDRESS 0x22 KECCAK256 PUSH19 0x783D223432222072793D223432222066696C6C RETURNDATASIZE 0x22 PUSH19 0x67626128302C302C302C302922207374726F6B PUSH6 0x3D2272676261 0x28 ORIGIN CALLDATALOAD CALLDATALOAD 0x2C ORIGIN CALLDATALOAD CALLDATALOAD 0x2C ORIGIN CALLDATALOAD CALLDATALOAD 0x2C ADDRESS 0x2E ORIGIN 0x29 0x22 KECCAK256 0x2F RETURNDATACOPY EXTCODECOPY 0x2F PUSH8 0x3E3C66696C746572 KECCAK256 PUSH10 0x643D22746F702D726567 PUSH10 0x6F6E2D626C7572223E3C PUSH7 0x65476175737369 PUSH2 0x6E42 PUSH13 0x757220696E3D22536F75726365 SELFBALANCE PUSH19 0x61706869632220737464446576696174696F6E RETURNDATASIZE 0x22 ORIGIN CALLVALUE 0x22 KECCAK256 0x2F RETURNDATACOPY EXTCODECOPY 0x2F PUSH7 0x696C7465723E3C 0x2F PUSH21 0x657874506174683E203C7465787450617468207374 PUSH2 0x7274 0x4F PUSH7 0x667365743D2230 0x25 0x22 KECCAK256 PUSH7 0x696C6C3D227768 PUSH10 0x74652220666F6E742D66 PUSH2 0x6D69 PUSH13 0x793D2227436F7572696572204E PUSH6 0x77272C206D6F PUSH15 0x6F73706163652220666F6E742D7369 PUSH27 0x653D22313070782220786C696E6B3A687265663D2223746578742D PUSH17 0x6174682D61223E3C746578742074657874 0x2D PUSH19 0x656E646572696E673D226F7074696D697A6553 PUSH17 0x656564223E5369676E6564536166654D61 PUSH21 0x683A207375627472616374696F6E206F766572666C PUSH16 0x773C7265637420783D2231362220793D 0x22 BALANCE CALLDATASIZE 0x22 KECCAK256 PUSH24 0x696474683D2232353822206865696768743D223436382220 PUSH19 0x783D223236222072793D223236222066696C6C RETURNDATASIZE 0x22 PUSH19 0x67626128302C302C302C302922207374726F6B PUSH6 0x3D2272676261 0x28 ORIGIN CALLDATALOAD CALLDATALOAD 0x2C ORIGIN CALLDATALOAD CALLDATALOAD 0x2C ORIGIN CALLDATALOAD CALLDATALOAD 0x2C ADDRESS 0x2E ORIGIN 0x29 0x22 KECCAK256 0x2F RETURNDATACOPY EXTCODECOPY PUSH21 0x65787420783D22313270782220793D223137707822 KECCAK256 PUSH7 0x6F6E742D66616D PUSH10 0x6C793D2227436F757269 PUSH6 0x72204E657727 0x2C KECCAK256 PUSH14 0x6F6E6F73706163652220666F6E74 0x2D PUSH20 0x697A653D2231327078222066696C6C3D22776869 PUSH21 0x65223E3C747370616E2066696C6C3D227267626128 ORIGIN CALLDATALOAD CALLDATALOAD 0x2C ORIGIN CALLDATALOAD CALLDATALOAD 0x2C ORIGIN CALLDATALOAD CALLDATALOAD 0x2C ADDRESS 0x2E CALLDATASIZE 0x29 0x22 RETURNDATACOPY 0x49 DIFFICULTY GASPRICE KECCAK256 EXTCODECOPY 0x2F PUSH21 0x7370616E3E3C726563742077696474683D22333670 PUSH25 0x22206865696768743D2233367078222072783D223870782220 PUSH19 0x793D22387078222066696C6C3D226E6F6E6522 KECCAK256 PUSH20 0x74726F6B653D2272676261283235352C3235352C ORIGIN CALLDATALOAD CALLDATALOAD 0x2C ADDRESS 0x2E ORIGIN 0x29 0x22 KECCAK256 0x2F RETURNDATACOPY EXTCODECOPY 0x2F PUSH21 0x6578743E3C7465787420793D223131357078222078 RETURNDATASIZE 0x22 CALLER ORIGIN PUSH17 0x78222066696C6C3D227768697465222066 PUSH16 0x6E742D66616D696C793D2227436F7572 PUSH10 0x6572204E6577272C206D PUSH16 0x6E6F73706163652220666F6E742D7765 PUSH10 0x6768743D223230302220 PUSH7 0x6F6E742D73697A PUSH6 0x3D2233367078 0x22 RETURNDATACOPY EXTCODECOPY 0x2F PUSH21 0x6578743E3C2F673E3C67207374796C653D22747261 PUSH15 0x73666F726D3A7472616E736C617465 0x28 ORIGIN ORIGIN CALLDATASIZE PUSH17 0x782C20343333707829223E203C67207374 PUSH26 0x6C653D227472616E73666F726D3A7472616E736C617465283239 PUSH17 0x782C20343134707829223EA26469706673 PC 0x22 SLT KECCAK256 0xE6 LOG1 0xEA DUP15 OR INVALID LOG1 EXP PUSH30 0xCF33BE5B97D221356EFA33223B924EC56E053139E0787C64736F6C634300 SMOD MOD STOP CALLER "
		},
		"gasEstimates": {
			"creation": {
				"codeDepositCost": "4672000",
				"executionCost": "5502",
				"totalCost": "4677502"
			},
			"external": {
				"constructTokenURI(NFTDescriptor.ConstructTokenURIParams)": "infinite"
			},
			"internal": {
				"abs(int256)": "68",
				"addressToString(address)": "infinite",
				"adjustForDecimalPrecision(uint160,uint8,uint8)": "infinite",
				"escapeQuotes(string memory)": "infinite",
				"feeToPercentString(uint24)": "infinite",
				"fixedPointToDecimalString(uint160,uint8,uint8)": "infinite",
				"generateDecimalString(struct NFTDescriptor.DecimalStringParams memory)": "infinite",
				"generateDescriptionPartOne(string memory,string memory,string memory)": "infinite",
				"generateDescriptionPartTwo(string memory,string memory,string memory,string memory,string memory)": "infinite",
				"generateName(struct NFTDescriptor.ConstructTokenURIParams memory,string memory)": "infinite",
				"generateSVGImage(struct NFTDescriptor.ConstructTokenURIParams memory)": "infinite",
				"getCircleCoord(uint256,uint256,uint256)": "101",
				"overRange(int24,int24,int24)": "125",
				"scale(uint256,uint256,uint256,uint256,uint256)": "infinite",
				"sigfigsRounded(uint256,uint8)": "infinite",
				"sliceTokenHex(uint256,uint256)": "21",
				"tickToDecimalString(int24,int24,uint8,uint8,bool)": "infinite",
				"tokenToColorHex(uint256,uint256)": "infinite"
			}
		},
		"methodIdentifiers": {
			"constructTokenURI(NFTDescriptor.ConstructTokenURIParams)": "c49917d7"
		}
	},
	"abi": [
		{
			"inputs": [
				{
					"components": [
						{
							"internalType": "uint256",
							"name": "tokenId",
							"type": "uint256"
						},
						{
							"internalType": "address",
							"name": "quoteTokenAddress",
							"type": "address"
						},
						{
							"internalType": "address",
							"name": "baseTokenAddress",
							"type": "address"
						},
						{
							"internalType": "string",
							"name": "quoteTokenSymbol",
							"type": "string"
						},
						{
							"internalType": "string",
							"name": "baseTokenSymbol",
							"type": "string"
						},
						{
							"internalType": "uint8",
							"name": "quoteTokenDecimals",
							"type": "uint8"
						},
						{
							"internalType": "uint8",
							"name": "baseTokenDecimals",
							"type": "uint8"
						},
						{
							"internalType": "bool",
							"name": "flipRatio",
							"type": "bool"
						},
						{
							"internalType": "int24",
							"name": "tickLower",
							"type": "int24"
						},
						{
							"internalType": "int24",
							"name": "tickUpper",
							"type": "int24"
						},
						{
							"internalType": "int24",
							"name": "tickCurrent",
							"type": "int24"
						},
						{
							"internalType": "int24",
							"name": "tickSpacing",
							"type": "int24"
						},
						{
							"internalType": "uint24",
							"name": "fee",
							"type": "uint24"
						},
						{
							"internalType": "address",
							"name": "poolAddress",
							"type": "address"
						}
					],
					"internalType": "struct NFTDescriptor.ConstructTokenURIParams",
					"name": "params",
					"type": "tuple"
				}
			],
			"name": "constructTokenURI",
			"outputs": [
				{
					"internalType": "string",
					"name": "",
					"type": "string"
				}
			],
			"stateMutability": "pure",
			"type": "function"
		}
	]
}