{
	"data": {
		"bytecode": {
			"linkReferences": {},
			"object": "615afd610026600b82828239805160001a60731461001957fe5b30600052607381538281f3fe73000000000000000000000000000000000000000030146080604052600436106100355760003560e01c8063c49917d71461003a575b600080fd5b61004d610048366004613b0d565b610063565b60405161005a9190614142565b60405180910390f35b6060600061007e83610079856101800151610170565b6103b6565b905060006100b26100928560600151610471565b61009f8660800151610471565b6100ad876101a001516105dc565b6105f2565b905060006101006100c68660000151610624565b6100d38760800151610471565b6100e088602001516105dc565b6100ed89604001516105dc565b6100fb8a6101800151610170565b6106fe565b9050600061011561011087610734565b61096f565b9050610145848484846040516020016101319493929190613e86565b60405160208183030381529060405261096f565b60405160200161015591906140fd565b6040516020818303038152906040529450505050505b919050565b606062ffffff821661019b5750604080518082019091526002815261302560f01b602082015261016b565b816000805b62ffffff8316156101eb5760ff8116156101bc576001016101d5565b600a62ffffff84160662ffffff166000146101d5576001015b600190910190600a62ffffff84160492506101a0565b6101f3613a08565b6000600584106102e8576000600461020e8660ff8716610abc565b101561021b57600161021e565b60005b60ff90811691506102329085166001610abc565b61023d866005610abc565b106102695761026461025360ff86166001610abc565b61025e876005610abc565b90610abc565b61026c565b60005b60ff85166080850181905290925061028b9060019061025e9085610b19565b60ff90811660a085015260808401516102b29183916102ac91166001610abc565b90610b19565b60ff90811660408501526102da9082906102ac906102d39088166001610b19565b8590610b19565b60ff16602084015250610358565b6102f3600585610abc565b6002608084018190529091506103119060019061025e908490610b19565b60ff90811660a08401526103339061032c9085166002610b19565b8290610b19565b60ff1660208301819052610348906002610abc565b60ff166040830152600160c08301525b6103776103688560ff8616610abc565b62ffffff891690600a0a610b71565b8252600160e08301526004841161038f57600061039a565b61039a846004610abc565b60ff1660608301526103ab82610bd5565b979650505050505050565b6060816103c68460600151610471565b6103d38560800151610471565b61040c8660e00151156103eb578661012001516103f2565b8661010001515b8761016001518860c001518960a001518a60e00151610de4565b6104458760e00151156104245787610100015161042b565b8761012001515b8861016001518960c001518a60a001518b60e00151610de4565b604051602001610459959493929190613f61565b60405160208183030381529060405290505b92915050565b6060816000805b82518160ff1610156104bd57828160ff168151811061049357fe5b6020910101516001600160f81b031916601160f91b14156104b5576001909101905b600101610478565b5060ff8116156105d45760008160ff168351016001600160401b03811180156104e557600080fd5b506040519080825280601f01601f191660200182016040528015610510576020820181803683370190505b5090506000805b84518160ff1610156105c757848160ff168151811061053257fe5b6020910101516001600160f81b031916601160f91b141561057c57601760fa1b83838060010194508151811061056457fe5b60200101906001600160f81b031916908160001a9053505b848160ff168151811061058b57fe5b602001015160f81c60f81b8383806001019450815181106105a857fe5b60200101906001600160f81b031916908160001a905350600101610517565b508194505050505061016b565b509192915050565b606061046b6001600160a01b0383166014610ef9565b60608383838660405160200161060b9493929190613d64565b60405160208183030381529060405290505b9392505050565b60608161064957506040805180820190915260018152600360fc1b602082015261016b565b8160005b811561066157600101600a8204915061064d565b6000816001600160401b038111801561067957600080fd5b506040519080825280601f01601f1916602001820160405280156106a4576020820181803683370190505b50859350905060001982015b83156106f557600a840660300160f81b828280600190039350815181106106d357fe5b60200101906001600160f81b031916908160001a905350600a840493506106b0565b50949350505050565b6060838584848960405160200161071995949392919061401a565b60405160208183030381529060405290505b95945050505050565b60606000604051806102a0016040528061075185602001516105dc565b815260200161076385604001516105dc565b8152602001846101a001516001600160a01b03168152602001846060015181526020018460800151815260200161079e856101800151610170565b815260200184610100015160020b815260200184610120015160020b815260200184610160015160020b81526020016107e7856101000151866101200151876101400151611057565b60000b81526020018460000151815260200161081185602001516001600160a01b0316608861108e565b815260200161082e85604001516001600160a01b0316608861108e565b815260200161084b85602001516001600160a01b0316600061108e565b815260200161086885604001516001600160a01b0316600061108e565b815260200161089b61088d86602001516001600160a01b03166010886000015161109d565b600060ff60106101126110bd565b81526020016108ce6108c086604001516001600160a01b03166010886000015161109d565b600060ff60646101e46110bd565b81526020016108f361088d86602001516001600160a01b03166020886000015161109d565b81526020016109186108c086604001516001600160a01b03166020886000015161109d565b815260200161093d61088d86602001516001600160a01b03166030886000015161109d565b81526020016109626108c086604001516001600160a01b03166030886000015161109d565b9052905061061d81611105565b6060815160001415610990575060408051602081019091526000815261016b565b6000604051806060016040528060408152602001614d62604091399050600060038451600201816109bd57fe5b0460040290506000816020016001600160401b03811180156109de57600080fd5b506040519080825280601f01601f191660200182016040528015610a09576020820181803683370190505b509050818152600183018586518101602084015b81831015610a775760039283018051603f601282901c811687015160f890811b8552600c83901c8216880151811b6001860152600683901c8216880151811b60028601529116860151901b93820193909352600401610a1d565b600389510660018114610a915760028114610aa257610aae565b613d3d60f01b600119830152610aae565b603d60f81b6000198301525b509398975050505050505050565b600082821115610b13576040805162461bcd60e51b815260206004820152601e60248201527f536166654d6174683a207375627472616374696f6e206f766572666c6f770000604482015290519081900360640190fd5b50900390565b60008282018381101561061d576040805162461bcd60e51b815260206004820152601b60248201527a536166654d6174683a206164646974696f6e206f766572666c6f7760281b604482015290519081900360640190fd5b6000808211610bc4576040805162461bcd60e51b815260206004820152601a602482015279536166654d6174683a206469766973696f6e206279207a65726f60301b604482015290519081900360640190fd5b818381610bcd57fe5b049392505050565b60606000826020015160ff166001600160401b0381118015610bf657600080fd5b506040519080825280601f01601f191660200182016040528015610c21576020820181803683370190505b5090508260e0015115610c5b57602560f81b81600183510381518110610c4357fe5b60200101906001600160f81b031916908160001a9053505b8260c0015115610cb857600360fc1b81600081518110610c7757fe5b60200101906001600160f81b031916908160001a905350601760f91b81600181518110610ca057fe5b60200101906001600160f81b031916908160001a9053505b608083015160ff165b60a0840151610cd49060ff166001610b19565b811015610d0b57603060f81b828281518110610cec57fe5b60200101906001600160f81b031916908160001a905350600101610cc1565b505b82511561046b576000836060015160ff16118015610d385750826060015160ff16836040015160ff16145b15610d7b5760408301805160ff600019820181169092528251601760f91b92849216908110610d6357fe5b60200101906001600160f81b031916908160001a9053505b8251610d8d90603090600a9006610b19565b60f81b818460400180518091906001900360ff1660ff1681525060ff1681518110610db457fe5b60200101906001600160f81b031916908160001a905350600a8360000181815181610ddb57fe5b04905250610d0d565b606084600281900b620d89e71981610df857fe5b050260020b8660020b1415610e52578115610e2e576040518060400160405280600381526020016209a82b60eb1b815250610e4b565b6040518060400160405280600381526020016226a4a760e91b8152505b905061072b565b84600281900b620d89e881610e6357fe5b050260020b8660020b1415610eb9578115610e99576040518060400160405280600381526020016226a4a760e91b815250610e4b565b5060408051808201909152600381526209a82b60eb1b602082015261072b565b6000610ec48761137d565b90508215610ee657610ee3600160c01b6001600160a01b038316610b71565b90505b610ef18186866116a4565b91505061072b565b60606000826002026002016001600160401b0381118015610f1957600080fd5b506040519080825280601f01601f191660200182016040528015610f44576020820181803683370190505b509050600360fc1b81600081518110610f5957fe5b60200101906001600160f81b031916908160001a905350600f60fb1b81600181518110610f8257fe5b60200101906001600160f81b031916908160001a905350600160028402015b6001811115611003576f181899199a1a9b1b9c1cb0b131b232b360811b85600f1660108110610fcc57fe5b1a60f81b828281518110610fdc57fe5b60200101906001600160f81b031916908160001a90535060049490941c9360001901610fa1565b50831561061d576040805162461bcd60e51b815260206004820181905260248201527f537472696e67733a20686578206c656e67746820696e73756666696369656e74604482015290519081900360640190fd5b60008360020b8260020b1215611070575060001961061d565b8260020b8260020b13156110865750600161061d565b50600061061d565b606061061d83831c6003611861565b600060ff826110ac868661191a565b02816110b457fe5b06949350505050565b60606110fb6110f6846102ac6110d3888a610abc565b6110f06110e0888a610abc565b6110ea8d8d610abc565b90611921565b90610b71565b610624565b9695505050505050565b60606111108261197a565b61112c8360000151846020015185606001518660800151611fd9565b611143846060015185608001518660a00151612304565b6111618560c001518660e00151876101000151886101200151612454565b611181611172876101400151610624565b8760c001518860e00151612737565b6111948761014001518860400151612b4f565b6040516020018087805190602001908083835b602083106111c65780518252601f1990920191602091820191016111a7565b51815160209384036101000a600019018019909216911617905289519190930192890191508083835b6020831061120e5780518252601f1990920191602091820191016111ef565b51815160209384036101000a600019018019909216911617905288519190930192880191508083835b602083106112565780518252601f199092019160209182019101611237565b51815160209384036101000a600019018019909216911617905287519190930192870191508083835b6020831061129e5780518252601f19909201916020918201910161127f565b51815160209384036101000a600019018019909216911617905286519190930192860191508083835b602083106112e65780518252601f1990920191602091820191016112c7565b51815160209384036101000a600019018019909216911617905285519190930192850191508083835b6020831061132e5780518252601f19909201916020918201910161130f565b5181516020939093036101000a6000190180199091169216919091179052651e17b9bb339f60d11b92019182525060408051808303601919018152600690920190529998505050505050505050565b60008060008360020b12611394578260020b61139c565b8260020b6000035b9050620d89e88111156113da576040805162461bcd60e51b81526020600482015260016024820152601560fa1b604482015290519081900360640190fd5b6000600182166113ee57600160801b611400565b6ffffcb933bd6fad37aa2d162d1a5940015b6001600160881b03169050600282161561142a576ffff97272373d413259a46990580e213a0260801c5b6004821615611449576ffff2e50f5f656932ef12357cf3c7fdcc0260801c5b6008821615611468576fffe5caca7e10e4e61c3624eaa0941cd00260801c5b6010821615611487576fffcb9843d60f6159c9db58835c9266440260801c5b60208216156114a6576fff973b41fa98c081472e6896dfb254c00260801c5b60408216156114c5576fff2ea16466c96a3843ec78b326b528610260801c5b60808216156114e4576ffe5dee046a99a2a811c461f1969c30530260801c5b610100821615611504576ffcbe86c7900a88aedcffc83b479aa3a40260801c5b610200821615611524576ff987a7253ac413176f2b074cf7815e540260801c5b610400821615611544576ff3392b0822b70005940c7a398e4b70f30260801c5b610800821615611564576fe7159475a2c29b7443b29c7fa6e889d90260801c5b611000821615611584576fd097f3bdfd2022b8845ad8f792aa58250260801c5b6120008216156115a4576fa9f746462d870fdf8a65dc1f90e061e50260801c5b6140008216156115c4576f70d869a156d2a1b890bb3df62baf32f70260801c5b6180008216156115e4576f31be135f97d08fd981231505542fcfa60260801c5b62010000821615611605576f09aa508b5b7a84e1c677de54f3e99bc90260801c5b62020000821615611625576e5d6af8dedb81196699c329225ee6040260801c5b62040000821615611644576d2216e584f5fa1ea926041bedfe980260801c5b62080000821615611661576b048a170391f7dc42444e8fa20260801c5b60008460020b131561167c57806000198161167857fe5b0490505b600160201b81061561168f576001611692565b60005b60ff16602082901c0192505050919050565b606060006116b3858585612bc7565b905060006116c68283600160401b612cc9565b9050600160601b821080156116fb576116f4826c47bf19673df52e37f2410011d1602c1b600160801b612cc9565b9150611710565b61170d82620186a0600160801b612cc9565b91505b8160005b811561172857600101600a82049150611714565b600019016000806117398684612d78565b91509150801561174a576001909201915b611752613a08565b85156117bf57611771611769602b60ff8716610abc565b600790610b19565b60ff908116602083015260026080830152611797906001906102ac90602b908816610abc565b60ff90811660a083015260208201516117b291166001610abc565b60ff166040820152611836565b60098460ff1610611808576117d860ff85166004610abc565b60ff1660208201819052600560808301526117f4906001610abc565b60ff1660a082015260046040820152611836565b6006602082015260056040820181905261182d906001906102ac9060ff881690610abc565b60ff1660608201525b82815285151560c0820152600060e082015261185181610bd5565b9c9b505050505050505050505050565b60606000826002026001600160401b038111801561187e57600080fd5b506040519080825280601f01601f1916602001820160405280156118a9576020820181803683370190505b5080519091505b8015611912576f181899199a1a9b1b9c1cb0b131b232b360811b85600f16601081106118d857fe5b1a60f81b8260018303815181106118eb57fe5b60200101906001600160f81b031916908160001a90535060049490941c93600019016118b0565b509392505050565b1c60ff1690565b6000826119305750600061046b565b8282028284828161193d57fe5b041461061d5760405162461bcd60e51b8152600401808060200182810382526021815260200180614f816021913960400191505060405180910390fd5b6060611a0f8261016001516040516020018080614b3b6081913960810182805190602001908083835b602083106119c25780518252601f1990920191602091820191016119a3565b6001836020036101000a038019825116818451168082178552505050505050905001806813979f1e17b9bb339f60b91b81525060090191505060405160208183030381529060405261096f565b611b71836101e0015184610200015185610180015160405160200180806146786063913960630184805190602001908083835b60208310611a615780518252601f199092019160209182019101611a42565b51815160209384036101000a600019018019909216911617905265272063793d2760d01b919093019081528551600690910192860191508083835b60208310611abb5780518252601f199092019160209182019101611a9c565b51815160209384036101000a6000190180199092169116179052722720723d273132307078272066696c6c3d272360681b919093019081528451601390910192850191508083835b60208310611b225780518252601f199092019160209182019101611b03565b6001836020036101000a038019825116818451168082178552505050505050905001806813979f1e17b9bb339f60b91b815250600901935050505060405160208183030381529060405261096f565b611bc2846102200151856102400151866101a00151604051602001808061467860639139606301848051906020019080838360208310611a615780518252601f199092019160209182019101611a42565b611cd7856102600151866102800151876101c0015160405160200180806146786063913960630184805190602001908083835b60208310611c145780518252601f199092019160209182019101611bf5565b51815160209384036101000a600019018019909216911617905265272063793d2760d01b919093019081528551600690910192860191508083835b60208310611c6e5780518252601f199092019160209182019101611c4f565b51815160001960209485036101000a01908116901991909116179052722720723d273130307078272066696c6c3d272360681b939091019283528451601390930192908501915080838360208310611b225780518252601f199092019160209182019101611b03565b6101608601516040516020018060566143f38239605601602c614da28239651e3232b3399f60d11b602c820152603201604b614af08239604b0186805190602001908083835b60208310611d3c5780518252601f199092019160209182019101611d1d565b6001836020036101000a03801982511681845116808217855250505050505090500180615628603e9139603e0185805190602001908083835b60208310611d945780518252601f199092019160209182019101611d75565b6001836020036101000a03801982511681845116808217855250505050505090500180614bbc603e9139603e0184805190602001908083835b60208310611dec5780518252601f199092019160209182019101611dcd565b5181516020939093036101000a6000190180199091169216919091179052631110179f60e11b920191825250600401603b6142eb8239603b0183805190602001908083835b60208310611e505780518252601f199092019160209182019101611e31565b6001836020036101000a0380198251168184511680821785525050505050509050018061473860999139609901607f6151d98239607f0160886155a0823960880160416147d18239604101605d6157608239605d01607261528582396072016049614254823960490160be614a32823960be0160716145048239607101607561511c82396075016066614812823960660160a4614dce823960a401608561566682397f3c6720636c69702d706174683d2275726c2823636f726e65727329223e00000060858201526b1e3932b1ba103334b6361e9160a11b60a2820152825160ae9091019060208401908083835b60208310611f5d5780518252601f199092019160209182019101611f3e565b6001836020036101000a0380198251168184511680821785525050505050509050018061487860319139603101604e61429d8239604e01605d6146db8239605d016041614d2182396041016052614bfa823960520160756156eb8239607501955050505050506040516020818303038152906040529050919050565b60608382858488878a89604051602001808061584360259139602501607d6149b58239607d0189805190602001908083835b6020831061202a5780518252601f19909201916020918201910161200b565b51815160209384036101000a600019018019909216911617905264010714051160dd1b919093019081528a516005909101928b0191508083835b602083106120835780518252601f199092019160209182019101612064565b6001836020036101000a038019825116818451168082178552505050505050905001806148a96079913960790160866157bd823960860187805190602001908083835b602083106120e55780518252601f1990920191602091820191016120c6565b51815160209384036101000a600019018019909216911617905264010714051160dd1b919093019081528851600590910192890191508083835b6020831061213e5780518252601f19909201916020918201910161211f565b6001836020036101000a0380198251168184511680821785525050505050509050018061447f60859139608501607b61540e8239607b0185805190602001908083835b602083106121a05780518252601f199092019160209182019101612181565b51815160209384036101000a600019018019909216911617905264010714051160dd1b919093019081528651600590910192870191508083835b602083106121f95780518252601f1990920191602091820191016121da565b6001836020036101000a038019825116818451168082178552505050505050905001806145c9605d9139605d0160a3615079823960a30183805190602001908083835b6020831061225b5780518252601f19909201916020918201910161223c565b51815160209384036101000a600019018019909216911617905264010714051160dd1b919093019081528451600590910192850191508083835b602083106122b45780518252601f199092019160209182019101612295565b6001836020036101000a038019825116818451168082178552505050505050905001806141c9608b9139608b01985050505050505050506040516020818303038152906040529050949350505050565b6060838383604051602001808061432660cd913960cd0184805190602001908083835b602083106123465780518252601f199092019160209182019101612327565b6001836020036101000a03801982511681845116808217855250505050505090500180602f60f81b81525060010183805190602001908083835b6020831061239f5780518252601f199092019160209182019101612380565b6001836020036101000a038019825116818451168082178552505050505050905001806159ec6077913960770182805190602001908083835b602083106123f75780518252601f1990920191602091820191016123d8565b5181516020939093036101000a60001901801990911692169190911790526a1e17ba32bc3a1f1e17b39f60a91b920191825250600b01607361588c8239607301935050505060405160208183030381529060405290509392505050565b606060008260000b6001146124bb578260000b600019146124925760405180604001604052806005815260200164236e6f6e6560d81b8152506124b6565b6040518060400160405280600a81526020016911b330b23296b237bbb760b11b8152505b6124dd565b60405180604001604052806008815260200167023666164652d75760c41b8152505b905060006124ec878787612de9565b9050818183836124fb88613017565b60405160200180806c078ce40dac2e6d67a44eae4d85609b1b815250600d0186805190602001908083835b602083106125455780518252601f199092019160209182019101612526565b5181516020939093036101000a600019018019909116921691909117905261149160f11b9201918252506002016077614e72823960770185805190602001908083835b602083106125a75780518252601f199092019160209182019101612588565b6001836020036101000a038019825116818451168082178552505050505050905001806145756054913960540180700785ece7c78ce40dac2e6d67a44eae4d85607b1b81525060110184805190602001908083835b6020831061261b5780518252601f1990920191602091820191016125fc565b5181516020939093036101000a600019018019909116921691909117905261149160f11b9201918252506002016029614ee982396029016045614f3c823960450180681e3830ba3410321e9160b91b81525060090183805190602001908083835b6020831061269b5780518252601f19909201916020918201910161267c565b6001836020036101000a038019825116818451168082178552505050505050905001806151916048913960480182805190602001908083835b602083106126f35780518252601f1990920191602091820191016126d4565b6001836020036101000a0380198251168184511680821785525050505050509050019550505050505060405160208183030381529060405292505050949350505050565b606060006127448461347e565b905060006127518461347e565b865183518251929350600490910191600a91820191016000806127748a8a613588565b9150915061278785600401600702610624565b8b61279786600401600702610624565b896127a787600401600702610624565b8a87876040516020018080615258602d9139602d01806c1e3932b1ba103bb4b23a341e9160991b815250600d0189805190602001908083835b602083106127ff5780518252601f1990920191602091820191016127e0565b6001836020036101000a03801982511681845116808217855250505050505090500180614c4c603d9139603d01608d6158ff8239608d0188805190602001908083835b602083106128615780518252601f199092019160209182019101612842565b5181516020939093036101000a60001901801990911692169190911790526a1e17ba32bc3a1f1e17b39f60a91b920191825250600b01602d615a9b8239602d01806c1e3932b1ba103bb4b23a341e9160991b815250600d0187805190602001908083835b602083106128e45780518252601f1990920191602091820191016128c5565b6001836020036101000a03801982511681845116808217855250505050505090500180614c4c603d9139603d016093614922823960930186805190602001908083835b602083106129465780518252601f199092019160209182019101612927565b5181516020939093036101000a60001901801990911692169190911790526a1e17ba32bc3a1f1e17b39f60a91b920191825250600b01602d6146268239602d01806c1e3932b1ba103bb4b23a341e9160991b815250600d0185805190602001908083835b602083106129c95780518252601f1990920191602091820191016129aa565b6001836020036101000a03801982511681845116808217855250505050505090500180614c4c603d9139603d016093615489823960930184805190602001908083835b60208310612a2b5780518252601f199092019160209182019101612a0c565b6001836020036101000a03801982511681845116808217855250505050505090500180615a6360389139603801606061598c8239606001606461501582396064016025614653823960250183805190602001908083835b60208310612aa15780518252601f199092019160209182019101612a82565b51815160209384036101000a6000190180199092169116179052630383c16160e51b919093019081528451600490910192850191508083835b60208310612af95780518252601f199092019160209182019101612ada565b6001836020036101000a0380198251168184511680821785525050505050509050018061444960369139603601985050505050505050506040516020818303038152906040529750505050505050509392505050565b6060612b5b8383613894565b15612bb15760405160200180608d6153818239608d016073614fa282396073016071614cb08239607101608a6152f78239608a01608461551c82396084019050604051602081830303815290604052905061046b565b5060408051602081019091526000815292915050565b600080612be2612bdd60ff8681169086166138f2565b613957565b9050600081118015612bf5575060128111155b15612cb6578260ff168460ff161115612c5f57612c29612c16826002610b71565b6001600160a01b03871690600a0a611921565b91506002810660011415612c5a57612c57827003298b075b4b6a5240945790619b37fd4a600160801b612cc9565b91505b612cb1565b612c80612c6d826002610b71565b6001600160a01b03871690600a0a610b71565b91506002810660011415612cb157612cae82600160801b7003298b075b4b6a5240945790619b37fd4a612cc9565b91505b611912565b50506001600160a01b0390921692915050565b6000808060001985870986860292508281109083900303905080612cff5760008411612cf457600080fd5b50829004905061061d565b808411612d0b57600080fd5b6000848688096000868103871696879004966002600389028118808a02820302808a02820302808a02820302808a02820302808a02820302808a02909103029181900381900460010186841190950394909402919094039290920491909117919091029150509392505050565b600080600060058460ff161115612da057612d9d8560ff600419870116600a0a610b71565b94505b60006004600a8706119050612db686600a610b71565b95508015612dc5578560010195505b85620186a01415612ddb57600a86049550600191505b5084925090505b9250929050565b606060008260020b85850360020b81612dfe57fe5b05905060048160020b13612e46576040518060400160405280601a8152602001794d3120314334312034312031303520313035203134352031343560301b8152509150611912565b60088160020b13612e8a57604051806040016040528060198152602001784d31203143333320343920393720313133203134352031343560381b8152509150611912565b60108160020b13612ece57604051806040016040528060198152602001784d31203143333320353720383920313133203134352031343560381b8152509150611912565b60208160020b13612f1257604051806040016040528060198152602001784d31203143323520363520383120313231203134352031343560381b8152509150611912565b60408160020b13612f5657604051806040016040528060198152602001784d31203143313720373320373320313239203134352031343560381b8152509150611912565b60808160020b13612f9957604051806040016040528060188152602001774d312031433920383120363520313337203134352031343560401b8152509150611912565b6101008160020b13612fdf576040518060400160405280601a8152602001794d31203143312038392035372e3520313435203134352031343560301b8152509150611912565b50506040805180820190915260188152774d312031433120393720343920313435203134352031343560401b60208201529392505050565b6040805180820182526002815261373360f01b6020808301919091528251808401845260038082526203139360ec1b82840152845180860186528181526232313760e81b818501528551808701909652908552620ccccd60ea1b928501929092526060939091906001600087900b148061309557508560000b600019145b1561328c578560000b600019146130ac57816130ae565b835b8660000b600019146130c057816130c2565b835b8760000b600019146130d457836130d6565b855b8860000b600019146130e857836130ea565b855b60405160200180806b1e31b4b931b6329031bc1e9160a11b815250600c0185805190602001908083835b602083106131335780518252601f199092019160209182019101613114565b51815160209384036101000a600019018019909216911617905267383c111031bc9e9160c11b919093019081528651600890910192870191508083835b6020831061318f5780518252601f199092019160209182019101613170565b6001836020036101000a03801982511681845116808217855250505050505090500180614c896027913960270183805190602001908083835b602083106131e75780518252601f1990920191602091820191016131c8565b51815160209384036101000a600019018019909216911617905267383c111031bc9e9160c11b919093019081528451600890910192850191508083835b602083106132435780518252601f199092019160209182019101613224565b6001836020036101000a03801982511681845116808217855250505050505090500180614f12602a9139602a019450505050506040516020818303038152906040529450613475565b8383838360405160200180806b1e31b4b931b6329031bc1e9160a11b815250600c0185805190602001908083835b602083106132d95780518252601f1990920191602091820191016132ba565b51815160209384036101000a600019018019909216911617905267383c111031bc9e9160c11b919093019081528651600890910192870191508083835b602083106133355780518252601f199092019160209182019101613316565b51815160209384036101000a60001901801990921691161790527a383c1110391e911a383c11103334b6361e913bb434ba329110179f60291b919093019081526b1e31b4b931b6329031bc1e9160a11b601b8201528551602790910192860191508083835b602083106133b95780518252601f19909201916020918201910161339a565b51815160209384036101000a600019018019909216911617905267383c111031bc9e9160c11b919093019081528451600890910192850191508083835b602083106134155780518252601f1990920191602091820191016133f6565b6001836020036101000a038019825116818451168082178552505050505050905001807a383c1110391e911a383c11103334b6361e913bb434ba329110179f60291b815250601b0194505050505060405160208183030381529060405294505b50505050919050565b6060600060405180602001604052806000815250905060008360020b12156134c45782600019029250604051806040016040528060018152602001602d60f81b81525090505b806134d18460020b610624565b6040516020018083805190602001908083835b602083106135035780518252601f1990920191602091820191016134e4565b51815160209384036101000a600019018019909216911617905285519190930192850191508083835b6020831061354b5780518252601f19909201916020918201910161352c565b6001836020036101000a03801982511681845116808217855250505050505090500192505050604051602081830303815290604052915050919050565b60608060006002858501810b0590506201e847198160020b12156135e457604051806040016040528060018152602001600760fb1b815250604051806040016040528060018152602001603760f81b8152509250925050612de2565b620124f7198160020b121561363457604051806040016040528060018152602001600760fb1b8152506040518060400160405280600481526020016331302e3560e01b8152509250925050612de2565b6161a7198160020b121561368457604051806040016040528060018152602001600760fb1b8152506040518060400160405280600581526020016431342e323560d81b8152509250925050612de2565b611387198160020b12156136d25760405180604001604052806002815260200161031360f41b81525060405180604001604052806002815260200161062760f31b8152509250925050612de2565b60008160020b121561371e5760405180604001604052806002815260200161313160f01b81525060405180604001604052806002815260200161323160f01b8152509250925050612de2565b6113888160020b121561376b5760405180604001604052806002815260200161313360f01b81525060405180604001604052806002815260200161323360f01b8152509250925050612de2565b6161a88160020b12156137b85760405180604001604052806002815260200161313560f01b81525060405180604001604052806002815260200161323560f01b8152509250925050612de2565b620124f88160020b12156138065760405180604001604052806002815260200161062760f31b81525060405180604001604052806002815260200161191b60f11b8152509250925050612de2565b6201e8488160020b12156138545760405180604001604052806002815260200161323160f01b81525060405180604001604052806002815260200161323760f01b8152509250925050612de2565b604051806040016040528060028152602001610c8d60f21b81525060405180604001604052806002815260200161323760f01b8152509250925050612de2565b6040805160208082018590526001600160601b0319606085901b168284015282516034818403018152605490920190925280519101206000906138d68461396e565b60020260010160ff16600019816138e957fe5b04119392505050565b60008183038183128015906139075750838113155b8061391c575060008312801561391c57508381135b61061d5760405162461bcd60e51b81526004018080602001828103825260248152602001806158686024913960400191505060405180910390fd5b60008082121561396a578160000361046b565b5090565b600080821161397c57600080fd5b600160801b821061398f57608091821c91015b600160401b82106139a257604091821c91015b600160201b82106139b557602091821c91015b6201000082106139c757601091821c91015b61010082106139d857600891821c91015b601082106139e857600491821c91015b600482106139f857600291821c91015b6002821061016b57600101919050565b6040805161010081018252600080825260208201819052918101829052606081018290526080810182905260a0810182905260c0810182905260e081019190915290565b80356001600160a01b038116811461016b57600080fd5b8035801515811461016b57600080fd5b8035600281900b811461016b57600080fd5b600082601f830112613a95578081fd5b81356001600160401b03811115613aa857fe5b613abb601f8201601f1916602001614175565b818152846020838601011115613acf578283fd5b816020850160208301379081016020019190915292915050565b803562ffffff8116811461016b57600080fd5b803560ff8116811461016b57600080fd5b600060208284031215613b1e578081fd5b81356001600160401b0380821115613b34578283fd5b81840191506101c0808387031215613b4a578384fd5b613b5381614175565b905082358152613b6560208401613a4c565b6020820152613b7660408401613a4c565b6040820152606083013582811115613b8c578485fd5b613b9887828601613a85565b606083015250608083013582811115613baf578485fd5b613bbb87828601613a85565b608083015250613bcd60a08401613afc565b60a0820152613bde60c08401613afc565b60c0820152613bef60e08401613a63565b60e08201526101009150613c04828401613a73565b828201526101209150613c18828401613a73565b828201526101409150613c2c828401613a73565b828201526101609150613c40828401613a73565b828201526101809150613c54828401613ae9565b828201526101a09150613c68828401613a4c565b91810191909152949350505050565b60008151613c89818560208601614198565b9290920192915050565b7fe29aa0efb88f20444953434c41494d45523a204475652064696c6967656e636581527f20697320696d7065726174697665207768656e20617373657373696e6720746860208201527f6973204e46542e204d616b65207375726520746f6b656e20616464726573736560408201527f73206d617463682074686520657870656374656420746f6b656e732c2061732060608201527f746f6b656e2073796d626f6c73206d617920626520696d6974617465642e00006080820152609e0190565b632e372e3760e11b815260040190565b60007f54686973204e465420726570726573656e74732061206c69717569646974792082527803837b9b4ba34b7b71034b71030902ab734b9bbb0b8102b199603d1b60208301528551613dbe816039850160208a01614198565b602d60f81b6039918401918201528551613ddf81603a840160208a01614198565b660103837b7b617160cd1b603a92909101918201527f546865206f776e6572206f662074686973204e46542063616e206d6f646966796041820152791037b9103932b232b2b6903a3432903837b9b4ba34b7b7172e3760311b60618201526f02e372837b7b61020b2323932b9b99d160851b607b8201528451613e6981608b840160208901614198565b612e3760f11b608b92909101918201526103ab608d820185613c77565b683d913730b6b2911d1160b91b81528451600090613eab816009850160208a01614198565b71111610113232b9b1b934b83a34b7b7111d1160711b6009918401918201528551613edd81601b840160208a01614198565b8551910190613ef381601b840160208901614198565b6c1116101134b6b0b3b2911d101160991b601b92909101918201527919185d184e9a5b5859d94bdcdd99cade1b5b0ed8985cd94d8d0b60321b60288201528351613f44816042840160208801614198565b61227d60f01b604292909101918201526044019695505050505050565b60006902ab734b9bbb0b81016960b51b82528651613f8681600a850160208b01614198565b80830190506201016960ed1b80600a8301528751613fab81600d850160208c01614198565b602f60f81b600d93909101928301528651613fcd81600e850160208b01614198565b600e9201918201528451613fe8816011840160208901614198565b611e1f60f11b60119290910191820152835161400b816013840160208801614198565b01601301979650505050505050565b60006901020b2323932b9b99d160b51b808352875161404081600a860160208c01614198565b612e3760f11b600a91850191820152875161406281600c840160208c01614198565b01600c81019190915285519061407f826016830160208a01614198565b8181019150506b02e372332b2902a34b2b91d160a51b601682015284516140ad816022840160208901614198565b6b02e372a37b5b2b71024a21d160a51b6022929091019182015283516140da81602e840160208801614198565b6140f06140eb602e83850101613d54565b613c93565b9998505050505050505050565b60007f646174613a6170706c69636174696f6e2f6a736f6e3b6261736536342c0000008252825161413581601d850160208701614198565b91909101601d0192915050565b6000602082528251806020840152614161816040850160208701614198565b601f01601f19169190910160400192915050565b6040518181016001600160401b038111828210171561419057fe5b604052919050565b60005b838110156141b357818101518382015260200161419b565b838111156141c2576000848401525b5050505056fe203c616e696d6174652061646469746976653d2273756d22206174747269627574654e616d653d2273746172744f6666736574222066726f6d3d2230252220746f3d22313030252220626567696e3d22307322206475723d223330732220726570656174436f756e743d22696e646566696e69746522202f3e3c2f74657874506174683e3c2f746578743e3c73746f70206f66667365743d222e39222073746f702d636f6c6f723d227768697465222073746f702d6f7061636974793d223022202f3e3c2f6c696e6561724772616469656e743e3c72656374207374796c653d2266696c7465723a2075726c28236631292220783d223070782220793d22307078222077696474683d22323930707822206865696768743d22353030707822202f3e3c6665496d61676520726573756c743d2270332220786c696e6b3a687265663d22646174613a696d6167652f7376672b786d6c3b6261736536342c3c67206d61736b3d2275726c2823666164652d73796d626f6c29223e3c726563742066696c6c3d226e6f6e652220783d223070782220793d22307078222077696474683d22323930707822206865696768743d22323030707822202f3e203c7465787420793d22373070782220783d2233327078222066696c6c3d2277686974652220666f6e742d66616d696c793d2227436f7572696572204e6577272c206d6f6e6f73706163652220666f6e742d7765696768743d223230302220666f6e742d73697a653d2233367078223e3c7376672077696474683d2232393022206865696768743d22353030222076696577426f783d2230203020323930203530302220786d6c6e733d22687474703a2f2f7777772e77332e6f72672f323030302f7376672270782c2030707829222063783d22307078222063793d223070782220723d22347078222066696c6c3d227768697465222f3e3c2f673e203c616e696d6174652061646469746976653d2273756d22206174747269627574654e616d653d2273746172744f6666736574222066726f6d3d2230252220746f3d22313030252220626567696e3d22307322206475723d223330732220726570656174436f756e743d22696e646566696e69746522202f3e203c2f74657874506174683e3c6d61736b2069643d22666164652d757022206d61736b436f6e74656e74556e6974733d226f626a656374426f756e64696e67426f78223e3c726563742077696474683d223122206865696768743d2231222066696c6c3d2275726c2823677261642d75702922202f3e3c2f6d61736b3e22207374726f6b653d227267626128302c302c302c302e332922207374726f6b652d77696474683d2233327078222066696c6c3d226e6f6e6522207374726f6b652d6c696e656361703d22726f756e6422202f3e203c616e696d6174652061646469746976653d2273756d22206174747269627574654e616d653d2273746172744f6666736574222066726f6d3d2230252220746f3d22313030252220626567696e3d22307322206475723d2233307322203c67207374796c653d227472616e73666f726d3a7472616e736c61746528323970782c20343434707829223e3c636972636c65207374796c653d227472616e73666f726d3a7472616e736c6174653364283c7376672077696474683d2732393027206865696768743d27353030272076696577426f783d2730203020323930203530302720786d6c6e733d27687474703a2f2f7777772e77332e6f72672f323030302f737667273e3c636972636c652063783d27203c67207374796c653d2266696c7465723a75726c2823746f702d726567696f6e2d626c7572293b207472616e73666f726d3a7363616c6528312e35293b207472616e73666f726d2d6f726967696e3a63656e74657220746f703b223e22202f3e3c6665426c656e64206d6f64653d226f7665726c61792220696e3d2270302220696e323d22703122202f3e3c6665426c656e64206d6f64653d226578636c7573696f6e2220696e323d22703222202f3e3c6665426c656e64206d6f64653d226f7665726c61792220696e323d2270332220726573756c743d22626c656e644f757422202f3e3c6665476175737369616e426c7572203c706174682069643d226d696e696d61702220643d224d3233342034343443323334203435372e393439203234322e323120343633203235332034363322202f3e3c6d61736b2069643d226e6f6e6522206d61736b436f6e74656e74556e6974733d226f626a656374426f756e64696e67426f78223e3c726563742077696474683d223122206865696768743d2231222066696c6c3d22776869746522202f3e3c2f6d61736b3e2220783d223070782220793d22307078222077696474683d22323930707822206865696768743d22353030707822202f3e203c616e696d6174652061646469746976653d2273756d22206174747269627574654e616d653d2273746172744f6666736574222066726f6d3d2230252220746f3d22313030252220626567696e3d22307322206475723d223330732220726570656174436f756e743d22696e646566696e69746522202f3e3c7465787420783d22313270782220793d22313770782220666f6e742d66616d696c793d2227436f7572696572204e6577272c206d6f6e6f73706163652220666f6e742d73697a653d2231327078222066696c6c3d227768697465223e3c747370616e2066696c6c3d2272676261283235352c3235352c3235352c302e3629223e4d696e205469636b3a203c2f747370616e3e3c74657874506174682073746172744f66667365743d222d31303025222066696c6c3d2277686974652220666f6e742d66616d696c793d2227436f7572696572204e6577272c206d6f6e6f73706163652220666f6e742d73697a653d22313070782220786c696e6b3a687265663d2223746578742d706174682d61223e3c6c696e6561724772616469656e742069643d22677261642d646f776e222078313d2230222078323d2231222079313d2230222079323d2231223e3c73746f70206f66667365743d22302e30222073746f702d636f6c6f723d227768697465222073746f702d6f7061636974793d223122202f3e3c73746f70206f66667365743d22302e39222073746f702d636f6c6f723d227768697465222073746f702d6f7061636974793d223022202f3e3c2f6c696e6561724772616469656e743e3c66696c7465722069643d226631223e3c6665496d61676520726573756c743d2270302220786c696e6b3a687265663d22646174613a696d6167652f7376672b786d6c3b6261736536342c3c7376672077696474683d2732393027206865696768743d27353030272076696577426f783d2730203020323930203530302720786d6c6e733d27687474703a2f2f7777772e77332e6f72672f323030302f737667273e3c726563742077696474683d27323930707827206865696768743d273530307078272066696c6c3d2723222f3e3c6665496d61676520726573756c743d2270322220786c696e6b3a687265663d22646174613a696d6167652f7376672b786d6c3b6261736536342c3c656c6c697073652063783d22353025222063793d22307078222072783d223138307078222072793d223132307078222066696c6c3d222330303022206f7061636974793d22302e383522202f3e3c2f673e707822206865696768743d2232367078222072783d22387078222072793d22387078222066696c6c3d227267626128302c302c302c302e362922202f3e70782220723d22347078222066696c6c3d22776869746522202f3e3c636972636c652063783d2231312e333437384c32342031324c31342e343334312031322e363532324c32322e333932332031384c31332e373831392031332e373831394c31382032322e333932334c31322e363532322031342e343334314c31322032344c31312e333437382031342e343334314c362032322e33393c726563742066696c6c3d226e6f6e652220783d223070782220793d22307078222077696474683d22323930707822206865696768743d22353030707822202f3e4142434445464748494a4b4c4d4e4f505152535455565758595a6162636465666768696a6b6c6d6e6f707172737475767778797a303132333435363738392b2f20786d6c6e733a786c696e6b3d27687474703a2f2f7777772e77332e6f72672f313939392f786c696e6b273e3c6c696e6561724772616469656e742069643d22677261642d73796d626f6c223e3c73746f70206f66667365743d22302e37222073746f702d636f6c6f723d227768697465222073746f702d6f7061636974793d223122202f3e3c73746f70206f66667365743d222e3935222073746f702d636f6c6f723d227768697465222073746f702d6f7061636974793d223022202f3e3c2f6c696e6561724772616469656e743e207374796c653d227472616e73666f726d3a7472616e736c61746528373270782c313839707829223e3c7265637420783d222d313670782220793d222d31367078222077696474683d22313830707822206865696768743d223138307078222066696c6c3d226e6f6e6522202f3e3c7061746820643d22207374796c653d227472616e73666f726d3a7472616e736c61746528373270782c313839707829223e70782220723d2232347078222066696c6c3d226e6f6e6522207374726f6b653d22776869746522202f3e3c7265637420783d222d313670782220793d222d31367078222077696474683d22313830707822206865696768743d223138307078222066696c6c3d226e6f6e6522202f3e536166654d6174683a206d756c7469706c69636174696f6e206f766572666c6f773c673e3c70617468207374796c653d227472616e73666f726d3a7472616e736c617465283670782c367078292220643d224d313220304c31322e3635323220392e35363538374c313820312e363037374c31332e373831392031302e323138314c32322e3339323320364c31342e34333431203c70617468207374726f6b652d6c696e656361703d22726f756e642220643d224d38203943382e30303030342032322e393439342031362e32303939203238203237203238222066696c6c3d226e6f6e6522207374726f6b653d22776869746522202f3e20726570656174436f756e743d22696e646566696e69746522202f3e3c2f74657874506174683e3c74657874506174682073746172744f66667365743d222d353025222066696c6c3d2277686974652220666f6e742d66616d696c793d2227436f7572696572204e6577272c206d6f6e6f73706163652220666f6e742d73697a653d22313070782220786c696e6b3a687265663d2223746578742d706174682d61223e3c6d61736b2069643d22666164652d646f776e22206d61736b436f6e74656e74556e6974733d226f626a656374426f756e64696e67426f78223e3c726563742077696474683d223122206865696768743d2231222066696c6c3d2275726c2823677261642d646f776e2922202f3e3c2f6d61736b3e22207374726f6b653d2272676261283235352c3235352c3235352c3129222066696c6c3d226e6f6e6522207374726f6b652d6c696e656361703d22726f756e6422202f3e3c2f673e696e3d22626c656e644f75742220737464446576696174696f6e3d22343222202f3e3c2f66696c7465723e203c636c6970506174682069643d22636f726e657273223e3c726563742077696474683d2232393022206865696768743d22353030222072783d223432222072793d22343222202f3e3c2f636c6970506174683e203c67207374796c653d227472616e73666f726d3a7472616e736c61746528323970782c20333834707829223e3c6c696e6561724772616469656e742069643d22677261642d7570222078313d2231222078323d2230222079313d2231222079323d2230223e3c73746f70206f66667365743d22302e30222073746f702d636f6c6f723d227768697465222073746f702d6f7061636974793d223122202f3e32334c31302e323138312031332e373831394c312e363037372031384c392e35363538372031322e363532324c302031324c392e35363538372031312e333437384c312e3630373720364c31302e323138312031302e323138314c3620312e363037374c31312e3334373820392e35363538374c313220305a222066696c6c3d22776869746522202f3e3c67207374796c653d227472616e73666f726d3a7472616e736c6174652832323670782c20333932707829223e3c726563742077696474683d223336707822206865696768743d2233367078222072783d22387078222072793d22387078222066696c6c3d226e6f6e6522207374726f6b653d2272676261283235352c3235352c3235352c302e322922202f3e3c74657874506174682073746172744f66667365743d22353025222066696c6c3d2277686974652220666f6e742d66616d696c793d2227436f7572696572204e6577272c206d6f6e6f73706163652220666f6e742d73697a653d22313070782220786c696e6b3a687265663d2223746578742d706174682d61223e3c7465787420783d22313270782220793d22313770782220666f6e742d66616d696c793d2227436f7572696572204e6577272c206d6f6e6f73706163652220666f6e742d73697a653d2231327078222066696c6c3d227768697465223e3c747370616e2066696c6c3d2272676261283235352c3235352c3235352c302e3629223e4d6178205469636b3a203c2f747370616e3e3c616e696d6174655472616e73666f726d206174747269627574654e616d653d227472616e73666f726d2220747970653d22726f74617465222066726f6d3d22302031382031382220746f3d2233363020313820313822206475723d223130732220726570656174436f756e743d22696e646566696e697465222f3e3c2f673e3c2f673e3c706174682069643d22746578742d706174682d612220643d224d34302031322048323530204132382032382030203020312032373820343020563436302041323820323820302030203120323530203438382048343020413238203238203020302031203132203436302056343020413238203238203020302031203430203132207a22202f3e222f3e3c6665496d61676520726573756c743d2270312220786c696e6b3a687265663d22646174613a696d6167652f7376672b786d6c3b6261736536342c3c6d61736b2069643d22666164652d73796d626f6c22206d61736b436f6e74656e74556e6974733d227573657253706163654f6e557365223e3c726563742077696474683d22323930707822206865696768743d223230307078222066696c6c3d2275726c2823677261642d73796d626f6c2922202f3e3c2f6d61736b3e3c2f646566733e3c7265637420783d22302220793d2230222077696474683d2232393022206865696768743d22353030222072783d223432222072793d223432222066696c6c3d227267626128302c302c302c302922207374726f6b653d2272676261283235352c3235352c3235352c302e322922202f3e3c2f673e3c66696c7465722069643d22746f702d726567696f6e2d626c7572223e3c6665476175737369616e426c757220696e3d22536f75726365477261706869632220737464446576696174696f6e3d22323422202f3e3c2f66696c7465723e3c2f74657874506174683e203c74657874506174682073746172744f66667365743d223025222066696c6c3d2277686974652220666f6e742d66616d696c793d2227436f7572696572204e6577272c206d6f6e6f73706163652220666f6e742d73697a653d22313070782220786c696e6b3a687265663d2223746578742d706174682d61223e3c7465787420746578742d72656e646572696e673d226f7074696d697a655370656564223e5369676e6564536166654d6174683a207375627472616374696f6e206f766572666c6f773c7265637420783d2231362220793d223136222077696474683d2232353822206865696768743d22343638222072783d223236222072793d223236222066696c6c3d227267626128302c302c302c302922207374726f6b653d2272676261283235352c3235352c3235352c302e322922202f3e3c7465787420783d22313270782220793d22313770782220666f6e742d66616d696c793d2227436f7572696572204e6577272c206d6f6e6f73706163652220666f6e742d73697a653d2231327078222066696c6c3d227768697465223e3c747370616e2066696c6c3d2272676261283235352c3235352c3235352c302e3629223e49443a203c2f747370616e3e3c726563742077696474683d223336707822206865696768743d2233367078222072783d22387078222072793d22387078222066696c6c3d226e6f6e6522207374726f6b653d2272676261283235352c3235352c3235352c302e322922202f3e3c2f746578743e3c7465787420793d2231313570782220783d2233327078222066696c6c3d2277686974652220666f6e742d66616d696c793d2227436f7572696572204e6577272c206d6f6e6f73706163652220666f6e742d7765696768743d223230302220666f6e742d73697a653d2233367078223e3c2f746578743e3c2f673e3c67207374796c653d227472616e73666f726d3a7472616e736c6174652832323670782c20343333707829223e203c67207374796c653d227472616e73666f726d3a7472616e736c61746528323970782c20343134707829223ea2646970667358221220636b7947c2018d6c91ac4e350e5374acd3059e5ae9709939ade465f6f6d5d12c64736f6c63430007060033",
			"opcodes": "PUSH2 0x5AFD PUSH2 0x26 PUSH1 0xB DUP3 DUP3 DUP3 CODECOPY DUP1 MLOAD PUSH1 0x0 BYTE PUSH1 0x73 EQ PUSH2 0x19 JUMPI INVALID JUMPDEST ADDRESS PUSH1 0x0 MSTORE PUSH1 0x73 DUP2 MSTORE8 DUP3 DUP2 RETURN INVALID PUSH20 0x0 ADDRESS EQ PUSH1 0x80 PUSH1 0x40 MSTORE PUSH1 0x4 CALLDATASIZE LT PUSH2 0x35 JUMPI PUSH1 0x0 CALLDATALOAD PUSH1 0xE0 SHR DUP1 PUSH4 0xC49917D7 EQ PUSH2 0x3A JUMPI JUMPDEST PUSH1 0x0 DUP1 REVERT JUMPDEST PUSH2 0x4D PUSH2 0x48 CALLDATASIZE PUSH1 0x4 PUSH2 0x3B0D JUMP JUMPDEST PUSH2 0x63 JUMP JUMPDEST PUSH1 0x40 MLOAD PUSH2 0x5A SWAP2 SWAP1 PUSH2 0x4142 JUMP JUMPDEST PUSH1 0x40 MLOAD DUP1 SWAP2 SUB SWAP1 RETURN JUMPDEST PUSH1 0x60 PUSH1 0x0 PUSH2 0x7E DUP4 PUSH2 0x79 DUP6 PUSH2 0x180 ADD MLOAD PUSH2 0x170 JUMP JUMPDEST PUSH2 0x3B6 JUMP JUMPDEST SWAP1 POP PUSH1 0x0 PUSH2 0xB2 PUSH2 0x92 DUP6 PUSH1 0x60 ADD MLOAD PUSH2 0x471 JUMP JUMPDEST PUSH2 0x9F DUP7 PUSH1 0x80 ADD MLOAD PUSH2 0x471 JUMP JUMPDEST PUSH2 0xAD DUP8 PUSH2 0x1A0 ADD MLOAD PUSH2 0x5DC JUMP JUMPDEST PUSH2 0x5F2 JUMP JUMPDEST SWAP1 POP PUSH1 0x0 PUSH2 0x100 PUSH2 0xC6 DUP7 PUSH1 0x0 ADD MLOAD PUSH2 0x624 JUMP JUMPDEST PUSH2 0xD3 DUP8 PUSH1 0x80 ADD MLOAD PUSH2 0x471 JUMP JUMPDEST PUSH2 0xE0 DUP9 PUSH1 0x20 ADD MLOAD PUSH2 0x5DC JUMP JUMPDEST PUSH2 0xED DUP10 PUSH1 0x40 ADD MLOAD PUSH2 0x5DC JUMP JUMPDEST PUSH2 0xFB DUP11 PUSH2 0x180 ADD MLOAD PUSH2 0x170 JUMP JUMPDEST PUSH2 0x6FE JUMP JUMPDEST SWAP1 POP PUSH1 0x0 PUSH2 0x115 PUSH2 0x110 DUP8 PUSH2 0x734 JUMP JUMPDEST PUSH2 0x96F JUMP JUMPDEST SWAP1 POP PUSH2 0x145 DUP5 DUP5 DUP5 DUP5 PUSH1 0x40 MLOAD PUSH1 0x20 ADD PUSH2 0x131 SWAP5 SWAP4 SWAP3 SWAP2 SWAP1 PUSH2 0x3E86 JUMP JUMPDEST PUSH1 0x40 MLOAD PUSH1 0x20 DUP2 DUP4 SUB SUB DUP2 MSTORE SWAP1 PUSH1 0x40 MSTORE PUSH2 0x96F JUMP JUMPDEST PUSH1 0x40 MLOAD PUSH1 0x20 ADD PUSH2 0x155 SWAP2 SWAP1 PUSH2 0x40FD JUMP JUMPDEST PUSH1 0x40 MLOAD PUSH1 0x20 DUP2 DUP4 SUB SUB DUP2 MSTORE SWAP1 PUSH1 0x40 MSTORE SWAP5 POP POP POP POP POP JUMPDEST SWAP2 SWAP1 POP JUMP JUMPDEST PUSH1 0x60 PUSH3 0xFFFFFF DUP3 AND PUSH2 0x19B JUMPI POP PUSH1 0x40 DUP1 MLOAD DUP1 DUP3 ADD SWAP1 SWAP2 MSTORE PUSH1 0x2 DUP2 MSTORE PUSH2 0x3025 PUSH1 0xF0 SHL PUSH1 0x20 DUP3 ADD MSTORE PUSH2 0x16B JUMP JUMPDEST DUP2 PUSH1 0x0 DUP1 JUMPDEST PUSH3 0xFFFFFF DUP4 AND ISZERO PUSH2 0x1EB JUMPI PUSH1 0xFF DUP2 AND ISZERO PUSH2 0x1BC JUMPI PUSH1 0x1 ADD PUSH2 0x1D5 JUMP JUMPDEST PUSH1 0xA PUSH3 0xFFFFFF DUP5 AND MOD PUSH3 0xFFFFFF AND PUSH1 0x0 EQ PUSH2 0x1D5 JUMPI PUSH1 0x1 ADD JUMPDEST PUSH1 0x1 SWAP1 SWAP2 ADD SWAP1 PUSH1 0xA PUSH3 0xFFFFFF DUP5 AND DIV SWAP3 POP PUSH2 0x1A0 JUMP JUMPDEST PUSH2 0x1F3 PUSH2 0x3A08 JUMP JUMPDEST PUSH1 0x0 PUSH1 0x5 DUP5 LT PUSH2 0x2E8 JUMPI PUSH1 0x0 PUSH1 0x4 PUSH2 0x20E DUP7 PUSH1 0xFF DUP8 AND PUSH2 0xABC JUMP JUMPDEST LT ISZERO PUSH2 0x21B JUMPI PUSH1 0x1 PUSH2 0x21E JUMP JUMPDEST PUSH1 0x0 JUMPDEST PUSH1 0xFF SWAP1 DUP2 AND SWAP2 POP PUSH2 0x232 SWAP1 DUP6 AND PUSH1 0x1 PUSH2 0xABC JUMP JUMPDEST PUSH2 0x23D DUP7 PUSH1 0x5 PUSH2 0xABC JUMP JUMPDEST LT PUSH2 0x269 JUMPI PUSH2 0x264 PUSH2 0x253 PUSH1 0xFF DUP7 AND PUSH1 0x1 PUSH2 0xABC JUMP JUMPDEST PUSH2 0x25E DUP8 PUSH1 0x5 PUSH2 0xABC JUMP JUMPDEST SWAP1 PUSH2 0xABC JUMP JUMPDEST PUSH2 0x26C JUMP JUMPDEST PUSH1 0x0 JUMPDEST PUSH1 0xFF DUP6 AND PUSH1 0x80 DUP6 ADD DUP2 SWAP1 MSTORE SWAP1 SWAP3 POP PUSH2 0x28B SWAP1 PUSH1 0x1 SWAP1 PUSH2 0x25E SWAP1 DUP6 PUSH2 0xB19 JUMP JUMPDEST PUSH1 0xFF SWAP1 DUP2 AND PUSH1 0xA0 DUP6 ADD MSTORE PUSH1 0x80 DUP5 ADD MLOAD PUSH2 0x2B2 SWAP2 DUP4 SWAP2 PUSH2 0x2AC SWAP2 AND PUSH1 0x1 PUSH2 0xABC JUMP JUMPDEST SWAP1 PUSH2 0xB19 JUMP JUMPDEST PUSH1 0xFF SWAP1 DUP2 AND PUSH1 0x40 DUP6 ADD MSTORE PUSH2 0x2DA SWAP1 DUP3 SWAP1 PUSH2 0x2AC SWAP1 PUSH2 0x2D3 SWAP1 DUP9 AND PUSH1 0x1 PUSH2 0xB19 JUMP JUMPDEST DUP6 SWAP1 PUSH2 0xB19 JUMP JUMPDEST PUSH1 0xFF AND PUSH1 0x20 DUP5 ADD MSTORE POP PUSH2 0x358 JUMP JUMPDEST PUSH2 0x2F3 PUSH1 0x5 DUP6 PUSH2 0xABC JUMP JUMPDEST PUSH1 0x2 PUSH1 0x80 DUP5 ADD DUP2 SWAP1 MSTORE SWAP1 SWAP2 POP PUSH2 0x311 SWAP1 PUSH1 0x1 SWAP1 PUSH2 0x25E SWAP1 DUP5 SWAP1 PUSH2 0xB19 JUMP JUMPDEST PUSH1 0xFF SWAP1 DUP2 AND PUSH1 0xA0 DUP5 ADD MSTORE PUSH2 0x333 SWAP1 PUSH2 0x32C SWAP1 DUP6 AND PUSH1 0x2 PUSH2 0xB19 JUMP JUMPDEST DUP3 SWAP1 PUSH2 0xB19 JUMP JUMPDEST PUSH1 0xFF AND PUSH1 0x20 DUP4 ADD DUP2 SWAP1 MSTORE PUSH2 0x348 SWAP1 PUSH1 0x2 PUSH2 0xABC JUMP JUMPDEST PUSH1 0xFF AND PUSH1 0x40 DUP4 ADD MSTORE PUSH1 0x1 PUSH1 0xC0 DUP4 ADD MSTORE JUMPDEST PUSH2 0x377 PUSH2 0x368 DUP6 PUSH1 0xFF DUP7 AND PUSH2 0xABC JUMP JUMPDEST PUSH3 0xFFFFFF DUP10 AND SWAP1 PUSH1 0xA EXP PUSH2 0xB71 JUMP JUMPDEST DUP3 MSTORE PUSH1 0x1 PUSH1 0xE0 DUP4 ADD MSTORE PUSH1 0x4 DUP5 GT PUSH2 0x38F JUMPI PUSH1 0x0 PUSH2 0x39A JUMP JUMPDEST PUSH2 0x39A DUP5 PUSH1 0x4 PUSH2 0xABC JUMP JUMPDEST PUSH1 0xFF AND PUSH1 0x60 DUP4 ADD MSTORE PUSH2 0x3AB DUP3 PUSH2 0xBD5 JUMP JUMPDEST SWAP8 SWAP7 POP POP POP POP POP POP POP JUMP JUMPDEST PUSH1 0x60 DUP2 PUSH2 0x3C6 DUP5 PUSH1 0x60 ADD MLOAD PUSH2 0x471 JUMP JUMPDEST PUSH2 0x3D3 DUP6 PUSH1 0x80 ADD MLOAD PUSH2 0x471 JUMP JUMPDEST PUSH2 0x40C DUP7 PUSH1 0xE0 ADD MLOAD ISZERO PUSH2 0x3EB JUMPI DUP7 PUSH2 0x120 ADD MLOAD PUSH2 0x3F2 JUMP JUMPDEST DUP7 PUSH2 0x100 ADD MLOAD JUMPDEST DUP8 PUSH2 0x160 ADD MLOAD DUP9 PUSH1 0xC0 ADD MLOAD DUP10 PUSH1 0xA0 ADD MLOAD DUP11 PUSH1 0xE0 ADD MLOAD PUSH2 0xDE4 JUMP JUMPDEST PUSH2 0x445 DUP8 PUSH1 0xE0 ADD MLOAD ISZERO PUSH2 0x424 JUMPI DUP8 PUSH2 0x100 ADD MLOAD PUSH2 0x42B JUMP JUMPDEST DUP8 PUSH2 0x120 ADD MLOAD JUMPDEST DUP9 PUSH2 0x160 ADD MLOAD DUP10 PUSH1 0xC0 ADD MLOAD DUP11 PUSH1 0xA0 ADD MLOAD DUP12 PUSH1 0xE0 ADD MLOAD PUSH2 0xDE4 JUMP JUMPDEST PUSH1 0x40 MLOAD PUSH1 0x20 ADD PUSH2 0x459 SWAP6 SWAP5 SWAP4 SWAP3 SWAP2 SWAP1 PUSH2 0x3F61 JUMP JUMPDEST PUSH1 0x40 MLOAD PUSH1 0x20 DUP2 DUP4 SUB SUB DUP2 MSTORE SWAP1 PUSH1 0x40 MSTORE SWAP1 POP JUMPDEST SWAP3 SWAP2 POP POP JUMP JUMPDEST PUSH1 0x60 DUP2 PUSH1 0x0 DUP1 JUMPDEST DUP3 MLOAD DUP2 PUSH1 0xFF AND LT ISZERO PUSH2 0x4BD JUMPI DUP3 DUP2 PUSH1 0xFF AND DUP2 MLOAD DUP2 LT PUSH2 0x493 JUMPI INVALID JUMPDEST PUSH1 0x20 SWAP2 ADD ADD MLOAD PUSH1 0x1 PUSH1 0x1 PUSH1 0xF8 SHL SUB NOT AND PUSH1 0x11 PUSH1 0xF9 SHL EQ ISZERO PUSH2 0x4B5 JUMPI PUSH1 0x1 SWAP1 SWAP2 ADD SWAP1 JUMPDEST PUSH1 0x1 ADD PUSH2 0x478 JUMP JUMPDEST POP PUSH1 0xFF DUP2 AND ISZERO PUSH2 0x5D4 JUMPI PUSH1 0x0 DUP2 PUSH1 0xFF AND DUP4 MLOAD ADD PUSH1 0x1 PUSH1 0x1 PUSH1 0x40 SHL SUB DUP2 GT DUP1 ISZERO PUSH2 0x4E5 JUMPI PUSH1 0x0 DUP1 REVERT JUMPDEST POP PUSH1 0x40 MLOAD SWAP1 DUP1 DUP3 MSTORE DUP1 PUSH1 0x1F ADD PUSH1 0x1F NOT AND PUSH1 0x20 ADD DUP3 ADD PUSH1 0x40 MSTORE DUP1 ISZERO PUSH2 0x510 JUMPI PUSH1 0x20 DUP3 ADD DUP2 DUP1 CALLDATASIZE DUP4 CALLDATACOPY ADD SWAP1 POP JUMPDEST POP SWAP1 POP PUSH1 0x0 DUP1 JUMPDEST DUP5 MLOAD DUP2 PUSH1 0xFF AND LT ISZERO PUSH2 0x5C7 JUMPI DUP5 DUP2 PUSH1 0xFF AND DUP2 MLOAD DUP2 LT PUSH2 0x532 JUMPI INVALID JUMPDEST PUSH1 0x20 SWAP2 ADD ADD MLOAD PUSH1 0x1 PUSH1 0x1 PUSH1 0xF8 SHL SUB NOT AND PUSH1 0x11 PUSH1 0xF9 SHL EQ ISZERO PUSH2 0x57C JUMPI PUSH1 0x17 PUSH1 0xFA SHL DUP4 DUP4 DUP1 PUSH1 0x1 ADD SWAP5 POP DUP2 MLOAD DUP2 LT PUSH2 0x564 JUMPI INVALID JUMPDEST PUSH1 0x20 ADD ADD SWAP1 PUSH1 0x1 PUSH1 0x1 PUSH1 0xF8 SHL SUB NOT AND SWAP1 DUP2 PUSH1 0x0 BYTE SWAP1 MSTORE8 POP JUMPDEST DUP5 DUP2 PUSH1 0xFF AND DUP2 MLOAD DUP2 LT PUSH2 0x58B JUMPI INVALID JUMPDEST PUSH1 0x20 ADD ADD MLOAD PUSH1 0xF8 SHR PUSH1 0xF8 SHL DUP4 DUP4 DUP1 PUSH1 0x1 ADD SWAP5 POP DUP2 MLOAD DUP2 LT PUSH2 0x5A8 JUMPI INVALID JUMPDEST PUSH1 0x20 ADD ADD SWAP1 PUSH1 0x1 PUSH1 0x1 PUSH1 0xF8 SHL SUB NOT AND SWAP1 DUP2 PUSH1 0x0 BYTE SWAP1 MSTORE8 POP PUSH1 0x1 ADD PUSH2 0x517 JUMP JUMPDEST POP DUP2 SWAP5 POP POP POP POP POP PUSH2 0x16B JUMP JUMPDEST POP SWAP2 SWAP3 SWAP2 POP POP JUMP JUMPDEST PUSH1 0x60 PUSH2 0x46B PUSH1 0x1 PUSH1 0x1 PUSH1 0xA0 SHL SUB DUP4 AND PUSH1 0x14 PUSH2 0xEF9 JUMP JUMPDEST PUSH1 0x60 DUP4 DUP4 DUP4 DUP7 PUSH1 0x40 MLOAD PUSH1 0x20 ADD PUSH2 0x60B SWAP5 SWAP4 SWAP3 SWAP2 SWAP1 PUSH2 0x3D64 JUMP JUMPDEST PUSH1 0x40 MLOAD PUSH1 0x20 DUP2 DUP4 SUB SUB DUP2 MSTORE SWAP1 PUSH1 0x40 MSTORE SWAP1 POP JUMPDEST SWAP4 SWAP3 POP POP POP JUMP JUMPDEST PUSH1 0x60 DUP2 PUSH2 0x649 JUMPI POP PUSH1 0x40 DUP1 MLOAD DUP1 DUP3 ADD SWAP1 SWAP2 MSTORE PUSH1 0x1 DUP2 MSTORE PUSH1 0x3 PUSH1 0xFC SHL PUSH1 0x20 DUP3 ADD MSTORE PUSH2 0x16B JUMP JUMPDEST DUP2 PUSH1 0x0 JUMPDEST DUP2 ISZERO PUSH2 0x661 JUMPI PUSH1 0x1 ADD PUSH1 0xA DUP3 DIV SWAP2 POP PUSH2 0x64D JUMP JUMPDEST PUSH1 0x0 DUP2 PUSH1 0x1 PUSH1 0x1 PUSH1 0x40 SHL SUB DUP2 GT DUP1 ISZERO PUSH2 0x679 JUMPI PUSH1 0x0 DUP1 REVERT JUMPDEST POP PUSH1 0x40 MLOAD SWAP1 DUP1 DUP3 MSTORE DUP1 PUSH1 0x1F ADD PUSH1 0x1F NOT AND PUSH1 0x20 ADD DUP3 ADD PUSH1 0x40 MSTORE DUP1 ISZERO PUSH2 0x6A4 JUMPI PUSH1 0x20 DUP3 ADD DUP2 DUP1 CALLDATASIZE DUP4 CALLDATACOPY ADD SWAP1 POP JUMPDEST POP DUP6 SWAP4 POP SWAP1 POP PUSH1 0x0 NOT DUP3 ADD JUMPDEST DUP4 ISZERO PUSH2 0x6F5 JUMPI PUSH1 0xA DUP5 MOD PUSH1 0x30 ADD PUSH1 0xF8 SHL DUP3 DUP3 DUP1 PUSH1 0x1 SWAP1 SUB SWAP4 POP DUP2 MLOAD DUP2 LT PUSH2 0x6D3 JUMPI INVALID JUMPDEST PUSH1 0x20 ADD ADD SWAP1 PUSH1 0x1 PUSH1 0x1 PUSH1 0xF8 SHL SUB NOT AND SWAP1 DUP2 PUSH1 0x0 BYTE SWAP1 MSTORE8 POP PUSH1 0xA DUP5 DIV SWAP4 POP PUSH2 0x6B0 JUMP JUMPDEST POP SWAP5 SWAP4 POP POP POP POP JUMP JUMPDEST PUSH1 0x60 DUP4 DUP6 DUP5 DUP5 DUP10 PUSH1 0x40 MLOAD PUSH1 0x20 ADD PUSH2 0x719 SWAP6 SWAP5 SWAP4 SWAP3 SWAP2 SWAP1 PUSH2 0x401A JUMP JUMPDEST PUSH1 0x40 MLOAD PUSH1 0x20 DUP2 DUP4 SUB SUB DUP2 MSTORE SWAP1 PUSH1 0x40 MSTORE SWAP1 POP JUMPDEST SWAP6 SWAP5 POP POP POP POP POP JUMP JUMPDEST PUSH1 0x60 PUSH1 0x0 PUSH1 0x40 MLOAD DUP1 PUSH2 0x2A0 ADD PUSH1 0x40 MSTORE DUP1 PUSH2 0x751 DUP6 PUSH1 0x20 ADD MLOAD PUSH2 0x5DC JUMP JUMPDEST DUP2 MSTORE PUSH1 0x20 ADD PUSH2 0x763 DUP6 PUSH1 0x40 ADD MLOAD PUSH2 0x5DC JUMP JUMPDEST DUP2 MSTORE PUSH1 0x20 ADD DUP5 PUSH2 0x1A0 ADD MLOAD PUSH1 0x1 PUSH1 0x1 PUSH1 0xA0 SHL SUB AND DUP2 MSTORE PUSH1 0x20 ADD DUP5 PUSH1 0x60 ADD MLOAD DUP2 MSTORE PUSH1 0x20 ADD DUP5 PUSH1 0x80 ADD MLOAD DUP2 MSTORE PUSH1 0x20 ADD PUSH2 0x79E DUP6 PUSH2 0x180 ADD MLOAD PUSH2 0x170 JUMP JUMPDEST DUP2 MSTORE PUSH1 0x20 ADD DUP5 PUSH2 0x100 ADD MLOAD PUSH1 0x2 SIGNEXTEND DUP2 MSTORE PUSH1 0x20 ADD DUP5 PUSH2 0x120 ADD MLOAD PUSH1 0x2 SIGNEXTEND DUP2 MSTORE PUSH1 0x20 ADD DUP5 PUSH2 0x160 ADD MLOAD PUSH1 0x2 SIGNEXTEND DUP2 MSTORE PUSH1 0x20 ADD PUSH2 0x7E7 DUP6 PUSH2 0x100 ADD MLOAD DUP7 PUSH2 0x120 ADD MLOAD DUP8 PUSH2 0x140 ADD MLOAD PUSH2 0x1057 JUMP JUMPDEST PUSH1 0x0 SIGNEXTEND DUP2 MSTORE PUSH1 0x20 ADD DUP5 PUSH1 0x0 ADD MLOAD DUP2 MSTORE PUSH1 0x20 ADD PUSH2 0x811 DUP6 PUSH1 0x20 ADD MLOAD PUSH1 0x1 PUSH1 0x1 PUSH1 0xA0 SHL SUB AND PUSH1 0x88 PUSH2 0x108E JUMP JUMPDEST DUP2 MSTORE PUSH1 0x20 ADD PUSH2 0x82E DUP6 PUSH1 0x40 ADD MLOAD PUSH1 0x1 PUSH1 0x1 PUSH1 0xA0 SHL SUB AND PUSH1 0x88 PUSH2 0x108E JUMP JUMPDEST DUP2 MSTORE PUSH1 0x20 ADD PUSH2 0x84B DUP6 PUSH1 0x20 ADD MLOAD PUSH1 0x1 PUSH1 0x1 PUSH1 0xA0 SHL SUB AND PUSH1 0x0 PUSH2 0x108E JUMP JUMPDEST DUP2 MSTORE PUSH1 0x20 ADD PUSH2 0x868 DUP6 PUSH1 0x40 ADD MLOAD PUSH1 0x1 PUSH1 0x1 PUSH1 0xA0 SHL SUB AND PUSH1 0x0 PUSH2 0x108E JUMP JUMPDEST DUP2 MSTORE PUSH1 0x20 ADD PUSH2 0x89B PUSH2 0x88D DUP7 PUSH1 0x20 ADD MLOAD PUSH1 0x1 PUSH1 0x1 PUSH1 0xA0 SHL SUB AND PUSH1 0x10 DUP9 PUSH1 0x0 ADD MLOAD PUSH2 0x109D JUMP JUMPDEST PUSH1 0x0 PUSH1 0xFF PUSH1 0x10 PUSH2 0x112 PUSH2 0x10BD JUMP JUMPDEST DUP2 MSTORE PUSH1 0x20 ADD PUSH2 0x8CE PUSH2 0x8C0 DUP7 PUSH1 0x40 ADD MLOAD PUSH1 0x1 PUSH1 0x1 PUSH1 0xA0 SHL SUB AND PUSH1 0x10 DUP9 PUSH1 0x0 ADD MLOAD PUSH2 0x109D JUMP JUMPDEST PUSH1 0x0 PUSH1 0xFF PUSH1 0x64 PUSH2 0x1E4 PUSH2 0x10BD JUMP JUMPDEST DUP2 MSTORE PUSH1 0x20 ADD PUSH2 0x8F3 PUSH2 0x88D DUP7 PUSH1 0x20 ADD MLOAD PUSH1 0x1 PUSH1 0x1 PUSH1 0xA0 SHL SUB AND PUSH1 0x20 DUP9 PUSH1 0x0 ADD MLOAD PUSH2 0x109D JUMP JUMPDEST DUP2 MSTORE PUSH1 0x20 ADD PUSH2 0x918 PUSH2 0x8C0 DUP7 PUSH1 0x40 ADD MLOAD PUSH1 0x1 PUSH1 0x1 PUSH1 0xA0 SHL SUB AND PUSH1 0x20 DUP9 PUSH1 0x0 ADD MLOAD PUSH2 0x109D JUMP JUMPDEST DUP2 MSTORE PUSH1 0x20 ADD PUSH2 0x93D PUSH2 0x88D DUP7 PUSH1 0x20 ADD MLOAD PUSH1 0x1 PUSH1 0x1 PUSH1 0xA0 SHL SUB AND PUSH1 0x30 DUP9 PUSH1 0x0 ADD MLOAD PUSH2 0x109D JUMP JUMPDEST DUP2 MSTORE PUSH1 0x20 ADD PUSH2 0x962 PUSH2 0x8C0 DUP7 PUSH1 0x40 ADD MLOAD PUSH1 0x1 PUSH1 0x1 PUSH1 0xA0 SHL SUB AND PUSH1 0x30 DUP9 PUSH1 0x0 ADD MLOAD PUSH2 0x109D JUMP JUMPDEST SWAP1 MSTORE SWAP1 POP PUSH2 0x61D DUP2 PUSH2 0x1105 JUMP JUMPDEST PUSH1 0x60 DUP2 MLOAD PUSH1 0x0 EQ ISZERO PUSH2 0x990 JUMPI POP PUSH1 0x40 DUP1 MLOAD PUSH1 0x20 DUP2 ADD SWAP1 SWAP2 MSTORE PUSH1 0x0 DUP2 MSTORE PUSH2 0x16B JUMP JUMPDEST PUSH1 0x0 PUSH1 0x40 MLOAD DUP1 PUSH1 0x60 ADD PUSH1 0x40 MSTORE DUP1 PUSH1 0x40 DUP2 MSTORE PUSH1 0x20 ADD PUSH2 0x4D62 PUSH1 0x40 SWAP2 CODECOPY SWAP1 POP PUSH1 0x0 PUSH1 0x3 DUP5 MLOAD PUSH1 0x2 ADD DUP2 PUSH2 0x9BD JUMPI INVALID JUMPDEST DIV PUSH1 0x4 MUL SWAP1 POP PUSH1 0x0 DUP2 PUSH1 0x20 ADD PUSH1 0x1 PUSH1 0x1 PUSH1 0x40 SHL SUB DUP2 GT DUP1 ISZERO PUSH2 0x9DE JUMPI PUSH1 0x0 DUP1 REVERT JUMPDEST POP PUSH1 0x40 MLOAD SWAP1 DUP1 DUP3 MSTORE DUP1 PUSH1 0x1F ADD PUSH1 0x1F NOT AND PUSH1 0x20 ADD DUP3 ADD PUSH1 0x40 MSTORE DUP1 ISZERO PUSH2 0xA09 JUMPI PUSH1 0x20 DUP3 ADD DUP2 DUP1 CALLDATASIZE DUP4 CALLDATACOPY ADD SWAP1 POP JUMPDEST POP SWAP1 POP DUP2 DUP2 MSTORE PUSH1 0x1 DUP4 ADD DUP6 DUP7 MLOAD DUP2 ADD PUSH1 0x20 DUP5 ADD JUMPDEST DUP2 DUP4 LT ISZERO PUSH2 0xA77 JUMPI PUSH1 0x3 SWAP3 DUP4 ADD DUP1 MLOAD PUSH1 0x3F PUSH1 0x12 DUP3 SWAP1 SHR DUP2 AND DUP8 ADD MLOAD PUSH1 0xF8 SWAP1 DUP2 SHL DUP6 MSTORE PUSH1 0xC DUP4 SWAP1 SHR DUP3 AND DUP9 ADD MLOAD DUP2 SHL PUSH1 0x1 DUP7 ADD MSTORE PUSH1 0x6 DUP4 SWAP1 SHR DUP3 AND DUP9 ADD MLOAD DUP2 SHL PUSH1 0x2 DUP7 ADD MSTORE SWAP2 AND DUP7 ADD MLOAD SWAP1 SHL SWAP4 DUP3 ADD SWAP4 SWAP1 SWAP4 MSTORE PUSH1 0x4 ADD PUSH2 0xA1D JUMP JUMPDEST PUSH1 0x3 DUP10 MLOAD MOD PUSH1 0x1 DUP2 EQ PUSH2 0xA91 JUMPI PUSH1 0x2 DUP2 EQ PUSH2 0xAA2 JUMPI PUSH2 0xAAE JUMP JUMPDEST PUSH2 0x3D3D PUSH1 0xF0 SHL PUSH1 0x1 NOT DUP4 ADD MSTORE PUSH2 0xAAE JUMP JUMPDEST PUSH1 0x3D PUSH1 0xF8 SHL PUSH1 0x0 NOT DUP4 ADD MSTORE JUMPDEST POP SWAP4 SWAP9 SWAP8 POP POP POP POP POP POP POP POP JUMP JUMPDEST PUSH1 0x0 DUP3 DUP3 GT ISZERO PUSH2 0xB13 JUMPI PUSH1 0x40 DUP1 MLOAD PUSH3 0x461BCD PUSH1 0xE5 SHL DUP2 MSTORE PUSH1 0x20 PUSH1 0x4 DUP3 ADD MSTORE PUSH1 0x1E PUSH1 0x24 DUP3 ADD MSTORE PUSH32 0x536166654D6174683A207375627472616374696F6E206F766572666C6F770000 PUSH1 0x44 DUP3 ADD MSTORE SWAP1 MLOAD SWAP1 DUP2 SWAP1 SUB PUSH1 0x64 ADD SWAP1 REVERT JUMPDEST POP SWAP1 SUB SWAP1 JUMP JUMPDEST PUSH1 0x0 DUP3 DUP3 ADD DUP4 DUP2 LT ISZERO PUSH2 0x61D JUMPI PUSH1 0x40 DUP1 MLOAD PUSH3 0x461BCD PUSH1 0xE5 SHL DUP2 MSTORE PUSH1 0x20 PUSH1 0x4 DUP3 ADD MSTORE PUSH1 0x1B PUSH1 0x24 DUP3 ADD MSTORE PUSH27 0x536166654D6174683A206164646974696F6E206F766572666C6F77 PUSH1 0x28 SHL PUSH1 0x44 DUP3 ADD MSTORE SWAP1 MLOAD SWAP1 DUP2 SWAP1 SUB PUSH1 0x64 ADD SWAP1 REVERT JUMPDEST PUSH1 0x0 DUP1 DUP3 GT PUSH2 0xBC4 JUMPI PUSH1 0x40 DUP1 MLOAD PUSH3 0x461BCD PUSH1 0xE5 SHL DUP2 MSTORE PUSH1 0x20 PUSH1 0x4 DUP3 ADD MSTORE PUSH1 0x1A PUSH1 0x24 DUP3 ADD MSTORE PUSH26 0x536166654D6174683A206469766973696F6E206279207A65726F PUSH1 0x30 SHL PUSH1 0x44 DUP3 ADD MSTORE SWAP1 MLOAD SWAP1 DUP2 SWAP1 SUB PUSH1 0x64 ADD SWAP1 REVERT JUMPDEST DUP2 DUP4 DUP2 PUSH2 0xBCD JUMPI INVALID JUMPDEST DIV SWAP4 SWAP3 POP POP POP JUMP JUMPDEST PUSH1 0x60 PUSH1 0x0 DUP3 PUSH1 0x20 ADD MLOAD PUSH1 0xFF AND PUSH1 0x1 PUSH1 0x1 PUSH1 0x40 SHL SUB DUP2 GT DUP1 ISZERO PUSH2 0xBF6 JUMPI PUSH1 0x0 DUP1 REVERT JUMPDEST POP PUSH1 0x40 MLOAD SWAP1 DUP1 DUP3 MSTORE DUP1 PUSH1 0x1F ADD PUSH1 0x1F NOT AND PUSH1 0x20 ADD DUP3 ADD PUSH1 0x40 MSTORE DUP1 ISZERO PUSH2 0xC21 JUMPI PUSH1 0x20 DUP3 ADD DUP2 DUP1 CALLDATASIZE DUP4 CALLDATACOPY ADD SWAP1 POP JUMPDEST POP SWAP1 POP DUP3 PUSH1 0xE0 ADD MLOAD ISZERO PUSH2 0xC5B JUMPI PUSH1 0x25 PUSH1 0xF8 SHL DUP2 PUSH1 0x1 DUP4 MLOAD SUB DUP2 MLOAD DUP2 LT PUSH2 0xC43 JUMPI INVALID JUMPDEST PUSH1 0x20 ADD ADD SWAP1 PUSH1 0x1 PUSH1 0x1 PUSH1 0xF8 SHL SUB NOT AND SWAP1 DUP2 PUSH1 0x0 BYTE SWAP1 MSTORE8 POP JUMPDEST DUP3 PUSH1 0xC0 ADD MLOAD ISZERO PUSH2 0xCB8 JUMPI PUSH1 0x3 PUSH1 0xFC SHL DUP2 PUSH1 0x0 DUP2 MLOAD DUP2 LT PUSH2 0xC77 JUMPI INVALID JUMPDEST PUSH1 0x20 ADD ADD SWAP1 PUSH1 0x1 PUSH1 0x1 PUSH1 0xF8 SHL SUB NOT AND SWAP1 DUP2 PUSH1 0x0 BYTE SWAP1 MSTORE8 POP PUSH1 0x17 PUSH1 0xF9 SHL DUP2 PUSH1 0x1 DUP2 MLOAD DUP2 LT PUSH2 0xCA0 JUMPI INVALID JUMPDEST PUSH1 0x20 ADD ADD SWAP1 PUSH1 0x1 PUSH1 0x1 PUSH1 0xF8 SHL SUB NOT AND SWAP1 DUP2 PUSH1 0x0 BYTE SWAP1 MSTORE8 POP JUMPDEST PUSH1 0x80 DUP4 ADD MLOAD PUSH1 0xFF AND JUMPDEST PUSH1 0xA0 DUP5 ADD MLOAD PUSH2 0xCD4 SWAP1 PUSH1 0xFF AND PUSH1 0x1 PUSH2 0xB19 JUMP JUMPDEST DUP2 LT ISZERO PUSH2 0xD0B JUMPI PUSH1 0x30 PUSH1 0xF8 SHL DUP3 DUP3 DUP2 MLOAD DUP2 LT PUSH2 0xCEC JUMPI INVALID JUMPDEST PUSH1 0x20 ADD ADD SWAP1 PUSH1 0x1 PUSH1 0x1 PUSH1 0xF8 SHL SUB NOT AND SWAP1 DUP2 PUSH1 0x0 BYTE SWAP1 MSTORE8 POP PUSH1 0x1 ADD PUSH2 0xCC1 JUMP JUMPDEST POP JUMPDEST DUP3 MLOAD ISZERO PUSH2 0x46B JUMPI PUSH1 0x0 DUP4 PUSH1 0x60 ADD MLOAD PUSH1 0xFF AND GT DUP1 ISZERO PUSH2 0xD38 JUMPI POP DUP3 PUSH1 0x60 ADD MLOAD PUSH1 0xFF AND DUP4 PUSH1 0x40 ADD MLOAD PUSH1 0xFF AND EQ JUMPDEST ISZERO PUSH2 0xD7B JUMPI PUSH1 0x40 DUP4 ADD DUP1 MLOAD PUSH1 0xFF PUSH1 0x0 NOT DUP3 ADD DUP2 AND SWAP1 SWAP3 MSTORE DUP3 MLOAD PUSH1 0x17 PUSH1 0xF9 SHL SWAP3 DUP5 SWAP3 AND SWAP1 DUP2 LT PUSH2 0xD63 JUMPI INVALID JUMPDEST PUSH1 0x20 ADD ADD SWAP1 PUSH1 0x1 PUSH1 0x1 PUSH1 0xF8 SHL SUB NOT AND SWAP1 DUP2 PUSH1 0x0 BYTE SWAP1 MSTORE8 POP JUMPDEST DUP3 MLOAD PUSH2 0xD8D SWAP1 PUSH1 0x30 SWAP1 PUSH1 0xA SWAP1 MOD PUSH2 0xB19 JUMP JUMPDEST PUSH1 0xF8 SHL DUP2 DUP5 PUSH1 0x40 ADD DUP1 MLOAD DUP1 SWAP2 SWAP1 PUSH1 0x1 SWAP1 SUB PUSH1 0xFF AND PUSH1 0xFF AND DUP2 MSTORE POP PUSH1 0xFF AND DUP2 MLOAD DUP2 LT PUSH2 0xDB4 JUMPI INVALID JUMPDEST PUSH1 0x20 ADD ADD SWAP1 PUSH1 0x1 PUSH1 0x1 PUSH1 0xF8 SHL SUB NOT AND SWAP1 DUP2 PUSH1 0x0 BYTE SWAP1 MSTORE8 POP PUSH1 0xA DUP4 PUSH1 0x0 ADD DUP2 DUP2 MLOAD DUP2 PUSH2 0xDDB JUMPI INVALID JUMPDEST DIV SWAP1 MSTORE POP PUSH2 0xD0D JUMP JUMPDEST PUSH1 0x60 DUP5 PUSH1 0x2 DUP2 SWAP1 SIGNEXTEND PUSH3 0xD89E7 NOT DUP2 PUSH2 0xDF8 JUMPI INVALID JUMPDEST SDIV MUL PUSH1 0x2 SIGNEXTEND DUP7 PUSH1 0x2 SIGNEXTEND EQ ISZERO PUSH2 0xE52 JUMPI DUP2 ISZERO PUSH2 0xE2E JUMPI PUSH1 0x40 MLOAD DUP1 PUSH1 0x40 ADD PUSH1 0x40 MSTORE DUP1 PUSH1 0x3 DUP2 MSTORE PUSH1 0x20 ADD PUSH3 0x9A82B PUSH1 0xEB SHL DUP2 MSTORE POP PUSH2 0xE4B JUMP JUMPDEST PUSH1 0x40 MLOAD DUP1 PUSH1 0x40 ADD PUSH1 0x40 MSTORE DUP1 PUSH1 0x3 DUP2 MSTORE PUSH1 0x20 ADD PUSH3 0x26A4A7 PUSH1 0xE9 SHL DUP2 MSTORE POP JUMPDEST SWAP1 POP PUSH2 0x72B JUMP JUMPDEST DUP5 PUSH1 0x2 DUP2 SWAP1 SIGNEXTEND PUSH3 0xD89E8 DUP2 PUSH2 0xE63 JUMPI INVALID JUMPDEST SDIV MUL PUSH1 0x2 SIGNEXTEND DUP7 PUSH1 0x2 SIGNEXTEND EQ ISZERO PUSH2 0xEB9 JUMPI DUP2 ISZERO PUSH2 0xE99 JUMPI PUSH1 0x40 MLOAD DUP1 PUSH1 0x40 ADD PUSH1 0x40 MSTORE DUP1 PUSH1 0x3 DUP2 MSTORE PUSH1 0x20 ADD PUSH3 0x26A4A7 PUSH1 0xE9 SHL DUP2 MSTORE POP PUSH2 0xE4B JUMP JUMPDEST POP PUSH1 0x40 DUP1 MLOAD DUP1 DUP3 ADD SWAP1 SWAP2 MSTORE PUSH1 0x3 DUP2 MSTORE PUSH3 0x9A82B PUSH1 0xEB SHL PUSH1 0x20 DUP3 ADD MSTORE PUSH2 0x72B JUMP JUMPDEST PUSH1 0x0 PUSH2 0xEC4 DUP8 PUSH2 0x137D JUMP JUMPDEST SWAP1 POP DUP3 ISZERO PUSH2 0xEE6 JUMPI PUSH2 0xEE3 PUSH1 0x1 PUSH1 0xC0 SHL PUSH1 0x1 PUSH1 0x1 PUSH1 0xA0 SHL SUB DUP4 AND PUSH2 0xB71 JUMP JUMPDEST SWAP1 POP JUMPDEST PUSH2 0xEF1 DUP2 DUP7 DUP7 PUSH2 0x16A4 JUMP JUMPDEST SWAP2 POP POP PUSH2 0x72B JUMP JUMPDEST PUSH1 0x60 PUSH1 0x0 DUP3 PUSH1 0x2 MUL PUSH1 0x2 ADD PUSH1 0x1 PUSH1 0x1 PUSH1 0x40 SHL SUB DUP2 GT DUP1 ISZERO PUSH2 0xF19 JUMPI PUSH1 0x0 DUP1 REVERT JUMPDEST POP PUSH1 0x40 MLOAD SWAP1 DUP1 DUP3 MSTORE DUP1 PUSH1 0x1F ADD PUSH1 0x1F NOT AND PUSH1 0x20 ADD DUP3 ADD PUSH1 0x40 MSTORE DUP1 ISZERO PUSH2 0xF44 JUMPI PUSH1 0x20 DUP3 ADD DUP2 DUP1 CALLDATASIZE DUP4 CALLDATACOPY ADD SWAP1 POP JUMPDEST POP SWAP1 POP PUSH1 0x3 PUSH1 0xFC SHL DUP2 PUSH1 0x0 DUP2 MLOAD DUP2 LT PUSH2 0xF59 JUMPI INVALID JUMPDEST PUSH1 0x20 ADD ADD SWAP1 PUSH1 0x1 PUSH1 0x1 PUSH1 0xF8 SHL SUB NOT AND SWAP1 DUP2 PUSH1 0x0 BYTE SWAP1 MSTORE8 POP PUSH1 0xF PUSH1 0xFB SHL DUP2 PUSH1 0x1 DUP2 MLOAD DUP2 LT PUSH2 0xF82 JUMPI INVALID JUMPDEST PUSH1 0x20 ADD ADD SWAP1 PUSH1 0x1 PUSH1 0x1 PUSH1 0xF8 SHL SUB NOT AND SWAP1 DUP2 PUSH1 0x0 BYTE SWAP1 MSTORE8 POP PUSH1 0x1 PUSH1 0x2 DUP5 MUL ADD JUMPDEST PUSH1 0x1 DUP2 GT ISZERO PUSH2 0x1003 JUMPI PUSH16 0x181899199A1A9B1B9C1CB0B131B232B3 PUSH1 0x81 SHL DUP6 PUSH1 0xF AND PUSH1 0x10 DUP2 LT PUSH2 0xFCC JUMPI INVALID JUMPDEST BYTE PUSH1 0xF8 SHL DUP3 DUP3 DUP2 MLOAD DUP2 LT PUSH2 0xFDC JUMPI INVALID JUMPDEST PUSH1 0x20 ADD ADD SWAP1 PUSH1 0x1 PUSH1 0x1 PUSH1 0xF8 SHL SUB NOT AND SWAP1 DUP2 PUSH1 0x0 BYTE SWAP1 MSTORE8 POP PUSH1 0x4 SWAP5 SWAP1 SWAP5 SHR SWAP4 PUSH1 0x0 NOT ADD PUSH2 0xFA1 JUMP JUMPDEST POP DUP4 ISZERO PUSH2 0x61D JUMPI PUSH1 0x40 DUP1 MLOAD PUSH3 0x461BCD PUSH1 0xE5 SHL DUP2 MSTORE PUSH1 0x20 PUSH1 0x4 DUP3 ADD DUP2 SWAP1 MSTORE PUSH1 0x24 DUP3 ADD MSTORE PUSH32 0x537472696E67733A20686578206C656E67746820696E73756666696369656E74 PUSH1 0x44 DUP3 ADD MSTORE SWAP1 MLOAD SWAP1 DUP2 SWAP1 SUB PUSH1 0x64 ADD SWAP1 REVERT JUMPDEST PUSH1 0x0 DUP4 PUSH1 0x2 SIGNEXTEND DUP3 PUSH1 0x2 SIGNEXTEND SLT ISZERO PUSH2 0x1070 JUMPI POP PUSH1 0x0 NOT PUSH2 0x61D JUMP JUMPDEST DUP3 PUSH1 0x2 SIGNEXTEND DUP3 PUSH1 0x2 SIGNEXTEND SGT ISZERO PUSH2 0x1086 JUMPI POP PUSH1 0x1 PUSH2 0x61D JUMP JUMPDEST POP PUSH1 0x0 PUSH2 0x61D JUMP JUMPDEST PUSH1 0x60 PUSH2 0x61D DUP4 DUP4 SHR PUSH1 0x3 PUSH2 0x1861 JUMP JUMPDEST PUSH1 0x0 PUSH1 0xFF DUP3 PUSH2 0x10AC DUP7 DUP7 PUSH2 0x191A JUMP JUMPDEST MUL DUP2 PUSH2 0x10B4 JUMPI INVALID JUMPDEST MOD SWAP5 SWAP4 POP POP POP POP JUMP JUMPDEST PUSH1 0x60 PUSH2 0x10FB PUSH2 0x10F6 DUP5 PUSH2 0x2AC PUSH2 0x10D3 DUP9 DUP11 PUSH2 0xABC JUMP JUMPDEST PUSH2 0x10F0 PUSH2 0x10E0 DUP9 DUP11 PUSH2 0xABC JUMP JUMPDEST PUSH2 0x10EA DUP14 DUP14 PUSH2 0xABC JUMP JUMPDEST SWAP1 PUSH2 0x1921 JUMP JUMPDEST SWAP1 PUSH2 0xB71 JUMP JUMPDEST PUSH2 0x624 JUMP JUMPDEST SWAP7 SWAP6 POP POP POP POP POP POP JUMP JUMPDEST PUSH1 0x60 PUSH2 0x1110 DUP3 PUSH2 0x197A JUMP JUMPDEST PUSH2 0x112C DUP4 PUSH1 0x0 ADD MLOAD DUP5 PUSH1 0x20 ADD MLOAD DUP6 PUSH1 0x60 ADD MLOAD DUP7 PUSH1 0x80 ADD MLOAD PUSH2 0x1FD9 JUMP JUMPDEST PUSH2 0x1143 DUP5 PUSH1 0x60 ADD MLOAD DUP6 PUSH1 0x80 ADD MLOAD DUP7 PUSH1 0xA0 ADD MLOAD PUSH2 0x2304 JUMP JUMPDEST PUSH2 0x1161 DUP6 PUSH1 0xC0 ADD MLOAD DUP7 PUSH1 0xE0 ADD MLOAD DUP8 PUSH2 0x100 ADD MLOAD DUP9 PUSH2 0x120 ADD MLOAD PUSH2 0x2454 JUMP JUMPDEST PUSH2 0x1181 PUSH2 0x1172 DUP8 PUSH2 0x140 ADD MLOAD PUSH2 0x624 JUMP JUMPDEST DUP8 PUSH1 0xC0 ADD MLOAD DUP9 PUSH1 0xE0 ADD MLOAD PUSH2 0x2737 JUMP JUMPDEST PUSH2 0x1194 DUP8 PUSH2 0x140 ADD MLOAD DUP9 PUSH1 0x40 ADD MLOAD PUSH2 0x2B4F JUMP JUMPDEST PUSH1 0x40 MLOAD PUSH1 0x20 ADD DUP1 DUP8 DUP1 MLOAD SWAP1 PUSH1 0x20 ADD SWAP1 DUP1 DUP4 DUP4 JUMPDEST PUSH1 0x20 DUP4 LT PUSH2 0x11C6 JUMPI DUP1 MLOAD DUP3 MSTORE PUSH1 0x1F NOT SWAP1 SWAP3 ADD SWAP2 PUSH1 0x20 SWAP2 DUP3 ADD SWAP2 ADD PUSH2 0x11A7 JUMP JUMPDEST MLOAD DUP2 MLOAD PUSH1 0x20 SWAP4 DUP5 SUB PUSH2 0x100 EXP PUSH1 0x0 NOT ADD DUP1 NOT SWAP1 SWAP3 AND SWAP2 AND OR SWAP1 MSTORE DUP10 MLOAD SWAP2 SWAP1 SWAP4 ADD SWAP3 DUP10 ADD SWAP2 POP DUP1 DUP4 DUP4 JUMPDEST PUSH1 0x20 DUP4 LT PUSH2 0x120E JUMPI DUP1 MLOAD DUP3 MSTORE PUSH1 0x1F NOT SWAP1 SWAP3 ADD SWAP2 PUSH1 0x20 SWAP2 DUP3 ADD SWAP2 ADD PUSH2 0x11EF JUMP JUMPDEST MLOAD DUP2 MLOAD PUSH1 0x20 SWAP4 DUP5 SUB PUSH2 0x100 EXP PUSH1 0x0 NOT ADD DUP1 NOT SWAP1 SWAP3 AND SWAP2 AND OR SWAP1 MSTORE DUP9 MLOAD SWAP2 SWAP1 SWAP4 ADD SWAP3 DUP9 ADD SWAP2 POP DUP1 DUP4 DUP4 JUMPDEST PUSH1 0x20 DUP4 LT PUSH2 0x1256 JUMPI DUP1 MLOAD DUP3 MSTORE PUSH1 0x1F NOT SWAP1 SWAP3 ADD SWAP2 PUSH1 0x20 SWAP2 DUP3 ADD SWAP2 ADD PUSH2 0x1237 JUMP JUMPDEST MLOAD DUP2 MLOAD PUSH1 0x20 SWAP4 DUP5 SUB PUSH2 0x100 EXP PUSH1 0x0 NOT ADD DUP1 NOT SWAP1 SWAP3 AND SWAP2 AND OR SWAP1 MSTORE DUP8 MLOAD SWAP2 SWAP1 SWAP4 ADD SWAP3 DUP8 ADD SWAP2 POP DUP1 DUP4 DUP4 JUMPDEST PUSH1 0x20 DUP4 LT PUSH2 0x129E JUMPI DUP1 MLOAD DUP3 MSTORE PUSH1 0x1F NOT SWAP1 SWAP3 ADD SWAP2 PUSH1 0x20 SWAP2 DUP3 ADD SWAP2 ADD PUSH2 0x127F JUMP JUMPDEST MLOAD DUP2 MLOAD PUSH1 0x20 SWAP4 DUP5 SUB PUSH2 0x100 EXP PUSH1 0x0 NOT ADD DUP1 NOT SWAP1 SWAP3 AND SWAP2 AND OR SWAP1 MSTORE DUP7 MLOAD SWAP2 SWAP1 SWAP4 ADD SWAP3 DUP7 ADD SWAP2 POP DUP1 DUP4 DUP4 JUMPDEST PUSH1 0x20 DUP4 LT PUSH2 0x12E6 JUMPI DUP1 MLOAD DUP3 MSTORE PUSH1 0x1F NOT SWAP1 SWAP3 ADD SWAP2 PUSH1 0x20 SWAP2 DUP3 ADD SWAP2 ADD PUSH2 0x12C7 JUMP JUMPDEST MLOAD DUP2 MLOAD PUSH1 0x20 SWAP4 DUP5 SUB PUSH2 0x100 EXP PUSH1 0x0 NOT ADD DUP1 NOT SWAP1 SWAP3 AND SWAP2 AND OR SWAP1 MSTORE DUP6 MLOAD SWAP2 SWAP1 SWAP4 ADD SWAP3 DUP6 ADD SWAP2 POP DUP1 DUP4 DUP4 JUMPDEST PUSH1 0x20 DUP4 LT PUSH2 0x132E JUMPI DUP1 MLOAD DUP3 MSTORE PUSH1 0x1F NOT SWAP1 SWAP3 ADD SWAP2 PUSH1 0x20 SWAP2 DUP3 ADD SWAP2 ADD PUSH2 0x130F JUMP JUMPDEST MLOAD DUP2 MLOAD PUSH1 0x20 SWAP4 SWAP1 SWAP4 SUB PUSH2 0x100 EXP PUSH1 0x0 NOT ADD DUP1 NOT SWAP1 SWAP2 AND SWAP3 AND SWAP2 SWAP1 SWAP2 OR SWAP1 MSTORE PUSH6 0x1E17B9BB339F PUSH1 0xD1 SHL SWAP3 ADD SWAP2 DUP3 MSTORE POP PUSH1 0x40 DUP1 MLOAD DUP1 DUP4 SUB PUSH1 0x19 NOT ADD DUP2 MSTORE PUSH1 0x6 SWAP1 SWAP3 ADD SWAP1 MSTORE SWAP10 SWAP9 POP POP POP POP POP POP POP POP POP JUMP JUMPDEST PUSH1 0x0 DUP1 PUSH1 0x0 DUP4 PUSH1 0x2 SIGNEXTEND SLT PUSH2 0x1394 JUMPI DUP3 PUSH1 0x2 SIGNEXTEND PUSH2 0x139C JUMP JUMPDEST DUP3 PUSH1 0x2 SIGNEXTEND PUSH1 0x0 SUB JUMPDEST SWAP1 POP PUSH3 0xD89E8 DUP2 GT ISZERO PUSH2 0x13DA JUMPI PUSH1 0x40 DUP1 MLOAD PUSH3 0x461BCD PUSH1 0xE5 SHL DUP2 MSTORE PUSH1 0x20 PUSH1 0x4 DUP3 ADD MSTORE PUSH1 0x1 PUSH1 0x24 DUP3 ADD MSTORE PUSH1 0x15 PUSH1 0xFA SHL PUSH1 0x44 DUP3 ADD MSTORE SWAP1 MLOAD SWAP1 DUP2 SWAP1 SUB PUSH1 0x64 ADD SWAP1 REVERT JUMPDEST PUSH1 0x0 PUSH1 0x1 DUP3 AND PUSH2 0x13EE JUMPI PUSH1 0x1 PUSH1 0x80 SHL PUSH2 0x1400 JUMP JUMPDEST PUSH16 0xFFFCB933BD6FAD37AA2D162D1A594001 JUMPDEST PUSH1 0x1 PUSH1 0x1 PUSH1 0x88 SHL SUB AND SWAP1 POP PUSH1 0x2 DUP3 AND ISZERO PUSH2 0x142A JUMPI PUSH16 0xFFF97272373D413259A46990580E213A MUL PUSH1 0x80 SHR JUMPDEST PUSH1 0x4 DUP3 AND ISZERO PUSH2 0x1449 JUMPI PUSH16 0xFFF2E50F5F656932EF12357CF3C7FDCC MUL PUSH1 0x80 SHR JUMPDEST PUSH1 0x8 DUP3 AND ISZERO PUSH2 0x1468 JUMPI PUSH16 0xFFE5CACA7E10E4E61C3624EAA0941CD0 MUL PUSH1 0x80 SHR JUMPDEST PUSH1 0x10 DUP3 AND ISZERO PUSH2 0x1487 JUMPI PUSH16 0xFFCB9843D60F6159C9DB58835C926644 MUL PUSH1 0x80 SHR JUMPDEST PUSH1 0x20 DUP3 AND ISZERO PUSH2 0x14A6 JUMPI PUSH16 0xFF973B41FA98C081472E6896DFB254C0 MUL PUSH1 0x80 SHR JUMPDEST PUSH1 0x40 DUP3 AND ISZERO PUSH2 0x14C5 JUMPI PUSH16 0xFF2EA16466C96A3843EC78B326B52861 MUL PUSH1 0x80 SHR JUMPDEST PUSH1 0x80 DUP3 AND ISZERO PUSH2 0x14E4 JUMPI PUSH16 0xFE5DEE046A99A2A811C461F1969C3053 MUL PUSH1 0x80 SHR JUMPDEST PUSH2 0x100 DUP3 AND ISZERO PUSH2 0x1504 JUMPI PUSH16 0xFCBE86C7900A88AEDCFFC83B479AA3A4 MUL PUSH1 0x80 SHR JUMPDEST PUSH2 0x200 DUP3 AND ISZERO PUSH2 0x1524 JUMPI PUSH16 0xF987A7253AC413176F2B074CF7815E54 MUL PUSH1 0x80 SHR JUMPDEST PUSH2 0x400 DUP3 AND ISZERO PUSH2 0x1544 JUMPI PUSH16 0xF3392B0822B70005940C7A398E4B70F3 MUL PUSH1 0x80 SHR JUMPDEST PUSH2 0x800 DUP3 AND ISZERO PUSH2 0x1564 JUMPI PUSH16 0xE7159475A2C29B7443B29C7FA6E889D9 MUL PUSH1 0x80 SHR JUMPDEST PUSH2 0x1000 DUP3 AND ISZERO PUSH2 0x1584 JUMPI PUSH16 0xD097F3BDFD2022B8845AD8F792AA5825 MUL PUSH1 0x80 SHR JUMPDEST PUSH2 0x2000 DUP3 AND ISZERO PUSH2 0x15A4 JUMPI PUSH16 0xA9F746462D870FDF8A65DC1F90E061E5 MUL PUSH1 0x80 SHR JUMPDEST PUSH2 0x4000 DUP3 AND ISZERO PUSH2 0x15C4 JUMPI PUSH16 0x70D869A156D2A1B890BB3DF62BAF32F7 MUL PUSH1 0x80 SHR JUMPDEST PUSH2 0x8000 DUP3 AND ISZERO PUSH2 0x15E4 JUMPI PUSH16 0x31BE135F97D08FD981231505542FCFA6 MUL PUSH1 0x80 SHR JUMPDEST PUSH3 0x10000 DUP3 AND ISZERO PUSH2 0x1605 JUMPI PUSH16 0x9AA508B5B7A84E1C677DE54F3E99BC9 MUL PUSH1 0x80 SHR JUMPDEST PUSH3 0x20000 DUP3 AND ISZERO PUSH2 0x1625 JUMPI PUSH15 0x5D6AF8DEDB81196699C329225EE604 MUL PUSH1 0x80 SHR JUMPDEST PUSH3 0x40000 DUP3 AND ISZERO PUSH2 0x1644 JUMPI PUSH14 0x2216E584F5FA1EA926041BEDFE98 MUL PUSH1 0x80 SHR JUMPDEST PUSH3 0x80000 DUP3 AND ISZERO PUSH2 0x1661 JUMPI PUSH12 0x48A170391F7DC42444E8FA2 MUL PUSH1 0x80 SHR JUMPDEST PUSH1 0x0 DUP5 PUSH1 0x2 SIGNEXTEND SGT ISZERO PUSH2 0x167C JUMPI DUP1 PUSH1 0x0 NOT DUP2 PUSH2 0x1678 JUMPI INVALID JUMPDEST DIV SWAP1 POP JUMPDEST PUSH1 0x1 PUSH1 0x20 SHL DUP2 MOD ISZERO PUSH2 0x168F JUMPI PUSH1 0x1 PUSH2 0x1692 JUMP JUMPDEST PUSH1 0x0 JUMPDEST PUSH1 0xFF AND PUSH1 0x20 DUP3 SWAP1 SHR ADD SWAP3 POP POP POP SWAP2 SWAP1 POP JUMP JUMPDEST PUSH1 0x60 PUSH1 0x0 PUSH2 0x16B3 DUP6 DUP6 DUP6 PUSH2 0x2BC7 JUMP JUMPDEST SWAP1 POP PUSH1 0x0 PUSH2 0x16C6 DUP3 DUP4 PUSH1 0x1 PUSH1 0x40 SHL PUSH2 0x2CC9 JUMP JUMPDEST SWAP1 POP PUSH1 0x1 PUSH1 0x60 SHL DUP3 LT DUP1 ISZERO PUSH2 0x16FB JUMPI PUSH2 0x16F4 DUP3 PUSH13 0x47BF19673DF52E37F2410011D1 PUSH1 0x2C SHL PUSH1 0x1 PUSH1 0x80 SHL PUSH2 0x2CC9 JUMP JUMPDEST SWAP2 POP PUSH2 0x1710 JUMP JUMPDEST PUSH2 0x170D DUP3 PUSH3 0x186A0 PUSH1 0x1 PUSH1 0x80 SHL PUSH2 0x2CC9 JUMP JUMPDEST SWAP2 POP JUMPDEST DUP2 PUSH1 0x0 JUMPDEST DUP2 ISZERO PUSH2 0x1728 JUMPI PUSH1 0x1 ADD PUSH1 0xA DUP3 DIV SWAP2 POP PUSH2 0x1714 JUMP JUMPDEST PUSH1 0x0 NOT ADD PUSH1 0x0 DUP1 PUSH2 0x1739 DUP7 DUP5 PUSH2 0x2D78 JUMP JUMPDEST SWAP2 POP SWAP2 POP DUP1 ISZERO PUSH2 0x174A JUMPI PUSH1 0x1 SWAP1 SWAP3 ADD SWAP2 JUMPDEST PUSH2 0x1752 PUSH2 0x3A08 JUMP JUMPDEST DUP6 ISZERO PUSH2 0x17BF JUMPI PUSH2 0x1771 PUSH2 0x1769 PUSH1 0x2B PUSH1 0xFF DUP8 AND PUSH2 0xABC JUMP JUMPDEST PUSH1 0x7 SWAP1 PUSH2 0xB19 JUMP JUMPDEST PUSH1 0xFF SWAP1 DUP2 AND PUSH1 0x20 DUP4 ADD MSTORE PUSH1 0x2 PUSH1 0x80 DUP4 ADD MSTORE PUSH2 0x1797 SWAP1 PUSH1 0x1 SWAP1 PUSH2 0x2AC SWAP1 PUSH1 0x2B SWAP1 DUP9 AND PUSH2 0xABC JUMP JUMPDEST PUSH1 0xFF SWAP1 DUP2 AND PUSH1 0xA0 DUP4 ADD MSTORE PUSH1 0x20 DUP3 ADD MLOAD PUSH2 0x17B2 SWAP2 AND PUSH1 0x1 PUSH2 0xABC JUMP JUMPDEST PUSH1 0xFF AND PUSH1 0x40 DUP3 ADD MSTORE PUSH2 0x1836 JUMP JUMPDEST PUSH1 0x9 DUP5 PUSH1 0xFF AND LT PUSH2 0x1808 JUMPI PUSH2 0x17D8 PUSH1 0xFF DUP6 AND PUSH1 0x4 PUSH2 0xABC JUMP JUMPDEST PUSH1 0xFF AND PUSH1 0x20 DUP3 ADD DUP2 SWAP1 MSTORE PUSH1 0x5 PUSH1 0x80 DUP4 ADD MSTORE PUSH2 0x17F4 SWAP1 PUSH1 0x1 PUSH2 0xABC JUMP JUMPDEST PUSH1 0xFF AND PUSH1 0xA0 DUP3 ADD MSTORE PUSH1 0x4 PUSH1 0x40 DUP3 ADD MSTORE PUSH2 0x1836 JUMP JUMPDEST PUSH1 0x6 PUSH1 0x20 DUP3 ADD MSTORE PUSH1 0x5 PUSH1 0x40 DUP3 ADD DUP2 SWAP1 MSTORE PUSH2 0x182D SWAP1 PUSH1 0x1 SWAP1 PUSH2 0x2AC SWAP1 PUSH1 0xFF DUP9 AND SWAP1 PUSH2 0xABC JUMP JUMPDEST PUSH1 0xFF AND PUSH1 0x60 DUP3 ADD MSTORE JUMPDEST DUP3 DUP2 MSTORE DUP6 ISZERO ISZERO PUSH1 0xC0 DUP3 ADD MSTORE PUSH1 0x0 PUSH1 0xE0 DUP3 ADD MSTORE PUSH2 0x1851 DUP2 PUSH2 0xBD5 JUMP JUMPDEST SWAP13 SWAP12 POP POP POP POP POP POP POP POP POP POP POP POP JUMP JUMPDEST PUSH1 0x60 PUSH1 0x0 DUP3 PUSH1 0x2 MUL PUSH1 0x1 PUSH1 0x1 PUSH1 0x40 SHL SUB DUP2 GT DUP1 ISZERO PUSH2 0x187E JUMPI PUSH1 0x0 DUP1 REVERT JUMPDEST POP PUSH1 0x40 MLOAD SWAP1 DUP1 DUP3 MSTORE DUP1 PUSH1 0x1F ADD PUSH1 0x1F NOT AND PUSH1 0x20 ADD DUP3 ADD PUSH1 0x40 MSTORE DUP1 ISZERO PUSH2 0x18A9 JUMPI PUSH1 0x20 DUP3 ADD DUP2 DUP1 CALLDATASIZE DUP4 CALLDATACOPY ADD SWAP1 POP JUMPDEST POP DUP1 MLOAD SWAP1 SWAP2 POP JUMPDEST DUP1 ISZERO PUSH2 0x1912 JUMPI PUSH16 0x181899199A1A9B1B9C1CB0B131B232B3 PUSH1 0x81 SHL DUP6 PUSH1 0xF AND PUSH1 0x10 DUP2 LT PUSH2 0x18D8 JUMPI INVALID JUMPDEST BYTE PUSH1 0xF8 SHL DUP3 PUSH1 0x1 DUP4 SUB DUP2 MLOAD DUP2 LT PUSH2 0x18EB JUMPI INVALID JUMPDEST PUSH1 0x20 ADD ADD SWAP1 PUSH1 0x1 PUSH1 0x1 PUSH1 0xF8 SHL SUB NOT AND SWAP1 DUP2 PUSH1 0x0 BYTE SWAP1 MSTORE8 POP PUSH1 0x4 SWAP5 SWAP1 SWAP5 SHR SWAP4 PUSH1 0x0 NOT ADD PUSH2 0x18B0 JUMP JUMPDEST POP SWAP4 SWAP3 POP POP POP JUMP JUMPDEST SHR PUSH1 0xFF AND SWAP1 JUMP JUMPDEST PUSH1 0x0 DUP3 PUSH2 0x1930 JUMPI POP PUSH1 0x0 PUSH2 0x46B JUMP JUMPDEST DUP3 DUP3 MUL DUP3 DUP5 DUP3 DUP2 PUSH2 0x193D JUMPI INVALID JUMPDEST DIV EQ PUSH2 0x61D JUMPI PUSH1 0x40 MLOAD PUSH3 0x461BCD PUSH1 0xE5 SHL DUP2 MSTORE PUSH1 0x4 ADD DUP1 DUP1 PUSH1 0x20 ADD DUP3 DUP2 SUB DUP3 MSTORE PUSH1 0x21 DUP2 MSTORE PUSH1 0x20 ADD DUP1 PUSH2 0x4F81 PUSH1 0x21 SWAP2 CODECOPY PUSH1 0x40 ADD SWAP2 POP POP PUSH1 0x40 MLOAD DUP1 SWAP2 SUB SWAP1 REVERT JUMPDEST PUSH1 0x60 PUSH2 0x1A0F DUP3 PUSH2 0x160 ADD MLOAD PUSH1 0x40 MLOAD PUSH1 0x20 ADD DUP1 DUP1 PUSH2 0x4B3B PUSH1 0x81 SWAP2 CODECOPY PUSH1 0x81 ADD DUP3 DUP1 MLOAD SWAP1 PUSH1 0x20 ADD SWAP1 DUP1 DUP4 DUP4 JUMPDEST PUSH1 0x20 DUP4 LT PUSH2 0x19C2 JUMPI DUP1 MLOAD DUP3 MSTORE PUSH1 0x1F NOT SWAP1 SWAP3 ADD SWAP2 PUSH1 0x20 SWAP2 DUP3 ADD SWAP2 ADD PUSH2 0x19A3 JUMP JUMPDEST PUSH1 0x1 DUP4 PUSH1 0x20 SUB PUSH2 0x100 EXP SUB DUP1 NOT DUP3 MLOAD AND DUP2 DUP5 MLOAD AND DUP1 DUP3 OR DUP6 MSTORE POP POP POP POP POP POP SWAP1 POP ADD DUP1 PUSH9 0x13979F1E17B9BB339F PUSH1 0xB9 SHL DUP2 MSTORE POP PUSH1 0x9 ADD SWAP2 POP POP PUSH1 0x40 MLOAD PUSH1 0x20 DUP2 DUP4 SUB SUB DUP2 MSTORE SWAP1 PUSH1 0x40 MSTORE PUSH2 0x96F JUMP JUMPDEST PUSH2 0x1B71 DUP4 PUSH2 0x1E0 ADD MLOAD DUP5 PUSH2 0x200 ADD MLOAD DUP6 PUSH2 0x180 ADD MLOAD PUSH1 0x40 MLOAD PUSH1 0x20 ADD DUP1 DUP1 PUSH2 0x4678 PUSH1 0x63 SWAP2 CODECOPY PUSH1 0x63 ADD DUP5 DUP1 MLOAD SWAP1 PUSH1 0x20 ADD SWAP1 DUP1 DUP4 DUP4 JUMPDEST PUSH1 0x20 DUP4 LT PUSH2 0x1A61 JUMPI DUP1 MLOAD DUP3 MSTORE PUSH1 0x1F NOT SWAP1 SWAP3 ADD SWAP2 PUSH1 0x20 SWAP2 DUP3 ADD SWAP2 ADD PUSH2 0x1A42 JUMP JUMPDEST MLOAD DUP2 MLOAD PUSH1 0x20 SWAP4 DUP5 SUB PUSH2 0x100 EXP PUSH1 0x0 NOT ADD DUP1 NOT SWAP1 SWAP3 AND SWAP2 AND OR SWAP1 MSTORE PUSH6 0x272063793D27 PUSH1 0xD0 SHL SWAP2 SWAP1 SWAP4 ADD SWAP1 DUP2 MSTORE DUP6 MLOAD PUSH1 0x6 SWAP1 SWAP2 ADD SWAP3 DUP7 ADD SWAP2 POP DUP1 DUP4 DUP4 JUMPDEST PUSH1 0x20 DUP4 LT PUSH2 0x1ABB JUMPI DUP1 MLOAD DUP3 MSTORE PUSH1 0x1F NOT SWAP1 SWAP3 ADD SWAP2 PUSH1 0x20 SWAP2 DUP3 ADD SWAP2 ADD PUSH2 0x1A9C JUMP JUMPDEST MLOAD DUP2 MLOAD PUSH1 0x20 SWAP4 DUP5 SUB PUSH2 0x100 EXP PUSH1 0x0 NOT ADD DUP1 NOT SWAP1 SWAP3 AND SWAP2 AND OR SWAP1 MSTORE PUSH19 0x2720723D273132307078272066696C6C3D2723 PUSH1 0x68 SHL SWAP2 SWAP1 SWAP4 ADD SWAP1 DUP2 MSTORE DUP5 MLOAD PUSH1 0x13 SWAP1 SWAP2 ADD SWAP3 DUP6 ADD SWAP2 POP DUP1 DUP4 DUP4 JUMPDEST PUSH1 0x20 DUP4 LT PUSH2 0x1B22 JUMPI DUP1 MLOAD DUP3 MSTORE PUSH1 0x1F NOT SWAP1 SWAP3 ADD SWAP2 PUSH1 0x20 SWAP2 DUP3 ADD SWAP2 ADD PUSH2 0x1B03 JUMP JUMPDEST PUSH1 0x1 DUP4 PUSH1 0x20 SUB PUSH2 0x100 EXP SUB DUP1 NOT DUP3 MLOAD AND DUP2 DUP5 MLOAD AND DUP1 DUP3 OR DUP6 MSTORE POP POP POP POP POP POP SWAP1 POP ADD DUP1 PUSH9 0x13979F1E17B9BB339F PUSH1 0xB9 SHL DUP2 MSTORE POP PUSH1 0x9 ADD SWAP4 POP POP POP POP PUSH1 0x40 MLOAD PUSH1 0x20 DUP2 DUP4 SUB SUB DUP2 MSTORE SWAP1 PUSH1 0x40 MSTORE PUSH2 0x96F JUMP JUMPDEST PUSH2 0x1BC2 DUP5 PUSH2 0x220 ADD MLOAD DUP6 PUSH2 0x240 ADD MLOAD DUP7 PUSH2 0x1A0 ADD MLOAD PUSH1 0x40 MLOAD PUSH1 0x20 ADD DUP1 DUP1 PUSH2 0x4678 PUSH1 0x63 SWAP2 CODECOPY PUSH1 0x63 ADD DUP5 DUP1 MLOAD SWAP1 PUSH1 0x20 ADD SWAP1 DUP1 DUP4 DUP4 PUSH1 0x20 DUP4 LT PUSH2 0x1A61 JUMPI DUP1 MLOAD DUP3 MSTORE PUSH1 0x1F NOT SWAP1 SWAP3 ADD SWAP2 PUSH1 0x20 SWAP2 DUP3 ADD SWAP2 ADD PUSH2 0x1A42 JUMP JUMPDEST PUSH2 0x1CD7 DUP6 PUSH2 0x260 ADD MLOAD DUP7 PUSH2 0x280 ADD MLOAD DUP8 PUSH2 0x1C0 ADD MLOAD PUSH1 0x40 MLOAD PUSH1 0x20 ADD DUP1 DUP1 PUSH2 0x4678 PUSH1 0x63 SWAP2 CODECOPY PUSH1 0x63 ADD DUP5 DUP1 MLOAD SWAP1 PUSH1 0x20 ADD SWAP1 DUP1 DUP4 DUP4 JUMPDEST PUSH1 0x20 DUP4 LT PUSH2 0x1C14 JUMPI DUP1 MLOAD DUP3 MSTORE PUSH1 0x1F NOT SWAP1 SWAP3 ADD SWAP2 PUSH1 0x20 SWAP2 DUP3 ADD SWAP2 ADD PUSH2 0x1BF5 JUMP JUMPDEST MLOAD DUP2 MLOAD PUSH1 0x20 SWAP4 DUP5 SUB PUSH2 0x100 EXP PUSH1 0x0 NOT ADD DUP1 NOT SWAP1 SWAP3 AND SWAP2 AND OR SWAP1 MSTORE PUSH6 0x272063793D27 PUSH1 0xD0 SHL SWAP2 SWAP1 SWAP4 ADD SWAP1 DUP2 MSTORE DUP6 MLOAD PUSH1 0x6 SWAP1 SWAP2 ADD SWAP3 DUP7 ADD SWAP2 POP DUP1 DUP4 DUP4 JUMPDEST PUSH1 0x20 DUP4 LT PUSH2 0x1C6E JUMPI DUP1 MLOAD DUP3 MSTORE PUSH1 0x1F NOT SWAP1 SWAP3 ADD SWAP2 PUSH1 0x20 SWAP2 DUP3 ADD SWAP2 ADD PUSH2 0x1C4F JUMP JUMPDEST MLOAD DUP2 MLOAD PUSH1 0x0 NOT PUSH1 0x20 SWAP5 DUP6 SUB PUSH2 0x100 EXP ADD SWAP1 DUP2 AND SWAP1 NOT SWAP2 SWAP1 SWAP2 AND OR SWAP1 MSTORE PUSH19 0x2720723D273130307078272066696C6C3D2723 PUSH1 0x68 SHL SWAP4 SWAP1 SWAP2 ADD SWAP3 DUP4 MSTORE DUP5 MLOAD PUSH1 0x13 SWAP1 SWAP4 ADD SWAP3 SWAP1 DUP6 ADD SWAP2 POP DUP1 DUP4 DUP4 PUSH1 0x20 DUP4 LT PUSH2 0x1B22 JUMPI DUP1 MLOAD DUP3 MSTORE PUSH1 0x1F NOT SWAP1 SWAP3 ADD SWAP2 PUSH1 0x20 SWAP2 DUP3 ADD SWAP2 ADD PUSH2 0x1B03 JUMP JUMPDEST PUSH2 0x160 DUP7 ADD MLOAD PUSH1 0x40 MLOAD PUSH1 0x20 ADD DUP1 PUSH1 0x56 PUSH2 0x43F3 DUP3 CODECOPY PUSH1 0x56 ADD PUSH1 0x2C PUSH2 0x4DA2 DUP3 CODECOPY PUSH6 0x1E3232B3399F PUSH1 0xD1 SHL PUSH1 0x2C DUP3 ADD MSTORE PUSH1 0x32 ADD PUSH1 0x4B PUSH2 0x4AF0 DUP3 CODECOPY PUSH1 0x4B ADD DUP7 DUP1 MLOAD SWAP1 PUSH1 0x20 ADD SWAP1 DUP1 DUP4 DUP4 JUMPDEST PUSH1 0x20 DUP4 LT PUSH2 0x1D3C JUMPI DUP1 MLOAD DUP3 MSTORE PUSH1 0x1F NOT SWAP1 SWAP3 ADD SWAP2 PUSH1 0x20 SWAP2 DUP3 ADD SWAP2 ADD PUSH2 0x1D1D JUMP JUMPDEST PUSH1 0x1 DUP4 PUSH1 0x20 SUB PUSH2 0x100 EXP SUB DUP1 NOT DUP3 MLOAD AND DUP2 DUP5 MLOAD AND DUP1 DUP3 OR DUP6 MSTORE POP POP POP POP POP POP SWAP1 POP ADD DUP1 PUSH2 0x5628 PUSH1 0x3E SWAP2 CODECOPY PUSH1 0x3E ADD DUP6 DUP1 MLOAD SWAP1 PUSH1 0x20 ADD SWAP1 DUP1 DUP4 DUP4 JUMPDEST PUSH1 0x20 DUP4 LT PUSH2 0x1D94 JUMPI DUP1 MLOAD DUP3 MSTORE PUSH1 0x1F NOT SWAP1 SWAP3 ADD SWAP2 PUSH1 0x20 SWAP2 DUP3 ADD SWAP2 ADD PUSH2 0x1D75 JUMP JUMPDEST PUSH1 0x1 DUP4 PUSH1 0x20 SUB PUSH2 0x100 EXP SUB DUP1 NOT DUP3 MLOAD AND DUP2 DUP5 MLOAD AND DUP1 DUP3 OR DUP6 MSTORE POP POP POP POP POP POP SWAP1 POP ADD DUP1 PUSH2 0x4BBC PUSH1 0x3E SWAP2 CODECOPY PUSH1 0x3E ADD DUP5 DUP1 MLOAD SWAP1 PUSH1 0x20 ADD SWAP1 DUP1 DUP4 DUP4 JUMPDEST PUSH1 0x20 DUP4 LT PUSH2 0x1DEC JUMPI DUP1 MLOAD DUP3 MSTORE PUSH1 0x1F NOT SWAP1 SWAP3 ADD SWAP2 PUSH1 0x20 SWAP2 DUP3 ADD SWAP2 ADD PUSH2 0x1DCD JUMP JUMPDEST MLOAD DUP2 MLOAD PUSH1 0x20 SWAP4 SWAP1 SWAP4 SUB PUSH2 0x100 EXP PUSH1 0x0 NOT ADD DUP1 NOT SWAP1 SWAP2 AND SWAP3 AND SWAP2 SWAP1 SWAP2 OR SWAP1 MSTORE PUSH4 0x1110179F PUSH1 0xE1 SHL SWAP3 ADD SWAP2 DUP3 MSTORE POP PUSH1 0x4 ADD PUSH1 0x3B PUSH2 0x42EB DUP3 CODECOPY PUSH1 0x3B ADD DUP4 DUP1 MLOAD SWAP1 PUSH1 0x20 ADD SWAP1 DUP1 DUP4 DUP4 JUMPDEST PUSH1 0x20 DUP4 LT PUSH2 0x1E50 JUMPI DUP1 MLOAD DUP3 MSTORE PUSH1 0x1F NOT SWAP1 SWAP3 ADD SWAP2 PUSH1 0x20 SWAP2 DUP3 ADD SWAP2 ADD PUSH2 0x1E31 JUMP JUMPDEST PUSH1 0x1 DUP4 PUSH1 0x20 SUB PUSH2 0x100 EXP SUB DUP1 NOT DUP3 MLOAD AND DUP2 DUP5 MLOAD AND DUP1 DUP3 OR DUP6 MSTORE POP POP POP POP POP POP SWAP1 POP ADD DUP1 PUSH2 0x4738 PUSH1 0x99 SWAP2 CODECOPY PUSH1 0x99 ADD PUSH1 0x7F PUSH2 0x51D9 DUP3 CODECOPY PUSH1 0x7F ADD PUSH1 0x88 PUSH2 0x55A0 DUP3 CODECOPY PUSH1 0x88 ADD PUSH1 0x41 PUSH2 0x47D1 DUP3 CODECOPY PUSH1 0x41 ADD PUSH1 0x5D PUSH2 0x5760 DUP3 CODECOPY PUSH1 0x5D ADD PUSH1 0x72 PUSH2 0x5285 DUP3 CODECOPY PUSH1 0x72 ADD PUSH1 0x49 PUSH2 0x4254 DUP3 CODECOPY PUSH1 0x49 ADD PUSH1 0xBE PUSH2 0x4A32 DUP3 CODECOPY PUSH1 0xBE ADD PUSH1 0x71 PUSH2 0x4504 DUP3 CODECOPY PUSH1 0x71 ADD PUSH1 0x75 PUSH2 0x511C DUP3 CODECOPY PUSH1 0x75 ADD PUSH1 0x66 PUSH2 0x4812 DUP3 CODECOPY PUSH1 0x66 ADD PUSH1 0xA4 PUSH2 0x4DCE DUP3 CODECOPY PUSH1 0xA4 ADD PUSH1 0x85 PUSH2 0x5666 DUP3 CODECOPY PUSH32 0x3C6720636C69702D706174683D2275726C2823636F726E65727329223E000000 PUSH1 0x85 DUP3 ADD MSTORE PUSH12 0x1E3932B1BA103334B6361E91 PUSH1 0xA1 SHL PUSH1 0xA2 DUP3 ADD MSTORE DUP3 MLOAD PUSH1 0xAE SWAP1 SWAP2 ADD SWAP1 PUSH1 0x20 DUP5 ADD SWAP1 DUP1 DUP4 DUP4 JUMPDEST PUSH1 0x20 DUP4 LT PUSH2 0x1F5D JUMPI DUP1 MLOAD DUP3 MSTORE PUSH1 0x1F NOT SWAP1 SWAP3 ADD SWAP2 PUSH1 0x20 SWAP2 DUP3 ADD SWAP2 ADD PUSH2 0x1F3E JUMP JUMPDEST PUSH1 0x1 DUP4 PUSH1 0x20 SUB PUSH2 0x100 EXP SUB DUP1 NOT DUP3 MLOAD AND DUP2 DUP5 MLOAD AND DUP1 DUP3 OR DUP6 MSTORE POP POP POP POP POP POP SWAP1 POP ADD DUP1 PUSH2 0x4878 PUSH1 0x31 SWAP2 CODECOPY PUSH1 0x31 ADD PUSH1 0x4E PUSH2 0x429D DUP3 CODECOPY PUSH1 0x4E ADD PUSH1 0x5D PUSH2 0x46DB DUP3 CODECOPY PUSH1 0x5D ADD PUSH1 0x41 PUSH2 0x4D21 DUP3 CODECOPY PUSH1 0x41 ADD PUSH1 0x52 PUSH2 0x4BFA DUP3 CODECOPY PUSH1 0x52 ADD PUSH1 0x75 PUSH2 0x56EB DUP3 CODECOPY PUSH1 0x75 ADD SWAP6 POP POP POP POP POP POP PUSH1 0x40 MLOAD PUSH1 0x20 DUP2 DUP4 SUB SUB DUP2 MSTORE SWAP1 PUSH1 0x40 MSTORE SWAP1 POP SWAP2 SWAP1 POP JUMP JUMPDEST PUSH1 0x60 DUP4 DUP3 DUP6 DUP5 DUP9 DUP8 DUP11 DUP10 PUSH1 0x40 MLOAD PUSH1 0x20 ADD DUP1 DUP1 PUSH2 0x5843 PUSH1 0x25 SWAP2 CODECOPY PUSH1 0x25 ADD PUSH1 0x7D PUSH2 0x49B5 DUP3 CODECOPY PUSH1 0x7D ADD DUP10 DUP1 MLOAD SWAP1 PUSH1 0x20 ADD SWAP1 DUP1 DUP4 DUP4 JUMPDEST PUSH1 0x20 DUP4 LT PUSH2 0x202A JUMPI DUP1 MLOAD DUP3 MSTORE PUSH1 0x1F NOT SWAP1 SWAP3 ADD SWAP2 PUSH1 0x20 SWAP2 DUP3 ADD SWAP2 ADD PUSH2 0x200B JUMP JUMPDEST MLOAD DUP2 MLOAD PUSH1 0x20 SWAP4 DUP5 SUB PUSH2 0x100 EXP PUSH1 0x0 NOT ADD DUP1 NOT SWAP1 SWAP3 AND SWAP2 AND OR SWAP1 MSTORE PUSH5 0x107140511 PUSH1 0xDD SHL SWAP2 SWAP1 SWAP4 ADD SWAP1 DUP2 MSTORE DUP11 MLOAD PUSH1 0x5 SWAP1 SWAP2 ADD SWAP3 DUP12 ADD SWAP2 POP DUP1 DUP4 DUP4 JUMPDEST PUSH1 0x20 DUP4 LT PUSH2 0x2083 JUMPI DUP1 MLOAD DUP3 MSTORE PUSH1 0x1F NOT SWAP1 SWAP3 ADD SWAP2 PUSH1 0x20 SWAP2 DUP3 ADD SWAP2 ADD PUSH2 0x2064 JUMP JUMPDEST PUSH1 0x1 DUP4 PUSH1 0x20 SUB PUSH2 0x100 EXP SUB DUP1 NOT DUP3 MLOAD AND DUP2 DUP5 MLOAD AND DUP1 DUP3 OR DUP6 MSTORE POP POP POP POP POP POP SWAP1 POP ADD DUP1 PUSH2 0x48A9 PUSH1 0x79 SWAP2 CODECOPY PUSH1 0x79 ADD PUSH1 0x86 PUSH2 0x57BD DUP3 CODECOPY PUSH1 0x86 ADD DUP8 DUP1 MLOAD SWAP1 PUSH1 0x20 ADD SWAP1 DUP1 DUP4 DUP4 JUMPDEST PUSH1 0x20 DUP4 LT PUSH2 0x20E5 JUMPI DUP1 MLOAD DUP3 MSTORE PUSH1 0x1F NOT SWAP1 SWAP3 ADD SWAP2 PUSH1 0x20 SWAP2 DUP3 ADD SWAP2 ADD PUSH2 0x20C6 JUMP JUMPDEST MLOAD DUP2 MLOAD PUSH1 0x20 SWAP4 DUP5 SUB PUSH2 0x100 EXP PUSH1 0x0 NOT ADD DUP1 NOT SWAP1 SWAP3 AND SWAP2 AND OR SWAP1 MSTORE PUSH5 0x107140511 PUSH1 0xDD SHL SWAP2 SWAP1 SWAP4 ADD SWAP1 DUP2 MSTORE DUP9 MLOAD PUSH1 0x5 SWAP1 SWAP2 ADD SWAP3 DUP10 ADD SWAP2 POP DUP1 DUP4 DUP4 JUMPDEST PUSH1 0x20 DUP4 LT PUSH2 0x213E JUMPI DUP1 MLOAD DUP3 MSTORE PUSH1 0x1F NOT SWAP1 SWAP3 ADD SWAP2 PUSH1 0x20 SWAP2 DUP3 ADD SWAP2 ADD PUSH2 0x211F JUMP JUMPDEST PUSH1 0x1 DUP4 PUSH1 0x20 SUB PUSH2 0x100 EXP SUB DUP1 NOT DUP3 MLOAD AND DUP2 DUP5 MLOAD AND DUP1 DUP3 OR DUP6 MSTORE POP POP POP POP POP POP SWAP1 POP ADD DUP1 PUSH2 0x447F PUSH1 0x85 SWAP2 CODECOPY PUSH1 0x85 ADD PUSH1 0x7B PUSH2 0x540E DUP3 CODECOPY PUSH1 0x7B ADD DUP6 DUP1 MLOAD SWAP1 PUSH1 0x20 ADD SWAP1 DUP1 DUP4 DUP4 JUMPDEST PUSH1 0x20 DUP4 LT PUSH2 0x21A0 JUMPI DUP1 MLOAD DUP3 MSTORE PUSH1 0x1F NOT SWAP1 SWAP3 ADD SWAP2 PUSH1 0x20 SWAP2 DUP3 ADD SWAP2 ADD PUSH2 0x2181 JUMP JUMPDEST MLOAD DUP2 MLOAD PUSH1 0x20 SWAP4 DUP5 SUB PUSH2 0x100 EXP PUSH1 0x0 NOT ADD DUP1 NOT SWAP1 SWAP3 AND SWAP2 AND OR SWAP1 MSTORE PUSH5 0x107140511 PUSH1 0xDD SHL SWAP2 SWAP1 SWAP4 ADD SWAP1 DUP2 MSTORE DUP7 MLOAD PUSH1 0x5 SWAP1 SWAP2 ADD SWAP3 DUP8 ADD SWAP2 POP DUP1 DUP4 DUP4 JUMPDEST PUSH1 0x20 DUP4 LT PUSH2 0x21F9 JUMPI DUP1 MLOAD DUP3 MSTORE PUSH1 0x1F NOT SWAP1 SWAP3 ADD SWAP2 PUSH1 0x20 SWAP2 DUP3 ADD SWAP2 ADD PUSH2 0x21DA JUMP JUMPDEST PUSH1 0x1 DUP4 PUSH1 0x20 SUB PUSH2 0x100 EXP SUB DUP1 NOT DUP3 MLOAD AND DUP2 DUP5 MLOAD AND DUP1 DUP3 OR DUP6 MSTORE POP POP POP POP POP POP SWAP1 POP ADD DUP1 PUSH2 0x45C9 PUSH1 0x5D SWAP2 CODECOPY PUSH1 0x5D ADD PUSH1 0xA3 PUSH2 0x5079 DUP3 CODECOPY PUSH1 0xA3 ADD DUP4 DUP1 MLOAD SWAP1 PUSH1 0x20 ADD SWAP1 DUP1 DUP4 DUP4 JUMPDEST PUSH1 0x20 DUP4 LT PUSH2 0x225B JUMPI DUP1 MLOAD DUP3 MSTORE PUSH1 0x1F NOT SWAP1 SWAP3 ADD SWAP2 PUSH1 0x20 SWAP2 DUP3 ADD SWAP2 ADD PUSH2 0x223C JUMP JUMPDEST MLOAD DUP2 MLOAD PUSH1 0x20 SWAP4 DUP5 SUB PUSH2 0x100 EXP PUSH1 0x0 NOT ADD DUP1 NOT SWAP1 SWAP3 AND SWAP2 AND OR SWAP1 MSTORE PUSH5 0x107140511 PUSH1 0xDD SHL SWAP2 SWAP1 SWAP4 ADD SWAP1 DUP2 MSTORE DUP5 MLOAD PUSH1 0x5 SWAP1 SWAP2 ADD SWAP3 DUP6 ADD SWAP2 POP DUP1 DUP4 DUP4 JUMPDEST PUSH1 0x20 DUP4 LT PUSH2 0x22B4 JUMPI DUP1 MLOAD DUP3 MSTORE PUSH1 0x1F NOT SWAP1 SWAP3 ADD SWAP2 PUSH1 0x20 SWAP2 DUP3 ADD SWAP2 ADD PUSH2 0x2295 JUMP JUMPDEST PUSH1 0x1 DUP4 PUSH1 0x20 SUB PUSH2 0x100 EXP SUB DUP1 NOT DUP3 MLOAD AND DUP2 DUP5 MLOAD AND DUP1 DUP3 OR DUP6 MSTORE POP POP POP POP POP POP SWAP1 POP ADD DUP1 PUSH2 0x41C9 PUSH1 0x8B SWAP2 CODECOPY PUSH1 0x8B ADD SWAP9 POP POP POP POP POP POP POP POP POP PUSH1 0x40 MLOAD PUSH1 0x20 DUP2 DUP4 SUB SUB DUP2 MSTORE SWAP1 PUSH1 0x40 MSTORE SWAP1 POP SWAP5 SWAP4 POP POP POP POP JUMP JUMPDEST PUSH1 0x60 DUP4 DUP4 DUP4 PUSH1 0x40 MLOAD PUSH1 0x20 ADD DUP1 DUP1 PUSH2 0x4326 PUSH1 0xCD SWAP2 CODECOPY PUSH1 0xCD ADD DUP5 DUP1 MLOAD SWAP1 PUSH1 0x20 ADD SWAP1 DUP1 DUP4 DUP4 JUMPDEST PUSH1 0x20 DUP4 LT PUSH2 0x2346 JUMPI DUP1 MLOAD DUP3 MSTORE PUSH1 0x1F NOT SWAP1 SWAP3 ADD SWAP2 PUSH1 0x20 SWAP2 DUP3 ADD SWAP2 ADD PUSH2 0x2327 JUMP JUMPDEST PUSH1 0x1 DUP4 PUSH1 0x20 SUB PUSH2 0x100 EXP SUB DUP1 NOT DUP3 MLOAD AND DUP2 DUP5 MLOAD AND DUP1 DUP3 OR DUP6 MSTORE POP POP POP POP POP POP SWAP1 POP ADD DUP1 PUSH1 0x2F PUSH1 0xF8 SHL DUP2 MSTORE POP PUSH1 0x1 ADD DUP4 DUP1 MLOAD SWAP1 PUSH1 0x20 ADD SWAP1 DUP1 DUP4 DUP4 JUMPDEST PUSH1 0x20 DUP4 LT PUSH2 0x239F JUMPI DUP1 MLOAD DUP3 MSTORE PUSH1 0x1F NOT SWAP1 SWAP3 ADD SWAP2 PUSH1 0x20 SWAP2 DUP3 ADD SWAP2 ADD PUSH2 0x2380 JUMP JUMPDEST PUSH1 0x1 DUP4 PUSH1 0x20 SUB PUSH2 0x100 EXP SUB DUP1 NOT DUP3 MLOAD AND DUP2 DUP5 MLOAD AND DUP1 DUP3 OR DUP6 MSTORE POP POP POP POP POP POP SWAP1 POP ADD DUP1 PUSH2 0x59EC PUSH1 0x77 SWAP2 CODECOPY PUSH1 0x77 ADD DUP3 DUP1 MLOAD SWAP1 PUSH1 0x20 ADD SWAP1 DUP1 DUP4 DUP4 JUMPDEST PUSH1 0x20 DUP4 LT PUSH2 0x23F7 JUMPI DUP1 MLOAD DUP3 MSTORE PUSH1 0x1F NOT SWAP1 SWAP3 ADD SWAP2 PUSH1 0x20 SWAP2 DUP3 ADD SWAP2 ADD PUSH2 0x23D8 JUMP JUMPDEST MLOAD DUP2 MLOAD PUSH1 0x20 SWAP4 SWAP1 SWAP4 SUB PUSH2 0x100 EXP PUSH1 0x0 NOT ADD DUP1 NOT SWAP1 SWAP2 AND SWAP3 AND SWAP2 SWAP1 SWAP2 OR SWAP1 MSTORE PUSH11 0x1E17BA32BC3A1F1E17B39F PUSH1 0xA9 SHL SWAP3 ADD SWAP2 DUP3 MSTORE POP PUSH1 0xB ADD PUSH1 0x73 PUSH2 0x588C DUP3 CODECOPY PUSH1 0x73 ADD SWAP4 POP POP POP POP PUSH1 0x40 MLOAD PUSH1 0x20 DUP2 DUP4 SUB SUB DUP2 MSTORE SWAP1 PUSH1 0x40 MSTORE SWAP1 POP SWAP4 SWAP3 POP POP POP JUMP JUMPDEST PUSH1 0x60 PUSH1 0x0 DUP3 PUSH1 0x0 SIGNEXTEND PUSH1 0x1 EQ PUSH2 0x24BB JUMPI DUP3 PUSH1 0x0 SIGNEXTEND PUSH1 0x0 NOT EQ PUSH2 0x2492 JUMPI PUSH1 0x40 MLOAD DUP1 PUSH1 0x40 ADD PUSH1 0x40 MSTORE DUP1 PUSH1 0x5 DUP2 MSTORE PUSH1 0x20 ADD PUSH5 0x236E6F6E65 PUSH1 0xD8 SHL DUP2 MSTORE POP PUSH2 0x24B6 JUMP JUMPDEST PUSH1 0x40 MLOAD DUP1 PUSH1 0x40 ADD PUSH1 0x40 MSTORE DUP1 PUSH1 0xA DUP2 MSTORE PUSH1 0x20 ADD PUSH10 0x11B330B23296B237BBB7 PUSH1 0xB1 SHL DUP2 MSTORE POP JUMPDEST PUSH2 0x24DD JUMP JUMPDEST PUSH1 0x40 MLOAD DUP1 PUSH1 0x40 ADD PUSH1 0x40 MSTORE DUP1 PUSH1 0x8 DUP2 MSTORE PUSH1 0x20 ADD PUSH8 0x23666164652D757 PUSH1 0xC4 SHL DUP2 MSTORE POP JUMPDEST SWAP1 POP PUSH1 0x0 PUSH2 0x24EC DUP8 DUP8 DUP8 PUSH2 0x2DE9 JUMP JUMPDEST SWAP1 POP DUP2 DUP2 DUP4 DUP4 PUSH2 0x24FB DUP9 PUSH2 0x3017 JUMP JUMPDEST PUSH1 0x40 MLOAD PUSH1 0x20 ADD DUP1 DUP1 PUSH13 0x78CE40DAC2E6D67A44EAE4D85 PUSH1 0x9B SHL DUP2 MSTORE POP PUSH1 0xD ADD DUP7 DUP1 MLOAD SWAP1 PUSH1 0x20 ADD SWAP1 DUP1 DUP4 DUP4 JUMPDEST PUSH1 0x20 DUP4 LT PUSH2 0x2545 JUMPI DUP1 MLOAD DUP3 MSTORE PUSH1 0x1F NOT SWAP1 SWAP3 ADD SWAP2 PUSH1 0x20 SWAP2 DUP3 ADD SWAP2 ADD PUSH2 0x2526 JUMP JUMPDEST MLOAD DUP2 MLOAD PUSH1 0x20 SWAP4 SWAP1 SWAP4 SUB PUSH2 0x100 EXP PUSH1 0x0 NOT ADD DUP1 NOT SWAP1 SWAP2 AND SWAP3 AND SWAP2 SWAP1 SWAP2 OR SWAP1 MSTORE PUSH2 0x1491 PUSH1 0xF1 SHL SWAP3 ADD SWAP2 DUP3 MSTORE POP PUSH1 0x2 ADD PUSH1 0x77 PUSH2 0x4E72 DUP3 CODECOPY PUSH1 0x77 ADD DUP6 DUP1 MLOAD SWAP1 PUSH1 0x20 ADD SWAP1 DUP1 DUP4 DUP4 JUMPDEST PUSH1 0x20 DUP4 LT PUSH2 0x25A7 JUMPI DUP1 MLOAD DUP3 MSTORE PUSH1 0x1F NOT SWAP1 SWAP3 ADD SWAP2 PUSH1 0x20 SWAP2 DUP3 ADD SWAP2 ADD PUSH2 0x2588 JUMP JUMPDEST PUSH1 0x1 DUP4 PUSH1 0x20 SUB PUSH2 0x100 EXP SUB DUP1 NOT DUP3 MLOAD AND DUP2 DUP5 MLOAD AND DUP1 DUP3 OR DUP6 MSTORE POP POP POP POP POP POP SWAP1 POP ADD DUP1 PUSH2 0x4575 PUSH1 0x54 SWAP2 CODECOPY PUSH1 0x54 ADD DUP1 PUSH17 0x785ECE7C78CE40DAC2E6D67A44EAE4D85 PUSH1 0x7B SHL DUP2 MSTORE POP PUSH1 0x11 ADD DUP5 DUP1 MLOAD SWAP1 PUSH1 0x20 ADD SWAP1 DUP1 DUP4 DUP4 JUMPDEST PUSH1 0x20 DUP4 LT PUSH2 0x261B JUMPI DUP1 MLOAD DUP3 MSTORE PUSH1 0x1F NOT SWAP1 SWAP3 ADD SWAP2 PUSH1 0x20 SWAP2 DUP3 ADD SWAP2 ADD PUSH2 0x25FC JUMP JUMPDEST MLOAD DUP2 MLOAD PUSH1 0x20 SWAP4 SWAP1 SWAP4 SUB PUSH2 0x100 EXP PUSH1 0x0 NOT ADD DUP1 NOT SWAP1 SWAP2 AND SWAP3 AND SWAP2 SWAP1 SWAP2 OR SWAP1 MSTORE PUSH2 0x1491 PUSH1 0xF1 SHL SWAP3 ADD SWAP2 DUP3 MSTORE POP PUSH1 0x2 ADD PUSH1 0x29 PUSH2 0x4EE9 DUP3 CODECOPY PUSH1 0x29 ADD PUSH1 0x45 PUSH2 0x4F3C DUP3 CODECOPY PUSH1 0x45 ADD DUP1 PUSH9 0x1E3830BA3410321E91 PUSH1 0xB9 SHL DUP2 MSTORE POP PUSH1 0x9 ADD DUP4 DUP1 MLOAD SWAP1 PUSH1 0x20 ADD SWAP1 DUP1 DUP4 DUP4 JUMPDEST PUSH1 0x20 DUP4 LT PUSH2 0x269B JUMPI DUP1 MLOAD DUP3 MSTORE PUSH1 0x1F NOT SWAP1 SWAP3 ADD SWAP2 PUSH1 0x20 SWAP2 DUP3 ADD SWAP2 ADD PUSH2 0x267C JUMP JUMPDEST PUSH1 0x1 DUP4 PUSH1 0x20 SUB PUSH2 0x100 EXP SUB DUP1 NOT DUP3 MLOAD AND DUP2 DUP5 MLOAD AND DUP1 DUP3 OR DUP6 MSTORE POP POP POP POP POP POP SWAP1 POP ADD DUP1 PUSH2 0x5191 PUSH1 0x48 SWAP2 CODECOPY PUSH1 0x48 ADD DUP3 DUP1 MLOAD SWAP1 PUSH1 0x20 ADD SWAP1 DUP1 DUP4 DUP4 JUMPDEST PUSH1 0x20 DUP4 LT PUSH2 0x26F3 JUMPI DUP1 MLOAD DUP3 MSTORE PUSH1 0x1F NOT SWAP1 SWAP3 ADD SWAP2 PUSH1 0x20 SWAP2 DUP3 ADD SWAP2 ADD PUSH2 0x26D4 JUMP JUMPDEST PUSH1 0x1 DUP4 PUSH1 0x20 SUB PUSH2 0x100 EXP SUB DUP1 NOT DUP3 MLOAD AND DUP2 DUP5 MLOAD AND DUP1 DUP3 OR DUP6 MSTORE POP POP POP POP POP POP SWAP1 POP ADD SWAP6 POP POP POP POP POP POP PUSH1 0x40 MLOAD PUSH1 0x20 DUP2 DUP4 SUB SUB DUP2 MSTORE SWAP1 PUSH1 0x40 MSTORE SWAP3 POP POP POP SWAP5 SWAP4 POP POP POP POP JUMP JUMPDEST PUSH1 0x60 PUSH1 0x0 PUSH2 0x2744 DUP5 PUSH2 0x347E JUMP JUMPDEST SWAP1 POP PUSH1 0x0 PUSH2 0x2751 DUP5 PUSH2 0x347E JUMP JUMPDEST DUP7 MLOAD DUP4 MLOAD DUP3 MLOAD SWAP3 SWAP4 POP PUSH1 0x4 SWAP1 SWAP2 ADD SWAP2 PUSH1 0xA SWAP2 DUP3 ADD SWAP2 ADD PUSH1 0x0 DUP1 PUSH2 0x2774 DUP11 DUP11 PUSH2 0x3588 JUMP JUMPDEST SWAP2 POP SWAP2 POP PUSH2 0x2787 DUP6 PUSH1 0x4 ADD PUSH1 0x7 MUL PUSH2 0x624 JUMP JUMPDEST DUP12 PUSH2 0x2797 DUP7 PUSH1 0x4 ADD PUSH1 0x7 MUL PUSH2 0x624 JUMP JUMPDEST DUP10 PUSH2 0x27A7 DUP8 PUSH1 0x4 ADD PUSH1 0x7 MUL PUSH2 0x624 JUMP JUMPDEST DUP11 DUP8 DUP8 PUSH1 0x40 MLOAD PUSH1 0x20 ADD DUP1 DUP1 PUSH2 0x5258 PUSH1 0x2D SWAP2 CODECOPY PUSH1 0x2D ADD DUP1 PUSH13 0x1E3932B1BA103BB4B23A341E91 PUSH1 0x99 SHL DUP2 MSTORE POP PUSH1 0xD ADD DUP10 DUP1 MLOAD SWAP1 PUSH1 0x20 ADD SWAP1 DUP1 DUP4 DUP4 JUMPDEST PUSH1 0x20 DUP4 LT PUSH2 0x27FF JUMPI DUP1 MLOAD DUP3 MSTORE PUSH1 0x1F NOT SWAP1 SWAP3 ADD SWAP2 PUSH1 0x20 SWAP2 DUP3 ADD SWAP2 ADD PUSH2 0x27E0 JUMP JUMPDEST PUSH1 0x1 DUP4 PUSH1 0x20 SUB PUSH2 0x100 EXP SUB DUP1 NOT DUP3 MLOAD AND DUP2 DUP5 MLOAD AND DUP1 DUP3 OR DUP6 MSTORE POP POP POP POP POP POP SWAP1 POP ADD DUP1 PUSH2 0x4C4C PUSH1 0x3D SWAP2 CODECOPY PUSH1 0x3D ADD PUSH1 0x8D PUSH2 0x58FF DUP3 CODECOPY PUSH1 0x8D ADD DUP9 DUP1 MLOAD SWAP1 PUSH1 0x20 ADD SWAP1 DUP1 DUP4 DUP4 JUMPDEST PUSH1 0x20 DUP4 LT PUSH2 0x2861 JUMPI DUP1 MLOAD DUP3 MSTORE PUSH1 0x1F NOT SWAP1 SWAP3 ADD SWAP2 PUSH1 0x20 SWAP2 DUP3 ADD SWAP2 ADD PUSH2 0x2842 JUMP JUMPDEST MLOAD DUP2 MLOAD PUSH1 0x20 SWAP4 SWAP1 SWAP4 SUB PUSH2 0x100 EXP PUSH1 0x0 NOT ADD DUP1 NOT SWAP1 SWAP2 AND SWAP3 AND SWAP2 SWAP1 SWAP2 OR SWAP1 MSTORE PUSH11 0x1E17BA32BC3A1F1E17B39F PUSH1 0xA9 SHL SWAP3 ADD SWAP2 DUP3 MSTORE POP PUSH1 0xB ADD PUSH1 0x2D PUSH2 0x5A9B DUP3 CODECOPY PUSH1 0x2D ADD DUP1 PUSH13 0x1E3932B1BA103BB4B23A341E91 PUSH1 0x99 SHL DUP2 MSTORE POP PUSH1 0xD ADD DUP8 DUP1 MLOAD SWAP1 PUSH1 0x20 ADD SWAP1 DUP1 DUP4 DUP4 JUMPDEST PUSH1 0x20 DUP4 LT PUSH2 0x28E4 JUMPI DUP1 MLOAD DUP3 MSTORE PUSH1 0x1F NOT SWAP1 SWAP3 ADD SWAP2 PUSH1 0x20 SWAP2 DUP3 ADD SWAP2 ADD PUSH2 0x28C5 JUMP JUMPDEST PUSH1 0x1 DUP4 PUSH1 0x20 SUB PUSH2 0x100 EXP SUB DUP1 NOT DUP3 MLOAD AND DUP2 DUP5 MLOAD AND DUP1 DUP3 OR DUP6 MSTORE POP POP POP POP POP POP SWAP1 POP ADD DUP1 PUSH2 0x4C4C PUSH1 0x3D SWAP2 CODECOPY PUSH1 0x3D ADD PUSH1 0x93 PUSH2 0x4922 DUP3 CODECOPY PUSH1 0x93 ADD DUP7 DUP1 MLOAD SWAP1 PUSH1 0x20 ADD SWAP1 DUP1 DUP4 DUP4 JUMPDEST PUSH1 0x20 DUP4 LT PUSH2 0x2946 JUMPI DUP1 MLOAD DUP3 MSTORE PUSH1 0x1F NOT SWAP1 SWAP3 ADD SWAP2 PUSH1 0x20 SWAP2 DUP3 ADD SWAP2 ADD PUSH2 0x2927 JUMP JUMPDEST MLOAD DUP2 MLOAD PUSH1 0x20 SWAP4 SWAP1 SWAP4 SUB PUSH2 0x100 EXP PUSH1 0x0 NOT ADD DUP1 NOT SWAP1 SWAP2 AND SWAP3 AND SWAP2 SWAP1 SWAP2 OR SWAP1 MSTORE PUSH11 0x1E17BA32BC3A1F1E17B39F PUSH1 0xA9 SHL SWAP3 ADD SWAP2 DUP3 MSTORE POP PUSH1 0xB ADD PUSH1 0x2D PUSH2 0x4626 DUP3 CODECOPY PUSH1 0x2D ADD DUP1 PUSH13 0x1E3932B1BA103BB4B23A341E91 PUSH1 0x99 SHL DUP2 MSTORE POP PUSH1 0xD ADD DUP6 DUP1 MLOAD SWAP1 PUSH1 0x20 ADD SWAP1 DUP1 DUP4 DUP4 JUMPDEST PUSH1 0x20 DUP4 LT PUSH2 0x29C9 JUMPI DUP1 MLOAD DUP3 MSTORE PUSH1 0x1F NOT SWAP1 SWAP3 ADD SWAP2 PUSH1 0x20 SWAP2 DUP3 ADD SWAP2 ADD PUSH2 0x29AA JUMP JUMPDEST PUSH1 0x1 DUP4 PUSH1 0x20 SUB PUSH2 0x100 EXP SUB DUP1 NOT DUP3 MLOAD AND DUP2 DUP5 MLOAD AND DUP1 DUP3 OR DUP6 MSTORE POP POP POP POP POP POP SWAP1 POP ADD DUP1 PUSH2 0x4C4C PUSH1 0x3D SWAP2 CODECOPY PUSH1 0x3D ADD PUSH1 0x93 PUSH2 0x5489 DUP3 CODECOPY PUSH1 0x93 ADD DUP5 DUP1 MLOAD SWAP1 PUSH1 0x20 ADD SWAP1 DUP1 DUP4 DUP4 JUMPDEST PUSH1 0x20 DUP4 LT PUSH2 0x2A2B JUMPI DUP1 MLOAD DUP3 MSTORE PUSH1 0x1F NOT SWAP1 SWAP3 ADD SWAP2 PUSH1 0x20 SWAP2 DUP3 ADD SWAP2 ADD PUSH2 0x2A0C JUMP JUMPDEST PUSH1 0x1 DUP4 PUSH1 0x20 SUB PUSH2 0x100 EXP SUB DUP1 NOT DUP3 MLOAD AND DUP2 DUP5 MLOAD AND DUP1 DUP3 OR DUP6 MSTORE POP POP POP POP POP POP SWAP1 POP ADD DUP1 PUSH2 0x5A63 PUSH1 0x38 SWAP2 CODECOPY PUSH1 0x38 ADD PUSH1 0x60 PUSH2 0x598C DUP3 CODECOPY PUSH1 0x60 ADD PUSH1 0x64 PUSH2 0x5015 DUP3 CODECOPY PUSH1 0x64 ADD PUSH1 0x25 PUSH2 0x4653 DUP3 CODECOPY PUSH1 0x25 ADD DUP4 DUP1 MLOAD SWAP1 PUSH1 0x20 ADD SWAP1 DUP1 DUP4 DUP4 JUMPDEST PUSH1 0x20 DUP4 LT PUSH2 0x2AA1 JUMPI DUP1 MLOAD DUP3 MSTORE PUSH1 0x1F NOT SWAP1 SWAP3 ADD SWAP2 PUSH1 0x20 SWAP2 DUP3 ADD SWAP2 ADD PUSH2 0x2A82 JUMP JUMPDEST MLOAD DUP2 MLOAD PUSH1 0x20 SWAP4 DUP5 SUB PUSH2 0x100 EXP PUSH1 0x0 NOT ADD DUP1 NOT SWAP1 SWAP3 AND SWAP2 AND OR SWAP1 MSTORE PUSH4 0x383C161 PUSH1 0xE5 SHL SWAP2 SWAP1 SWAP4 ADD SWAP1 DUP2 MSTORE DUP5 MLOAD PUSH1 0x4 SWAP1 SWAP2 ADD SWAP3 DUP6 ADD SWAP2 POP DUP1 DUP4 DUP4 JUMPDEST PUSH1 0x20 DUP4 LT PUSH2 0x2AF9 JUMPI DUP1 MLOAD DUP3 MSTORE PUSH1 0x1F NOT SWAP1 SWAP3 ADD SWAP2 PUSH1 0x20 SWAP2 DUP3 ADD SWAP2 ADD PUSH2 0x2ADA JUMP JUMPDEST PUSH1 0x1 DUP4 PUSH1 0x20 SUB PUSH2 0x100 EXP SUB DUP1 NOT DUP3 MLOAD AND DUP2 DUP5 MLOAD AND DUP1 DUP3 OR DUP6 MSTORE POP POP POP POP POP POP SWAP1 POP ADD DUP1 PUSH2 0x4449 PUSH1 0x36 SWAP2 CODECOPY PUSH1 0x36 ADD SWAP9 POP POP POP POP POP POP POP POP POP PUSH1 0x40 MLOAD PUSH1 0x20 DUP2 DUP4 SUB SUB DUP2 MSTORE SWAP1 PUSH1 0x40 MSTORE SWAP8 POP POP POP POP POP POP POP POP SWAP4 SWAP3 POP POP POP JUMP JUMPDEST PUSH1 0x60 PUSH2 0x2B5B DUP4 DUP4 PUSH2 0x3894 JUMP JUMPDEST ISZERO PUSH2 0x2BB1 JUMPI PUSH1 0x40 MLOAD PUSH1 0x20 ADD DUP1 PUSH1 0x8D PUSH2 0x5381 DUP3 CODECOPY PUSH1 0x8D ADD PUSH1 0x73 PUSH2 0x4FA2 DUP3 CODECOPY PUSH1 0x73 ADD PUSH1 0x71 PUSH2 0x4CB0 DUP3 CODECOPY PUSH1 0x71 ADD PUSH1 0x8A PUSH2 0x52F7 DUP3 CODECOPY PUSH1 0x8A ADD PUSH1 0x84 PUSH2 0x551C DUP3 CODECOPY PUSH1 0x84 ADD SWAP1 POP PUSH1 0x40 MLOAD PUSH1 0x20 DUP2 DUP4 SUB SUB DUP2 MSTORE SWAP1 PUSH1 0x40 MSTORE SWAP1 POP PUSH2 0x46B JUMP JUMPDEST POP PUSH1 0x40 DUP1 MLOAD PUSH1 0x20 DUP2 ADD SWAP1 SWAP2 MSTORE PUSH1 0x0 DUP2 MSTORE SWAP3 SWAP2 POP POP JUMP JUMPDEST PUSH1 0x0 DUP1 PUSH2 0x2BE2 PUSH2 0x2BDD PUSH1 0xFF DUP7 DUP2 AND SWAP1 DUP7 AND PUSH2 0x38F2 JUMP JUMPDEST PUSH2 0x3957 JUMP JUMPDEST SWAP1 POP PUSH1 0x0 DUP2 GT DUP1 ISZERO PUSH2 0x2BF5 JUMPI POP PUSH1 0x12 DUP2 GT ISZERO JUMPDEST ISZERO PUSH2 0x2CB6 JUMPI DUP3 PUSH1 0xFF AND DUP5 PUSH1 0xFF AND GT ISZERO PUSH2 0x2C5F JUMPI PUSH2 0x2C29 PUSH2 0x2C16 DUP3 PUSH1 0x2 PUSH2 0xB71 JUMP JUMPDEST PUSH1 0x1 PUSH1 0x1 PUSH1 0xA0 SHL SUB DUP8 AND SWAP1 PUSH1 0xA EXP PUSH2 0x1921 JUMP JUMPDEST SWAP2 POP PUSH1 0x2 DUP2 MOD PUSH1 0x1 EQ ISZERO PUSH2 0x2C5A JUMPI PUSH2 0x2C57 DUP3 PUSH17 0x3298B075B4B6A5240945790619B37FD4A PUSH1 0x1 PUSH1 0x80 SHL PUSH2 0x2CC9 JUMP JUMPDEST SWAP2 POP JUMPDEST PUSH2 0x2CB1 JUMP JUMPDEST PUSH2 0x2C80 PUSH2 0x2C6D DUP3 PUSH1 0x2 PUSH2 0xB71 JUMP JUMPDEST PUSH1 0x1 PUSH1 0x1 PUSH1 0xA0 SHL SUB DUP8 AND SWAP1 PUSH1 0xA EXP PUSH2 0xB71 JUMP JUMPDEST SWAP2 POP PUSH1 0x2 DUP2 MOD PUSH1 0x1 EQ ISZERO PUSH2 0x2CB1 JUMPI PUSH2 0x2CAE DUP3 PUSH1 0x1 PUSH1 0x80 SHL PUSH17 0x3298B075B4B6A5240945790619B37FD4A PUSH2 0x2CC9 JUMP JUMPDEST SWAP2 POP JUMPDEST PUSH2 0x1912 JUMP JUMPDEST POP POP PUSH1 0x1 PUSH1 0x1 PUSH1 0xA0 SHL SUB SWAP1 SWAP3 AND SWAP3 SWAP2 POP POP JUMP JUMPDEST PUSH1 0x0 DUP1 DUP1 PUSH1 0x0 NOT DUP6 DUP8 MULMOD DUP7 DUP7 MUL SWAP3 POP DUP3 DUP2 LT SWAP1 DUP4 SWAP1 SUB SUB SWAP1 POP DUP1 PUSH2 0x2CFF JUMPI PUSH1 0x0 DUP5 GT PUSH2 0x2CF4 JUMPI PUSH1 0x0 DUP1 REVERT JUMPDEST POP DUP3 SWAP1 DIV SWAP1 POP PUSH2 0x61D JUMP JUMPDEST DUP1 DUP5 GT PUSH2 0x2D0B JUMPI PUSH1 0x0 DUP1 REVERT JUMPDEST PUSH1 0x0 DUP5 DUP7 DUP9 MULMOD PUSH1 0x0 DUP7 DUP2 SUB DUP8 AND SWAP7 DUP8 SWAP1 DIV SWAP7 PUSH1 0x2 PUSH1 0x3 DUP10 MUL DUP2 XOR DUP1 DUP11 MUL DUP3 SUB MUL DUP1 DUP11 MUL DUP3 SUB MUL DUP1 DUP11 MUL DUP3 SUB MUL DUP1 DUP11 MUL DUP3 SUB MUL DUP1 DUP11 MUL DUP3 SUB MUL DUP1 DUP11 MUL SWAP1 SWAP2 SUB MUL SWAP2 DUP2 SWAP1 SUB DUP2 SWAP1 DIV PUSH1 0x1 ADD DUP7 DUP5 GT SWAP1 SWAP6 SUB SWAP5 SWAP1 SWAP5 MUL SWAP2 SWAP1 SWAP5 SUB SWAP3 SWAP1 SWAP3 DIV SWAP2 SWAP1 SWAP2 OR SWAP2 SWAP1 SWAP2 MUL SWAP2 POP POP SWAP4 SWAP3 POP POP POP JUMP JUMPDEST PUSH1 0x0 DUP1 PUSH1 0x0 PUSH1 0x5 DUP5 PUSH1 0xFF AND GT ISZERO PUSH2 0x2DA0 JUMPI PUSH2 0x2D9D DUP6 PUSH1 0xFF PUSH1 0x4 NOT DUP8 ADD AND PUSH1 0xA EXP PUSH2 0xB71 JUMP JUMPDEST SWAP5 POP JUMPDEST PUSH1 0x0 PUSH1 0x4 PUSH1 0xA DUP8 MOD GT SWAP1 POP PUSH2 0x2DB6 DUP7 PUSH1 0xA PUSH2 0xB71 JUMP JUMPDEST SWAP6 POP DUP1 ISZERO PUSH2 0x2DC5 JUMPI DUP6 PUSH1 0x1 ADD SWAP6 POP JUMPDEST DUP6 PUSH3 0x186A0 EQ ISZERO PUSH2 0x2DDB JUMPI PUSH1 0xA DUP7 DIV SWAP6 POP PUSH1 0x1 SWAP2 POP JUMPDEST POP DUP5 SWAP3 POP SWAP1 POP JUMPDEST SWAP3 POP SWAP3 SWAP1 POP JUMP JUMPDEST PUSH1 0x60 PUSH1 0x0 DUP3 PUSH1 0x2 SIGNEXTEND DUP6 DUP6 SUB PUSH1 0x2 SIGNEXTEND DUP2 PUSH2 0x2DFE JUMPI INVALID JUMPDEST SDIV SWAP1 POP PUSH1 0x4 DUP2 PUSH1 0x2 SIGNEXTEND SGT PUSH2 0x2E46 JUMPI PUSH1 0x40 MLOAD DUP1 PUSH1 0x40 ADD PUSH1 0x40 MSTORE DUP1 PUSH1 0x1A DUP2 MSTORE PUSH1 0x20 ADD PUSH26 0x4D31203143343120343120313035203130352031343520313435 PUSH1 0x30 SHL DUP2 MSTORE POP SWAP2 POP PUSH2 0x1912 JUMP JUMPDEST PUSH1 0x8 DUP2 PUSH1 0x2 SIGNEXTEND SGT PUSH2 0x2E8A JUMPI PUSH1 0x40 MLOAD DUP1 PUSH1 0x40 ADD PUSH1 0x40 MSTORE DUP1 PUSH1 0x19 DUP2 MSTORE PUSH1 0x20 ADD PUSH25 0x4D312031433333203439203937203131332031343520313435 PUSH1 0x38 SHL DUP2 MSTORE POP SWAP2 POP PUSH2 0x1912 JUMP JUMPDEST PUSH1 0x10 DUP2 PUSH1 0x2 SIGNEXTEND SGT PUSH2 0x2ECE JUMPI PUSH1 0x40 MLOAD DUP1 PUSH1 0x40 ADD PUSH1 0x40 MSTORE DUP1 PUSH1 0x19 DUP2 MSTORE PUSH1 0x20 ADD PUSH25 0x4D312031433333203537203839203131332031343520313435 PUSH1 0x38 SHL DUP2 MSTORE POP SWAP2 POP PUSH2 0x1912 JUMP JUMPDEST PUSH1 0x20 DUP2 PUSH1 0x2 SIGNEXTEND SGT PUSH2 0x2F12 JUMPI PUSH1 0x40 MLOAD DUP1 PUSH1 0x40 ADD PUSH1 0x40 MSTORE DUP1 PUSH1 0x19 DUP2 MSTORE PUSH1 0x20 ADD PUSH25 0x4D312031433235203635203831203132312031343520313435 PUSH1 0x38 SHL DUP2 MSTORE POP SWAP2 POP PUSH2 0x1912 JUMP JUMPDEST PUSH1 0x40 DUP2 PUSH1 0x2 SIGNEXTEND SGT PUSH2 0x2F56 JUMPI PUSH1 0x40 MLOAD DUP1 PUSH1 0x40 ADD PUSH1 0x40 MSTORE DUP1 PUSH1 0x19 DUP2 MSTORE PUSH1 0x20 ADD PUSH25 0x4D312031433137203733203733203132392031343520313435 PUSH1 0x38 SHL DUP2 MSTORE POP SWAP2 POP PUSH2 0x1912 JUMP JUMPDEST PUSH1 0x80 DUP2 PUSH1 0x2 SIGNEXTEND SGT PUSH2 0x2F99 JUMPI PUSH1 0x40 MLOAD DUP1 PUSH1 0x40 ADD PUSH1 0x40 MSTORE DUP1 PUSH1 0x18 DUP2 MSTORE PUSH1 0x20 ADD PUSH24 0x4D3120314339203831203635203133372031343520313435 PUSH1 0x40 SHL DUP2 MSTORE POP SWAP2 POP PUSH2 0x1912 JUMP JUMPDEST PUSH2 0x100 DUP2 PUSH1 0x2 SIGNEXTEND SGT PUSH2 0x2FDF JUMPI PUSH1 0x40 MLOAD DUP1 PUSH1 0x40 ADD PUSH1 0x40 MSTORE DUP1 PUSH1 0x1A DUP2 MSTORE PUSH1 0x20 ADD PUSH26 0x4D31203143312038392035372E35203134352031343520313435 PUSH1 0x30 SHL DUP2 MSTORE POP SWAP2 POP PUSH2 0x1912 JUMP JUMPDEST POP POP PUSH1 0x40 DUP1 MLOAD DUP1 DUP3 ADD SWAP1 SWAP2 MSTORE PUSH1 0x18 DUP2 MSTORE PUSH24 0x4D3120314331203937203439203134352031343520313435 PUSH1 0x40 SHL PUSH1 0x20 DUP3 ADD MSTORE SWAP4 SWAP3 POP POP POP JUMP JUMPDEST PUSH1 0x40 DUP1 MLOAD DUP1 DUP3 ADD DUP3 MSTORE PUSH1 0x2 DUP2 MSTORE PUSH2 0x3733 PUSH1 0xF0 SHL PUSH1 0x20 DUP1 DUP4 ADD SWAP2 SWAP1 SWAP2 MSTORE DUP3 MLOAD DUP1 DUP5 ADD DUP5 MSTORE PUSH1 0x3 DUP1 DUP3 MSTORE PUSH3 0x31393 PUSH1 0xEC SHL DUP3 DUP5 ADD MSTORE DUP5 MLOAD DUP1 DUP7 ADD DUP7 MSTORE DUP2 DUP2 MSTORE PUSH3 0x323137 PUSH1 0xE8 SHL DUP2 DUP6 ADD MSTORE DUP6 MLOAD DUP1 DUP8 ADD SWAP1 SWAP7 MSTORE SWAP1 DUP6 MSTORE PUSH3 0xCCCCD PUSH1 0xEA SHL SWAP3 DUP6 ADD SWAP3 SWAP1 SWAP3 MSTORE PUSH1 0x60 SWAP4 SWAP1 SWAP2 SWAP1 PUSH1 0x1 PUSH1 0x0 DUP8 SWAP1 SIGNEXTEND EQ DUP1 PUSH2 0x3095 JUMPI POP DUP6 PUSH1 0x0 SIGNEXTEND PUSH1 0x0 NOT EQ JUMPDEST ISZERO PUSH2 0x328C JUMPI DUP6 PUSH1 0x0 SIGNEXTEND PUSH1 0x0 NOT EQ PUSH2 0x30AC JUMPI DUP2 PUSH2 0x30AE JUMP JUMPDEST DUP4 JUMPDEST DUP7 PUSH1 0x0 SIGNEXTEND PUSH1 0x0 NOT EQ PUSH2 0x30C0 JUMPI DUP2 PUSH2 0x30C2 JUMP JUMPDEST DUP4 JUMPDEST DUP8 PUSH1 0x0 SIGNEXTEND PUSH1 0x0 NOT EQ PUSH2 0x30D4 JUMPI DUP4 PUSH2 0x30D6 JUMP JUMPDEST DUP6 JUMPDEST DUP9 PUSH1 0x0 SIGNEXTEND PUSH1 0x0 NOT EQ PUSH2 0x30E8 JUMPI DUP4 PUSH2 0x30EA JUMP JUMPDEST DUP6 JUMPDEST PUSH1 0x40 MLOAD PUSH1 0x20 ADD DUP1 DUP1 PUSH12 0x1E31B4B931B6329031BC1E91 PUSH1 0xA1 SHL DUP2 MSTORE POP PUSH1 0xC ADD DUP6 DUP1 MLOAD SWAP1 PUSH1 0x20 ADD SWAP1 DUP1 DUP4 DUP4 JUMPDEST PUSH1 0x20 DUP4 LT PUSH2 0x3133 JUMPI DUP1 MLOAD DUP3 MSTORE PUSH1 0x1F NOT SWAP1 SWAP3 ADD SWAP2 PUSH1 0x20 SWAP2 DUP3 ADD SWAP2 ADD PUSH2 0x3114 JUMP JUMPDEST MLOAD DUP2 MLOAD PUSH1 0x20 SWAP4 DUP5 SUB PUSH2 0x100 EXP PUSH1 0x0 NOT ADD DUP1 NOT SWAP1 SWAP3 AND SWAP2 AND OR SWAP1 MSTORE PUSH8 0x383C111031BC9E91 PUSH1 0xC1 SHL SWAP2 SWAP1 SWAP4 ADD SWAP1 DUP2 MSTORE DUP7 MLOAD PUSH1 0x8 SWAP1 SWAP2 ADD SWAP3 DUP8 ADD SWAP2 POP DUP1 DUP4 DUP4 JUMPDEST PUSH1 0x20 DUP4 LT PUSH2 0x318F JUMPI DUP1 MLOAD DUP3 MSTORE PUSH1 0x1F NOT SWAP1 SWAP3 ADD SWAP2 PUSH1 0x20 SWAP2 DUP3 ADD SWAP2 ADD PUSH2 0x3170 JUMP JUMPDEST PUSH1 0x1 DUP4 PUSH1 0x20 SUB PUSH2 0x100 EXP SUB DUP1 NOT DUP3 MLOAD AND DUP2 DUP5 MLOAD AND DUP1 DUP3 OR DUP6 MSTORE POP POP POP POP POP POP SWAP1 POP ADD DUP1 PUSH2 0x4C89 PUSH1 0x27 SWAP2 CODECOPY PUSH1 0x27 ADD DUP4 DUP1 MLOAD SWAP1 PUSH1 0x20 ADD SWAP1 DUP1 DUP4 DUP4 JUMPDEST PUSH1 0x20 DUP4 LT PUSH2 0x31E7 JUMPI DUP1 MLOAD DUP3 MSTORE PUSH1 0x1F NOT SWAP1 SWAP3 ADD SWAP2 PUSH1 0x20 SWAP2 DUP3 ADD SWAP2 ADD PUSH2 0x31C8 JUMP JUMPDEST MLOAD DUP2 MLOAD PUSH1 0x20 SWAP4 DUP5 SUB PUSH2 0x100 EXP PUSH1 0x0 NOT ADD DUP1 NOT SWAP1 SWAP3 AND SWAP2 AND OR SWAP1 MSTORE PUSH8 0x383C111031BC9E91 PUSH1 0xC1 SHL SWAP2 SWAP1 SWAP4 ADD SWAP1 DUP2 MSTORE DUP5 MLOAD PUSH1 0x8 SWAP1 SWAP2 ADD SWAP3 DUP6 ADD SWAP2 POP DUP1 DUP4 DUP4 JUMPDEST PUSH1 0x20 DUP4 LT PUSH2 0x3243 JUMPI DUP1 MLOAD DUP3 MSTORE PUSH1 0x1F NOT SWAP1 SWAP3 ADD SWAP2 PUSH1 0x20 SWAP2 DUP3 ADD SWAP2 ADD PUSH2 0x3224 JUMP JUMPDEST PUSH1 0x1 DUP4 PUSH1 0x20 SUB PUSH2 0x100 EXP SUB DUP1 NOT DUP3 MLOAD AND DUP2 DUP5 MLOAD AND DUP1 DUP3 OR DUP6 MSTORE POP POP POP POP POP POP SWAP1 POP ADD DUP1 PUSH2 0x4F12 PUSH1 0x2A SWAP2 CODECOPY PUSH1 0x2A ADD SWAP5 POP POP POP POP POP PUSH1 0x40 MLOAD PUSH1 0x20 DUP2 DUP4 SUB SUB DUP2 MSTORE SWAP1 PUSH1 0x40 MSTORE SWAP5 POP PUSH2 0x3475 JUMP JUMPDEST DUP4 DUP4 DUP4 DUP4 PUSH1 0x40 MLOAD PUSH1 0x20 ADD DUP1 DUP1 PUSH12 0x1E31B4B931B6329031BC1E91 PUSH1 0xA1 SHL DUP2 MSTORE POP PUSH1 0xC ADD DUP6 DUP1 MLOAD SWAP1 PUSH1 0x20 ADD SWAP1 DUP1 DUP4 DUP4 JUMPDEST PUSH1 0x20 DUP4 LT PUSH2 0x32D9 JUMPI DUP1 MLOAD DUP3 MSTORE PUSH1 0x1F NOT SWAP1 SWAP3 ADD SWAP2 PUSH1 0x20 SWAP2 DUP3 ADD SWAP2 ADD PUSH2 0x32BA JUMP JUMPDEST MLOAD DUP2 MLOAD PUSH1 0x20 SWAP4 DUP5 SUB PUSH2 0x100 EXP PUSH1 0x0 NOT ADD DUP1 NOT SWAP1 SWAP3 AND SWAP2 AND OR SWAP1 MSTORE PUSH8 0x383C111031BC9E91 PUSH1 0xC1 SHL SWAP2 SWAP1 SWAP4 ADD SWAP1 DUP2 MSTORE DUP7 MLOAD PUSH1 0x8 SWAP1 SWAP2 ADD SWAP3 DUP8 ADD SWAP2 POP DUP1 DUP4 DUP4 JUMPDEST PUSH1 0x20 DUP4 LT PUSH2 0x3335 JUMPI DUP1 MLOAD DUP3 MSTORE PUSH1 0x1F NOT SWAP1 SWAP3 ADD SWAP2 PUSH1 0x20 SWAP2 DUP3 ADD SWAP2 ADD PUSH2 0x3316 JUMP JUMPDEST MLOAD DUP2 MLOAD PUSH1 0x20 SWAP4 DUP5 SUB PUSH2 0x100 EXP PUSH1 0x0 NOT ADD DUP1 NOT SWAP1 SWAP3 AND SWAP2 AND OR SWAP1 MSTORE PUSH27 0x383C1110391E911A383C11103334B6361E913BB434BA329110179F PUSH1 0x29 SHL SWAP2 SWAP1 SWAP4 ADD SWAP1 DUP2 MSTORE PUSH12 0x1E31B4B931B6329031BC1E91 PUSH1 0xA1 SHL PUSH1 0x1B DUP3 ADD MSTORE DUP6 MLOAD PUSH1 0x27 SWAP1 SWAP2 ADD SWAP3 DUP7 ADD SWAP2 POP DUP1 DUP4 DUP4 JUMPDEST PUSH1 0x20 DUP4 LT PUSH2 0x33B9 JUMPI DUP1 MLOAD DUP3 MSTORE PUSH1 0x1F NOT SWAP1 SWAP3 ADD SWAP2 PUSH1 0x20 SWAP2 DUP3 ADD SWAP2 ADD PUSH2 0x339A JUMP JUMPDEST MLOAD DUP2 MLOAD PUSH1 0x20 SWAP4 DUP5 SUB PUSH2 0x100 EXP PUSH1 0x0 NOT ADD DUP1 NOT SWAP1 SWAP3 AND SWAP2 AND OR SWAP1 MSTORE PUSH8 0x383C111031BC9E91 PUSH1 0xC1 SHL SWAP2 SWAP1 SWAP4 ADD SWAP1 DUP2 MSTORE DUP5 MLOAD PUSH1 0x8 SWAP1 SWAP2 ADD SWAP3 DUP6 ADD SWAP2 POP DUP1 DUP4 DUP4 JUMPDEST PUSH1 0x20 DUP4 LT PUSH2 0x3415 JUMPI DUP1 MLOAD DUP3 MSTORE PUSH1 0x1F NOT SWAP1 SWAP3 ADD SWAP2 PUSH1 0x20 SWAP2 DUP3 ADD SWAP2 ADD PUSH2 0x33F6 JUMP JUMPDEST PUSH1 0x1 DUP4 PUSH1 0x20 SUB PUSH2 0x100 EXP SUB DUP1 NOT DUP3 MLOAD AND DUP2 DUP5 MLOAD AND DUP1 DUP3 OR DUP6 MSTORE POP POP POP POP POP POP SWAP1 POP ADD DUP1 PUSH27 0x383C1110391E911A383C11103334B6361E913BB434BA329110179F PUSH1 0x29 SHL DUP2 MSTORE POP PUSH1 0x1B ADD SWAP5 POP POP POP POP POP PUSH1 0x40 MLOAD PUSH1 0x20 DUP2 DUP4 SUB SUB DUP2 MSTORE SWAP1 PUSH1 0x40 MSTORE SWAP5 POP JUMPDEST POP POP POP POP SWAP2 SWAP1 POP JUMP JUMPDEST PUSH1 0x60 PUSH1 0x0 PUSH1 0x40 MLOAD DUP1 PUSH1 0x20 ADD PUSH1 0x40 MSTORE DUP1 PUSH1 0x0 DUP2 MSTORE POP SWAP1 POP PUSH1 0x0 DUP4 PUSH1 0x2 SIGNEXTEND SLT ISZERO PUSH2 0x34C4 JUMPI DUP3 PUSH1 0x0 NOT MUL SWAP3 POP PUSH1 0x40 MLOAD DUP1 PUSH1 0x40 ADD PUSH1 0x40 MSTORE DUP1 PUSH1 0x1 DUP2 MSTORE PUSH1 0x20 ADD PUSH1 0x2D PUSH1 0xF8 SHL DUP2 MSTORE POP SWAP1 POP JUMPDEST DUP1 PUSH2 0x34D1 DUP5 PUSH1 0x2 SIGNEXTEND PUSH2 0x624 JUMP JUMPDEST PUSH1 0x40 MLOAD PUSH1 0x20 ADD DUP1 DUP4 DUP1 MLOAD SWAP1 PUSH1 0x20 ADD SWAP1 DUP1 DUP4 DUP4 JUMPDEST PUSH1 0x20 DUP4 LT PUSH2 0x3503 JUMPI DUP1 MLOAD DUP3 MSTORE PUSH1 0x1F NOT SWAP1 SWAP3 ADD SWAP2 PUSH1 0x20 SWAP2 DUP3 ADD SWAP2 ADD PUSH2 0x34E4 JUMP JUMPDEST MLOAD DUP2 MLOAD PUSH1 0x20 SWAP4 DUP5 SUB PUSH2 0x100 EXP PUSH1 0x0 NOT ADD DUP1 NOT SWAP1 SWAP3 AND SWAP2 AND OR SWAP1 MSTORE DUP6 MLOAD SWAP2 SWAP1 SWAP4 ADD SWAP3 DUP6 ADD SWAP2 POP DUP1 DUP4 DUP4 JUMPDEST PUSH1 0x20 DUP4 LT PUSH2 0x354B JUMPI DUP1 MLOAD DUP3 MSTORE PUSH1 0x1F NOT SWAP1 SWAP3 ADD SWAP2 PUSH1 0x20 SWAP2 DUP3 ADD SWAP2 ADD PUSH2 0x352C JUMP JUMPDEST PUSH1 0x1 DUP4 PUSH1 0x20 SUB PUSH2 0x100 EXP SUB DUP1 NOT DUP3 MLOAD AND DUP2 DUP5 MLOAD AND DUP1 DUP3 OR DUP6 MSTORE POP POP POP POP POP POP SWAP1 POP ADD SWAP3 POP POP POP PUSH1 0x40 MLOAD PUSH1 0x20 DUP2 DUP4 SUB SUB DUP2 MSTORE SWAP1 PUSH1 0x40 MSTORE SWAP2 POP POP SWAP2 SWAP1 POP JUMP JUMPDEST PUSH1 0x60 DUP1 PUSH1 0x0 PUSH1 0x2 DUP6 DUP6 ADD DUP2 SIGNEXTEND SDIV SWAP1 POP PUSH3 0x1E847 NOT DUP2 PUSH1 0x2 SIGNEXTEND SLT ISZERO PUSH2 0x35E4 JUMPI PUSH1 0x40 MLOAD DUP1 PUSH1 0x40 ADD PUSH1 0x40 MSTORE DUP1 PUSH1 0x1 DUP2 MSTORE PUSH1 0x20 ADD PUSH1 0x7 PUSH1 0xFB SHL DUP2 MSTORE POP PUSH1 0x40 MLOAD DUP1 PUSH1 0x40 ADD PUSH1 0x40 MSTORE DUP1 PUSH1 0x1 DUP2 MSTORE PUSH1 0x20 ADD PUSH1 0x37 PUSH1 0xF8 SHL DUP2 MSTORE POP SWAP3 POP SWAP3 POP POP PUSH2 0x2DE2 JUMP JUMPDEST PUSH3 0x124F7 NOT DUP2 PUSH1 0x2 SIGNEXTEND SLT ISZERO PUSH2 0x3634 JUMPI PUSH1 0x40 MLOAD DUP1 PUSH1 0x40 ADD PUSH1 0x40 MSTORE DUP1 PUSH1 0x1 DUP2 MSTORE PUSH1 0x20 ADD PUSH1 0x7 PUSH1 0xFB SHL DUP2 MSTORE POP PUSH1 0x40 MLOAD DUP1 PUSH1 0x40 ADD PUSH1 0x40 MSTORE DUP1 PUSH1 0x4 DUP2 MSTORE PUSH1 0x20 ADD PUSH4 0x31302E35 PUSH1 0xE0 SHL DUP2 MSTORE POP SWAP3 POP SWAP3 POP POP PUSH2 0x2DE2 JUMP JUMPDEST PUSH2 0x61A7 NOT DUP2 PUSH1 0x2 SIGNEXTEND SLT ISZERO PUSH2 0x3684 JUMPI PUSH1 0x40 MLOAD DUP1 PUSH1 0x40 ADD PUSH1 0x40 MSTORE DUP1 PUSH1 0x1 DUP2 MSTORE PUSH1 0x20 ADD PUSH1 0x7 PUSH1 0xFB SHL DUP2 MSTORE POP PUSH1 0x40 MLOAD DUP1 PUSH1 0x40 ADD PUSH1 0x40 MSTORE DUP1 PUSH1 0x5 DUP2 MSTORE PUSH1 0x20 ADD PUSH5 0x31342E3235 PUSH1 0xD8 SHL DUP2 MSTORE POP SWAP3 POP SWAP3 POP POP PUSH2 0x2DE2 JUMP JUMPDEST PUSH2 0x1387 NOT DUP2 PUSH1 0x2 SIGNEXTEND SLT ISZERO PUSH2 0x36D2 JUMPI PUSH1 0x40 MLOAD DUP1 PUSH1 0x40 ADD PUSH1 0x40 MSTORE DUP1 PUSH1 0x2 DUP2 MSTORE PUSH1 0x20 ADD PUSH2 0x313 PUSH1 0xF4 SHL DUP2 MSTORE POP PUSH1 0x40 MLOAD DUP1 PUSH1 0x40 ADD PUSH1 0x40 MSTORE DUP1 PUSH1 0x2 DUP2 MSTORE PUSH1 0x20 ADD PUSH2 0x627 PUSH1 0xF3 SHL DUP2 MSTORE POP SWAP3 POP SWAP3 POP POP PUSH2 0x2DE2 JUMP JUMPDEST PUSH1 0x0 DUP2 PUSH1 0x2 SIGNEXTEND SLT ISZERO PUSH2 0x371E JUMPI PUSH1 0x40 MLOAD DUP1 PUSH1 0x40 ADD PUSH1 0x40 MSTORE DUP1 PUSH1 0x2 DUP2 MSTORE PUSH1 0x20 ADD PUSH2 0x3131 PUSH1 0xF0 SHL DUP2 MSTORE POP PUSH1 0x40 MLOAD DUP1 PUSH1 0x40 ADD PUSH1 0x40 MSTORE DUP1 PUSH1 0x2 DUP2 MSTORE PUSH1 0x20 ADD PUSH2 0x3231 PUSH1 0xF0 SHL DUP2 MSTORE POP SWAP3 POP SWAP3 POP POP PUSH2 0x2DE2 JUMP JUMPDEST PUSH2 0x1388 DUP2 PUSH1 0x2 SIGNEXTEND SLT ISZERO PUSH2 0x376B JUMPI PUSH1 0x40 MLOAD DUP1 PUSH1 0x40 ADD PUSH1 0x40 MSTORE DUP1 PUSH1 0x2 DUP2 MSTORE PUSH1 0x20 ADD PUSH2 0x3133 PUSH1 0xF0 SHL DUP2 MSTORE POP PUSH1 0x40 MLOAD DUP1 PUSH1 0x40 ADD PUSH1 0x40 MSTORE DUP1 PUSH1 0x2 DUP2 MSTORE PUSH1 0x20 ADD PUSH2 0x3233 PUSH1 0xF0 SHL DUP2 MSTORE POP SWAP3 POP SWAP3 POP POP PUSH2 0x2DE2 JUMP JUMPDEST PUSH2 0x61A8 DUP2 PUSH1 0x2 SIGNEXTEND SLT ISZERO PUSH2 0x37B8 JUMPI PUSH1 0x40 MLOAD DUP1 PUSH1 0x40 ADD PUSH1 0x40 MSTORE DUP1 PUSH1 0x2 DUP2 MSTORE PUSH1 0x20 ADD PUSH2 0x3135 PUSH1 0xF0 SHL DUP2 MSTORE POP PUSH1 0x40 MLOAD DUP1 PUSH1 0x40 ADD PUSH1 0x40 MSTORE DUP1 PUSH1 0x2 DUP2 MSTORE PUSH1 0x20 ADD PUSH2 0x3235 PUSH1 0xF0 SHL DUP2 MSTORE POP SWAP3 POP SWAP3 POP POP PUSH2 0x2DE2 JUMP JUMPDEST PUSH3 0x124F8 DUP2 PUSH1 0x2 SIGNEXTEND SLT ISZERO PUSH2 0x3806 JUMPI PUSH1 0x40 MLOAD DUP1 PUSH1 0x40 ADD PUSH1 0x40 MSTORE DUP1 PUSH1 0x2 DUP2 MSTORE PUSH1 0x20 ADD PUSH2 0x627 PUSH1 0xF3 SHL DUP2 MSTORE POP PUSH1 0x40 MLOAD DUP1 PUSH1 0x40 ADD PUSH1 0x40 MSTORE DUP1 PUSH1 0x2 DUP2 MSTORE PUSH1 0x20 ADD PUSH2 0x191B PUSH1 0xF1 SHL DUP2 MSTORE POP SWAP3 POP SWAP3 POP POP PUSH2 0x2DE2 JUMP JUMPDEST PUSH3 0x1E848 DUP2 PUSH1 0x2 SIGNEXTEND SLT ISZERO PUSH2 0x3854 JUMPI PUSH1 0x40 MLOAD DUP1 PUSH1 0x40 ADD PUSH1 0x40 MSTORE DUP1 PUSH1 0x2 DUP2 MSTORE PUSH1 0x20 ADD PUSH2 0x3231 PUSH1 0xF0 SHL DUP2 MSTORE POP PUSH1 0x40 MLOAD DUP1 PUSH1 0x40 ADD PUSH1 0x40 MSTORE DUP1 PUSH1 0x2 DUP2 MSTORE PUSH1 0x20 ADD PUSH2 0x3237 PUSH1 0xF0 SHL DUP2 MSTORE POP SWAP3 POP SWAP3 POP POP PUSH2 0x2DE2 JUMP JUMPDEST PUSH1 0x40 MLOAD DUP1 PUSH1 0x40 ADD PUSH1 0x40 MSTORE DUP1 PUSH1 0x2 DUP2 MSTORE PUSH1 0x20 ADD PUSH2 0xC8D PUSH1 0xF2 SHL DUP2 MSTORE POP PUSH1 0x40 MLOAD DUP1 PUSH1 0x40 ADD PUSH1 0x40 MSTORE DUP1 PUSH1 0x2 DUP2 MSTORE PUSH1 0x20 ADD PUSH2 0x3237 PUSH1 0xF0 SHL DUP2 MSTORE POP SWAP3 POP SWAP3 POP POP PUSH2 0x2DE2 JUMP JUMPDEST PUSH1 0x40 DUP1 MLOAD PUSH1 0x20 DUP1 DUP3 ADD DUP6 SWAP1 MSTORE PUSH1 0x1 PUSH1 0x1 PUSH1 0x60 SHL SUB NOT PUSH1 0x60 DUP6 SWAP1 SHL AND DUP3 DUP5 ADD MSTORE DUP3 MLOAD PUSH1 0x34 DUP2 DUP5 SUB ADD DUP2 MSTORE PUSH1 0x54 SWAP1 SWAP3 ADD SWAP1 SWAP3 MSTORE DUP1 MLOAD SWAP2 ADD KECCAK256 PUSH1 0x0 SWAP1 PUSH2 0x38D6 DUP5 PUSH2 0x396E JUMP JUMPDEST PUSH1 0x2 MUL PUSH1 0x1 ADD PUSH1 0xFF AND PUSH1 0x0 NOT DUP2 PUSH2 0x38E9 JUMPI INVALID JUMPDEST DIV GT SWAP4 SWAP3 POP POP POP JUMP JUMPDEST PUSH1 0x0 DUP2 DUP4 SUB DUP2 DUP4 SLT DUP1 ISZERO SWAP1 PUSH2 0x3907 JUMPI POP DUP4 DUP2 SGT ISZERO JUMPDEST DUP1 PUSH2 0x391C JUMPI POP PUSH1 0x0 DUP4 SLT DUP1 ISZERO PUSH2 0x391C JUMPI POP DUP4 DUP2 SGT JUMPDEST PUSH2 0x61D JUMPI PUSH1 0x40 MLOAD PUSH3 0x461BCD PUSH1 0xE5 SHL DUP2 MSTORE PUSH1 0x4 ADD DUP1 DUP1 PUSH1 0x20 ADD DUP3 DUP2 SUB DUP3 MSTORE PUSH1 0x24 DUP2 MSTORE PUSH1 0x20 ADD DUP1 PUSH2 0x5868 PUSH1 0x24 SWAP2 CODECOPY PUSH1 0x40 ADD SWAP2 POP POP PUSH1 0x40 MLOAD DUP1 SWAP2 SUB SWAP1 REVERT JUMPDEST PUSH1 0x0 DUP1 DUP3 SLT ISZERO PUSH2 0x396A JUMPI DUP2 PUSH1 0x0 SUB PUSH2 0x46B JUMP JUMPDEST POP SWAP1 JUMP JUMPDEST PUSH1 0x0 DUP1 DUP3 GT PUSH2 0x397C JUMPI PUSH1 0x0 DUP1 REVERT JUMPDEST PUSH1 0x1 PUSH1 0x80 SHL DUP3 LT PUSH2 0x398F JUMPI PUSH1 0x80 SWAP2 DUP3 SHR SWAP2 ADD JUMPDEST PUSH1 0x1 PUSH1 0x40 SHL DUP3 LT PUSH2 0x39A2 JUMPI PUSH1 0x40 SWAP2 DUP3 SHR SWAP2 ADD JUMPDEST PUSH1 0x1 PUSH1 0x20 SHL DUP3 LT PUSH2 0x39B5 JUMPI PUSH1 0x20 SWAP2 DUP3 SHR SWAP2 ADD JUMPDEST PUSH3 0x10000 DUP3 LT PUSH2 0x39C7 JUMPI PUSH1 0x10 SWAP2 DUP3 SHR SWAP2 ADD JUMPDEST PUSH2 0x100 DUP3 LT PUSH2 0x39D8 JUMPI PUSH1 0x8 SWAP2 DUP3 SHR SWAP2 ADD JUMPDEST PUSH1 0x10 DUP3 LT PUSH2 0x39E8 JUMPI PUSH1 0x4 SWAP2 DUP3 SHR SWAP2 ADD JUMPDEST PUSH1 0x4 DUP3 LT PUSH2 0x39F8 JUMPI PUSH1 0x2 SWAP2 DUP3 SHR SWAP2 ADD JUMPDEST PUSH1 0x2 DUP3 LT PUSH2 0x16B JUMPI PUSH1 0x1 ADD SWAP2 SWAP1 POP JUMP JUMPDEST PUSH1 0x40 DUP1 MLOAD PUSH2 0x100 DUP2 ADD DUP3 MSTORE PUSH1 0x0 DUP1 DUP3 MSTORE PUSH1 0x20 DUP3 ADD DUP2 SWAP1 MSTORE SWAP2 DUP2 ADD DUP3 SWAP1 MSTORE PUSH1 0x60 DUP2 ADD DUP3 SWAP1 MSTORE PUSH1 0x80 DUP2 ADD DUP3 SWAP1 MSTORE PUSH1 0xA0 DUP2 ADD DUP3 SWAP1 MSTORE PUSH1 0xC0 DUP2 ADD DUP3 SWAP1 MSTORE PUSH1 0xE0 DUP2 ADD SWAP2 SWAP1 SWAP2 MSTORE SWAP1 JUMP JUMPDEST DUP1 CALLDATALOAD PUSH1 0x1 PUSH1 0x1 PUSH1 0xA0 SHL SUB DUP2 AND DUP2 EQ PUSH2 0x16B JUMPI PUSH1 0x0 DUP1 REVERT JUMPDEST DUP1 CALLDATALOAD DUP1 ISZERO ISZERO DUP2 EQ PUSH2 0x16B JUMPI PUSH1 0x0 DUP1 REVERT JUMPDEST DUP1 CALLDATALOAD PUSH1 0x2 DUP2 SWAP1 SIGNEXTEND DUP2 EQ PUSH2 0x16B JUMPI PUSH1 0x0 DUP1 REVERT JUMPDEST PUSH1 0x0 DUP3 PUSH1 0x1F DUP4 ADD SLT PUSH2 0x3A95 JUMPI DUP1 DUP2 REVERT JUMPDEST DUP2 CALLDATALOAD PUSH1 0x1 PUSH1 0x1 PUSH1 0x40 SHL SUB DUP2 GT ISZERO PUSH2 0x3AA8 JUMPI INVALID JUMPDEST PUSH2 0x3ABB PUSH1 0x1F DUP3 ADD PUSH1 0x1F NOT AND PUSH1 0x20 ADD PUSH2 0x4175 JUMP JUMPDEST DUP2 DUP2 MSTORE DUP5 PUSH1 0x20 DUP4 DUP7 ADD ADD GT ISZERO PUSH2 0x3ACF JUMPI DUP3 DUP4 REVERT JUMPDEST DUP2 PUSH1 0x20 DUP6 ADD PUSH1 0x20 DUP4 ADD CALLDATACOPY SWAP1 DUP2 ADD PUSH1 0x20 ADD SWAP2 SWAP1 SWAP2 MSTORE SWAP3 SWAP2 POP POP JUMP JUMPDEST DUP1 CALLDATALOAD PUSH3 0xFFFFFF DUP2 AND DUP2 EQ PUSH2 0x16B JUMPI PUSH1 0x0 DUP1 REVERT JUMPDEST DUP1 CALLDATALOAD PUSH1 0xFF DUP2 AND DUP2 EQ PUSH2 0x16B JUMPI PUSH1 0x0 DUP1 REVERT JUMPDEST PUSH1 0x0 PUSH1 0x20 DUP3 DUP5 SUB SLT ISZERO PUSH2 0x3B1E JUMPI DUP1 DUP2 REVERT JUMPDEST DUP2 CALLDATALOAD PUSH1 0x1 PUSH1 0x1 PUSH1 0x40 SHL SUB DUP1 DUP3 GT ISZERO PUSH2 0x3B34 JUMPI DUP3 DUP4 REVERT JUMPDEST DUP2 DUP5 ADD SWAP2 POP PUSH2 0x1C0 DUP1 DUP4 DUP8 SUB SLT ISZERO PUSH2 0x3B4A JUMPI DUP4 DUP5 REVERT JUMPDEST PUSH2 0x3B53 DUP2 PUSH2 0x4175 JUMP JUMPDEST SWAP1 POP DUP3 CALLDATALOAD DUP2 MSTORE PUSH2 0x3B65 PUSH1 0x20 DUP5 ADD PUSH2 0x3A4C JUMP JUMPDEST PUSH1 0x20 DUP3 ADD MSTORE PUSH2 0x3B76 PUSH1 0x40 DUP5 ADD PUSH2 0x3A4C JUMP JUMPDEST PUSH1 0x40 DUP3 ADD MSTORE PUSH1 0x60 DUP4 ADD CALLDATALOAD DUP3 DUP2 GT ISZERO PUSH2 0x3B8C JUMPI DUP5 DUP6 REVERT JUMPDEST PUSH2 0x3B98 DUP8 DUP3 DUP7 ADD PUSH2 0x3A85 JUMP JUMPDEST PUSH1 0x60 DUP4 ADD MSTORE POP PUSH1 0x80 DUP4 ADD CALLDATALOAD DUP3 DUP2 GT ISZERO PUSH2 0x3BAF JUMPI DUP5 DUP6 REVERT JUMPDEST PUSH2 0x3BBB DUP8 DUP3 DUP7 ADD PUSH2 0x3A85 JUMP JUMPDEST PUSH1 0x80 DUP4 ADD MSTORE POP PUSH2 0x3BCD PUSH1 0xA0 DUP5 ADD PUSH2 0x3AFC JUMP JUMPDEST PUSH1 0xA0 DUP3 ADD MSTORE PUSH2 0x3BDE PUSH1 0xC0 DUP5 ADD PUSH2 0x3AFC JUMP JUMPDEST PUSH1 0xC0 DUP3 ADD MSTORE PUSH2 0x3BEF PUSH1 0xE0 DUP5 ADD PUSH2 0x3A63 JUMP JUMPDEST PUSH1 0xE0 DUP3 ADD MSTORE PUSH2 0x100 SWAP2 POP PUSH2 0x3C04 DUP3 DUP5 ADD PUSH2 0x3A73 JUMP JUMPDEST DUP3 DUP3 ADD MSTORE PUSH2 0x120 SWAP2 POP PUSH2 0x3C18 DUP3 DUP5 ADD PUSH2 0x3A73 JUMP JUMPDEST DUP3 DUP3 ADD MSTORE PUSH2 0x140 SWAP2 POP PUSH2 0x3C2C DUP3 DUP5 ADD PUSH2 0x3A73 JUMP JUMPDEST DUP3 DUP3 ADD MSTORE PUSH2 0x160 SWAP2 POP PUSH2 0x3C40 DUP3 DUP5 ADD PUSH2 0x3A73 JUMP JUMPDEST DUP3 DUP3 ADD MSTORE PUSH2 0x180 SWAP2 POP PUSH2 0x3C54 DUP3 DUP5 ADD PUSH2 0x3AE9 JUMP JUMPDEST DUP3 DUP3 ADD MSTORE PUSH2 0x1A0 SWAP2 POP PUSH2 0x3C68 DUP3 DUP5 ADD PUSH2 0x3A4C JUMP JUMPDEST SWAP2 DUP2 ADD SWAP2 SWAP1 SWAP2 MSTORE SWAP5 SWAP4 POP POP POP POP JUMP JUMPDEST PUSH1 0x0 DUP2 MLOAD PUSH2 0x3C89 DUP2 DUP6 PUSH1 0x20 DUP7 ADD PUSH2 0x4198 JUMP JUMPDEST SWAP3 SWAP1 SWAP3 ADD SWAP3 SWAP2 POP POP JUMP JUMPDEST PUSH32 0xE29AA0EFB88F20444953434C41494D45523A204475652064696C6967656E6365 DUP2 MSTORE PUSH32 0x20697320696D7065726174697665207768656E20617373657373696E67207468 PUSH1 0x20 DUP3 ADD MSTORE PUSH32 0x6973204E46542E204D616B65207375726520746F6B656E206164647265737365 PUSH1 0x40 DUP3 ADD MSTORE PUSH32 0x73206D617463682074686520657870656374656420746F6B656E732C20617320 PUSH1 0x60 DUP3 ADD MSTORE PUSH32 0x746F6B656E2073796D626F6C73206D617920626520696D6974617465642E0000 PUSH1 0x80 DUP3 ADD MSTORE PUSH1 0x9E ADD SWAP1 JUMP JUMPDEST PUSH4 0x2E372E37 PUSH1 0xE1 SHL DUP2 MSTORE PUSH1 0x4 ADD SWAP1 JUMP JUMPDEST PUSH1 0x0 PUSH32 0x54686973204E465420726570726573656E74732061206C697175696469747920 DUP3 MSTORE PUSH25 0x3837B9B4BA34B7B71034B71030902AB734B9BBB0B8102B199 PUSH1 0x3D SHL PUSH1 0x20 DUP4 ADD MSTORE DUP6 MLOAD PUSH2 0x3DBE DUP2 PUSH1 0x39 DUP6 ADD PUSH1 0x20 DUP11 ADD PUSH2 0x4198 JUMP JUMPDEST PUSH1 0x2D PUSH1 0xF8 SHL PUSH1 0x39 SWAP2 DUP5 ADD SWAP2 DUP3 ADD MSTORE DUP6 MLOAD PUSH2 0x3DDF DUP2 PUSH1 0x3A DUP5 ADD PUSH1 0x20 DUP11 ADD PUSH2 0x4198 JUMP JUMPDEST PUSH7 0x103837B7B6171 PUSH1 0xCD SHL PUSH1 0x3A SWAP3 SWAP1 SWAP2 ADD SWAP2 DUP3 ADD MSTORE PUSH32 0x546865206F776E6572206F662074686973204E46542063616E206D6F64696679 PUSH1 0x41 DUP3 ADD MSTORE PUSH26 0x1037B9103932B232B2B6903A3432903837B9B4BA34B7B7172E37 PUSH1 0x31 SHL PUSH1 0x61 DUP3 ADD MSTORE PUSH16 0x2E372837B7B61020B2323932B9B99D1 PUSH1 0x85 SHL PUSH1 0x7B DUP3 ADD MSTORE DUP5 MLOAD PUSH2 0x3E69 DUP2 PUSH1 0x8B DUP5 ADD PUSH1 0x20 DUP10 ADD PUSH2 0x4198 JUMP JUMPDEST PUSH2 0x2E37 PUSH1 0xF1 SHL PUSH1 0x8B SWAP3 SWAP1 SWAP2 ADD SWAP2 DUP3 ADD MSTORE PUSH2 0x3AB PUSH1 0x8D DUP3 ADD DUP6 PUSH2 0x3C77 JUMP JUMPDEST PUSH9 0x3D913730B6B2911D11 PUSH1 0xB9 SHL DUP2 MSTORE DUP5 MLOAD PUSH1 0x0 SWAP1 PUSH2 0x3EAB DUP2 PUSH1 0x9 DUP6 ADD PUSH1 0x20 DUP11 ADD PUSH2 0x4198 JUMP JUMPDEST PUSH18 0x111610113232B9B1B934B83A34B7B7111D11 PUSH1 0x71 SHL PUSH1 0x9 SWAP2 DUP5 ADD SWAP2 DUP3 ADD MSTORE DUP6 MLOAD PUSH2 0x3EDD DUP2 PUSH1 0x1B DUP5 ADD PUSH1 0x20 DUP11 ADD PUSH2 0x4198 JUMP JUMPDEST DUP6 MLOAD SWAP2 ADD SWAP1 PUSH2 0x3EF3 DUP2 PUSH1 0x1B DUP5 ADD PUSH1 0x20 DUP10 ADD PUSH2 0x4198 JUMP JUMPDEST PUSH13 0x1116101134B6B0B3B2911D1011 PUSH1 0x99 SHL PUSH1 0x1B SWAP3 SWAP1 SWAP2 ADD SWAP2 DUP3 ADD MSTORE PUSH26 0x19185D184E9A5B5859D94BDCDD99CADE1B5B0ED8985CD94D8D0B PUSH1 0x32 SHL PUSH1 0x28 DUP3 ADD MSTORE DUP4 MLOAD PUSH2 0x3F44 DUP2 PUSH1 0x42 DUP5 ADD PUSH1 0x20 DUP9 ADD PUSH2 0x4198 JUMP JUMPDEST PUSH2 0x227D PUSH1 0xF0 SHL PUSH1 0x42 SWAP3 SWAP1 SWAP2 ADD SWAP2 DUP3 ADD MSTORE PUSH1 0x44 ADD SWAP7 SWAP6 POP POP POP POP POP POP JUMP JUMPDEST PUSH1 0x0 PUSH10 0x2AB734B9BBB0B810169 PUSH1 0xB5 SHL DUP3 MSTORE DUP7 MLOAD PUSH2 0x3F86 DUP2 PUSH1 0xA DUP6 ADD PUSH1 0x20 DUP12 ADD PUSH2 0x4198 JUMP JUMPDEST DUP1 DUP4 ADD SWAP1 POP PUSH3 0x10169 PUSH1 0xED SHL DUP1 PUSH1 0xA DUP4 ADD MSTORE DUP8 MLOAD PUSH2 0x3FAB DUP2 PUSH1 0xD DUP6 ADD PUSH1 0x20 DUP13 ADD PUSH2 0x4198 JUMP JUMPDEST PUSH1 0x2F PUSH1 0xF8 SHL PUSH1 0xD SWAP4 SWAP1 SWAP2 ADD SWAP3 DUP4 ADD MSTORE DUP7 MLOAD PUSH2 0x3FCD DUP2 PUSH1 0xE DUP6 ADD PUSH1 0x20 DUP12 ADD PUSH2 0x4198 JUMP JUMPDEST PUSH1 0xE SWAP3 ADD SWAP2 DUP3 ADD MSTORE DUP5 MLOAD PUSH2 0x3FE8 DUP2 PUSH1 0x11 DUP5 ADD PUSH1 0x20 DUP10 ADD PUSH2 0x4198 JUMP JUMPDEST PUSH2 0x1E1F PUSH1 0xF1 SHL PUSH1 0x11 SWAP3 SWAP1 SWAP2 ADD SWAP2 DUP3 ADD MSTORE DUP4 MLOAD PUSH2 0x400B DUP2 PUSH1 0x13 DUP5 ADD PUSH1 0x20 DUP9 ADD PUSH2 0x4198 JUMP JUMPDEST ADD PUSH1 0x13 ADD SWAP8 SWAP7 POP POP POP POP POP POP POP JUMP JUMPDEST PUSH1 0x0 PUSH10 0x1020B2323932B9B99D1 PUSH1 0xB5 SHL DUP1 DUP4 MSTORE DUP8 MLOAD PUSH2 0x4040 DUP2 PUSH1 0xA DUP7 ADD PUSH1 0x20 DUP13 ADD PUSH2 0x4198 JUMP JUMPDEST PUSH2 0x2E37 PUSH1 0xF1 SHL PUSH1 0xA SWAP2 DUP6 ADD SWAP2 DUP3 ADD MSTORE DUP8 MLOAD PUSH2 0x4062 DUP2 PUSH1 0xC DUP5 ADD PUSH1 0x20 DUP13 ADD PUSH2 0x4198 JUMP JUMPDEST ADD PUSH1 0xC DUP2 ADD SWAP2 SWAP1 SWAP2 MSTORE DUP6 MLOAD SWAP1 PUSH2 0x407F DUP3 PUSH1 0x16 DUP4 ADD PUSH1 0x20 DUP11 ADD PUSH2 0x4198 JUMP JUMPDEST DUP2 DUP2 ADD SWAP2 POP POP PUSH12 0x2E372332B2902A34B2B91D1 PUSH1 0xA5 SHL PUSH1 0x16 DUP3 ADD MSTORE DUP5 MLOAD PUSH2 0x40AD DUP2 PUSH1 0x22 DUP5 ADD PUSH1 0x20 DUP10 ADD PUSH2 0x4198 JUMP JUMPDEST PUSH12 0x2E372A37B5B2B71024A21D1 PUSH1 0xA5 SHL PUSH1 0x22 SWAP3 SWAP1 SWAP2 ADD SWAP2 DUP3 ADD MSTORE DUP4 MLOAD PUSH2 0x40DA DUP2 PUSH1 0x2E DUP5 ADD PUSH1 0x20 DUP9 ADD PUSH2 0x4198 JUMP JUMPDEST PUSH2 0x40F0 PUSH2 0x40EB PUSH1 0x2E DUP4 DUP6 ADD ADD PUSH2 0x3D54 JUMP JUMPDEST PUSH2 0x3C93 JUMP JUMPDEST SWAP10 SWAP9 POP POP POP POP POP POP POP POP POP JUMP JUMPDEST PUSH1 0x0 PUSH32 0x646174613A6170706C69636174696F6E2F6A736F6E3B6261736536342C000000 DUP3 MSTORE DUP3 MLOAD PUSH2 0x4135 DUP2 PUSH1 0x1D DUP6 ADD PUSH1 0x20 DUP8 ADD PUSH2 0x4198 JUMP JUMPDEST SWAP2 SWAP1 SWAP2 ADD PUSH1 0x1D ADD SWAP3 SWAP2 POP POP JUMP JUMPDEST PUSH1 0x0 PUSH1 0x20 DUP3 MSTORE DUP3 MLOAD DUP1 PUSH1 0x20 DUP5 ADD MSTORE PUSH2 0x4161 DUP2 PUSH1 0x40 DUP6 ADD PUSH1 0x20 DUP8 ADD PUSH2 0x4198 JUMP JUMPDEST PUSH1 0x1F ADD PUSH1 0x1F NOT AND SWAP2 SWAP1 SWAP2 ADD PUSH1 0x40 ADD SWAP3 SWAP2 POP POP JUMP JUMPDEST PUSH1 0x40 MLOAD DUP2 DUP2 ADD PUSH1 0x1 PUSH1 0x1 PUSH1 0x40 SHL SUB DUP2 GT DUP3 DUP3 LT OR ISZERO PUSH2 0x4190 JUMPI INVALID JUMPDEST PUSH1 0x40 MSTORE SWAP2 SWAP1 POP JUMP JUMPDEST PUSH1 0x0 JUMPDEST DUP4 DUP2 LT ISZERO PUSH2 0x41B3 JUMPI DUP2 DUP2 ADD MLOAD DUP4 DUP3 ADD MSTORE PUSH1 0x20 ADD PUSH2 0x419B JUMP JUMPDEST DUP4 DUP2 GT ISZERO PUSH2 0x41C2 JUMPI PUSH1 0x0 DUP5 DUP5 ADD MSTORE JUMPDEST POP POP POP POP JUMP INVALID KECCAK256 EXTCODECOPY PUSH2 0x6E69 PUSH14 0x6174652061646469746976653D22 PUSH20 0x756D22206174747269627574654E616D653D2273 PUSH21 0x6172744F6666736574222066726F6D3D2230252220 PUSH21 0x6F3D22313030252220626567696E3D223073222064 PUSH22 0x723D223330732220726570656174436F756E743D2269 PUSH15 0x646566696E69746522202F3E3C2F74 PUSH6 0x787450617468 RETURNDATACOPY EXTCODECOPY 0x2F PUSH21 0x6578743E3C73746F70206F66667365743D222E3922 KECCAK256 PUSH20 0x746F702D636F6C6F723D22776869746522207374 PUSH16 0x702D6F7061636974793D223022202F3E EXTCODECOPY 0x2F PUSH13 0x696E6561724772616469656E74 RETURNDATACOPY EXTCODECOPY PUSH19 0x656374207374796C653D2266696C7465723A20 PUSH22 0x726C28236631292220783D223070782220793D223070 PUSH25 0x222077696474683D22323930707822206865696768743D2235 ADDRESS ADDRESS PUSH17 0x7822202F3E3C6665496D61676520726573 PUSH22 0x6C743D2270332220786C696E6B3A687265663D226461 PUSH21 0x613A696D6167652F7376672B786D6C3B6261736536 CALLVALUE 0x2C EXTCODECOPY PUSH8 0x206D61736B3D2275 PUSH19 0x6C2823666164652D73796D626F6C29223E3C72 PUSH6 0x63742066696C PUSH13 0x3D226E6F6E652220783D223070 PUSH25 0x2220793D22307078222077696474683D223239307078222068 PUSH6 0x696768743D22 ORIGIN ADDRESS ADDRESS PUSH17 0x7822202F3E203C7465787420793D223730 PUSH17 0x782220783D2233327078222066696C6C3D 0x22 PUSH24 0x686974652220666F6E742D66616D696C793D2227436F7572 PUSH10 0x6572204E6577272C206D PUSH16 0x6E6F73706163652220666F6E742D7765 PUSH10 0x6768743D223230302220 PUSH7 0x6F6E742D73697A PUSH6 0x3D2233367078 0x22 RETURNDATACOPY EXTCODECOPY PUSH20 0x76672077696474683D2232393022206865696768 PUSH21 0x3D22353030222076696577426F783D223020302032 CODECOPY ADDRESS KECCAK256 CALLDATALOAD ADDRESS ADDRESS 0x22 KECCAK256 PUSH25 0x6D6C6E733D22687474703A2F2F7777772E77332E6F72672F32 ADDRESS ADDRESS ADDRESS 0x2F PUSH20 0x76672270782C2030707829222063783D22307078 0x22 KECCAK256 PUSH4 0x793D2230 PUSH17 0x782220723D22347078222066696C6C3D22 PUSH24 0x68697465222F3E3C2F673E203C616E696D61746520616464 PUSH10 0x746976653D2273756D22 KECCAK256 PUSH2 0x7474 PUSH19 0x69627574654E616D653D2273746172744F6666 PUSH20 0x6574222066726F6D3D2230252220746F3D223130 ADDRESS 0x25 0x22 KECCAK256 PUSH3 0x656769 PUSH15 0x3D22307322206475723D2233307322 KECCAK256 PUSH19 0x6570656174436F756E743D22696E646566696E PUSH10 0x746522202F3E203C2F74 PUSH6 0x787450617468 RETURNDATACOPY EXTCODECOPY PUSH14 0x61736B2069643D22666164652D75 PUSH17 0x22206D61736B436F6E74656E74556E6974 PUSH20 0x3D226F626A656374426F756E64696E67426F7822 RETURNDATACOPY EXTCODECOPY PUSH19 0x6563742077696474683D223122206865696768 PUSH21 0x3D2231222066696C6C3D2275726C2823677261642D PUSH22 0x702922202F3E3C2F6D61736B3E22207374726F6B653D 0x22 PUSH19 0x67626128302C302C302C302E33292220737472 PUSH16 0x6B652D77696474683D22333270782220 PUSH7 0x696C6C3D226E6F PUSH15 0x6522207374726F6B652D6C696E6563 PUSH2 0x703D 0x22 PUSH19 0x6F756E6422202F3E203C616E696D6174652061 PUSH5 0x6469746976 PUSH6 0x3D2273756D22 KECCAK256 PUSH2 0x7474 PUSH19 0x69627574654E616D653D2273746172744F6666 PUSH20 0x6574222066726F6D3D2230252220746F3D223130 ADDRESS 0x25 0x22 KECCAK256 PUSH3 0x656769 PUSH15 0x3D22307322206475723D2233307322 KECCAK256 EXTCODECOPY PUSH8 0x207374796C653D22 PUSH21 0x72616E73666F726D3A7472616E736C617465283239 PUSH17 0x782C20343434707829223E3C636972636C PUSH6 0x207374796C65 RETURNDATASIZE 0x22 PUSH21 0x72616E73666F726D3A7472616E736C617465336428 EXTCODECOPY PUSH20 0x76672077696474683D2732393027206865696768 PUSH21 0x3D27353030272076696577426F783D273020302032 CODECOPY ADDRESS KECCAK256 CALLDATALOAD ADDRESS ADDRESS 0x27 KECCAK256 PUSH25 0x6D6C6E733D27687474703A2F2F7777772E77332E6F72672F32 ADDRESS ADDRESS ADDRESS 0x2F PUSH20 0x7667273E3C636972636C652063783D27203C6720 PUSH20 0x74796C653D2266696C7465723A75726C2823746F PUSH17 0x2D726567696F6E2D626C7572293B207472 PUSH2 0x6E73 PUSH7 0x6F726D3A736361 PUSH13 0x6528312E35293B207472616E73 PUSH7 0x6F726D2D6F7269 PUSH8 0x696E3A63656E7465 PUSH19 0x20746F703B223E22202F3E3C6665426C656E64 KECCAK256 PUSH14 0x6F64653D226F7665726C61792220 PUSH10 0x6E3D2270302220696E32 RETURNDATASIZE 0x22 PUSH17 0x3122202F3E3C6665426C656E64206D6F64 PUSH6 0x3D226578636C PUSH22 0x73696F6E2220696E323D22703222202F3E3C6665426C PUSH6 0x6E64206D6F64 PUSH6 0x3D226F766572 PUSH13 0x61792220696E323D2270332220 PUSH19 0x6573756C743D22626C656E644F757422202F3E EXTCODECOPY PUSH7 0x65476175737369 PUSH2 0x6E42 PUSH13 0x7572203C706174682069643D22 PUSH14 0x696E696D61702220643D224D3233 CALLVALUE KECCAK256 CALLVALUE CALLVALUE CALLVALUE NUMBER ORIGIN CALLER CALLVALUE KECCAK256 CALLVALUE CALLDATALOAD CALLDATACOPY 0x2E CODECOPY CALLVALUE CODECOPY KECCAK256 ORIGIN CALLVALUE ORIGIN 0x2E ORIGIN BALANCE KECCAK256 CALLVALUE CALLDATASIZE CALLER KECCAK256 ORIGIN CALLDATALOAD CALLER KECCAK256 CALLVALUE CALLDATASIZE CALLER 0x22 KECCAK256 0x2F RETURNDATACOPY EXTCODECOPY PUSH14 0x61736B2069643D226E6F6E652220 PUSH14 0x61736B436F6E74656E74556E6974 PUSH20 0x3D226F626A656374426F756E64696E67426F7822 RETURNDATACOPY EXTCODECOPY PUSH19 0x6563742077696474683D223122206865696768 PUSH21 0x3D2231222066696C6C3D22776869746522202F3E3C 0x2F PUSH14 0x61736B3E2220783D223070782220 PUSH26 0x3D22307078222077696474683D22323930707822206865696768 PUSH21 0x3D22353030707822202F3E203C616E696D61746520 PUSH2 0x6464 PUSH10 0x746976653D2273756D22 KECCAK256 PUSH2 0x7474 PUSH19 0x69627574654E616D653D2273746172744F6666 PUSH20 0x6574222066726F6D3D2230252220746F3D223130 ADDRESS 0x25 0x22 KECCAK256 PUSH3 0x656769 PUSH15 0x3D22307322206475723D2233307322 KECCAK256 PUSH19 0x6570656174436F756E743D22696E646566696E PUSH10 0x746522202F3E3C746578 PUSH21 0x20783D22313270782220793D22313770782220666F PUSH15 0x742D66616D696C793D2227436F7572 PUSH10 0x6572204E6577272C206D PUSH16 0x6E6F73706163652220666F6E742D7369 PUSH27 0x653D2231327078222066696C6C3D227768697465223E3C74737061 PUSH15 0x2066696C6C3D227267626128323535 0x2C ORIGIN CALLDATALOAD CALLDATALOAD 0x2C ORIGIN CALLDATALOAD CALLDATALOAD 0x2C ADDRESS 0x2E CALLDATASIZE 0x29 0x22 RETURNDATACOPY 0x4D PUSH10 0x6E205469636B3A203C2F PUSH21 0x7370616E3E3C74657874506174682073746172744F PUSH7 0x667365743D222D BALANCE ADDRESS ADDRESS 0x25 0x22 KECCAK256 PUSH7 0x696C6C3D227768 PUSH10 0x74652220666F6E742D66 PUSH2 0x6D69 PUSH13 0x793D2227436F7572696572204E PUSH6 0x77272C206D6F PUSH15 0x6F73706163652220666F6E742D7369 PUSH27 0x653D22313070782220786C696E6B3A687265663D2223746578742D PUSH17 0x6174682D61223E3C6C696E656172477261 PUSH5 0x69656E7420 PUSH10 0x643D22677261642D646F PUSH24 0x6E222078313D2230222078323D2231222079313D22302220 PUSH26 0x323D2231223E3C73746F70206F66667365743D22302E30222073 PUSH21 0x6F702D636F6C6F723D227768697465222073746F70 0x2D PUSH16 0x7061636974793D223122202F3E3C7374 PUSH16 0x70206F66667365743D22302E39222073 PUSH21 0x6F702D636F6C6F723D227768697465222073746F70 0x2D PUSH16 0x7061636974793D223022202F3E3C2F6C PUSH10 0x6E656172477261646965 PUSH15 0x743E3C66696C7465722069643D2266 BALANCE 0x22 RETURNDATACOPY EXTCODECOPY PUSH7 0x65496D61676520 PUSH19 0x6573756C743D2270302220786C696E6B3A6872 PUSH6 0x663D22646174 PUSH2 0x3A69 PUSH14 0x6167652F7376672B786D6C3B6261 PUSH20 0x6536342C3C7376672077696474683D2732393027 KECCAK256 PUSH9 0x65696768743D273530 ADDRESS 0x27 KECCAK256 PUSH23 0x696577426F783D2730203020323930203530302720786D PUSH13 0x6E733D27687474703A2F2F7777 PUSH24 0x2E77332E6F72672F323030302F737667273E3C7265637420 PUSH24 0x696474683D27323930707827206865696768743D27353030 PUSH17 0x78272066696C6C3D2723222F3E3C666549 PUSH14 0x61676520726573756C743D227032 0x22 KECCAK256 PUSH25 0x6C696E6B3A687265663D22646174613A696D6167652F737667 0x2B PUSH25 0x6D6C3B6261736536342C3C656C6C697073652063783D223530 0x25 0x22 KECCAK256 PUSH4 0x793D2230 PUSH17 0x78222072783D223138307078222072793D 0x22 BALANCE ORIGIN ADDRESS PUSH17 0x78222066696C6C3D222330303022206F70 PUSH2 0x6369 PUSH21 0x793D22302E383522202F3E3C2F673E707822206865 PUSH10 0x6768743D223236707822 KECCAK256 PUSH19 0x783D22387078222072793D2238707822206669 PUSH13 0x6C3D227267626128302C302C30 0x2C ADDRESS 0x2E CALLDATASIZE 0x29 0x22 KECCAK256 0x2F RETURNDATACOPY PUSH17 0x782220723D22347078222066696C6C3D22 PUSH24 0x6869746522202F3E3C636972636C652063783D2231312E33 CALLVALUE CALLDATACOPY CODESIZE 0x4C ORIGIN CALLVALUE KECCAK256 BALANCE ORIGIN 0x4C BALANCE CALLVALUE 0x2E CALLVALUE CALLER CALLVALUE BALANCE KECCAK256 BALANCE ORIGIN 0x2E CALLDATASIZE CALLDATALOAD ORIGIN ORIGIN 0x4C ORIGIN ORIGIN 0x2E CALLER CODECOPY ORIGIN CALLER KECCAK256 BALANCE CODESIZE 0x4C BALANCE CALLER 0x2E CALLDATACOPY CODESIZE BALANCE CODECOPY KECCAK256 BALANCE CALLER 0x2E CALLDATACOPY CODESIZE BALANCE CODECOPY 0x4C BALANCE CODESIZE KECCAK256 ORIGIN ORIGIN 0x2E CALLER CODECOPY ORIGIN CALLER 0x4C BALANCE ORIGIN 0x2E CALLDATASIZE CALLDATALOAD ORIGIN ORIGIN KECCAK256 BALANCE CALLVALUE 0x2E CALLVALUE CALLER CALLVALUE BALANCE 0x4C BALANCE ORIGIN KECCAK256 ORIGIN CALLVALUE 0x4C BALANCE BALANCE 0x2E CALLER CALLVALUE CALLDATACOPY CODESIZE KECCAK256 BALANCE CALLVALUE 0x2E CALLVALUE CALLER CALLVALUE BALANCE 0x4C CALLDATASIZE KECCAK256 ORIGIN ORIGIN 0x2E CALLER CODECOPY EXTCODECOPY PUSH19 0x6563742066696C6C3D226E6F6E652220783D22 ADDRESS PUSH17 0x782220793D22307078222077696474683D 0x22 ORIGIN CODECOPY ADDRESS PUSH17 0x7822206865696768743D22353030707822 KECCAK256 0x2F RETURNDATACOPY COINBASE TIMESTAMP NUMBER DIFFICULTY GASLIMIT CHAINID SELFBALANCE 0x48 0x49 0x4A 0x4B 0x4C 0x4D 0x4E 0x4F POP MLOAD MSTORE MSTORE8 SLOAD SSTORE JUMP JUMPI PC MSIZE GAS PUSH2 0x6263 PUSH5 0x6566676869 PUSH11 0x6B6C6D6E6F707172737475 PUSH23 0x7778797A303132333435363738392B2F20786D6C6E733A PUSH25 0x6C696E6B3D27687474703A2F2F7777772E77332E6F72672F31 CODECOPY CODECOPY CODECOPY 0x2F PUSH25 0x6C696E6B273E3C6C696E6561724772616469656E742069643D 0x22 PUSH8 0x7261642D73796D62 PUSH16 0x6C223E3C73746F70206F66667365743D 0x22 ADDRESS 0x2E CALLDATACOPY 0x22 KECCAK256 PUSH20 0x746F702D636F6C6F723D22776869746522207374 PUSH16 0x702D6F7061636974793D223122202F3E EXTCODECOPY PUSH20 0x746F70206F66667365743D222E3935222073746F PUSH17 0x2D636F6C6F723D22776869746522207374 PUSH16 0x702D6F7061636974793D223022202F3E EXTCODECOPY 0x2F PUSH13 0x696E6561724772616469656E74 RETURNDATACOPY KECCAK256 PUSH20 0x74796C653D227472616E73666F726D3A7472616E PUSH20 0x6C61746528373270782C313839707829223E3C72 PUSH6 0x637420783D22 0x2D BALANCE CALLDATASIZE PUSH17 0x782220793D222D31367078222077696474 PUSH9 0x3D2231383070782220 PUSH9 0x65696768743D223138 ADDRESS PUSH17 0x78222066696C6C3D226E6F6E6522202F3E EXTCODECOPY PUSH17 0x61746820643D22207374796C653D227472 PUSH2 0x6E73 PUSH7 0x6F726D3A747261 PUSH15 0x736C61746528373270782C31383970 PUSH25 0x29223E70782220723D2232347078222066696C6C3D226E6F6E PUSH6 0x22207374726F PUSH12 0x653D22776869746522202F3E EXTCODECOPY PUSH19 0x65637420783D222D313670782220793D222D31 CALLDATASIZE PUSH17 0x78222077696474683D2231383070782220 PUSH9 0x65696768743D223138 ADDRESS PUSH17 0x78222066696C6C3D226E6F6E6522202F3E MSTORE8 PUSH2 0x6665 0x4D PUSH2 0x7468 GASPRICE KECCAK256 PUSH14 0x756C7469706C69636174696F6E20 PUSH16 0x766572666C6F773C673E3C7061746820 PUSH20 0x74796C653D227472616E73666F726D3A7472616E PUSH20 0x6C617465283670782C367078292220643D224D31 ORIGIN KECCAK256 ADDRESS 0x4C BALANCE ORIGIN 0x2E CALLDATASIZE CALLDATALOAD ORIGIN ORIGIN KECCAK256 CODECOPY 0x2E CALLDATALOAD CALLDATASIZE CALLDATALOAD CODESIZE CALLDATACOPY 0x4C BALANCE CODESIZE KECCAK256 BALANCE 0x2E CALLDATASIZE ADDRESS CALLDATACOPY CALLDATACOPY 0x4C BALANCE CALLER 0x2E CALLDATACOPY CODESIZE BALANCE CODECOPY KECCAK256 BALANCE ADDRESS 0x2E ORIGIN BALANCE CODESIZE BALANCE 0x4C ORIGIN ORIGIN 0x2E CALLER CODECOPY ORIGIN CALLER KECCAK256 CALLDATASIZE 0x4C BALANCE CALLVALUE 0x2E CALLVALUE CALLER CALLVALUE BALANCE KECCAK256 EXTCODECOPY PUSH17 0x617468207374726F6B652D6C696E656361 PUSH17 0x3D22726F756E642220643D224D38203943 CODESIZE 0x2E ADDRESS ADDRESS ADDRESS ADDRESS CALLVALUE KECCAK256 ORIGIN ORIGIN 0x2E CODECOPY CALLVALUE CODECOPY CALLVALUE KECCAK256 BALANCE CALLDATASIZE 0x2E ORIGIN ADDRESS CODECOPY CODECOPY KECCAK256 ORIGIN CODESIZE KECCAK256 ORIGIN CALLDATACOPY KECCAK256 ORIGIN CODESIZE 0x22 KECCAK256 PUSH7 0x696C6C3D226E6F PUSH15 0x6522207374726F6B653D2277686974 PUSH6 0x22202F3E2072 PUSH6 0x70656174436F PUSH22 0x6E743D22696E646566696E69746522202F3E3C2F7465 PUSH25 0x74506174683E3C74657874506174682073746172744F666673 PUSH6 0x743D222D3530 0x25 0x22 KECCAK256 PUSH7 0x696C6C3D227768 PUSH10 0x74652220666F6E742D66 PUSH2 0x6D69 PUSH13 0x793D2227436F7572696572204E PUSH6 0x77272C206D6F PUSH15 0x6F73706163652220666F6E742D7369 PUSH27 0x653D22313070782220786C696E6B3A687265663D2223746578742D PUSH17 0x6174682D61223E3C6D61736B2069643D22 PUSH7 0x6164652D646F77 PUSH15 0x22206D61736B436F6E74656E74556E PUSH10 0x74733D226F626A656374 TIMESTAMP PUSH16 0x756E64696E67426F78223E3C72656374 KECCAK256 PUSH24 0x696474683D223122206865696768743D2231222066696C6C RETURNDATASIZE 0x22 PUSH22 0x726C2823677261642D646F776E2922202F3E3C2F6D61 PUSH20 0x6B3E22207374726F6B653D227267626128323535 0x2C ORIGIN CALLDATALOAD CALLDATALOAD 0x2C ORIGIN CALLDATALOAD CALLDATALOAD 0x2C BALANCE 0x29 0x22 KECCAK256 PUSH7 0x696C6C3D226E6F PUSH15 0x6522207374726F6B652D6C696E6563 PUSH2 0x703D 0x22 PUSH19 0x6F756E6422202F3E3C2F673E696E3D22626C65 PUSH15 0x644F75742220737464446576696174 PUSH10 0x6F6E3D22343222202F3E EXTCODECOPY 0x2F PUSH7 0x696C7465723E20 EXTCODECOPY PUSH4 0x6C697050 PUSH2 0x7468 KECCAK256 PUSH10 0x643D22636F726E657273 0x22 RETURNDATACOPY EXTCODECOPY PUSH19 0x6563742077696474683D223239302220686569 PUSH8 0x68743D2235303022 KECCAK256 PUSH19 0x783D223432222072793D22343222202F3E3C2F PUSH4 0x6C697050 PUSH2 0x7468 RETURNDATACOPY KECCAK256 EXTCODECOPY PUSH8 0x207374796C653D22 PUSH21 0x72616E73666F726D3A7472616E736C617465283239 PUSH17 0x782C20333834707829223E3C6C696E6561 PUSH19 0x4772616469656E742069643D22677261642D75 PUSH17 0x222078313D2231222078323D2230222079 BALANCE RETURNDATASIZE 0x22 BALANCE 0x22 KECCAK256 PUSH26 0x323D2230223E3C73746F70206F66667365743D22302E30222073 PUSH21 0x6F702D636F6C6F723D227768697465222073746F70 0x2D PUSH16 0x7061636974793D223122202F3E32334C BALANCE ADDRESS 0x2E ORIGIN BALANCE CODESIZE BALANCE KECCAK256 BALANCE CALLER 0x2E CALLDATACOPY CODESIZE BALANCE CODECOPY 0x4C BALANCE 0x2E CALLDATASIZE ADDRESS CALLDATACOPY CALLDATACOPY KECCAK256 BALANCE CODESIZE 0x4C CODECOPY 0x2E CALLDATALOAD CALLDATASIZE CALLDATALOAD CODESIZE CALLDATACOPY KECCAK256 BALANCE ORIGIN 0x2E CALLDATASIZE CALLDATALOAD ORIGIN ORIGIN 0x4C ADDRESS KECCAK256 BALANCE ORIGIN 0x4C CODECOPY 0x2E CALLDATALOAD CALLDATASIZE CALLDATALOAD CODESIZE CALLDATACOPY KECCAK256 BALANCE BALANCE 0x2E CALLER CALLVALUE CALLDATACOPY CODESIZE 0x4C BALANCE 0x2E CALLDATASIZE ADDRESS CALLDATACOPY CALLDATACOPY KECCAK256 CALLDATASIZE 0x4C BALANCE ADDRESS 0x2E ORIGIN BALANCE CODESIZE BALANCE KECCAK256 BALANCE ADDRESS 0x2E ORIGIN BALANCE CODESIZE BALANCE 0x4C CALLDATASIZE KECCAK256 BALANCE 0x2E CALLDATASIZE ADDRESS CALLDATACOPY CALLDATACOPY 0x4C BALANCE BALANCE 0x2E CALLER CALLVALUE CALLDATACOPY CODESIZE KECCAK256 CODECOPY 0x2E CALLDATALOAD CALLDATASIZE CALLDATALOAD CODESIZE CALLDATACOPY 0x4C BALANCE ORIGIN KECCAK256 ADDRESS GAS 0x22 KECCAK256 PUSH7 0x696C6C3D227768 PUSH10 0x746522202F3E3C672073 PUSH21 0x796C653D227472616E73666F726D3A7472616E736C PUSH2 0x7465 0x28 ORIGIN ORIGIN CALLDATASIZE PUSH17 0x782C20333932707829223E3C7265637420 PUSH24 0x696474683D223336707822206865696768743D2233367078 0x22 KECCAK256 PUSH19 0x783D22387078222072793D2238707822206669 PUSH13 0x6C3D226E6F6E6522207374726F PUSH12 0x653D2272676261283235352C ORIGIN CALLDATALOAD CALLDATALOAD 0x2C ORIGIN CALLDATALOAD CALLDATALOAD 0x2C ADDRESS 0x2E ORIGIN 0x29 0x22 KECCAK256 0x2F RETURNDATACOPY EXTCODECOPY PUSH21 0x657874506174682073746172744F66667365743D22 CALLDATALOAD ADDRESS 0x25 0x22 KECCAK256 PUSH7 0x696C6C3D227768 PUSH10 0x74652220666F6E742D66 PUSH2 0x6D69 PUSH13 0x793D2227436F7572696572204E PUSH6 0x77272C206D6F PUSH15 0x6F73706163652220666F6E742D7369 PUSH27 0x653D22313070782220786C696E6B3A687265663D2223746578742D PUSH17 0x6174682D61223E3C7465787420783D2231 ORIGIN PUSH17 0x782220793D22313770782220666F6E742D PUSH7 0x616D696C793D22 0x27 NUMBER PUSH16 0x7572696572204E6577272C206D6F6E6F PUSH20 0x706163652220666F6E742D73697A653D22313270 PUSH25 0x222066696C6C3D227768697465223E3C747370616E2066696C PUSH13 0x3D2272676261283235352C3235 CALLDATALOAD 0x2C ORIGIN CALLDATALOAD CALLDATALOAD 0x2C ADDRESS 0x2E CALLDATASIZE 0x29 0x22 RETURNDATACOPY 0x4D PUSH2 0x7820 SLOAD PUSH10 0x636B3A203C2F74737061 PUSH15 0x3E3C616E696D6174655472616E7366 PUSH16 0x726D206174747269627574654E616D65 RETURNDATASIZE 0x22 PUSH21 0x72616E73666F726D2220747970653D22726F746174 PUSH6 0x222066726F6D RETURNDATASIZE 0x22 ADDRESS KECCAK256 BALANCE CODESIZE KECCAK256 BALANCE CODESIZE 0x22 KECCAK256 PUSH21 0x6F3D2233363020313820313822206475723D223130 PUSH20 0x2220726570656174436F756E743D22696E646566 PUSH10 0x6E697465222F3E3C2F67 RETURNDATACOPY EXTCODECOPY 0x2F PUSH8 0x3E3C706174682069 PUSH5 0x3D22746578 PUSH21 0x2D706174682D612220643D224D3430203132204832 CALLDATALOAD ADDRESS KECCAK256 COINBASE ORIGIN CODESIZE KECCAK256 ORIGIN CODESIZE KECCAK256 ADDRESS KECCAK256 ADDRESS KECCAK256 BALANCE KECCAK256 ORIGIN CALLDATACOPY CODESIZE KECCAK256 CALLVALUE ADDRESS KECCAK256 JUMP CALLVALUE CALLDATASIZE ADDRESS KECCAK256 COINBASE ORIGIN CODESIZE KECCAK256 ORIGIN CODESIZE KECCAK256 ADDRESS KECCAK256 ADDRESS KECCAK256 BALANCE KECCAK256 ORIGIN CALLDATALOAD ADDRESS KECCAK256 CALLVALUE CODESIZE CODESIZE KECCAK256 0x48 CALLVALUE ADDRESS KECCAK256 COINBASE ORIGIN CODESIZE KECCAK256 ORIGIN CODESIZE KECCAK256 ADDRESS KECCAK256 ADDRESS KECCAK256 BALANCE KECCAK256 BALANCE ORIGIN KECCAK256 CALLVALUE CALLDATASIZE ADDRESS KECCAK256 JUMP CALLVALUE ADDRESS KECCAK256 COINBASE ORIGIN CODESIZE KECCAK256 ORIGIN CODESIZE KECCAK256 ADDRESS KECCAK256 ADDRESS KECCAK256 BALANCE KECCAK256 CALLVALUE ADDRESS KECCAK256 BALANCE ORIGIN KECCAK256 PUSH27 0x22202F3E222F3E3C6665496D61676520726573756C743D22703122 KECCAK256 PUSH25 0x6C696E6B3A687265663D22646174613A696D6167652F737667 0x2B PUSH25 0x6D6C3B6261736536342C3C6D61736B2069643D22666164652D PUSH20 0x796D626F6C22206D61736B436F6E74656E74556E PUSH10 0x74733D22757365725370 PUSH2 0x6365 0x4F PUSH15 0x557365223E3C726563742077696474 PUSH9 0x3D2232393070782220 PUSH9 0x65696768743D223230 ADDRESS PUSH17 0x78222066696C6C3D2275726C2823677261 PUSH5 0x2D73796D62 PUSH16 0x6C2922202F3E3C2F6D61736B3E3C2F64 PUSH6 0x66733E3C7265 PUSH4 0x7420783D 0x22 ADDRESS 0x22 KECCAK256 PUSH26 0x3D2230222077696474683D2232393022206865696768743D2235 ADDRESS ADDRESS 0x22 KECCAK256 PUSH19 0x783D223432222072793D223432222066696C6C RETURNDATASIZE 0x22 PUSH19 0x67626128302C302C302C302922207374726F6B PUSH6 0x3D2272676261 0x28 ORIGIN CALLDATALOAD CALLDATALOAD 0x2C ORIGIN CALLDATALOAD CALLDATALOAD 0x2C ORIGIN CALLDATALOAD CALLDATALOAD 0x2C ADDRESS 0x2E ORIGIN 0x29 0x22 KECCAK256 0x2F RETURNDATACOPY EXTCODECOPY 0x2F PUSH8 0x3E3C66696C746572 KECCAK256 PUSH10 0x643D22746F702D726567 PUSH10 0x6F6E2D626C7572223E3C PUSH7 0x65476175737369 PUSH2 0x6E42 PUSH13 0x757220696E3D22536F75726365 SELFBALANCE PUSH19 0x61706869632220737464446576696174696F6E RETURNDATASIZE 0x22 ORIGIN CALLVALUE 0x22 KECCAK256 0x2F RETURNDATACOPY EXTCODECOPY 0x2F PUSH7 0x696C7465723E3C 0x2F PUSH21 0x657874506174683E203C7465787450617468207374 PUSH2 0x7274 0x4F PUSH7 0x667365743D2230 0x25 0x22 KECCAK256 PUSH7 0x696C6C3D227768 PUSH10 0x74652220666F6E742D66 PUSH2 0x6D69 PUSH13 0x793D2227436F7572696572204E PUSH6 0x77272C206D6F PUSH15 0x6F73706163652220666F6E742D7369 PUSH27 0x653D22313070782220786C696E6B3A687265663D2223746578742D PUSH17 0x6174682D61223E3C746578742074657874 0x2D PUSH19 0x656E646572696E673D226F7074696D697A6553 PUSH17 0x656564223E5369676E6564536166654D61 PUSH21 0x683A207375627472616374696F6E206F766572666C PUSH16 0x773C7265637420783D2231362220793D 0x22 BALANCE CALLDATASIZE 0x22 KECCAK256 PUSH24 0x696474683D2232353822206865696768743D223436382220 PUSH19 0x783D223236222072793D223236222066696C6C RETURNDATASIZE 0x22 PUSH19 0x67626128302C302C302C302922207374726F6B PUSH6 0x3D2272676261 0x28 ORIGIN CALLDATALOAD CALLDATALOAD 0x2C ORIGIN CALLDATALOAD CALLDATALOAD 0x2C ORIGIN CALLDATALOAD CALLDATALOAD 0x2C ADDRESS 0x2E ORIGIN 0x29 0x22 KECCAK256 0x2F RETURNDATACOPY EXTCODECOPY PUSH21 0x65787420783D22313270782220793D223137707822 KECCAK256 PUSH7 0x6F6E742D66616D PUSH10 0x6C793D2227436F757269 PUSH6 0x72204E657727 0x2C KECCAK256 PUSH14 0x6F6E6F73706163652220666F6E74 0x2D PUSH20 0x697A653D2231327078222066696C6C3D22776869 PUSH21 0x65223E3C747370616E2066696C6C3D227267626128 ORIGIN CALLDATALOAD CALLDATALOAD 0x2C ORIGIN CALLDATALOAD CALLDATALOAD 0x2C ORIGIN CALLDATALOAD CALLDATALOAD 0x2C ADDRESS 0x2E CALLDATASIZE 0x29 0x22 RETURNDATACOPY 0x49 DIFFICULTY GASPRICE KECCAK256 EXTCODECOPY 0x2F PUSH21 0x7370616E3E3C726563742077696474683D22333670 PUSH25 0x22206865696768743D2233367078222072783D223870782220 PUSH19 0x793D22387078222066696C6C3D226E6F6E6522 KECCAK256 PUSH20 0x74726F6B653D2272676261283235352C3235352C ORIGIN CALLDATALOAD CALLDATALOAD 0x2C ADDRESS 0x2E ORIGIN 0x29 0x22 KECCAK256 0x2F RETURNDATACOPY EXTCODECOPY 0x2F PUSH21 0x6578743E3C7465787420793D223131357078222078 RETURNDATASIZE 0x22 CALLER ORIGIN PUSH17 0x78222066696C6C3D227768697465222066 PUSH16 0x6E742D66616D696C793D2227436F7572 PUSH10 0x6572204E6577272C206D PUSH16 0x6E6F73706163652220666F6E742D7765 PUSH10 0x6768743D223230302220 PUSH7 0x6F6E742D73697A PUSH6 0x3D2233367078 0x22 RETURNDATACOPY EXTCODECOPY 0x2F PUSH21 0x6578743E3C2F673E3C67207374796C653D22747261 PUSH15 0x73666F726D3A7472616E736C617465 0x28 ORIGIN ORIGIN CALLDATASIZE PUSH17 0x782C20343333707829223E203C67207374 PUSH26 0x6C653D227472616E73666F726D3A7472616E736C617465283239 PUSH17 0x782C20343134707829223EA26469706673 PC 0x22 SLT KECCAK256 PUSH4 0x6B7947C2 ADD DUP14 PUSH13 0x91AC4E350E5374ACD3059E5AE9 PUSH17 0x9939ADE465F6F6D5D12C64736F6C634300 SMOD MOD STOP CALLER "
		},
		"gasEstimates": {
			"creation": {
				"codeDepositCost": "4658600",
				"executionCost": "5484",
				"totalCost": "4664084"
			},
			"external": {
				"constructTokenURI(NFTDescriptor.ConstructTokenURIParams)": "infinite"
			},
			"internal": {
				"abs(int256)": "68",
				"addressToString(address)": "infinite",
				"adjustForDecimalPrecision(uint160,uint8,uint8)": "infinite",
				"escapeQuotes(string memory)": "infinite",
				"feeToPercentString(uint24)": "infinite",
				"fixedPointToDecimalString(uint160,uint8,uint8)": "infinite",
				"generateDecimalString(struct NFTDescriptor.DecimalStringParams memory)": "infinite",
				"generateDescriptionPartOne(string memory,string memory,string memory)": "infinite",
				"generateDescriptionPartTwo(string memory,string memory,string memory,string memory,string memory)": "infinite",
				"generateName(struct NFTDescriptor.ConstructTokenURIParams memory,string memory)": "infinite",
				"generateSVGImage(struct NFTDescriptor.ConstructTokenURIParams memory)": "infinite",
				"getCircleCoord(uint256,uint256,uint256)": "101",
				"overRange(int24,int24,int24)": "125",
				"scale(uint256,uint256,uint256,uint256,uint256)": "infinite",
				"sigfigsRounded(uint256,uint8)": "infinite",
				"sliceTokenHex(uint256,uint256)": "21",
				"tickToDecimalString(int24,int24,uint8,uint8,bool)": "infinite",
				"tokenToColorHex(uint256,uint256)": "infinite"
			}
		},
		"methodIdentifiers": {
			"constructTokenURI(NFTDescriptor.ConstructTokenURIParams)": "c49917d7"
		}
	},
	"abi": [
		{
			"inputs": [
				{
					"components": [
						{
							"internalType": "uint256",
							"name": "tokenId",
							"type": "uint256"
						},
						{
							"internalType": "address",
							"name": "quoteTokenAddress",
							"type": "address"
						},
						{
							"internalType": "address",
							"name": "baseTokenAddress",
							"type": "address"
						},
						{
							"internalType": "string",
							"name": "quoteTokenSymbol",
							"type": "string"
						},
						{
							"internalType": "string",
							"name": "baseTokenSymbol",
							"type": "string"
						},
						{
							"internalType": "uint8",
							"name": "quoteTokenDecimals",
							"type": "uint8"
						},
						{
							"internalType": "uint8",
							"name": "baseTokenDecimals",
							"type": "uint8"
						},
						{
							"internalType": "bool",
							"name": "flipRatio",
							"type": "bool"
						},
						{
							"internalType": "int24",
							"name": "tickLower",
							"type": "int24"
						},
						{
							"internalType": "int24",
							"name": "tickUpper",
							"type": "int24"
						},
						{
							"internalType": "int24",
							"name": "tickCurrent",
							"type": "int24"
						},
						{
							"internalType": "int24",
							"name": "tickSpacing",
							"type": "int24"
						},
						{
							"internalType": "uint24",
							"name": "fee",
							"type": "uint24"
						},
						{
							"internalType": "address",
							"name": "poolAddress",
							"type": "address"
						}
					],
					"internalType": "struct NFTDescriptor.ConstructTokenURIParams",
					"name": "params",
					"type": "tuple"
				}
			],
			"name": "constructTokenURI",
			"outputs": [
				{
					"internalType": "string",
					"name": "",
					"type": "string"
				}
			],
			"stateMutability": "pure",
			"type": "function"
		}
	]
}