{
	"data": {
		"bytecode": {
			"linkReferences": {},
			"object": "610120604052600d80546001600160b01b0319166001176001600160b01b0316600160b01b1790553480156200003457600080fd5b5060405162005c5638038062005c568339810160408190526200005791620002b1565b82826040518060400160405280601b81526020017f556e697377617020563320506f736974696f6e73204e46542d563100000000008152506040518060400160405280600a815260200169554e492d56332d504f5360b01b815250604051806040016040528060018152602001603160f81b8152508282620000e66301ffc9a760e01b6200018d60201b60201c565b8151620000fb906006906020850190620001e8565b50805162000111906007906020840190620001e8565b50620001246380ac58cd60e01b6200018d565b62000136635b5e139f60e01b6200018d565b6200014863780e9d6360e01b6200018d565b50508251602093840120608052805192019190912060a052506001600160601b0319606092831b811660c05290821b811660e05291901b166101005250620003319050565b6001600160e01b03198082161415620001c35760405162461bcd60e51b8152600401620001ba90620002fa565b60405180910390fd5b6001600160e01b0319166000908152602081905260409020805460ff19166001179055565b828054600181600116156101000203166002900490600052602060002090601f0160209004810192826200022057600085556200026b565b82601f106200023b57805160ff19168380011785556200026b565b828001600101855582156200026b579182015b828111156200026b5782518255916020019190600101906200024e565b50620002799291506200027d565b5090565b5b808211156200027957600081556001016200027e565b80516001600160a01b0381168114620002ac57600080fd5b919050565b600080600060608486031215620002c6578283fd5b620002d18462000294565b9250620002e16020850162000294565b9150620002f16040850162000294565b90509250925092565b6020808252601c908201527f4552433136353a20696e76616c696420696e7465726661636520696400000000604082015260600190565b60805160a05160c05160601c60e05160601c6101005160601c6158a0620003b66000398061248552508061023952806114df52806115a352806116165280613532528061357852806135fe52508061097b5280610cb05280610d605280612438528061252552806127bf5280612ef552508061130f5250806112ee52506158a06000f3fe6080604052600436106102295760003560e01c80636352211e11610123578063ac9650d8116100ab578063d34879971161006f578063d348799714610636578063df2ab5bb14610656578063e985e9c514610669578063f3995c6714610689578063fc6f78651461069c57610281565b8063ac9650d8146105ae578063b88d4fde146105ce578063c2e3140a146105ee578063c45a015514610601578063c87b56dd1461061657610281565b806388316456116100f2578063883164561461050b57806395d89b411461052e57806399fbab8814610543578063a22cb4651461057b578063a4a78f0c1461059b57610281565b80636352211e146104a35780636c0360eb146104c357806370a08231146104d85780637ac2ff7b146104f857610281565b806323b872dd116101b157806342966c681161017557806342966c68146104355780634659a4941461044857806349404b7c1461045b5780634aa4a4fc1461046e5780634f6ccce71461048357610281565b806323b872dd146103ab5780632f745c59146103cb57806330adf81f146103eb5780633644e5151461040057806342842e0e1461041557610281565b80630c49ccbe116101f85780630c49ccbe1461032b57806312210e8a1461034c57806313ead5621461035457806318160ddd14610367578063219f5d171461038957610281565b806301ffc9a71461028657806306fdde03146102bc578063081812fc146102de578063095ea7b31461030b57610281565b3661028157336001600160a01b037f0000000000000000000000000000000000000000000000000000000000000000161461027f5760405162461bcd60e51b8152600401610276906153c3565b60405180910390fd5b005b600080fd5b34801561029257600080fd5b506102a66102a13660046146b1565b6106af565b6040516102b39190614e13565b60405180910390f35b3480156102c857600080fd5b506102d16106d2565b6040516102b39190614edc565b3480156102ea57600080fd5b506102fe6102f93660046149bb565b610768565b6040516102b39190614bba565b34801561031757600080fd5b5061027f61032636600461455f565b6107b2565b61033e610339366004614786565b61084a565b6040516102b3929190615644565b61027f610c67565b6102fe6103623660046143f2565b610c79565b34801561037357600080fd5b5061037c610f47565b6040516102b39190614e1e565b61039c610397366004614797565b610f58565b6040516102b3939291906155ff565b3480156103b757600080fd5b5061027f6103c636600461444b565b611242565b3480156103d757600080fd5b5061037c6103e636600461455f565b61127a565b3480156103f757600080fd5b5061037c6112a5565b34801561040c57600080fd5b5061037c6112c9565b34801561042157600080fd5b5061027f61043036600461444b565b611366565b61027f6104433660046149bb565b611381565b61027f6104563660046145cb565b611450565b61027f6104693660046149eb565b6114c5565b34801561047a57600080fd5b506102fe611614565b34801561048f57600080fd5b5061037c61049e3660046149bb565b611638565b3480156104af57600080fd5b506102fe6104be3660046149bb565b61164e565b3480156104cf57600080fd5b506102d1611676565b3480156104e457600080fd5b5061037c6104f3366004614382565b61167b565b61027f6105063660046145cb565b6116c4565b61051e610519366004614853565b611958565b6040516102b39493929190615620565b34801561053a57600080fd5b506102d1611e45565b34801561054f57600080fd5b5061056361055e3660046149bb565b611ea6565b6040516102b39c9b9a99989796959493929190615652565b34801561058757600080fd5b5061027f610596366004614532565b6120b7565b61027f6105a93660046145cb565b612185565b6105c16105bc366004614626565b612223565b6040516102b39190614db3565b3480156105da57600080fd5b5061027f6105e936600461448b565b612363565b61027f6105fc3660046145cb565b6123a2565b34801561060d57600080fd5b506102fe612436565b34801561062257600080fd5b506102d16106313660046149bb565b61245a565b34801561064257600080fd5b5061027f610651366004614a32565b612510565b61027f61066436600461458a565b61258e565b34801561067557600080fd5b506102a66106843660046143ba565b612640565b61027f6106973660046145cb565b61266e565b61033e6106aa36600461476f565b6126a6565b6001600160e01b0319811660009081526020819052604090205460ff165b919050565b60068054604080516020601f600260001961010060018816150201909516949094049384018190048102820181019092528281526060939092909183018282801561075e5780601f106107335761010080835404028352916020019161075e565b820191906000526020600020905b81548152906001019060200180831161074157829003601f168201915b5050505050905090565b600061077382612b71565b61078f5760405162461bcd60e51b815260040161027690615377565b506000908152600c6020526040902054600160601b90046001600160a01b031690565b60006107bd8261164e565b9050806001600160a01b0316836001600160a01b031614156107f15760405162461bcd60e51b8152600401610276906154a4565b806001600160a01b0316610803612b7e565b6001600160a01b0316148061081f575061081f81610684612b7e565b61083b5760405162461bcd60e51b8152600401610276906151fc565b6108458383612b82565b505050565b60008082356108593382612bf8565b6108755760405162461bcd60e51b815260040161027690615259565b836080013580610883612c75565b11156108a15760405162461bcd60e51b8152600401610276906154e5565b60006108b36040870160208801614865565b6001600160801b0316116108c657600080fd5b84356000908152600c602090815260409182902060018101549092600160801b9091046001600160801b031691610901918901908901614865565b6001600160801b0316816001600160801b0316101561091f57600080fd5b6001828101546001600160501b03166000908152600b60209081526040808320815160608101835281546001600160a01b039081168252919095015490811692850192909252600160a01b90910462ffffff16908301526109a07f000000000000000000000000000000000000000000000000000000000000000083612c79565b60018501549091506001600160a01b0382169063a34123a790600160501b8104600290810b91600160681b9004900b6109df60408e0160208f01614865565b6040518463ffffffff1660e01b81526004016109fd93929190614e8a565b6040805180830381600087803b158015610a1657600080fd5b505af1158015610a2a573d6000803e3d6000fd5b505050506040513d601f19601f82011682018060405250810190610a4e9190614a0f565b909850965060408901358810801590610a6b575088606001358710155b610a875760405162461bcd60e51b81526004016102769061544c565b6001840154600090610ab0903090600160501b8104600290810b91600160681b9004900b612d2a565b9050600080836001600160a01b031663514ea4bf846040518263ffffffff1660e01b8152600401610ae19190614e1e565b60a06040518083038186803b158015610af957600080fd5b505afa158015610b0d573d6000803e3d6000fd5b505050506040513d601f19601f82011682018060405250810190610b3191906148af565b50509250925050610b5687600201548303876001600160801b0316600160801b612d61565b6004880180546001600160801b03198116928e016001600160801b039182160181169290921790556003880154610b9791908303908816600160801b612d61565b6004880180546001600160801b03808216938e01600160801b9283900482160116029190911790556002870182905560038701819055610bdd60408d0160208e01614865565b86038760010160106101000a8154816001600160801b0302191690836001600160801b031602179055508b600001357f26f6a048ee9138f2c0ce266f322cb99228e8d619ae2bff30c67f8dcf9d2377b48d6020016020810190610c409190614865565b8d8d604051610c51939291906155ff565b60405180910390a2505050505050505050915091565b4715610c7757610c773347612e10565b565b6000836001600160a01b0316856001600160a01b031610610c9957600080fd5b604051630b4c774160e11b81526001600160a01b037f00000000000000000000000000000000000000000000000000000000000000001690631698ee8290610ce990889088908890600401614ca5565b60206040518083038186803b158015610d0157600080fd5b505afa158015610d15573d6000803e3d6000fd5b505050506040513d601f19601f82011682018060405250810190610d39919061439e565b90506001600160a01b038116610e515760405163a167129560e01b81526001600160a01b037f0000000000000000000000000000000000000000000000000000000000000000169063a167129590610d9990889088908890600401614ca5565b602060405180830381600087803b158015610db357600080fd5b505af1158015610dc7573d6000803e3d6000fd5b505050506040513d601f19601f82011682018060405250810190610deb919061439e565b60405163f637731d60e01b81529091506001600160a01b0382169063f637731d90610e1a908590600401614bba565b600060405180830381600087803b158015610e3457600080fd5b505af1158015610e48573d6000803e3d6000fd5b50505050610f3f565b6000816001600160a01b0316633850c7bd6040518163ffffffff1660e01b815260040160e06040518083038186803b158015610e8c57600080fd5b505afa158015610ea0573d6000803e3d6000fd5b505050506040513d601f19601f82011682018060405250810190610ec49190614910565b5050505050509050806001600160a01b031660001415610f3d5760405163f637731d60e01b81526001600160a01b0383169063f637731d90610f0a908690600401614bba565b600060405180830381600087803b158015610f2457600080fd5b505af1158015610f38573d6000803e3d6000fd5b505050505b505b949350505050565b6000610f536002612e9d565b905090565b60008060008360a0013580610f6b612c75565b1115610f895760405162461bcd60e51b8152600401610276906154e5565b84356000908152600c602090815260408083206001808201546001600160501b0381168652600b855283862084516060808201875282546001600160a01b039081168352929094015480831682890190815262ffffff600160a01b9092048216838901908152885161014081018a528451861681529151909416818a0152925116828701523082850152600160501b8304600290810b810b608080850191909152600160681b909404810b900b60a0830152958c013560c0820152938b013560e0850152908a0135610100840152890135610120830152929061106b90612ea8565b6001870154939a509198509650915060009061109e903090600160501b8104600290810b91600160681b9004900b612d2a565b9050600080836001600160a01b031663514ea4bf846040518263ffffffff1660e01b81526004016110cf9190614e1e565b60a06040518083038186803b1580156110e757600080fd5b505afa1580156110fb573d6000803e3d6000fd5b505050506040513d601f19601f8201168201806040525081019061111f91906148af565b5050925092505061115b866002015483038760010160109054906101000a90046001600160801b03166001600160801b0316600160801b612d61565b6004870180546001600160801b0380821690930183166001600160801b0319909116179055600387015460018801546111a29291840391600160801b918290041690612d61565b6004870180546001600160801b03600160801b80830482169094018116840291811691909117909155600288018490556003880183905560018801805483810483168e018316909302929091169190911790556040518b35907f3067048beee31b25b2f1681f88dac838c8bba36af25bfb2b7cf7473a5847e35f9061122c908d908d908d906155ff565b60405180910390a2505050505050509193909250565b61125361124d612b7e565b82612bf8565b61126f5760405162461bcd60e51b815260040161027690615512565b6108458383836130e3565b6001600160a01b038216600090815260016020526040812061129c90836131f1565b90505b92915050565b7f49ecf333e5b8c95c40fdafc95c1ad136e8914a8fb55e9dc8bb01eaa83a2df9ad81565b60007f8b73c3c69bb8fe3d512ecc4cf759cc79239f7b179b0ffacaa9a75d522b39400f7f00000000000000000000000000000000000000000000000000000000000000007f00000000000000000000000000000000000000000000000000000000000000006113366131fd565b3060405160200161134b959493929190614eb0565b60405160208183030381529060405280519060200120905090565b61084583838360405180602001604052806000815250612363565b8061138c3382612bf8565b6113a85760405162461bcd60e51b815260040161027690615259565b6000828152600c602052604090206001810154600160801b90046001600160801b03161580156113e3575060048101546001600160801b0316155b801561140157506004810154600160801b90046001600160801b0316155b61141d5760405162461bcd60e51b81526004016102769061559a565b6000838152600c602052604081208181556001810182905560028101829055600381018290556004015561084583613201565b6040516323f2ebc360e21b81526001600160a01b03871690638fcbaf0c9061148b90339030908a908a906001908b908b908b90600401614c1b565b600060405180830381600087803b1580156114a557600080fd5b505af11580156114b9573d6000803e3d6000fd5b50505050505050505050565b6040516370a0823160e01b81526000906001600160a01b037f000000000000000000000000000000000000000000000000000000000000000016906370a0823190611514903090600401614bba565b60206040518083038186803b15801561152c57600080fd5b505afa158015611540573d6000803e3d6000fd5b505050506040513d601f19601f8201168201806040525081019061156491906149d3565b9050828110156115865760405162461bcd60e51b815260040161027690614eef565b801561084557604051632e1a7d4d60e01b81526001600160a01b037f00000000000000000000000000000000000000000000000000000000000000001690632e1a7d4d906115d8908490600401614e1e565b600060405180830381600087803b1580156115f257600080fd5b505af1158015611606573d6000803e3d6000fd5b505050506108458282612e10565b7f000000000000000000000000000000000000000000000000000000000000000081565b6000806116466002846132ce565b509392505050565b600061129f8260405180606001604052806029815260200161584260299139600291906132ec565b606090565b60006001600160a01b0382166116a35760405162461bcd60e51b81526004016102769061527f565b6001600160a01b038216600090815260016020526040902061129f90612e9d565b836116cd612c75565b11156116eb5760405162461bcd60e51b815260040161027690615142565b60006116f56112c9565b7f49ecf333e5b8c95c40fdafc95c1ad136e8914a8fb55e9dc8bb01eaa83a2df9ad8888611721816132f9565b89604051602001611736959493929190614e27565b6040516020818303038152906040528051906020012060405160200161175d929190614b6c565b60405160208183030381529060405280519060200120905060006117808761164e565b9050806001600160a01b0316886001600160a01b031614156117b45760405162461bcd60e51b815260040161027690615038565b6117bd8161332e565b1561189757806001600160a01b0316631626ba7e838686896040516020016117e793929190614b1d565b6040516020818303038152906040526040518363ffffffff1660e01b8152600401611813929190614e53565b60206040518083038186803b15801561182b57600080fd5b505afa15801561183f573d6000803e3d6000fd5b505050506040513d601f19601f8201168201806040525081019061186391906146cd565b6001600160e01b031916631626ba7e60e01b146118925760405162461bcd60e51b815260040161027690614f5d565b611944565b6000600183878787604051600081526020016040526040516118bc9493929190614e6c565b6020604051602081039080840390855afa1580156118de573d6000803e3d6000fd5b5050604051601f1901519150506001600160a01b0381166119115760405162461bcd60e51b815260040161027690615117565b816001600160a01b0316816001600160a01b0316146119425760405162461bcd60e51b815260040161027690614f5d565b505b61194e8888612b82565b5050505050505050565b6000806000808461014001358061196d612c75565b111561198b5760405162461bcd60e51b8152600401610276906154e5565b604080516101408101909152600090611a5790806119ac60208b018b614382565b6001600160a01b031681526020018960200160208101906119cd9190614382565b6001600160a01b031681526020016119eb60608b0160408c016149a1565b62ffffff168152306020820152604001611a0b60808b0160608c016146e9565b60020b8152602001611a2360a08b0160808c016146e9565b60020b81526020018960a0013581526020018960c0013581526020018960e001358152602001896101000135815250612ea8565b92975090955093509050611aa4611a7661014089016101208a01614382565b600d80546001600160b01b0319811660016001600160b01b0392831690810190921617909155975087613334565b6000611acf30611aba60808b0160608c016146e9565b611aca60a08c0160808d016146e9565b612d2a565b9050600080836001600160a01b031663514ea4bf846040518263ffffffff1660e01b8152600401611b009190614e1e565b60a06040518083038186803b158015611b1857600080fd5b505afa158015611b2c573d6000803e3d6000fd5b505050506040513d601f19601f82011682018060405250810190611b5091906148af565b505092509250506000611bc98560405180606001604052808e6000016020810190611b7b9190614382565b6001600160a01b031681526020018e6020016020810190611b9c9190614382565b6001600160a01b031681526020018e6040016020810190611bbd91906149a1565b62ffffff1690526133f8565b905060405180610140016040528060006001600160601b0316815260200160006001600160a01b03168152602001826001600160501b031681526020018c6060016020810190611c1991906146e9565b60020b8152602001611c3160a08e0160808f016146e9565b60020b81526020018a6001600160801b0316815260200184815260200183815260200160006001600160801b0316815260200160006001600160801b0316815250600c60008c815260200190815260200160002060008201518160000160006101000a8154816001600160601b0302191690836001600160601b03160217905550602082015181600001600c6101000a8154816001600160a01b0302191690836001600160a01b0316021790555060408201518160010160006101000a8154816001600160501b0302191690836001600160501b03160217905550606082015181600101600a6101000a81548162ffffff021916908360020b62ffffff160217905550608082015181600101600d6101000a81548162ffffff021916908360020b62ffffff16021790555060a08201518160010160106101000a8154816001600160801b0302191690836001600160801b0316021790555060c0820151816002015560e082015181600301556101008201518160040160006101000a8154816001600160801b0302191690836001600160801b031602179055506101208201518160040160106101000a8154816001600160801b0302191690836001600160801b03160217905550905050897f3067048beee31b25b2f1681f88dac838c8bba36af25bfb2b7cf7473a5847e35f8a8a8a604051611e30939291906155ff565b60405180910390a25050505050509193509193565b60078054604080516020601f600260001961010060018816150201909516949094049384018190048102820181019092528281526060939092909183018282801561075e5780601f106107335761010080835404028352916020019161075e565b6000818152600c6020908152604080832081516101408101835281546001600160601b03811682526001600160a01b03600160601b909104169381019390935260018101546001600160501b038116928401839052600160501b8104600290810b810b810b6060860152600160681b8204810b810b810b60808601526001600160801b03600160801b92839004811660a08701529083015460c0860152600383015460e086015260049092015480831661010086015204166101208301528291829182918291829182918291829182918291829190611f975760405162461bcd60e51b81526004016102769061547a565b6000600b600083604001516001600160501b03166001600160501b031681526020019081526020016000206040518060600160405290816000820160009054906101000a90046001600160a01b03166001600160a01b03166001600160a01b031681526020016001820160009054906101000a90046001600160a01b03166001600160a01b03166001600160a01b031681526020016001820160149054906101000a900462ffffff1662ffffff1662ffffff1681525050905081600001518260200151826000015183602001518460400151866060015187608001518860a001518960c001518a60e001518b61010001518c61012001519d509d509d509d509d509d509d509d509d509d509d509d50505091939597999b5091939597999b565b6120bf612b7e565b6001600160a01b0316826001600160a01b031614156120f05760405162461bcd60e51b8152600401610276906150c3565b80600560006120fd612b7e565b6001600160a01b03908116825260208083019390935260409182016000908120918716808252919093529120805460ff191692151592909217909155612141612b7e565b6001600160a01b03167f17307eab39ab6107e8899845ad3d59bd9653f200f220920489ca2b5937696c31836040516121799190614e13565b60405180910390a35050565b604051636eb1769f60e11b8152600019906001600160a01b0388169063dd62ed3e906121b79033903090600401614bce565b60206040518083038186803b1580156121cf57600080fd5b505afa1580156121e3573d6000803e3d6000fd5b505050506040513d601f19601f8201168201806040525081019061220791906149d3565b101561221b5761221b868686868686611450565b505050505050565b60608167ffffffffffffffff8111801561223c57600080fd5b5060405190808252806020026020018201604052801561227057816020015b606081526020019060019003908161225b5790505b50905060005b8281101561235c576000803086868581811061228e57fe5b90506020028101906122a091906156ec565b6040516122ae929190614b40565b600060405180830381855af49150503d80600081146122e9576040519150601f19603f3d011682016040523d82523d6000602084013e6122ee565b606091505b50915091508161233a5760448151101561230757600080fd5b600481019050808060200190518101906123219190614705565b60405162461bcd60e51b81526004016102769190614edc565b8084848151811061234757fe5b60209081029190910101525050600101612276565b5092915050565b61237461236e612b7e565b83612bf8565b6123905760405162461bcd60e51b815260040161027690615512565b61239c848484846134da565b50505050565b604051636eb1769f60e11b815285906001600160a01b0388169063dd62ed3e906123d29033903090600401614bce565b60206040518083038186803b1580156123ea57600080fd5b505afa1580156123fe573d6000803e3d6000fd5b505050506040513d601f19601f8201168201806040525081019061242291906149d3565b101561221b5761221b86868686868661266e565b7f000000000000000000000000000000000000000000000000000000000000000081565b606061246582612b71565b61246e57600080fd5b60405163e9dc637560e01b81526001600160a01b037f0000000000000000000000000000000000000000000000000000000000000000169063e9dc6375906124bc9030908690600401614d9a565b60006040518083038186803b1580156124d457600080fd5b505afa1580156124e8573d6000803e3d6000fd5b505050506040513d6000823e601f3d908101601f1916820160405261129f9190810190614705565b600061251e828401846147a8565b905061254e7f0000000000000000000000000000000000000000000000000000000000000000826000015161350d565b50841561256957805151602082015161256991903388613530565b83156125875761258781600001516020015182602001513387613530565b5050505050565b6040516370a0823160e01b81526000906001600160a01b038516906370a08231906125bd903090600401614bba565b60206040518083038186803b1580156125d557600080fd5b505afa1580156125e9573d6000803e3d6000fd5b505050506040513d601f19601f8201168201806040525081019061260d91906149d3565b90508281101561262f5760405162461bcd60e51b81526004016102769061500c565b801561239c5761239c8483836136bd565b6001600160a01b03918216600090815260056020908152604080832093909416825291909152205460ff1690565b60405163d505accf60e01b81526001600160a01b0387169063d505accf9061148b90339030908a908a908a908a908a90600401614c64565b60008082356126b53382612bf8565b6126d15760405162461bcd60e51b815260040161027690615259565b60006126e36060860160408701614865565b6001600160801b03161180612710575060006127056080860160608701614865565b6001600160801b0316115b61271957600080fd5b60008061272c6040870160208801614382565b6001600160a01b03161461274f5761274a6040860160208701614382565b612751565b305b85356000908152600c602090815260408083206001808201546001600160501b03168552600b8452828520835160608101855281546001600160a01b039081168252919092015490811694820194909452600160a01b90930462ffffff1691830191909152929350906127e47f000000000000000000000000000000000000000000000000000000000000000083612c79565b600484015460018501549192506001600160801b0380821692600160801b92839004821692900416156129da57600185015460405163a34123a760e01b81526001600160a01b0385169163a34123a79161285b91600160501b8104600290810b92600160681b909204900b90600090600401614e8a565b6040805180830381600087803b15801561287457600080fd5b505af1158015612888573d6000803e3d6000fd5b505050506040513d601f19601f820116820180604052508101906128ac9190614a0f565b5050600185015460009081906001600160a01b0386169063514ea4bf906128ea903090600160501b8104600290810b91600160681b9004900b612d2a565b6040518263ffffffff1660e01b81526004016129069190614e1e565b60a06040518083038186803b15801561291e57600080fd5b505afa158015612932573d6000803e3d6000fd5b505050506040513d601f19601f8201168201806040525081019061295691906148af565b50509250925050612992876002015483038860010160109054906101000a90046001600160801b03166001600160801b0316600160801b612d61565b840193506129cb876003015482038860010160109054906101000a90046001600160801b03166001600160801b0316600160801b612d61565b60028801929092556003870155015b6000806001600160801b0384166129f760608e0160408f01614865565b6001600160801b031611612a1a57612a1560608d0160408e01614865565b612a1c565b835b836001600160801b03168d6060016020810190612a399190614865565b6001600160801b031611612a5c57612a5760808e0160608f01614865565b612a5e565b835b60018901546040516309e3d67b60e31b81529294509092506001600160a01b03871691634f1eb3d891612ab1918c91600160501b8104600290810b92600160681b909204900b9088908890600401614d33565b6040805180830381600087803b158015612aca57600080fd5b505af1158015612ade573d6000803e3d6000fd5b505050506040513d601f19601f82011682018060405250810190612b029190614881565b6004890180546001600160801b03196001600160801b03918216600160801b878a0384160217168689038216179091556040519281169d50169a508c35907f40d0efd1a53d60ecbf40971b9daf7dc90178c3aadc7aab1765632738fa8b8f0190610c51908b9086908690614d70565b600061129f6002836137ab565b3390565b6000818152600c6020526040902080546001600160601b0316600160601b6001600160a01b038516908102919091179091558190612bbf8261164e565b6001600160a01b03167f8c5be1e5ebec7d5bd14f71427d1e84f3dd0314c0f7b2291e5b200ac8c7c3b92560405160405180910390a45050565b6000612c0382612b71565b612c1f5760405162461bcd60e51b8152600401610276906151b0565b6000612c2a8361164e565b9050806001600160a01b0316846001600160a01b03161480612c655750836001600160a01b0316612c5a84610768565b6001600160a01b0316145b80610f3f5750610f3f8185612640565b4290565b600081602001516001600160a01b031682600001516001600160a01b031610612ca157600080fd5b82826000015183602001518460400151604051602001612cc393929190614ca5565b60408051601f19818403018152908290528051602091820120612d0b939290917fe34f199b19b2b4f47f68442619d555527d244f78a3297ea89325f843f87b8b549101614b87565b60408051601f1981840301815291905280516020909101209392505050565b6000838383604051602001612d4193929190614aed565b6040516020818303038152906040528051906020012090505b9392505050565b6000808060001985870986860292508281109083900303905080612d975760008411612d8c57600080fd5b508290049050612d5a565b808411612da357600080fd5b6000848688096000868103871696879004966002600389028118808a02820302808a02820302808a02820302808a02820302808a02820302808a02909103029181900381900460010186841190950394909402919094039290920491909117919091029150509392505050565b604080516000808252602082019092526001600160a01b038416908390604051612e3a9190614b50565b60006040518083038185875af1925050503d8060008114612e77576040519150601f19603f3d011682016040523d82523d6000602084013e612e7c565b606091505b50509050806108455760405162461bcd60e51b8152600401610276906150fa565b600061129f826137b7565b6000806000806000604051806060016040528087600001516001600160a01b0316815260200187602001516001600160a01b03168152602001876040015162ffffff168152509050612f1a7f000000000000000000000000000000000000000000000000000000000000000082612c79565b91506000826001600160a01b0316633850c7bd6040518163ffffffff1660e01b815260040160e06040518083038186803b158015612f5757600080fd5b505afa158015612f6b573d6000803e3d6000fd5b505050506040513d601f19601f82011682018060405250810190612f8f9190614910565b50505050505090506000612fa688608001516137bb565b90506000612fb78960a001516137bb565b9050612fce8383838c60c001518d60e00151613ad4565b9750505050816001600160a01b0316633c8a7d8d876060015188608001518960a00151896040518060400160405280888152602001336001600160a01b031681525060405160200161302091906155bf565b6040516020818303038152906040526040518663ffffffff1660e01b815260040161304f959493929190614cf1565b6040805180830381600087803b15801561306857600080fd5b505af115801561307c573d6000803e3d6000fd5b505050506040513d601f19601f820116820180604052508101906130a09190614a0f565b610100880151919550935084108015906130bf57508561012001518310155b6130db5760405162461bcd60e51b81526004016102769061544c565b509193509193565b826001600160a01b03166130f68261164e565b6001600160a01b03161461311c5760405162461bcd60e51b8152600401610276906153e6565b6001600160a01b0382166131425760405162461bcd60e51b81526004016102769061507f565b61314d838383610845565b613158600082612b82565b6001600160a01b038316600090815260016020526040902061317a9082613b98565b506001600160a01b038216600090815260016020526040902061319d9082613ba4565b506131aa60028284613bb0565b5080826001600160a01b0316846001600160a01b03167fddf252ad1be2c89b69c2b068fc378daa952ba7f163c4a11628f55a4df523b3ef60405160405180910390a4505050565b600061129c8383613bc6565b4690565b600061320c8261164e565b905061321a81600084610845565b613225600083612b82565b6000828152600860205260409020546002600019610100600184161502019091160415613263576000828152600860205260408120613263916142f2565b6001600160a01b03811660009081526001602052604090206132859083613b98565b50613291600283613c0b565b5060405182906000906001600160a01b038416907fddf252ad1be2c89b69c2b068fc378daa952ba7f163c4a11628f55a4df523b3ef908390a45050565b60008080806132dd8686613c17565b909450925050505b9250929050565b6000610f3f848484613c73565b6000908152600c6020526040902080546001600160601b0319811660016001600160601b039283169081019092161790915590565b3b151590565b6001600160a01b03821661335a5760405162461bcd60e51b815260040161027690615326565b61336381612b71565b156133805760405162461bcd60e51b815260040161027690614fd5565b61338c60008383610845565b6001600160a01b03821660009081526001602052604090206133ae9082613ba4565b506133bb60028284613bb0565b5060405181906001600160a01b038416906000907fddf252ad1be2c89b69c2b068fc378daa952ba7f163c4a11628f55a4df523b3ef908290a45050565b6001600160a01b0382166000908152600a60205260409020546001600160501b03168061129f5750600d805460016001600160501b03600160b01b8084048216838101909216026001600160b01b03909316929092179092556001600160a01b038085166000908152600a60209081526040808320805469ffffffffffffffffffff191686179055848352600b825291829020865181549085166001600160a01b031991821617825591870151950180549287015162ffffff16600160a01b0262ffffff60a01b19969094169290911691909117939093161790915592915050565b6134e58484846130e3565b6134f184848484613cd2565b61239c5760405162461bcd60e51b815260040161027690614f83565b60006135198383612c79565b9050336001600160a01b0382161461129f57600080fd5b7f00000000000000000000000000000000000000000000000000000000000000006001600160a01b0316846001600160a01b03161480156135715750804710155b15613690577f00000000000000000000000000000000000000000000000000000000000000006001600160a01b031663d0e30db0826040518263ffffffff1660e01b81526004016000604051808303818588803b1580156135d157600080fd5b505af11580156135e5573d6000803e3d6000fd5b505060405163a9059cbb60e01b81526001600160a01b037f000000000000000000000000000000000000000000000000000000000000000016935063a9059cbb9250613638915085908590600401614d9a565b602060405180830381600087803b15801561365257600080fd5b505af1158015613666573d6000803e3d6000fd5b505050506040513d601f19601f8201168201806040525081019061368a9190614695565b5061239c565b6001600160a01b0383163014156136b1576136ac8483836136bd565b61239c565b61239c84848484613db1565b600080846001600160a01b031663a9059cbb60e01b85856040516024016136e5929190614d9a565b60408051601f198184030181529181526020820180516001600160e01b03166001600160e01b03199094169390931790925290516137239190614b50565b6000604051808303816000865af19150503d8060008114613760576040519150601f19603f3d011682016040523d82523d6000602084013e613765565b606091505b509150915081801561378f57508051158061378f57508080602001905181019061378f9190614695565b6125875760405162461bcd60e51b81526004016102769061535b565b600061129c8383613ea1565b5490565b60008060008360020b126137d2578260020b6137da565b8260020b6000035b9050620d89e88111156137ff5760405162461bcd60e51b8152600401610276906152c9565b60006001821661381357600160801b613825565b6ffffcb933bd6fad37aa2d162d1a5940015b70ffffffffffffffffffffffffffffffffff1690506002821615613859576ffff97272373d413259a46990580e213a0260801c5b6004821615613878576ffff2e50f5f656932ef12357cf3c7fdcc0260801c5b6008821615613897576fffe5caca7e10e4e61c3624eaa0941cd00260801c5b60108216156138b6576fffcb9843d60f6159c9db58835c9266440260801c5b60208216156138d5576fff973b41fa98c081472e6896dfb254c00260801c5b60408216156138f4576fff2ea16466c96a3843ec78b326b528610260801c5b6080821615613913576ffe5dee046a99a2a811c461f1969c30530260801c5b610100821615613933576ffcbe86c7900a88aedcffc83b479aa3a40260801c5b610200821615613953576ff987a7253ac413176f2b074cf7815e540260801c5b610400821615613973576ff3392b0822b70005940c7a398e4b70f30260801c5b610800821615613993576fe7159475a2c29b7443b29c7fa6e889d90260801c5b6110008216156139b3576fd097f3bdfd2022b8845ad8f792aa58250260801c5b6120008216156139d3576fa9f746462d870fdf8a65dc1f90e061e50260801c5b6140008216156139f3576f70d869a156d2a1b890bb3df62baf32f70260801c5b618000821615613a13576f31be135f97d08fd981231505542fcfa60260801c5b62010000821615613a34576f09aa508b5b7a84e1c677de54f3e99bc90260801c5b62020000821615613a54576e5d6af8dedb81196699c329225ee6040260801c5b62040000821615613a73576d2216e584f5fa1ea926041bedfe980260801c5b62080000821615613a90576b048a170391f7dc42444e8fa20260801c5b60008460020b1315613aab578060001981613aa757fe5b0490505b640100000000810615613abf576001613ac2565b60005b60ff16602082901c0192505050919050565b6000836001600160a01b0316856001600160a01b03161115613af4579293925b846001600160a01b0316866001600160a01b031611613b1f57613b18858585613eb9565b9050613b8f565b836001600160a01b0316866001600160a01b03161015613b81576000613b46878686613eb9565b90506000613b55878986613f1c565b9050806001600160801b0316826001600160801b031610613b765780613b78565b815b92505050613b8f565b613b8c858584613f1c565b90505b95945050505050565b600061129c8383613f59565b600061129c838361401f565b6000610f3f84846001600160a01b038516614069565b81546000908210613be95760405162461bcd60e51b815260040161027690614f1b565b826000018281548110613bf857fe5b9060005260206000200154905092915050565b600061129c8383614100565b815460009081908310613c3c5760405162461bcd60e51b8152600401610276906152e4565b6000846000018481548110613c4d57fe5b906000526020600020906002020190508060000154816001015492509250509250929050565b60008281526001840160205260408120548281613ca35760405162461bcd60e51b81526004016102769190614edc565b50846000016001820381548110613cb657fe5b9060005260206000209060020201600101549150509392505050565b6000613ce6846001600160a01b031661332e565b613cf257506001610f3f565b6000613d7a630a85bd0160e11b613d07612b7e565b888787604051602401613d1d9493929190614be8565b604051602081830303815290604052906001600160e01b0319166020820180516001600160e01b038381831617835250505050604051806060016040528060328152602001615810603291396001600160a01b03881691906141d4565b9050600081806020019051810190613d9291906146cd565b6001600160e01b031916630a85bd0160e11b1492505050949350505050565b600080856001600160a01b03166323b872dd60e01b868686604051602401613ddb93929190614ccd565b60408051601f198184030181529181526020820180516001600160e01b03166001600160e01b0319909416939093179092529051613e199190614b50565b6000604051808303816000865af19150503d8060008114613e56576040519150601f19603f3d011682016040523d82523d6000602084013e613e5b565b606091505b5091509150818015613e85575080511580613e85575080806020019051810190613e859190614695565b61221b5760405162461bcd60e51b81526004016102769061542f565b60009081526001919091016020526040902054151590565b6000826001600160a01b0316846001600160a01b03161115613ed9579192915b6000613efc856001600160a01b0316856001600160a01b0316600160601b612d61565b9050613b8f613f1784838888036001600160a01b0316612d61565b6141e3565b6000826001600160a01b0316846001600160a01b03161115613f3c579192915b610f3f613f1783600160601b8787036001600160a01b0316612d61565b600081815260018301602052604081205480156140155783546000198083019190810190600090879083908110613f8c57fe5b9060005260206000200154905080876000018481548110613fa957fe5b600091825260208083209091019290925582815260018981019092526040902090840190558654879080613fd957fe5b6001900381819060005260206000200160009055905586600101600087815260200190815260200160002060009055600194505050505061129f565b600091505061129f565b600061402b8383613ea1565b6140615750815460018181018455600084815260208082209093018490558454848252828601909352604090209190915561129f565b50600061129f565b6000828152600184016020526040812054806140ce575050604080518082018252838152602080820184815286546001818101895560008981528481209551600290930290950191825591519082015586548684528188019092529290912055612d5a565b828560000160018303815481106140e157fe5b9060005260206000209060020201600101819055506000915050612d5a565b60008181526001830160205260408120548015614015578354600019808301919081019060009087908390811061413357fe5b906000526020600020906002020190508087600001848154811061415357fe5b60009182526020808320845460029093020191825560019384015491840191909155835482528983019052604090209084019055865487908061419257fe5b600082815260208082206002600019909401938402018281556001908101839055929093558881528982019092526040822091909155945061129f9350505050565b6060610f3f84846000856141f9565b806001600160801b03811681146106cd57600080fd5b60608247101561421b5760405162461bcd60e51b81526004016102769061516a565b6142248561332e565b6142405760405162461bcd60e51b815260040161027690615563565b600080866001600160a01b0316858760405161425c9190614b50565b60006040518083038185875af1925050503d8060008114614299576040519150601f19603f3d011682016040523d82523d6000602084013e61429e565b606091505b50915091506142ae8282866142b9565b979650505050505050565b606083156142c8575081612d5a565b8251156142d85782518084602001fd5b8160405162461bcd60e51b81526004016102769190614edc565b50805460018160011615610100020316600290046000825580601f106143185750614336565b601f0160209004906000526020600020908101906143369190614339565b50565b5b8082111561434e576000815560010161433a565b5090565b80356106cd816157a3565b805161ffff811681146106cd57600080fd5b803562ffffff811681146106cd57600080fd5b600060208284031215614393578081fd5b8135612d5a816157a3565b6000602082840312156143af578081fd5b8151612d5a816157a3565b600080604083850312156143cc578081fd5b82356143d7816157a3565b915060208301356143e7816157a3565b809150509250929050565b60008060008060808587031215614407578182fd5b8435614412816157a3565b93506020850135614422816157a3565b92506144306040860161436f565b91506060850135614440816157a3565b939692955090935050565b60008060006060848603121561445f578081fd5b833561446a816157a3565b9250602084013561447a816157a3565b929592945050506040919091013590565b600080600080608085870312156144a0578182fd5b84356144ab816157a3565b935060208501356144bb816157a3565b925060408501359150606085013567ffffffffffffffff8111156144dd578182fd5b8501601f810187136144ed578182fd5b80356145006144fb82615755565b615731565b818152886020838501011115614514578384fd5b81602084016020830137908101602001929092525092959194509250565b60008060408385031215614544578182fd5b823561454f816157a3565b915060208301356143e7816157b8565b60008060408385031215614571578182fd5b823561457c816157a3565b946020939093013593505050565b60008060006060848603121561459e578081fd5b83356145a9816157a3565b92506020840135915060408401356145c0816157a3565b809150509250925092565b60008060008060008060c087890312156145e3578384fd5b86356145ee816157a3565b95506020870135945060408701359350606087013561460c81615800565b9598949750929560808101359460a0909101359350915050565b60008060208385031215614638578182fd5b823567ffffffffffffffff8082111561464f578384fd5b818501915085601f830112614662578384fd5b813581811115614670578485fd5b8660208083028501011115614683578485fd5b60209290920196919550909350505050565b6000602082840312156146a6578081fd5b8151612d5a816157b8565b6000602082840312156146c2578081fd5b8135612d5a816157c6565b6000602082840312156146de578081fd5b8151612d5a816157c6565b6000602082840312156146fa578081fd5b8135612d5a816157dc565b600060208284031215614716578081fd5b815167ffffffffffffffff81111561472c578182fd5b8201601f8101841361473c578182fd5b805161474a6144fb82615755565b81815285602083850101111561475e578384fd5b613b8f826020830160208601615777565b600060808284031215614780578081fd5b50919050565b600060a08284031215614780578081fd5b600060c08284031215614780578081fd5b600081830360808112156147ba578182fd5b6040516040810167ffffffffffffffff82821081831117156147d857fe5b8160405260608412156147e9578485fd5b60a08301935081841081851117156147fd57fe5b50826040528435925061480f836157a3565b918252602084013591614821836157a3565b8260608301526148336040860161436f565b6080830152815261484660608501614352565b6020820152949350505050565b60006101608284031215614780578081fd5b600060208284031215614876578081fd5b8135612d5a816157eb565b60008060408385031215614893578182fd5b825161489e816157eb565b60208401519092506143e7816157eb565b600080600080600060a086880312156148c6578283fd5b85516148d1816157eb565b80955050602086015193506040860151925060608601516148f1816157eb565b6080870151909250614902816157eb565b809150509295509295909350565b600080600080600080600060e0888a03121561492a578485fd5b8751614935816157a3565b6020890151909750614946816157dc565b95506149546040890161435d565b94506149626060890161435d565b93506149706080890161435d565b925060a088015161498081615800565b60c0890151909250614991816157b8565b8091505092959891949750929550565b6000602082840312156149b2578081fd5b61129c8261436f565b6000602082840312156149cc578081fd5b5035919050565b6000602082840312156149e4578081fd5b5051919050565b600080604083850312156149fd578182fd5b8235915060208301356143e7816157a3565b60008060408385031215614a21578182fd5b505080516020909101519092909150565b60008060008060608587031215614a47578182fd5b8435935060208501359250604085013567ffffffffffffffff80821115614a6c578384fd5b818701915087601f830112614a7f578384fd5b813581811115614a8d578485fd5b886020828501011115614a9e578485fd5b95989497505060200194505050565b60008151808452614ac5816020860160208601615777565b601f01601f19169290920160200192915050565b60020b9052565b6001600160801b03169052565b60609390931b6001600160601b0319168352600291820b60e890811b6014850152910b901b6017820152601a0190565b928352602083019190915260f81b6001600160f81b031916604082015260410190565b6000828483379101908152919050565b60008251614b62818460208701615777565b9190910192915050565b61190160f01b81526002810192909252602282015260420190565b6001600160f81b0319815260609390931b6001600160601b03191660018401526015830191909152603582015260550190565b6001600160a01b0391909116815260200190565b6001600160a01b0392831681529116602082015260400190565b6001600160a01b0385811682528416602082015260408101839052608060608201819052600090613b8c90830184614aad565b6001600160a01b039889168152969097166020870152604086019490945260608501929092521515608084015260ff1660a083015260c082015260e08101919091526101000190565b6001600160a01b0397881681529590961660208601526040850193909352606084019190915260ff16608083015260a082015260c081019190915260e00190565b6001600160a01b03938416815291909216602082015262ffffff909116604082015260600190565b6001600160a01b039384168152919092166020820152604081019190915260600190565b600060018060a01b03871682528560020b60208301528460020b60408301526001600160801b038416606083015260a060808301526142ae60a0830184614aad565b6001600160a01b03959095168552600293840b60208601529190920b60408401526001600160801b03918216606084015216608082015260a00190565b6001600160a01b039390931683526001600160801b03918216602084015216604082015260600190565b6001600160a01b03929092168252602082015260400190565b6000602080830181845280855180835260408601915060408482028701019250838701855b82811015614e0657603f19888603018452614df4858351614aad565b94509285019290850190600101614dd8565b5092979650505050505050565b901515815260200190565b90815260200190565b9485526001600160a01b0393909316602085015260408401919091526060830152608082015260a00190565b600083825260406020830152610f3f6040830184614aad565b93845260ff9290921660208401526040830152606082015260800190565b600293840b81529190920b60208201526001600160801b03909116604082015260600190565b9485526020850193909352604084019190915260608301526001600160a01b0316608082015260a00190565b60006020825261129c6020830184614aad565b602080825260129082015271496e73756666696369656e7420574554483960701b604082015260600190565b60208082526022908201527f456e756d657261626c655365743a20696e646578206f7574206f6620626f756e604082015261647360f01b606082015260800190565b6020808252600c908201526b155b985d5d1a1bdc9a5e995960a21b604082015260600190565b60208082526032908201527f4552433732313a207472616e7366657220746f206e6f6e20455243373231526560408201527131b2b4bb32b91034b6b83632b6b2b73a32b960711b606082015260800190565b6020808252601c908201527f4552433732313a20746f6b656e20616c7265616479206d696e74656400000000604082015260600190565b60208082526012908201527124b739bab33334b1b4b2b73a103a37b5b2b760711b604082015260600190565b60208082526027908201527f4552433732315065726d69743a20617070726f76616c20746f2063757272656e6040820152663a1037bbb732b960c91b606082015260800190565b60208082526024908201527f4552433732313a207472616e7366657220746f20746865207a65726f206164646040820152637265737360e01b606082015260800190565b60208082526019908201527f4552433732313a20617070726f766520746f2063616c6c657200000000000000604082015260600190565b60208082526003908201526253544560e81b604082015260600190565b602080825260119082015270496e76616c6964207369676e617475726560781b604082015260600190565b6020808252600e908201526d14195c9b5a5d08195e1c1a5c995960921b604082015260600190565b60208082526026908201527f416464726573733a20696e73756666696369656e742062616c616e636520666f6040820152651c8818d85b1b60d21b606082015260800190565b6020808252602c908201527f4552433732313a206f70657261746f7220717565727920666f72206e6f6e657860408201526b34b9ba32b73a103a37b5b2b760a11b606082015260800190565b60208082526038908201527f4552433732313a20617070726f76652063616c6c6572206973206e6f74206f7760408201527f6e6572206e6f7220617070726f76656420666f7220616c6c0000000000000000606082015260800190565b6020808252600c908201526b139bdd08185c1c1c9bdd995960a21b604082015260600190565b6020808252602a908201527f4552433732313a2062616c616e636520717565727920666f7220746865207a65604082015269726f206164647265737360b01b606082015260800190565b6020808252600190820152601560fa1b604082015260600190565b60208082526022908201527f456e756d657261626c654d61703a20696e646578206f7574206f6620626f756e604082015261647360f01b606082015260800190565b6020808252818101527f4552433732313a206d696e7420746f20746865207a65726f2061646472657373604082015260600190565b60208082526002908201526114d560f21b604082015260600190565b6020808252602c908201527f4552433732313a20617070726f76656420717565727920666f72206e6f6e657860408201526b34b9ba32b73a103a37b5b2b760a11b606082015260800190565b6020808252600990820152684e6f7420574554483960b81b604082015260600190565b60208082526029908201527f4552433732313a207472616e73666572206f6620746f6b656e2074686174206960408201526839903737ba1037bbb760b91b606082015260800190565b60208082526003908201526229aa2360e91b604082015260600190565b602080825260149082015273507269636520736c69707061676520636865636b60601b604082015260600190565b60208082526010908201526f125b9d985b1a59081d1bdad95b88125160821b604082015260600190565b60208082526021908201527f4552433732313a20617070726f76616c20746f2063757272656e74206f776e656040820152603960f91b606082015260800190565b602080825260139082015272151c985b9cd858dd1a5bdb881d1bdbc81bdb19606a1b604082015260600190565b60208082526031908201527f4552433732313a207472616e736665722063616c6c6572206973206e6f74206f6040820152701ddb995c881b9bdc88185c1c1c9bdd9959607a1b606082015260800190565b6020808252601d908201527f416464726573733a2063616c6c20746f206e6f6e2d636f6e7472616374000000604082015260600190565b6020808252600b908201526a139bdd0818db19585c995960aa1b604082015260600190565b815180516001600160a01b03908116835260208083015182168185015260409283015162ffffff1692840192909252920151909116606082015260800190565b6001600160801b039390931683526020830191909152604082015260600190565b9384526001600160801b039290921660208401526040830152606082015260800190565b918252602082015260400190565b6001600160601b038d1681526001600160a01b038c811660208301528b811660408301528a16606082015262ffffff89166080820152600288900b60a082015261018081016156a460c0830189614ad9565b6156b160e0830188614ae0565b85610100830152846101208301526156cd610140830185614ae0565b6156db610160830184614ae0565b9d9c50505050505050505050505050565b6000808335601e19843603018112615702578283fd5b83018035915067ffffffffffffffff82111561571c578283fd5b6020019150368190038213156132e557600080fd5b60405181810167ffffffffffffffff8111828210171561574d57fe5b604052919050565b600067ffffffffffffffff82111561576957fe5b50601f01601f191660200190565b60005b8381101561579257818101518382015260200161577a565b8381111561239c5750506000910152565b6001600160a01b038116811461433657600080fd5b801515811461433657600080fd5b6001600160e01b03198116811461433657600080fd5b8060020b811461433657600080fd5b6001600160801b038116811461433657600080fd5b60ff8116811461433657600080fdfe4552433732313a207472616e7366657220746f206e6f6e20455243373231526563656976657220696d706c656d656e7465724552433732313a206f776e657220717565727920666f72206e6f6e6578697374656e7420746f6b656ea26469706673582212205adf899ff6a13ee49cb07a61e104026bfe7a15f50fa6a331befa099c3063559c64736f6c63430007060033",
			"opcodes": "PUSH2 0x120 PUSH1 0x40 MSTORE PUSH1 0xD DUP1 SLOAD PUSH1 0x1 PUSH1 0x1 PUSH1 0xB0 SHL SUB NOT AND PUSH1 0x1 OR PUSH1 0x1 PUSH1 0x1 PUSH1 0xB0 SHL SUB AND PUSH1 0x1 PUSH1 0xB0 SHL OR SWAP1 SSTORE CALLVALUE DUP1 ISZERO PUSH3 0x34 JUMPI PUSH1 0x0 DUP1 REVERT JUMPDEST POP PUSH1 0x40 MLOAD PUSH3 0x5C56 CODESIZE SUB DUP1 PUSH3 0x5C56 DUP4 CODECOPY DUP2 ADD PUSH1 0x40 DUP2 SWAP1 MSTORE PUSH3 0x57 SWAP2 PUSH3 0x2B1 JUMP JUMPDEST DUP3 DUP3 PUSH1 0x40 MLOAD DUP1 PUSH1 0x40 ADD PUSH1 0x40 MSTORE DUP1 PUSH1 0x1B DUP2 MSTORE PUSH1 0x20 ADD PUSH32 0x556E697377617020563320506F736974696F6E73204E46542D56310000000000 DUP2 MSTORE POP PUSH1 0x40 MLOAD DUP1 PUSH1 0x40 ADD PUSH1 0x40 MSTORE DUP1 PUSH1 0xA DUP2 MSTORE PUSH1 0x20 ADD PUSH10 0x554E492D56332D504F53 PUSH1 0xB0 SHL DUP2 MSTORE POP PUSH1 0x40 MLOAD DUP1 PUSH1 0x40 ADD PUSH1 0x40 MSTORE DUP1 PUSH1 0x1 DUP2 MSTORE PUSH1 0x20 ADD PUSH1 0x31 PUSH1 0xF8 SHL DUP2 MSTORE POP DUP3 DUP3 PUSH3 0xE6 PUSH4 0x1FFC9A7 PUSH1 0xE0 SHL PUSH3 0x18D PUSH1 0x20 SHL PUSH1 0x20 SHR JUMP JUMPDEST DUP2 MLOAD PUSH3 0xFB SWAP1 PUSH1 0x6 SWAP1 PUSH1 0x20 DUP6 ADD SWAP1 PUSH3 0x1E8 JUMP JUMPDEST POP DUP1 MLOAD PUSH3 0x111 SWAP1 PUSH1 0x7 SWAP1 PUSH1 0x20 DUP5 ADD SWAP1 PUSH3 0x1E8 JUMP JUMPDEST POP PUSH3 0x124 PUSH4 0x80AC58CD PUSH1 0xE0 SHL PUSH3 0x18D JUMP JUMPDEST PUSH3 0x136 PUSH4 0x5B5E139F PUSH1 0xE0 SHL PUSH3 0x18D JUMP JUMPDEST PUSH3 0x148 PUSH4 0x780E9D63 PUSH1 0xE0 SHL PUSH3 0x18D JUMP JUMPDEST POP POP DUP3 MLOAD PUSH1 0x20 SWAP4 DUP5 ADD KECCAK256 PUSH1 0x80 MSTORE DUP1 MLOAD SWAP3 ADD SWAP2 SWAP1 SWAP2 KECCAK256 PUSH1 0xA0 MSTORE POP PUSH1 0x1 PUSH1 0x1 PUSH1 0x60 SHL SUB NOT PUSH1 0x60 SWAP3 DUP4 SHL DUP2 AND PUSH1 0xC0 MSTORE SWAP1 DUP3 SHL DUP2 AND PUSH1 0xE0 MSTORE SWAP2 SWAP1 SHL AND PUSH2 0x100 MSTORE POP PUSH3 0x331 SWAP1 POP JUMP JUMPDEST PUSH1 0x1 PUSH1 0x1 PUSH1 0xE0 SHL SUB NOT DUP1 DUP3 AND EQ ISZERO PUSH3 0x1C3 JUMPI PUSH1 0x40 MLOAD PUSH3 0x461BCD PUSH1 0xE5 SHL DUP2 MSTORE PUSH1 0x4 ADD PUSH3 0x1BA SWAP1 PUSH3 0x2FA JUMP JUMPDEST PUSH1 0x40 MLOAD DUP1 SWAP2 SUB SWAP1 REVERT JUMPDEST PUSH1 0x1 PUSH1 0x1 PUSH1 0xE0 SHL SUB NOT AND PUSH1 0x0 SWAP1 DUP2 MSTORE PUSH1 0x20 DUP2 SWAP1 MSTORE PUSH1 0x40 SWAP1 KECCAK256 DUP1 SLOAD PUSH1 0xFF NOT AND PUSH1 0x1 OR SWAP1 SSTORE JUMP JUMPDEST DUP3 DUP1 SLOAD PUSH1 0x1 DUP2 PUSH1 0x1 AND ISZERO PUSH2 0x100 MUL SUB AND PUSH1 0x2 SWAP1 DIV SWAP1 PUSH1 0x0 MSTORE PUSH1 0x20 PUSH1 0x0 KECCAK256 SWAP1 PUSH1 0x1F ADD PUSH1 0x20 SWAP1 DIV DUP2 ADD SWAP3 DUP3 PUSH3 0x220 JUMPI PUSH1 0x0 DUP6 SSTORE PUSH3 0x26B JUMP JUMPDEST DUP3 PUSH1 0x1F LT PUSH3 0x23B JUMPI DUP1 MLOAD PUSH1 0xFF NOT AND DUP4 DUP1 ADD OR DUP6 SSTORE PUSH3 0x26B JUMP JUMPDEST DUP3 DUP1 ADD PUSH1 0x1 ADD DUP6 SSTORE DUP3 ISZERO PUSH3 0x26B JUMPI SWAP2 DUP3 ADD JUMPDEST DUP3 DUP2 GT ISZERO PUSH3 0x26B JUMPI DUP3 MLOAD DUP3 SSTORE SWAP2 PUSH1 0x20 ADD SWAP2 SWAP1 PUSH1 0x1 ADD SWAP1 PUSH3 0x24E JUMP JUMPDEST POP PUSH3 0x279 SWAP3 SWAP2 POP PUSH3 0x27D JUMP JUMPDEST POP SWAP1 JUMP JUMPDEST JUMPDEST DUP1 DUP3 GT ISZERO PUSH3 0x279 JUMPI PUSH1 0x0 DUP2 SSTORE PUSH1 0x1 ADD PUSH3 0x27E JUMP JUMPDEST DUP1 MLOAD PUSH1 0x1 PUSH1 0x1 PUSH1 0xA0 SHL SUB DUP2 AND DUP2 EQ PUSH3 0x2AC JUMPI PUSH1 0x0 DUP1 REVERT JUMPDEST SWAP2 SWAP1 POP JUMP JUMPDEST PUSH1 0x0 DUP1 PUSH1 0x0 PUSH1 0x60 DUP5 DUP7 SUB SLT ISZERO PUSH3 0x2C6 JUMPI DUP3 DUP4 REVERT JUMPDEST PUSH3 0x2D1 DUP5 PUSH3 0x294 JUMP JUMPDEST SWAP3 POP PUSH3 0x2E1 PUSH1 0x20 DUP6 ADD PUSH3 0x294 JUMP JUMPDEST SWAP2 POP PUSH3 0x2F1 PUSH1 0x40 DUP6 ADD PUSH3 0x294 JUMP JUMPDEST SWAP1 POP SWAP3 POP SWAP3 POP SWAP3 JUMP JUMPDEST PUSH1 0x20 DUP1 DUP3 MSTORE PUSH1 0x1C SWAP1 DUP3 ADD MSTORE PUSH32 0x4552433136353A20696E76616C696420696E7465726661636520696400000000 PUSH1 0x40 DUP3 ADD MSTORE PUSH1 0x60 ADD SWAP1 JUMP JUMPDEST PUSH1 0x80 MLOAD PUSH1 0xA0 MLOAD PUSH1 0xC0 MLOAD PUSH1 0x60 SHR PUSH1 0xE0 MLOAD PUSH1 0x60 SHR PUSH2 0x100 MLOAD PUSH1 0x60 SHR PUSH2 0x58A0 PUSH3 0x3B6 PUSH1 0x0 CODECOPY DUP1 PUSH2 0x2485 MSTORE POP DUP1 PUSH2 0x239 MSTORE DUP1 PUSH2 0x14DF MSTORE DUP1 PUSH2 0x15A3 MSTORE DUP1 PUSH2 0x1616 MSTORE DUP1 PUSH2 0x3532 MSTORE DUP1 PUSH2 0x3578 MSTORE DUP1 PUSH2 0x35FE MSTORE POP DUP1 PUSH2 0x97B MSTORE DUP1 PUSH2 0xCB0 MSTORE DUP1 PUSH2 0xD60 MSTORE DUP1 PUSH2 0x2438 MSTORE DUP1 PUSH2 0x2525 MSTORE DUP1 PUSH2 0x27BF MSTORE DUP1 PUSH2 0x2EF5 MSTORE POP DUP1 PUSH2 0x130F MSTORE POP DUP1 PUSH2 0x12EE MSTORE POP PUSH2 0x58A0 PUSH1 0x0 RETURN INVALID PUSH1 0x80 PUSH1 0x40 MSTORE PUSH1 0x4 CALLDATASIZE LT PUSH2 0x229 JUMPI PUSH1 0x0 CALLDATALOAD PUSH1 0xE0 SHR DUP1 PUSH4 0x6352211E GT PUSH2 0x123 JUMPI DUP1 PUSH4 0xAC9650D8 GT PUSH2 0xAB JUMPI DUP1 PUSH4 0xD3487997 GT PUSH2 0x6F JUMPI DUP1 PUSH4 0xD3487997 EQ PUSH2 0x636 JUMPI DUP1 PUSH4 0xDF2AB5BB EQ PUSH2 0x656 JUMPI DUP1 PUSH4 0xE985E9C5 EQ PUSH2 0x669 JUMPI DUP1 PUSH4 0xF3995C67 EQ PUSH2 0x689 JUMPI DUP1 PUSH4 0xFC6F7865 EQ PUSH2 0x69C JUMPI PUSH2 0x281 JUMP JUMPDEST DUP1 PUSH4 0xAC9650D8 EQ PUSH2 0x5AE JUMPI DUP1 PUSH4 0xB88D4FDE EQ PUSH2 0x5CE JUMPI DUP1 PUSH4 0xC2E3140A EQ PUSH2 0x5EE JUMPI DUP1 PUSH4 0xC45A0155 EQ PUSH2 0x601 JUMPI DUP1 PUSH4 0xC87B56DD EQ PUSH2 0x616 JUMPI PUSH2 0x281 JUMP JUMPDEST DUP1 PUSH4 0x88316456 GT PUSH2 0xF2 JUMPI DUP1 PUSH4 0x88316456 EQ PUSH2 0x50B JUMPI DUP1 PUSH4 0x95D89B41 EQ PUSH2 0x52E JUMPI DUP1 PUSH4 0x99FBAB88 EQ PUSH2 0x543 JUMPI DUP1 PUSH4 0xA22CB465 EQ PUSH2 0x57B JUMPI DUP1 PUSH4 0xA4A78F0C EQ PUSH2 0x59B JUMPI PUSH2 0x281 JUMP JUMPDEST DUP1 PUSH4 0x6352211E EQ PUSH2 0x4A3 JUMPI DUP1 PUSH4 0x6C0360EB EQ PUSH2 0x4C3 JUMPI DUP1 PUSH4 0x70A08231 EQ PUSH2 0x4D8 JUMPI DUP1 PUSH4 0x7AC2FF7B EQ PUSH2 0x4F8 JUMPI PUSH2 0x281 JUMP JUMPDEST DUP1 PUSH4 0x23B872DD GT PUSH2 0x1B1 JUMPI DUP1 PUSH4 0x42966C68 GT PUSH2 0x175 JUMPI DUP1 PUSH4 0x42966C68 EQ PUSH2 0x435 JUMPI DUP1 PUSH4 0x4659A494 EQ PUSH2 0x448 JUMPI DUP1 PUSH4 0x49404B7C EQ PUSH2 0x45B JUMPI DUP1 PUSH4 0x4AA4A4FC EQ PUSH2 0x46E JUMPI DUP1 PUSH4 0x4F6CCCE7 EQ PUSH2 0x483 JUMPI PUSH2 0x281 JUMP JUMPDEST DUP1 PUSH4 0x23B872DD EQ PUSH2 0x3AB JUMPI DUP1 PUSH4 0x2F745C59 EQ PUSH2 0x3CB JUMPI DUP1 PUSH4 0x30ADF81F EQ PUSH2 0x3EB JUMPI DUP1 PUSH4 0x3644E515 EQ PUSH2 0x400 JUMPI DUP1 PUSH4 0x42842E0E EQ PUSH2 0x415 JUMPI PUSH2 0x281 JUMP JUMPDEST DUP1 PUSH4 0xC49CCBE GT PUSH2 0x1F8 JUMPI DUP1 PUSH4 0xC49CCBE EQ PUSH2 0x32B JUMPI DUP1 PUSH4 0x12210E8A EQ PUSH2 0x34C JUMPI DUP1 PUSH4 0x13EAD562 EQ PUSH2 0x354 JUMPI DUP1 PUSH4 0x18160DDD EQ PUSH2 0x367 JUMPI DUP1 PUSH4 0x219F5D17 EQ PUSH2 0x389 JUMPI PUSH2 0x281 JUMP JUMPDEST DUP1 PUSH4 0x1FFC9A7 EQ PUSH2 0x286 JUMPI DUP1 PUSH4 0x6FDDE03 EQ PUSH2 0x2BC JUMPI DUP1 PUSH4 0x81812FC EQ PUSH2 0x2DE JUMPI DUP1 PUSH4 0x95EA7B3 EQ PUSH2 0x30B JUMPI PUSH2 0x281 JUMP JUMPDEST CALLDATASIZE PUSH2 0x281 JUMPI CALLER PUSH1 0x1 PUSH1 0x1 PUSH1 0xA0 SHL SUB PUSH32 0x0 AND EQ PUSH2 0x27F JUMPI PUSH1 0x40 MLOAD PUSH3 0x461BCD PUSH1 0xE5 SHL DUP2 MSTORE PUSH1 0x4 ADD PUSH2 0x276 SWAP1 PUSH2 0x53C3 JUMP JUMPDEST PUSH1 0x40 MLOAD DUP1 SWAP2 SUB SWAP1 REVERT JUMPDEST STOP JUMPDEST PUSH1 0x0 DUP1 REVERT JUMPDEST CALLVALUE DUP1 ISZERO PUSH2 0x292 JUMPI PUSH1 0x0 DUP1 REVERT JUMPDEST POP PUSH2 0x2A6 PUSH2 0x2A1 CALLDATASIZE PUSH1 0x4 PUSH2 0x46B1 JUMP JUMPDEST PUSH2 0x6AF JUMP JUMPDEST PUSH1 0x40 MLOAD PUSH2 0x2B3 SWAP2 SWAP1 PUSH2 0x4E13 JUMP JUMPDEST PUSH1 0x40 MLOAD DUP1 SWAP2 SUB SWAP1 RETURN JUMPDEST CALLVALUE DUP1 ISZERO PUSH2 0x2C8 JUMPI PUSH1 0x0 DUP1 REVERT JUMPDEST POP PUSH2 0x2D1 PUSH2 0x6D2 JUMP JUMPDEST PUSH1 0x40 MLOAD PUSH2 0x2B3 SWAP2 SWAP1 PUSH2 0x4EDC JUMP JUMPDEST CALLVALUE DUP1 ISZERO PUSH2 0x2EA JUMPI PUSH1 0x0 DUP1 REVERT JUMPDEST POP PUSH2 0x2FE PUSH2 0x2F9 CALLDATASIZE PUSH1 0x4 PUSH2 0x49BB JUMP JUMPDEST PUSH2 0x768 JUMP JUMPDEST PUSH1 0x40 MLOAD PUSH2 0x2B3 SWAP2 SWAP1 PUSH2 0x4BBA JUMP JUMPDEST CALLVALUE DUP1 ISZERO PUSH2 0x317 JUMPI PUSH1 0x0 DUP1 REVERT JUMPDEST POP PUSH2 0x27F PUSH2 0x326 CALLDATASIZE PUSH1 0x4 PUSH2 0x455F JUMP JUMPDEST PUSH2 0x7B2 JUMP JUMPDEST PUSH2 0x33E PUSH2 0x339 CALLDATASIZE PUSH1 0x4 PUSH2 0x4786 JUMP JUMPDEST PUSH2 0x84A JUMP JUMPDEST PUSH1 0x40 MLOAD PUSH2 0x2B3 SWAP3 SWAP2 SWAP1 PUSH2 0x5644 JUMP JUMPDEST PUSH2 0x27F PUSH2 0xC67 JUMP JUMPDEST PUSH2 0x2FE PUSH2 0x362 CALLDATASIZE PUSH1 0x4 PUSH2 0x43F2 JUMP JUMPDEST PUSH2 0xC79 JUMP JUMPDEST CALLVALUE DUP1 ISZERO PUSH2 0x373 JUMPI PUSH1 0x0 DUP1 REVERT JUMPDEST POP PUSH2 0x37C PUSH2 0xF47 JUMP JUMPDEST PUSH1 0x40 MLOAD PUSH2 0x2B3 SWAP2 SWAP1 PUSH2 0x4E1E JUMP JUMPDEST PUSH2 0x39C PUSH2 0x397 CALLDATASIZE PUSH1 0x4 PUSH2 0x4797 JUMP JUMPDEST PUSH2 0xF58 JUMP JUMPDEST PUSH1 0x40 MLOAD PUSH2 0x2B3 SWAP4 SWAP3 SWAP2 SWAP1 PUSH2 0x55FF JUMP JUMPDEST CALLVALUE DUP1 ISZERO PUSH2 0x3B7 JUMPI PUSH1 0x0 DUP1 REVERT JUMPDEST POP PUSH2 0x27F PUSH2 0x3C6 CALLDATASIZE PUSH1 0x4 PUSH2 0x444B JUMP JUMPDEST PUSH2 0x1242 JUMP JUMPDEST CALLVALUE DUP1 ISZERO PUSH2 0x3D7 JUMPI PUSH1 0x0 DUP1 REVERT JUMPDEST POP PUSH2 0x37C PUSH2 0x3E6 CALLDATASIZE PUSH1 0x4 PUSH2 0x455F JUMP JUMPDEST PUSH2 0x127A JUMP JUMPDEST CALLVALUE DUP1 ISZERO PUSH2 0x3F7 JUMPI PUSH1 0x0 DUP1 REVERT JUMPDEST POP PUSH2 0x37C PUSH2 0x12A5 JUMP JUMPDEST CALLVALUE DUP1 ISZERO PUSH2 0x40C JUMPI PUSH1 0x0 DUP1 REVERT JUMPDEST POP PUSH2 0x37C PUSH2 0x12C9 JUMP JUMPDEST CALLVALUE DUP1 ISZERO PUSH2 0x421 JUMPI PUSH1 0x0 DUP1 REVERT JUMPDEST POP PUSH2 0x27F PUSH2 0x430 CALLDATASIZE PUSH1 0x4 PUSH2 0x444B JUMP JUMPDEST PUSH2 0x1366 JUMP JUMPDEST PUSH2 0x27F PUSH2 0x443 CALLDATASIZE PUSH1 0x4 PUSH2 0x49BB JUMP JUMPDEST PUSH2 0x1381 JUMP JUMPDEST PUSH2 0x27F PUSH2 0x456 CALLDATASIZE PUSH1 0x4 PUSH2 0x45CB JUMP JUMPDEST PUSH2 0x1450 JUMP JUMPDEST PUSH2 0x27F PUSH2 0x469 CALLDATASIZE PUSH1 0x4 PUSH2 0x49EB JUMP JUMPDEST PUSH2 0x14C5 JUMP JUMPDEST CALLVALUE DUP1 ISZERO PUSH2 0x47A JUMPI PUSH1 0x0 DUP1 REVERT JUMPDEST POP PUSH2 0x2FE PUSH2 0x1614 JUMP JUMPDEST CALLVALUE DUP1 ISZERO PUSH2 0x48F JUMPI PUSH1 0x0 DUP1 REVERT JUMPDEST POP PUSH2 0x37C PUSH2 0x49E CALLDATASIZE PUSH1 0x4 PUSH2 0x49BB JUMP JUMPDEST PUSH2 0x1638 JUMP JUMPDEST CALLVALUE DUP1 ISZERO PUSH2 0x4AF JUMPI PUSH1 0x0 DUP1 REVERT JUMPDEST POP PUSH2 0x2FE PUSH2 0x4BE CALLDATASIZE PUSH1 0x4 PUSH2 0x49BB JUMP JUMPDEST PUSH2 0x164E JUMP JUMPDEST CALLVALUE DUP1 ISZERO PUSH2 0x4CF JUMPI PUSH1 0x0 DUP1 REVERT JUMPDEST POP PUSH2 0x2D1 PUSH2 0x1676 JUMP JUMPDEST CALLVALUE DUP1 ISZERO PUSH2 0x4E4 JUMPI PUSH1 0x0 DUP1 REVERT JUMPDEST POP PUSH2 0x37C PUSH2 0x4F3 CALLDATASIZE PUSH1 0x4 PUSH2 0x4382 JUMP JUMPDEST PUSH2 0x167B JUMP JUMPDEST PUSH2 0x27F PUSH2 0x506 CALLDATASIZE PUSH1 0x4 PUSH2 0x45CB JUMP JUMPDEST PUSH2 0x16C4 JUMP JUMPDEST PUSH2 0x51E PUSH2 0x519 CALLDATASIZE PUSH1 0x4 PUSH2 0x4853 JUMP JUMPDEST PUSH2 0x1958 JUMP JUMPDEST PUSH1 0x40 MLOAD PUSH2 0x2B3 SWAP5 SWAP4 SWAP3 SWAP2 SWAP1 PUSH2 0x5620 JUMP JUMPDEST CALLVALUE DUP1 ISZERO PUSH2 0x53A JUMPI PUSH1 0x0 DUP1 REVERT JUMPDEST POP PUSH2 0x2D1 PUSH2 0x1E45 JUMP JUMPDEST CALLVALUE DUP1 ISZERO PUSH2 0x54F JUMPI PUSH1 0x0 DUP1 REVERT JUMPDEST POP PUSH2 0x563 PUSH2 0x55E CALLDATASIZE PUSH1 0x4 PUSH2 0x49BB JUMP JUMPDEST PUSH2 0x1EA6 JUMP JUMPDEST PUSH1 0x40 MLOAD PUSH2 0x2B3 SWAP13 SWAP12 SWAP11 SWAP10 SWAP9 SWAP8 SWAP7 SWAP6 SWAP5 SWAP4 SWAP3 SWAP2 SWAP1 PUSH2 0x5652 JUMP JUMPDEST CALLVALUE DUP1 ISZERO PUSH2 0x587 JUMPI PUSH1 0x0 DUP1 REVERT JUMPDEST POP PUSH2 0x27F PUSH2 0x596 CALLDATASIZE PUSH1 0x4 PUSH2 0x4532 JUMP JUMPDEST PUSH2 0x20B7 JUMP JUMPDEST PUSH2 0x27F PUSH2 0x5A9 CALLDATASIZE PUSH1 0x4 PUSH2 0x45CB JUMP JUMPDEST PUSH2 0x2185 JUMP JUMPDEST PUSH2 0x5C1 PUSH2 0x5BC CALLDATASIZE PUSH1 0x4 PUSH2 0x4626 JUMP JUMPDEST PUSH2 0x2223 JUMP JUMPDEST PUSH1 0x40 MLOAD PUSH2 0x2B3 SWAP2 SWAP1 PUSH2 0x4DB3 JUMP JUMPDEST CALLVALUE DUP1 ISZERO PUSH2 0x5DA JUMPI PUSH1 0x0 DUP1 REVERT JUMPDEST POP PUSH2 0x27F PUSH2 0x5E9 CALLDATASIZE PUSH1 0x4 PUSH2 0x448B JUMP JUMPDEST PUSH2 0x2363 JUMP JUMPDEST PUSH2 0x27F PUSH2 0x5FC CALLDATASIZE PUSH1 0x4 PUSH2 0x45CB JUMP JUMPDEST PUSH2 0x23A2 JUMP JUMPDEST CALLVALUE DUP1 ISZERO PUSH2 0x60D JUMPI PUSH1 0x0 DUP1 REVERT JUMPDEST POP PUSH2 0x2FE PUSH2 0x2436 JUMP JUMPDEST CALLVALUE DUP1 ISZERO PUSH2 0x622 JUMPI PUSH1 0x0 DUP1 REVERT JUMPDEST POP PUSH2 0x2D1 PUSH2 0x631 CALLDATASIZE PUSH1 0x4 PUSH2 0x49BB JUMP JUMPDEST PUSH2 0x245A JUMP JUMPDEST CALLVALUE DUP1 ISZERO PUSH2 0x642 JUMPI PUSH1 0x0 DUP1 REVERT JUMPDEST POP PUSH2 0x27F PUSH2 0x651 CALLDATASIZE PUSH1 0x4 PUSH2 0x4A32 JUMP JUMPDEST PUSH2 0x2510 JUMP JUMPDEST PUSH2 0x27F PUSH2 0x664 CALLDATASIZE PUSH1 0x4 PUSH2 0x458A JUMP JUMPDEST PUSH2 0x258E JUMP JUMPDEST CALLVALUE DUP1 ISZERO PUSH2 0x675 JUMPI PUSH1 0x0 DUP1 REVERT JUMPDEST POP PUSH2 0x2A6 PUSH2 0x684 CALLDATASIZE PUSH1 0x4 PUSH2 0x43BA JUMP JUMPDEST PUSH2 0x2640 JUMP JUMPDEST PUSH2 0x27F PUSH2 0x697 CALLDATASIZE PUSH1 0x4 PUSH2 0x45CB JUMP JUMPDEST PUSH2 0x266E JUMP JUMPDEST PUSH2 0x33E PUSH2 0x6AA CALLDATASIZE PUSH1 0x4 PUSH2 0x476F JUMP JUMPDEST PUSH2 0x26A6 JUMP JUMPDEST PUSH1 0x1 PUSH1 0x1 PUSH1 0xE0 SHL SUB NOT DUP2 AND PUSH1 0x0 SWAP1 DUP2 MSTORE PUSH1 0x20 DUP2 SWAP1 MSTORE PUSH1 0x40 SWAP1 KECCAK256 SLOAD PUSH1 0xFF AND JUMPDEST SWAP2 SWAP1 POP JUMP JUMPDEST PUSH1 0x6 DUP1 SLOAD PUSH1 0x40 DUP1 MLOAD PUSH1 0x20 PUSH1 0x1F PUSH1 0x2 PUSH1 0x0 NOT PUSH2 0x100 PUSH1 0x1 DUP9 AND ISZERO MUL ADD SWAP1 SWAP6 AND SWAP5 SWAP1 SWAP5 DIV SWAP4 DUP5 ADD DUP2 SWAP1 DIV DUP2 MUL DUP3 ADD DUP2 ADD SWAP1 SWAP3 MSTORE DUP3 DUP2 MSTORE PUSH1 0x60 SWAP4 SWAP1 SWAP3 SWAP1 SWAP2 DUP4 ADD DUP3 DUP3 DUP1 ISZERO PUSH2 0x75E JUMPI DUP1 PUSH1 0x1F LT PUSH2 0x733 JUMPI PUSH2 0x100 DUP1 DUP4 SLOAD DIV MUL DUP4 MSTORE SWAP2 PUSH1 0x20 ADD SWAP2 PUSH2 0x75E JUMP JUMPDEST DUP3 ADD SWAP2 SWAP1 PUSH1 0x0 MSTORE PUSH1 0x20 PUSH1 0x0 KECCAK256 SWAP1 JUMPDEST DUP2 SLOAD DUP2 MSTORE SWAP1 PUSH1 0x1 ADD SWAP1 PUSH1 0x20 ADD DUP1 DUP4 GT PUSH2 0x741 JUMPI DUP3 SWAP1 SUB PUSH1 0x1F AND DUP3 ADD SWAP2 JUMPDEST POP POP POP POP POP SWAP1 POP SWAP1 JUMP JUMPDEST PUSH1 0x0 PUSH2 0x773 DUP3 PUSH2 0x2B71 JUMP JUMPDEST PUSH2 0x78F JUMPI PUSH1 0x40 MLOAD PUSH3 0x461BCD PUSH1 0xE5 SHL DUP2 MSTORE PUSH1 0x4 ADD PUSH2 0x276 SWAP1 PUSH2 0x5377 JUMP JUMPDEST POP PUSH1 0x0 SWAP1 DUP2 MSTORE PUSH1 0xC PUSH1 0x20 MSTORE PUSH1 0x40 SWAP1 KECCAK256 SLOAD PUSH1 0x1 PUSH1 0x60 SHL SWAP1 DIV PUSH1 0x1 PUSH1 0x1 PUSH1 0xA0 SHL SUB AND SWAP1 JUMP JUMPDEST PUSH1 0x0 PUSH2 0x7BD DUP3 PUSH2 0x164E JUMP JUMPDEST SWAP1 POP DUP1 PUSH1 0x1 PUSH1 0x1 PUSH1 0xA0 SHL SUB AND DUP4 PUSH1 0x1 PUSH1 0x1 PUSH1 0xA0 SHL SUB AND EQ ISZERO PUSH2 0x7F1 JUMPI PUSH1 0x40 MLOAD PUSH3 0x461BCD PUSH1 0xE5 SHL DUP2 MSTORE PUSH1 0x4 ADD PUSH2 0x276 SWAP1 PUSH2 0x54A4 JUMP JUMPDEST DUP1 PUSH1 0x1 PUSH1 0x1 PUSH1 0xA0 SHL SUB AND PUSH2 0x803 PUSH2 0x2B7E JUMP JUMPDEST PUSH1 0x1 PUSH1 0x1 PUSH1 0xA0 SHL SUB AND EQ DUP1 PUSH2 0x81F JUMPI POP PUSH2 0x81F DUP2 PUSH2 0x684 PUSH2 0x2B7E JUMP JUMPDEST PUSH2 0x83B JUMPI PUSH1 0x40 MLOAD PUSH3 0x461BCD PUSH1 0xE5 SHL DUP2 MSTORE PUSH1 0x4 ADD PUSH2 0x276 SWAP1 PUSH2 0x51FC JUMP JUMPDEST PUSH2 0x845 DUP4 DUP4 PUSH2 0x2B82 JUMP JUMPDEST POP POP POP JUMP JUMPDEST PUSH1 0x0 DUP1 DUP3 CALLDATALOAD PUSH2 0x859 CALLER DUP3 PUSH2 0x2BF8 JUMP JUMPDEST PUSH2 0x875 JUMPI PUSH1 0x40 MLOAD PUSH3 0x461BCD PUSH1 0xE5 SHL DUP2 MSTORE PUSH1 0x4 ADD PUSH2 0x276 SWAP1 PUSH2 0x5259 JUMP JUMPDEST DUP4 PUSH1 0x80 ADD CALLDATALOAD DUP1 PUSH2 0x883 PUSH2 0x2C75 JUMP JUMPDEST GT ISZERO PUSH2 0x8A1 JUMPI PUSH1 0x40 MLOAD PUSH3 0x461BCD PUSH1 0xE5 SHL DUP2 MSTORE PUSH1 0x4 ADD PUSH2 0x276 SWAP1 PUSH2 0x54E5 JUMP JUMPDEST PUSH1 0x0 PUSH2 0x8B3 PUSH1 0x40 DUP8 ADD PUSH1 0x20 DUP9 ADD PUSH2 0x4865 JUMP JUMPDEST PUSH1 0x1 PUSH1 0x1 PUSH1 0x80 SHL SUB AND GT PUSH2 0x8C6 JUMPI PUSH1 0x0 DUP1 REVERT JUMPDEST DUP5 CALLDATALOAD PUSH1 0x0 SWAP1 DUP2 MSTORE PUSH1 0xC PUSH1 0x20 SWAP1 DUP2 MSTORE PUSH1 0x40 SWAP2 DUP3 SWAP1 KECCAK256 PUSH1 0x1 DUP2 ADD SLOAD SWAP1 SWAP3 PUSH1 0x1 PUSH1 0x80 SHL SWAP1 SWAP2 DIV PUSH1 0x1 PUSH1 0x1 PUSH1 0x80 SHL SUB AND SWAP2 PUSH2 0x901 SWAP2 DUP10 ADD SWAP1 DUP10 ADD PUSH2 0x4865 JUMP JUMPDEST PUSH1 0x1 PUSH1 0x1 PUSH1 0x80 SHL SUB AND DUP2 PUSH1 0x1 PUSH1 0x1 PUSH1 0x80 SHL SUB AND LT ISZERO PUSH2 0x91F JUMPI PUSH1 0x0 DUP1 REVERT JUMPDEST PUSH1 0x1 DUP3 DUP2 ADD SLOAD PUSH1 0x1 PUSH1 0x1 PUSH1 0x50 SHL SUB AND PUSH1 0x0 SWAP1 DUP2 MSTORE PUSH1 0xB PUSH1 0x20 SWAP1 DUP2 MSTORE PUSH1 0x40 DUP1 DUP4 KECCAK256 DUP2 MLOAD PUSH1 0x60 DUP2 ADD DUP4 MSTORE DUP2 SLOAD PUSH1 0x1 PUSH1 0x1 PUSH1 0xA0 SHL SUB SWAP1 DUP2 AND DUP3 MSTORE SWAP2 SWAP1 SWAP6 ADD SLOAD SWAP1 DUP2 AND SWAP3 DUP6 ADD SWAP3 SWAP1 SWAP3 MSTORE PUSH1 0x1 PUSH1 0xA0 SHL SWAP1 SWAP2 DIV PUSH3 0xFFFFFF AND SWAP1 DUP4 ADD MSTORE PUSH2 0x9A0 PUSH32 0x0 DUP4 PUSH2 0x2C79 JUMP JUMPDEST PUSH1 0x1 DUP6 ADD SLOAD SWAP1 SWAP2 POP PUSH1 0x1 PUSH1 0x1 PUSH1 0xA0 SHL SUB DUP3 AND SWAP1 PUSH4 0xA34123A7 SWAP1 PUSH1 0x1 PUSH1 0x50 SHL DUP2 DIV PUSH1 0x2 SWAP1 DUP2 SIGNEXTEND SWAP2 PUSH1 0x1 PUSH1 0x68 SHL SWAP1 DIV SWAP1 SIGNEXTEND PUSH2 0x9DF PUSH1 0x40 DUP15 ADD PUSH1 0x20 DUP16 ADD PUSH2 0x4865 JUMP JUMPDEST PUSH1 0x40 MLOAD DUP5 PUSH4 0xFFFFFFFF AND PUSH1 0xE0 SHL DUP2 MSTORE PUSH1 0x4 ADD PUSH2 0x9FD SWAP4 SWAP3 SWAP2 SWAP1 PUSH2 0x4E8A JUMP JUMPDEST PUSH1 0x40 DUP1 MLOAD DUP1 DUP4 SUB DUP2 PUSH1 0x0 DUP8 DUP1 EXTCODESIZE ISZERO DUP1 ISZERO PUSH2 0xA16 JUMPI PUSH1 0x0 DUP1 REVERT JUMPDEST POP GAS CALL ISZERO DUP1 ISZERO PUSH2 0xA2A JUMPI RETURNDATASIZE PUSH1 0x0 DUP1 RETURNDATACOPY RETURNDATASIZE PUSH1 0x0 REVERT JUMPDEST POP POP POP POP PUSH1 0x40 MLOAD RETURNDATASIZE PUSH1 0x1F NOT PUSH1 0x1F DUP3 ADD AND DUP3 ADD DUP1 PUSH1 0x40 MSTORE POP DUP2 ADD SWAP1 PUSH2 0xA4E SWAP2 SWAP1 PUSH2 0x4A0F JUMP JUMPDEST SWAP1 SWAP9 POP SWAP7 POP PUSH1 0x40 DUP10 ADD CALLDATALOAD DUP9 LT DUP1 ISZERO SWAP1 PUSH2 0xA6B JUMPI POP DUP9 PUSH1 0x60 ADD CALLDATALOAD DUP8 LT ISZERO JUMPDEST PUSH2 0xA87 JUMPI PUSH1 0x40 MLOAD PUSH3 0x461BCD PUSH1 0xE5 SHL DUP2 MSTORE PUSH1 0x4 ADD PUSH2 0x276 SWAP1 PUSH2 0x544C JUMP JUMPDEST PUSH1 0x1 DUP5 ADD SLOAD PUSH1 0x0 SWAP1 PUSH2 0xAB0 SWAP1 ADDRESS SWAP1 PUSH1 0x1 PUSH1 0x50 SHL DUP2 DIV PUSH1 0x2 SWAP1 DUP2 SIGNEXTEND SWAP2 PUSH1 0x1 PUSH1 0x68 SHL SWAP1 DIV SWAP1 SIGNEXTEND PUSH2 0x2D2A JUMP JUMPDEST SWAP1 POP PUSH1 0x0 DUP1 DUP4 PUSH1 0x1 PUSH1 0x1 PUSH1 0xA0 SHL SUB AND PUSH4 0x514EA4BF DUP5 PUSH1 0x40 MLOAD DUP3 PUSH4 0xFFFFFFFF AND PUSH1 0xE0 SHL DUP2 MSTORE PUSH1 0x4 ADD PUSH2 0xAE1 SWAP2 SWAP1 PUSH2 0x4E1E JUMP JUMPDEST PUSH1 0xA0 PUSH1 0x40 MLOAD DUP1 DUP4 SUB DUP2 DUP7 DUP1 EXTCODESIZE ISZERO DUP1 ISZERO PUSH2 0xAF9 JUMPI PUSH1 0x0 DUP1 REVERT JUMPDEST POP GAS STATICCALL ISZERO DUP1 ISZERO PUSH2 0xB0D JUMPI RETURNDATASIZE PUSH1 0x0 DUP1 RETURNDATACOPY RETURNDATASIZE PUSH1 0x0 REVERT JUMPDEST POP POP POP POP PUSH1 0x40 MLOAD RETURNDATASIZE PUSH1 0x1F NOT PUSH1 0x1F DUP3 ADD AND DUP3 ADD DUP1 PUSH1 0x40 MSTORE POP DUP2 ADD SWAP1 PUSH2 0xB31 SWAP2 SWAP1 PUSH2 0x48AF JUMP JUMPDEST POP POP SWAP3 POP SWAP3 POP POP PUSH2 0xB56 DUP8 PUSH1 0x2 ADD SLOAD DUP4 SUB DUP8 PUSH1 0x1 PUSH1 0x1 PUSH1 0x80 SHL SUB AND PUSH1 0x1 PUSH1 0x80 SHL PUSH2 0x2D61 JUMP JUMPDEST PUSH1 0x4 DUP9 ADD DUP1 SLOAD PUSH1 0x1 PUSH1 0x1 PUSH1 0x80 SHL SUB NOT DUP2 AND SWAP3 DUP15 ADD PUSH1 0x1 PUSH1 0x1 PUSH1 0x80 SHL SUB SWAP2 DUP3 AND ADD DUP2 AND SWAP3 SWAP1 SWAP3 OR SWAP1 SSTORE PUSH1 0x3 DUP9 ADD SLOAD PUSH2 0xB97 SWAP2 SWAP1 DUP4 SUB SWAP1 DUP9 AND PUSH1 0x1 PUSH1 0x80 SHL PUSH2 0x2D61 JUMP JUMPDEST PUSH1 0x4 DUP9 ADD DUP1 SLOAD PUSH1 0x1 PUSH1 0x1 PUSH1 0x80 SHL SUB DUP1 DUP3 AND SWAP4 DUP15 ADD PUSH1 0x1 PUSH1 0x80 SHL SWAP3 DUP4 SWAP1 DIV DUP3 AND ADD AND MUL SWAP2 SWAP1 SWAP2 OR SWAP1 SSTORE PUSH1 0x2 DUP8 ADD DUP3 SWAP1 SSTORE PUSH1 0x3 DUP8 ADD DUP2 SWAP1 SSTORE PUSH2 0xBDD PUSH1 0x40 DUP14 ADD PUSH1 0x20 DUP15 ADD PUSH2 0x4865 JUMP JUMPDEST DUP7 SUB DUP8 PUSH1 0x1 ADD PUSH1 0x10 PUSH2 0x100 EXP DUP2 SLOAD DUP2 PUSH1 0x1 PUSH1 0x1 PUSH1 0x80 SHL SUB MUL NOT AND SWAP1 DUP4 PUSH1 0x1 PUSH1 0x1 PUSH1 0x80 SHL SUB AND MUL OR SWAP1 SSTORE POP DUP12 PUSH1 0x0 ADD CALLDATALOAD PUSH32 0x26F6A048EE9138F2C0CE266F322CB99228E8D619AE2BFF30C67F8DCF9D2377B4 DUP14 PUSH1 0x20 ADD PUSH1 0x20 DUP2 ADD SWAP1 PUSH2 0xC40 SWAP2 SWAP1 PUSH2 0x4865 JUMP JUMPDEST DUP14 DUP14 PUSH1 0x40 MLOAD PUSH2 0xC51 SWAP4 SWAP3 SWAP2 SWAP1 PUSH2 0x55FF JUMP JUMPDEST PUSH1 0x40 MLOAD DUP1 SWAP2 SUB SWAP1 LOG2 POP POP POP POP POP POP POP POP POP SWAP2 POP SWAP2 JUMP JUMPDEST SELFBALANCE ISZERO PUSH2 0xC77 JUMPI PUSH2 0xC77 CALLER SELFBALANCE PUSH2 0x2E10 JUMP JUMPDEST JUMP JUMPDEST PUSH1 0x0 DUP4 PUSH1 0x1 PUSH1 0x1 PUSH1 0xA0 SHL SUB AND DUP6 PUSH1 0x1 PUSH1 0x1 PUSH1 0xA0 SHL SUB AND LT PUSH2 0xC99 JUMPI PUSH1 0x0 DUP1 REVERT JUMPDEST PUSH1 0x40 MLOAD PUSH4 0xB4C7741 PUSH1 0xE1 SHL DUP2 MSTORE PUSH1 0x1 PUSH1 0x1 PUSH1 0xA0 SHL SUB PUSH32 0x0 AND SWAP1 PUSH4 0x1698EE82 SWAP1 PUSH2 0xCE9 SWAP1 DUP9 SWAP1 DUP9 SWAP1 DUP9 SWAP1 PUSH1 0x4 ADD PUSH2 0x4CA5 JUMP JUMPDEST PUSH1 0x20 PUSH1 0x40 MLOAD DUP1 DUP4 SUB DUP2 DUP7 DUP1 EXTCODESIZE ISZERO DUP1 ISZERO PUSH2 0xD01 JUMPI PUSH1 0x0 DUP1 REVERT JUMPDEST POP GAS STATICCALL ISZERO DUP1 ISZERO PUSH2 0xD15 JUMPI RETURNDATASIZE PUSH1 0x0 DUP1 RETURNDATACOPY RETURNDATASIZE PUSH1 0x0 REVERT JUMPDEST POP POP POP POP PUSH1 0x40 MLOAD RETURNDATASIZE PUSH1 0x1F NOT PUSH1 0x1F DUP3 ADD AND DUP3 ADD DUP1 PUSH1 0x40 MSTORE POP DUP2 ADD SWAP1 PUSH2 0xD39 SWAP2 SWAP1 PUSH2 0x439E JUMP JUMPDEST SWAP1 POP PUSH1 0x1 PUSH1 0x1 PUSH1 0xA0 SHL SUB DUP2 AND PUSH2 0xE51 JUMPI PUSH1 0x40 MLOAD PUSH4 0xA1671295 PUSH1 0xE0 SHL DUP2 MSTORE PUSH1 0x1 PUSH1 0x1 PUSH1 0xA0 SHL SUB PUSH32 0x0 AND SWAP1 PUSH4 0xA1671295 SWAP1 PUSH2 0xD99 SWAP1 DUP9 SWAP1 DUP9 SWAP1 DUP9 SWAP1 PUSH1 0x4 ADD PUSH2 0x4CA5 JUMP JUMPDEST PUSH1 0x20 PUSH1 0x40 MLOAD DUP1 DUP4 SUB DUP2 PUSH1 0x0 DUP8 DUP1 EXTCODESIZE ISZERO DUP1 ISZERO PUSH2 0xDB3 JUMPI PUSH1 0x0 DUP1 REVERT JUMPDEST POP GAS CALL ISZERO DUP1 ISZERO PUSH2 0xDC7 JUMPI RETURNDATASIZE PUSH1 0x0 DUP1 RETURNDATACOPY RETURNDATASIZE PUSH1 0x0 REVERT JUMPDEST POP POP POP POP PUSH1 0x40 MLOAD RETURNDATASIZE PUSH1 0x1F NOT PUSH1 0x1F DUP3 ADD AND DUP3 ADD DUP1 PUSH1 0x40 MSTORE POP DUP2 ADD SWAP1 PUSH2 0xDEB SWAP2 SWAP1 PUSH2 0x439E JUMP JUMPDEST PUSH1 0x40 MLOAD PUSH4 0xF637731D PUSH1 0xE0 SHL DUP2 MSTORE SWAP1 SWAP2 POP PUSH1 0x1 PUSH1 0x1 PUSH1 0xA0 SHL SUB DUP3 AND SWAP1 PUSH4 0xF637731D SWAP1 PUSH2 0xE1A SWAP1 DUP6 SWAP1 PUSH1 0x4 ADD PUSH2 0x4BBA JUMP JUMPDEST PUSH1 0x0 PUSH1 0x40 MLOAD DUP1 DUP4 SUB DUP2 PUSH1 0x0 DUP8 DUP1 EXTCODESIZE ISZERO DUP1 ISZERO PUSH2 0xE34 JUMPI PUSH1 0x0 DUP1 REVERT JUMPDEST POP GAS CALL ISZERO DUP1 ISZERO PUSH2 0xE48 JUMPI RETURNDATASIZE PUSH1 0x0 DUP1 RETURNDATACOPY RETURNDATASIZE PUSH1 0x0 REVERT JUMPDEST POP POP POP POP PUSH2 0xF3F JUMP JUMPDEST PUSH1 0x0 DUP2 PUSH1 0x1 PUSH1 0x1 PUSH1 0xA0 SHL SUB AND PUSH4 0x3850C7BD PUSH1 0x40 MLOAD DUP2 PUSH4 0xFFFFFFFF AND PUSH1 0xE0 SHL DUP2 MSTORE PUSH1 0x4 ADD PUSH1 0xE0 PUSH1 0x40 MLOAD DUP1 DUP4 SUB DUP2 DUP7 DUP1 EXTCODESIZE ISZERO DUP1 ISZERO PUSH2 0xE8C JUMPI PUSH1 0x0 DUP1 REVERT JUMPDEST POP GAS STATICCALL ISZERO DUP1 ISZERO PUSH2 0xEA0 JUMPI RETURNDATASIZE PUSH1 0x0 DUP1 RETURNDATACOPY RETURNDATASIZE PUSH1 0x0 REVERT JUMPDEST POP POP POP POP PUSH1 0x40 MLOAD RETURNDATASIZE PUSH1 0x1F NOT PUSH1 0x1F DUP3 ADD AND DUP3 ADD DUP1 PUSH1 0x40 MSTORE POP DUP2 ADD SWAP1 PUSH2 0xEC4 SWAP2 SWAP1 PUSH2 0x4910 JUMP JUMPDEST POP POP POP POP POP POP SWAP1 POP DUP1 PUSH1 0x1 PUSH1 0x1 PUSH1 0xA0 SHL SUB AND PUSH1 0x0 EQ ISZERO PUSH2 0xF3D JUMPI PUSH1 0x40 MLOAD PUSH4 0xF637731D PUSH1 0xE0 SHL DUP2 MSTORE PUSH1 0x1 PUSH1 0x1 PUSH1 0xA0 SHL SUB DUP4 AND SWAP1 PUSH4 0xF637731D SWAP1 PUSH2 0xF0A SWAP1 DUP7 SWAP1 PUSH1 0x4 ADD PUSH2 0x4BBA JUMP JUMPDEST PUSH1 0x0 PUSH1 0x40 MLOAD DUP1 DUP4 SUB DUP2 PUSH1 0x0 DUP8 DUP1 EXTCODESIZE ISZERO DUP1 ISZERO PUSH2 0xF24 JUMPI PUSH1 0x0 DUP1 REVERT JUMPDEST POP GAS CALL ISZERO DUP1 ISZERO PUSH2 0xF38 JUMPI RETURNDATASIZE PUSH1 0x0 DUP1 RETURNDATACOPY RETURNDATASIZE PUSH1 0x0 REVERT JUMPDEST POP POP POP POP JUMPDEST POP JUMPDEST SWAP5 SWAP4 POP POP POP POP JUMP JUMPDEST PUSH1 0x0 PUSH2 0xF53 PUSH1 0x2 PUSH2 0x2E9D JUMP JUMPDEST SWAP1 POP SWAP1 JUMP JUMPDEST PUSH1 0x0 DUP1 PUSH1 0x0 DUP4 PUSH1 0xA0 ADD CALLDATALOAD DUP1 PUSH2 0xF6B PUSH2 0x2C75 JUMP JUMPDEST GT ISZERO PUSH2 0xF89 JUMPI PUSH1 0x40 MLOAD PUSH3 0x461BCD PUSH1 0xE5 SHL DUP2 MSTORE PUSH1 0x4 ADD PUSH2 0x276 SWAP1 PUSH2 0x54E5 JUMP JUMPDEST DUP5 CALLDATALOAD PUSH1 0x0 SWAP1 DUP2 MSTORE PUSH1 0xC PUSH1 0x20 SWAP1 DUP2 MSTORE PUSH1 0x40 DUP1 DUP4 KECCAK256 PUSH1 0x1 DUP1 DUP3 ADD SLOAD PUSH1 0x1 PUSH1 0x1 PUSH1 0x50 SHL SUB DUP2 AND DUP7 MSTORE PUSH1 0xB DUP6 MSTORE DUP4 DUP7 KECCAK256 DUP5 MLOAD PUSH1 0x60 DUP1 DUP3 ADD DUP8 MSTORE DUP3 SLOAD PUSH1 0x1 PUSH1 0x1 PUSH1 0xA0 SHL SUB SWAP1 DUP2 AND DUP4 MSTORE SWAP3 SWAP1 SWAP5 ADD SLOAD DUP1 DUP4 AND DUP3 DUP10 ADD SWAP1 DUP2 MSTORE PUSH3 0xFFFFFF PUSH1 0x1 PUSH1 0xA0 SHL SWAP1 SWAP3 DIV DUP3 AND DUP4 DUP10 ADD SWAP1 DUP2 MSTORE DUP9 MLOAD PUSH2 0x140 DUP2 ADD DUP11 MSTORE DUP5 MLOAD DUP7 AND DUP2 MSTORE SWAP2 MLOAD SWAP1 SWAP5 AND DUP2 DUP11 ADD MSTORE SWAP3 MLOAD AND DUP3 DUP8 ADD MSTORE ADDRESS DUP3 DUP6 ADD MSTORE PUSH1 0x1 PUSH1 0x50 SHL DUP4 DIV PUSH1 0x2 SWAP1 DUP2 SIGNEXTEND DUP2 SIGNEXTEND PUSH1 0x80 DUP1 DUP6 ADD SWAP2 SWAP1 SWAP2 MSTORE PUSH1 0x1 PUSH1 0x68 SHL SWAP1 SWAP5 DIV DUP2 SIGNEXTEND SWAP1 SIGNEXTEND PUSH1 0xA0 DUP4 ADD MSTORE SWAP6 DUP13 ADD CALLDATALOAD PUSH1 0xC0 DUP3 ADD MSTORE SWAP4 DUP12 ADD CALLDATALOAD PUSH1 0xE0 DUP6 ADD MSTORE SWAP1 DUP11 ADD CALLDATALOAD PUSH2 0x100 DUP5 ADD MSTORE DUP10 ADD CALLDATALOAD PUSH2 0x120 DUP4 ADD MSTORE SWAP3 SWAP1 PUSH2 0x106B SWAP1 PUSH2 0x2EA8 JUMP JUMPDEST PUSH1 0x1 DUP8 ADD SLOAD SWAP4 SWAP11 POP SWAP2 SWAP9 POP SWAP7 POP SWAP2 POP PUSH1 0x0 SWAP1 PUSH2 0x109E SWAP1 ADDRESS SWAP1 PUSH1 0x1 PUSH1 0x50 SHL DUP2 DIV PUSH1 0x2 SWAP1 DUP2 SIGNEXTEND SWAP2 PUSH1 0x1 PUSH1 0x68 SHL SWAP1 DIV SWAP1 SIGNEXTEND PUSH2 0x2D2A JUMP JUMPDEST SWAP1 POP PUSH1 0x0 DUP1 DUP4 PUSH1 0x1 PUSH1 0x1 PUSH1 0xA0 SHL SUB AND PUSH4 0x514EA4BF DUP5 PUSH1 0x40 MLOAD DUP3 PUSH4 0xFFFFFFFF AND PUSH1 0xE0 SHL DUP2 MSTORE PUSH1 0x4 ADD PUSH2 0x10CF SWAP2 SWAP1 PUSH2 0x4E1E JUMP JUMPDEST PUSH1 0xA0 PUSH1 0x40 MLOAD DUP1 DUP4 SUB DUP2 DUP7 DUP1 EXTCODESIZE ISZERO DUP1 ISZERO PUSH2 0x10E7 JUMPI PUSH1 0x0 DUP1 REVERT JUMPDEST POP GAS STATICCALL ISZERO DUP1 ISZERO PUSH2 0x10FB JUMPI RETURNDATASIZE PUSH1 0x0 DUP1 RETURNDATACOPY RETURNDATASIZE PUSH1 0x0 REVERT JUMPDEST POP POP POP POP PUSH1 0x40 MLOAD RETURNDATASIZE PUSH1 0x1F NOT PUSH1 0x1F DUP3 ADD AND DUP3 ADD DUP1 PUSH1 0x40 MSTORE POP DUP2 ADD SWAP1 PUSH2 0x111F SWAP2 SWAP1 PUSH2 0x48AF JUMP JUMPDEST POP POP SWAP3 POP SWAP3 POP POP PUSH2 0x115B DUP7 PUSH1 0x2 ADD SLOAD DUP4 SUB DUP8 PUSH1 0x1 ADD PUSH1 0x10 SWAP1 SLOAD SWAP1 PUSH2 0x100 EXP SWAP1 DIV PUSH1 0x1 PUSH1 0x1 PUSH1 0x80 SHL SUB AND PUSH1 0x1 PUSH1 0x1 PUSH1 0x80 SHL SUB AND PUSH1 0x1 PUSH1 0x80 SHL PUSH2 0x2D61 JUMP JUMPDEST PUSH1 0x4 DUP8 ADD DUP1 SLOAD PUSH1 0x1 PUSH1 0x1 PUSH1 0x80 SHL SUB DUP1 DUP3 AND SWAP1 SWAP4 ADD DUP4 AND PUSH1 0x1 PUSH1 0x1 PUSH1 0x80 SHL SUB NOT SWAP1 SWAP2 AND OR SWAP1 SSTORE PUSH1 0x3 DUP8 ADD SLOAD PUSH1 0x1 DUP9 ADD SLOAD PUSH2 0x11A2 SWAP3 SWAP2 DUP5 SUB SWAP2 PUSH1 0x1 PUSH1 0x80 SHL SWAP2 DUP3 SWAP1 DIV AND SWAP1 PUSH2 0x2D61 JUMP JUMPDEST PUSH1 0x4 DUP8 ADD DUP1 SLOAD PUSH1 0x1 PUSH1 0x1 PUSH1 0x80 SHL SUB PUSH1 0x1 PUSH1 0x80 SHL DUP1 DUP4 DIV DUP3 AND SWAP1 SWAP5 ADD DUP2 AND DUP5 MUL SWAP2 DUP2 AND SWAP2 SWAP1 SWAP2 OR SWAP1 SWAP2 SSTORE PUSH1 0x2 DUP9 ADD DUP5 SWAP1 SSTORE PUSH1 0x3 DUP9 ADD DUP4 SWAP1 SSTORE PUSH1 0x1 DUP9 ADD DUP1 SLOAD DUP4 DUP2 DIV DUP4 AND DUP15 ADD DUP4 AND SWAP1 SWAP4 MUL SWAP3 SWAP1 SWAP2 AND SWAP2 SWAP1 SWAP2 OR SWAP1 SSTORE PUSH1 0x40 MLOAD DUP12 CALLDATALOAD SWAP1 PUSH32 0x3067048BEEE31B25B2F1681F88DAC838C8BBA36AF25BFB2B7CF7473A5847E35F SWAP1 PUSH2 0x122C SWAP1 DUP14 SWAP1 DUP14 SWAP1 DUP14 SWAP1 PUSH2 0x55FF JUMP JUMPDEST PUSH1 0x40 MLOAD DUP1 SWAP2 SUB SWAP1 LOG2 POP POP POP POP POP POP POP SWAP2 SWAP4 SWAP1 SWAP3 POP JUMP JUMPDEST PUSH2 0x1253 PUSH2 0x124D PUSH2 0x2B7E JUMP JUMPDEST DUP3 PUSH2 0x2BF8 JUMP JUMPDEST PUSH2 0x126F JUMPI PUSH1 0x40 MLOAD PUSH3 0x461BCD PUSH1 0xE5 SHL DUP2 MSTORE PUSH1 0x4 ADD PUSH2 0x276 SWAP1 PUSH2 0x5512 JUMP JUMPDEST PUSH2 0x845 DUP4 DUP4 DUP4 PUSH2 0x30E3 JUMP JUMPDEST PUSH1 0x1 PUSH1 0x1 PUSH1 0xA0 SHL SUB DUP3 AND PUSH1 0x0 SWAP1 DUP2 MSTORE PUSH1 0x1 PUSH1 0x20 MSTORE PUSH1 0x40 DUP2 KECCAK256 PUSH2 0x129C SWAP1 DUP4 PUSH2 0x31F1 JUMP JUMPDEST SWAP1 POP JUMPDEST SWAP3 SWAP2 POP POP JUMP JUMPDEST PUSH32 0x49ECF333E5B8C95C40FDAFC95C1AD136E8914A8FB55E9DC8BB01EAA83A2DF9AD DUP2 JUMP JUMPDEST PUSH1 0x0 PUSH32 0x8B73C3C69BB8FE3D512ECC4CF759CC79239F7B179B0FFACAA9A75D522B39400F PUSH32 0x0 PUSH32 0x0 PUSH2 0x1336 PUSH2 0x31FD JUMP JUMPDEST ADDRESS PUSH1 0x40 MLOAD PUSH1 0x20 ADD PUSH2 0x134B SWAP6 SWAP5 SWAP4 SWAP3 SWAP2 SWAP1 PUSH2 0x4EB0 JUMP JUMPDEST PUSH1 0x40 MLOAD PUSH1 0x20 DUP2 DUP4 SUB SUB DUP2 MSTORE SWAP1 PUSH1 0x40 MSTORE DUP1 MLOAD SWAP1 PUSH1 0x20 ADD KECCAK256 SWAP1 POP SWAP1 JUMP JUMPDEST PUSH2 0x845 DUP4 DUP4 DUP4 PUSH1 0x40 MLOAD DUP1 PUSH1 0x20 ADD PUSH1 0x40 MSTORE DUP1 PUSH1 0x0 DUP2 MSTORE POP PUSH2 0x2363 JUMP JUMPDEST DUP1 PUSH2 0x138C CALLER DUP3 PUSH2 0x2BF8 JUMP JUMPDEST PUSH2 0x13A8 JUMPI PUSH1 0x40 MLOAD PUSH3 0x461BCD PUSH1 0xE5 SHL DUP2 MSTORE PUSH1 0x4 ADD PUSH2 0x276 SWAP1 PUSH2 0x5259 JUMP JUMPDEST PUSH1 0x0 DUP3 DUP2 MSTORE PUSH1 0xC PUSH1 0x20 MSTORE PUSH1 0x40 SWAP1 KECCAK256 PUSH1 0x1 DUP2 ADD SLOAD PUSH1 0x1 PUSH1 0x80 SHL SWAP1 DIV PUSH1 0x1 PUSH1 0x1 PUSH1 0x80 SHL SUB AND ISZERO DUP1 ISZERO PUSH2 0x13E3 JUMPI POP PUSH1 0x4 DUP2 ADD SLOAD PUSH1 0x1 PUSH1 0x1 PUSH1 0x80 SHL SUB AND ISZERO JUMPDEST DUP1 ISZERO PUSH2 0x1401 JUMPI POP PUSH1 0x4 DUP2 ADD SLOAD PUSH1 0x1 PUSH1 0x80 SHL SWAP1 DIV PUSH1 0x1 PUSH1 0x1 PUSH1 0x80 SHL SUB AND ISZERO JUMPDEST PUSH2 0x141D JUMPI PUSH1 0x40 MLOAD PUSH3 0x461BCD PUSH1 0xE5 SHL DUP2 MSTORE PUSH1 0x4 ADD PUSH2 0x276 SWAP1 PUSH2 0x559A JUMP JUMPDEST PUSH1 0x0 DUP4 DUP2 MSTORE PUSH1 0xC PUSH1 0x20 MSTORE PUSH1 0x40 DUP2 KECCAK256 DUP2 DUP2 SSTORE PUSH1 0x1 DUP2 ADD DUP3 SWAP1 SSTORE PUSH1 0x2 DUP2 ADD DUP3 SWAP1 SSTORE PUSH1 0x3 DUP2 ADD DUP3 SWAP1 SSTORE PUSH1 0x4 ADD SSTORE PUSH2 0x845 DUP4 PUSH2 0x3201 JUMP JUMPDEST PUSH1 0x40 MLOAD PUSH4 0x23F2EBC3 PUSH1 0xE2 SHL DUP2 MSTORE PUSH1 0x1 PUSH1 0x1 PUSH1 0xA0 SHL SUB DUP8 AND SWAP1 PUSH4 0x8FCBAF0C SWAP1 PUSH2 0x148B SWAP1 CALLER SWAP1 ADDRESS SWAP1 DUP11 SWAP1 DUP11 SWAP1 PUSH1 0x1 SWAP1 DUP12 SWAP1 DUP12 SWAP1 DUP12 SWAP1 PUSH1 0x4 ADD PUSH2 0x4C1B JUMP JUMPDEST PUSH1 0x0 PUSH1 0x40 MLOAD DUP1 DUP4 SUB DUP2 PUSH1 0x0 DUP8 DUP1 EXTCODESIZE ISZERO DUP1 ISZERO PUSH2 0x14A5 JUMPI PUSH1 0x0 DUP1 REVERT JUMPDEST POP GAS CALL ISZERO DUP1 ISZERO PUSH2 0x14B9 JUMPI RETURNDATASIZE PUSH1 0x0 DUP1 RETURNDATACOPY RETURNDATASIZE PUSH1 0x0 REVERT JUMPDEST POP POP POP POP POP POP POP POP POP POP JUMP JUMPDEST PUSH1 0x40 MLOAD PUSH4 0x70A08231 PUSH1 0xE0 SHL DUP2 MSTORE PUSH1 0x0 SWAP1 PUSH1 0x1 PUSH1 0x1 PUSH1 0xA0 SHL SUB PUSH32 0x0 AND SWAP1 PUSH4 0x70A08231 SWAP1 PUSH2 0x1514 SWAP1 ADDRESS SWAP1 PUSH1 0x4 ADD PUSH2 0x4BBA JUMP JUMPDEST PUSH1 0x20 PUSH1 0x40 MLOAD DUP1 DUP4 SUB DUP2 DUP7 DUP1 EXTCODESIZE ISZERO DUP1 ISZERO PUSH2 0x152C JUMPI PUSH1 0x0 DUP1 REVERT JUMPDEST POP GAS STATICCALL ISZERO DUP1 ISZERO PUSH2 0x1540 JUMPI RETURNDATASIZE PUSH1 0x0 DUP1 RETURNDATACOPY RETURNDATASIZE PUSH1 0x0 REVERT JUMPDEST POP POP POP POP PUSH1 0x40 MLOAD RETURNDATASIZE PUSH1 0x1F NOT PUSH1 0x1F DUP3 ADD AND DUP3 ADD DUP1 PUSH1 0x40 MSTORE POP DUP2 ADD SWAP1 PUSH2 0x1564 SWAP2 SWAP1 PUSH2 0x49D3 JUMP JUMPDEST SWAP1 POP DUP3 DUP2 LT ISZERO PUSH2 0x1586 JUMPI PUSH1 0x40 MLOAD PUSH3 0x461BCD PUSH1 0xE5 SHL DUP2 MSTORE PUSH1 0x4 ADD PUSH2 0x276 SWAP1 PUSH2 0x4EEF JUMP JUMPDEST DUP1 ISZERO PUSH2 0x845 JUMPI PUSH1 0x40 MLOAD PUSH4 0x2E1A7D4D PUSH1 0xE0 SHL DUP2 MSTORE PUSH1 0x1 PUSH1 0x1 PUSH1 0xA0 SHL SUB PUSH32 0x0 AND SWAP1 PUSH4 0x2E1A7D4D SWAP1 PUSH2 0x15D8 SWAP1 DUP5 SWAP1 PUSH1 0x4 ADD PUSH2 0x4E1E JUMP JUMPDEST PUSH1 0x0 PUSH1 0x40 MLOAD DUP1 DUP4 SUB DUP2 PUSH1 0x0 DUP8 DUP1 EXTCODESIZE ISZERO DUP1 ISZERO PUSH2 0x15F2 JUMPI PUSH1 0x0 DUP1 REVERT JUMPDEST POP GAS CALL ISZERO DUP1 ISZERO PUSH2 0x1606 JUMPI RETURNDATASIZE PUSH1 0x0 DUP1 RETURNDATACOPY RETURNDATASIZE PUSH1 0x0 REVERT JUMPDEST POP POP POP POP PUSH2 0x845 DUP3 DUP3 PUSH2 0x2E10 JUMP JUMPDEST PUSH32 0x0 DUP2 JUMP JUMPDEST PUSH1 0x0 DUP1 PUSH2 0x1646 PUSH1 0x2 DUP5 PUSH2 0x32CE JUMP JUMPDEST POP SWAP4 SWAP3 POP POP POP JUMP JUMPDEST PUSH1 0x0 PUSH2 0x129F DUP3 PUSH1 0x40 MLOAD DUP1 PUSH1 0x60 ADD PUSH1 0x40 MSTORE DUP1 PUSH1 0x29 DUP2 MSTORE PUSH1 0x20 ADD PUSH2 0x5842 PUSH1 0x29 SWAP2 CODECOPY PUSH1 0x2 SWAP2 SWAP1 PUSH2 0x32EC JUMP JUMPDEST PUSH1 0x60 SWAP1 JUMP JUMPDEST PUSH1 0x0 PUSH1 0x1 PUSH1 0x1 PUSH1 0xA0 SHL SUB DUP3 AND PUSH2 0x16A3 JUMPI PUSH1 0x40 MLOAD PUSH3 0x461BCD PUSH1 0xE5 SHL DUP2 MSTORE PUSH1 0x4 ADD PUSH2 0x276 SWAP1 PUSH2 0x527F JUMP JUMPDEST PUSH1 0x1 PUSH1 0x1 PUSH1 0xA0 SHL SUB DUP3 AND PUSH1 0x0 SWAP1 DUP2 MSTORE PUSH1 0x1 PUSH1 0x20 MSTORE PUSH1 0x40 SWAP1 KECCAK256 PUSH2 0x129F SWAP1 PUSH2 0x2E9D JUMP JUMPDEST DUP4 PUSH2 0x16CD PUSH2 0x2C75 JUMP JUMPDEST GT ISZERO PUSH2 0x16EB JUMPI PUSH1 0x40 MLOAD PUSH3 0x461BCD PUSH1 0xE5 SHL DUP2 MSTORE PUSH1 0x4 ADD PUSH2 0x276 SWAP1 PUSH2 0x5142 JUMP JUMPDEST PUSH1 0x0 PUSH2 0x16F5 PUSH2 0x12C9 JUMP JUMPDEST PUSH32 0x49ECF333E5B8C95C40FDAFC95C1AD136E8914A8FB55E9DC8BB01EAA83A2DF9AD DUP9 DUP9 PUSH2 0x1721 DUP2 PUSH2 0x32F9 JUMP JUMPDEST DUP10 PUSH1 0x40 MLOAD PUSH1 0x20 ADD PUSH2 0x1736 SWAP6 SWAP5 SWAP4 SWAP3 SWAP2 SWAP1 PUSH2 0x4E27 JUMP JUMPDEST PUSH1 0x40 MLOAD PUSH1 0x20 DUP2 DUP4 SUB SUB DUP2 MSTORE SWAP1 PUSH1 0x40 MSTORE DUP1 MLOAD SWAP1 PUSH1 0x20 ADD KECCAK256 PUSH1 0x40 MLOAD PUSH1 0x20 ADD PUSH2 0x175D SWAP3 SWAP2 SWAP1 PUSH2 0x4B6C JUMP JUMPDEST PUSH1 0x40 MLOAD PUSH1 0x20 DUP2 DUP4 SUB SUB DUP2 MSTORE SWAP1 PUSH1 0x40 MSTORE DUP1 MLOAD SWAP1 PUSH1 0x20 ADD KECCAK256 SWAP1 POP PUSH1 0x0 PUSH2 0x1780 DUP8 PUSH2 0x164E JUMP JUMPDEST SWAP1 POP DUP1 PUSH1 0x1 PUSH1 0x1 PUSH1 0xA0 SHL SUB AND DUP9 PUSH1 0x1 PUSH1 0x1 PUSH1 0xA0 SHL SUB AND EQ ISZERO PUSH2 0x17B4 JUMPI PUSH1 0x40 MLOAD PUSH3 0x461BCD PUSH1 0xE5 SHL DUP2 MSTORE PUSH1 0x4 ADD PUSH2 0x276 SWAP1 PUSH2 0x5038 JUMP JUMPDEST PUSH2 0x17BD DUP2 PUSH2 0x332E JUMP JUMPDEST ISZERO PUSH2 0x1897 JUMPI DUP1 PUSH1 0x1 PUSH1 0x1 PUSH1 0xA0 SHL SUB AND PUSH4 0x1626BA7E DUP4 DUP7 DUP7 DUP10 PUSH1 0x40 MLOAD PUSH1 0x20 ADD PUSH2 0x17E7 SWAP4 SWAP3 SWAP2 SWAP1 PUSH2 0x4B1D JUMP JUMPDEST PUSH1 0x40 MLOAD PUSH1 0x20 DUP2 DUP4 SUB SUB DUP2 MSTORE SWAP1 PUSH1 0x40 MSTORE PUSH1 0x40 MLOAD DUP4 PUSH4 0xFFFFFFFF AND PUSH1 0xE0 SHL DUP2 MSTORE PUSH1 0x4 ADD PUSH2 0x1813 SWAP3 SWAP2 SWAP1 PUSH2 0x4E53 JUMP JUMPDEST PUSH1 0x20 PUSH1 0x40 MLOAD DUP1 DUP4 SUB DUP2 DUP7 DUP1 EXTCODESIZE ISZERO DUP1 ISZERO PUSH2 0x182B JUMPI PUSH1 0x0 DUP1 REVERT JUMPDEST POP GAS STATICCALL ISZERO DUP1 ISZERO PUSH2 0x183F JUMPI RETURNDATASIZE PUSH1 0x0 DUP1 RETURNDATACOPY RETURNDATASIZE PUSH1 0x0 REVERT JUMPDEST POP POP POP POP PUSH1 0x40 MLOAD RETURNDATASIZE PUSH1 0x1F NOT PUSH1 0x1F DUP3 ADD AND DUP3 ADD DUP1 PUSH1 0x40 MSTORE POP DUP2 ADD SWAP1 PUSH2 0x1863 SWAP2 SWAP1 PUSH2 0x46CD JUMP JUMPDEST PUSH1 0x1 PUSH1 0x1 PUSH1 0xE0 SHL SUB NOT AND PUSH4 0x1626BA7E PUSH1 0xE0 SHL EQ PUSH2 0x1892 JUMPI PUSH1 0x40 MLOAD PUSH3 0x461BCD PUSH1 0xE5 SHL DUP2 MSTORE PUSH1 0x4 ADD PUSH2 0x276 SWAP1 PUSH2 0x4F5D JUMP JUMPDEST PUSH2 0x1944 JUMP JUMPDEST PUSH1 0x0 PUSH1 0x1 DUP4 DUP8 DUP8 DUP8 PUSH1 0x40 MLOAD PUSH1 0x0 DUP2 MSTORE PUSH1 0x20 ADD PUSH1 0x40 MSTORE PUSH1 0x40 MLOAD PUSH2 0x18BC SWAP5 SWAP4 SWAP3 SWAP2 SWAP1 PUSH2 0x4E6C JUMP JUMPDEST PUSH1 0x20 PUSH1 0x40 MLOAD PUSH1 0x20 DUP2 SUB SWAP1 DUP1 DUP5 SUB SWAP1 DUP6 GAS STATICCALL ISZERO DUP1 ISZERO PUSH2 0x18DE JUMPI RETURNDATASIZE PUSH1 0x0 DUP1 RETURNDATACOPY RETURNDATASIZE PUSH1 0x0 REVERT JUMPDEST POP POP PUSH1 0x40 MLOAD PUSH1 0x1F NOT ADD MLOAD SWAP2 POP POP PUSH1 0x1 PUSH1 0x1 PUSH1 0xA0 SHL SUB DUP2 AND PUSH2 0x1911 JUMPI PUSH1 0x40 MLOAD PUSH3 0x461BCD PUSH1 0xE5 SHL DUP2 MSTORE PUSH1 0x4 ADD PUSH2 0x276 SWAP1 PUSH2 0x5117 JUMP JUMPDEST DUP2 PUSH1 0x1 PUSH1 0x1 PUSH1 0xA0 SHL SUB AND DUP2 PUSH1 0x1 PUSH1 0x1 PUSH1 0xA0 SHL SUB AND EQ PUSH2 0x1942 JUMPI PUSH1 0x40 MLOAD PUSH3 0x461BCD PUSH1 0xE5 SHL DUP2 MSTORE PUSH1 0x4 ADD PUSH2 0x276 SWAP1 PUSH2 0x4F5D JUMP JUMPDEST POP JUMPDEST PUSH2 0x194E DUP9 DUP9 PUSH2 0x2B82 JUMP JUMPDEST POP POP POP POP POP POP POP POP JUMP JUMPDEST PUSH1 0x0 DUP1 PUSH1 0x0 DUP1 DUP5 PUSH2 0x140 ADD CALLDATALOAD DUP1 PUSH2 0x196D PUSH2 0x2C75 JUMP JUMPDEST GT ISZERO PUSH2 0x198B JUMPI PUSH1 0x40 MLOAD PUSH3 0x461BCD PUSH1 0xE5 SHL DUP2 MSTORE PUSH1 0x4 ADD PUSH2 0x276 SWAP1 PUSH2 0x54E5 JUMP JUMPDEST PUSH1 0x40 DUP1 MLOAD PUSH2 0x140 DUP2 ADD SWAP1 SWAP2 MSTORE PUSH1 0x0 SWAP1 PUSH2 0x1A57 SWAP1 DUP1 PUSH2 0x19AC PUSH1 0x20 DUP12 ADD DUP12 PUSH2 0x4382 JUMP JUMPDEST PUSH1 0x1 PUSH1 0x1 PUSH1 0xA0 SHL SUB AND DUP2 MSTORE PUSH1 0x20 ADD DUP10 PUSH1 0x20 ADD PUSH1 0x20 DUP2 ADD SWAP1 PUSH2 0x19CD SWAP2 SWAP1 PUSH2 0x4382 JUMP JUMPDEST PUSH1 0x1 PUSH1 0x1 PUSH1 0xA0 SHL SUB AND DUP2 MSTORE PUSH1 0x20 ADD PUSH2 0x19EB PUSH1 0x60 DUP12 ADD PUSH1 0x40 DUP13 ADD PUSH2 0x49A1 JUMP JUMPDEST PUSH3 0xFFFFFF AND DUP2 MSTORE ADDRESS PUSH1 0x20 DUP3 ADD MSTORE PUSH1 0x40 ADD PUSH2 0x1A0B PUSH1 0x80 DUP12 ADD PUSH1 0x60 DUP13 ADD PUSH2 0x46E9 JUMP JUMPDEST PUSH1 0x2 SIGNEXTEND DUP2 MSTORE PUSH1 0x20 ADD PUSH2 0x1A23 PUSH1 0xA0 DUP12 ADD PUSH1 0x80 DUP13 ADD PUSH2 0x46E9 JUMP JUMPDEST PUSH1 0x2 SIGNEXTEND DUP2 MSTORE PUSH1 0x20 ADD DUP10 PUSH1 0xA0 ADD CALLDATALOAD DUP2 MSTORE PUSH1 0x20 ADD DUP10 PUSH1 0xC0 ADD CALLDATALOAD DUP2 MSTORE PUSH1 0x20 ADD DUP10 PUSH1 0xE0 ADD CALLDATALOAD DUP2 MSTORE PUSH1 0x20 ADD DUP10 PUSH2 0x100 ADD CALLDATALOAD DUP2 MSTORE POP PUSH2 0x2EA8 JUMP JUMPDEST SWAP3 SWAP8 POP SWAP1 SWAP6 POP SWAP4 POP SWAP1 POP PUSH2 0x1AA4 PUSH2 0x1A76 PUSH2 0x140 DUP10 ADD PUSH2 0x120 DUP11 ADD PUSH2 0x4382 JUMP JUMPDEST PUSH1 0xD DUP1 SLOAD PUSH1 0x1 PUSH1 0x1 PUSH1 0xB0 SHL SUB NOT DUP2 AND PUSH1 0x1 PUSH1 0x1 PUSH1 0x1 PUSH1 0xB0 SHL SUB SWAP3 DUP4 AND SWAP1 DUP2 ADD SWAP1 SWAP3 AND OR SWAP1 SWAP2 SSTORE SWAP8 POP DUP8 PUSH2 0x3334 JUMP JUMPDEST PUSH1 0x0 PUSH2 0x1ACF ADDRESS PUSH2 0x1ABA PUSH1 0x80 DUP12 ADD PUSH1 0x60 DUP13 ADD PUSH2 0x46E9 JUMP JUMPDEST PUSH2 0x1ACA PUSH1 0xA0 DUP13 ADD PUSH1 0x80 DUP14 ADD PUSH2 0x46E9 JUMP JUMPDEST PUSH2 0x2D2A JUMP JUMPDEST SWAP1 POP PUSH1 0x0 DUP1 DUP4 PUSH1 0x1 PUSH1 0x1 PUSH1 0xA0 SHL SUB AND PUSH4 0x514EA4BF DUP5 PUSH1 0x40 MLOAD DUP3 PUSH4 0xFFFFFFFF AND PUSH1 0xE0 SHL DUP2 MSTORE PUSH1 0x4 ADD PUSH2 0x1B00 SWAP2 SWAP1 PUSH2 0x4E1E JUMP JUMPDEST PUSH1 0xA0 PUSH1 0x40 MLOAD DUP1 DUP4 SUB DUP2 DUP7 DUP1 EXTCODESIZE ISZERO DUP1 ISZERO PUSH2 0x1B18 JUMPI PUSH1 0x0 DUP1 REVERT JUMPDEST POP GAS STATICCALL ISZERO DUP1 ISZERO PUSH2 0x1B2C JUMPI RETURNDATASIZE PUSH1 0x0 DUP1 RETURNDATACOPY RETURNDATASIZE PUSH1 0x0 REVERT JUMPDEST POP POP POP POP PUSH1 0x40 MLOAD RETURNDATASIZE PUSH1 0x1F NOT PUSH1 0x1F DUP3 ADD AND DUP3 ADD DUP1 PUSH1 0x40 MSTORE POP DUP2 ADD SWAP1 PUSH2 0x1B50 SWAP2 SWAP1 PUSH2 0x48AF JUMP JUMPDEST POP POP SWAP3 POP SWAP3 POP POP PUSH1 0x0 PUSH2 0x1BC9 DUP6 PUSH1 0x40 MLOAD DUP1 PUSH1 0x60 ADD PUSH1 0x40 MSTORE DUP1 DUP15 PUSH1 0x0 ADD PUSH1 0x20 DUP2 ADD SWAP1 PUSH2 0x1B7B SWAP2 SWAP1 PUSH2 0x4382 JUMP JUMPDEST PUSH1 0x1 PUSH1 0x1 PUSH1 0xA0 SHL SUB AND DUP2 MSTORE PUSH1 0x20 ADD DUP15 PUSH1 0x20 ADD PUSH1 0x20 DUP2 ADD SWAP1 PUSH2 0x1B9C SWAP2 SWAP1 PUSH2 0x4382 JUMP JUMPDEST PUSH1 0x1 PUSH1 0x1 PUSH1 0xA0 SHL SUB AND DUP2 MSTORE PUSH1 0x20 ADD DUP15 PUSH1 0x40 ADD PUSH1 0x20 DUP2 ADD SWAP1 PUSH2 0x1BBD SWAP2 SWAP1 PUSH2 0x49A1 JUMP JUMPDEST PUSH3 0xFFFFFF AND SWAP1 MSTORE PUSH2 0x33F8 JUMP JUMPDEST SWAP1 POP PUSH1 0x40 MLOAD DUP1 PUSH2 0x140 ADD PUSH1 0x40 MSTORE DUP1 PUSH1 0x0 PUSH1 0x1 PUSH1 0x1 PUSH1 0x60 SHL SUB AND DUP2 MSTORE PUSH1 0x20 ADD PUSH1 0x0 PUSH1 0x1 PUSH1 0x1 PUSH1 0xA0 SHL SUB AND DUP2 MSTORE PUSH1 0x20 ADD DUP3 PUSH1 0x1 PUSH1 0x1 PUSH1 0x50 SHL SUB AND DUP2 MSTORE PUSH1 0x20 ADD DUP13 PUSH1 0x60 ADD PUSH1 0x20 DUP2 ADD SWAP1 PUSH2 0x1C19 SWAP2 SWAP1 PUSH2 0x46E9 JUMP JUMPDEST PUSH1 0x2 SIGNEXTEND DUP2 MSTORE PUSH1 0x20 ADD PUSH2 0x1C31 PUSH1 0xA0 DUP15 ADD PUSH1 0x80 DUP16 ADD PUSH2 0x46E9 JUMP JUMPDEST PUSH1 0x2 SIGNEXTEND DUP2 MSTORE PUSH1 0x20 ADD DUP11 PUSH1 0x1 PUSH1 0x1 PUSH1 0x80 SHL SUB AND DUP2 MSTORE PUSH1 0x20 ADD DUP5 DUP2 MSTORE PUSH1 0x20 ADD DUP4 DUP2 MSTORE PUSH1 0x20 ADD PUSH1 0x0 PUSH1 0x1 PUSH1 0x1 PUSH1 0x80 SHL SUB AND DUP2 MSTORE PUSH1 0x20 ADD PUSH1 0x0 PUSH1 0x1 PUSH1 0x1 PUSH1 0x80 SHL SUB AND DUP2 MSTORE POP PUSH1 0xC PUSH1 0x0 DUP13 DUP2 MSTORE PUSH1 0x20 ADD SWAP1 DUP2 MSTORE PUSH1 0x20 ADD PUSH1 0x0 KECCAK256 PUSH1 0x0 DUP3 ADD MLOAD DUP2 PUSH1 0x0 ADD PUSH1 0x0 PUSH2 0x100 EXP DUP2 SLOAD DUP2 PUSH1 0x1 PUSH1 0x1 PUSH1 0x60 SHL SUB MUL NOT AND SWAP1 DUP4 PUSH1 0x1 PUSH1 0x1 PUSH1 0x60 SHL SUB AND MUL OR SWAP1 SSTORE POP PUSH1 0x20 DUP3 ADD MLOAD DUP2 PUSH1 0x0 ADD PUSH1 0xC PUSH2 0x100 EXP DUP2 SLOAD DUP2 PUSH1 0x1 PUSH1 0x1 PUSH1 0xA0 SHL SUB MUL NOT AND SWAP1 DUP4 PUSH1 0x1 PUSH1 0x1 PUSH1 0xA0 SHL SUB AND MUL OR SWAP1 SSTORE POP PUSH1 0x40 DUP3 ADD MLOAD DUP2 PUSH1 0x1 ADD PUSH1 0x0 PUSH2 0x100 EXP DUP2 SLOAD DUP2 PUSH1 0x1 PUSH1 0x1 PUSH1 0x50 SHL SUB MUL NOT AND SWAP1 DUP4 PUSH1 0x1 PUSH1 0x1 PUSH1 0x50 SHL SUB AND MUL OR SWAP1 SSTORE POP PUSH1 0x60 DUP3 ADD MLOAD DUP2 PUSH1 0x1 ADD PUSH1 0xA PUSH2 0x100 EXP DUP2 SLOAD DUP2 PUSH3 0xFFFFFF MUL NOT AND SWAP1 DUP4 PUSH1 0x2 SIGNEXTEND PUSH3 0xFFFFFF AND MUL OR SWAP1 SSTORE POP PUSH1 0x80 DUP3 ADD MLOAD DUP2 PUSH1 0x1 ADD PUSH1 0xD PUSH2 0x100 EXP DUP2 SLOAD DUP2 PUSH3 0xFFFFFF MUL NOT AND SWAP1 DUP4 PUSH1 0x2 SIGNEXTEND PUSH3 0xFFFFFF AND MUL OR SWAP1 SSTORE POP PUSH1 0xA0 DUP3 ADD MLOAD DUP2 PUSH1 0x1 ADD PUSH1 0x10 PUSH2 0x100 EXP DUP2 SLOAD DUP2 PUSH1 0x1 PUSH1 0x1 PUSH1 0x80 SHL SUB MUL NOT AND SWAP1 DUP4 PUSH1 0x1 PUSH1 0x1 PUSH1 0x80 SHL SUB AND MUL OR SWAP1 SSTORE POP PUSH1 0xC0 DUP3 ADD MLOAD DUP2 PUSH1 0x2 ADD SSTORE PUSH1 0xE0 DUP3 ADD MLOAD DUP2 PUSH1 0x3 ADD SSTORE PUSH2 0x100 DUP3 ADD MLOAD DUP2 PUSH1 0x4 ADD PUSH1 0x0 PUSH2 0x100 EXP DUP2 SLOAD DUP2 PUSH1 0x1 PUSH1 0x1 PUSH1 0x80 SHL SUB MUL NOT AND SWAP1 DUP4 PUSH1 0x1 PUSH1 0x1 PUSH1 0x80 SHL SUB AND MUL OR SWAP1 SSTORE POP PUSH2 0x120 DUP3 ADD MLOAD DUP2 PUSH1 0x4 ADD PUSH1 0x10 PUSH2 0x100 EXP DUP2 SLOAD DUP2 PUSH1 0x1 PUSH1 0x1 PUSH1 0x80 SHL SUB MUL NOT AND SWAP1 DUP4 PUSH1 0x1 PUSH1 0x1 PUSH1 0x80 SHL SUB AND MUL OR SWAP1 SSTORE POP SWAP1 POP POP DUP10 PUSH32 0x3067048BEEE31B25B2F1681F88DAC838C8BBA36AF25BFB2B7CF7473A5847E35F DUP11 DUP11 DUP11 PUSH1 0x40 MLOAD PUSH2 0x1E30 SWAP4 SWAP3 SWAP2 SWAP1 PUSH2 0x55FF JUMP JUMPDEST PUSH1 0x40 MLOAD DUP1 SWAP2 SUB SWAP1 LOG2 POP POP POP POP POP POP SWAP2 SWAP4 POP SWAP2 SWAP4 JUMP JUMPDEST PUSH1 0x7 DUP1 SLOAD PUSH1 0x40 DUP1 MLOAD PUSH1 0x20 PUSH1 0x1F PUSH1 0x2 PUSH1 0x0 NOT PUSH2 0x100 PUSH1 0x1 DUP9 AND ISZERO MUL ADD SWAP1 SWAP6 AND SWAP5 SWAP1 SWAP5 DIV SWAP4 DUP5 ADD DUP2 SWAP1 DIV DUP2 MUL DUP3 ADD DUP2 ADD SWAP1 SWAP3 MSTORE DUP3 DUP2 MSTORE PUSH1 0x60 SWAP4 SWAP1 SWAP3 SWAP1 SWAP2 DUP4 ADD DUP3 DUP3 DUP1 ISZERO PUSH2 0x75E JUMPI DUP1 PUSH1 0x1F LT PUSH2 0x733 JUMPI PUSH2 0x100 DUP1 DUP4 SLOAD DIV MUL DUP4 MSTORE SWAP2 PUSH1 0x20 ADD SWAP2 PUSH2 0x75E JUMP JUMPDEST PUSH1 0x0 DUP2 DUP2 MSTORE PUSH1 0xC PUSH1 0x20 SWAP1 DUP2 MSTORE PUSH1 0x40 DUP1 DUP4 KECCAK256 DUP2 MLOAD PUSH2 0x140 DUP2 ADD DUP4 MSTORE DUP2 SLOAD PUSH1 0x1 PUSH1 0x1 PUSH1 0x60 SHL SUB DUP2 AND DUP3 MSTORE PUSH1 0x1 PUSH1 0x1 PUSH1 0xA0 SHL SUB PUSH1 0x1 PUSH1 0x60 SHL SWAP1 SWAP2 DIV AND SWAP4 DUP2 ADD SWAP4 SWAP1 SWAP4 MSTORE PUSH1 0x1 DUP2 ADD SLOAD PUSH1 0x1 PUSH1 0x1 PUSH1 0x50 SHL SUB DUP2 AND SWAP3 DUP5 ADD DUP4 SWAP1 MSTORE PUSH1 0x1 PUSH1 0x50 SHL DUP2 DIV PUSH1 0x2 SWAP1 DUP2 SIGNEXTEND DUP2 SIGNEXTEND DUP2 SIGNEXTEND PUSH1 0x60 DUP7 ADD MSTORE PUSH1 0x1 PUSH1 0x68 SHL DUP3 DIV DUP2 SIGNEXTEND DUP2 SIGNEXTEND DUP2 SIGNEXTEND PUSH1 0x80 DUP7 ADD MSTORE PUSH1 0x1 PUSH1 0x1 PUSH1 0x80 SHL SUB PUSH1 0x1 PUSH1 0x80 SHL SWAP3 DUP4 SWAP1 DIV DUP2 AND PUSH1 0xA0 DUP8 ADD MSTORE SWAP1 DUP4 ADD SLOAD PUSH1 0xC0 DUP7 ADD MSTORE PUSH1 0x3 DUP4 ADD SLOAD PUSH1 0xE0 DUP7 ADD MSTORE PUSH1 0x4 SWAP1 SWAP3 ADD SLOAD DUP1 DUP4 AND PUSH2 0x100 DUP7 ADD MSTORE DIV AND PUSH2 0x120 DUP4 ADD MSTORE DUP3 SWAP2 DUP3 SWAP2 DUP3 SWAP2 DUP3 SWAP2 DUP3 SWAP2 DUP3 SWAP2 DUP3 SWAP2 DUP3 SWAP2 DUP3 SWAP2 DUP3 SWAP2 DUP3 SWAP2 SWAP1 PUSH2 0x1F97 JUMPI PUSH1 0x40 MLOAD PUSH3 0x461BCD PUSH1 0xE5 SHL DUP2 MSTORE PUSH1 0x4 ADD PUSH2 0x276 SWAP1 PUSH2 0x547A JUMP JUMPDEST PUSH1 0x0 PUSH1 0xB PUSH1 0x0 DUP4 PUSH1 0x40 ADD MLOAD PUSH1 0x1 PUSH1 0x1 PUSH1 0x50 SHL SUB AND PUSH1 0x1 PUSH1 0x1 PUSH1 0x50 SHL SUB AND DUP2 MSTORE PUSH1 0x20 ADD SWAP1 DUP2 MSTORE PUSH1 0x20 ADD PUSH1 0x0 KECCAK256 PUSH1 0x40 MLOAD DUP1 PUSH1 0x60 ADD PUSH1 0x40 MSTORE SWAP1 DUP2 PUSH1 0x0 DUP3 ADD PUSH1 0x0 SWAP1 SLOAD SWAP1 PUSH2 0x100 EXP SWAP1 DIV PUSH1 0x1 PUSH1 0x1 PUSH1 0xA0 SHL SUB AND PUSH1 0x1 PUSH1 0x1 PUSH1 0xA0 SHL SUB AND PUSH1 0x1 PUSH1 0x1 PUSH1 0xA0 SHL SUB AND DUP2 MSTORE PUSH1 0x20 ADD PUSH1 0x1 DUP3 ADD PUSH1 0x0 SWAP1 SLOAD SWAP1 PUSH2 0x100 EXP SWAP1 DIV PUSH1 0x1 PUSH1 0x1 PUSH1 0xA0 SHL SUB AND PUSH1 0x1 PUSH1 0x1 PUSH1 0xA0 SHL SUB AND PUSH1 0x1 PUSH1 0x1 PUSH1 0xA0 SHL SUB AND DUP2 MSTORE PUSH1 0x20 ADD PUSH1 0x1 DUP3 ADD PUSH1 0x14 SWAP1 SLOAD SWAP1 PUSH2 0x100 EXP SWAP1 DIV PUSH3 0xFFFFFF AND PUSH3 0xFFFFFF AND PUSH3 0xFFFFFF AND DUP2 MSTORE POP POP SWAP1 POP DUP2 PUSH1 0x0 ADD MLOAD DUP3 PUSH1 0x20 ADD MLOAD DUP3 PUSH1 0x0 ADD MLOAD DUP4 PUSH1 0x20 ADD MLOAD DUP5 PUSH1 0x40 ADD MLOAD DUP7 PUSH1 0x60 ADD MLOAD DUP8 PUSH1 0x80 ADD MLOAD DUP9 PUSH1 0xA0 ADD MLOAD DUP10 PUSH1 0xC0 ADD MLOAD DUP11 PUSH1 0xE0 ADD MLOAD DUP12 PUSH2 0x100 ADD MLOAD DUP13 PUSH2 0x120 ADD MLOAD SWAP14 POP SWAP14 POP SWAP14 POP SWAP14 POP SWAP14 POP SWAP14 POP SWAP14 POP SWAP14 POP SWAP14 POP SWAP14 POP SWAP14 POP SWAP14 POP POP POP SWAP2 SWAP4 SWAP6 SWAP8 SWAP10 SWAP12 POP SWAP2 SWAP4 SWAP6 SWAP8 SWAP10 SWAP12 JUMP JUMPDEST PUSH2 0x20BF PUSH2 0x2B7E JUMP JUMPDEST PUSH1 0x1 PUSH1 0x1 PUSH1 0xA0 SHL SUB AND DUP3 PUSH1 0x1 PUSH1 0x1 PUSH1 0xA0 SHL SUB AND EQ ISZERO PUSH2 0x20F0 JUMPI PUSH1 0x40 MLOAD PUSH3 0x461BCD PUSH1 0xE5 SHL DUP2 MSTORE PUSH1 0x4 ADD PUSH2 0x276 SWAP1 PUSH2 0x50C3 JUMP JUMPDEST DUP1 PUSH1 0x5 PUSH1 0x0 PUSH2 0x20FD PUSH2 0x2B7E JUMP JUMPDEST PUSH1 0x1 PUSH1 0x1 PUSH1 0xA0 SHL SUB SWAP1 DUP2 AND DUP3 MSTORE PUSH1 0x20 DUP1 DUP4 ADD SWAP4 SWAP1 SWAP4 MSTORE PUSH1 0x40 SWAP2 DUP3 ADD PUSH1 0x0 SWAP1 DUP2 KECCAK256 SWAP2 DUP8 AND DUP1 DUP3 MSTORE SWAP2 SWAP1 SWAP4 MSTORE SWAP2 KECCAK256 DUP1 SLOAD PUSH1 0xFF NOT AND SWAP3 ISZERO ISZERO SWAP3 SWAP1 SWAP3 OR SWAP1 SWAP2 SSTORE PUSH2 0x2141 PUSH2 0x2B7E JUMP JUMPDEST PUSH1 0x1 PUSH1 0x1 PUSH1 0xA0 SHL SUB AND PUSH32 0x17307EAB39AB6107E8899845AD3D59BD9653F200F220920489CA2B5937696C31 DUP4 PUSH1 0x40 MLOAD PUSH2 0x2179 SWAP2 SWAP1 PUSH2 0x4E13 JUMP JUMPDEST PUSH1 0x40 MLOAD DUP1 SWAP2 SUB SWAP1 LOG3 POP POP JUMP JUMPDEST PUSH1 0x40 MLOAD PUSH4 0x6EB1769F PUSH1 0xE1 SHL DUP2 MSTORE PUSH1 0x0 NOT SWAP1 PUSH1 0x1 PUSH1 0x1 PUSH1 0xA0 SHL SUB DUP9 AND SWAP1 PUSH4 0xDD62ED3E SWAP1 PUSH2 0x21B7 SWAP1 CALLER SWAP1 ADDRESS SWAP1 PUSH1 0x4 ADD PUSH2 0x4BCE JUMP JUMPDEST PUSH1 0x20 PUSH1 0x40 MLOAD DUP1 DUP4 SUB DUP2 DUP7 DUP1 EXTCODESIZE ISZERO DUP1 ISZERO PUSH2 0x21CF JUMPI PUSH1 0x0 DUP1 REVERT JUMPDEST POP GAS STATICCALL ISZERO DUP1 ISZERO PUSH2 0x21E3 JUMPI RETURNDATASIZE PUSH1 0x0 DUP1 RETURNDATACOPY RETURNDATASIZE PUSH1 0x0 REVERT JUMPDEST POP POP POP POP PUSH1 0x40 MLOAD RETURNDATASIZE PUSH1 0x1F NOT PUSH1 0x1F DUP3 ADD AND DUP3 ADD DUP1 PUSH1 0x40 MSTORE POP DUP2 ADD SWAP1 PUSH2 0x2207 SWAP2 SWAP1 PUSH2 0x49D3 JUMP JUMPDEST LT ISZERO PUSH2 0x221B JUMPI PUSH2 0x221B DUP7 DUP7 DUP7 DUP7 DUP7 DUP7 PUSH2 0x1450 JUMP JUMPDEST POP POP POP POP POP POP JUMP JUMPDEST PUSH1 0x60 DUP2 PUSH8 0xFFFFFFFFFFFFFFFF DUP2 GT DUP1 ISZERO PUSH2 0x223C JUMPI PUSH1 0x0 DUP1 REVERT JUMPDEST POP PUSH1 0x40 MLOAD SWAP1 DUP1 DUP3 MSTORE DUP1 PUSH1 0x20 MUL PUSH1 0x20 ADD DUP3 ADD PUSH1 0x40 MSTORE DUP1 ISZERO PUSH2 0x2270 JUMPI DUP2 PUSH1 0x20 ADD JUMPDEST PUSH1 0x60 DUP2 MSTORE PUSH1 0x20 ADD SWAP1 PUSH1 0x1 SWAP1 SUB SWAP1 DUP2 PUSH2 0x225B JUMPI SWAP1 POP JUMPDEST POP SWAP1 POP PUSH1 0x0 JUMPDEST DUP3 DUP2 LT ISZERO PUSH2 0x235C JUMPI PUSH1 0x0 DUP1 ADDRESS DUP7 DUP7 DUP6 DUP2 DUP2 LT PUSH2 0x228E JUMPI INVALID JUMPDEST SWAP1 POP PUSH1 0x20 MUL DUP2 ADD SWAP1 PUSH2 0x22A0 SWAP2 SWAP1 PUSH2 0x56EC JUMP JUMPDEST PUSH1 0x40 MLOAD PUSH2 0x22AE SWAP3 SWAP2 SWAP1 PUSH2 0x4B40 JUMP JUMPDEST PUSH1 0x0 PUSH1 0x40 MLOAD DUP1 DUP4 SUB DUP2 DUP6 GAS DELEGATECALL SWAP2 POP POP RETURNDATASIZE DUP1 PUSH1 0x0 DUP2 EQ PUSH2 0x22E9 JUMPI PUSH1 0x40 MLOAD SWAP2 POP PUSH1 0x1F NOT PUSH1 0x3F RETURNDATASIZE ADD AND DUP3 ADD PUSH1 0x40 MSTORE RETURNDATASIZE DUP3 MSTORE RETURNDATASIZE PUSH1 0x0 PUSH1 0x20 DUP5 ADD RETURNDATACOPY PUSH2 0x22EE JUMP JUMPDEST PUSH1 0x60 SWAP2 POP JUMPDEST POP SWAP2 POP SWAP2 POP DUP2 PUSH2 0x233A JUMPI PUSH1 0x44 DUP2 MLOAD LT ISZERO PUSH2 0x2307 JUMPI PUSH1 0x0 DUP1 REVERT JUMPDEST PUSH1 0x4 DUP2 ADD SWAP1 POP DUP1 DUP1 PUSH1 0x20 ADD SWAP1 MLOAD DUP2 ADD SWAP1 PUSH2 0x2321 SWAP2 SWAP1 PUSH2 0x4705 JUMP JUMPDEST PUSH1 0x40 MLOAD PUSH3 0x461BCD PUSH1 0xE5 SHL DUP2 MSTORE PUSH1 0x4 ADD PUSH2 0x276 SWAP2 SWAP1 PUSH2 0x4EDC JUMP JUMPDEST DUP1 DUP5 DUP5 DUP2 MLOAD DUP2 LT PUSH2 0x2347 JUMPI INVALID JUMPDEST PUSH1 0x20 SWAP1 DUP2 MUL SWAP2 SWAP1 SWAP2 ADD ADD MSTORE POP POP PUSH1 0x1 ADD PUSH2 0x2276 JUMP JUMPDEST POP SWAP3 SWAP2 POP POP JUMP JUMPDEST PUSH2 0x2374 PUSH2 0x236E PUSH2 0x2B7E JUMP JUMPDEST DUP4 PUSH2 0x2BF8 JUMP JUMPDEST PUSH2 0x2390 JUMPI PUSH1 0x40 MLOAD PUSH3 0x461BCD PUSH1 0xE5 SHL DUP2 MSTORE PUSH1 0x4 ADD PUSH2 0x276 SWAP1 PUSH2 0x5512 JUMP JUMPDEST PUSH2 0x239C DUP5 DUP5 DUP5 DUP5 PUSH2 0x34DA JUMP JUMPDEST POP POP POP POP JUMP JUMPDEST PUSH1 0x40 MLOAD PUSH4 0x6EB1769F PUSH1 0xE1 SHL DUP2 MSTORE DUP6 SWAP1 PUSH1 0x1 PUSH1 0x1 PUSH1 0xA0 SHL SUB DUP9 AND SWAP1 PUSH4 0xDD62ED3E SWAP1 PUSH2 0x23D2 SWAP1 CALLER SWAP1 ADDRESS SWAP1 PUSH1 0x4 ADD PUSH2 0x4BCE JUMP JUMPDEST PUSH1 0x20 PUSH1 0x40 MLOAD DUP1 DUP4 SUB DUP2 DUP7 DUP1 EXTCODESIZE ISZERO DUP1 ISZERO PUSH2 0x23EA JUMPI PUSH1 0x0 DUP1 REVERT JUMPDEST POP GAS STATICCALL ISZERO DUP1 ISZERO PUSH2 0x23FE JUMPI RETURNDATASIZE PUSH1 0x0 DUP1 RETURNDATACOPY RETURNDATASIZE PUSH1 0x0 REVERT JUMPDEST POP POP POP POP PUSH1 0x40 MLOAD RETURNDATASIZE PUSH1 0x1F NOT PUSH1 0x1F DUP3 ADD AND DUP3 ADD DUP1 PUSH1 0x40 MSTORE POP DUP2 ADD SWAP1 PUSH2 0x2422 SWAP2 SWAP1 PUSH2 0x49D3 JUMP JUMPDEST LT ISZERO PUSH2 0x221B JUMPI PUSH2 0x221B DUP7 DUP7 DUP7 DUP7 DUP7 DUP7 PUSH2 0x266E JUMP JUMPDEST PUSH32 0x0 DUP2 JUMP JUMPDEST PUSH1 0x60 PUSH2 0x2465 DUP3 PUSH2 0x2B71 JUMP JUMPDEST PUSH2 0x246E JUMPI PUSH1 0x0 DUP1 REVERT JUMPDEST PUSH1 0x40 MLOAD PUSH4 0xE9DC6375 PUSH1 0xE0 SHL DUP2 MSTORE PUSH1 0x1 PUSH1 0x1 PUSH1 0xA0 SHL SUB PUSH32 0x0 AND SWAP1 PUSH4 0xE9DC6375 SWAP1 PUSH2 0x24BC SWAP1 ADDRESS SWAP1 DUP7 SWAP1 PUSH1 0x4 ADD PUSH2 0x4D9A JUMP JUMPDEST PUSH1 0x0 PUSH1 0x40 MLOAD DUP1 DUP4 SUB DUP2 DUP7 DUP1 EXTCODESIZE ISZERO DUP1 ISZERO PUSH2 0x24D4 JUMPI PUSH1 0x0 DUP1 REVERT JUMPDEST POP GAS STATICCALL ISZERO DUP1 ISZERO PUSH2 0x24E8 JUMPI RETURNDATASIZE PUSH1 0x0 DUP1 RETURNDATACOPY RETURNDATASIZE PUSH1 0x0 REVERT JUMPDEST POP POP POP POP PUSH1 0x40 MLOAD RETURNDATASIZE PUSH1 0x0 DUP3 RETURNDATACOPY PUSH1 0x1F RETURNDATASIZE SWAP1 DUP2 ADD PUSH1 0x1F NOT AND DUP3 ADD PUSH1 0x40 MSTORE PUSH2 0x129F SWAP2 SWAP1 DUP2 ADD SWAP1 PUSH2 0x4705 JUMP JUMPDEST PUSH1 0x0 PUSH2 0x251E DUP3 DUP5 ADD DUP5 PUSH2 0x47A8 JUMP JUMPDEST SWAP1 POP PUSH2 0x254E PUSH32 0x0 DUP3 PUSH1 0x0 ADD MLOAD PUSH2 0x350D JUMP JUMPDEST POP DUP5 ISZERO PUSH2 0x2569 JUMPI DUP1 MLOAD MLOAD PUSH1 0x20 DUP3 ADD MLOAD PUSH2 0x2569 SWAP2 SWAP1 CALLER DUP9 PUSH2 0x3530 JUMP JUMPDEST DUP4 ISZERO PUSH2 0x2587 JUMPI PUSH2 0x2587 DUP2 PUSH1 0x0 ADD MLOAD PUSH1 0x20 ADD MLOAD DUP3 PUSH1 0x20 ADD MLOAD CALLER DUP8 PUSH2 0x3530 JUMP JUMPDEST POP POP POP POP POP JUMP JUMPDEST PUSH1 0x40 MLOAD PUSH4 0x70A08231 PUSH1 0xE0 SHL DUP2 MSTORE PUSH1 0x0 SWAP1 PUSH1 0x1 PUSH1 0x1 PUSH1 0xA0 SHL SUB DUP6 AND SWAP1 PUSH4 0x70A08231 SWAP1 PUSH2 0x25BD SWAP1 ADDRESS SWAP1 PUSH1 0x4 ADD PUSH2 0x4BBA JUMP JUMPDEST PUSH1 0x20 PUSH1 0x40 MLOAD DUP1 DUP4 SUB DUP2 DUP7 DUP1 EXTCODESIZE ISZERO DUP1 ISZERO PUSH2 0x25D5 JUMPI PUSH1 0x0 DUP1 REVERT JUMPDEST POP GAS STATICCALL ISZERO DUP1 ISZERO PUSH2 0x25E9 JUMPI RETURNDATASIZE PUSH1 0x0 DUP1 RETURNDATACOPY RETURNDATASIZE PUSH1 0x0 REVERT JUMPDEST POP POP POP POP PUSH1 0x40 MLOAD RETURNDATASIZE PUSH1 0x1F NOT PUSH1 0x1F DUP3 ADD AND DUP3 ADD DUP1 PUSH1 0x40 MSTORE POP DUP2 ADD SWAP1 PUSH2 0x260D SWAP2 SWAP1 PUSH2 0x49D3 JUMP JUMPDEST SWAP1 POP DUP3 DUP2 LT ISZERO PUSH2 0x262F JUMPI PUSH1 0x40 MLOAD PUSH3 0x461BCD PUSH1 0xE5 SHL DUP2 MSTORE PUSH1 0x4 ADD PUSH2 0x276 SWAP1 PUSH2 0x500C JUMP JUMPDEST DUP1 ISZERO PUSH2 0x239C JUMPI PUSH2 0x239C DUP5 DUP4 DUP4 PUSH2 0x36BD JUMP JUMPDEST PUSH1 0x1 PUSH1 0x1 PUSH1 0xA0 SHL SUB SWAP2 DUP3 AND PUSH1 0x0 SWAP1 DUP2 MSTORE PUSH1 0x5 PUSH1 0x20 SWAP1 DUP2 MSTORE PUSH1 0x40 DUP1 DUP4 KECCAK256 SWAP4 SWAP1 SWAP5 AND DUP3 MSTORE SWAP2 SWAP1 SWAP2 MSTORE KECCAK256 SLOAD PUSH1 0xFF AND SWAP1 JUMP JUMPDEST PUSH1 0x40 MLOAD PUSH4 0xD505ACCF PUSH1 0xE0 SHL DUP2 MSTORE PUSH1 0x1 PUSH1 0x1 PUSH1 0xA0 SHL SUB DUP8 AND SWAP1 PUSH4 0xD505ACCF SWAP1 PUSH2 0x148B SWAP1 CALLER SWAP1 ADDRESS SWAP1 DUP11 SWAP1 DUP11 SWAP1 DUP11 SWAP1 DUP11 SWAP1 DUP11 SWAP1 PUSH1 0x4 ADD PUSH2 0x4C64 JUMP JUMPDEST PUSH1 0x0 DUP1 DUP3 CALLDATALOAD PUSH2 0x26B5 CALLER DUP3 PUSH2 0x2BF8 JUMP JUMPDEST PUSH2 0x26D1 JUMPI PUSH1 0x40 MLOAD PUSH3 0x461BCD PUSH1 0xE5 SHL DUP2 MSTORE PUSH1 0x4 ADD PUSH2 0x276 SWAP1 PUSH2 0x5259 JUMP JUMPDEST PUSH1 0x0 PUSH2 0x26E3 PUSH1 0x60 DUP7 ADD PUSH1 0x40 DUP8 ADD PUSH2 0x4865 JUMP JUMPDEST PUSH1 0x1 PUSH1 0x1 PUSH1 0x80 SHL SUB AND GT DUP1 PUSH2 0x2710 JUMPI POP PUSH1 0x0 PUSH2 0x2705 PUSH1 0x80 DUP7 ADD PUSH1 0x60 DUP8 ADD PUSH2 0x4865 JUMP JUMPDEST PUSH1 0x1 PUSH1 0x1 PUSH1 0x80 SHL SUB AND GT JUMPDEST PUSH2 0x2719 JUMPI PUSH1 0x0 DUP1 REVERT JUMPDEST PUSH1 0x0 DUP1 PUSH2 0x272C PUSH1 0x40 DUP8 ADD PUSH1 0x20 DUP9 ADD PUSH2 0x4382 JUMP JUMPDEST PUSH1 0x1 PUSH1 0x1 PUSH1 0xA0 SHL SUB AND EQ PUSH2 0x274F JUMPI PUSH2 0x274A PUSH1 0x40 DUP7 ADD PUSH1 0x20 DUP8 ADD PUSH2 0x4382 JUMP JUMPDEST PUSH2 0x2751 JUMP JUMPDEST ADDRESS JUMPDEST DUP6 CALLDATALOAD PUSH1 0x0 SWAP1 DUP2 MSTORE PUSH1 0xC PUSH1 0x20 SWAP1 DUP2 MSTORE PUSH1 0x40 DUP1 DUP4 KECCAK256 PUSH1 0x1 DUP1 DUP3 ADD SLOAD PUSH1 0x1 PUSH1 0x1 PUSH1 0x50 SHL SUB AND DUP6 MSTORE PUSH1 0xB DUP5 MSTORE DUP3 DUP6 KECCAK256 DUP4 MLOAD PUSH1 0x60 DUP2 ADD DUP6 MSTORE DUP2 SLOAD PUSH1 0x1 PUSH1 0x1 PUSH1 0xA0 SHL SUB SWAP1 DUP2 AND DUP3 MSTORE SWAP2 SWAP1 SWAP3 ADD SLOAD SWAP1 DUP2 AND SWAP5 DUP3 ADD SWAP5 SWAP1 SWAP5 MSTORE PUSH1 0x1 PUSH1 0xA0 SHL SWAP1 SWAP4 DIV PUSH3 0xFFFFFF AND SWAP2 DUP4 ADD SWAP2 SWAP1 SWAP2 MSTORE SWAP3 SWAP4 POP SWAP1 PUSH2 0x27E4 PUSH32 0x0 DUP4 PUSH2 0x2C79 JUMP JUMPDEST PUSH1 0x4 DUP5 ADD SLOAD PUSH1 0x1 DUP6 ADD SLOAD SWAP2 SWAP3 POP PUSH1 0x1 PUSH1 0x1 PUSH1 0x80 SHL SUB DUP1 DUP3 AND SWAP3 PUSH1 0x1 PUSH1 0x80 SHL SWAP3 DUP4 SWAP1 DIV DUP3 AND SWAP3 SWAP1 DIV AND ISZERO PUSH2 0x29DA JUMPI PUSH1 0x1 DUP6 ADD SLOAD PUSH1 0x40 MLOAD PUSH4 0xA34123A7 PUSH1 0xE0 SHL DUP2 MSTORE PUSH1 0x1 PUSH1 0x1 PUSH1 0xA0 SHL SUB DUP6 AND SWAP2 PUSH4 0xA34123A7 SWAP2 PUSH2 0x285B SWAP2 PUSH1 0x1 PUSH1 0x50 SHL DUP2 DIV PUSH1 0x2 SWAP1 DUP2 SIGNEXTEND SWAP3 PUSH1 0x1 PUSH1 0x68 SHL SWAP1 SWAP3 DIV SWAP1 SIGNEXTEND SWAP1 PUSH1 0x0 SWAP1 PUSH1 0x4 ADD PUSH2 0x4E8A JUMP JUMPDEST PUSH1 0x40 DUP1 MLOAD DUP1 DUP4 SUB DUP2 PUSH1 0x0 DUP8 DUP1 EXTCODESIZE ISZERO DUP1 ISZERO PUSH2 0x2874 JUMPI PUSH1 0x0 DUP1 REVERT JUMPDEST POP GAS CALL ISZERO DUP1 ISZERO PUSH2 0x2888 JUMPI RETURNDATASIZE PUSH1 0x0 DUP1 RETURNDATACOPY RETURNDATASIZE PUSH1 0x0 REVERT JUMPDEST POP POP POP POP PUSH1 0x40 MLOAD RETURNDATASIZE PUSH1 0x1F NOT PUSH1 0x1F DUP3 ADD AND DUP3 ADD DUP1 PUSH1 0x40 MSTORE POP DUP2 ADD SWAP1 PUSH2 0x28AC SWAP2 SWAP1 PUSH2 0x4A0F JUMP JUMPDEST POP POP PUSH1 0x1 DUP6 ADD SLOAD PUSH1 0x0 SWAP1 DUP2 SWAP1 PUSH1 0x1 PUSH1 0x1 PUSH1 0xA0 SHL SUB DUP7 AND SWAP1 PUSH4 0x514EA4BF SWAP1 PUSH2 0x28EA SWAP1 ADDRESS SWAP1 PUSH1 0x1 PUSH1 0x50 SHL DUP2 DIV PUSH1 0x2 SWAP1 DUP2 SIGNEXTEND SWAP2 PUSH1 0x1 PUSH1 0x68 SHL SWAP1 DIV SWAP1 SIGNEXTEND PUSH2 0x2D2A JUMP JUMPDEST PUSH1 0x40 MLOAD DUP3 PUSH4 0xFFFFFFFF AND PUSH1 0xE0 SHL DUP2 MSTORE PUSH1 0x4 ADD PUSH2 0x2906 SWAP2 SWAP1 PUSH2 0x4E1E JUMP JUMPDEST PUSH1 0xA0 PUSH1 0x40 MLOAD DUP1 DUP4 SUB DUP2 DUP7 DUP1 EXTCODESIZE ISZERO DUP1 ISZERO PUSH2 0x291E JUMPI PUSH1 0x0 DUP1 REVERT JUMPDEST POP GAS STATICCALL ISZERO DUP1 ISZERO PUSH2 0x2932 JUMPI RETURNDATASIZE PUSH1 0x0 DUP1 RETURNDATACOPY RETURNDATASIZE PUSH1 0x0 REVERT JUMPDEST POP POP POP POP PUSH1 0x40 MLOAD RETURNDATASIZE PUSH1 0x1F NOT PUSH1 0x1F DUP3 ADD AND DUP3 ADD DUP1 PUSH1 0x40 MSTORE POP DUP2 ADD SWAP1 PUSH2 0x2956 SWAP2 SWAP1 PUSH2 0x48AF JUMP JUMPDEST POP POP SWAP3 POP SWAP3 POP POP PUSH2 0x2992 DUP8 PUSH1 0x2 ADD SLOAD DUP4 SUB DUP9 PUSH1 0x1 ADD PUSH1 0x10 SWAP1 SLOAD SWAP1 PUSH2 0x100 EXP SWAP1 DIV PUSH1 0x1 PUSH1 0x1 PUSH1 0x80 SHL SUB AND PUSH1 0x1 PUSH1 0x1 PUSH1 0x80 SHL SUB AND PUSH1 0x1 PUSH1 0x80 SHL PUSH2 0x2D61 JUMP JUMPDEST DUP5 ADD SWAP4 POP PUSH2 0x29CB DUP8 PUSH1 0x3 ADD SLOAD DUP3 SUB DUP9 PUSH1 0x1 ADD PUSH1 0x10 SWAP1 SLOAD SWAP1 PUSH2 0x100 EXP SWAP1 DIV PUSH1 0x1 PUSH1 0x1 PUSH1 0x80 SHL SUB AND PUSH1 0x1 PUSH1 0x1 PUSH1 0x80 SHL SUB AND PUSH1 0x1 PUSH1 0x80 SHL PUSH2 0x2D61 JUMP JUMPDEST PUSH1 0x2 DUP9 ADD SWAP3 SWAP1 SWAP3 SSTORE PUSH1 0x3 DUP8 ADD SSTORE ADD JUMPDEST PUSH1 0x0 DUP1 PUSH1 0x1 PUSH1 0x1 PUSH1 0x80 SHL SUB DUP5 AND PUSH2 0x29F7 PUSH1 0x60 DUP15 ADD PUSH1 0x40 DUP16 ADD PUSH2 0x4865 JUMP JUMPDEST PUSH1 0x1 PUSH1 0x1 PUSH1 0x80 SHL SUB AND GT PUSH2 0x2A1A JUMPI PUSH2 0x2A15 PUSH1 0x60 DUP14 ADD PUSH1 0x40 DUP15 ADD PUSH2 0x4865 JUMP JUMPDEST PUSH2 0x2A1C JUMP JUMPDEST DUP4 JUMPDEST DUP4 PUSH1 0x1 PUSH1 0x1 PUSH1 0x80 SHL SUB AND DUP14 PUSH1 0x60 ADD PUSH1 0x20 DUP2 ADD SWAP1 PUSH2 0x2A39 SWAP2 SWAP1 PUSH2 0x4865 JUMP JUMPDEST PUSH1 0x1 PUSH1 0x1 PUSH1 0x80 SHL SUB AND GT PUSH2 0x2A5C JUMPI PUSH2 0x2A57 PUSH1 0x80 DUP15 ADD PUSH1 0x60 DUP16 ADD PUSH2 0x4865 JUMP JUMPDEST PUSH2 0x2A5E JUMP JUMPDEST DUP4 JUMPDEST PUSH1 0x1 DUP10 ADD SLOAD PUSH1 0x40 MLOAD PUSH4 0x9E3D67B PUSH1 0xE3 SHL DUP2 MSTORE SWAP3 SWAP5 POP SWAP1 SWAP3 POP PUSH1 0x1 PUSH1 0x1 PUSH1 0xA0 SHL SUB DUP8 AND SWAP2 PUSH4 0x4F1EB3D8 SWAP2 PUSH2 0x2AB1 SWAP2 DUP13 SWAP2 PUSH1 0x1 PUSH1 0x50 SHL DUP2 DIV PUSH1 0x2 SWAP1 DUP2 SIGNEXTEND SWAP3 PUSH1 0x1 PUSH1 0x68 SHL SWAP1 SWAP3 DIV SWAP1 SIGNEXTEND SWAP1 DUP9 SWAP1 DUP9 SWAP1 PUSH1 0x4 ADD PUSH2 0x4D33 JUMP JUMPDEST PUSH1 0x40 DUP1 MLOAD DUP1 DUP4 SUB DUP2 PUSH1 0x0 DUP8 DUP1 EXTCODESIZE ISZERO DUP1 ISZERO PUSH2 0x2ACA JUMPI PUSH1 0x0 DUP1 REVERT JUMPDEST POP GAS CALL ISZERO DUP1 ISZERO PUSH2 0x2ADE JUMPI RETURNDATASIZE PUSH1 0x0 DUP1 RETURNDATACOPY RETURNDATASIZE PUSH1 0x0 REVERT JUMPDEST POP POP POP POP PUSH1 0x40 MLOAD RETURNDATASIZE PUSH1 0x1F NOT PUSH1 0x1F DUP3 ADD AND DUP3 ADD DUP1 PUSH1 0x40 MSTORE POP DUP2 ADD SWAP1 PUSH2 0x2B02 SWAP2 SWAP1 PUSH2 0x4881 JUMP JUMPDEST PUSH1 0x4 DUP10 ADD DUP1 SLOAD PUSH1 0x1 PUSH1 0x1 PUSH1 0x80 SHL SUB NOT PUSH1 0x1 PUSH1 0x1 PUSH1 0x80 SHL SUB SWAP2 DUP3 AND PUSH1 0x1 PUSH1 0x80 SHL DUP8 DUP11 SUB DUP5 AND MUL OR AND DUP7 DUP10 SUB DUP3 AND OR SWAP1 SWAP2 SSTORE PUSH1 0x40 MLOAD SWAP3 DUP2 AND SWAP14 POP AND SWAP11 POP DUP13 CALLDATALOAD SWAP1 PUSH32 0x40D0EFD1A53D60ECBF40971B9DAF7DC90178C3AADC7AAB1765632738FA8B8F01 SWAP1 PUSH2 0xC51 SWAP1 DUP12 SWAP1 DUP7 SWAP1 DUP7 SWAP1 PUSH2 0x4D70 JUMP JUMPDEST PUSH1 0x0 PUSH2 0x129F PUSH1 0x2 DUP4 PUSH2 0x37AB JUMP JUMPDEST CALLER SWAP1 JUMP JUMPDEST PUSH1 0x0 DUP2 DUP2 MSTORE PUSH1 0xC PUSH1 0x20 MSTORE PUSH1 0x40 SWAP1 KECCAK256 DUP1 SLOAD PUSH1 0x1 PUSH1 0x1 PUSH1 0x60 SHL SUB AND PUSH1 0x1 PUSH1 0x60 SHL PUSH1 0x1 PUSH1 0x1 PUSH1 0xA0 SHL SUB DUP6 AND SWAP1 DUP2 MUL SWAP2 SWAP1 SWAP2 OR SWAP1 SWAP2 SSTORE DUP2 SWAP1 PUSH2 0x2BBF DUP3 PUSH2 0x164E JUMP JUMPDEST PUSH1 0x1 PUSH1 0x1 PUSH1 0xA0 SHL SUB AND PUSH32 0x8C5BE1E5EBEC7D5BD14F71427D1E84F3DD0314C0F7B2291E5B200AC8C7C3B925 PUSH1 0x40 MLOAD PUSH1 0x40 MLOAD DUP1 SWAP2 SUB SWAP1 LOG4 POP POP JUMP JUMPDEST PUSH1 0x0 PUSH2 0x2C03 DUP3 PUSH2 0x2B71 JUMP JUMPDEST PUSH2 0x2C1F JUMPI PUSH1 0x40 MLOAD PUSH3 0x461BCD PUSH1 0xE5 SHL DUP2 MSTORE PUSH1 0x4 ADD PUSH2 0x276 SWAP1 PUSH2 0x51B0 JUMP JUMPDEST PUSH1 0x0 PUSH2 0x2C2A DUP4 PUSH2 0x164E JUMP JUMPDEST SWAP1 POP DUP1 PUSH1 0x1 PUSH1 0x1 PUSH1 0xA0 SHL SUB AND DUP5 PUSH1 0x1 PUSH1 0x1 PUSH1 0xA0 SHL SUB AND EQ DUP1 PUSH2 0x2C65 JUMPI POP DUP4 PUSH1 0x1 PUSH1 0x1 PUSH1 0xA0 SHL SUB AND PUSH2 0x2C5A DUP5 PUSH2 0x768 JUMP JUMPDEST PUSH1 0x1 PUSH1 0x1 PUSH1 0xA0 SHL SUB AND EQ JUMPDEST DUP1 PUSH2 0xF3F JUMPI POP PUSH2 0xF3F DUP2 DUP6 PUSH2 0x2640 JUMP JUMPDEST TIMESTAMP SWAP1 JUMP JUMPDEST PUSH1 0x0 DUP2 PUSH1 0x20 ADD MLOAD PUSH1 0x1 PUSH1 0x1 PUSH1 0xA0 SHL SUB AND DUP3 PUSH1 0x0 ADD MLOAD PUSH1 0x1 PUSH1 0x1 PUSH1 0xA0 SHL SUB AND LT PUSH2 0x2CA1 JUMPI PUSH1 0x0 DUP1 REVERT JUMPDEST DUP3 DUP3 PUSH1 0x0 ADD MLOAD DUP4 PUSH1 0x20 ADD MLOAD DUP5 PUSH1 0x40 ADD MLOAD PUSH1 0x40 MLOAD PUSH1 0x20 ADD PUSH2 0x2CC3 SWAP4 SWAP3 SWAP2 SWAP1 PUSH2 0x4CA5 JUMP JUMPDEST PUSH1 0x40 DUP1 MLOAD PUSH1 0x1F NOT DUP2 DUP5 SUB ADD DUP2 MSTORE SWAP1 DUP3 SWAP1 MSTORE DUP1 MLOAD PUSH1 0x20 SWAP2 DUP3 ADD KECCAK256 PUSH2 0x2D0B SWAP4 SWAP3 SWAP1 SWAP2 PUSH32 0xE34F199B19B2B4F47F68442619D555527D244F78A3297EA89325F843F87B8B54 SWAP2 ADD PUSH2 0x4B87 JUMP JUMPDEST PUSH1 0x40 DUP1 MLOAD PUSH1 0x1F NOT DUP2 DUP5 SUB ADD DUP2 MSTORE SWAP2 SWAP1 MSTORE DUP1 MLOAD PUSH1 0x20 SWAP1 SWAP2 ADD KECCAK256 SWAP4 SWAP3 POP POP POP JUMP JUMPDEST PUSH1 0x0 DUP4 DUP4 DUP4 PUSH1 0x40 MLOAD PUSH1 0x20 ADD PUSH2 0x2D41 SWAP4 SWAP3 SWAP2 SWAP1 PUSH2 0x4AED JUMP JUMPDEST PUSH1 0x40 MLOAD PUSH1 0x20 DUP2 DUP4 SUB SUB DUP2 MSTORE SWAP1 PUSH1 0x40 MSTORE DUP1 MLOAD SWAP1 PUSH1 0x20 ADD KECCAK256 SWAP1 POP JUMPDEST SWAP4 SWAP3 POP POP POP JUMP JUMPDEST PUSH1 0x0 DUP1 DUP1 PUSH1 0x0 NOT DUP6 DUP8 MULMOD DUP7 DUP7 MUL SWAP3 POP DUP3 DUP2 LT SWAP1 DUP4 SWAP1 SUB SUB SWAP1 POP DUP1 PUSH2 0x2D97 JUMPI PUSH1 0x0 DUP5 GT PUSH2 0x2D8C JUMPI PUSH1 0x0 DUP1 REVERT JUMPDEST POP DUP3 SWAP1 DIV SWAP1 POP PUSH2 0x2D5A JUMP JUMPDEST DUP1 DUP5 GT PUSH2 0x2DA3 JUMPI PUSH1 0x0 DUP1 REVERT JUMPDEST PUSH1 0x0 DUP5 DUP7 DUP9 MULMOD PUSH1 0x0 DUP7 DUP2 SUB DUP8 AND SWAP7 DUP8 SWAP1 DIV SWAP7 PUSH1 0x2 PUSH1 0x3 DUP10 MUL DUP2 XOR DUP1 DUP11 MUL DUP3 SUB MUL DUP1 DUP11 MUL DUP3 SUB MUL DUP1 DUP11 MUL DUP3 SUB MUL DUP1 DUP11 MUL DUP3 SUB MUL DUP1 DUP11 MUL DUP3 SUB MUL DUP1 DUP11 MUL SWAP1 SWAP2 SUB MUL SWAP2 DUP2 SWAP1 SUB DUP2 SWAP1 DIV PUSH1 0x1 ADD DUP7 DUP5 GT SWAP1 SWAP6 SUB SWAP5 SWAP1 SWAP5 MUL SWAP2 SWAP1 SWAP5 SUB SWAP3 SWAP1 SWAP3 DIV SWAP2 SWAP1 SWAP2 OR SWAP2 SWAP1 SWAP2 MUL SWAP2 POP POP SWAP4 SWAP3 POP POP POP JUMP JUMPDEST PUSH1 0x40 DUP1 MLOAD PUSH1 0x0 DUP1 DUP3 MSTORE PUSH1 0x20 DUP3 ADD SWAP1 SWAP3 MSTORE PUSH1 0x1 PUSH1 0x1 PUSH1 0xA0 SHL SUB DUP5 AND SWAP1 DUP4 SWAP1 PUSH1 0x40 MLOAD PUSH2 0x2E3A SWAP2 SWAP1 PUSH2 0x4B50 JUMP JUMPDEST PUSH1 0x0 PUSH1 0x40 MLOAD DUP1 DUP4 SUB DUP2 DUP6 DUP8 GAS CALL SWAP3 POP POP POP RETURNDATASIZE DUP1 PUSH1 0x0 DUP2 EQ PUSH2 0x2E77 JUMPI PUSH1 0x40 MLOAD SWAP2 POP PUSH1 0x1F NOT PUSH1 0x3F RETURNDATASIZE ADD AND DUP3 ADD PUSH1 0x40 MSTORE RETURNDATASIZE DUP3 MSTORE RETURNDATASIZE PUSH1 0x0 PUSH1 0x20 DUP5 ADD RETURNDATACOPY PUSH2 0x2E7C JUMP JUMPDEST PUSH1 0x60 SWAP2 POP JUMPDEST POP POP SWAP1 POP DUP1 PUSH2 0x845 JUMPI PUSH1 0x40 MLOAD PUSH3 0x461BCD PUSH1 0xE5 SHL DUP2 MSTORE PUSH1 0x4 ADD PUSH2 0x276 SWAP1 PUSH2 0x50FA JUMP JUMPDEST PUSH1 0x0 PUSH2 0x129F DUP3 PUSH2 0x37B7 JUMP JUMPDEST PUSH1 0x0 DUP1 PUSH1 0x0 DUP1 PUSH1 0x0 PUSH1 0x40 MLOAD DUP1 PUSH1 0x60 ADD PUSH1 0x40 MSTORE DUP1 DUP8 PUSH1 0x0 ADD MLOAD PUSH1 0x1 PUSH1 0x1 PUSH1 0xA0 SHL SUB AND DUP2 MSTORE PUSH1 0x20 ADD DUP8 PUSH1 0x20 ADD MLOAD PUSH1 0x1 PUSH1 0x1 PUSH1 0xA0 SHL SUB AND DUP2 MSTORE PUSH1 0x20 ADD DUP8 PUSH1 0x40 ADD MLOAD PUSH3 0xFFFFFF AND DUP2 MSTORE POP SWAP1 POP PUSH2 0x2F1A PUSH32 0x0 DUP3 PUSH2 0x2C79 JUMP JUMPDEST SWAP2 POP PUSH1 0x0 DUP3 PUSH1 0x1 PUSH1 0x1 PUSH1 0xA0 SHL SUB AND PUSH4 0x3850C7BD PUSH1 0x40 MLOAD DUP2 PUSH4 0xFFFFFFFF AND PUSH1 0xE0 SHL DUP2 MSTORE PUSH1 0x4 ADD PUSH1 0xE0 PUSH1 0x40 MLOAD DUP1 DUP4 SUB DUP2 DUP7 DUP1 EXTCODESIZE ISZERO DUP1 ISZERO PUSH2 0x2F57 JUMPI PUSH1 0x0 DUP1 REVERT JUMPDEST POP GAS STATICCALL ISZERO DUP1 ISZERO PUSH2 0x2F6B JUMPI RETURNDATASIZE PUSH1 0x0 DUP1 RETURNDATACOPY RETURNDATASIZE PUSH1 0x0 REVERT JUMPDEST POP POP POP POP PUSH1 0x40 MLOAD RETURNDATASIZE PUSH1 0x1F NOT PUSH1 0x1F DUP3 ADD AND DUP3 ADD DUP1 PUSH1 0x40 MSTORE POP DUP2 ADD SWAP1 PUSH2 0x2F8F SWAP2 SWAP1 PUSH2 0x4910 JUMP JUMPDEST POP POP POP POP POP POP SWAP1 POP PUSH1 0x0 PUSH2 0x2FA6 DUP9 PUSH1 0x80 ADD MLOAD PUSH2 0x37BB JUMP JUMPDEST SWAP1 POP PUSH1 0x0 PUSH2 0x2FB7 DUP10 PUSH1 0xA0 ADD MLOAD PUSH2 0x37BB JUMP JUMPDEST SWAP1 POP PUSH2 0x2FCE DUP4 DUP4 DUP4 DUP13 PUSH1 0xC0 ADD MLOAD DUP14 PUSH1 0xE0 ADD MLOAD PUSH2 0x3AD4 JUMP JUMPDEST SWAP8 POP POP POP POP DUP2 PUSH1 0x1 PUSH1 0x1 PUSH1 0xA0 SHL SUB AND PUSH4 0x3C8A7D8D DUP8 PUSH1 0x60 ADD MLOAD DUP9 PUSH1 0x80 ADD MLOAD DUP10 PUSH1 0xA0 ADD MLOAD DUP10 PUSH1 0x40 MLOAD DUP1 PUSH1 0x40 ADD PUSH1 0x40 MSTORE DUP1 DUP9 DUP2 MSTORE PUSH1 0x20 ADD CALLER PUSH1 0x1 PUSH1 0x1 PUSH1 0xA0 SHL SUB AND DUP2 MSTORE POP PUSH1 0x40 MLOAD PUSH1 0x20 ADD PUSH2 0x3020 SWAP2 SWAP1 PUSH2 0x55BF JUMP JUMPDEST PUSH1 0x40 MLOAD PUSH1 0x20 DUP2 DUP4 SUB SUB DUP2 MSTORE SWAP1 PUSH1 0x40 MSTORE PUSH1 0x40 MLOAD DUP7 PUSH4 0xFFFFFFFF AND PUSH1 0xE0 SHL DUP2 MSTORE PUSH1 0x4 ADD PUSH2 0x304F SWAP6 SWAP5 SWAP4 SWAP3 SWAP2 SWAP1 PUSH2 0x4CF1 JUMP JUMPDEST PUSH1 0x40 DUP1 MLOAD DUP1 DUP4 SUB DUP2 PUSH1 0x0 DUP8 DUP1 EXTCODESIZE ISZERO DUP1 ISZERO PUSH2 0x3068 JUMPI PUSH1 0x0 DUP1 REVERT JUMPDEST POP GAS CALL ISZERO DUP1 ISZERO PUSH2 0x307C JUMPI RETURNDATASIZE PUSH1 0x0 DUP1 RETURNDATACOPY RETURNDATASIZE PUSH1 0x0 REVERT JUMPDEST POP POP POP POP PUSH1 0x40 MLOAD RETURNDATASIZE PUSH1 0x1F NOT PUSH1 0x1F DUP3 ADD AND DUP3 ADD DUP1 PUSH1 0x40 MSTORE POP DUP2 ADD SWAP1 PUSH2 0x30A0 SWAP2 SWAP1 PUSH2 0x4A0F JUMP JUMPDEST PUSH2 0x100 DUP9 ADD MLOAD SWAP2 SWAP6 POP SWAP4 POP DUP5 LT DUP1 ISZERO SWAP1 PUSH2 0x30BF JUMPI POP DUP6 PUSH2 0x120 ADD MLOAD DUP4 LT ISZERO JUMPDEST PUSH2 0x30DB JUMPI PUSH1 0x40 MLOAD PUSH3 0x461BCD PUSH1 0xE5 SHL DUP2 MSTORE PUSH1 0x4 ADD PUSH2 0x276 SWAP1 PUSH2 0x544C JUMP JUMPDEST POP SWAP2 SWAP4 POP SWAP2 SWAP4 JUMP JUMPDEST DUP3 PUSH1 0x1 PUSH1 0x1 PUSH1 0xA0 SHL SUB AND PUSH2 0x30F6 DUP3 PUSH2 0x164E JUMP JUMPDEST PUSH1 0x1 PUSH1 0x1 PUSH1 0xA0 SHL SUB AND EQ PUSH2 0x311C JUMPI PUSH1 0x40 MLOAD PUSH3 0x461BCD PUSH1 0xE5 SHL DUP2 MSTORE PUSH1 0x4 ADD PUSH2 0x276 SWAP1 PUSH2 0x53E6 JUMP JUMPDEST PUSH1 0x1 PUSH1 0x1 PUSH1 0xA0 SHL SUB DUP3 AND PUSH2 0x3142 JUMPI PUSH1 0x40 MLOAD PUSH3 0x461BCD PUSH1 0xE5 SHL DUP2 MSTORE PUSH1 0x4 ADD PUSH2 0x276 SWAP1 PUSH2 0x507F JUMP JUMPDEST PUSH2 0x314D DUP4 DUP4 DUP4 PUSH2 0x845 JUMP JUMPDEST PUSH2 0x3158 PUSH1 0x0 DUP3 PUSH2 0x2B82 JUMP JUMPDEST PUSH1 0x1 PUSH1 0x1 PUSH1 0xA0 SHL SUB DUP4 AND PUSH1 0x0 SWAP1 DUP2 MSTORE PUSH1 0x1 PUSH1 0x20 MSTORE PUSH1 0x40 SWAP1 KECCAK256 PUSH2 0x317A SWAP1 DUP3 PUSH2 0x3B98 JUMP JUMPDEST POP PUSH1 0x1 PUSH1 0x1 PUSH1 0xA0 SHL SUB DUP3 AND PUSH1 0x0 SWAP1 DUP2 MSTORE PUSH1 0x1 PUSH1 0x20 MSTORE PUSH1 0x40 SWAP1 KECCAK256 PUSH2 0x319D SWAP1 DUP3 PUSH2 0x3BA4 JUMP JUMPDEST POP PUSH2 0x31AA PUSH1 0x2 DUP3 DUP5 PUSH2 0x3BB0 JUMP JUMPDEST POP DUP1 DUP3 PUSH1 0x1 PUSH1 0x1 PUSH1 0xA0 SHL SUB AND DUP5 PUSH1 0x1 PUSH1 0x1 PUSH1 0xA0 SHL SUB AND PUSH32 0xDDF252AD1BE2C89B69C2B068FC378DAA952BA7F163C4A11628F55A4DF523B3EF PUSH1 0x40 MLOAD PUSH1 0x40 MLOAD DUP1 SWAP2 SUB SWAP1 LOG4 POP POP POP JUMP JUMPDEST PUSH1 0x0 PUSH2 0x129C DUP4 DUP4 PUSH2 0x3BC6 JUMP JUMPDEST CHAINID SWAP1 JUMP JUMPDEST PUSH1 0x0 PUSH2 0x320C DUP3 PUSH2 0x164E JUMP JUMPDEST SWAP1 POP PUSH2 0x321A DUP2 PUSH1 0x0 DUP5 PUSH2 0x845 JUMP JUMPDEST PUSH2 0x3225 PUSH1 0x0 DUP4 PUSH2 0x2B82 JUMP JUMPDEST PUSH1 0x0 DUP3 DUP2 MSTORE PUSH1 0x8 PUSH1 0x20 MSTORE PUSH1 0x40 SWAP1 KECCAK256 SLOAD PUSH1 0x2 PUSH1 0x0 NOT PUSH2 0x100 PUSH1 0x1 DUP5 AND ISZERO MUL ADD SWAP1 SWAP2 AND DIV ISZERO PUSH2 0x3263 JUMPI PUSH1 0x0 DUP3 DUP2 MSTORE PUSH1 0x8 PUSH1 0x20 MSTORE PUSH1 0x40 DUP2 KECCAK256 PUSH2 0x3263 SWAP2 PUSH2 0x42F2 JUMP JUMPDEST PUSH1 0x1 PUSH1 0x1 PUSH1 0xA0 SHL SUB DUP2 AND PUSH1 0x0 SWAP1 DUP2 MSTORE PUSH1 0x1 PUSH1 0x20 MSTORE PUSH1 0x40 SWAP1 KECCAK256 PUSH2 0x3285 SWAP1 DUP4 PUSH2 0x3B98 JUMP JUMPDEST POP PUSH2 0x3291 PUSH1 0x2 DUP4 PUSH2 0x3C0B JUMP JUMPDEST POP PUSH1 0x40 MLOAD DUP3 SWAP1 PUSH1 0x0 SWAP1 PUSH1 0x1 PUSH1 0x1 PUSH1 0xA0 SHL SUB DUP5 AND SWAP1 PUSH32 0xDDF252AD1BE2C89B69C2B068FC378DAA952BA7F163C4A11628F55A4DF523B3EF SWAP1 DUP4 SWAP1 LOG4 POP POP JUMP JUMPDEST PUSH1 0x0 DUP1 DUP1 DUP1 PUSH2 0x32DD DUP7 DUP7 PUSH2 0x3C17 JUMP JUMPDEST SWAP1 SWAP5 POP SWAP3 POP POP POP JUMPDEST SWAP3 POP SWAP3 SWAP1 POP JUMP JUMPDEST PUSH1 0x0 PUSH2 0xF3F DUP5 DUP5 DUP5 PUSH2 0x3C73 JUMP JUMPDEST PUSH1 0x0 SWAP1 DUP2 MSTORE PUSH1 0xC PUSH1 0x20 MSTORE PUSH1 0x40 SWAP1 KECCAK256 DUP1 SLOAD PUSH1 0x1 PUSH1 0x1 PUSH1 0x60 SHL SUB NOT DUP2 AND PUSH1 0x1 PUSH1 0x1 PUSH1 0x1 PUSH1 0x60 SHL SUB SWAP3 DUP4 AND SWAP1 DUP2 ADD SWAP1 SWAP3 AND OR SWAP1 SWAP2 SSTORE SWAP1 JUMP JUMPDEST EXTCODESIZE ISZERO ISZERO SWAP1 JUMP JUMPDEST PUSH1 0x1 PUSH1 0x1 PUSH1 0xA0 SHL SUB DUP3 AND PUSH2 0x335A JUMPI PUSH1 0x40 MLOAD PUSH3 0x461BCD PUSH1 0xE5 SHL DUP2 MSTORE PUSH1 0x4 ADD PUSH2 0x276 SWAP1 PUSH2 0x5326 JUMP JUMPDEST PUSH2 0x3363 DUP2 PUSH2 0x2B71 JUMP JUMPDEST ISZERO PUSH2 0x3380 JUMPI PUSH1 0x40 MLOAD PUSH3 0x461BCD PUSH1 0xE5 SHL DUP2 MSTORE PUSH1 0x4 ADD PUSH2 0x276 SWAP1 PUSH2 0x4FD5 JUMP JUMPDEST PUSH2 0x338C PUSH1 0x0 DUP4 DUP4 PUSH2 0x845 JUMP JUMPDEST PUSH1 0x1 PUSH1 0x1 PUSH1 0xA0 SHL SUB DUP3 AND PUSH1 0x0 SWAP1 DUP2 MSTORE PUSH1 0x1 PUSH1 0x20 MSTORE PUSH1 0x40 SWAP1 KECCAK256 PUSH2 0x33AE SWAP1 DUP3 PUSH2 0x3BA4 JUMP JUMPDEST POP PUSH2 0x33BB PUSH1 0x2 DUP3 DUP5 PUSH2 0x3BB0 JUMP JUMPDEST POP PUSH1 0x40 MLOAD DUP2 SWAP1 PUSH1 0x1 PUSH1 0x1 PUSH1 0xA0 SHL SUB DUP5 AND SWAP1 PUSH1 0x0 SWAP1 PUSH32 0xDDF252AD1BE2C89B69C2B068FC378DAA952BA7F163C4A11628F55A4DF523B3EF SWAP1 DUP3 SWAP1 LOG4 POP POP JUMP JUMPDEST PUSH1 0x1 PUSH1 0x1 PUSH1 0xA0 SHL SUB DUP3 AND PUSH1 0x0 SWAP1 DUP2 MSTORE PUSH1 0xA PUSH1 0x20 MSTORE PUSH1 0x40 SWAP1 KECCAK256 SLOAD PUSH1 0x1 PUSH1 0x1 PUSH1 0x50 SHL SUB AND DUP1 PUSH2 0x129F JUMPI POP PUSH1 0xD DUP1 SLOAD PUSH1 0x1 PUSH1 0x1 PUSH1 0x1 PUSH1 0x50 SHL SUB PUSH1 0x1 PUSH1 0xB0 SHL DUP1 DUP5 DIV DUP3 AND DUP4 DUP2 ADD SWAP1 SWAP3 AND MUL PUSH1 0x1 PUSH1 0x1 PUSH1 0xB0 SHL SUB SWAP1 SWAP4 AND SWAP3 SWAP1 SWAP3 OR SWAP1 SWAP3 SSTORE PUSH1 0x1 PUSH1 0x1 PUSH1 0xA0 SHL SUB DUP1 DUP6 AND PUSH1 0x0 SWAP1 DUP2 MSTORE PUSH1 0xA PUSH1 0x20 SWAP1 DUP2 MSTORE PUSH1 0x40 DUP1 DUP4 KECCAK256 DUP1 SLOAD PUSH10 0xFFFFFFFFFFFFFFFFFFFF NOT AND DUP7 OR SWAP1 SSTORE DUP5 DUP4 MSTORE PUSH1 0xB DUP3 MSTORE SWAP2 DUP3 SWAP1 KECCAK256 DUP7 MLOAD DUP2 SLOAD SWAP1 DUP6 AND PUSH1 0x1 PUSH1 0x1 PUSH1 0xA0 SHL SUB NOT SWAP2 DUP3 AND OR DUP3 SSTORE SWAP2 DUP8 ADD MLOAD SWAP6 ADD DUP1 SLOAD SWAP3 DUP8 ADD MLOAD PUSH3 0xFFFFFF AND PUSH1 0x1 PUSH1 0xA0 SHL MUL PUSH3 0xFFFFFF PUSH1 0xA0 SHL NOT SWAP7 SWAP1 SWAP5 AND SWAP3 SWAP1 SWAP2 AND SWAP2 SWAP1 SWAP2 OR SWAP4 SWAP1 SWAP4 AND OR SWAP1 SWAP2 SSTORE SWAP3 SWAP2 POP POP JUMP JUMPDEST PUSH2 0x34E5 DUP5 DUP5 DUP5 PUSH2 0x30E3 JUMP JUMPDEST PUSH2 0x34F1 DUP5 DUP5 DUP5 DUP5 PUSH2 0x3CD2 JUMP JUMPDEST PUSH2 0x239C JUMPI PUSH1 0x40 MLOAD PUSH3 0x461BCD PUSH1 0xE5 SHL DUP2 MSTORE PUSH1 0x4 ADD PUSH2 0x276 SWAP1 PUSH2 0x4F83 JUMP JUMPDEST PUSH1 0x0 PUSH2 0x3519 DUP4 DUP4 PUSH2 0x2C79 JUMP JUMPDEST SWAP1 POP CALLER PUSH1 0x1 PUSH1 0x1 PUSH1 0xA0 SHL SUB DUP3 AND EQ PUSH2 0x129F JUMPI PUSH1 0x0 DUP1 REVERT JUMPDEST PUSH32 0x0 PUSH1 0x1 PUSH1 0x1 PUSH1 0xA0 SHL SUB AND DUP5 PUSH1 0x1 PUSH1 0x1 PUSH1 0xA0 SHL SUB AND EQ DUP1 ISZERO PUSH2 0x3571 JUMPI POP DUP1 SELFBALANCE LT ISZERO JUMPDEST ISZERO PUSH2 0x3690 JUMPI PUSH32 0x0 PUSH1 0x1 PUSH1 0x1 PUSH1 0xA0 SHL SUB AND PUSH4 0xD0E30DB0 DUP3 PUSH1 0x40 MLOAD DUP3 PUSH4 0xFFFFFFFF AND PUSH1 0xE0 SHL DUP2 MSTORE PUSH1 0x4 ADD PUSH1 0x0 PUSH1 0x40 MLOAD DUP1 DUP4 SUB DUP2 DUP6 DUP9 DUP1 EXTCODESIZE ISZERO DUP1 ISZERO PUSH2 0x35D1 JUMPI PUSH1 0x0 DUP1 REVERT JUMPDEST POP GAS CALL ISZERO DUP1 ISZERO PUSH2 0x35E5 JUMPI RETURNDATASIZE PUSH1 0x0 DUP1 RETURNDATACOPY RETURNDATASIZE PUSH1 0x0 REVERT JUMPDEST POP POP PUSH1 0x40 MLOAD PUSH4 0xA9059CBB PUSH1 0xE0 SHL DUP2 MSTORE PUSH1 0x1 PUSH1 0x1 PUSH1 0xA0 SHL SUB PUSH32 0x0 AND SWAP4 POP PUSH4 0xA9059CBB SWAP3 POP PUSH2 0x3638 SWAP2 POP DUP6 SWAP1 DUP6 SWAP1 PUSH1 0x4 ADD PUSH2 0x4D9A JUMP JUMPDEST PUSH1 0x20 PUSH1 0x40 MLOAD DUP1 DUP4 SUB DUP2 PUSH1 0x0 DUP8 DUP1 EXTCODESIZE ISZERO DUP1 ISZERO PUSH2 0x3652 JUMPI PUSH1 0x0 DUP1 REVERT JUMPDEST POP GAS CALL ISZERO DUP1 ISZERO PUSH2 0x3666 JUMPI RETURNDATASIZE PUSH1 0x0 DUP1 RETURNDATACOPY RETURNDATASIZE PUSH1 0x0 REVERT JUMPDEST POP POP POP POP PUSH1 0x40 MLOAD RETURNDATASIZE PUSH1 0x1F NOT PUSH1 0x1F DUP3 ADD AND DUP3 ADD DUP1 PUSH1 0x40 MSTORE POP DUP2 ADD SWAP1 PUSH2 0x368A SWAP2 SWAP1 PUSH2 0x4695 JUMP JUMPDEST POP PUSH2 0x239C JUMP JUMPDEST PUSH1 0x1 PUSH1 0x1 PUSH1 0xA0 SHL SUB DUP4 AND ADDRESS EQ ISZERO PUSH2 0x36B1 JUMPI PUSH2 0x36AC DUP5 DUP4 DUP4 PUSH2 0x36BD JUMP JUMPDEST PUSH2 0x239C JUMP JUMPDEST PUSH2 0x239C DUP5 DUP5 DUP5 DUP5 PUSH2 0x3DB1 JUMP JUMPDEST PUSH1 0x0 DUP1 DUP5 PUSH1 0x1 PUSH1 0x1 PUSH1 0xA0 SHL SUB AND PUSH4 0xA9059CBB PUSH1 0xE0 SHL DUP6 DUP6 PUSH1 0x40 MLOAD PUSH1 0x24 ADD PUSH2 0x36E5 SWAP3 SWAP2 SWAP1 PUSH2 0x4D9A JUMP JUMPDEST PUSH1 0x40 DUP1 MLOAD PUSH1 0x1F NOT DUP2 DUP5 SUB ADD DUP2 MSTORE SWAP2 DUP2 MSTORE PUSH1 0x20 DUP3 ADD DUP1 MLOAD PUSH1 0x1 PUSH1 0x1 PUSH1 0xE0 SHL SUB AND PUSH1 0x1 PUSH1 0x1 PUSH1 0xE0 SHL SUB NOT SWAP1 SWAP5 AND SWAP4 SWAP1 SWAP4 OR SWAP1 SWAP3 MSTORE SWAP1 MLOAD PUSH2 0x3723 SWAP2 SWAP1 PUSH2 0x4B50 JUMP JUMPDEST PUSH1 0x0 PUSH1 0x40 MLOAD DUP1 DUP4 SUB DUP2 PUSH1 0x0 DUP7 GAS CALL SWAP2 POP POP RETURNDATASIZE DUP1 PUSH1 0x0 DUP2 EQ PUSH2 0x3760 JUMPI PUSH1 0x40 MLOAD SWAP2 POP PUSH1 0x1F NOT PUSH1 0x3F RETURNDATASIZE ADD AND DUP3 ADD PUSH1 0x40 MSTORE RETURNDATASIZE DUP3 MSTORE RETURNDATASIZE PUSH1 0x0 PUSH1 0x20 DUP5 ADD RETURNDATACOPY PUSH2 0x3765 JUMP JUMPDEST PUSH1 0x60 SWAP2 POP JUMPDEST POP SWAP2 POP SWAP2 POP DUP2 DUP1 ISZERO PUSH2 0x378F JUMPI POP DUP1 MLOAD ISZERO DUP1 PUSH2 0x378F JUMPI POP DUP1 DUP1 PUSH1 0x20 ADD SWAP1 MLOAD DUP2 ADD SWAP1 PUSH2 0x378F SWAP2 SWAP1 PUSH2 0x4695 JUMP JUMPDEST PUSH2 0x2587 JUMPI PUSH1 0x40 MLOAD PUSH3 0x461BCD PUSH1 0xE5 SHL DUP2 MSTORE PUSH1 0x4 ADD PUSH2 0x276 SWAP1 PUSH2 0x535B JUMP JUMPDEST PUSH1 0x0 PUSH2 0x129C DUP4 DUP4 PUSH2 0x3EA1 JUMP JUMPDEST SLOAD SWAP1 JUMP JUMPDEST PUSH1 0x0 DUP1 PUSH1 0x0 DUP4 PUSH1 0x2 SIGNEXTEND SLT PUSH2 0x37D2 JUMPI DUP3 PUSH1 0x2 SIGNEXTEND PUSH2 0x37DA JUMP JUMPDEST DUP3 PUSH1 0x2 SIGNEXTEND PUSH1 0x0 SUB JUMPDEST SWAP1 POP PUSH3 0xD89E8 DUP2 GT ISZERO PUSH2 0x37FF JUMPI PUSH1 0x40 MLOAD PUSH3 0x461BCD PUSH1 0xE5 SHL DUP2 MSTORE PUSH1 0x4 ADD PUSH2 0x276 SWAP1 PUSH2 0x52C9 JUMP JUMPDEST PUSH1 0x0 PUSH1 0x1 DUP3 AND PUSH2 0x3813 JUMPI PUSH1 0x1 PUSH1 0x80 SHL PUSH2 0x3825 JUMP JUMPDEST PUSH16 0xFFFCB933BD6FAD37AA2D162D1A594001 JUMPDEST PUSH17 0xFFFFFFFFFFFFFFFFFFFFFFFFFFFFFFFFFF AND SWAP1 POP PUSH1 0x2 DUP3 AND ISZERO PUSH2 0x3859 JUMPI PUSH16 0xFFF97272373D413259A46990580E213A MUL PUSH1 0x80 SHR JUMPDEST PUSH1 0x4 DUP3 AND ISZERO PUSH2 0x3878 JUMPI PUSH16 0xFFF2E50F5F656932EF12357CF3C7FDCC MUL PUSH1 0x80 SHR JUMPDEST PUSH1 0x8 DUP3 AND ISZERO PUSH2 0x3897 JUMPI PUSH16 0xFFE5CACA7E10E4E61C3624EAA0941CD0 MUL PUSH1 0x80 SHR JUMPDEST PUSH1 0x10 DUP3 AND ISZERO PUSH2 0x38B6 JUMPI PUSH16 0xFFCB9843D60F6159C9DB58835C926644 MUL PUSH1 0x80 SHR JUMPDEST PUSH1 0x20 DUP3 AND ISZERO PUSH2 0x38D5 JUMPI PUSH16 0xFF973B41FA98C081472E6896DFB254C0 MUL PUSH1 0x80 SHR JUMPDEST PUSH1 0x40 DUP3 AND ISZERO PUSH2 0x38F4 JUMPI PUSH16 0xFF2EA16466C96A3843EC78B326B52861 MUL PUSH1 0x80 SHR JUMPDEST PUSH1 0x80 DUP3 AND ISZERO PUSH2 0x3913 JUMPI PUSH16 0xFE5DEE046A99A2A811C461F1969C3053 MUL PUSH1 0x80 SHR JUMPDEST PUSH2 0x100 DUP3 AND ISZERO PUSH2 0x3933 JUMPI PUSH16 0xFCBE86C7900A88AEDCFFC83B479AA3A4 MUL PUSH1 0x80 SHR JUMPDEST PUSH2 0x200 DUP3 AND ISZERO PUSH2 0x3953 JUMPI PUSH16 0xF987A7253AC413176F2B074CF7815E54 MUL PUSH1 0x80 SHR JUMPDEST PUSH2 0x400 DUP3 AND ISZERO PUSH2 0x3973 JUMPI PUSH16 0xF3392B0822B70005940C7A398E4B70F3 MUL PUSH1 0x80 SHR JUMPDEST PUSH2 0x800 DUP3 AND ISZERO PUSH2 0x3993 JUMPI PUSH16 0xE7159475A2C29B7443B29C7FA6E889D9 MUL PUSH1 0x80 SHR JUMPDEST PUSH2 0x1000 DUP3 AND ISZERO PUSH2 0x39B3 JUMPI PUSH16 0xD097F3BDFD2022B8845AD8F792AA5825 MUL PUSH1 0x80 SHR JUMPDEST PUSH2 0x2000 DUP3 AND ISZERO PUSH2 0x39D3 JUMPI PUSH16 0xA9F746462D870FDF8A65DC1F90E061E5 MUL PUSH1 0x80 SHR JUMPDEST PUSH2 0x4000 DUP3 AND ISZERO PUSH2 0x39F3 JUMPI PUSH16 0x70D869A156D2A1B890BB3DF62BAF32F7 MUL PUSH1 0x80 SHR JUMPDEST PUSH2 0x8000 DUP3 AND ISZERO PUSH2 0x3A13 JUMPI PUSH16 0x31BE135F97D08FD981231505542FCFA6 MUL PUSH1 0x80 SHR JUMPDEST PUSH3 0x10000 DUP3 AND ISZERO PUSH2 0x3A34 JUMPI PUSH16 0x9AA508B5B7A84E1C677DE54F3E99BC9 MUL PUSH1 0x80 SHR JUMPDEST PUSH3 0x20000 DUP3 AND ISZERO PUSH2 0x3A54 JUMPI PUSH15 0x5D6AF8DEDB81196699C329225EE604 MUL PUSH1 0x80 SHR JUMPDEST PUSH3 0x40000 DUP3 AND ISZERO PUSH2 0x3A73 JUMPI PUSH14 0x2216E584F5FA1EA926041BEDFE98 MUL PUSH1 0x80 SHR JUMPDEST PUSH3 0x80000 DUP3 AND ISZERO PUSH2 0x3A90 JUMPI PUSH12 0x48A170391F7DC42444E8FA2 MUL PUSH1 0x80 SHR JUMPDEST PUSH1 0x0 DUP5 PUSH1 0x2 SIGNEXTEND SGT ISZERO PUSH2 0x3AAB JUMPI DUP1 PUSH1 0x0 NOT DUP2 PUSH2 0x3AA7 JUMPI INVALID JUMPDEST DIV SWAP1 POP JUMPDEST PUSH5 0x100000000 DUP2 MOD ISZERO PUSH2 0x3ABF JUMPI PUSH1 0x1 PUSH2 0x3AC2 JUMP JUMPDEST PUSH1 0x0 JUMPDEST PUSH1 0xFF AND PUSH1 0x20 DUP3 SWAP1 SHR ADD SWAP3 POP POP POP SWAP2 SWAP1 POP JUMP JUMPDEST PUSH1 0x0 DUP4 PUSH1 0x1 PUSH1 0x1 PUSH1 0xA0 SHL SUB AND DUP6 PUSH1 0x1 PUSH1 0x1 PUSH1 0xA0 SHL SUB AND GT ISZERO PUSH2 0x3AF4 JUMPI SWAP3 SWAP4 SWAP3 JUMPDEST DUP5 PUSH1 0x1 PUSH1 0x1 PUSH1 0xA0 SHL SUB AND DUP7 PUSH1 0x1 PUSH1 0x1 PUSH1 0xA0 SHL SUB AND GT PUSH2 0x3B1F JUMPI PUSH2 0x3B18 DUP6 DUP6 DUP6 PUSH2 0x3EB9 JUMP JUMPDEST SWAP1 POP PUSH2 0x3B8F JUMP JUMPDEST DUP4 PUSH1 0x1 PUSH1 0x1 PUSH1 0xA0 SHL SUB AND DUP7 PUSH1 0x1 PUSH1 0x1 PUSH1 0xA0 SHL SUB AND LT ISZERO PUSH2 0x3B81 JUMPI PUSH1 0x0 PUSH2 0x3B46 DUP8 DUP7 DUP7 PUSH2 0x3EB9 JUMP JUMPDEST SWAP1 POP PUSH1 0x0 PUSH2 0x3B55 DUP8 DUP10 DUP7 PUSH2 0x3F1C JUMP JUMPDEST SWAP1 POP DUP1 PUSH1 0x1 PUSH1 0x1 PUSH1 0x80 SHL SUB AND DUP3 PUSH1 0x1 PUSH1 0x1 PUSH1 0x80 SHL SUB AND LT PUSH2 0x3B76 JUMPI DUP1 PUSH2 0x3B78 JUMP JUMPDEST DUP2 JUMPDEST SWAP3 POP POP POP PUSH2 0x3B8F JUMP JUMPDEST PUSH2 0x3B8C DUP6 DUP6 DUP5 PUSH2 0x3F1C JUMP JUMPDEST SWAP1 POP JUMPDEST SWAP6 SWAP5 POP POP POP POP POP JUMP JUMPDEST PUSH1 0x0 PUSH2 0x129C DUP4 DUP4 PUSH2 0x3F59 JUMP JUMPDEST PUSH1 0x0 PUSH2 0x129C DUP4 DUP4 PUSH2 0x401F JUMP JUMPDEST PUSH1 0x0 PUSH2 0xF3F DUP5 DUP5 PUSH1 0x1 PUSH1 0x1 PUSH1 0xA0 SHL SUB DUP6 AND PUSH2 0x4069 JUMP JUMPDEST DUP2 SLOAD PUSH1 0x0 SWAP1 DUP3 LT PUSH2 0x3BE9 JUMPI PUSH1 0x40 MLOAD PUSH3 0x461BCD PUSH1 0xE5 SHL DUP2 MSTORE PUSH1 0x4 ADD PUSH2 0x276 SWAP1 PUSH2 0x4F1B JUMP JUMPDEST DUP3 PUSH1 0x0 ADD DUP3 DUP2 SLOAD DUP2 LT PUSH2 0x3BF8 JUMPI INVALID JUMPDEST SWAP1 PUSH1 0x0 MSTORE PUSH1 0x20 PUSH1 0x0 KECCAK256 ADD SLOAD SWAP1 POP SWAP3 SWAP2 POP POP JUMP JUMPDEST PUSH1 0x0 PUSH2 0x129C DUP4 DUP4 PUSH2 0x4100 JUMP JUMPDEST DUP2 SLOAD PUSH1 0x0 SWAP1 DUP2 SWAP1 DUP4 LT PUSH2 0x3C3C JUMPI PUSH1 0x40 MLOAD PUSH3 0x461BCD PUSH1 0xE5 SHL DUP2 MSTORE PUSH1 0x4 ADD PUSH2 0x276 SWAP1 PUSH2 0x52E4 JUMP JUMPDEST PUSH1 0x0 DUP5 PUSH1 0x0 ADD DUP5 DUP2 SLOAD DUP2 LT PUSH2 0x3C4D JUMPI INVALID JUMPDEST SWAP1 PUSH1 0x0 MSTORE PUSH1 0x20 PUSH1 0x0 KECCAK256 SWAP1 PUSH1 0x2 MUL ADD SWAP1 POP DUP1 PUSH1 0x0 ADD SLOAD DUP2 PUSH1 0x1 ADD SLOAD SWAP3 POP SWAP3 POP POP SWAP3 POP SWAP3 SWAP1 POP JUMP JUMPDEST PUSH1 0x0 DUP3 DUP2 MSTORE PUSH1 0x1 DUP5 ADD PUSH1 0x20 MSTORE PUSH1 0x40 DUP2 KECCAK256 SLOAD DUP3 DUP2 PUSH2 0x3CA3 JUMPI PUSH1 0x40 MLOAD PUSH3 0x461BCD PUSH1 0xE5 SHL DUP2 MSTORE PUSH1 0x4 ADD PUSH2 0x276 SWAP2 SWAP1 PUSH2 0x4EDC JUMP JUMPDEST POP DUP5 PUSH1 0x0 ADD PUSH1 0x1 DUP3 SUB DUP2 SLOAD DUP2 LT PUSH2 0x3CB6 JUMPI INVALID JUMPDEST SWAP1 PUSH1 0x0 MSTORE PUSH1 0x20 PUSH1 0x0 KECCAK256 SWAP1 PUSH1 0x2 MUL ADD PUSH1 0x1 ADD SLOAD SWAP2 POP POP SWAP4 SWAP3 POP POP POP JUMP JUMPDEST PUSH1 0x0 PUSH2 0x3CE6 DUP5 PUSH1 0x1 PUSH1 0x1 PUSH1 0xA0 SHL SUB AND PUSH2 0x332E JUMP JUMPDEST PUSH2 0x3CF2 JUMPI POP PUSH1 0x1 PUSH2 0xF3F JUMP JUMPDEST PUSH1 0x0 PUSH2 0x3D7A PUSH4 0xA85BD01 PUSH1 0xE1 SHL PUSH2 0x3D07 PUSH2 0x2B7E JUMP JUMPDEST DUP9 DUP8 DUP8 PUSH1 0x40 MLOAD PUSH1 0x24 ADD PUSH2 0x3D1D SWAP5 SWAP4 SWAP3 SWAP2 SWAP1 PUSH2 0x4BE8 JUMP JUMPDEST PUSH1 0x40 MLOAD PUSH1 0x20 DUP2 DUP4 SUB SUB DUP2 MSTORE SWAP1 PUSH1 0x40 MSTORE SWAP1 PUSH1 0x1 PUSH1 0x1 PUSH1 0xE0 SHL SUB NOT AND PUSH1 0x20 DUP3 ADD DUP1 MLOAD PUSH1 0x1 PUSH1 0x1 PUSH1 0xE0 SHL SUB DUP4 DUP2 DUP4 AND OR DUP4 MSTORE POP POP POP POP PUSH1 0x40 MLOAD DUP1 PUSH1 0x60 ADD PUSH1 0x40 MSTORE DUP1 PUSH1 0x32 DUP2 MSTORE PUSH1 0x20 ADD PUSH2 0x5810 PUSH1 0x32 SWAP2 CODECOPY PUSH1 0x1 PUSH1 0x1 PUSH1 0xA0 SHL SUB DUP9 AND SWAP2 SWAP1 PUSH2 0x41D4 JUMP JUMPDEST SWAP1 POP PUSH1 0x0 DUP2 DUP1 PUSH1 0x20 ADD SWAP1 MLOAD DUP2 ADD SWAP1 PUSH2 0x3D92 SWAP2 SWAP1 PUSH2 0x46CD JUMP JUMPDEST PUSH1 0x1 PUSH1 0x1 PUSH1 0xE0 SHL SUB NOT AND PUSH4 0xA85BD01 PUSH1 0xE1 SHL EQ SWAP3 POP POP POP SWAP5 SWAP4 POP POP POP POP JUMP JUMPDEST PUSH1 0x0 DUP1 DUP6 PUSH1 0x1 PUSH1 0x1 PUSH1 0xA0 SHL SUB AND PUSH4 0x23B872DD PUSH1 0xE0 SHL DUP7 DUP7 DUP7 PUSH1 0x40 MLOAD PUSH1 0x24 ADD PUSH2 0x3DDB SWAP4 SWAP3 SWAP2 SWAP1 PUSH2 0x4CCD JUMP JUMPDEST PUSH1 0x40 DUP1 MLOAD PUSH1 0x1F NOT DUP2 DUP5 SUB ADD DUP2 MSTORE SWAP2 DUP2 MSTORE PUSH1 0x20 DUP3 ADD DUP1 MLOAD PUSH1 0x1 PUSH1 0x1 PUSH1 0xE0 SHL SUB AND PUSH1 0x1 PUSH1 0x1 PUSH1 0xE0 SHL SUB NOT SWAP1 SWAP5 AND SWAP4 SWAP1 SWAP4 OR SWAP1 SWAP3 MSTORE SWAP1 MLOAD PUSH2 0x3E19 SWAP2 SWAP1 PUSH2 0x4B50 JUMP JUMPDEST PUSH1 0x0 PUSH1 0x40 MLOAD DUP1 DUP4 SUB DUP2 PUSH1 0x0 DUP7 GAS CALL SWAP2 POP POP RETURNDATASIZE DUP1 PUSH1 0x0 DUP2 EQ PUSH2 0x3E56 JUMPI PUSH1 0x40 MLOAD SWAP2 POP PUSH1 0x1F NOT PUSH1 0x3F RETURNDATASIZE ADD AND DUP3 ADD PUSH1 0x40 MSTORE RETURNDATASIZE DUP3 MSTORE RETURNDATASIZE PUSH1 0x0 PUSH1 0x20 DUP5 ADD RETURNDATACOPY PUSH2 0x3E5B JUMP JUMPDEST PUSH1 0x60 SWAP2 POP JUMPDEST POP SWAP2 POP SWAP2 POP DUP2 DUP1 ISZERO PUSH2 0x3E85 JUMPI POP DUP1 MLOAD ISZERO DUP1 PUSH2 0x3E85 JUMPI POP DUP1 DUP1 PUSH1 0x20 ADD SWAP1 MLOAD DUP2 ADD SWAP1 PUSH2 0x3E85 SWAP2 SWAP1 PUSH2 0x4695 JUMP JUMPDEST PUSH2 0x221B JUMPI PUSH1 0x40 MLOAD PUSH3 0x461BCD PUSH1 0xE5 SHL DUP2 MSTORE PUSH1 0x4 ADD PUSH2 0x276 SWAP1 PUSH2 0x542F JUMP JUMPDEST PUSH1 0x0 SWAP1 DUP2 MSTORE PUSH1 0x1 SWAP2 SWAP1 SWAP2 ADD PUSH1 0x20 MSTORE PUSH1 0x40 SWAP1 KECCAK256 SLOAD ISZERO ISZERO SWAP1 JUMP JUMPDEST PUSH1 0x0 DUP3 PUSH1 0x1 PUSH1 0x1 PUSH1 0xA0 SHL SUB AND DUP5 PUSH1 0x1 PUSH1 0x1 PUSH1 0xA0 SHL SUB AND GT ISZERO PUSH2 0x3ED9 JUMPI SWAP2 SWAP3 SWAP2 JUMPDEST PUSH1 0x0 PUSH2 0x3EFC DUP6 PUSH1 0x1 PUSH1 0x1 PUSH1 0xA0 SHL SUB AND DUP6 PUSH1 0x1 PUSH1 0x1 PUSH1 0xA0 SHL SUB AND PUSH1 0x1 PUSH1 0x60 SHL PUSH2 0x2D61 JUMP JUMPDEST SWAP1 POP PUSH2 0x3B8F PUSH2 0x3F17 DUP5 DUP4 DUP9 DUP9 SUB PUSH1 0x1 PUSH1 0x1 PUSH1 0xA0 SHL SUB AND PUSH2 0x2D61 JUMP JUMPDEST PUSH2 0x41E3 JUMP JUMPDEST PUSH1 0x0 DUP3 PUSH1 0x1 PUSH1 0x1 PUSH1 0xA0 SHL SUB AND DUP5 PUSH1 0x1 PUSH1 0x1 PUSH1 0xA0 SHL SUB AND GT ISZERO PUSH2 0x3F3C JUMPI SWAP2 SWAP3 SWAP2 JUMPDEST PUSH2 0xF3F PUSH2 0x3F17 DUP4 PUSH1 0x1 PUSH1 0x60 SHL DUP8 DUP8 SUB PUSH1 0x1 PUSH1 0x1 PUSH1 0xA0 SHL SUB AND PUSH2 0x2D61 JUMP JUMPDEST PUSH1 0x0 DUP2 DUP2 MSTORE PUSH1 0x1 DUP4 ADD PUSH1 0x20 MSTORE PUSH1 0x40 DUP2 KECCAK256 SLOAD DUP1 ISZERO PUSH2 0x4015 JUMPI DUP4 SLOAD PUSH1 0x0 NOT DUP1 DUP4 ADD SWAP2 SWAP1 DUP2 ADD SWAP1 PUSH1 0x0 SWAP1 DUP8 SWAP1 DUP4 SWAP1 DUP2 LT PUSH2 0x3F8C JUMPI INVALID JUMPDEST SWAP1 PUSH1 0x0 MSTORE PUSH1 0x20 PUSH1 0x0 KECCAK256 ADD SLOAD SWAP1 POP DUP1 DUP8 PUSH1 0x0 ADD DUP5 DUP2 SLOAD DUP2 LT PUSH2 0x3FA9 JUMPI INVALID JUMPDEST PUSH1 0x0 SWAP2 DUP3 MSTORE PUSH1 0x20 DUP1 DUP4 KECCAK256 SWAP1 SWAP2 ADD SWAP3 SWAP1 SWAP3 SSTORE DUP3 DUP2 MSTORE PUSH1 0x1 DUP10 DUP2 ADD SWAP1 SWAP3 MSTORE PUSH1 0x40 SWAP1 KECCAK256 SWAP1 DUP5 ADD SWAP1 SSTORE DUP7 SLOAD DUP8 SWAP1 DUP1 PUSH2 0x3FD9 JUMPI INVALID JUMPDEST PUSH1 0x1 SWAP1 SUB DUP2 DUP2 SWAP1 PUSH1 0x0 MSTORE PUSH1 0x20 PUSH1 0x0 KECCAK256 ADD PUSH1 0x0 SWAP1 SSTORE SWAP1 SSTORE DUP7 PUSH1 0x1 ADD PUSH1 0x0 DUP8 DUP2 MSTORE PUSH1 0x20 ADD SWAP1 DUP2 MSTORE PUSH1 0x20 ADD PUSH1 0x0 KECCAK256 PUSH1 0x0 SWAP1 SSTORE PUSH1 0x1 SWAP5 POP POP POP POP POP PUSH2 0x129F JUMP JUMPDEST PUSH1 0x0 SWAP2 POP POP PUSH2 0x129F JUMP JUMPDEST PUSH1 0x0 PUSH2 0x402B DUP4 DUP4 PUSH2 0x3EA1 JUMP JUMPDEST PUSH2 0x4061 JUMPI POP DUP2 SLOAD PUSH1 0x1 DUP2 DUP2 ADD DUP5 SSTORE PUSH1 0x0 DUP5 DUP2 MSTORE PUSH1 0x20 DUP1 DUP3 KECCAK256 SWAP1 SWAP4 ADD DUP5 SWAP1 SSTORE DUP5 SLOAD DUP5 DUP3 MSTORE DUP3 DUP7 ADD SWAP1 SWAP4 MSTORE PUSH1 0x40 SWAP1 KECCAK256 SWAP2 SWAP1 SWAP2 SSTORE PUSH2 0x129F JUMP JUMPDEST POP PUSH1 0x0 PUSH2 0x129F JUMP JUMPDEST PUSH1 0x0 DUP3 DUP2 MSTORE PUSH1 0x1 DUP5 ADD PUSH1 0x20 MSTORE PUSH1 0x40 DUP2 KECCAK256 SLOAD DUP1 PUSH2 0x40CE JUMPI POP POP PUSH1 0x40 DUP1 MLOAD DUP1 DUP3 ADD DUP3 MSTORE DUP4 DUP2 MSTORE PUSH1 0x20 DUP1 DUP3 ADD DUP5 DUP2 MSTORE DUP7 SLOAD PUSH1 0x1 DUP2 DUP2 ADD DUP10 SSTORE PUSH1 0x0 DUP10 DUP2 MSTORE DUP5 DUP2 KECCAK256 SWAP6 MLOAD PUSH1 0x2 SWAP1 SWAP4 MUL SWAP1 SWAP6 ADD SWAP2 DUP3 SSTORE SWAP2 MLOAD SWAP1 DUP3 ADD SSTORE DUP7 SLOAD DUP7 DUP5 MSTORE DUP2 DUP9 ADD SWAP1 SWAP3 MSTORE SWAP3 SWAP1 SWAP2 KECCAK256 SSTORE PUSH2 0x2D5A JUMP JUMPDEST DUP3 DUP6 PUSH1 0x0 ADD PUSH1 0x1 DUP4 SUB DUP2 SLOAD DUP2 LT PUSH2 0x40E1 JUMPI INVALID JUMPDEST SWAP1 PUSH1 0x0 MSTORE PUSH1 0x20 PUSH1 0x0 KECCAK256 SWAP1 PUSH1 0x2 MUL ADD PUSH1 0x1 ADD DUP2 SWAP1 SSTORE POP PUSH1 0x0 SWAP2 POP POP PUSH2 0x2D5A JUMP JUMPDEST PUSH1 0x0 DUP2 DUP2 MSTORE PUSH1 0x1 DUP4 ADD PUSH1 0x20 MSTORE PUSH1 0x40 DUP2 KECCAK256 SLOAD DUP1 ISZERO PUSH2 0x4015 JUMPI DUP4 SLOAD PUSH1 0x0 NOT DUP1 DUP4 ADD SWAP2 SWAP1 DUP2 ADD SWAP1 PUSH1 0x0 SWAP1 DUP8 SWAP1 DUP4 SWAP1 DUP2 LT PUSH2 0x4133 JUMPI INVALID JUMPDEST SWAP1 PUSH1 0x0 MSTORE PUSH1 0x20 PUSH1 0x0 KECCAK256 SWAP1 PUSH1 0x2 MUL ADD SWAP1 POP DUP1 DUP8 PUSH1 0x0 ADD DUP5 DUP2 SLOAD DUP2 LT PUSH2 0x4153 JUMPI INVALID JUMPDEST PUSH1 0x0 SWAP2 DUP3 MSTORE PUSH1 0x20 DUP1 DUP4 KECCAK256 DUP5 SLOAD PUSH1 0x2 SWAP1 SWAP4 MUL ADD SWAP2 DUP3 SSTORE PUSH1 0x1 SWAP4 DUP5 ADD SLOAD SWAP2 DUP5 ADD SWAP2 SWAP1 SWAP2 SSTORE DUP4 SLOAD DUP3 MSTORE DUP10 DUP4 ADD SWAP1 MSTORE PUSH1 0x40 SWAP1 KECCAK256 SWAP1 DUP5 ADD SWAP1 SSTORE DUP7 SLOAD DUP8 SWAP1 DUP1 PUSH2 0x4192 JUMPI INVALID JUMPDEST PUSH1 0x0 DUP3 DUP2 MSTORE PUSH1 0x20 DUP1 DUP3 KECCAK256 PUSH1 0x2 PUSH1 0x0 NOT SWAP1 SWAP5 ADD SWAP4 DUP5 MUL ADD DUP3 DUP2 SSTORE PUSH1 0x1 SWAP1 DUP2 ADD DUP4 SWAP1 SSTORE SWAP3 SWAP1 SWAP4 SSTORE DUP9 DUP2 MSTORE DUP10 DUP3 ADD SWAP1 SWAP3 MSTORE PUSH1 0x40 DUP3 KECCAK256 SWAP2 SWAP1 SWAP2 SSTORE SWAP5 POP PUSH2 0x129F SWAP4 POP POP POP POP JUMP JUMPDEST PUSH1 0x60 PUSH2 0xF3F DUP5 DUP5 PUSH1 0x0 DUP6 PUSH2 0x41F9 JUMP JUMPDEST DUP1 PUSH1 0x1 PUSH1 0x1 PUSH1 0x80 SHL SUB DUP2 AND DUP2 EQ PUSH2 0x6CD JUMPI PUSH1 0x0 DUP1 REVERT JUMPDEST PUSH1 0x60 DUP3 SELFBALANCE LT ISZERO PUSH2 0x421B JUMPI PUSH1 0x40 MLOAD PUSH3 0x461BCD PUSH1 0xE5 SHL DUP2 MSTORE PUSH1 0x4 ADD PUSH2 0x276 SWAP1 PUSH2 0x516A JUMP JUMPDEST PUSH2 0x4224 DUP6 PUSH2 0x332E JUMP JUMPDEST PUSH2 0x4240 JUMPI PUSH1 0x40 MLOAD PUSH3 0x461BCD PUSH1 0xE5 SHL DUP2 MSTORE PUSH1 0x4 ADD PUSH2 0x276 SWAP1 PUSH2 0x5563 JUMP JUMPDEST PUSH1 0x0 DUP1 DUP7 PUSH1 0x1 PUSH1 0x1 PUSH1 0xA0 SHL SUB AND DUP6 DUP8 PUSH1 0x40 MLOAD PUSH2 0x425C SWAP2 SWAP1 PUSH2 0x4B50 JUMP JUMPDEST PUSH1 0x0 PUSH1 0x40 MLOAD DUP1 DUP4 SUB DUP2 DUP6 DUP8 GAS CALL SWAP3 POP POP POP RETURNDATASIZE DUP1 PUSH1 0x0 DUP2 EQ PUSH2 0x4299 JUMPI PUSH1 0x40 MLOAD SWAP2 POP PUSH1 0x1F NOT PUSH1 0x3F RETURNDATASIZE ADD AND DUP3 ADD PUSH1 0x40 MSTORE RETURNDATASIZE DUP3 MSTORE RETURNDATASIZE PUSH1 0x0 PUSH1 0x20 DUP5 ADD RETURNDATACOPY PUSH2 0x429E JUMP JUMPDEST PUSH1 0x60 SWAP2 POP JUMPDEST POP SWAP2 POP SWAP2 POP PUSH2 0x42AE DUP3 DUP3 DUP7 PUSH2 0x42B9 JUMP JUMPDEST SWAP8 SWAP7 POP POP POP POP POP POP POP JUMP JUMPDEST PUSH1 0x60 DUP4 ISZERO PUSH2 0x42C8 JUMPI POP DUP2 PUSH2 0x2D5A JUMP JUMPDEST DUP3 MLOAD ISZERO PUSH2 0x42D8 JUMPI DUP3 MLOAD DUP1 DUP5 PUSH1 0x20 ADD REVERT JUMPDEST DUP2 PUSH1 0x40 MLOAD PUSH3 0x461BCD PUSH1 0xE5 SHL DUP2 MSTORE PUSH1 0x4 ADD PUSH2 0x276 SWAP2 SWAP1 PUSH2 0x4EDC JUMP JUMPDEST POP DUP1 SLOAD PUSH1 0x1 DUP2 PUSH1 0x1 AND ISZERO PUSH2 0x100 MUL SUB AND PUSH1 0x2 SWAP1 DIV PUSH1 0x0 DUP3 SSTORE DUP1 PUSH1 0x1F LT PUSH2 0x4318 JUMPI POP PUSH2 0x4336 JUMP JUMPDEST PUSH1 0x1F ADD PUSH1 0x20 SWAP1 DIV SWAP1 PUSH1 0x0 MSTORE PUSH1 0x20 PUSH1 0x0 KECCAK256 SWAP1 DUP2 ADD SWAP1 PUSH2 0x4336 SWAP2 SWAP1 PUSH2 0x4339 JUMP JUMPDEST POP JUMP JUMPDEST JUMPDEST DUP1 DUP3 GT ISZERO PUSH2 0x434E JUMPI PUSH1 0x0 DUP2 SSTORE PUSH1 0x1 ADD PUSH2 0x433A JUMP JUMPDEST POP SWAP1 JUMP JUMPDEST DUP1 CALLDATALOAD PUSH2 0x6CD DUP2 PUSH2 0x57A3 JUMP JUMPDEST DUP1 MLOAD PUSH2 0xFFFF DUP2 AND DUP2 EQ PUSH2 0x6CD JUMPI PUSH1 0x0 DUP1 REVERT JUMPDEST DUP1 CALLDATALOAD PUSH3 0xFFFFFF DUP2 AND DUP2 EQ PUSH2 0x6CD JUMPI PUSH1 0x0 DUP1 REVERT JUMPDEST PUSH1 0x0 PUSH1 0x20 DUP3 DUP5 SUB SLT ISZERO PUSH2 0x4393 JUMPI DUP1 DUP2 REVERT JUMPDEST DUP2 CALLDATALOAD PUSH2 0x2D5A DUP2 PUSH2 0x57A3 JUMP JUMPDEST PUSH1 0x0 PUSH1 0x20 DUP3 DUP5 SUB SLT ISZERO PUSH2 0x43AF JUMPI DUP1 DUP2 REVERT JUMPDEST DUP2 MLOAD PUSH2 0x2D5A DUP2 PUSH2 0x57A3 JUMP JUMPDEST PUSH1 0x0 DUP1 PUSH1 0x40 DUP4 DUP6 SUB SLT ISZERO PUSH2 0x43CC JUMPI DUP1 DUP2 REVERT JUMPDEST DUP3 CALLDATALOAD PUSH2 0x43D7 DUP2 PUSH2 0x57A3 JUMP JUMPDEST SWAP2 POP PUSH1 0x20 DUP4 ADD CALLDATALOAD PUSH2 0x43E7 DUP2 PUSH2 0x57A3 JUMP JUMPDEST DUP1 SWAP2 POP POP SWAP3 POP SWAP3 SWAP1 POP JUMP JUMPDEST PUSH1 0x0 DUP1 PUSH1 0x0 DUP1 PUSH1 0x80 DUP6 DUP8 SUB SLT ISZERO PUSH2 0x4407 JUMPI DUP2 DUP3 REVERT JUMPDEST DUP5 CALLDATALOAD PUSH2 0x4412 DUP2 PUSH2 0x57A3 JUMP JUMPDEST SWAP4 POP PUSH1 0x20 DUP6 ADD CALLDATALOAD PUSH2 0x4422 DUP2 PUSH2 0x57A3 JUMP JUMPDEST SWAP3 POP PUSH2 0x4430 PUSH1 0x40 DUP7 ADD PUSH2 0x436F JUMP JUMPDEST SWAP2 POP PUSH1 0x60 DUP6 ADD CALLDATALOAD PUSH2 0x4440 DUP2 PUSH2 0x57A3 JUMP JUMPDEST SWAP4 SWAP7 SWAP3 SWAP6 POP SWAP1 SWAP4 POP POP JUMP JUMPDEST PUSH1 0x0 DUP1 PUSH1 0x0 PUSH1 0x60 DUP5 DUP7 SUB SLT ISZERO PUSH2 0x445F JUMPI DUP1 DUP2 REVERT JUMPDEST DUP4 CALLDATALOAD PUSH2 0x446A DUP2 PUSH2 0x57A3 JUMP JUMPDEST SWAP3 POP PUSH1 0x20 DUP5 ADD CALLDATALOAD PUSH2 0x447A DUP2 PUSH2 0x57A3 JUMP JUMPDEST SWAP3 SWAP6 SWAP3 SWAP5 POP POP POP PUSH1 0x40 SWAP2 SWAP1 SWAP2 ADD CALLDATALOAD SWAP1 JUMP JUMPDEST PUSH1 0x0 DUP1 PUSH1 0x0 DUP1 PUSH1 0x80 DUP6 DUP8 SUB SLT ISZERO PUSH2 0x44A0 JUMPI DUP2 DUP3 REVERT JUMPDEST DUP5 CALLDATALOAD PUSH2 0x44AB DUP2 PUSH2 0x57A3 JUMP JUMPDEST SWAP4 POP PUSH1 0x20 DUP6 ADD CALLDATALOAD PUSH2 0x44BB DUP2 PUSH2 0x57A3 JUMP JUMPDEST SWAP3 POP PUSH1 0x40 DUP6 ADD CALLDATALOAD SWAP2 POP PUSH1 0x60 DUP6 ADD CALLDATALOAD PUSH8 0xFFFFFFFFFFFFFFFF DUP2 GT ISZERO PUSH2 0x44DD JUMPI DUP2 DUP3 REVERT JUMPDEST DUP6 ADD PUSH1 0x1F DUP2 ADD DUP8 SGT PUSH2 0x44ED JUMPI DUP2 DUP3 REVERT JUMPDEST DUP1 CALLDATALOAD PUSH2 0x4500 PUSH2 0x44FB DUP3 PUSH2 0x5755 JUMP JUMPDEST PUSH2 0x5731 JUMP JUMPDEST DUP2 DUP2 MSTORE DUP9 PUSH1 0x20 DUP4 DUP6 ADD ADD GT ISZERO PUSH2 0x4514 JUMPI DUP4 DUP5 REVERT JUMPDEST DUP2 PUSH1 0x20 DUP5 ADD PUSH1 0x20 DUP4 ADD CALLDATACOPY SWAP1 DUP2 ADD PUSH1 0x20 ADD SWAP3 SWAP1 SWAP3 MSTORE POP SWAP3 SWAP6 SWAP2 SWAP5 POP SWAP3 POP JUMP JUMPDEST PUSH1 0x0 DUP1 PUSH1 0x40 DUP4 DUP6 SUB SLT ISZERO PUSH2 0x4544 JUMPI DUP2 DUP3 REVERT JUMPDEST DUP3 CALLDATALOAD PUSH2 0x454F DUP2 PUSH2 0x57A3 JUMP JUMPDEST SWAP2 POP PUSH1 0x20 DUP4 ADD CALLDATALOAD PUSH2 0x43E7 DUP2 PUSH2 0x57B8 JUMP JUMPDEST PUSH1 0x0 DUP1 PUSH1 0x40 DUP4 DUP6 SUB SLT ISZERO PUSH2 0x4571 JUMPI DUP2 DUP3 REVERT JUMPDEST DUP3 CALLDATALOAD PUSH2 0x457C DUP2 PUSH2 0x57A3 JUMP JUMPDEST SWAP5 PUSH1 0x20 SWAP4 SWAP1 SWAP4 ADD CALLDATALOAD SWAP4 POP POP POP JUMP JUMPDEST PUSH1 0x0 DUP1 PUSH1 0x0 PUSH1 0x60 DUP5 DUP7 SUB SLT ISZERO PUSH2 0x459E JUMPI DUP1 DUP2 REVERT JUMPDEST DUP4 CALLDATALOAD PUSH2 0x45A9 DUP2 PUSH2 0x57A3 JUMP JUMPDEST SWAP3 POP PUSH1 0x20 DUP5 ADD CALLDATALOAD SWAP2 POP PUSH1 0x40 DUP5 ADD CALLDATALOAD PUSH2 0x45C0 DUP2 PUSH2 0x57A3 JUMP JUMPDEST DUP1 SWAP2 POP POP SWAP3 POP SWAP3 POP SWAP3 JUMP JUMPDEST PUSH1 0x0 DUP1 PUSH1 0x0 DUP1 PUSH1 0x0 DUP1 PUSH1 0xC0 DUP8 DUP10 SUB SLT ISZERO PUSH2 0x45E3 JUMPI DUP4 DUP5 REVERT JUMPDEST DUP7 CALLDATALOAD PUSH2 0x45EE DUP2 PUSH2 0x57A3 JUMP JUMPDEST SWAP6 POP PUSH1 0x20 DUP8 ADD CALLDATALOAD SWAP5 POP PUSH1 0x40 DUP8 ADD CALLDATALOAD SWAP4 POP PUSH1 0x60 DUP8 ADD CALLDATALOAD PUSH2 0x460C DUP2 PUSH2 0x5800 JUMP JUMPDEST SWAP6 SWAP9 SWAP5 SWAP8 POP SWAP3 SWAP6 PUSH1 0x80 DUP2 ADD CALLDATALOAD SWAP5 PUSH1 0xA0 SWAP1 SWAP2 ADD CALLDATALOAD SWAP4 POP SWAP2 POP POP JUMP JUMPDEST PUSH1 0x0 DUP1 PUSH1 0x20 DUP4 DUP6 SUB SLT ISZERO PUSH2 0x4638 JUMPI DUP2 DUP3 REVERT JUMPDEST DUP3 CALLDATALOAD PUSH8 0xFFFFFFFFFFFFFFFF DUP1 DUP3 GT ISZERO PUSH2 0x464F JUMPI DUP4 DUP5 REVERT JUMPDEST DUP2 DUP6 ADD SWAP2 POP DUP6 PUSH1 0x1F DUP4 ADD SLT PUSH2 0x4662 JUMPI DUP4 DUP5 REVERT JUMPDEST DUP2 CALLDATALOAD DUP2 DUP2 GT ISZERO PUSH2 0x4670 JUMPI DUP5 DUP6 REVERT JUMPDEST DUP7 PUSH1 0x20 DUP1 DUP4 MUL DUP6 ADD ADD GT ISZERO PUSH2 0x4683 JUMPI DUP5 DUP6 REVERT JUMPDEST PUSH1 0x20 SWAP3 SWAP1 SWAP3 ADD SWAP7 SWAP2 SWAP6 POP SWAP1 SWAP4 POP POP POP POP JUMP JUMPDEST PUSH1 0x0 PUSH1 0x20 DUP3 DUP5 SUB SLT ISZERO PUSH2 0x46A6 JUMPI DUP1 DUP2 REVERT JUMPDEST DUP2 MLOAD PUSH2 0x2D5A DUP2 PUSH2 0x57B8 JUMP JUMPDEST PUSH1 0x0 PUSH1 0x20 DUP3 DUP5 SUB SLT ISZERO PUSH2 0x46C2 JUMPI DUP1 DUP2 REVERT JUMPDEST DUP2 CALLDATALOAD PUSH2 0x2D5A DUP2 PUSH2 0x57C6 JUMP JUMPDEST PUSH1 0x0 PUSH1 0x20 DUP3 DUP5 SUB SLT ISZERO PUSH2 0x46DE JUMPI DUP1 DUP2 REVERT JUMPDEST DUP2 MLOAD PUSH2 0x2D5A DUP2 PUSH2 0x57C6 JUMP JUMPDEST PUSH1 0x0 PUSH1 0x20 DUP3 DUP5 SUB SLT ISZERO PUSH2 0x46FA JUMPI DUP1 DUP2 REVERT JUMPDEST DUP2 CALLDATALOAD PUSH2 0x2D5A DUP2 PUSH2 0x57DC JUMP JUMPDEST PUSH1 0x0 PUSH1 0x20 DUP3 DUP5 SUB SLT ISZERO PUSH2 0x4716 JUMPI DUP1 DUP2 REVERT JUMPDEST DUP2 MLOAD PUSH8 0xFFFFFFFFFFFFFFFF DUP2 GT ISZERO PUSH2 0x472C JUMPI DUP2 DUP3 REVERT JUMPDEST DUP3 ADD PUSH1 0x1F DUP2 ADD DUP5 SGT PUSH2 0x473C JUMPI DUP2 DUP3 REVERT JUMPDEST DUP1 MLOAD PUSH2 0x474A PUSH2 0x44FB DUP3 PUSH2 0x5755 JUMP JUMPDEST DUP2 DUP2 MSTORE DUP6 PUSH1 0x20 DUP4 DUP6 ADD ADD GT ISZERO PUSH2 0x475E JUMPI DUP4 DUP5 REVERT JUMPDEST PUSH2 0x3B8F DUP3 PUSH1 0x20 DUP4 ADD PUSH1 0x20 DUP7 ADD PUSH2 0x5777 JUMP JUMPDEST PUSH1 0x0 PUSH1 0x80 DUP3 DUP5 SUB SLT ISZERO PUSH2 0x4780 JUMPI DUP1 DUP2 REVERT JUMPDEST POP SWAP2 SWAP1 POP JUMP JUMPDEST PUSH1 0x0 PUSH1 0xA0 DUP3 DUP5 SUB SLT ISZERO PUSH2 0x4780 JUMPI DUP1 DUP2 REVERT JUMPDEST PUSH1 0x0 PUSH1 0xC0 DUP3 DUP5 SUB SLT ISZERO PUSH2 0x4780 JUMPI DUP1 DUP2 REVERT JUMPDEST PUSH1 0x0 DUP2 DUP4 SUB PUSH1 0x80 DUP2 SLT ISZERO PUSH2 0x47BA JUMPI DUP2 DUP3 REVERT JUMPDEST PUSH1 0x40 MLOAD PUSH1 0x40 DUP2 ADD PUSH8 0xFFFFFFFFFFFFFFFF DUP3 DUP3 LT DUP2 DUP4 GT OR ISZERO PUSH2 0x47D8 JUMPI INVALID JUMPDEST DUP2 PUSH1 0x40 MSTORE PUSH1 0x60 DUP5 SLT ISZERO PUSH2 0x47E9 JUMPI DUP5 DUP6 REVERT JUMPDEST PUSH1 0xA0 DUP4 ADD SWAP4 POP DUP2 DUP5 LT DUP2 DUP6 GT OR ISZERO PUSH2 0x47FD JUMPI INVALID JUMPDEST POP DUP3 PUSH1 0x40 MSTORE DUP5 CALLDATALOAD SWAP3 POP PUSH2 0x480F DUP4 PUSH2 0x57A3 JUMP JUMPDEST SWAP2 DUP3 MSTORE PUSH1 0x20 DUP5 ADD CALLDATALOAD SWAP2 PUSH2 0x4821 DUP4 PUSH2 0x57A3 JUMP JUMPDEST DUP3 PUSH1 0x60 DUP4 ADD MSTORE PUSH2 0x4833 PUSH1 0x40 DUP7 ADD PUSH2 0x436F JUMP JUMPDEST PUSH1 0x80 DUP4 ADD MSTORE DUP2 MSTORE PUSH2 0x4846 PUSH1 0x60 DUP6 ADD PUSH2 0x4352 JUMP JUMPDEST PUSH1 0x20 DUP3 ADD MSTORE SWAP5 SWAP4 POP POP POP POP JUMP JUMPDEST PUSH1 0x0 PUSH2 0x160 DUP3 DUP5 SUB SLT ISZERO PUSH2 0x4780 JUMPI DUP1 DUP2 REVERT JUMPDEST PUSH1 0x0 PUSH1 0x20 DUP3 DUP5 SUB SLT ISZERO PUSH2 0x4876 JUMPI DUP1 DUP2 REVERT JUMPDEST DUP2 CALLDATALOAD PUSH2 0x2D5A DUP2 PUSH2 0x57EB JUMP JUMPDEST PUSH1 0x0 DUP1 PUSH1 0x40 DUP4 DUP6 SUB SLT ISZERO PUSH2 0x4893 JUMPI DUP2 DUP3 REVERT JUMPDEST DUP3 MLOAD PUSH2 0x489E DUP2 PUSH2 0x57EB JUMP JUMPDEST PUSH1 0x20 DUP5 ADD MLOAD SWAP1 SWAP3 POP PUSH2 0x43E7 DUP2 PUSH2 0x57EB JUMP JUMPDEST PUSH1 0x0 DUP1 PUSH1 0x0 DUP1 PUSH1 0x0 PUSH1 0xA0 DUP7 DUP9 SUB SLT ISZERO PUSH2 0x48C6 JUMPI DUP3 DUP4 REVERT JUMPDEST DUP6 MLOAD PUSH2 0x48D1 DUP2 PUSH2 0x57EB JUMP JUMPDEST DUP1 SWAP6 POP POP PUSH1 0x20 DUP7 ADD MLOAD SWAP4 POP PUSH1 0x40 DUP7 ADD MLOAD SWAP3 POP PUSH1 0x60 DUP7 ADD MLOAD PUSH2 0x48F1 DUP2 PUSH2 0x57EB JUMP JUMPDEST PUSH1 0x80 DUP8 ADD MLOAD SWAP1 SWAP3 POP PUSH2 0x4902 DUP2 PUSH2 0x57EB JUMP JUMPDEST DUP1 SWAP2 POP POP SWAP3 SWAP6 POP SWAP3 SWAP6 SWAP1 SWAP4 POP JUMP JUMPDEST PUSH1 0x0 DUP1 PUSH1 0x0 DUP1 PUSH1 0x0 DUP1 PUSH1 0x0 PUSH1 0xE0 DUP9 DUP11 SUB SLT ISZERO PUSH2 0x492A JUMPI DUP5 DUP6 REVERT JUMPDEST DUP8 MLOAD PUSH2 0x4935 DUP2 PUSH2 0x57A3 JUMP JUMPDEST PUSH1 0x20 DUP10 ADD MLOAD SWAP1 SWAP8 POP PUSH2 0x4946 DUP2 PUSH2 0x57DC JUMP JUMPDEST SWAP6 POP PUSH2 0x4954 PUSH1 0x40 DUP10 ADD PUSH2 0x435D JUMP JUMPDEST SWAP5 POP PUSH2 0x4962 PUSH1 0x60 DUP10 ADD PUSH2 0x435D JUMP JUMPDEST SWAP4 POP PUSH2 0x4970 PUSH1 0x80 DUP10 ADD PUSH2 0x435D JUMP JUMPDEST SWAP3 POP PUSH1 0xA0 DUP9 ADD MLOAD PUSH2 0x4980 DUP2 PUSH2 0x5800 JUMP JUMPDEST PUSH1 0xC0 DUP10 ADD MLOAD SWAP1 SWAP3 POP PUSH2 0x4991 DUP2 PUSH2 0x57B8 JUMP JUMPDEST DUP1 SWAP2 POP POP SWAP3 SWAP6 SWAP9 SWAP2 SWAP5 SWAP8 POP SWAP3 SWAP6 POP JUMP JUMPDEST PUSH1 0x0 PUSH1 0x20 DUP3 DUP5 SUB SLT ISZERO PUSH2 0x49B2 JUMPI DUP1 DUP2 REVERT JUMPDEST PUSH2 0x129C DUP3 PUSH2 0x436F JUMP JUMPDEST PUSH1 0x0 PUSH1 0x20 DUP3 DUP5 SUB SLT ISZERO PUSH2 0x49CC JUMPI DUP1 DUP2 REVERT JUMPDEST POP CALLDATALOAD SWAP2 SWAP1 POP JUMP JUMPDEST PUSH1 0x0 PUSH1 0x20 DUP3 DUP5 SUB SLT ISZERO PUSH2 0x49E4 JUMPI DUP1 DUP2 REVERT JUMPDEST POP MLOAD SWAP2 SWAP1 POP JUMP JUMPDEST PUSH1 0x0 DUP1 PUSH1 0x40 DUP4 DUP6 SUB SLT ISZERO PUSH2 0x49FD JUMPI DUP2 DUP3 REVERT JUMPDEST DUP3 CALLDATALOAD SWAP2 POP PUSH1 0x20 DUP4 ADD CALLDATALOAD PUSH2 0x43E7 DUP2 PUSH2 0x57A3 JUMP JUMPDEST PUSH1 0x0 DUP1 PUSH1 0x40 DUP4 DUP6 SUB SLT ISZERO PUSH2 0x4A21 JUMPI DUP2 DUP3 REVERT JUMPDEST POP POP DUP1 MLOAD PUSH1 0x20 SWAP1 SWAP2 ADD MLOAD SWAP1 SWAP3 SWAP1 SWAP2 POP JUMP JUMPDEST PUSH1 0x0 DUP1 PUSH1 0x0 DUP1 PUSH1 0x60 DUP6 DUP8 SUB SLT ISZERO PUSH2 0x4A47 JUMPI DUP2 DUP3 REVERT JUMPDEST DUP5 CALLDATALOAD SWAP4 POP PUSH1 0x20 DUP6 ADD CALLDATALOAD SWAP3 POP PUSH1 0x40 DUP6 ADD CALLDATALOAD PUSH8 0xFFFFFFFFFFFFFFFF DUP1 DUP3 GT ISZERO PUSH2 0x4A6C JUMPI DUP4 DUP5 REVERT JUMPDEST DUP2 DUP8 ADD SWAP2 POP DUP8 PUSH1 0x1F DUP4 ADD SLT PUSH2 0x4A7F JUMPI DUP4 DUP5 REVERT JUMPDEST DUP2 CALLDATALOAD DUP2 DUP2 GT ISZERO PUSH2 0x4A8D JUMPI DUP5 DUP6 REVERT JUMPDEST DUP9 PUSH1 0x20 DUP3 DUP6 ADD ADD GT ISZERO PUSH2 0x4A9E JUMPI DUP5 DUP6 REVERT JUMPDEST SWAP6 SWAP9 SWAP5 SWAP8 POP POP PUSH1 0x20 ADD SWAP5 POP POP POP JUMP JUMPDEST PUSH1 0x0 DUP2 MLOAD DUP1 DUP5 MSTORE PUSH2 0x4AC5 DUP2 PUSH1 0x20 DUP7 ADD PUSH1 0x20 DUP7 ADD PUSH2 0x5777 JUMP JUMPDEST PUSH1 0x1F ADD PUSH1 0x1F NOT AND SWAP3 SWAP1 SWAP3 ADD PUSH1 0x20 ADD SWAP3 SWAP2 POP POP JUMP JUMPDEST PUSH1 0x2 SIGNEXTEND SWAP1 MSTORE JUMP JUMPDEST PUSH1 0x1 PUSH1 0x1 PUSH1 0x80 SHL SUB AND SWAP1 MSTORE JUMP JUMPDEST PUSH1 0x60 SWAP4 SWAP1 SWAP4 SHL PUSH1 0x1 PUSH1 0x1 PUSH1 0x60 SHL SUB NOT AND DUP4 MSTORE PUSH1 0x2 SWAP2 DUP3 SIGNEXTEND PUSH1 0xE8 SWAP1 DUP2 SHL PUSH1 0x14 DUP6 ADD MSTORE SWAP2 SIGNEXTEND SWAP1 SHL PUSH1 0x17 DUP3 ADD MSTORE PUSH1 0x1A ADD SWAP1 JUMP JUMPDEST SWAP3 DUP4 MSTORE PUSH1 0x20 DUP4 ADD SWAP2 SWAP1 SWAP2 MSTORE PUSH1 0xF8 SHL PUSH1 0x1 PUSH1 0x1 PUSH1 0xF8 SHL SUB NOT AND PUSH1 0x40 DUP3 ADD MSTORE PUSH1 0x41 ADD SWAP1 JUMP JUMPDEST PUSH1 0x0 DUP3 DUP5 DUP4 CALLDATACOPY SWAP2 ADD SWAP1 DUP2 MSTORE SWAP2 SWAP1 POP JUMP JUMPDEST PUSH1 0x0 DUP3 MLOAD PUSH2 0x4B62 DUP2 DUP5 PUSH1 0x20 DUP8 ADD PUSH2 0x5777 JUMP JUMPDEST SWAP2 SWAP1 SWAP2 ADD SWAP3 SWAP2 POP POP JUMP JUMPDEST PUSH2 0x1901 PUSH1 0xF0 SHL DUP2 MSTORE PUSH1 0x2 DUP2 ADD SWAP3 SWAP1 SWAP3 MSTORE PUSH1 0x22 DUP3 ADD MSTORE PUSH1 0x42 ADD SWAP1 JUMP JUMPDEST PUSH1 0x1 PUSH1 0x1 PUSH1 0xF8 SHL SUB NOT DUP2 MSTORE PUSH1 0x60 SWAP4 SWAP1 SWAP4 SHL PUSH1 0x1 PUSH1 0x1 PUSH1 0x60 SHL SUB NOT AND PUSH1 0x1 DUP5 ADD MSTORE PUSH1 0x15 DUP4 ADD SWAP2 SWAP1 SWAP2 MSTORE PUSH1 0x35 DUP3 ADD MSTORE PUSH1 0x55 ADD SWAP1 JUMP JUMPDEST PUSH1 0x1 PUSH1 0x1 PUSH1 0xA0 SHL SUB SWAP2 SWAP1 SWAP2 AND DUP2 MSTORE PUSH1 0x20 ADD SWAP1 JUMP JUMPDEST PUSH1 0x1 PUSH1 0x1 PUSH1 0xA0 SHL SUB SWAP3 DUP4 AND DUP2 MSTORE SWAP2 AND PUSH1 0x20 DUP3 ADD MSTORE PUSH1 0x40 ADD SWAP1 JUMP JUMPDEST PUSH1 0x1 PUSH1 0x1 PUSH1 0xA0 SHL SUB DUP6 DUP2 AND DUP3 MSTORE DUP5 AND PUSH1 0x20 DUP3 ADD MSTORE PUSH1 0x40 DUP2 ADD DUP4 SWAP1 MSTORE PUSH1 0x80 PUSH1 0x60 DUP3 ADD DUP2 SWAP1 MSTORE PUSH1 0x0 SWAP1 PUSH2 0x3B8C SWAP1 DUP4 ADD DUP5 PUSH2 0x4AAD JUMP JUMPDEST PUSH1 0x1 PUSH1 0x1 PUSH1 0xA0 SHL SUB SWAP9 DUP10 AND DUP2 MSTORE SWAP7 SWAP1 SWAP8 AND PUSH1 0x20 DUP8 ADD MSTORE PUSH1 0x40 DUP7 ADD SWAP5 SWAP1 SWAP5 MSTORE PUSH1 0x60 DUP6 ADD SWAP3 SWAP1 SWAP3 MSTORE ISZERO ISZERO PUSH1 0x80 DUP5 ADD MSTORE PUSH1 0xFF AND PUSH1 0xA0 DUP4 ADD MSTORE PUSH1 0xC0 DUP3 ADD MSTORE PUSH1 0xE0 DUP2 ADD SWAP2 SWAP1 SWAP2 MSTORE PUSH2 0x100 ADD SWAP1 JUMP JUMPDEST PUSH1 0x1 PUSH1 0x1 PUSH1 0xA0 SHL SUB SWAP8 DUP9 AND DUP2 MSTORE SWAP6 SWAP1 SWAP7 AND PUSH1 0x20 DUP7 ADD MSTORE PUSH1 0x40 DUP6 ADD SWAP4 SWAP1 SWAP4 MSTORE PUSH1 0x60 DUP5 ADD SWAP2 SWAP1 SWAP2 MSTORE PUSH1 0xFF AND PUSH1 0x80 DUP4 ADD MSTORE PUSH1 0xA0 DUP3 ADD MSTORE PUSH1 0xC0 DUP2 ADD SWAP2 SWAP1 SWAP2 MSTORE PUSH1 0xE0 ADD SWAP1 JUMP JUMPDEST PUSH1 0x1 PUSH1 0x1 PUSH1 0xA0 SHL SUB SWAP4 DUP5 AND DUP2 MSTORE SWAP2 SWAP1 SWAP3 AND PUSH1 0x20 DUP3 ADD MSTORE PUSH3 0xFFFFFF SWAP1 SWAP2 AND PUSH1 0x40 DUP3 ADD MSTORE PUSH1 0x60 ADD SWAP1 JUMP JUMPDEST PUSH1 0x1 PUSH1 0x1 PUSH1 0xA0 SHL SUB SWAP4 DUP5 AND DUP2 MSTORE SWAP2 SWAP1 SWAP3 AND PUSH1 0x20 DUP3 ADD MSTORE PUSH1 0x40 DUP2 ADD SWAP2 SWAP1 SWAP2 MSTORE PUSH1 0x60 ADD SWAP1 JUMP JUMPDEST PUSH1 0x0 PUSH1 0x1 DUP1 PUSH1 0xA0 SHL SUB DUP8 AND DUP3 MSTORE DUP6 PUSH1 0x2 SIGNEXTEND PUSH1 0x20 DUP4 ADD MSTORE DUP5 PUSH1 0x2 SIGNEXTEND PUSH1 0x40 DUP4 ADD MSTORE PUSH1 0x1 PUSH1 0x1 PUSH1 0x80 SHL SUB DUP5 AND PUSH1 0x60 DUP4 ADD MSTORE PUSH1 0xA0 PUSH1 0x80 DUP4 ADD MSTORE PUSH2 0x42AE PUSH1 0xA0 DUP4 ADD DUP5 PUSH2 0x4AAD JUMP JUMPDEST PUSH1 0x1 PUSH1 0x1 PUSH1 0xA0 SHL SUB SWAP6 SWAP1 SWAP6 AND DUP6 MSTORE PUSH1 0x2 SWAP4 DUP5 SIGNEXTEND PUSH1 0x20 DUP7 ADD MSTORE SWAP2 SWAP1 SWAP3 SIGNEXTEND PUSH1 0x40 DUP5 ADD MSTORE PUSH1 0x1 PUSH1 0x1 PUSH1 0x80 SHL SUB SWAP2 DUP3 AND PUSH1 0x60 DUP5 ADD MSTORE AND PUSH1 0x80 DUP3 ADD MSTORE PUSH1 0xA0 ADD SWAP1 JUMP JUMPDEST PUSH1 0x1 PUSH1 0x1 PUSH1 0xA0 SHL SUB SWAP4 SWAP1 SWAP4 AND DUP4 MSTORE PUSH1 0x1 PUSH1 0x1 PUSH1 0x80 SHL SUB SWAP2 DUP3 AND PUSH1 0x20 DUP5 ADD MSTORE AND PUSH1 0x40 DUP3 ADD MSTORE PUSH1 0x60 ADD SWAP1 JUMP JUMPDEST PUSH1 0x1 PUSH1 0x1 PUSH1 0xA0 SHL SUB SWAP3 SWAP1 SWAP3 AND DUP3 MSTORE PUSH1 0x20 DUP3 ADD MSTORE PUSH1 0x40 ADD SWAP1 JUMP JUMPDEST PUSH1 0x0 PUSH1 0x20 DUP1 DUP4 ADD DUP2 DUP5 MSTORE DUP1 DUP6 MLOAD DUP1 DUP4 MSTORE PUSH1 0x40 DUP7 ADD SWAP2 POP PUSH1 0x40 DUP5 DUP3 MUL DUP8 ADD ADD SWAP3 POP DUP4 DUP8 ADD DUP6 JUMPDEST DUP3 DUP2 LT ISZERO PUSH2 0x4E06 JUMPI PUSH1 0x3F NOT DUP9 DUP7 SUB ADD DUP5 MSTORE PUSH2 0x4DF4 DUP6 DUP4 MLOAD PUSH2 0x4AAD JUMP JUMPDEST SWAP5 POP SWAP3 DUP6 ADD SWAP3 SWAP1 DUP6 ADD SWAP1 PUSH1 0x1 ADD PUSH2 0x4DD8 JUMP JUMPDEST POP SWAP3 SWAP8 SWAP7 POP POP POP POP POP POP POP JUMP JUMPDEST SWAP1 ISZERO ISZERO DUP2 MSTORE PUSH1 0x20 ADD SWAP1 JUMP JUMPDEST SWAP1 DUP2 MSTORE PUSH1 0x20 ADD SWAP1 JUMP JUMPDEST SWAP5 DUP6 MSTORE PUSH1 0x1 PUSH1 0x1 PUSH1 0xA0 SHL SUB SWAP4 SWAP1 SWAP4 AND PUSH1 0x20 DUP6 ADD MSTORE PUSH1 0x40 DUP5 ADD SWAP2 SWAP1 SWAP2 MSTORE PUSH1 0x60 DUP4 ADD MSTORE PUSH1 0x80 DUP3 ADD MSTORE PUSH1 0xA0 ADD SWAP1 JUMP JUMPDEST PUSH1 0x0 DUP4 DUP3 MSTORE PUSH1 0x40 PUSH1 0x20 DUP4 ADD MSTORE PUSH2 0xF3F PUSH1 0x40 DUP4 ADD DUP5 PUSH2 0x4AAD JUMP JUMPDEST SWAP4 DUP5 MSTORE PUSH1 0xFF SWAP3 SWAP1 SWAP3 AND PUSH1 0x20 DUP5 ADD MSTORE PUSH1 0x40 DUP4 ADD MSTORE PUSH1 0x60 DUP3 ADD MSTORE PUSH1 0x80 ADD SWAP1 JUMP JUMPDEST PUSH1 0x2 SWAP4 DUP5 SIGNEXTEND DUP2 MSTORE SWAP2 SWAP1 SWAP3 SIGNEXTEND PUSH1 0x20 DUP3 ADD MSTORE PUSH1 0x1 PUSH1 0x1 PUSH1 0x80 SHL SUB SWAP1 SWAP2 AND PUSH1 0x40 DUP3 ADD MSTORE PUSH1 0x60 ADD SWAP1 JUMP JUMPDEST SWAP5 DUP6 MSTORE PUSH1 0x20 DUP6 ADD SWAP4 SWAP1 SWAP4 MSTORE PUSH1 0x40 DUP5 ADD SWAP2 SWAP1 SWAP2 MSTORE PUSH1 0x60 DUP4 ADD MSTORE PUSH1 0x1 PUSH1 0x1 PUSH1 0xA0 SHL SUB AND PUSH1 0x80 DUP3 ADD MSTORE PUSH1 0xA0 ADD SWAP1 JUMP JUMPDEST PUSH1 0x0 PUSH1 0x20 DUP3 MSTORE PUSH2 0x129C PUSH1 0x20 DUP4 ADD DUP5 PUSH2 0x4AAD JUMP JUMPDEST PUSH1 0x20 DUP1 DUP3 MSTORE PUSH1 0x12 SWAP1 DUP3 ADD MSTORE PUSH18 0x496E73756666696369656E74205745544839 PUSH1 0x70 SHL PUSH1 0x40 DUP3 ADD MSTORE PUSH1 0x60 ADD SWAP1 JUMP JUMPDEST PUSH1 0x20 DUP1 DUP3 MSTORE PUSH1 0x22 SWAP1 DUP3 ADD MSTORE PUSH32 0x456E756D657261626C655365743A20696E646578206F7574206F6620626F756E PUSH1 0x40 DUP3 ADD MSTORE PUSH2 0x6473 PUSH1 0xF0 SHL PUSH1 0x60 DUP3 ADD MSTORE PUSH1 0x80 ADD SWAP1 JUMP JUMPDEST PUSH1 0x20 DUP1 DUP3 MSTORE PUSH1 0xC SWAP1 DUP3 ADD MSTORE PUSH12 0x155B985D5D1A1BDC9A5E9959 PUSH1 0xA2 SHL PUSH1 0x40 DUP3 ADD MSTORE PUSH1 0x60 ADD SWAP1 JUMP JUMPDEST PUSH1 0x20 DUP1 DUP3 MSTORE PUSH1 0x32 SWAP1 DUP3 ADD MSTORE PUSH32 0x4552433732313A207472616E7366657220746F206E6F6E204552433732315265 PUSH1 0x40 DUP3 ADD MSTORE PUSH18 0x31B2B4BB32B91034B6B83632B6B2B73A32B9 PUSH1 0x71 SHL PUSH1 0x60 DUP3 ADD MSTORE PUSH1 0x80 ADD SWAP1 JUMP JUMPDEST PUSH1 0x20 DUP1 DUP3 MSTORE PUSH1 0x1C SWAP1 DUP3 ADD MSTORE PUSH32 0x4552433732313A20746F6B656E20616C7265616479206D696E74656400000000 PUSH1 0x40 DUP3 ADD MSTORE PUSH1 0x60 ADD SWAP1 JUMP JUMPDEST PUSH1 0x20 DUP1 DUP3 MSTORE PUSH1 0x12 SWAP1 DUP3 ADD MSTORE PUSH18 0x24B739BAB33334B1B4B2B73A103A37B5B2B7 PUSH1 0x71 SHL PUSH1 0x40 DUP3 ADD MSTORE PUSH1 0x60 ADD SWAP1 JUMP JUMPDEST PUSH1 0x20 DUP1 DUP3 MSTORE PUSH1 0x27 SWAP1 DUP3 ADD MSTORE PUSH32 0x4552433732315065726D69743A20617070726F76616C20746F2063757272656E PUSH1 0x40 DUP3 ADD MSTORE PUSH7 0x3A1037BBB732B9 PUSH1 0xC9 SHL PUSH1 0x60 DUP3 ADD MSTORE PUSH1 0x80 ADD SWAP1 JUMP JUMPDEST PUSH1 0x20 DUP1 DUP3 MSTORE PUSH1 0x24 SWAP1 DUP3 ADD MSTORE PUSH32 0x4552433732313A207472616E7366657220746F20746865207A65726F20616464 PUSH1 0x40 DUP3 ADD MSTORE PUSH4 0x72657373 PUSH1 0xE0 SHL PUSH1 0x60 DUP3 ADD MSTORE PUSH1 0x80 ADD SWAP1 JUMP JUMPDEST PUSH1 0x20 DUP1 DUP3 MSTORE PUSH1 0x19 SWAP1 DUP3 ADD MSTORE PUSH32 0x4552433732313A20617070726F766520746F2063616C6C657200000000000000 PUSH1 0x40 DUP3 ADD MSTORE PUSH1 0x60 ADD SWAP1 JUMP JUMPDEST PUSH1 0x20 DUP1 DUP3 MSTORE PUSH1 0x3 SWAP1 DUP3 ADD MSTORE PUSH3 0x535445 PUSH1 0xE8 SHL PUSH1 0x40 DUP3 ADD MSTORE PUSH1 0x60 ADD SWAP1 JUMP JUMPDEST PUSH1 0x20 DUP1 DUP3 MSTORE PUSH1 0x11 SWAP1 DUP3 ADD MSTORE PUSH17 0x496E76616C6964207369676E6174757265 PUSH1 0x78 SHL PUSH1 0x40 DUP3 ADD MSTORE PUSH1 0x60 ADD SWAP1 JUMP JUMPDEST PUSH1 0x20 DUP1 DUP3 MSTORE PUSH1 0xE SWAP1 DUP3 ADD MSTORE PUSH14 0x14195C9B5A5D08195E1C1A5C9959 PUSH1 0x92 SHL PUSH1 0x40 DUP3 ADD MSTORE PUSH1 0x60 ADD SWAP1 JUMP JUMPDEST PUSH1 0x20 DUP1 DUP3 MSTORE PUSH1 0x26 SWAP1 DUP3 ADD MSTORE PUSH32 0x416464726573733A20696E73756666696369656E742062616C616E636520666F PUSH1 0x40 DUP3 ADD MSTORE PUSH6 0x1C8818D85B1B PUSH1 0xD2 SHL PUSH1 0x60 DUP3 ADD MSTORE PUSH1 0x80 ADD SWAP1 JUMP JUMPDEST PUSH1 0x20 DUP1 DUP3 MSTORE PUSH1 0x2C SWAP1 DUP3 ADD MSTORE PUSH32 0x4552433732313A206F70657261746F7220717565727920666F72206E6F6E6578 PUSH1 0x40 DUP3 ADD MSTORE PUSH12 0x34B9BA32B73A103A37B5B2B7 PUSH1 0xA1 SHL PUSH1 0x60 DUP3 ADD MSTORE PUSH1 0x80 ADD SWAP1 JUMP JUMPDEST PUSH1 0x20 DUP1 DUP3 MSTORE PUSH1 0x38 SWAP1 DUP3 ADD MSTORE PUSH32 0x4552433732313A20617070726F76652063616C6C6572206973206E6F74206F77 PUSH1 0x40 DUP3 ADD MSTORE PUSH32 0x6E6572206E6F7220617070726F76656420666F7220616C6C0000000000000000 PUSH1 0x60 DUP3 ADD MSTORE PUSH1 0x80 ADD SWAP1 JUMP JUMPDEST PUSH1 0x20 DUP1 DUP3 MSTORE PUSH1 0xC SWAP1 DUP3 ADD MSTORE PUSH12 0x139BDD08185C1C1C9BDD9959 PUSH1 0xA2 SHL PUSH1 0x40 DUP3 ADD MSTORE PUSH1 0x60 ADD SWAP1 JUMP JUMPDEST PUSH1 0x20 DUP1 DUP3 MSTORE PUSH1 0x2A SWAP1 DUP3 ADD MSTORE PUSH32 0x4552433732313A2062616C616E636520717565727920666F7220746865207A65 PUSH1 0x40 DUP3 ADD MSTORE PUSH10 0x726F2061646472657373 PUSH1 0xB0 SHL PUSH1 0x60 DUP3 ADD MSTORE PUSH1 0x80 ADD SWAP1 JUMP JUMPDEST PUSH1 0x20 DUP1 DUP3 MSTORE PUSH1 0x1 SWAP1 DUP3 ADD MSTORE PUSH1 0x15 PUSH1 0xFA SHL PUSH1 0x40 DUP3 ADD MSTORE PUSH1 0x60 ADD SWAP1 JUMP JUMPDEST PUSH1 0x20 DUP1 DUP3 MSTORE PUSH1 0x22 SWAP1 DUP3 ADD MSTORE PUSH32 0x456E756D657261626C654D61703A20696E646578206F7574206F6620626F756E PUSH1 0x40 DUP3 ADD MSTORE PUSH2 0x6473 PUSH1 0xF0 SHL PUSH1 0x60 DUP3 ADD MSTORE PUSH1 0x80 ADD SWAP1 JUMP JUMPDEST PUSH1 0x20 DUP1 DUP3 MSTORE DUP2 DUP2 ADD MSTORE PUSH32 0x4552433732313A206D696E7420746F20746865207A65726F2061646472657373 PUSH1 0x40 DUP3 ADD MSTORE PUSH1 0x60 ADD SWAP1 JUMP JUMPDEST PUSH1 0x20 DUP1 DUP3 MSTORE PUSH1 0x2 SWAP1 DUP3 ADD MSTORE PUSH2 0x14D5 PUSH1 0xF2 SHL PUSH1 0x40 DUP3 ADD MSTORE PUSH1 0x60 ADD SWAP1 JUMP JUMPDEST PUSH1 0x20 DUP1 DUP3 MSTORE PUSH1 0x2C SWAP1 DUP3 ADD MSTORE PUSH32 0x4552433732313A20617070726F76656420717565727920666F72206E6F6E6578 PUSH1 0x40 DUP3 ADD MSTORE PUSH12 0x34B9BA32B73A103A37B5B2B7 PUSH1 0xA1 SHL PUSH1 0x60 DUP3 ADD MSTORE PUSH1 0x80 ADD SWAP1 JUMP JUMPDEST PUSH1 0x20 DUP1 DUP3 MSTORE PUSH1 0x9 SWAP1 DUP3 ADD MSTORE PUSH9 0x4E6F74205745544839 PUSH1 0xB8 SHL PUSH1 0x40 DUP3 ADD MSTORE PUSH1 0x60 ADD SWAP1 JUMP JUMPDEST PUSH1 0x20 DUP1 DUP3 MSTORE PUSH1 0x29 SWAP1 DUP3 ADD MSTORE PUSH32 0x4552433732313A207472616E73666572206F6620746F6B656E20746861742069 PUSH1 0x40 DUP3 ADD MSTORE PUSH9 0x39903737BA1037BBB7 PUSH1 0xB9 SHL PUSH1 0x60 DUP3 ADD MSTORE PUSH1 0x80 ADD SWAP1 JUMP JUMPDEST PUSH1 0x20 DUP1 DUP3 MSTORE PUSH1 0x3 SWAP1 DUP3 ADD MSTORE PUSH3 0x29AA23 PUSH1 0xE9 SHL PUSH1 0x40 DUP3 ADD MSTORE PUSH1 0x60 ADD SWAP1 JUMP JUMPDEST PUSH1 0x20 DUP1 DUP3 MSTORE PUSH1 0x14 SWAP1 DUP3 ADD MSTORE PUSH20 0x507269636520736C69707061676520636865636B PUSH1 0x60 SHL PUSH1 0x40 DUP3 ADD MSTORE PUSH1 0x60 ADD SWAP1 JUMP JUMPDEST PUSH1 0x20 DUP1 DUP3 MSTORE PUSH1 0x10 SWAP1 DUP3 ADD MSTORE PUSH16 0x125B9D985B1A59081D1BDAD95B881251 PUSH1 0x82 SHL PUSH1 0x40 DUP3 ADD MSTORE PUSH1 0x60 ADD SWAP1 JUMP JUMPDEST PUSH1 0x20 DUP1 DUP3 MSTORE PUSH1 0x21 SWAP1 DUP3 ADD MSTORE PUSH32 0x4552433732313A20617070726F76616C20746F2063757272656E74206F776E65 PUSH1 0x40 DUP3 ADD MSTORE PUSH1 0x39 PUSH1 0xF9 SHL PUSH1 0x60 DUP3 ADD MSTORE PUSH1 0x80 ADD SWAP1 JUMP JUMPDEST PUSH1 0x20 DUP1 DUP3 MSTORE PUSH1 0x13 SWAP1 DUP3 ADD MSTORE PUSH19 0x151C985B9CD858DD1A5BDB881D1BDBC81BDB19 PUSH1 0x6A SHL PUSH1 0x40 DUP3 ADD MSTORE PUSH1 0x60 ADD SWAP1 JUMP JUMPDEST PUSH1 0x20 DUP1 DUP3 MSTORE PUSH1 0x31 SWAP1 DUP3 ADD MSTORE PUSH32 0x4552433732313A207472616E736665722063616C6C6572206973206E6F74206F PUSH1 0x40 DUP3 ADD MSTORE PUSH17 0x1DDB995C881B9BDC88185C1C1C9BDD9959 PUSH1 0x7A SHL PUSH1 0x60 DUP3 ADD MSTORE PUSH1 0x80 ADD SWAP1 JUMP JUMPDEST PUSH1 0x20 DUP1 DUP3 MSTORE PUSH1 0x1D SWAP1 DUP3 ADD MSTORE PUSH32 0x416464726573733A2063616C6C20746F206E6F6E2D636F6E7472616374000000 PUSH1 0x40 DUP3 ADD MSTORE PUSH1 0x60 ADD SWAP1 JUMP JUMPDEST PUSH1 0x20 DUP1 DUP3 MSTORE PUSH1 0xB SWAP1 DUP3 ADD MSTORE PUSH11 0x139BDD0818DB19585C9959 PUSH1 0xAA SHL PUSH1 0x40 DUP3 ADD MSTORE PUSH1 0x60 ADD SWAP1 JUMP JUMPDEST DUP2 MLOAD DUP1 MLOAD PUSH1 0x1 PUSH1 0x1 PUSH1 0xA0 SHL SUB SWAP1 DUP2 AND DUP4 MSTORE PUSH1 0x20 DUP1 DUP4 ADD MLOAD DUP3 AND DUP2 DUP6 ADD MSTORE PUSH1 0x40 SWAP3 DUP4 ADD MLOAD PUSH3 0xFFFFFF AND SWAP3 DUP5 ADD SWAP3 SWAP1 SWAP3 MSTORE SWAP3 ADD MLOAD SWAP1 SWAP2 AND PUSH1 0x60 DUP3 ADD MSTORE PUSH1 0x80 ADD SWAP1 JUMP JUMPDEST PUSH1 0x1 PUSH1 0x1 PUSH1 0x80 SHL SUB SWAP4 SWAP1 SWAP4 AND DUP4 MSTORE PUSH1 0x20 DUP4 ADD SWAP2 SWAP1 SWAP2 MSTORE PUSH1 0x40 DUP3 ADD MSTORE PUSH1 0x60 ADD SWAP1 JUMP JUMPDEST SWAP4 DUP5 MSTORE PUSH1 0x1 PUSH1 0x1 PUSH1 0x80 SHL SUB SWAP3 SWAP1 SWAP3 AND PUSH1 0x20 DUP5 ADD MSTORE PUSH1 0x40 DUP4 ADD MSTORE PUSH1 0x60 DUP3 ADD MSTORE PUSH1 0x80 ADD SWAP1 JUMP JUMPDEST SWAP2 DUP3 MSTORE PUSH1 0x20 DUP3 ADD MSTORE PUSH1 0x40 ADD SWAP1 JUMP JUMPDEST PUSH1 0x1 PUSH1 0x1 PUSH1 0x60 SHL SUB DUP14 AND DUP2 MSTORE PUSH1 0x1 PUSH1 0x1 PUSH1 0xA0 SHL SUB DUP13 DUP2 AND PUSH1 0x20 DUP4 ADD MSTORE DUP12 DUP2 AND PUSH1 0x40 DUP4 ADD MSTORE DUP11 AND PUSH1 0x60 DUP3 ADD MSTORE PUSH3 0xFFFFFF DUP10 AND PUSH1 0x80 DUP3 ADD MSTORE PUSH1 0x2 DUP9 SWAP1 SIGNEXTEND PUSH1 0xA0 DUP3 ADD MSTORE PUSH2 0x180 DUP2 ADD PUSH2 0x56A4 PUSH1 0xC0 DUP4 ADD DUP10 PUSH2 0x4AD9 JUMP JUMPDEST PUSH2 0x56B1 PUSH1 0xE0 DUP4 ADD DUP9 PUSH2 0x4AE0 JUMP JUMPDEST DUP6 PUSH2 0x100 DUP4 ADD MSTORE DUP5 PUSH2 0x120 DUP4 ADD MSTORE PUSH2 0x56CD PUSH2 0x140 DUP4 ADD DUP6 PUSH2 0x4AE0 JUMP JUMPDEST PUSH2 0x56DB PUSH2 0x160 DUP4 ADD DUP5 PUSH2 0x4AE0 JUMP JUMPDEST SWAP14 SWAP13 POP POP POP POP POP POP POP POP POP POP POP POP POP JUMP JUMPDEST PUSH1 0x0 DUP1 DUP4 CALLDATALOAD PUSH1 0x1E NOT DUP5 CALLDATASIZE SUB ADD DUP2 SLT PUSH2 0x5702 JUMPI DUP3 DUP4 REVERT JUMPDEST DUP4 ADD DUP1 CALLDATALOAD SWAP2 POP PUSH8 0xFFFFFFFFFFFFFFFF DUP3 GT ISZERO PUSH2 0x571C JUMPI DUP3 DUP4 REVERT JUMPDEST PUSH1 0x20 ADD SWAP2 POP CALLDATASIZE DUP2 SWAP1 SUB DUP3 SGT ISZERO PUSH2 0x32E5 JUMPI PUSH1 0x0 DUP1 REVERT JUMPDEST PUSH1 0x40 MLOAD DUP2 DUP2 ADD PUSH8 0xFFFFFFFFFFFFFFFF DUP2 GT DUP3 DUP3 LT OR ISZERO PUSH2 0x574D JUMPI INVALID JUMPDEST PUSH1 0x40 MSTORE SWAP2 SWAP1 POP JUMP JUMPDEST PUSH1 0x0 PUSH8 0xFFFFFFFFFFFFFFFF DUP3 GT ISZERO PUSH2 0x5769 JUMPI INVALID JUMPDEST POP PUSH1 0x1F ADD PUSH1 0x1F NOT AND PUSH1 0x20 ADD SWAP1 JUMP JUMPDEST PUSH1 0x0 JUMPDEST DUP4 DUP2 LT ISZERO PUSH2 0x5792 JUMPI DUP2 DUP2 ADD MLOAD DUP4 DUP3 ADD MSTORE PUSH1 0x20 ADD PUSH2 0x577A JUMP JUMPDEST DUP4 DUP2 GT ISZERO PUSH2 0x239C JUMPI POP POP PUSH1 0x0 SWAP2 ADD MSTORE JUMP JUMPDEST PUSH1 0x1 PUSH1 0x1 PUSH1 0xA0 SHL SUB DUP2 AND DUP2 EQ PUSH2 0x4336 JUMPI PUSH1 0x0 DUP1 REVERT JUMPDEST DUP1 ISZERO ISZERO DUP2 EQ PUSH2 0x4336 JUMPI PUSH1 0x0 DUP1 REVERT JUMPDEST PUSH1 0x1 PUSH1 0x1 PUSH1 0xE0 SHL SUB NOT DUP2 AND DUP2 EQ PUSH2 0x4336 JUMPI PUSH1 0x0 DUP1 REVERT JUMPDEST DUP1 PUSH1 0x2 SIGNEXTEND DUP2 EQ PUSH2 0x4336 JUMPI PUSH1 0x0 DUP1 REVERT JUMPDEST PUSH1 0x1 PUSH1 0x1 PUSH1 0x80 SHL SUB DUP2 AND DUP2 EQ PUSH2 0x4336 JUMPI PUSH1 0x0 DUP1 REVERT JUMPDEST PUSH1 0xFF DUP2 AND DUP2 EQ PUSH2 0x4336 JUMPI PUSH1 0x0 DUP1 REVERT INVALID GASLIMIT MSTORE NUMBER CALLDATACOPY ORIGIN BALANCE GASPRICE KECCAK256 PUSH21 0x72616E7366657220746F206E6F6E20455243373231 MSTORE PUSH6 0x636569766572 KECCAK256 PUSH10 0x6D706C656D656E746572 GASLIMIT MSTORE NUMBER CALLDATACOPY ORIGIN BALANCE GASPRICE KECCAK256 PUSH16 0x776E657220717565727920666F72206E PUSH16 0x6E6578697374656E7420746F6B656EA2 PUSH5 0x6970667358 0x22 SLT KECCAK256 GAS 0xDF DUP10 SWAP16 0xF6 LOG1 RETURNDATACOPY 0xE4 SWAP13 0xB0 PUSH27 0x61E104026BFE7A15F50FA6A331BEFA099C3063559C64736F6C6343 STOP SMOD MOD STOP CALLER "
		},
		"gasEstimates": {
			"creation": {
				"codeDepositCost": "4537600",
				"executionCost": "infinite",
				"totalCost": "infinite"
			},
			"external": {
				"DOMAIN_SEPARATOR()": "infinite",
				"PERMIT_TYPEHASH()": "318",
				"WETH9()": "infinite",
				"approve(address,uint256)": "infinite",
				"balanceOf(address)": "infinite",
				"baseURI()": "infinite",
				"burn(uint256)": "infinite",
				"collect((uint256,address,uint128,uint128))": "infinite",
				"createAndInitializePoolIfNecessary(address,address,uint24,uint160)": "infinite",
				"decreaseLiquidity((uint256,uint128,uint256,uint256,uint256))": "infinite",
				"factory()": "infinite",
				"getApproved(uint256)": "infinite",
				"increaseLiquidity((uint256,uint256,uint256,uint256,uint256,uint256))": "infinite",
				"isApprovedForAll(address,address)": "infinite",
				"mint((address,address,uint24,int24,int24,uint256,uint256,uint256,uint256,address,uint256))": "infinite",
				"multicall(bytes[])": "infinite",
				"name()": "infinite",
				"ownerOf(uint256)": "infinite",
				"permit(address,uint256,uint256,uint8,bytes32,bytes32)": "infinite",
				"positions(uint256)": "infinite",
				"refundETH()": "infinite",
				"safeTransferFrom(address,address,uint256)": "infinite",
				"safeTransferFrom(address,address,uint256,bytes)": "infinite",
				"selfPermit(address,uint256,uint256,uint8,bytes32,bytes32)": "infinite",
				"selfPermitAllowed(address,uint256,uint256,uint8,bytes32,bytes32)": "infinite",
				"selfPermitAllowedIfNecessary(address,uint256,uint256,uint8,bytes32,bytes32)": "infinite",
				"selfPermitIfNecessary(address,uint256,uint256,uint8,bytes32,bytes32)": "infinite",
				"setApprovalForAll(address,bool)": "infinite",
				"supportsInterface(bytes4)": "1341",
				"sweepToken(address,uint256,address)": "infinite",
				"symbol()": "infinite",
				"tokenByIndex(uint256)": "3941",
				"tokenOfOwnerByIndex(address,uint256)": "infinite",
				"tokenURI(uint256)": "infinite",
				"totalSupply()": "1215",
				"transferFrom(address,address,uint256)": "infinite",
				"uniswapV3MintCallback(uint256,uint256,bytes)": "infinite",
				"unwrapWETH9(uint256,address)": "infinite"
			},
			"internal": {
				"_approve(address,uint256)": "infinite",
				"_getAndIncrementNonce(uint256)": "20968",
				"cachePoolKey(address,struct PoolAddress.PoolKey memory)": "infinite"
			}
		},
		"methodIdentifiers": {
			"DOMAIN_SEPARATOR()": "3644e515",
			"PERMIT_TYPEHASH()": "30adf81f",
			"WETH9()": "4aa4a4fc",
			"approve(address,uint256)": "095ea7b3",
			"balanceOf(address)": "70a08231",
			"baseURI()": "6c0360eb",
			"burn(uint256)": "42966c68",
			"collect((uint256,address,uint128,uint128))": "fc6f7865",
			"createAndInitializePoolIfNecessary(address,address,uint24,uint160)": "13ead562",
			"decreaseLiquidity((uint256,uint128,uint256,uint256,uint256))": "0c49ccbe",
			"factory()": "c45a0155",
			"getApproved(uint256)": "081812fc",
			"increaseLiquidity((uint256,uint256,uint256,uint256,uint256,uint256))": "219f5d17",
			"isApprovedForAll(address,address)": "e985e9c5",
			"mint((address,address,uint24,int24,int24,uint256,uint256,uint256,uint256,address,uint256))": "88316456",
			"multicall(bytes[])": "ac9650d8",
			"name()": "06fdde03",
			"ownerOf(uint256)": "6352211e",
			"permit(address,uint256,uint256,uint8,bytes32,bytes32)": "7ac2ff7b",
			"positions(uint256)": "99fbab88",
			"refundETH()": "12210e8a",
			"safeTransferFrom(address,address,uint256)": "42842e0e",
			"safeTransferFrom(address,address,uint256,bytes)": "b88d4fde",
			"selfPermit(address,uint256,uint256,uint8,bytes32,bytes32)": "f3995c67",
			"selfPermitAllowed(address,uint256,uint256,uint8,bytes32,bytes32)": "4659a494",
			"selfPermitAllowedIfNecessary(address,uint256,uint256,uint8,bytes32,bytes32)": "a4a78f0c",
			"selfPermitIfNecessary(address,uint256,uint256,uint8,bytes32,bytes32)": "c2e3140a",
			"setApprovalForAll(address,bool)": "a22cb465",
			"supportsInterface(bytes4)": "01ffc9a7",
			"sweepToken(address,uint256,address)": "df2ab5bb",
			"symbol()": "95d89b41",
			"tokenByIndex(uint256)": "4f6ccce7",
			"tokenOfOwnerByIndex(address,uint256)": "2f745c59",
			"tokenURI(uint256)": "c87b56dd",
			"totalSupply()": "18160ddd",
			"transferFrom(address,address,uint256)": "23b872dd",
			"uniswapV3MintCallback(uint256,uint256,bytes)": "d3487997",
			"unwrapWETH9(uint256,address)": "49404b7c"
		}
	},
	"abi": [
		{
			"inputs": [
				{
					"internalType": "address",
					"name": "_factory",
					"type": "address"
				},
				{
					"internalType": "address",
					"name": "_WETH9",
					"type": "address"
				},
				{
					"internalType": "address",
					"name": "_tokenDescriptor_",
					"type": "address"
				}
			],
			"stateMutability": "nonpayable",
			"type": "constructor"
		},
		{
			"anonymous": false,
			"inputs": [
				{
					"indexed": true,
					"internalType": "address",
					"name": "owner",
					"type": "address"
				},
				{
					"indexed": true,
					"internalType": "address",
					"name": "approved",
					"type": "address"
				},
				{
					"indexed": true,
					"internalType": "uint256",
					"name": "tokenId",
					"type": "uint256"
				}
			],
			"name": "Approval",
			"type": "event"
		},
		{
			"anonymous": false,
			"inputs": [
				{
					"indexed": true,
					"internalType": "address",
					"name": "owner",
					"type": "address"
				},
				{
					"indexed": true,
					"internalType": "address",
					"name": "operator",
					"type": "address"
				},
				{
					"indexed": false,
					"internalType": "bool",
					"name": "approved",
					"type": "bool"
				}
			],
			"name": "ApprovalForAll",
			"type": "event"
		},
		{
			"anonymous": false,
			"inputs": [
				{
					"indexed": true,
					"internalType": "uint256",
					"name": "tokenId",
					"type": "uint256"
				},
				{
					"indexed": false,
					"internalType": "address",
					"name": "recipient",
					"type": "address"
				},
				{
					"indexed": false,
					"internalType": "uint256",
					"name": "amount0",
					"type": "uint256"
				},
				{
					"indexed": false,
					"internalType": "uint256",
					"name": "amount1",
					"type": "uint256"
				}
			],
			"name": "Collect",
			"type": "event"
		},
		{
			"anonymous": false,
			"inputs": [
				{
					"indexed": true,
					"internalType": "uint256",
					"name": "tokenId",
					"type": "uint256"
				},
				{
					"indexed": false,
					"internalType": "uint128",
					"name": "liquidity",
					"type": "uint128"
				},
				{
					"indexed": false,
					"internalType": "uint256",
					"name": "amount0",
					"type": "uint256"
				},
				{
					"indexed": false,
					"internalType": "uint256",
					"name": "amount1",
					"type": "uint256"
				}
			],
			"name": "DecreaseLiquidity",
			"type": "event"
		},
		{
			"anonymous": false,
			"inputs": [
				{
					"indexed": true,
					"internalType": "uint256",
					"name": "tokenId",
					"type": "uint256"
				},
				{
					"indexed": false,
					"internalType": "uint128",
					"name": "liquidity",
					"type": "uint128"
				},
				{
					"indexed": false,
					"internalType": "uint256",
					"name": "amount0",
					"type": "uint256"
				},
				{
					"indexed": false,
					"internalType": "uint256",
					"name": "amount1",
					"type": "uint256"
				}
			],
			"name": "IncreaseLiquidity",
			"type": "event"
		},
		{
			"anonymous": false,
			"inputs": [
				{
					"indexed": true,
					"internalType": "address",
					"name": "from",
					"type": "address"
				},
				{
					"indexed": true,
					"internalType": "address",
					"name": "to",
					"type": "address"
				},
				{
					"indexed": true,
					"internalType": "uint256",
					"name": "tokenId",
					"type": "uint256"
				}
			],
			"name": "Transfer",
			"type": "event"
		},
		{
			"inputs": [],
			"name": "DOMAIN_SEPARATOR",
			"outputs": [
				{
					"internalType": "bytes32",
					"name": "",
					"type": "bytes32"
				}
			],
			"stateMutability": "view",
			"type": "function"
		},
		{
			"inputs": [],
			"name": "PERMIT_TYPEHASH",
			"outputs": [
				{
					"internalType": "bytes32",
					"name": "",
					"type": "bytes32"
				}
			],
			"stateMutability": "view",
			"type": "function"
		},
		{
			"inputs": [],
			"name": "WETH9",
			"outputs": [
				{
					"internalType": "address",
					"name": "",
					"type": "address"
				}
			],
			"stateMutability": "view",
			"type": "function"
		},
		{
			"inputs": [
				{
					"internalType": "address",
					"name": "to",
					"type": "address"
				},
				{
					"internalType": "uint256",
					"name": "tokenId",
					"type": "uint256"
				}
			],
			"name": "approve",
			"outputs": [],
			"stateMutability": "nonpayable",
			"type": "function"
		},
		{
			"inputs": [
				{
					"internalType": "address",
					"name": "owner",
					"type": "address"
				}
			],
			"name": "balanceOf",
			"outputs": [
				{
					"internalType": "uint256",
					"name": "",
					"type": "uint256"
				}
			],
			"stateMutability": "view",
			"type": "function"
		},
		{
			"inputs": [],
			"name": "baseURI",
			"outputs": [
				{
					"internalType": "string",
					"name": "",
					"type": "string"
				}
			],
			"stateMutability": "pure",
			"type": "function"
		},
		{
			"inputs": [
				{
					"internalType": "uint256",
					"name": "tokenId",
					"type": "uint256"
				}
			],
			"name": "burn",
			"outputs": [],
			"stateMutability": "payable",
			"type": "function"
		},
		{
			"inputs": [
				{
					"components": [
						{
							"internalType": "uint256",
							"name": "tokenId",
							"type": "uint256"
						},
						{
							"internalType": "address",
							"name": "recipient",
							"type": "address"
						},
						{
							"internalType": "uint128",
							"name": "amount0Max",
							"type": "uint128"
						},
						{
							"internalType": "uint128",
							"name": "amount1Max",
							"type": "uint128"
						}
					],
					"internalType": "struct INonfungiblePositionManager.CollectParams",
					"name": "params",
					"type": "tuple"
				}
			],
			"name": "collect",
			"outputs": [
				{
					"internalType": "uint256",
					"name": "amount0",
					"type": "uint256"
				},
				{
					"internalType": "uint256",
					"name": "amount1",
					"type": "uint256"
				}
			],
			"stateMutability": "payable",
			"type": "function"
		},
		{
			"inputs": [
				{
					"internalType": "address",
					"name": "token0",
					"type": "address"
				},
				{
					"internalType": "address",
					"name": "token1",
					"type": "address"
				},
				{
					"internalType": "uint24",
					"name": "fee",
					"type": "uint24"
				},
				{
					"internalType": "uint160",
					"name": "sqrtPriceX96",
					"type": "uint160"
				}
			],
			"name": "createAndInitializePoolIfNecessary",
			"outputs": [
				{
					"internalType": "address",
					"name": "pool",
					"type": "address"
				}
			],
			"stateMutability": "payable",
			"type": "function"
		},
		{
			"inputs": [
				{
					"components": [
						{
							"internalType": "uint256",
							"name": "tokenId",
							"type": "uint256"
						},
						{
							"internalType": "uint128",
							"name": "liquidity",
							"type": "uint128"
						},
						{
							"internalType": "uint256",
							"name": "amount0Min",
							"type": "uint256"
						},
						{
							"internalType": "uint256",
							"name": "amount1Min",
							"type": "uint256"
						},
						{
							"internalType": "uint256",
							"name": "deadline",
							"type": "uint256"
						}
					],
					"internalType": "struct INonfungiblePositionManager.DecreaseLiquidityParams",
					"name": "params",
					"type": "tuple"
				}
			],
			"name": "decreaseLiquidity",
			"outputs": [
				{
					"internalType": "uint256",
					"name": "amount0",
					"type": "uint256"
				},
				{
					"internalType": "uint256",
					"name": "amount1",
					"type": "uint256"
				}
			],
			"stateMutability": "payable",
			"type": "function"
		},
		{
			"inputs": [],
			"name": "factory",
			"outputs": [
				{
					"internalType": "address",
					"name": "",
					"type": "address"
				}
			],
			"stateMutability": "view",
			"type": "function"
		},
		{
			"inputs": [
				{
					"internalType": "uint256",
					"name": "tokenId",
					"type": "uint256"
				}
			],
			"name": "getApproved",
			"outputs": [
				{
					"internalType": "address",
					"name": "",
					"type": "address"
				}
			],
			"stateMutability": "view",
			"type": "function"
		},
		{
			"inputs": [
				{
					"components": [
						{
							"internalType": "uint256",
							"name": "tokenId",
							"type": "uint256"
						},
						{
							"internalType": "uint256",
							"name": "amount0Desired",
							"type": "uint256"
						},
						{
							"internalType": "uint256",
							"name": "amount1Desired",
							"type": "uint256"
						},
						{
							"internalType": "uint256",
							"name": "amount0Min",
							"type": "uint256"
						},
						{
							"internalType": "uint256",
							"name": "amount1Min",
							"type": "uint256"
						},
						{
							"internalType": "uint256",
							"name": "deadline",
							"type": "uint256"
						}
					],
					"internalType": "struct INonfungiblePositionManager.IncreaseLiquidityParams",
					"name": "params",
					"type": "tuple"
				}
			],
			"name": "increaseLiquidity",
			"outputs": [
				{
					"internalType": "uint128",
					"name": "liquidity",
					"type": "uint128"
				},
				{
					"internalType": "uint256",
					"name": "amount0",
					"type": "uint256"
				},
				{
					"internalType": "uint256",
					"name": "amount1",
					"type": "uint256"
				}
			],
			"stateMutability": "payable",
			"type": "function"
		},
		{
			"inputs": [
				{
					"internalType": "address",
					"name": "owner",
					"type": "address"
				},
				{
					"internalType": "address",
					"name": "operator",
					"type": "address"
				}
			],
			"name": "isApprovedForAll",
			"outputs": [
				{
					"internalType": "bool",
					"name": "",
					"type": "bool"
				}
			],
			"stateMutability": "view",
			"type": "function"
		},
		{
			"inputs": [
				{
					"components": [
						{
							"internalType": "address",
							"name": "token0",
							"type": "address"
						},
						{
							"internalType": "address",
							"name": "token1",
							"type": "address"
						},
						{
							"internalType": "uint24",
							"name": "fee",
							"type": "uint24"
						},
						{
							"internalType": "int24",
							"name": "tickLower",
							"type": "int24"
						},
						{
							"internalType": "int24",
							"name": "tickUpper",
							"type": "int24"
						},
						{
							"internalType": "uint256",
							"name": "amount0Desired",
							"type": "uint256"
						},
						{
							"internalType": "uint256",
							"name": "amount1Desired",
							"type": "uint256"
						},
						{
							"internalType": "uint256",
							"name": "amount0Min",
							"type": "uint256"
						},
						{
							"internalType": "uint256",
							"name": "amount1Min",
							"type": "uint256"
						},
						{
							"internalType": "address",
							"name": "recipient",
							"type": "address"
						},
						{
							"internalType": "uint256",
							"name": "deadline",
							"type": "uint256"
						}
					],
					"internalType": "struct INonfungiblePositionManager.MintParams",
					"name": "params",
					"type": "tuple"
				}
			],
			"name": "mint",
			"outputs": [
				{
					"internalType": "uint256",
					"name": "tokenId",
					"type": "uint256"
				},
				{
					"internalType": "uint128",
					"name": "liquidity",
					"type": "uint128"
				},
				{
					"internalType": "uint256",
					"name": "amount0",
					"type": "uint256"
				},
				{
					"internalType": "uint256",
					"name": "amount1",
					"type": "uint256"
				}
			],
			"stateMutability": "payable",
			"type": "function"
		},
		{
			"inputs": [
				{
					"internalType": "bytes[]",
					"name": "data",
					"type": "bytes[]"
				}
			],
			"name": "multicall",
			"outputs": [
				{
					"internalType": "bytes[]",
					"name": "results",
					"type": "bytes[]"
				}
			],
			"stateMutability": "payable",
			"type": "function"
		},
		{
			"inputs": [],
			"name": "name",
			"outputs": [
				{
					"internalType": "string",
					"name": "",
					"type": "string"
				}
			],
			"stateMutability": "view",
			"type": "function"
		},
		{
			"inputs": [
				{
					"internalType": "uint256",
					"name": "tokenId",
					"type": "uint256"
				}
			],
			"name": "ownerOf",
			"outputs": [
				{
					"internalType": "address",
					"name": "",
					"type": "address"
				}
			],
			"stateMutability": "view",
			"type": "function"
		},
		{
			"inputs": [
				{
					"internalType": "address",
					"name": "spender",
					"type": "address"
				},
				{
					"internalType": "uint256",
					"name": "tokenId",
					"type": "uint256"
				},
				{
					"internalType": "uint256",
					"name": "deadline",
					"type": "uint256"
				},
				{
					"internalType": "uint8",
					"name": "v",
					"type": "uint8"
				},
				{
					"internalType": "bytes32",
					"name": "r",
					"type": "bytes32"
				},
				{
					"internalType": "bytes32",
					"name": "s",
					"type": "bytes32"
				}
			],
			"name": "permit",
			"outputs": [],
			"stateMutability": "payable",
			"type": "function"
		},
		{
			"inputs": [
				{
					"internalType": "uint256",
					"name": "tokenId",
					"type": "uint256"
				}
			],
			"name": "positions",
			"outputs": [
				{
					"internalType": "uint96",
					"name": "nonce",
					"type": "uint96"
				},
				{
					"internalType": "address",
					"name": "operator",
					"type": "address"
				},
				{
					"internalType": "address",
					"name": "token0",
					"type": "address"
				},
				{
					"internalType": "address",
					"name": "token1",
					"type": "address"
				},
				{
					"internalType": "uint24",
					"name": "fee",
					"type": "uint24"
				},
				{
					"internalType": "int24",
					"name": "tickLower",
					"type": "int24"
				},
				{
					"internalType": "int24",
					"name": "tickUpper",
					"type": "int24"
				},
				{
					"internalType": "uint128",
					"name": "liquidity",
					"type": "uint128"
				},
				{
					"internalType": "uint256",
					"name": "feeGrowthInside0LastX128",
					"type": "uint256"
				},
				{
					"internalType": "uint256",
					"name": "feeGrowthInside1LastX128",
					"type": "uint256"
				},
				{
					"internalType": "uint128",
					"name": "tokensOwed0",
					"type": "uint128"
				},
				{
					"internalType": "uint128",
					"name": "tokensOwed1",
					"type": "uint128"
				}
			],
			"stateMutability": "view",
			"type": "function"
		},
		{
			"inputs": [],
			"name": "refundETH",
			"outputs": [],
			"stateMutability": "payable",
			"type": "function"
		},
		{
			"inputs": [
				{
					"internalType": "address",
					"name": "from",
					"type": "address"
				},
				{
					"internalType": "address",
					"name": "to",
					"type": "address"
				},
				{
					"internalType": "uint256",
					"name": "tokenId",
					"type": "uint256"
				}
			],
			"name": "safeTransferFrom",
			"outputs": [],
			"stateMutability": "nonpayable",
			"type": "function"
		},
		{
			"inputs": [
				{
					"internalType": "address",
					"name": "from",
					"type": "address"
				},
				{
					"internalType": "address",
					"name": "to",
					"type": "address"
				},
				{
					"internalType": "uint256",
					"name": "tokenId",
					"type": "uint256"
				},
				{
					"internalType": "bytes",
					"name": "_data",
					"type": "bytes"
				}
			],
			"name": "safeTransferFrom",
			"outputs": [],
			"stateMutability": "nonpayable",
			"type": "function"
		},
		{
			"inputs": [
				{
					"internalType": "address",
					"name": "token",
					"type": "address"
				},
				{
					"internalType": "uint256",
					"name": "value",
					"type": "uint256"
				},
				{
					"internalType": "uint256",
					"name": "deadline",
					"type": "uint256"
				},
				{
					"internalType": "uint8",
					"name": "v",
					"type": "uint8"
				},
				{
					"internalType": "bytes32",
					"name": "r",
					"type": "bytes32"
				},
				{
					"internalType": "bytes32",
					"name": "s",
					"type": "bytes32"
				}
			],
			"name": "selfPermit",
			"outputs": [],
			"stateMutability": "payable",
			"type": "function"
		},
		{
			"inputs": [
				{
					"internalType": "address",
					"name": "token",
					"type": "address"
				},
				{
					"internalType": "uint256",
					"name": "nonce",
					"type": "uint256"
				},
				{
					"internalType": "uint256",
					"name": "expiry",
					"type": "uint256"
				},
				{
					"internalType": "uint8",
					"name": "v",
					"type": "uint8"
				},
				{
					"internalType": "bytes32",
					"name": "r",
					"type": "bytes32"
				},
				{
					"internalType": "bytes32",
					"name": "s",
					"type": "bytes32"
				}
			],
			"name": "selfPermitAllowed",
			"outputs": [],
			"stateMutability": "payable",
			"type": "function"
		},
		{
			"inputs": [
				{
					"internalType": "address",
					"name": "token",
					"type": "address"
				},
				{
					"internalType": "uint256",
					"name": "nonce",
					"type": "uint256"
				},
				{
					"internalType": "uint256",
					"name": "expiry",
					"type": "uint256"
				},
				{
					"internalType": "uint8",
					"name": "v",
					"type": "uint8"
				},
				{
					"internalType": "bytes32",
					"name": "r",
					"type": "bytes32"
				},
				{
					"internalType": "bytes32",
					"name": "s",
					"type": "bytes32"
				}
			],
			"name": "selfPermitAllowedIfNecessary",
			"outputs": [],
			"stateMutability": "payable",
			"type": "function"
		},
		{
			"inputs": [
				{
					"internalType": "address",
					"name": "token",
					"type": "address"
				},
				{
					"internalType": "uint256",
					"name": "value",
					"type": "uint256"
				},
				{
					"internalType": "uint256",
					"name": "deadline",
					"type": "uint256"
				},
				{
					"internalType": "uint8",
					"name": "v",
					"type": "uint8"
				},
				{
					"internalType": "bytes32",
					"name": "r",
					"type": "bytes32"
				},
				{
					"internalType": "bytes32",
					"name": "s",
					"type": "bytes32"
				}
			],
			"name": "selfPermitIfNecessary",
			"outputs": [],
			"stateMutability": "payable",
			"type": "function"
		},
		{
			"inputs": [
				{
					"internalType": "address",
					"name": "operator",
					"type": "address"
				},
				{
					"internalType": "bool",
					"name": "approved",
					"type": "bool"
				}
			],
			"name": "setApprovalForAll",
			"outputs": [],
			"stateMutability": "nonpayable",
			"type": "function"
		},
		{
			"inputs": [
				{
					"internalType": "bytes4",
					"name": "interfaceId",
					"type": "bytes4"
				}
			],
			"name": "supportsInterface",
			"outputs": [
				{
					"internalType": "bool",
					"name": "",
					"type": "bool"
				}
			],
			"stateMutability": "view",
			"type": "function"
		},
		{
			"inputs": [
				{
					"internalType": "address",
					"name": "token",
					"type": "address"
				},
				{
					"internalType": "uint256",
					"name": "amountMinimum",
					"type": "uint256"
				},
				{
					"internalType": "address",
					"name": "recipient",
					"type": "address"
				}
			],
			"name": "sweepToken",
			"outputs": [],
			"stateMutability": "payable",
			"type": "function"
		},
		{
			"inputs": [],
			"name": "symbol",
			"outputs": [
				{
					"internalType": "string",
					"name": "",
					"type": "string"
				}
			],
			"stateMutability": "view",
			"type": "function"
		},
		{
			"inputs": [
				{
					"internalType": "uint256",
					"name": "index",
					"type": "uint256"
				}
			],
			"name": "tokenByIndex",
			"outputs": [
				{
					"internalType": "uint256",
					"name": "",
					"type": "uint256"
				}
			],
			"stateMutability": "view",
			"type": "function"
		},
		{
			"inputs": [
				{
					"internalType": "address",
					"name": "owner",
					"type": "address"
				},
				{
					"internalType": "uint256",
					"name": "index",
					"type": "uint256"
				}
			],
			"name": "tokenOfOwnerByIndex",
			"outputs": [
				{
					"internalType": "uint256",
					"name": "",
					"type": "uint256"
				}
			],
			"stateMutability": "view",
			"type": "function"
		},
		{
			"inputs": [
				{
					"internalType": "uint256",
					"name": "tokenId",
					"type": "uint256"
				}
			],
			"name": "tokenURI",
			"outputs": [
				{
					"internalType": "string",
					"name": "",
					"type": "string"
				}
			],
			"stateMutability": "view",
			"type": "function"
		},
		{
			"inputs": [],
			"name": "totalSupply",
			"outputs": [
				{
					"internalType": "uint256",
					"name": "",
					"type": "uint256"
				}
			],
			"stateMutability": "view",
			"type": "function"
		},
		{
			"inputs": [
				{
					"internalType": "address",
					"name": "from",
					"type": "address"
				},
				{
					"internalType": "address",
					"name": "to",
					"type": "address"
				},
				{
					"internalType": "uint256",
					"name": "tokenId",
					"type": "uint256"
				}
			],
			"name": "transferFrom",
			"outputs": [],
			"stateMutability": "nonpayable",
			"type": "function"
		},
		{
			"inputs": [
				{
					"internalType": "uint256",
					"name": "amount0Owed",
					"type": "uint256"
				},
				{
					"internalType": "uint256",
					"name": "amount1Owed",
					"type": "uint256"
				},
				{
					"internalType": "bytes",
					"name": "data",
					"type": "bytes"
				}
			],
			"name": "uniswapV3MintCallback",
			"outputs": [],
			"stateMutability": "nonpayable",
			"type": "function"
		},
		{
			"inputs": [
				{
					"internalType": "uint256",
					"name": "amountMinimum",
					"type": "uint256"
				},
				{
					"internalType": "address",
					"name": "recipient",
					"type": "address"
				}
			],
			"name": "unwrapWETH9",
			"outputs": [],
			"stateMutability": "payable",
			"type": "function"
		},
		{
			"stateMutability": "payable",
			"type": "receive"
		}
	]
}