{
	"data": {
		"bytecode": {
			"linkReferences": {},
			"object": "60e06040523480156200001157600080fd5b5060405162001c3438038062001c34833981016040819052620000349162000079565b6001600160601b0319606093841b811660805291831b821660a05290911b1660c052620000c2565b80516001600160a01b03811681146200007457600080fd5b919050565b6000806000606084860312156200008e578283fd5b62000099846200005c565b9250620000a9602085016200005c565b9150620000b9604085016200005c565b90509250925092565b60805160601c60a05160601c60c05160601c611b066200012e600039806107985280610a685280610aa25280610acc5280610c7552508060c552806105965280610cc15280610d185280610df35280610e4a525080610256528061031f52806108505250611b066000f3fe6080604052600436106100b55760003560e01c8063b44a272211610069578063c45a01551161004e578063c45a0155146101be578063d44f2bf2146101d3578063f3995c67146101f35761010d565b8063b44a272214610196578063c2e3140a146101ab5761010d565b80634aa4a4fc1161009a5780634aa4a4fc1461014e578063a4a78f0c14610163578063ac9650d8146101765761010d565b806313ead562146101125780634659a4941461013b5761010d565b3661010d57336001600160a01b037f0000000000000000000000000000000000000000000000000000000000000000161461010b5760405162461bcd60e51b8152600401610102906118eb565b60405180910390fd5b005b600080fd5b610125610120366004611291565b610206565b604051610132919061167f565b60405180910390f35b61010b6101493660046112ea565b610506565b34801561015a57600080fd5b50610125610594565b61010b6101713660046112ea565b6105b8565b610189610184366004611345565b610656565b604051610132919061179c565b3480156101a257600080fd5b50610125610796565b61010b6101b93660046112ea565b6107ba565b3480156101ca57600080fd5b5061012561084e565b3480156101df57600080fd5b5061010b6101ee36600461149f565b610872565b61010b6102013660046112ea565b610ede565b6000836001600160a01b0316856001600160a01b03161061022657600080fd5b6040517f1698ee820000000000000000000000000000000000000000000000000000000081526001600160a01b037f00000000000000000000000000000000000000000000000000000000000000001690631698ee829061028f9088908890889060040161175b565b60206040518083038186803b1580156102a757600080fd5b505afa1580156102bb573d6000803e3d6000fd5b505050506040513d601f19601f820116820180604052508101906102df9190611275565b90506001600160a01b038116610410576040517fa16712950000000000000000000000000000000000000000000000000000000081526001600160a01b037f0000000000000000000000000000000000000000000000000000000000000000169063a1671295906103589088908890889060040161175b565b602060405180830381600087803b15801561037257600080fd5b505af1158015610386573d6000803e3d6000fd5b505050506040513d601f19601f820116820180604052508101906103aa9190611275565b60405163f637731d60e01b81529091506001600160a01b0382169063f637731d906103d990859060040161167f565b600060405180830381600087803b1580156103f357600080fd5b505af1158015610407573d6000803e3d6000fd5b505050506104fe565b6000816001600160a01b0316633850c7bd6040518163ffffffff1660e01b815260040160e06040518083038186803b15801561044b57600080fd5b505afa15801561045f573d6000803e3d6000fd5b505050506040513d601f19601f8201168201806040525081019061048391906114b7565b5050505050509050806001600160a01b0316600014156104fc5760405163f637731d60e01b81526001600160a01b0383169063f637731d906104c990869060040161167f565b600060405180830381600087803b1580156104e357600080fd5b505af11580156104f7573d6000803e3d6000fd5b505050505b505b949350505050565b6040517f8fcbaf0c0000000000000000000000000000000000000000000000000000000081526001600160a01b03871690638fcbaf0c9061055a90339030908a908a906001908b908b908b906004016116d1565b600060405180830381600087803b15801561057457600080fd5b505af1158015610588573d6000803e3d6000fd5b50505050505050505050565b7f000000000000000000000000000000000000000000000000000000000000000081565b604051636eb1769f60e11b8152600019906001600160a01b0388169063dd62ed3e906105ea9033903090600401611693565b60206040518083038186803b15801561060257600080fd5b505afa158015610616573d6000803e3d6000fd5b505050506040513d601f19601f8201168201806040525081019061063a9190611562565b101561064e5761064e868686868686610506565b505050505050565b60608167ffffffffffffffff8111801561066f57600080fd5b506040519080825280602002602001820160405280156106a357816020015b606081526020019060019003908161068e5790505b50905060005b8281101561078f57600080308686858181106106c157fe5b90506020028101906106d39190611a10565b6040516106e1929190611653565b600060405180830381855af49150503d806000811461071c576040519150601f19603f3d011682016040523d82523d6000602084013e610721565b606091505b50915091508161076d5760448151101561073a57600080fd5b600481019050808060200190518101906107549190611408565b60405162461bcd60e51b815260040161010291906117fc565b8084848151811061077a57fe5b602090810291909101015250506001016106a9565b5092915050565b7f000000000000000000000000000000000000000000000000000000000000000081565b604051636eb1769f60e11b815285906001600160a01b0388169063dd62ed3e906107ea9033903090600401611693565b60206040518083038186803b15801561080257600080fd5b505afa158015610816573d6000803e3d6000fd5b505050506040513d601f19601f8201168201806040525081019061083a9190611562565b101561064e5761064e868686868686610ede565b7f000000000000000000000000000000000000000000000000000000000000000081565b600061088460608301604084016115ee565b60ff16116108a45760405162461bcd60e51b815260040161010290611846565b60646108b660608301604084016115ee565b60ff1611156108d75760405162461bcd60e51b815260040161010290611922565b6108e46020820182611252565b6001600160a01b03166323b872dd336109006020850185611252565b84602001356040518463ffffffff1660e01b8152600401610923939291906116ad565b602060405180830381600087803b15801561093d57600080fd5b505af1158015610951573d6000803e3d6000fd5b505050506040513d601f19601f8201168201806040525081019061097591906113d0565b506000806109866020840184611252565b6001600160a01b03166389afcb44306040518263ffffffff1660e01b81526004016109b1919061167f565b6040805180830381600087803b1580156109ca57600080fd5b505af11580156109de573d6000803e3d6000fd5b505050506040513d601f19601f82011682018060405250810190610a0291906115cb565b909250905060006064610a28610a1e60608701604088016115ee565b859060ff16610f2f565b81610a2f57fe5b04905060006064610a49610a1e60608801604089016115ee565b81610a5057fe5b049050610a8d610a666080870160608801611252565b7f000000000000000000000000000000000000000000000000000000000000000084610f59565b610ac7610aa060a0870160808801611252565b7f000000000000000000000000000000000000000000000000000000000000000083610f59565b6000807f00000000000000000000000000000000000000000000000000000000000000006001600160a01b031663883164566040518061016001604052808a6060016020810190610b189190611252565b6001600160a01b03168152602001610b3660a08c0160808d01611252565b6001600160a01b03168152602001610b5460c08c0160a08d01611548565b62ffffff168152602001610b6e60e08c0160c08d016113ec565b60020b8152602001610b876101008c0160e08d016113ec565b60020b815260208101889052604081018790526101008b013560608201526101208b0135608082015260a001610bc56101608c016101408d01611252565b6001600160a01b031681526020018a61016001358152506040518263ffffffff1660e01b8152600401610bf89190611959565b608060405180830381600087803b158015610c1257600080fd5b505af1158015610c26573d6000803e3d6000fd5b505050506040513d601f19601f82011682018060405250810190610c4a919061157a565b93509350505085821015610daa5783821015610c9b57610c9b610c736080890160608a01611252565b7f00000000000000000000000000000000000000000000000000000000000000006000610f59565b818603610cb06101a089016101808a016113b4565b8015610cfc57506001600160a01b037f000000000000000000000000000000000000000000000000000000000000000016610cf160808a0160608b01611252565b6001600160a01b0316145b15610d8e57604051632e1a7d4d60e01b81526001600160a01b037f00000000000000000000000000000000000000000000000000000000000000001690632e1a7d4d90610d4d908490600401611a07565b600060405180830381600087803b158015610d6757600080fd5b505af1158015610d7b573d6000803e3d6000fd5b50505050610d89338261107b565b610da8565b610da8610da160808a0160608b01611252565b338361110d565b505b84811015610ed55782811015610dcd57610dcd610c7360a0890160808a01611252565b808503610de26101a089016101808a016113b4565b8015610e2e57506001600160a01b037f000000000000000000000000000000000000000000000000000000000000000016610e2360a08a0160808b01611252565b6001600160a01b0316145b15610ec057604051632e1a7d4d60e01b81526001600160a01b037f00000000000000000000000000000000000000000000000000000000000000001690632e1a7d4d90610e7f908490600401611a07565b600060405180830381600087803b158015610e9957600080fd5b505af1158015610ead573d6000803e3d6000fd5b50505050610ebb338261107b565b610ed3565b610ed3610da160a08a0160808b01611252565b505b50505050505050565b6040517fd505accf0000000000000000000000000000000000000000000000000000000081526001600160a01b0387169063d505accf9061055a90339030908a908a908a908a908a9060040161171a565b6000821580610f4a57505081810281838281610f4757fe5b04145b610f5357600080fd5b92915050565b600080846001600160a01b031663095ea7b360e01b8585604051602401610f81929190611783565b60408051601f198184030181529181526020820180517bffffffffffffffffffffffffffffffffffffffffffffffffffffffff167fffffffff00000000000000000000000000000000000000000000000000000000909416939093179092529051610fec9190611663565b6000604051808303816000865af19150503d8060008114611029576040519150601f19603f3d011682016040523d82523d6000602084013e61102e565b606091505b509150915081801561105857508051158061105857508080602001905181019061105891906113d0565b6110745760405162461bcd60e51b81526004016101029061180f565b5050505050565b604080516000808252602082019092526001600160a01b0384169083906040516110a59190611663565b60006040518083038185875af1925050503d80600081146110e2576040519150601f19603f3d011682016040523d82523d6000602084013e6110e7565b606091505b50509050806111085760405162461bcd60e51b81526004016101029061187d565b505050565b600080846001600160a01b031663a9059cbb60e01b8585604051602401611135929190611783565b60408051601f198184030181529181526020820180517bffffffffffffffffffffffffffffffffffffffffffffffffffffffff167fffffffff000000000000000000000000000000000000000000000000000000009094169390931790925290516111a09190611663565b6000604051808303816000865af19150503d80600081146111dd576040519150601f19603f3d011682016040523d82523d6000602084013e6111e2565b606091505b509150915081801561120c57508051158061120c57508080602001905181019061120c91906113d0565b6110745760405162461bcd60e51b8152600401610102906118b4565b805161ffff8116811461123a57600080fd5b919050565b803562ffffff8116811461123a57600080fd5b600060208284031215611263578081fd5b813561126e81611a8c565b9392505050565b600060208284031215611286578081fd5b815161126e81611a8c565b600080600080608085870312156112a6578283fd5b84356112b181611a8c565b935060208501356112c181611a8c565b92506112cf6040860161123f565b915060608501356112df81611a8c565b939692955090935050565b60008060008060008060c08789031215611302578182fd5b863561130d81611a8c565b95506020870135945060408701359350606087013561132b81611ac1565b9598949750929560808101359460a0909101359350915050565b60008060208385031215611357578182fd5b823567ffffffffffffffff8082111561136e578384fd5b818501915085601f830112611381578384fd5b81358181111561138f578485fd5b86602080830285010111156113a2578485fd5b60209290920196919550909350505050565b6000602082840312156113c5578081fd5b813561126e81611aa4565b6000602082840312156113e1578081fd5b815161126e81611aa4565b6000602082840312156113fd578081fd5b813561126e81611ab2565b600060208284031215611419578081fd5b815167ffffffffffffffff80821115611430578283fd5b818401915084601f830112611443578283fd5b81518181111561144f57fe5b604051601f8201601f19168101602001838111828210171561146d57fe5b604052818152838201602001871015611484578485fd5b611495826020830160208701611a5c565b9695505050505050565b60006101a082840312156114b1578081fd5b50919050565b600080600080600080600060e0888a0312156114d1578485fd5b87516114dc81611a8c565b60208901519097506114ed81611ab2565b95506114fb60408901611228565b945061150960608901611228565b935061151760808901611228565b925060a088015161152781611ac1565b60c089015190925061153881611aa4565b8091505092959891949750929550565b600060208284031215611559578081fd5b61126e8261123f565b600060208284031215611573578081fd5b5051919050565b6000806000806080858703121561158f578182fd5b8451935060208501516fffffffffffffffffffffffffffffffff811681146115b5578283fd5b6040860151606090960151949790965092505050565b600080604083850312156115dd578182fd5b505080516020909101519092909150565b6000602082840312156115ff578081fd5b813561126e81611ac1565b6001600160a01b03169052565b6000815180845261162f816020860160208601611a5c565b601f01601f19169290920160200192915050565b60020b9052565b62ffffff169052565b6000828483379101908152919050565b60008251611675818460208701611a5c565b9190910192915050565b6001600160a01b0391909116815260200190565b6001600160a01b0392831681529116602082015260400190565b6001600160a01b039384168152919092166020820152604081019190915260600190565b6001600160a01b039889168152969097166020870152604086019490945260608501929092521515608084015260ff1660a083015260c082015260e08101919091526101000190565b6001600160a01b0397881681529590961660208601526040850193909352606084019190915260ff16608083015260a082015260c081019190915260e00190565b6001600160a01b03938416815291909216602082015262ffffff909116604082015260600190565b6001600160a01b03929092168252602082015260400190565b6000602080830181845280855180835260408601915060408482028701019250838701855b828110156117ef57603f198886030184526117dd858351611617565b945092850192908501906001016117c1565b5092979650505050505050565b60006020825261126e6020830184611617565b60208082526002908201527f5341000000000000000000000000000000000000000000000000000000000000604082015260600190565b60208082526014908201527f50657263656e7461676520746f6f20736d616c6c000000000000000000000000604082015260600190565b60208082526003908201527f5354450000000000000000000000000000000000000000000000000000000000604082015260600190565b60208082526002908201527f5354000000000000000000000000000000000000000000000000000000000000604082015260600190565b60208082526009908201527f4e6f742057455448390000000000000000000000000000000000000000000000604082015260600190565b60208082526014908201527f50657263656e7461676520746f6f206c61726765000000000000000000000000604082015260600190565b60006101608201905061196d82845161160a565b602083015161197f602084018261160a565b506040830151611992604084018261164a565b5060608301516119a56060840182611643565b5060808301516119b86080840182611643565b5060a083015160a083015260c083015160c083015260e083015160e0830152610100808401518184015250610120808401516119f68285018261160a565b505061014092830151919092015290565b90815260200190565b6000808335601e19843603018112611a26578283fd5b83018035915067ffffffffffffffff821115611a40578283fd5b602001915036819003821315611a5557600080fd5b9250929050565b60005b83811015611a77578181015183820152602001611a5f565b83811115611a86576000848401525b50505050565b6001600160a01b0381168114611aa157600080fd5b50565b8015158114611aa157600080fd5b8060020b8114611aa157600080fd5b60ff81168114611aa157600080fdfea2646970667358221220142ad8272c0bc2ae9de192625987819d6eea2807922835e48c8ca669ed4e86db64736f6c63430007060033",
			"opcodes": "PUSH1 0xE0 PUSH1 0x40 MSTORE CALLVALUE DUP1 ISZERO PUSH3 0x11 JUMPI PUSH1 0x0 DUP1 REVERT JUMPDEST POP PUSH1 0x40 MLOAD PUSH3 0x1C34 CODESIZE SUB DUP1 PUSH3 0x1C34 DUP4 CODECOPY DUP2 ADD PUSH1 0x40 DUP2 SWAP1 MSTORE PUSH3 0x34 SWAP2 PUSH3 0x79 JUMP JUMPDEST PUSH1 0x1 PUSH1 0x1 PUSH1 0x60 SHL SUB NOT PUSH1 0x60 SWAP4 DUP5 SHL DUP2 AND PUSH1 0x80 MSTORE SWAP2 DUP4 SHL DUP3 AND PUSH1 0xA0 MSTORE SWAP1 SWAP2 SHL AND PUSH1 0xC0 MSTORE PUSH3 0xC2 JUMP JUMPDEST DUP1 MLOAD PUSH1 0x1 PUSH1 0x1 PUSH1 0xA0 SHL SUB DUP2 AND DUP2 EQ PUSH3 0x74 JUMPI PUSH1 0x0 DUP1 REVERT JUMPDEST SWAP2 SWAP1 POP JUMP JUMPDEST PUSH1 0x0 DUP1 PUSH1 0x0 PUSH1 0x60 DUP5 DUP7 SUB SLT ISZERO PUSH3 0x8E JUMPI DUP3 DUP4 REVERT JUMPDEST PUSH3 0x99 DUP5 PUSH3 0x5C JUMP JUMPDEST SWAP3 POP PUSH3 0xA9 PUSH1 0x20 DUP6 ADD PUSH3 0x5C JUMP JUMPDEST SWAP2 POP PUSH3 0xB9 PUSH1 0x40 DUP6 ADD PUSH3 0x5C JUMP JUMPDEST SWAP1 POP SWAP3 POP SWAP3 POP SWAP3 JUMP JUMPDEST PUSH1 0x80 MLOAD PUSH1 0x60 SHR PUSH1 0xA0 MLOAD PUSH1 0x60 SHR PUSH1 0xC0 MLOAD PUSH1 0x60 SHR PUSH2 0x1B06 PUSH3 0x12E PUSH1 0x0 CODECOPY DUP1 PUSH2 0x798 MSTORE DUP1 PUSH2 0xA68 MSTORE DUP1 PUSH2 0xAA2 MSTORE DUP1 PUSH2 0xACC MSTORE DUP1 PUSH2 0xC75 MSTORE POP DUP1 PUSH1 0xC5 MSTORE DUP1 PUSH2 0x596 MSTORE DUP1 PUSH2 0xCC1 MSTORE DUP1 PUSH2 0xD18 MSTORE DUP1 PUSH2 0xDF3 MSTORE DUP1 PUSH2 0xE4A MSTORE POP DUP1 PUSH2 0x256 MSTORE DUP1 PUSH2 0x31F MSTORE DUP1 PUSH2 0x850 MSTORE POP PUSH2 0x1B06 PUSH1 0x0 RETURN INVALID PUSH1 0x80 PUSH1 0x40 MSTORE PUSH1 0x4 CALLDATASIZE LT PUSH2 0xB5 JUMPI PUSH1 0x0 CALLDATALOAD PUSH1 0xE0 SHR DUP1 PUSH4 0xB44A2722 GT PUSH2 0x69 JUMPI DUP1 PUSH4 0xC45A0155 GT PUSH2 0x4E JUMPI DUP1 PUSH4 0xC45A0155 EQ PUSH2 0x1BE JUMPI DUP1 PUSH4 0xD44F2BF2 EQ PUSH2 0x1D3 JUMPI DUP1 PUSH4 0xF3995C67 EQ PUSH2 0x1F3 JUMPI PUSH2 0x10D JUMP JUMPDEST DUP1 PUSH4 0xB44A2722 EQ PUSH2 0x196 JUMPI DUP1 PUSH4 0xC2E3140A EQ PUSH2 0x1AB JUMPI PUSH2 0x10D JUMP JUMPDEST DUP1 PUSH4 0x4AA4A4FC GT PUSH2 0x9A JUMPI DUP1 PUSH4 0x4AA4A4FC EQ PUSH2 0x14E JUMPI DUP1 PUSH4 0xA4A78F0C EQ PUSH2 0x163 JUMPI DUP1 PUSH4 0xAC9650D8 EQ PUSH2 0x176 JUMPI PUSH2 0x10D JUMP JUMPDEST DUP1 PUSH4 0x13EAD562 EQ PUSH2 0x112 JUMPI DUP1 PUSH4 0x4659A494 EQ PUSH2 0x13B JUMPI PUSH2 0x10D JUMP JUMPDEST CALLDATASIZE PUSH2 0x10D JUMPI CALLER PUSH1 0x1 PUSH1 0x1 PUSH1 0xA0 SHL SUB PUSH32 0x0 AND EQ PUSH2 0x10B JUMPI PUSH1 0x40 MLOAD PUSH3 0x461BCD PUSH1 0xE5 SHL DUP2 MSTORE PUSH1 0x4 ADD PUSH2 0x102 SWAP1 PUSH2 0x18EB JUMP JUMPDEST PUSH1 0x40 MLOAD DUP1 SWAP2 SUB SWAP1 REVERT JUMPDEST STOP JUMPDEST PUSH1 0x0 DUP1 REVERT JUMPDEST PUSH2 0x125 PUSH2 0x120 CALLDATASIZE PUSH1 0x4 PUSH2 0x1291 JUMP JUMPDEST PUSH2 0x206 JUMP JUMPDEST PUSH1 0x40 MLOAD PUSH2 0x132 SWAP2 SWAP1 PUSH2 0x167F JUMP JUMPDEST PUSH1 0x40 MLOAD DUP1 SWAP2 SUB SWAP1 RETURN JUMPDEST PUSH2 0x10B PUSH2 0x149 CALLDATASIZE PUSH1 0x4 PUSH2 0x12EA JUMP JUMPDEST PUSH2 0x506 JUMP JUMPDEST CALLVALUE DUP1 ISZERO PUSH2 0x15A JUMPI PUSH1 0x0 DUP1 REVERT JUMPDEST POP PUSH2 0x125 PUSH2 0x594 JUMP JUMPDEST PUSH2 0x10B PUSH2 0x171 CALLDATASIZE PUSH1 0x4 PUSH2 0x12EA JUMP JUMPDEST PUSH2 0x5B8 JUMP JUMPDEST PUSH2 0x189 PUSH2 0x184 CALLDATASIZE PUSH1 0x4 PUSH2 0x1345 JUMP JUMPDEST PUSH2 0x656 JUMP JUMPDEST PUSH1 0x40 MLOAD PUSH2 0x132 SWAP2 SWAP1 PUSH2 0x179C JUMP JUMPDEST CALLVALUE DUP1 ISZERO PUSH2 0x1A2 JUMPI PUSH1 0x0 DUP1 REVERT JUMPDEST POP PUSH2 0x125 PUSH2 0x796 JUMP JUMPDEST PUSH2 0x10B PUSH2 0x1B9 CALLDATASIZE PUSH1 0x4 PUSH2 0x12EA JUMP JUMPDEST PUSH2 0x7BA JUMP JUMPDEST CALLVALUE DUP1 ISZERO PUSH2 0x1CA JUMPI PUSH1 0x0 DUP1 REVERT JUMPDEST POP PUSH2 0x125 PUSH2 0x84E JUMP JUMPDEST CALLVALUE DUP1 ISZERO PUSH2 0x1DF JUMPI PUSH1 0x0 DUP1 REVERT JUMPDEST POP PUSH2 0x10B PUSH2 0x1EE CALLDATASIZE PUSH1 0x4 PUSH2 0x149F JUMP JUMPDEST PUSH2 0x872 JUMP JUMPDEST PUSH2 0x10B PUSH2 0x201 CALLDATASIZE PUSH1 0x4 PUSH2 0x12EA JUMP JUMPDEST PUSH2 0xEDE JUMP JUMPDEST PUSH1 0x0 DUP4 PUSH1 0x1 PUSH1 0x1 PUSH1 0xA0 SHL SUB AND DUP6 PUSH1 0x1 PUSH1 0x1 PUSH1 0xA0 SHL SUB AND LT PUSH2 0x226 JUMPI PUSH1 0x0 DUP1 REVERT JUMPDEST PUSH1 0x40 MLOAD PUSH32 0x1698EE8200000000000000000000000000000000000000000000000000000000 DUP2 MSTORE PUSH1 0x1 PUSH1 0x1 PUSH1 0xA0 SHL SUB PUSH32 0x0 AND SWAP1 PUSH4 0x1698EE82 SWAP1 PUSH2 0x28F SWAP1 DUP9 SWAP1 DUP9 SWAP1 DUP9 SWAP1 PUSH1 0x4 ADD PUSH2 0x175B JUMP JUMPDEST PUSH1 0x20 PUSH1 0x40 MLOAD DUP1 DUP4 SUB DUP2 DUP7 DUP1 EXTCODESIZE ISZERO DUP1 ISZERO PUSH2 0x2A7 JUMPI PUSH1 0x0 DUP1 REVERT JUMPDEST POP GAS STATICCALL ISZERO DUP1 ISZERO PUSH2 0x2BB JUMPI RETURNDATASIZE PUSH1 0x0 DUP1 RETURNDATACOPY RETURNDATASIZE PUSH1 0x0 REVERT JUMPDEST POP POP POP POP PUSH1 0x40 MLOAD RETURNDATASIZE PUSH1 0x1F NOT PUSH1 0x1F DUP3 ADD AND DUP3 ADD DUP1 PUSH1 0x40 MSTORE POP DUP2 ADD SWAP1 PUSH2 0x2DF SWAP2 SWAP1 PUSH2 0x1275 JUMP JUMPDEST SWAP1 POP PUSH1 0x1 PUSH1 0x1 PUSH1 0xA0 SHL SUB DUP2 AND PUSH2 0x410 JUMPI PUSH1 0x40 MLOAD PUSH32 0xA167129500000000000000000000000000000000000000000000000000000000 DUP2 MSTORE PUSH1 0x1 PUSH1 0x1 PUSH1 0xA0 SHL SUB PUSH32 0x0 AND SWAP1 PUSH4 0xA1671295 SWAP1 PUSH2 0x358 SWAP1 DUP9 SWAP1 DUP9 SWAP1 DUP9 SWAP1 PUSH1 0x4 ADD PUSH2 0x175B JUMP JUMPDEST PUSH1 0x20 PUSH1 0x40 MLOAD DUP1 DUP4 SUB DUP2 PUSH1 0x0 DUP8 DUP1 EXTCODESIZE ISZERO DUP1 ISZERO PUSH2 0x372 JUMPI PUSH1 0x0 DUP1 REVERT JUMPDEST POP GAS CALL ISZERO DUP1 ISZERO PUSH2 0x386 JUMPI RETURNDATASIZE PUSH1 0x0 DUP1 RETURNDATACOPY RETURNDATASIZE PUSH1 0x0 REVERT JUMPDEST POP POP POP POP PUSH1 0x40 MLOAD RETURNDATASIZE PUSH1 0x1F NOT PUSH1 0x1F DUP3 ADD AND DUP3 ADD DUP1 PUSH1 0x40 MSTORE POP DUP2 ADD SWAP1 PUSH2 0x3AA SWAP2 SWAP1 PUSH2 0x1275 JUMP JUMPDEST PUSH1 0x40 MLOAD PUSH4 0xF637731D PUSH1 0xE0 SHL DUP2 MSTORE SWAP1 SWAP2 POP PUSH1 0x1 PUSH1 0x1 PUSH1 0xA0 SHL SUB DUP3 AND SWAP1 PUSH4 0xF637731D SWAP1 PUSH2 0x3D9 SWAP1 DUP6 SWAP1 PUSH1 0x4 ADD PUSH2 0x167F JUMP JUMPDEST PUSH1 0x0 PUSH1 0x40 MLOAD DUP1 DUP4 SUB DUP2 PUSH1 0x0 DUP8 DUP1 EXTCODESIZE ISZERO DUP1 ISZERO PUSH2 0x3F3 JUMPI PUSH1 0x0 DUP1 REVERT JUMPDEST POP GAS CALL ISZERO DUP1 ISZERO PUSH2 0x407 JUMPI RETURNDATASIZE PUSH1 0x0 DUP1 RETURNDATACOPY RETURNDATASIZE PUSH1 0x0 REVERT JUMPDEST POP POP POP POP PUSH2 0x4FE JUMP JUMPDEST PUSH1 0x0 DUP2 PUSH1 0x1 PUSH1 0x1 PUSH1 0xA0 SHL SUB AND PUSH4 0x3850C7BD PUSH1 0x40 MLOAD DUP2 PUSH4 0xFFFFFFFF AND PUSH1 0xE0 SHL DUP2 MSTORE PUSH1 0x4 ADD PUSH1 0xE0 PUSH1 0x40 MLOAD DUP1 DUP4 SUB DUP2 DUP7 DUP1 EXTCODESIZE ISZERO DUP1 ISZERO PUSH2 0x44B JUMPI PUSH1 0x0 DUP1 REVERT JUMPDEST POP GAS STATICCALL ISZERO DUP1 ISZERO PUSH2 0x45F JUMPI RETURNDATASIZE PUSH1 0x0 DUP1 RETURNDATACOPY RETURNDATASIZE PUSH1 0x0 REVERT JUMPDEST POP POP POP POP PUSH1 0x40 MLOAD RETURNDATASIZE PUSH1 0x1F NOT PUSH1 0x1F DUP3 ADD AND DUP3 ADD DUP1 PUSH1 0x40 MSTORE POP DUP2 ADD SWAP1 PUSH2 0x483 SWAP2 SWAP1 PUSH2 0x14B7 JUMP JUMPDEST POP POP POP POP POP POP SWAP1 POP DUP1 PUSH1 0x1 PUSH1 0x1 PUSH1 0xA0 SHL SUB AND PUSH1 0x0 EQ ISZERO PUSH2 0x4FC JUMPI PUSH1 0x40 MLOAD PUSH4 0xF637731D PUSH1 0xE0 SHL DUP2 MSTORE PUSH1 0x1 PUSH1 0x1 PUSH1 0xA0 SHL SUB DUP4 AND SWAP1 PUSH4 0xF637731D SWAP1 PUSH2 0x4C9 SWAP1 DUP7 SWAP1 PUSH1 0x4 ADD PUSH2 0x167F JUMP JUMPDEST PUSH1 0x0 PUSH1 0x40 MLOAD DUP1 DUP4 SUB DUP2 PUSH1 0x0 DUP8 DUP1 EXTCODESIZE ISZERO DUP1 ISZERO PUSH2 0x4E3 JUMPI PUSH1 0x0 DUP1 REVERT JUMPDEST POP GAS CALL ISZERO DUP1 ISZERO PUSH2 0x4F7 JUMPI RETURNDATASIZE PUSH1 0x0 DUP1 RETURNDATACOPY RETURNDATASIZE PUSH1 0x0 REVERT JUMPDEST POP POP POP POP JUMPDEST POP JUMPDEST SWAP5 SWAP4 POP POP POP POP JUMP JUMPDEST PUSH1 0x40 MLOAD PUSH32 0x8FCBAF0C00000000000000000000000000000000000000000000000000000000 DUP2 MSTORE PUSH1 0x1 PUSH1 0x1 PUSH1 0xA0 SHL SUB DUP8 AND SWAP1 PUSH4 0x8FCBAF0C SWAP1 PUSH2 0x55A SWAP1 CALLER SWAP1 ADDRESS SWAP1 DUP11 SWAP1 DUP11 SWAP1 PUSH1 0x1 SWAP1 DUP12 SWAP1 DUP12 SWAP1 DUP12 SWAP1 PUSH1 0x4 ADD PUSH2 0x16D1 JUMP JUMPDEST PUSH1 0x0 PUSH1 0x40 MLOAD DUP1 DUP4 SUB DUP2 PUSH1 0x0 DUP8 DUP1 EXTCODESIZE ISZERO DUP1 ISZERO PUSH2 0x574 JUMPI PUSH1 0x0 DUP1 REVERT JUMPDEST POP GAS CALL ISZERO DUP1 ISZERO PUSH2 0x588 JUMPI RETURNDATASIZE PUSH1 0x0 DUP1 RETURNDATACOPY RETURNDATASIZE PUSH1 0x0 REVERT JUMPDEST POP POP POP POP POP POP POP POP POP POP JUMP JUMPDEST PUSH32 0x0 DUP2 JUMP JUMPDEST PUSH1 0x40 MLOAD PUSH4 0x6EB1769F PUSH1 0xE1 SHL DUP2 MSTORE PUSH1 0x0 NOT SWAP1 PUSH1 0x1 PUSH1 0x1 PUSH1 0xA0 SHL SUB DUP9 AND SWAP1 PUSH4 0xDD62ED3E SWAP1 PUSH2 0x5EA SWAP1 CALLER SWAP1 ADDRESS SWAP1 PUSH1 0x4 ADD PUSH2 0x1693 JUMP JUMPDEST PUSH1 0x20 PUSH1 0x40 MLOAD DUP1 DUP4 SUB DUP2 DUP7 DUP1 EXTCODESIZE ISZERO DUP1 ISZERO PUSH2 0x602 JUMPI PUSH1 0x0 DUP1 REVERT JUMPDEST POP GAS STATICCALL ISZERO DUP1 ISZERO PUSH2 0x616 JUMPI RETURNDATASIZE PUSH1 0x0 DUP1 RETURNDATACOPY RETURNDATASIZE PUSH1 0x0 REVERT JUMPDEST POP POP POP POP PUSH1 0x40 MLOAD RETURNDATASIZE PUSH1 0x1F NOT PUSH1 0x1F DUP3 ADD AND DUP3 ADD DUP1 PUSH1 0x40 MSTORE POP DUP2 ADD SWAP1 PUSH2 0x63A SWAP2 SWAP1 PUSH2 0x1562 JUMP JUMPDEST LT ISZERO PUSH2 0x64E JUMPI PUSH2 0x64E DUP7 DUP7 DUP7 DUP7 DUP7 DUP7 PUSH2 0x506 JUMP JUMPDEST POP POP POP POP POP POP JUMP JUMPDEST PUSH1 0x60 DUP2 PUSH8 0xFFFFFFFFFFFFFFFF DUP2 GT DUP1 ISZERO PUSH2 0x66F JUMPI PUSH1 0x0 DUP1 REVERT JUMPDEST POP PUSH1 0x40 MLOAD SWAP1 DUP1 DUP3 MSTORE DUP1 PUSH1 0x20 MUL PUSH1 0x20 ADD DUP3 ADD PUSH1 0x40 MSTORE DUP1 ISZERO PUSH2 0x6A3 JUMPI DUP2 PUSH1 0x20 ADD JUMPDEST PUSH1 0x60 DUP2 MSTORE PUSH1 0x20 ADD SWAP1 PUSH1 0x1 SWAP1 SUB SWAP1 DUP2 PUSH2 0x68E JUMPI SWAP1 POP JUMPDEST POP SWAP1 POP PUSH1 0x0 JUMPDEST DUP3 DUP2 LT ISZERO PUSH2 0x78F JUMPI PUSH1 0x0 DUP1 ADDRESS DUP7 DUP7 DUP6 DUP2 DUP2 LT PUSH2 0x6C1 JUMPI INVALID JUMPDEST SWAP1 POP PUSH1 0x20 MUL DUP2 ADD SWAP1 PUSH2 0x6D3 SWAP2 SWAP1 PUSH2 0x1A10 JUMP JUMPDEST PUSH1 0x40 MLOAD PUSH2 0x6E1 SWAP3 SWAP2 SWAP1 PUSH2 0x1653 JUMP JUMPDEST PUSH1 0x0 PUSH1 0x40 MLOAD DUP1 DUP4 SUB DUP2 DUP6 GAS DELEGATECALL SWAP2 POP POP RETURNDATASIZE DUP1 PUSH1 0x0 DUP2 EQ PUSH2 0x71C JUMPI PUSH1 0x40 MLOAD SWAP2 POP PUSH1 0x1F NOT PUSH1 0x3F RETURNDATASIZE ADD AND DUP3 ADD PUSH1 0x40 MSTORE RETURNDATASIZE DUP3 MSTORE RETURNDATASIZE PUSH1 0x0 PUSH1 0x20 DUP5 ADD RETURNDATACOPY PUSH2 0x721 JUMP JUMPDEST PUSH1 0x60 SWAP2 POP JUMPDEST POP SWAP2 POP SWAP2 POP DUP2 PUSH2 0x76D JUMPI PUSH1 0x44 DUP2 MLOAD LT ISZERO PUSH2 0x73A JUMPI PUSH1 0x0 DUP1 REVERT JUMPDEST PUSH1 0x4 DUP2 ADD SWAP1 POP DUP1 DUP1 PUSH1 0x20 ADD SWAP1 MLOAD DUP2 ADD SWAP1 PUSH2 0x754 SWAP2 SWAP1 PUSH2 0x1408 JUMP JUMPDEST PUSH1 0x40 MLOAD PUSH3 0x461BCD PUSH1 0xE5 SHL DUP2 MSTORE PUSH1 0x4 ADD PUSH2 0x102 SWAP2 SWAP1 PUSH2 0x17FC JUMP JUMPDEST DUP1 DUP5 DUP5 DUP2 MLOAD DUP2 LT PUSH2 0x77A JUMPI INVALID JUMPDEST PUSH1 0x20 SWAP1 DUP2 MUL SWAP2 SWAP1 SWAP2 ADD ADD MSTORE POP POP PUSH1 0x1 ADD PUSH2 0x6A9 JUMP JUMPDEST POP SWAP3 SWAP2 POP POP JUMP JUMPDEST PUSH32 0x0 DUP2 JUMP JUMPDEST PUSH1 0x40 MLOAD PUSH4 0x6EB1769F PUSH1 0xE1 SHL DUP2 MSTORE DUP6 SWAP1 PUSH1 0x1 PUSH1 0x1 PUSH1 0xA0 SHL SUB DUP9 AND SWAP1 PUSH4 0xDD62ED3E SWAP1 PUSH2 0x7EA SWAP1 CALLER SWAP1 ADDRESS SWAP1 PUSH1 0x4 ADD PUSH2 0x1693 JUMP JUMPDEST PUSH1 0x20 PUSH1 0x40 MLOAD DUP1 DUP4 SUB DUP2 DUP7 DUP1 EXTCODESIZE ISZERO DUP1 ISZERO PUSH2 0x802 JUMPI PUSH1 0x0 DUP1 REVERT JUMPDEST POP GAS STATICCALL ISZERO DUP1 ISZERO PUSH2 0x816 JUMPI RETURNDATASIZE PUSH1 0x0 DUP1 RETURNDATACOPY RETURNDATASIZE PUSH1 0x0 REVERT JUMPDEST POP POP POP POP PUSH1 0x40 MLOAD RETURNDATASIZE PUSH1 0x1F NOT PUSH1 0x1F DUP3 ADD AND DUP3 ADD DUP1 PUSH1 0x40 MSTORE POP DUP2 ADD SWAP1 PUSH2 0x83A SWAP2 SWAP1 PUSH2 0x1562 JUMP JUMPDEST LT ISZERO PUSH2 0x64E JUMPI PUSH2 0x64E DUP7 DUP7 DUP7 DUP7 DUP7 DUP7 PUSH2 0xEDE JUMP JUMPDEST PUSH32 0x0 DUP2 JUMP JUMPDEST PUSH1 0x0 PUSH2 0x884 PUSH1 0x60 DUP4 ADD PUSH1 0x40 DUP5 ADD PUSH2 0x15EE JUMP JUMPDEST PUSH1 0xFF AND GT PUSH2 0x8A4 JUMPI PUSH1 0x40 MLOAD PUSH3 0x461BCD PUSH1 0xE5 SHL DUP2 MSTORE PUSH1 0x4 ADD PUSH2 0x102 SWAP1 PUSH2 0x1846 JUMP JUMPDEST PUSH1 0x64 PUSH2 0x8B6 PUSH1 0x60 DUP4 ADD PUSH1 0x40 DUP5 ADD PUSH2 0x15EE JUMP JUMPDEST PUSH1 0xFF AND GT ISZERO PUSH2 0x8D7 JUMPI PUSH1 0x40 MLOAD PUSH3 0x461BCD PUSH1 0xE5 SHL DUP2 MSTORE PUSH1 0x4 ADD PUSH2 0x102 SWAP1 PUSH2 0x1922 JUMP JUMPDEST PUSH2 0x8E4 PUSH1 0x20 DUP3 ADD DUP3 PUSH2 0x1252 JUMP JUMPDEST PUSH1 0x1 PUSH1 0x1 PUSH1 0xA0 SHL SUB AND PUSH4 0x23B872DD CALLER PUSH2 0x900 PUSH1 0x20 DUP6 ADD DUP6 PUSH2 0x1252 JUMP JUMPDEST DUP5 PUSH1 0x20 ADD CALLDATALOAD PUSH1 0x40 MLOAD DUP5 PUSH4 0xFFFFFFFF AND PUSH1 0xE0 SHL DUP2 MSTORE PUSH1 0x4 ADD PUSH2 0x923 SWAP4 SWAP3 SWAP2 SWAP1 PUSH2 0x16AD JUMP JUMPDEST PUSH1 0x20 PUSH1 0x40 MLOAD DUP1 DUP4 SUB DUP2 PUSH1 0x0 DUP8 DUP1 EXTCODESIZE ISZERO DUP1 ISZERO PUSH2 0x93D JUMPI PUSH1 0x0 DUP1 REVERT JUMPDEST POP GAS CALL ISZERO DUP1 ISZERO PUSH2 0x951 JUMPI RETURNDATASIZE PUSH1 0x0 DUP1 RETURNDATACOPY RETURNDATASIZE PUSH1 0x0 REVERT JUMPDEST POP POP POP POP PUSH1 0x40 MLOAD RETURNDATASIZE PUSH1 0x1F NOT PUSH1 0x1F DUP3 ADD AND DUP3 ADD DUP1 PUSH1 0x40 MSTORE POP DUP2 ADD SWAP1 PUSH2 0x975 SWAP2 SWAP1 PUSH2 0x13D0 JUMP JUMPDEST POP PUSH1 0x0 DUP1 PUSH2 0x986 PUSH1 0x20 DUP5 ADD DUP5 PUSH2 0x1252 JUMP JUMPDEST PUSH1 0x1 PUSH1 0x1 PUSH1 0xA0 SHL SUB AND PUSH4 0x89AFCB44 ADDRESS PUSH1 0x40 MLOAD DUP3 PUSH4 0xFFFFFFFF AND PUSH1 0xE0 SHL DUP2 MSTORE PUSH1 0x4 ADD PUSH2 0x9B1 SWAP2 SWAP1 PUSH2 0x167F JUMP JUMPDEST PUSH1 0x40 DUP1 MLOAD DUP1 DUP4 SUB DUP2 PUSH1 0x0 DUP8 DUP1 EXTCODESIZE ISZERO DUP1 ISZERO PUSH2 0x9CA JUMPI PUSH1 0x0 DUP1 REVERT JUMPDEST POP GAS CALL ISZERO DUP1 ISZERO PUSH2 0x9DE JUMPI RETURNDATASIZE PUSH1 0x0 DUP1 RETURNDATACOPY RETURNDATASIZE PUSH1 0x0 REVERT JUMPDEST POP POP POP POP PUSH1 0x40 MLOAD RETURNDATASIZE PUSH1 0x1F NOT PUSH1 0x1F DUP3 ADD AND DUP3 ADD DUP1 PUSH1 0x40 MSTORE POP DUP2 ADD SWAP1 PUSH2 0xA02 SWAP2 SWAP1 PUSH2 0x15CB JUMP JUMPDEST SWAP1 SWAP3 POP SWAP1 POP PUSH1 0x0 PUSH1 0x64 PUSH2 0xA28 PUSH2 0xA1E PUSH1 0x60 DUP8 ADD PUSH1 0x40 DUP9 ADD PUSH2 0x15EE JUMP JUMPDEST DUP6 SWAP1 PUSH1 0xFF AND PUSH2 0xF2F JUMP JUMPDEST DUP2 PUSH2 0xA2F JUMPI INVALID JUMPDEST DIV SWAP1 POP PUSH1 0x0 PUSH1 0x64 PUSH2 0xA49 PUSH2 0xA1E PUSH1 0x60 DUP9 ADD PUSH1 0x40 DUP10 ADD PUSH2 0x15EE JUMP JUMPDEST DUP2 PUSH2 0xA50 JUMPI INVALID JUMPDEST DIV SWAP1 POP PUSH2 0xA8D PUSH2 0xA66 PUSH1 0x80 DUP8 ADD PUSH1 0x60 DUP9 ADD PUSH2 0x1252 JUMP JUMPDEST PUSH32 0x0 DUP5 PUSH2 0xF59 JUMP JUMPDEST PUSH2 0xAC7 PUSH2 0xAA0 PUSH1 0xA0 DUP8 ADD PUSH1 0x80 DUP9 ADD PUSH2 0x1252 JUMP JUMPDEST PUSH32 0x0 DUP4 PUSH2 0xF59 JUMP JUMPDEST PUSH1 0x0 DUP1 PUSH32 0x0 PUSH1 0x1 PUSH1 0x1 PUSH1 0xA0 SHL SUB AND PUSH4 0x88316456 PUSH1 0x40 MLOAD DUP1 PUSH2 0x160 ADD PUSH1 0x40 MSTORE DUP1 DUP11 PUSH1 0x60 ADD PUSH1 0x20 DUP2 ADD SWAP1 PUSH2 0xB18 SWAP2 SWAP1 PUSH2 0x1252 JUMP JUMPDEST PUSH1 0x1 PUSH1 0x1 PUSH1 0xA0 SHL SUB AND DUP2 MSTORE PUSH1 0x20 ADD PUSH2 0xB36 PUSH1 0xA0 DUP13 ADD PUSH1 0x80 DUP14 ADD PUSH2 0x1252 JUMP JUMPDEST PUSH1 0x1 PUSH1 0x1 PUSH1 0xA0 SHL SUB AND DUP2 MSTORE PUSH1 0x20 ADD PUSH2 0xB54 PUSH1 0xC0 DUP13 ADD PUSH1 0xA0 DUP14 ADD PUSH2 0x1548 JUMP JUMPDEST PUSH3 0xFFFFFF AND DUP2 MSTORE PUSH1 0x20 ADD PUSH2 0xB6E PUSH1 0xE0 DUP13 ADD PUSH1 0xC0 DUP14 ADD PUSH2 0x13EC JUMP JUMPDEST PUSH1 0x2 SIGNEXTEND DUP2 MSTORE PUSH1 0x20 ADD PUSH2 0xB87 PUSH2 0x100 DUP13 ADD PUSH1 0xE0 DUP14 ADD PUSH2 0x13EC JUMP JUMPDEST PUSH1 0x2 SIGNEXTEND DUP2 MSTORE PUSH1 0x20 DUP2 ADD DUP9 SWAP1 MSTORE PUSH1 0x40 DUP2 ADD DUP8 SWAP1 MSTORE PUSH2 0x100 DUP12 ADD CALLDATALOAD PUSH1 0x60 DUP3 ADD MSTORE PUSH2 0x120 DUP12 ADD CALLDATALOAD PUSH1 0x80 DUP3 ADD MSTORE PUSH1 0xA0 ADD PUSH2 0xBC5 PUSH2 0x160 DUP13 ADD PUSH2 0x140 DUP14 ADD PUSH2 0x1252 JUMP JUMPDEST PUSH1 0x1 PUSH1 0x1 PUSH1 0xA0 SHL SUB AND DUP2 MSTORE PUSH1 0x20 ADD DUP11 PUSH2 0x160 ADD CALLDATALOAD DUP2 MSTORE POP PUSH1 0x40 MLOAD DUP3 PUSH4 0xFFFFFFFF AND PUSH1 0xE0 SHL DUP2 MSTORE PUSH1 0x4 ADD PUSH2 0xBF8 SWAP2 SWAP1 PUSH2 0x1959 JUMP JUMPDEST PUSH1 0x80 PUSH1 0x40 MLOAD DUP1 DUP4 SUB DUP2 PUSH1 0x0 DUP8 DUP1 EXTCODESIZE ISZERO DUP1 ISZERO PUSH2 0xC12 JUMPI PUSH1 0x0 DUP1 REVERT JUMPDEST POP GAS CALL ISZERO DUP1 ISZERO PUSH2 0xC26 JUMPI RETURNDATASIZE PUSH1 0x0 DUP1 RETURNDATACOPY RETURNDATASIZE PUSH1 0x0 REVERT JUMPDEST POP POP POP POP PUSH1 0x40 MLOAD RETURNDATASIZE PUSH1 0x1F NOT PUSH1 0x1F DUP3 ADD AND DUP3 ADD DUP1 PUSH1 0x40 MSTORE POP DUP2 ADD SWAP1 PUSH2 0xC4A SWAP2 SWAP1 PUSH2 0x157A JUMP JUMPDEST SWAP4 POP SWAP4 POP POP POP DUP6 DUP3 LT ISZERO PUSH2 0xDAA JUMPI DUP4 DUP3 LT ISZERO PUSH2 0xC9B JUMPI PUSH2 0xC9B PUSH2 0xC73 PUSH1 0x80 DUP10 ADD PUSH1 0x60 DUP11 ADD PUSH2 0x1252 JUMP JUMPDEST PUSH32 0x0 PUSH1 0x0 PUSH2 0xF59 JUMP JUMPDEST DUP2 DUP7 SUB PUSH2 0xCB0 PUSH2 0x1A0 DUP10 ADD PUSH2 0x180 DUP11 ADD PUSH2 0x13B4 JUMP JUMPDEST DUP1 ISZERO PUSH2 0xCFC JUMPI POP PUSH1 0x1 PUSH1 0x1 PUSH1 0xA0 SHL SUB PUSH32 0x0 AND PUSH2 0xCF1 PUSH1 0x80 DUP11 ADD PUSH1 0x60 DUP12 ADD PUSH2 0x1252 JUMP JUMPDEST PUSH1 0x1 PUSH1 0x1 PUSH1 0xA0 SHL SUB AND EQ JUMPDEST ISZERO PUSH2 0xD8E JUMPI PUSH1 0x40 MLOAD PUSH4 0x2E1A7D4D PUSH1 0xE0 SHL DUP2 MSTORE PUSH1 0x1 PUSH1 0x1 PUSH1 0xA0 SHL SUB PUSH32 0x0 AND SWAP1 PUSH4 0x2E1A7D4D SWAP1 PUSH2 0xD4D SWAP1 DUP5 SWAP1 PUSH1 0x4 ADD PUSH2 0x1A07 JUMP JUMPDEST PUSH1 0x0 PUSH1 0x40 MLOAD DUP1 DUP4 SUB DUP2 PUSH1 0x0 DUP8 DUP1 EXTCODESIZE ISZERO DUP1 ISZERO PUSH2 0xD67 JUMPI PUSH1 0x0 DUP1 REVERT JUMPDEST POP GAS CALL ISZERO DUP1 ISZERO PUSH2 0xD7B JUMPI RETURNDATASIZE PUSH1 0x0 DUP1 RETURNDATACOPY RETURNDATASIZE PUSH1 0x0 REVERT JUMPDEST POP POP POP POP PUSH2 0xD89 CALLER DUP3 PUSH2 0x107B JUMP JUMPDEST PUSH2 0xDA8 JUMP JUMPDEST PUSH2 0xDA8 PUSH2 0xDA1 PUSH1 0x80 DUP11 ADD PUSH1 0x60 DUP12 ADD PUSH2 0x1252 JUMP JUMPDEST CALLER DUP4 PUSH2 0x110D JUMP JUMPDEST POP JUMPDEST DUP5 DUP2 LT ISZERO PUSH2 0xED5 JUMPI DUP3 DUP2 LT ISZERO PUSH2 0xDCD JUMPI PUSH2 0xDCD PUSH2 0xC73 PUSH1 0xA0 DUP10 ADD PUSH1 0x80 DUP11 ADD PUSH2 0x1252 JUMP JUMPDEST DUP1 DUP6 SUB PUSH2 0xDE2 PUSH2 0x1A0 DUP10 ADD PUSH2 0x180 DUP11 ADD PUSH2 0x13B4 JUMP JUMPDEST DUP1 ISZERO PUSH2 0xE2E JUMPI POP PUSH1 0x1 PUSH1 0x1 PUSH1 0xA0 SHL SUB PUSH32 0x0 AND PUSH2 0xE23 PUSH1 0xA0 DUP11 ADD PUSH1 0x80 DUP12 ADD PUSH2 0x1252 JUMP JUMPDEST PUSH1 0x1 PUSH1 0x1 PUSH1 0xA0 SHL SUB AND EQ JUMPDEST ISZERO PUSH2 0xEC0 JUMPI PUSH1 0x40 MLOAD PUSH4 0x2E1A7D4D PUSH1 0xE0 SHL DUP2 MSTORE PUSH1 0x1 PUSH1 0x1 PUSH1 0xA0 SHL SUB PUSH32 0x0 AND SWAP1 PUSH4 0x2E1A7D4D SWAP1 PUSH2 0xE7F SWAP1 DUP5 SWAP1 PUSH1 0x4 ADD PUSH2 0x1A07 JUMP JUMPDEST PUSH1 0x0 PUSH1 0x40 MLOAD DUP1 DUP4 SUB DUP2 PUSH1 0x0 DUP8 DUP1 EXTCODESIZE ISZERO DUP1 ISZERO PUSH2 0xE99 JUMPI PUSH1 0x0 DUP1 REVERT JUMPDEST POP GAS CALL ISZERO DUP1 ISZERO PUSH2 0xEAD JUMPI RETURNDATASIZE PUSH1 0x0 DUP1 RETURNDATACOPY RETURNDATASIZE PUSH1 0x0 REVERT JUMPDEST POP POP POP POP PUSH2 0xEBB CALLER DUP3 PUSH2 0x107B JUMP JUMPDEST PUSH2 0xED3 JUMP JUMPDEST PUSH2 0xED3 PUSH2 0xDA1 PUSH1 0xA0 DUP11 ADD PUSH1 0x80 DUP12 ADD PUSH2 0x1252 JUMP JUMPDEST POP JUMPDEST POP POP POP POP POP POP POP JUMP JUMPDEST PUSH1 0x40 MLOAD PUSH32 0xD505ACCF00000000000000000000000000000000000000000000000000000000 DUP2 MSTORE PUSH1 0x1 PUSH1 0x1 PUSH1 0xA0 SHL SUB DUP8 AND SWAP1 PUSH4 0xD505ACCF SWAP1 PUSH2 0x55A SWAP1 CALLER SWAP1 ADDRESS SWAP1 DUP11 SWAP1 DUP11 SWAP1 DUP11 SWAP1 DUP11 SWAP1 DUP11 SWAP1 PUSH1 0x4 ADD PUSH2 0x171A JUMP JUMPDEST PUSH1 0x0 DUP3 ISZERO DUP1 PUSH2 0xF4A JUMPI POP POP DUP2 DUP2 MUL DUP2 DUP4 DUP3 DUP2 PUSH2 0xF47 JUMPI INVALID JUMPDEST DIV EQ JUMPDEST PUSH2 0xF53 JUMPI PUSH1 0x0 DUP1 REVERT JUMPDEST SWAP3 SWAP2 POP POP JUMP JUMPDEST PUSH1 0x0 DUP1 DUP5 PUSH1 0x1 PUSH1 0x1 PUSH1 0xA0 SHL SUB AND PUSH4 0x95EA7B3 PUSH1 0xE0 SHL DUP6 DUP6 PUSH1 0x40 MLOAD PUSH1 0x24 ADD PUSH2 0xF81 SWAP3 SWAP2 SWAP1 PUSH2 0x1783 JUMP JUMPDEST PUSH1 0x40 DUP1 MLOAD PUSH1 0x1F NOT DUP2 DUP5 SUB ADD DUP2 MSTORE SWAP2 DUP2 MSTORE PUSH1 0x20 DUP3 ADD DUP1 MLOAD PUSH28 0xFFFFFFFFFFFFFFFFFFFFFFFFFFFFFFFFFFFFFFFFFFFFFFFFFFFFFFFF AND PUSH32 0xFFFFFFFF00000000000000000000000000000000000000000000000000000000 SWAP1 SWAP5 AND SWAP4 SWAP1 SWAP4 OR SWAP1 SWAP3 MSTORE SWAP1 MLOAD PUSH2 0xFEC SWAP2 SWAP1 PUSH2 0x1663 JUMP JUMPDEST PUSH1 0x0 PUSH1 0x40 MLOAD DUP1 DUP4 SUB DUP2 PUSH1 0x0 DUP7 GAS CALL SWAP2 POP POP RETURNDATASIZE DUP1 PUSH1 0x0 DUP2 EQ PUSH2 0x1029 JUMPI PUSH1 0x40 MLOAD SWAP2 POP PUSH1 0x1F NOT PUSH1 0x3F RETURNDATASIZE ADD AND DUP3 ADD PUSH1 0x40 MSTORE RETURNDATASIZE DUP3 MSTORE RETURNDATASIZE PUSH1 0x0 PUSH1 0x20 DUP5 ADD RETURNDATACOPY PUSH2 0x102E JUMP JUMPDEST PUSH1 0x60 SWAP2 POP JUMPDEST POP SWAP2 POP SWAP2 POP DUP2 DUP1 ISZERO PUSH2 0x1058 JUMPI POP DUP1 MLOAD ISZERO DUP1 PUSH2 0x1058 JUMPI POP DUP1 DUP1 PUSH1 0x20 ADD SWAP1 MLOAD DUP2 ADD SWAP1 PUSH2 0x1058 SWAP2 SWAP1 PUSH2 0x13D0 JUMP JUMPDEST PUSH2 0x1074 JUMPI PUSH1 0x40 MLOAD PUSH3 0x461BCD PUSH1 0xE5 SHL DUP2 MSTORE PUSH1 0x4 ADD PUSH2 0x102 SWAP1 PUSH2 0x180F JUMP JUMPDEST POP POP POP POP POP JUMP JUMPDEST PUSH1 0x40 DUP1 MLOAD PUSH1 0x0 DUP1 DUP3 MSTORE PUSH1 0x20 DUP3 ADD SWAP1 SWAP3 MSTORE PUSH1 0x1 PUSH1 0x1 PUSH1 0xA0 SHL SUB DUP5 AND SWAP1 DUP4 SWAP1 PUSH1 0x40 MLOAD PUSH2 0x10A5 SWAP2 SWAP1 PUSH2 0x1663 JUMP JUMPDEST PUSH1 0x0 PUSH1 0x40 MLOAD DUP1 DUP4 SUB DUP2 DUP6 DUP8 GAS CALL SWAP3 POP POP POP RETURNDATASIZE DUP1 PUSH1 0x0 DUP2 EQ PUSH2 0x10E2 JUMPI PUSH1 0x40 MLOAD SWAP2 POP PUSH1 0x1F NOT PUSH1 0x3F RETURNDATASIZE ADD AND DUP3 ADD PUSH1 0x40 MSTORE RETURNDATASIZE DUP3 MSTORE RETURNDATASIZE PUSH1 0x0 PUSH1 0x20 DUP5 ADD RETURNDATACOPY PUSH2 0x10E7 JUMP JUMPDEST PUSH1 0x60 SWAP2 POP JUMPDEST POP POP SWAP1 POP DUP1 PUSH2 0x1108 JUMPI PUSH1 0x40 MLOAD PUSH3 0x461BCD PUSH1 0xE5 SHL DUP2 MSTORE PUSH1 0x4 ADD PUSH2 0x102 SWAP1 PUSH2 0x187D JUMP JUMPDEST POP POP POP JUMP JUMPDEST PUSH1 0x0 DUP1 DUP5 PUSH1 0x1 PUSH1 0x1 PUSH1 0xA0 SHL SUB AND PUSH4 0xA9059CBB PUSH1 0xE0 SHL DUP6 DUP6 PUSH1 0x40 MLOAD PUSH1 0x24 ADD PUSH2 0x1135 SWAP3 SWAP2 SWAP1 PUSH2 0x1783 JUMP JUMPDEST PUSH1 0x40 DUP1 MLOAD PUSH1 0x1F NOT DUP2 DUP5 SUB ADD DUP2 MSTORE SWAP2 DUP2 MSTORE PUSH1 0x20 DUP3 ADD DUP1 MLOAD PUSH28 0xFFFFFFFFFFFFFFFFFFFFFFFFFFFFFFFFFFFFFFFFFFFFFFFFFFFFFFFF AND PUSH32 0xFFFFFFFF00000000000000000000000000000000000000000000000000000000 SWAP1 SWAP5 AND SWAP4 SWAP1 SWAP4 OR SWAP1 SWAP3 MSTORE SWAP1 MLOAD PUSH2 0x11A0 SWAP2 SWAP1 PUSH2 0x1663 JUMP JUMPDEST PUSH1 0x0 PUSH1 0x40 MLOAD DUP1 DUP4 SUB DUP2 PUSH1 0x0 DUP7 GAS CALL SWAP2 POP POP RETURNDATASIZE DUP1 PUSH1 0x0 DUP2 EQ PUSH2 0x11DD JUMPI PUSH1 0x40 MLOAD SWAP2 POP PUSH1 0x1F NOT PUSH1 0x3F RETURNDATASIZE ADD AND DUP3 ADD PUSH1 0x40 MSTORE RETURNDATASIZE DUP3 MSTORE RETURNDATASIZE PUSH1 0x0 PUSH1 0x20 DUP5 ADD RETURNDATACOPY PUSH2 0x11E2 JUMP JUMPDEST PUSH1 0x60 SWAP2 POP JUMPDEST POP SWAP2 POP SWAP2 POP DUP2 DUP1 ISZERO PUSH2 0x120C JUMPI POP DUP1 MLOAD ISZERO DUP1 PUSH2 0x120C JUMPI POP DUP1 DUP1 PUSH1 0x20 ADD SWAP1 MLOAD DUP2 ADD SWAP1 PUSH2 0x120C SWAP2 SWAP1 PUSH2 0x13D0 JUMP JUMPDEST PUSH2 0x1074 JUMPI PUSH1 0x40 MLOAD PUSH3 0x461BCD PUSH1 0xE5 SHL DUP2 MSTORE PUSH1 0x4 ADD PUSH2 0x102 SWAP1 PUSH2 0x18B4 JUMP JUMPDEST DUP1 MLOAD PUSH2 0xFFFF DUP2 AND DUP2 EQ PUSH2 0x123A JUMPI PUSH1 0x0 DUP1 REVERT JUMPDEST SWAP2 SWAP1 POP JUMP JUMPDEST DUP1 CALLDATALOAD PUSH3 0xFFFFFF DUP2 AND DUP2 EQ PUSH2 0x123A JUMPI PUSH1 0x0 DUP1 REVERT JUMPDEST PUSH1 0x0 PUSH1 0x20 DUP3 DUP5 SUB SLT ISZERO PUSH2 0x1263 JUMPI DUP1 DUP2 REVERT JUMPDEST DUP2 CALLDATALOAD PUSH2 0x126E DUP2 PUSH2 0x1A8C JUMP JUMPDEST SWAP4 SWAP3 POP POP POP JUMP JUMPDEST PUSH1 0x0 PUSH1 0x20 DUP3 DUP5 SUB SLT ISZERO PUSH2 0x1286 JUMPI DUP1 DUP2 REVERT JUMPDEST DUP2 MLOAD PUSH2 0x126E DUP2 PUSH2 0x1A8C JUMP JUMPDEST PUSH1 0x0 DUP1 PUSH1 0x0 DUP1 PUSH1 0x80 DUP6 DUP8 SUB SLT ISZERO PUSH2 0x12A6 JUMPI DUP3 DUP4 REVERT JUMPDEST DUP5 CALLDATALOAD PUSH2 0x12B1 DUP2 PUSH2 0x1A8C JUMP JUMPDEST SWAP4 POP PUSH1 0x20 DUP6 ADD CALLDATALOAD PUSH2 0x12C1 DUP2 PUSH2 0x1A8C JUMP JUMPDEST SWAP3 POP PUSH2 0x12CF PUSH1 0x40 DUP7 ADD PUSH2 0x123F JUMP JUMPDEST SWAP2 POP PUSH1 0x60 DUP6 ADD CALLDATALOAD PUSH2 0x12DF DUP2 PUSH2 0x1A8C JUMP JUMPDEST SWAP4 SWAP7 SWAP3 SWAP6 POP SWAP1 SWAP4 POP POP JUMP JUMPDEST PUSH1 0x0 DUP1 PUSH1 0x0 DUP1 PUSH1 0x0 DUP1 PUSH1 0xC0 DUP8 DUP10 SUB SLT ISZERO PUSH2 0x1302 JUMPI DUP2 DUP3 REVERT JUMPDEST DUP7 CALLDATALOAD PUSH2 0x130D DUP2 PUSH2 0x1A8C JUMP JUMPDEST SWAP6 POP PUSH1 0x20 DUP8 ADD CALLDATALOAD SWAP5 POP PUSH1 0x40 DUP8 ADD CALLDATALOAD SWAP4 POP PUSH1 0x60 DUP8 ADD CALLDATALOAD PUSH2 0x132B DUP2 PUSH2 0x1AC1 JUMP JUMPDEST SWAP6 SWAP9 SWAP5 SWAP8 POP SWAP3 SWAP6 PUSH1 0x80 DUP2 ADD CALLDATALOAD SWAP5 PUSH1 0xA0 SWAP1 SWAP2 ADD CALLDATALOAD SWAP4 POP SWAP2 POP POP JUMP JUMPDEST PUSH1 0x0 DUP1 PUSH1 0x20 DUP4 DUP6 SUB SLT ISZERO PUSH2 0x1357 JUMPI DUP2 DUP3 REVERT JUMPDEST DUP3 CALLDATALOAD PUSH8 0xFFFFFFFFFFFFFFFF DUP1 DUP3 GT ISZERO PUSH2 0x136E JUMPI DUP4 DUP5 REVERT JUMPDEST DUP2 DUP6 ADD SWAP2 POP DUP6 PUSH1 0x1F DUP4 ADD SLT PUSH2 0x1381 JUMPI DUP4 DUP5 REVERT JUMPDEST DUP2 CALLDATALOAD DUP2 DUP2 GT ISZERO PUSH2 0x138F JUMPI DUP5 DUP6 REVERT JUMPDEST DUP7 PUSH1 0x20 DUP1 DUP4 MUL DUP6 ADD ADD GT ISZERO PUSH2 0x13A2 JUMPI DUP5 DUP6 REVERT JUMPDEST PUSH1 0x20 SWAP3 SWAP1 SWAP3 ADD SWAP7 SWAP2 SWAP6 POP SWAP1 SWAP4 POP POP POP POP JUMP JUMPDEST PUSH1 0x0 PUSH1 0x20 DUP3 DUP5 SUB SLT ISZERO PUSH2 0x13C5 JUMPI DUP1 DUP2 REVERT JUMPDEST DUP2 CALLDATALOAD PUSH2 0x126E DUP2 PUSH2 0x1AA4 JUMP JUMPDEST PUSH1 0x0 PUSH1 0x20 DUP3 DUP5 SUB SLT ISZERO PUSH2 0x13E1 JUMPI DUP1 DUP2 REVERT JUMPDEST DUP2 MLOAD PUSH2 0x126E DUP2 PUSH2 0x1AA4 JUMP JUMPDEST PUSH1 0x0 PUSH1 0x20 DUP3 DUP5 SUB SLT ISZERO PUSH2 0x13FD JUMPI DUP1 DUP2 REVERT JUMPDEST DUP2 CALLDATALOAD PUSH2 0x126E DUP2 PUSH2 0x1AB2 JUMP JUMPDEST PUSH1 0x0 PUSH1 0x20 DUP3 DUP5 SUB SLT ISZERO PUSH2 0x1419 JUMPI DUP1 DUP2 REVERT JUMPDEST DUP2 MLOAD PUSH8 0xFFFFFFFFFFFFFFFF DUP1 DUP3 GT ISZERO PUSH2 0x1430 JUMPI DUP3 DUP4 REVERT JUMPDEST DUP2 DUP5 ADD SWAP2 POP DUP5 PUSH1 0x1F DUP4 ADD SLT PUSH2 0x1443 JUMPI DUP3 DUP4 REVERT JUMPDEST DUP2 MLOAD DUP2 DUP2 GT ISZERO PUSH2 0x144F JUMPI INVALID JUMPDEST PUSH1 0x40 MLOAD PUSH1 0x1F DUP3 ADD PUSH1 0x1F NOT AND DUP2 ADD PUSH1 0x20 ADD DUP4 DUP2 GT DUP3 DUP3 LT OR ISZERO PUSH2 0x146D JUMPI INVALID JUMPDEST PUSH1 0x40 MSTORE DUP2 DUP2 MSTORE DUP4 DUP3 ADD PUSH1 0x20 ADD DUP8 LT ISZERO PUSH2 0x1484 JUMPI DUP5 DUP6 REVERT JUMPDEST PUSH2 0x1495 DUP3 PUSH1 0x20 DUP4 ADD PUSH1 0x20 DUP8 ADD PUSH2 0x1A5C JUMP JUMPDEST SWAP7 SWAP6 POP POP POP POP POP POP JUMP JUMPDEST PUSH1 0x0 PUSH2 0x1A0 DUP3 DUP5 SUB SLT ISZERO PUSH2 0x14B1 JUMPI DUP1 DUP2 REVERT JUMPDEST POP SWAP2 SWAP1 POP JUMP JUMPDEST PUSH1 0x0 DUP1 PUSH1 0x0 DUP1 PUSH1 0x0 DUP1 PUSH1 0x0 PUSH1 0xE0 DUP9 DUP11 SUB SLT ISZERO PUSH2 0x14D1 JUMPI DUP5 DUP6 REVERT JUMPDEST DUP8 MLOAD PUSH2 0x14DC DUP2 PUSH2 0x1A8C JUMP JUMPDEST PUSH1 0x20 DUP10 ADD MLOAD SWAP1 SWAP8 POP PUSH2 0x14ED DUP2 PUSH2 0x1AB2 JUMP JUMPDEST SWAP6 POP PUSH2 0x14FB PUSH1 0x40 DUP10 ADD PUSH2 0x1228 JUMP JUMPDEST SWAP5 POP PUSH2 0x1509 PUSH1 0x60 DUP10 ADD PUSH2 0x1228 JUMP JUMPDEST SWAP4 POP PUSH2 0x1517 PUSH1 0x80 DUP10 ADD PUSH2 0x1228 JUMP JUMPDEST SWAP3 POP PUSH1 0xA0 DUP9 ADD MLOAD PUSH2 0x1527 DUP2 PUSH2 0x1AC1 JUMP JUMPDEST PUSH1 0xC0 DUP10 ADD MLOAD SWAP1 SWAP3 POP PUSH2 0x1538 DUP2 PUSH2 0x1AA4 JUMP JUMPDEST DUP1 SWAP2 POP POP SWAP3 SWAP6 SWAP9 SWAP2 SWAP5 SWAP8 POP SWAP3 SWAP6 POP JUMP JUMPDEST PUSH1 0x0 PUSH1 0x20 DUP3 DUP5 SUB SLT ISZERO PUSH2 0x1559 JUMPI DUP1 DUP2 REVERT JUMPDEST PUSH2 0x126E DUP3 PUSH2 0x123F JUMP JUMPDEST PUSH1 0x0 PUSH1 0x20 DUP3 DUP5 SUB SLT ISZERO PUSH2 0x1573 JUMPI DUP1 DUP2 REVERT JUMPDEST POP MLOAD SWAP2 SWAP1 POP JUMP JUMPDEST PUSH1 0x0 DUP1 PUSH1 0x0 DUP1 PUSH1 0x80 DUP6 DUP8 SUB SLT ISZERO PUSH2 0x158F JUMPI DUP2 DUP3 REVERT JUMPDEST DUP5 MLOAD SWAP4 POP PUSH1 0x20 DUP6 ADD MLOAD PUSH16 0xFFFFFFFFFFFFFFFFFFFFFFFFFFFFFFFF DUP2 AND DUP2 EQ PUSH2 0x15B5 JUMPI DUP3 DUP4 REVERT JUMPDEST PUSH1 0x40 DUP7 ADD MLOAD PUSH1 0x60 SWAP1 SWAP7 ADD MLOAD SWAP5 SWAP8 SWAP1 SWAP7 POP SWAP3 POP POP POP JUMP JUMPDEST PUSH1 0x0 DUP1 PUSH1 0x40 DUP4 DUP6 SUB SLT ISZERO PUSH2 0x15DD JUMPI DUP2 DUP3 REVERT JUMPDEST POP POP DUP1 MLOAD PUSH1 0x20 SWAP1 SWAP2 ADD MLOAD SWAP1 SWAP3 SWAP1 SWAP2 POP JUMP JUMPDEST PUSH1 0x0 PUSH1 0x20 DUP3 DUP5 SUB SLT ISZERO PUSH2 0x15FF JUMPI DUP1 DUP2 REVERT JUMPDEST DUP2 CALLDATALOAD PUSH2 0x126E DUP2 PUSH2 0x1AC1 JUMP JUMPDEST PUSH1 0x1 PUSH1 0x1 PUSH1 0xA0 SHL SUB AND SWAP1 MSTORE JUMP JUMPDEST PUSH1 0x0 DUP2 MLOAD DUP1 DUP5 MSTORE PUSH2 0x162F DUP2 PUSH1 0x20 DUP7 ADD PUSH1 0x20 DUP7 ADD PUSH2 0x1A5C JUMP JUMPDEST PUSH1 0x1F ADD PUSH1 0x1F NOT AND SWAP3 SWAP1 SWAP3 ADD PUSH1 0x20 ADD SWAP3 SWAP2 POP POP JUMP JUMPDEST PUSH1 0x2 SIGNEXTEND SWAP1 MSTORE JUMP JUMPDEST PUSH3 0xFFFFFF AND SWAP1 MSTORE JUMP JUMPDEST PUSH1 0x0 DUP3 DUP5 DUP4 CALLDATACOPY SWAP2 ADD SWAP1 DUP2 MSTORE SWAP2 SWAP1 POP JUMP JUMPDEST PUSH1 0x0 DUP3 MLOAD PUSH2 0x1675 DUP2 DUP5 PUSH1 0x20 DUP8 ADD PUSH2 0x1A5C JUMP JUMPDEST SWAP2 SWAP1 SWAP2 ADD SWAP3 SWAP2 POP POP JUMP JUMPDEST PUSH1 0x1 PUSH1 0x1 PUSH1 0xA0 SHL SUB SWAP2 SWAP1 SWAP2 AND DUP2 MSTORE PUSH1 0x20 ADD SWAP1 JUMP JUMPDEST PUSH1 0x1 PUSH1 0x1 PUSH1 0xA0 SHL SUB SWAP3 DUP4 AND DUP2 MSTORE SWAP2 AND PUSH1 0x20 DUP3 ADD MSTORE PUSH1 0x40 ADD SWAP1 JUMP JUMPDEST PUSH1 0x1 PUSH1 0x1 PUSH1 0xA0 SHL SUB SWAP4 DUP5 AND DUP2 MSTORE SWAP2 SWAP1 SWAP3 AND PUSH1 0x20 DUP3 ADD MSTORE PUSH1 0x40 DUP2 ADD SWAP2 SWAP1 SWAP2 MSTORE PUSH1 0x60 ADD SWAP1 JUMP JUMPDEST PUSH1 0x1 PUSH1 0x1 PUSH1 0xA0 SHL SUB SWAP9 DUP10 AND DUP2 MSTORE SWAP7 SWAP1 SWAP8 AND PUSH1 0x20 DUP8 ADD MSTORE PUSH1 0x40 DUP7 ADD SWAP5 SWAP1 SWAP5 MSTORE PUSH1 0x60 DUP6 ADD SWAP3 SWAP1 SWAP3 MSTORE ISZERO ISZERO PUSH1 0x80 DUP5 ADD MSTORE PUSH1 0xFF AND PUSH1 0xA0 DUP4 ADD MSTORE PUSH1 0xC0 DUP3 ADD MSTORE PUSH1 0xE0 DUP2 ADD SWAP2 SWAP1 SWAP2 MSTORE PUSH2 0x100 ADD SWAP1 JUMP JUMPDEST PUSH1 0x1 PUSH1 0x1 PUSH1 0xA0 SHL SUB SWAP8 DUP9 AND DUP2 MSTORE SWAP6 SWAP1 SWAP7 AND PUSH1 0x20 DUP7 ADD MSTORE PUSH1 0x40 DUP6 ADD SWAP4 SWAP1 SWAP4 MSTORE PUSH1 0x60 DUP5 ADD SWAP2 SWAP1 SWAP2 MSTORE PUSH1 0xFF AND PUSH1 0x80 DUP4 ADD MSTORE PUSH1 0xA0 DUP3 ADD MSTORE PUSH1 0xC0 DUP2 ADD SWAP2 SWAP1 SWAP2 MSTORE PUSH1 0xE0 ADD SWAP1 JUMP JUMPDEST PUSH1 0x1 PUSH1 0x1 PUSH1 0xA0 SHL SUB SWAP4 DUP5 AND DUP2 MSTORE SWAP2 SWAP1 SWAP3 AND PUSH1 0x20 DUP3 ADD MSTORE PUSH3 0xFFFFFF SWAP1 SWAP2 AND PUSH1 0x40 DUP3 ADD MSTORE PUSH1 0x60 ADD SWAP1 JUMP JUMPDEST PUSH1 0x1 PUSH1 0x1 PUSH1 0xA0 SHL SUB SWAP3 SWAP1 SWAP3 AND DUP3 MSTORE PUSH1 0x20 DUP3 ADD MSTORE PUSH1 0x40 ADD SWAP1 JUMP JUMPDEST PUSH1 0x0 PUSH1 0x20 DUP1 DUP4 ADD DUP2 DUP5 MSTORE DUP1 DUP6 MLOAD DUP1 DUP4 MSTORE PUSH1 0x40 DUP7 ADD SWAP2 POP PUSH1 0x40 DUP5 DUP3 MUL DUP8 ADD ADD SWAP3 POP DUP4 DUP8 ADD DUP6 JUMPDEST DUP3 DUP2 LT ISZERO PUSH2 0x17EF JUMPI PUSH1 0x3F NOT DUP9 DUP7 SUB ADD DUP5 MSTORE PUSH2 0x17DD DUP6 DUP4 MLOAD PUSH2 0x1617 JUMP JUMPDEST SWAP5 POP SWAP3 DUP6 ADD SWAP3 SWAP1 DUP6 ADD SWAP1 PUSH1 0x1 ADD PUSH2 0x17C1 JUMP JUMPDEST POP SWAP3 SWAP8 SWAP7 POP POP POP POP POP POP POP JUMP JUMPDEST PUSH1 0x0 PUSH1 0x20 DUP3 MSTORE PUSH2 0x126E PUSH1 0x20 DUP4 ADD DUP5 PUSH2 0x1617 JUMP JUMPDEST PUSH1 0x20 DUP1 DUP3 MSTORE PUSH1 0x2 SWAP1 DUP3 ADD MSTORE PUSH32 0x5341000000000000000000000000000000000000000000000000000000000000 PUSH1 0x40 DUP3 ADD MSTORE PUSH1 0x60 ADD SWAP1 JUMP JUMPDEST PUSH1 0x20 DUP1 DUP3 MSTORE PUSH1 0x14 SWAP1 DUP3 ADD MSTORE PUSH32 0x50657263656E7461676520746F6F20736D616C6C000000000000000000000000 PUSH1 0x40 DUP3 ADD MSTORE PUSH1 0x60 ADD SWAP1 JUMP JUMPDEST PUSH1 0x20 DUP1 DUP3 MSTORE PUSH1 0x3 SWAP1 DUP3 ADD MSTORE PUSH32 0x5354450000000000000000000000000000000000000000000000000000000000 PUSH1 0x40 DUP3 ADD MSTORE PUSH1 0x60 ADD SWAP1 JUMP JUMPDEST PUSH1 0x20 DUP1 DUP3 MSTORE PUSH1 0x2 SWAP1 DUP3 ADD MSTORE PUSH32 0x5354000000000000000000000000000000000000000000000000000000000000 PUSH1 0x40 DUP3 ADD MSTORE PUSH1 0x60 ADD SWAP1 JUMP JUMPDEST PUSH1 0x20 DUP1 DUP3 MSTORE PUSH1 0x9 SWAP1 DUP3 ADD MSTORE PUSH32 0x4E6F742057455448390000000000000000000000000000000000000000000000 PUSH1 0x40 DUP3 ADD MSTORE PUSH1 0x60 ADD SWAP1 JUMP JUMPDEST PUSH1 0x20 DUP1 DUP3 MSTORE PUSH1 0x14 SWAP1 DUP3 ADD MSTORE PUSH32 0x50657263656E7461676520746F6F206C61726765000000000000000000000000 PUSH1 0x40 DUP3 ADD MSTORE PUSH1 0x60 ADD SWAP1 JUMP JUMPDEST PUSH1 0x0 PUSH2 0x160 DUP3 ADD SWAP1 POP PUSH2 0x196D DUP3 DUP5 MLOAD PUSH2 0x160A JUMP JUMPDEST PUSH1 0x20 DUP4 ADD MLOAD PUSH2 0x197F PUSH1 0x20 DUP5 ADD DUP3 PUSH2 0x160A JUMP JUMPDEST POP PUSH1 0x40 DUP4 ADD MLOAD PUSH2 0x1992 PUSH1 0x40 DUP5 ADD DUP3 PUSH2 0x164A JUMP JUMPDEST POP PUSH1 0x60 DUP4 ADD MLOAD PUSH2 0x19A5 PUSH1 0x60 DUP5 ADD DUP3 PUSH2 0x1643 JUMP JUMPDEST POP PUSH1 0x80 DUP4 ADD MLOAD PUSH2 0x19B8 PUSH1 0x80 DUP5 ADD DUP3 PUSH2 0x1643 JUMP JUMPDEST POP PUSH1 0xA0 DUP4 ADD MLOAD PUSH1 0xA0 DUP4 ADD MSTORE PUSH1 0xC0 DUP4 ADD MLOAD PUSH1 0xC0 DUP4 ADD MSTORE PUSH1 0xE0 DUP4 ADD MLOAD PUSH1 0xE0 DUP4 ADD MSTORE PUSH2 0x100 DUP1 DUP5 ADD MLOAD DUP2 DUP5 ADD MSTORE POP PUSH2 0x120 DUP1 DUP5 ADD MLOAD PUSH2 0x19F6 DUP3 DUP6 ADD DUP3 PUSH2 0x160A JUMP JUMPDEST POP POP PUSH2 0x140 SWAP3 DUP4 ADD MLOAD SWAP2 SWAP1 SWAP3 ADD MSTORE SWAP1 JUMP JUMPDEST SWAP1 DUP2 MSTORE PUSH1 0x20 ADD SWAP1 JUMP JUMPDEST PUSH1 0x0 DUP1 DUP4 CALLDATALOAD PUSH1 0x1E NOT DUP5 CALLDATASIZE SUB ADD DUP2 SLT PUSH2 0x1A26 JUMPI DUP3 DUP4 REVERT JUMPDEST DUP4 ADD DUP1 CALLDATALOAD SWAP2 POP PUSH8 0xFFFFFFFFFFFFFFFF DUP3 GT ISZERO PUSH2 0x1A40 JUMPI DUP3 DUP4 REVERT JUMPDEST PUSH1 0x20 ADD SWAP2 POP CALLDATASIZE DUP2 SWAP1 SUB DUP3 SGT ISZERO PUSH2 0x1A55 JUMPI PUSH1 0x0 DUP1 REVERT JUMPDEST SWAP3 POP SWAP3 SWAP1 POP JUMP JUMPDEST PUSH1 0x0 JUMPDEST DUP4 DUP2 LT ISZERO PUSH2 0x1A77 JUMPI DUP2 DUP2 ADD MLOAD DUP4 DUP3 ADD MSTORE PUSH1 0x20 ADD PUSH2 0x1A5F JUMP JUMPDEST DUP4 DUP2 GT ISZERO PUSH2 0x1A86 JUMPI PUSH1 0x0 DUP5 DUP5 ADD MSTORE JUMPDEST POP POP POP POP JUMP JUMPDEST PUSH1 0x1 PUSH1 0x1 PUSH1 0xA0 SHL SUB DUP2 AND DUP2 EQ PUSH2 0x1AA1 JUMPI PUSH1 0x0 DUP1 REVERT JUMPDEST POP JUMP JUMPDEST DUP1 ISZERO ISZERO DUP2 EQ PUSH2 0x1AA1 JUMPI PUSH1 0x0 DUP1 REVERT JUMPDEST DUP1 PUSH1 0x2 SIGNEXTEND DUP2 EQ PUSH2 0x1AA1 JUMPI PUSH1 0x0 DUP1 REVERT JUMPDEST PUSH1 0xFF DUP2 AND DUP2 EQ PUSH2 0x1AA1 JUMPI PUSH1 0x0 DUP1 REVERT INVALID LOG2 PUSH5 0x6970667358 0x22 SLT KECCAK256 EQ 0x2A 0xD8 0x27 0x2C SIGNEXTEND 0xC2 0xAE SWAP14 0xE1 SWAP3 PUSH3 0x598781 SWAP14 PUSH15 0xEA2807922835E48C8CA669ED4E86DB PUSH5 0x736F6C6343 STOP SMOD MOD STOP CALLER "
		},
		"gasEstimates": {
			"creation": {
				"codeDepositCost": "1383600",
				"executionCost": "infinite",
				"totalCost": "infinite"
			},
			"external": {
				"WETH9()": "infinite",
				"createAndInitializePoolIfNecessary(address,address,uint24,uint160)": "infinite",
				"factory()": "infinite",
				"migrate((address,uint256,uint8,address,address,uint24,int24,int24,uint256,uint256,address,uint256,bool))": "infinite",
				"multicall(bytes[])": "infinite",
				"nonfungiblePositionManager()": "infinite",
				"selfPermit(address,uint256,uint256,uint8,bytes32,bytes32)": "infinite",
				"selfPermitAllowed(address,uint256,uint256,uint8,bytes32,bytes32)": "infinite",
				"selfPermitAllowedIfNecessary(address,uint256,uint256,uint8,bytes32,bytes32)": "infinite",
				"selfPermitIfNecessary(address,uint256,uint256,uint8,bytes32,bytes32)": "infinite"
			}
		},
		"methodIdentifiers": {
			"WETH9()": "4aa4a4fc",
			"createAndInitializePoolIfNecessary(address,address,uint24,uint160)": "13ead562",
			"factory()": "c45a0155",
			"migrate((address,uint256,uint8,address,address,uint24,int24,int24,uint256,uint256,address,uint256,bool))": "d44f2bf2",
			"multicall(bytes[])": "ac9650d8",
			"nonfungiblePositionManager()": "b44a2722",
			"selfPermit(address,uint256,uint256,uint8,bytes32,bytes32)": "f3995c67",
			"selfPermitAllowed(address,uint256,uint256,uint8,bytes32,bytes32)": "4659a494",
			"selfPermitAllowedIfNecessary(address,uint256,uint256,uint8,bytes32,bytes32)": "a4a78f0c",
			"selfPermitIfNecessary(address,uint256,uint256,uint8,bytes32,bytes32)": "c2e3140a"
		}
	},
	"abi": [
		{
			"inputs": [
				{
					"internalType": "address",
					"name": "_factory",
					"type": "address"
				},
				{
					"internalType": "address",
					"name": "_WETH9",
					"type": "address"
				},
				{
					"internalType": "address",
					"name": "_nonfungiblePositionManager",
					"type": "address"
				}
			],
			"stateMutability": "nonpayable",
			"type": "constructor"
		},
		{
			"inputs": [],
			"name": "WETH9",
			"outputs": [
				{
					"internalType": "address",
					"name": "",
					"type": "address"
				}
			],
			"stateMutability": "view",
			"type": "function"
		},
		{
			"inputs": [
				{
					"internalType": "address",
					"name": "token0",
					"type": "address"
				},
				{
					"internalType": "address",
					"name": "token1",
					"type": "address"
				},
				{
					"internalType": "uint24",
					"name": "fee",
					"type": "uint24"
				},
				{
					"internalType": "uint160",
					"name": "sqrtPriceX96",
					"type": "uint160"
				}
			],
			"name": "createAndInitializePoolIfNecessary",
			"outputs": [
				{
					"internalType": "address",
					"name": "pool",
					"type": "address"
				}
			],
			"stateMutability": "payable",
			"type": "function"
		},
		{
			"inputs": [],
			"name": "factory",
			"outputs": [
				{
					"internalType": "address",
					"name": "",
					"type": "address"
				}
			],
			"stateMutability": "view",
			"type": "function"
		},
		{
			"inputs": [
				{
					"components": [
						{
							"internalType": "address",
							"name": "pair",
							"type": "address"
						},
						{
							"internalType": "uint256",
							"name": "liquidityToMigrate",
							"type": "uint256"
						},
						{
							"internalType": "uint8",
							"name": "percentageToMigrate",
							"type": "uint8"
						},
						{
							"internalType": "address",
							"name": "token0",
							"type": "address"
						},
						{
							"internalType": "address",
							"name": "token1",
							"type": "address"
						},
						{
							"internalType": "uint24",
							"name": "fee",
							"type": "uint24"
						},
						{
							"internalType": "int24",
							"name": "tickLower",
							"type": "int24"
						},
						{
							"internalType": "int24",
							"name": "tickUpper",
							"type": "int24"
						},
						{
							"internalType": "uint256",
							"name": "amount0Min",
							"type": "uint256"
						},
						{
							"internalType": "uint256",
							"name": "amount1Min",
							"type": "uint256"
						},
						{
							"internalType": "address",
							"name": "recipient",
							"type": "address"
						},
						{
							"internalType": "uint256",
							"name": "deadline",
							"type": "uint256"
						},
						{
							"internalType": "bool",
							"name": "refundAsETH",
							"type": "bool"
						}
					],
					"internalType": "struct IV3Migrator.MigrateParams",
					"name": "params",
					"type": "tuple"
				}
			],
			"name": "migrate",
			"outputs": [],
			"stateMutability": "nonpayable",
			"type": "function"
		},
		{
			"inputs": [
				{
					"internalType": "bytes[]",
					"name": "data",
					"type": "bytes[]"
				}
			],
			"name": "multicall",
			"outputs": [
				{
					"internalType": "bytes[]",
					"name": "results",
					"type": "bytes[]"
				}
			],
			"stateMutability": "payable",
			"type": "function"
		},
		{
			"inputs": [],
			"name": "nonfungiblePositionManager",
			"outputs": [
				{
					"internalType": "address",
					"name": "",
					"type": "address"
				}
			],
			"stateMutability": "view",
			"type": "function"
		},
		{
			"inputs": [
				{
					"internalType": "address",
					"name": "token",
					"type": "address"
				},
				{
					"internalType": "uint256",
					"name": "value",
					"type": "uint256"
				},
				{
					"internalType": "uint256",
					"name": "deadline",
					"type": "uint256"
				},
				{
					"internalType": "uint8",
					"name": "v",
					"type": "uint8"
				},
				{
					"internalType": "bytes32",
					"name": "r",
					"type": "bytes32"
				},
				{
					"internalType": "bytes32",
					"name": "s",
					"type": "bytes32"
				}
			],
			"name": "selfPermit",
			"outputs": [],
			"stateMutability": "payable",
			"type": "function"
		},
		{
			"inputs": [
				{
					"internalType": "address",
					"name": "token",
					"type": "address"
				},
				{
					"internalType": "uint256",
					"name": "nonce",
					"type": "uint256"
				},
				{
					"internalType": "uint256",
					"name": "expiry",
					"type": "uint256"
				},
				{
					"internalType": "uint8",
					"name": "v",
					"type": "uint8"
				},
				{
					"internalType": "bytes32",
					"name": "r",
					"type": "bytes32"
				},
				{
					"internalType": "bytes32",
					"name": "s",
					"type": "bytes32"
				}
			],
			"name": "selfPermitAllowed",
			"outputs": [],
			"stateMutability": "payable",
			"type": "function"
		},
		{
			"inputs": [
				{
					"internalType": "address",
					"name": "token",
					"type": "address"
				},
				{
					"internalType": "uint256",
					"name": "nonce",
					"type": "uint256"
				},
				{
					"internalType": "uint256",
					"name": "expiry",
					"type": "uint256"
				},
				{
					"internalType": "uint8",
					"name": "v",
					"type": "uint8"
				},
				{
					"internalType": "bytes32",
					"name": "r",
					"type": "bytes32"
				},
				{
					"internalType": "bytes32",
					"name": "s",
					"type": "bytes32"
				}
			],
			"name": "selfPermitAllowedIfNecessary",
			"outputs": [],
			"stateMutability": "payable",
			"type": "function"
		},
		{
			"inputs": [
				{
					"internalType": "address",
					"name": "token",
					"type": "address"
				},
				{
					"internalType": "uint256",
					"name": "value",
					"type": "uint256"
				},
				{
					"internalType": "uint256",
					"name": "deadline",
					"type": "uint256"
				},
				{
					"internalType": "uint8",
					"name": "v",
					"type": "uint8"
				},
				{
					"internalType": "bytes32",
					"name": "r",
					"type": "bytes32"
				},
				{
					"internalType": "bytes32",
					"name": "s",
					"type": "bytes32"
				}
			],
			"name": "selfPermitIfNecessary",
			"outputs": [],
			"stateMutability": "payable",
			"type": "function"
		},
		{
			"stateMutability": "payable",
			"type": "receive"
		}
	]
}