{
  "_format": "hh-sol-artifact-1",
  "contractName": "Quoter",
  "sourceName": "contracts/lens/Quoter.sol",
  "abi": [
    {
      "inputs": [
        {
          "internalType": "address",
          "name": "_factory",
          "type": "address"
        },
        {
          "internalType": "address",
          "name": "_WETH9",
          "type": "address"
        }
      ],
      "stateMutability": "nonpayable",
      "type": "constructor"
    },
    {
      "inputs": [],
      "name": "WETH9",
      "outputs": [
        {
          "internalType": "address",
          "name": "",
          "type": "address"
        }
      ],
      "stateMutability": "view",
      "type": "function"
    },
    {
      "inputs": [],
      "name": "factory",
      "outputs": [
        {
          "internalType": "address",
          "name": "",
          "type": "address"
        }
      ],
      "stateMutability": "view",
      "type": "function"
    },
    {
      "inputs": [
        {
          "internalType": "bytes",
          "name": "path",
          "type": "bytes"
        },
        {
          "internalType": "uint256",
          "name": "amountIn",
          "type": "uint256"
        }
      ],
      "name": "quoteExactInput",
      "outputs": [
        {
          "internalType": "uint256",
          "name": "amountOut",
          "type": "uint256"
        }
      ],
      "stateMutability": "nonpayable",
      "type": "function"
    },
    {
      "inputs": [
        {
          "internalType": "address",
          "name": "tokenIn",
          "type": "address"
        },
        {
          "internalType": "address",
          "name": "tokenOut",
          "type": "address"
        },
        {
          "internalType": "uint24",
          "name": "fee",
          "type": "uint24"
        },
        {
          "internalType": "uint256",
          "name": "amountIn",
          "type": "uint256"
        },
        {
          "internalType": "uint160",
          "name": "sqrtPriceLimitX96",
          "type": "uint160"
        }
      ],
      "name": "quoteExactInputSingle",
      "outputs": [
        {
          "internalType": "uint256",
          "name": "amountOut",
          "type": "uint256"
        }
      ],
      "stateMutability": "nonpayable",
      "type": "function"
    },
    {
      "inputs": [
        {
          "internalType": "bytes",
          "name": "path",
          "type": "bytes"
        },
        {
          "internalType": "uint256",
          "name": "amountOut",
          "type": "uint256"
        }
      ],
      "name": "quoteExactOutput",
      "outputs": [
        {
          "internalType": "uint256",
          "name": "amountIn",
          "type": "uint256"
        }
      ],
      "stateMutability": "nonpayable",
      "type": "function"
    },
    {
      "inputs": [
        {
          "internalType": "address",
          "name": "tokenIn",
          "type": "address"
        },
        {
          "internalType": "address",
          "name": "tokenOut",
          "type": "address"
        },
        {
          "internalType": "uint24",
          "name": "fee",
          "type": "uint24"
        },
        {
          "internalType": "uint256",
          "name": "amountOut",
          "type": "uint256"
        },
        {
          "internalType": "uint160",
          "name": "sqrtPriceLimitX96",
          "type": "uint160"
        }
      ],
      "name": "quoteExactOutputSingle",
      "outputs": [
        {
          "internalType": "uint256",
          "name": "amountIn",
          "type": "uint256"
        }
      ],
      "stateMutability": "nonpayable",
      "type": "function"
    },
    {
      "inputs": [
        {
          "internalType": "int256",
          "name": "amount0Delta",
          "type": "int256"
        },
        {
          "internalType": "int256",
          "name": "amount1Delta",
          "type": "int256"
        },
        {
          "internalType": "bytes",
          "name": "path",
          "type": "bytes"
        }
      ],
      "name": "uniswapV3SwapCallback",
      "outputs": [],
      "stateMutability": "view",
      "type": "function"
    }
  ],
  "bytecode": "0x60c060405234801561001057600080fd5b506040516113c33803806113c38339818101604052604081101561003357600080fd5b5080516020909101516001600160601b0319606092831b8116608052911b1660a05260805160601c60a05160601c61133b6100886000398061067552508061069952806109855280610ad4525061133b6000f3fe608060405234801561001057600080fd5b506004361061007d5760003560e01c8063c45a01551161005b578063c45a0155146101c3578063cdca1753146101cb578063f7729d4314610273578063fa461e33146102c95761007d565b80632f80bb1d1461008257806330d07f211461013c5780634aa4a4fc14610192575b600080fd5b61012a6004803603604081101561009857600080fd5b8101906020810181356401000000008111156100b357600080fd5b8201836020820111156100c557600080fd5b803590602001918460018302840111640100000000831117156100e757600080fd5b91908080601f016020809104026020016040519081016040528093929190818152602001838380828437600092019190915250929550509135925061037d915050565b60408051918252519081900360200190f35b61012a600480360360a081101561015257600080fd5b5073ffffffffffffffffffffffffffffffffffffffff8135811691602081013582169162ffffff60408301351691606081013591608090910135166103e2565b61019a610673565b6040805173ffffffffffffffffffffffffffffffffffffffff9092168252519081900360200190f35b61019a610697565b61012a600480360360408110156101e157600080fd5b8101906020810181356401000000008111156101fc57600080fd5b82018360208201111561020e57600080fd5b8035906020019184600183028401116401000000008311171561023057600080fd5b91908080601f01602080910402602001604051908101604052809392919081815260200183838082843760009201919091525092955050913592506106bb915050565b61012a600480360360a081101561028957600080fd5b5073ffffffffffffffffffffffffffffffffffffffff8135811691602081013582169162ffffff6040830135169160608101359160809091013516610709565b61037b600480360360608110156102df57600080fd5b81359160208101359181019060608101604082013564010000000081111561030657600080fd5b82018360208201111561031857600080fd5b8035906020019184600183028401116401000000008311171561033a57600080fd5b91908080601f016020809104026020016040519081016040528093929190818152602001838380828437600092019190915250929550610954945050505050565b005b60005b600061038b84610a5f565b9050600080600061039b87610a67565b9250925092506103af8284838960006103e2565b955083156103c7576103c087610a98565b96506103d3565b859450505050506103dc565b50505050610380565b92915050565b600073ffffffffffffffffffffffffffffffffffffffff8086168782161090831661040d5760008490555b610418878787610acd565b73ffffffffffffffffffffffffffffffffffffffff1663128acb08308361043e88610b0b565b60000373ffffffffffffffffffffffffffffffffffffffff8816156104635787610489565b856104825773fffd8963efd1fc6a506488495d951d5263988d25610489565b6401000276a45b8b8b8e604051602001808473ffffffffffffffffffffffffffffffffffffffff1660601b81526014018362ffffff1660e81b81526003018273ffffffffffffffffffffffffffffffffffffffff1660601b815260140193505050506040516020818303038152906040526040518663ffffffff1660e01b8152600401808673ffffffffffffffffffffffffffffffffffffffff16815260200185151581526020018481526020018373ffffffffffffffffffffffffffffffffffffffff16815260200180602001828103825283818151815260200191508051906020019080838360005b8381101561058557818101518382015260200161056d565b50505050905090810190601f1680156105b25780820380516001836020036101000a031916815260200191505b5096505050505050506040805180830381600087803b1580156105d457600080fd5b505af192505050801561060057506040513d60408110156105f457600080fd5b50805160209091015160015b610666573d80801561062e576040519150601f19603f3d011682016040523d82523d6000602084013e610633565b606091505b5073ffffffffffffffffffffffffffffffffffffffff841661065457600080555b61065d81610b3d565b9250505061066a565b5050505b95945050505050565b7f000000000000000000000000000000000000000000000000000000000000000081565b7f000000000000000000000000000000000000000000000000000000000000000081565b60005b60006106c984610a5f565b905060008060006106d987610a67565b9250925092506106ed838383896000610709565b955083156103c7576106fe87610a98565b9650505050506106be565b600073ffffffffffffffffffffffffffffffffffffffff80861690871610610732878787610acd565b73ffffffffffffffffffffffffffffffffffffffff1663128acb08308361075888610b0b565b73ffffffffffffffffffffffffffffffffffffffff88161561077a57876107a0565b856107995773fffd8963efd1fc6a506488495d951d5263988d256107a0565b6401000276a45b8c8b8d604051602001808473ffffffffffffffffffffffffffffffffffffffff1660601b81526014018362ffffff1660e81b81526003018273ffffffffffffffffffffffffffffffffffffffff1660601b815260140193505050506040516020818303038152906040526040518663ffffffff1660e01b8152600401808673ffffffffffffffffffffffffffffffffffffffff16815260200185151581526020018481526020018373ffffffffffffffffffffffffffffffffffffffff16815260200180602001828103825283818151815260200191508051906020019080838360005b8381101561089c578181015183820152602001610884565b50505050905090810190601f1680156108c95780820380516001836020036101000a031916815260200191505b5096505050505050506040805180830381600087803b1580156108eb57600080fd5b505af192505050801561091757506040513d604081101561090b57600080fd5b50805160209091015160015b610666573d808015610945576040519150601f19603f3d011682016040523d82523d6000602084013e61094a565b606091505b5061065d81610b3d565b60008313806109635750600082135b61096c57600080fd5b600080600061097a84610a67565b9250925092506109ac7f0000000000000000000000000000000000000000000000000000000000000000848484610d3e565b5060008060008089136109f2578573ffffffffffffffffffffffffffffffffffffffff168573ffffffffffffffffffffffffffffffffffffffff1610888a600003610a27565b8473ffffffffffffffffffffffffffffffffffffffff168673ffffffffffffffffffffffffffffffffffffffff161089896000035b9250925092508215610a3e57604051818152602081fd5b60005415610a54576000548114610a5457600080fd5b604051828152602081fd5b516042111590565b60008080610a758482610d54565b9250610a82846014610e54565b9050610a8f846017610d54565b91509193909250565b80516060906103dc9083906017907fffffffffffffffffffffffffffffffffffffffffffffffffffffffffffffffe901610f44565b6000610b037f0000000000000000000000000000000000000000000000000000000000000000610afe86868661112b565b6111a8565b949350505050565b60007f80000000000000000000000000000000000000000000000000000000000000008210610b3957600080fd5b5090565b60008151602014610d2157604482511015610bb957604080517f08c379a000000000000000000000000000000000000000000000000000000000815260206004820152601060248201527f556e6578706563746564206572726f7200000000000000000000000000000000604482015290519081900360640190fd5b6004820180519092602401906020811015610bd357600080fd5b8101908080516040519392919084640100000000821115610bf357600080fd5b908301906020820185811115610c0857600080fd5b8251640100000000811182820188101715610c2257600080fd5b82525081516020918201929091019080838360005b83811015610c4f578181015183820152602001610c37565b50505050905090810190601f168015610c7c5780820380516001836020036101000a031916815260200191505b506040525050506040517f08c379a00000000000000000000000000000000000000000000000000000000081526004018080602001828103825283818151815260200191508051906020019080838360005b83811015610ce6578181015183820152602001610cce565b50505050905090810190601f168015610d135780820380516001836020036101000a031916815260200191505b509250505060405180910390fd5b818060200190516020811015610d3657600080fd5b505192915050565b600061066a85610d4f86868661112b565b6112de565b600081826014011015610dc857604080517f08c379a000000000000000000000000000000000000000000000000000000000815260206004820152601260248201527f746f416464726573735f6f766572666c6f770000000000000000000000000000604482015290519081900360640190fd5b8160140183511015610e3b57604080517f08c379a000000000000000000000000000000000000000000000000000000000815260206004820152601560248201527f746f416464726573735f6f75744f66426f756e64730000000000000000000000604482015290519081900360640190fd5b5001602001516c01000000000000000000000000900490565b600081826003011015610ec857604080517f08c379a000000000000000000000000000000000000000000000000000000000815260206004820152601160248201527f746f55696e7432345f6f766572666c6f77000000000000000000000000000000604482015290519081900360640190fd5b8160030183511015610f3b57604080517f08c379a000000000000000000000000000000000000000000000000000000000815260206004820152601460248201527f746f55696e7432345f6f75744f66426f756e6473000000000000000000000000604482015290519081900360640190fd5b50016003015190565b60608182601f011015610fb857604080517f08c379a000000000000000000000000000000000000000000000000000000000815260206004820152600e60248201527f736c6963655f6f766572666c6f77000000000000000000000000000000000000604482015290519081900360640190fd5b82828401101561102957604080517f08c379a000000000000000000000000000000000000000000000000000000000815260206004820152600e60248201527f736c6963655f6f766572666c6f77000000000000000000000000000000000000604482015290519081900360640190fd5b8183018451101561109b57604080517f08c379a000000000000000000000000000000000000000000000000000000000815260206004820152601160248201527f736c6963655f6f75744f66426f756e6473000000000000000000000000000000604482015290519081900360640190fd5b6060821580156110ba5760405191506000825260208201604052611122565b6040519150601f8416801560200281840101858101878315602002848b0101015b818310156110f35780518352602092830192016110db565b5050858452601f017fffffffffffffffffffffffffffffffffffffffffffffffffffffffffffffffe016604052505b50949350505050565b61113361130e565b8273ffffffffffffffffffffffffffffffffffffffff168473ffffffffffffffffffffffffffffffffffffffff16111561116b579192915b506040805160608101825273ffffffffffffffffffffffffffffffffffffffff948516815292909316602083015262ffffff169181019190915290565b6000816020015173ffffffffffffffffffffffffffffffffffffffff16826000015173ffffffffffffffffffffffffffffffffffffffff16106111ea57600080fd5b508051602080830151604093840151845173ffffffffffffffffffffffffffffffffffffffff94851681850152939091168385015262ffffff166060808401919091528351808403820181526080840185528051908301207fff0000000000000000000000000000000000000000000000000000000000000060a085015294901b7fffffffffffffffffffffffffffffffffffffffff0000000000000000000000001660a183015260b58201939093527fe34f199b19b2b4f47f68442619d555527d244f78a3297ea89325f843f87b8b5460d5808301919091528251808303909101815260f5909101909152805191012090565b60006112ea83836111a8565b90503373ffffffffffffffffffffffffffffffffffffffff8216146103dc57600080fd5b60408051606081018252600080825260208201819052918101919091529056fea164736f6c6343000706000a",
  "linkReferences": {},
  "deployedLinkReferences": {}
}