{
	"contracts/SwapRouter.sol": {
		"SwapRouter": {
			"abi": [
				{
					"inputs": [
						{
							"internalType": "address",
							"name": "_factory",
							"type": "address"
						},
						{
							"internalType": "address",
							"name": "_WETH9",
							"type": "address"
						}
					],
					"stateMutability": "nonpayable",
					"type": "constructor"
				},
				{
					"inputs": [],
					"name": "WETH9",
					"outputs": [
						{
							"internalType": "address",
							"name": "",
							"type": "address"
						}
					],
					"stateMutability": "view",
					"type": "function"
				},
				{
					"inputs": [
						{
							"components": [
								{
									"internalType": "bytes",
									"name": "path",
									"type": "bytes"
								},
								{
									"internalType": "address",
									"name": "recipient",
									"type": "address"
								},
								{
									"internalType": "uint256",
									"name": "deadline",
									"type": "uint256"
								},
								{
									"internalType": "uint256",
									"name": "amountIn",
									"type": "uint256"
								},
								{
									"internalType": "uint256",
									"name": "amountOutMinimum",
									"type": "uint256"
								}
							],
							"internalType": "struct ISwapRouter.ExactInputParams",
							"name": "params",
							"type": "tuple"
						}
					],
					"name": "exactInput",
					"outputs": [
						{
							"internalType": "uint256",
							"name": "amountOut",
							"type": "uint256"
						}
					],
					"stateMutability": "payable",
					"type": "function"
				},
				{
					"inputs": [
						{
							"components": [
								{
									"internalType": "address",
									"name": "tokenIn",
									"type": "address"
								},
								{
									"internalType": "address",
									"name": "tokenOut",
									"type": "address"
								},
								{
									"internalType": "uint24",
									"name": "fee",
									"type": "uint24"
								},
								{
									"internalType": "address",
									"name": "recipient",
									"type": "address"
								},
								{
									"internalType": "uint256",
									"name": "deadline",
									"type": "uint256"
								},
								{
									"internalType": "uint256",
									"name": "amountIn",
									"type": "uint256"
								},
								{
									"internalType": "uint256",
									"name": "amountOutMinimum",
									"type": "uint256"
								},
								{
									"internalType": "uint160",
									"name": "sqrtPriceLimitX96",
									"type": "uint160"
								}
							],
							"internalType": "struct ISwapRouter.ExactInputSingleParams",
							"name": "params",
							"type": "tuple"
						}
					],
					"name": "exactInputSingle",
					"outputs": [
						{
							"internalType": "uint256",
							"name": "amountOut",
							"type": "uint256"
						}
					],
					"stateMutability": "payable",
					"type": "function"
				},
				{
					"inputs": [
						{
							"components": [
								{
									"internalType": "bytes",
									"name": "path",
									"type": "bytes"
								},
								{
									"internalType": "address",
									"name": "recipient",
									"type": "address"
								},
								{
									"internalType": "uint256",
									"name": "deadline",
									"type": "uint256"
								},
								{
									"internalType": "uint256",
									"name": "amountOut",
									"type": "uint256"
								},
								{
									"internalType": "uint256",
									"name": "amountInMaximum",
									"type": "uint256"
								}
							],
							"internalType": "struct ISwapRouter.ExactOutputParams",
							"name": "params",
							"type": "tuple"
						}
					],
					"name": "exactOutput",
					"outputs": [
						{
							"internalType": "uint256",
							"name": "amountIn",
							"type": "uint256"
						}
					],
					"stateMutability": "payable",
					"type": "function"
				},
				{
					"inputs": [
						{
							"components": [
								{
									"internalType": "address",
									"name": "tokenIn",
									"type": "address"
								},
								{
									"internalType": "address",
									"name": "tokenOut",
									"type": "address"
								},
								{
									"internalType": "uint24",
									"name": "fee",
									"type": "uint24"
								},
								{
									"internalType": "address",
									"name": "recipient",
									"type": "address"
								},
								{
									"internalType": "uint256",
									"name": "deadline",
									"type": "uint256"
								},
								{
									"internalType": "uint256",
									"name": "amountOut",
									"type": "uint256"
								},
								{
									"internalType": "uint256",
									"name": "amountInMaximum",
									"type": "uint256"
								},
								{
									"internalType": "uint160",
									"name": "sqrtPriceLimitX96",
									"type": "uint160"
								}
							],
							"internalType": "struct ISwapRouter.ExactOutputSingleParams",
							"name": "params",
							"type": "tuple"
						}
					],
					"name": "exactOutputSingle",
					"outputs": [
						{
							"internalType": "uint256",
							"name": "amountIn",
							"type": "uint256"
						}
					],
					"stateMutability": "payable",
					"type": "function"
				},
				{
					"inputs": [],
					"name": "factory",
					"outputs": [
						{
							"internalType": "address",
							"name": "",
							"type": "address"
						}
					],
					"stateMutability": "view",
					"type": "function"
				},
				{
					"inputs": [
						{
							"internalType": "bytes[]",
							"name": "data",
							"type": "bytes[]"
						}
					],
					"name": "multicall",
					"outputs": [
						{
							"internalType": "bytes[]",
							"name": "results",
							"type": "bytes[]"
						}
					],
					"stateMutability": "payable",
					"type": "function"
				},
				{
					"inputs": [],
					"name": "refundETH",
					"outputs": [],
					"stateMutability": "payable",
					"type": "function"
				},
				{
					"inputs": [
						{
							"internalType": "address",
							"name": "token",
							"type": "address"
						},
						{
							"internalType": "uint256",
							"name": "value",
							"type": "uint256"
						},
						{
							"internalType": "uint256",
							"name": "deadline",
							"type": "uint256"
						},
						{
							"internalType": "uint8",
							"name": "v",
							"type": "uint8"
						},
						{
							"internalType": "bytes32",
							"name": "r",
							"type": "bytes32"
						},
						{
							"internalType": "bytes32",
							"name": "s",
							"type": "bytes32"
						}
					],
					"name": "selfPermit",
					"outputs": [],
					"stateMutability": "payable",
					"type": "function"
				},
				{
					"inputs": [
						{
							"internalType": "address",
							"name": "token",
							"type": "address"
						},
						{
							"internalType": "uint256",
							"name": "nonce",
							"type": "uint256"
						},
						{
							"internalType": "uint256",
							"name": "expiry",
							"type": "uint256"
						},
						{
							"internalType": "uint8",
							"name": "v",
							"type": "uint8"
						},
						{
							"internalType": "bytes32",
							"name": "r",
							"type": "bytes32"
						},
						{
							"internalType": "bytes32",
							"name": "s",
							"type": "bytes32"
						}
					],
					"name": "selfPermitAllowed",
					"outputs": [],
					"stateMutability": "payable",
					"type": "function"
				},
				{
					"inputs": [
						{
							"internalType": "address",
							"name": "token",
							"type": "address"
						},
						{
							"internalType": "uint256",
							"name": "nonce",
							"type": "uint256"
						},
						{
							"internalType": "uint256",
							"name": "expiry",
							"type": "uint256"
						},
						{
							"internalType": "uint8",
							"name": "v",
							"type": "uint8"
						},
						{
							"internalType": "bytes32",
							"name": "r",
							"type": "bytes32"
						},
						{
							"internalType": "bytes32",
							"name": "s",
							"type": "bytes32"
						}
					],
					"name": "selfPermitAllowedIfNecessary",
					"outputs": [],
					"stateMutability": "payable",
					"type": "function"
				},
				{
					"inputs": [
						{
							"internalType": "address",
							"name": "token",
							"type": "address"
						},
						{
							"internalType": "uint256",
							"name": "value",
							"type": "uint256"
						},
						{
							"internalType": "uint256",
							"name": "deadline",
							"type": "uint256"
						},
						{
							"internalType": "uint8",
							"name": "v",
							"type": "uint8"
						},
						{
							"internalType": "bytes32",
							"name": "r",
							"type": "bytes32"
						},
						{
							"internalType": "bytes32",
							"name": "s",
							"type": "bytes32"
						}
					],
					"name": "selfPermitIfNecessary",
					"outputs": [],
					"stateMutability": "payable",
					"type": "function"
				},
				{
					"inputs": [
						{
							"internalType": "address",
							"name": "token",
							"type": "address"
						},
						{
							"internalType": "uint256",
							"name": "amountMinimum",
							"type": "uint256"
						},
						{
							"internalType": "address",
							"name": "recipient",
							"type": "address"
						}
					],
					"name": "sweepToken",
					"outputs": [],
					"stateMutability": "payable",
					"type": "function"
				},
				{
					"inputs": [
						{
							"internalType": "address",
							"name": "token",
							"type": "address"
						},
						{
							"internalType": "uint256",
							"name": "amountMinimum",
							"type": "uint256"
						},
						{
							"internalType": "address",
							"name": "recipient",
							"type": "address"
						},
						{
							"internalType": "uint256",
							"name": "feeBips",
							"type": "uint256"
						},
						{
							"internalType": "address",
							"name": "feeRecipient",
							"type": "address"
						}
					],
					"name": "sweepTokenWithFee",
					"outputs": [],
					"stateMutability": "payable",
					"type": "function"
				},
				{
					"inputs": [
						{
							"internalType": "int256",
							"name": "amount0Delta",
							"type": "int256"
						},
						{
							"internalType": "int256",
							"name": "amount1Delta",
							"type": "int256"
						},
						{
							"internalType": "bytes",
							"name": "_data",
							"type": "bytes"
						}
					],
					"name": "uniswapV3SwapCallback",
					"outputs": [],
					"stateMutability": "nonpayable",
					"type": "function"
				},
				{
					"inputs": [
						{
							"internalType": "uint256",
							"name": "amountMinimum",
							"type": "uint256"
						},
						{
							"internalType": "address",
							"name": "recipient",
							"type": "address"
						}
					],
					"name": "unwrapWETH9",
					"outputs": [],
					"stateMutability": "payable",
					"type": "function"
				},
				{
					"inputs": [
						{
							"internalType": "uint256",
							"name": "amountMinimum",
							"type": "uint256"
						},
						{
							"internalType": "address",
							"name": "recipient",
							"type": "address"
						},
						{
							"internalType": "uint256",
							"name": "feeBips",
							"type": "uint256"
						},
						{
							"internalType": "address",
							"name": "feeRecipient",
							"type": "address"
						}
					],
					"name": "unwrapWETH9WithFee",
					"outputs": [],
					"stateMutability": "payable",
					"type": "function"
				},
				{
					"stateMutability": "payable",
					"type": "receive"
				}
			],
			"devdoc": {
				"kind": "dev",
				"methods": {
					"exactInput((bytes,address,uint256,uint256,uint256))": {
						"params": {
							"params": "The parameters necessary for the multi-hop swap, encoded as `ExactInputParams` in calldata"
						},
						"returns": {
							"amountOut": "The amount of the received token"
						}
					},
					"exactInputSingle((address,address,uint24,address,uint256,uint256,uint256,uint160))": {
						"params": {
							"params": "The parameters necessary for the swap, encoded as `ExactInputSingleParams` in calldata"
						},
						"returns": {
							"amountOut": "The amount of the received token"
						}
					},
					"exactOutput((bytes,address,uint256,uint256,uint256))": {
						"params": {
							"params": "The parameters necessary for the multi-hop swap, encoded as `ExactOutputParams` in calldata"
						},
						"returns": {
							"amountIn": "The amount of the input token"
						}
					},
					"exactOutputSingle((address,address,uint24,address,uint256,uint256,uint256,uint160))": {
						"params": {
							"params": "The parameters necessary for the swap, encoded as `ExactOutputSingleParams` in calldata"
						},
						"returns": {
							"amountIn": "The amount of the input token"
						}
					},
					"multicall(bytes[])": {
						"details": "The `msg.value` should not be trusted for any method callable from multicall.",
						"params": {
							"data": "The encoded function data for each of the calls to make to this contract"
						},
						"returns": {
							"results": "The results from each of the calls passed in via data"
						}
					},
					"refundETH()": {
						"details": "Useful for bundling with mint or increase liquidity that uses ether, or exact output swaps that use ether for the input amount"
					},
					"selfPermit(address,uint256,uint256,uint8,bytes32,bytes32)": {
						"details": "The `owner` is always msg.sender and the `spender` is always address(this).",
						"params": {
							"deadline": "A timestamp, the current blocktime must be less than or equal to this timestamp",
							"r": "Must produce valid secp256k1 signature from the holder along with `v` and `s`",
							"s": "Must produce valid secp256k1 signature from the holder along with `r` and `v`",
							"token": "The address of the token spent",
							"v": "Must produce valid secp256k1 signature from the holder along with `r` and `s`",
							"value": "The amount that can be spent of token"
						}
					},
					"selfPermitAllowed(address,uint256,uint256,uint8,bytes32,bytes32)": {
						"details": "The `owner` is always msg.sender and the `spender` is always address(this)",
						"params": {
							"expiry": "The timestamp at which the permit is no longer valid",
							"nonce": "The current nonce of the owner",
							"r": "Must produce valid secp256k1 signature from the holder along with `v` and `s`",
							"s": "Must produce valid secp256k1 signature from the holder along with `r` and `v`",
							"token": "The address of the token spent",
							"v": "Must produce valid secp256k1 signature from the holder along with `r` and `s`"
						}
					},
					"selfPermitAllowedIfNecessary(address,uint256,uint256,uint8,bytes32,bytes32)": {
						"details": "The `owner` is always msg.sender and the `spender` is always address(this) Can be used instead of #selfPermitAllowed to prevent calls from failing due to a frontrun of a call to #selfPermitAllowed.",
						"params": {
							"expiry": "The timestamp at which the permit is no longer valid",
							"nonce": "The current nonce of the owner",
							"r": "Must produce valid secp256k1 signature from the holder along with `v` and `s`",
							"s": "Must produce valid secp256k1 signature from the holder along with `r` and `v`",
							"token": "The address of the token spent",
							"v": "Must produce valid secp256k1 signature from the holder along with `r` and `s`"
						}
					},
					"selfPermitIfNecessary(address,uint256,uint256,uint8,bytes32,bytes32)": {
						"details": "The `owner` is always msg.sender and the `spender` is always address(this). Can be used instead of #selfPermit to prevent calls from failing due to a frontrun of a call to #selfPermit",
						"params": {
							"deadline": "A timestamp, the current blocktime must be less than or equal to this timestamp",
							"r": "Must produce valid secp256k1 signature from the holder along with `v` and `s`",
							"s": "Must produce valid secp256k1 signature from the holder along with `r` and `v`",
							"token": "The address of the token spent",
							"v": "Must produce valid secp256k1 signature from the holder along with `r` and `s`",
							"value": "The amount that can be spent of token"
						}
					},
					"sweepToken(address,uint256,address)": {
						"details": "The amountMinimum parameter prevents malicious contracts from stealing the token from users",
						"params": {
							"amountMinimum": "The minimum amount of token required for a transfer",
							"recipient": "The destination address of the token",
							"token": "The contract address of the token which will be transferred to `recipient`"
						}
					},
					"sweepTokenWithFee(address,uint256,address,uint256,address)": {
						"details": "The amountMinimum parameter prevents malicious contracts from stealing the token from users"
					},
					"uniswapV3SwapCallback(int256,int256,bytes)": {
						"details": "In the implementation you must pay the pool tokens owed for the swap. The caller of this method must be checked to be a UniswapV3Pool deployed by the canonical UniswapV3Factory. amount0Delta and amount1Delta can both be 0 if no tokens were swapped.",
						"params": {
							"amount0Delta": "The amount of token0 that was sent (negative) or must be received (positive) by the pool by the end of the swap. If positive, the callback must send that amount of token0 to the pool.",
							"amount1Delta": "The amount of token1 that was sent (negative) or must be received (positive) by the pool by the end of the swap. If positive, the callback must send that amount of token1 to the pool.",
							"data": "Any data passed through by the caller via the IUniswapV3PoolActions#swap call"
						}
					},
					"unwrapWETH9(uint256,address)": {
						"details": "The amountMinimum parameter prevents malicious contracts from stealing WETH9 from users.",
						"params": {
							"amountMinimum": "The minimum amount of WETH9 to unwrap",
							"recipient": "The address receiving ETH"
						}
					},
					"unwrapWETH9WithFee(uint256,address,uint256,address)": {
						"details": "The amountMinimum parameter prevents malicious contracts from stealing WETH9 from users."
					}
				},
				"stateVariables": {
					"DEFAULT_AMOUNT_IN_CACHED": {
						"details": "Used as the placeholder value for amountInCached, because the computed amount in for an exact output swap can never actually be this value"
					},
					"amountInCached": {
						"details": "Transient storage variable used for returning the computed amount in for an exact output swap."
					}
				},
				"title": "Uniswap V3 Swap Router",
				"version": 1
			},
			"evm": {
				"assembly": "    /* \"contracts/SwapRouter.sol\":796:9358  contract SwapRouter is\r... */\n  mstore(0x40, 0xc0)\n  not(0x00)\n    /* \"contracts/SwapRouter.sol\":1375:1432  uint256 private amountInCached = DEFAULT_AMOUNT_IN_CACHED */\n  0x00\n  sstore\n    /* \"contracts/SwapRouter.sol\":1441:1531  constructor(address _factory, address _WETH9) PeripheryImmutableState(_factory, _WETH9) {} */\n  callvalue\n  dup1\n  iszero\n  tag_1\n  jumpi\n  0x00\n  dup1\n  revert\ntag_1:\n  pop\n  mload(0x40)\n  sub(codesize, bytecodeSize)\n  dup1\n  bytecodeSize\n  dup4\n  codecopy\n  dup2\n  add\n  0x40\n  dup2\n  swap1\n  mstore\n  tag_2\n  swap2\n  tag_3\n  jump\t// in\ntag_2:\n  not(sub(shl(0x60, 0x01), 0x01))\n    /* \"contracts/base/PeripheryImmutableState.sol\":536:554  factory = _factory */\n  0x60\n  swap3\n  dup4\n  shl\n  dup2\n  and\n  0x80\n  mstore\n    /* \"contracts/base/PeripheryImmutableState.sol\":565:579  WETH9 = _WETH9 */\n  swap2\n  shl\n  and\n  0xa0\n  mstore\n    /* \"contracts/SwapRouter.sol\":796:9358  contract SwapRouter is\r... */\n  jump(tag_9)\n    /* \"#utility.yul\":14:193   */\ntag_10:\n    /* \"#utility.yul\":95:108   */\n  dup1\n  mload\n  sub(shl(0xa0, 0x01), 0x01)\n    /* \"#utility.yul\":137:168   */\n  dup2\n  and\n    /* \"#utility.yul\":127:169   */\n  dup2\n  eq\n    /* \"#utility.yul\":117:119   */\n  tag_12\n  jumpi\n    /* \"#utility.yul\":183:184   */\n  0x00\n    /* \"#utility.yul\":180:181   */\n  dup1\n    /* \"#utility.yul\":173:185   */\n  revert\n    /* \"#utility.yul\":117:119   */\ntag_12:\n    /* \"#utility.yul\":76:193   */\n  swap2\n  swap1\n  pop\n  jump\t// out\n    /* \"#utility.yul\":198:505   */\ntag_3:\n  0x00\n  dup1\n    /* \"#utility.yul\":338:340   */\n  0x40\n    /* \"#utility.yul\":326:335   */\n  dup4\n    /* \"#utility.yul\":317:324   */\n  dup6\n    /* \"#utility.yul\":313:336   */\n  sub\n    /* \"#utility.yul\":309:341   */\n  slt\n    /* \"#utility.yul\":306:308   */\n  iszero\n  tag_14\n  jumpi\n    /* \"#utility.yul\":359:365   */\n  dup2\n    /* \"#utility.yul\":351:357   */\n  dup3\n    /* \"#utility.yul\":344:366   */\n  revert\n    /* \"#utility.yul\":306:308   */\ntag_14:\n    /* \"#utility.yul\":387:429   */\n  tag_15\n    /* \"#utility.yul\":419:428   */\n  dup4\n    /* \"#utility.yul\":387:429   */\n  tag_10\n  jump\t// in\ntag_15:\n    /* \"#utility.yul\":377:429   */\n  swap2\n  pop\n    /* \"#utility.yul\":448:499   */\n  tag_16\n    /* \"#utility.yul\":495:497   */\n  0x20\n    /* \"#utility.yul\":484:493   */\n  dup5\n    /* \"#utility.yul\":480:498   */\n  add\n    /* \"#utility.yul\":448:499   */\n  tag_10\n  jump\t// in\ntag_16:\n    /* \"#utility.yul\":438:499   */\n  swap1\n  pop\n    /* \"#utility.yul\":296:505   */\n  swap3\n  pop\n  swap3\n  swap1\n  pop\n  jump\t// out\ntag_9:\n    /* \"contracts/SwapRouter.sol\":796:9358  contract SwapRouter is\r... */\n  shr(0x60, mload(0x80))\n  shr(0x60, mload(0xa0))\n  codecopy(0x00, dataOffset(sub_0), dataSize(sub_0))\n  assignImmutable(\"0x4f722aad0315bc3832e551ccf6da3e098baeb8ee055023fde26c377410bf01b8\")\n  assignImmutable(\"0x1dda9873baa24e5dc3a48371aa5a89ce85f19f9dd041db3ba184e623299b8433\")\n  return(0x00, dataSize(sub_0))\nstop\n\nsub_0: assembly {\n        /* \"contracts/SwapRouter.sol\":796:9358  contract SwapRouter is\r... */\n      mstore(0x40, 0x80)\n      jumpi(tag_1, lt(calldatasize, 0x04))\n      shr(0xe0, calldataload(0x00))\n      dup1\n      0xc04b8d59\n      gt\n      tag_20\n      jumpi\n      dup1\n      0xdf2ab5bb\n      gt\n      tag_21\n      jumpi\n      dup1\n      0xdf2ab5bb\n      eq\n      tag_15\n      jumpi\n      dup1\n      0xe0e189a0\n      eq\n      tag_16\n      jumpi\n      dup1\n      0xf28c0498\n      eq\n      tag_17\n      jumpi\n      dup1\n      0xf3995c67\n      eq\n      tag_18\n      jumpi\n      dup1\n      0xfa461e33\n      eq\n      tag_19\n      jumpi\n      jump(tag_2)\n    tag_21:\n      dup1\n      0xc04b8d59\n      eq\n      tag_11\n      jumpi\n      dup1\n      0xc2e3140a\n      eq\n      tag_12\n      jumpi\n      dup1\n      0xc45a0155\n      eq\n      tag_13\n      jumpi\n      dup1\n      0xdb3e2198\n      eq\n      tag_14\n      jumpi\n      jump(tag_2)\n    tag_20:\n      dup1\n      0x4aa4a4fc\n      gt\n      tag_22\n      jumpi\n      dup1\n      0x4aa4a4fc\n      eq\n      tag_7\n      jumpi\n      dup1\n      0x9b2c0a37\n      eq\n      tag_8\n      jumpi\n      dup1\n      0xa4a78f0c\n      eq\n      tag_9\n      jumpi\n      dup1\n      0xac9650d8\n      eq\n      tag_10\n      jumpi\n      jump(tag_2)\n    tag_22:\n      dup1\n      0x12210e8a\n      eq\n      tag_3\n      jumpi\n      dup1\n      0x414bf389\n      eq\n      tag_4\n      jumpi\n      dup1\n      0x4659a494\n      eq\n      tag_5\n      jumpi\n      dup1\n      0x49404b7c\n      eq\n      tag_6\n      jumpi\n      jump(tag_2)\n    tag_1:\n      jumpi(tag_2, calldatasize)\n        /* \"contracts/base/PeripheryPayments.sol\":453:463  msg.sender */\n      caller\n      sub(shl(0xa0, 0x01), 0x01)\n        /* \"contracts/base/PeripheryPayments.sol\":467:472  WETH9 */\n      immutable(\"0x4f722aad0315bc3832e551ccf6da3e098baeb8ee055023fde26c377410bf01b8\")\n        /* \"contracts/base/PeripheryPayments.sol\":453:472  msg.sender == WETH9 */\n      and\n      eq\n        /* \"contracts/base/PeripheryPayments.sol\":445:486  require(msg.sender == WETH9, 'Not WETH9') */\n      tag_25\n      jumpi\n      0x40\n      dup1\n      mload\n      shl(0xe5, 0x461bcd)\n      dup2\n      mstore\n      0x20\n      0x04\n      dup3\n      add\n      mstore\n      0x09\n      0x24\n      dup3\n      add\n      mstore\n      shl(0xb8, 0x4e6f74205745544839)\n      0x44\n      dup3\n      add\n      mstore\n      swap1\n      mload\n      swap1\n      dup2\n      swap1\n      sub\n      0x64\n      add\n      swap1\n      revert\n    tag_25:\n        /* \"contracts/SwapRouter.sol\":796:9358  contract SwapRouter is\r... */\n      stop\n    tag_2:\n      0x00\n      dup1\n      revert\n        /* \"contracts/base/PeripheryPayments.sol\":1449:1611  function refundETH() external payable override {\r... */\n    tag_3:\n      tag_25\n      tag_27\n      jump\t// in\n        /* \"contracts/SwapRouter.sol\":4414:4975  function exactInputSingle(ExactInputSingleParams calldata params)\r... */\n    tag_4:\n      tag_28\n      tag_29\n      calldatasize\n      0x04\n      tag_30\n      jump\t// in\n    tag_29:\n      tag_31\n      jump\t// in\n    tag_28:\n      mload(0x40)\n      tag_32\n      swap2\n      swap1\n      tag_33\n      jump\t// in\n    tag_32:\n      mload(0x40)\n      dup1\n      swap2\n      sub\n      swap1\n      return\n        /* \"contracts/base/SelfPermit.sol\":1364:1662  function selfPermitAllowed(\r... */\n    tag_5:\n      tag_25\n      tag_35\n      calldatasize\n      0x04\n      tag_36\n      jump\t// in\n    tag_35:\n      tag_37\n      jump\t// in\n        /* \"contracts/base/PeripheryPayments.sol\":542:947  function unwrapWETH9(uint256 amountMinimum, address recipient) public payable override {\r... */\n    tag_6:\n      tag_25\n      tag_39\n      calldatasize\n      0x04\n      tag_40\n      jump\t// in\n    tag_39:\n      tag_41\n      jump\t// in\n        /* \"contracts/base/PeripheryImmutableState.sol\":431:470  address public immutable override WETH9 */\n    tag_7:\n      callvalue\n      dup1\n      iszero\n      tag_42\n      jumpi\n      0x00\n      dup1\n      revert\n    tag_42:\n      pop\n      tag_43\n      tag_44\n      jump\t// in\n    tag_43:\n      mload(0x40)\n      tag_32\n      swap2\n      swap1\n      tag_46\n      jump\t// in\n        /* \"contracts/base/PeripheryPaymentsWithFee.sol\":569:1284  function unwrapWETH9WithFee(\r... */\n    tag_8:\n      tag_25\n      tag_48\n      calldatasize\n      0x04\n      tag_49\n      jump\t// in\n    tag_48:\n      tag_50\n      jump\t// in\n        /* \"contracts/base/SelfPermit.sol\":1703:2061  function selfPermitAllowedIfNecessary(\r... */\n    tag_9:\n      tag_25\n      tag_52\n      calldatasize\n      0x04\n      tag_36\n      jump\t// in\n    tag_52:\n      tag_53\n      jump\t// in\n        /* \"contracts/base/Multicall.sol\":318:987  function multicall(bytes[] calldata data) public payable override returns (bytes[] memory results) {\r... */\n    tag_10:\n      tag_54\n      tag_55\n      calldatasize\n      0x04\n      tag_56\n      jump\t// in\n    tag_55:\n      tag_57\n      jump\t// in\n    tag_54:\n      mload(0x40)\n      tag_32\n      swap2\n      swap1\n      tag_59\n      jump\t// in\n        /* \"contracts/SwapRouter.sol\":5016:6325  function exactInput(ExactInputParams memory params)\r... */\n    tag_11:\n      tag_28\n      tag_61\n      calldatasize\n      0x04\n      tag_62\n      jump\t// in\n    tag_61:\n      tag_63\n      jump\t// in\n        /* \"contracts/base/SelfPermit.sol\":1000:1323  function selfPermitIfNecessary(\r... */\n    tag_12:\n      tag_25\n      tag_66\n      calldatasize\n      0x04\n      tag_36\n      jump\t// in\n    tag_66:\n      tag_67\n      jump\t// in\n        /* \"contracts/base/PeripheryImmutableState.sol\":337:378  address public immutable override factory */\n    tag_13:\n      callvalue\n      dup1\n      iszero\n      tag_68\n      jumpi\n      0x00\n      dup1\n      revert\n    tag_68:\n      pop\n      tag_43\n      tag_70\n      jump\t// in\n        /* \"contracts/SwapRouter.sol\":7789:8539  function exactOutputSingle(ExactOutputSingleParams calldata params)\r... */\n    tag_14:\n      tag_28\n      tag_73\n      calldatasize\n      0x04\n      tag_30\n      jump\t// in\n    tag_73:\n      tag_75\n      jump\t// in\n        /* \"contracts/base/PeripheryPayments.sol\":995:1401  function sweepToken(\r... */\n    tag_15:\n      tag_25\n      tag_78\n      calldatasize\n      0x04\n      tag_79\n      jump\t// in\n    tag_78:\n      tag_80\n      jump\t// in\n        /* \"contracts/base/PeripheryPaymentsWithFee.sol\":1339:2034  function sweepTokenWithFee(\r... */\n    tag_16:\n      tag_25\n      tag_82\n      calldatasize\n      0x04\n      tag_83\n      jump\t// in\n    tag_82:\n      tag_84\n      jump\t// in\n        /* \"contracts/SwapRouter.sol\":8580:9355  function exactOutput(ExactOutputParams calldata params)\r... */\n    tag_17:\n      tag_28\n      tag_86\n      calldatasize\n      0x04\n      tag_87\n      jump\t// in\n    tag_86:\n      tag_88\n      jump\t// in\n        /* \"contracts/base/SelfPermit.sol\":677:959  function selfPermit(\r... */\n    tag_18:\n      tag_25\n      tag_91\n      calldatasize\n      0x04\n      tag_36\n      jump\t// in\n    tag_91:\n      tag_92\n      jump\t// in\n        /* \"contracts/SwapRouter.sol\":2036:3357  function uniswapV3SwapCallback(\r... */\n    tag_19:\n      callvalue\n      dup1\n      iszero\n      tag_93\n      jumpi\n      0x00\n      dup1\n      revert\n    tag_93:\n      pop\n      tag_25\n      tag_95\n      calldatasize\n      0x04\n      tag_96\n      jump\t// in\n    tag_95:\n      tag_97\n      jump\t// in\n        /* \"contracts/base/PeripheryPayments.sol\":1449:1611  function refundETH() external payable override {\r... */\n    tag_27:\n        /* \"contracts/base/PeripheryPayments.sol\":1511:1532  address(this).balance */\n      selfbalance\n        /* \"contracts/base/PeripheryPayments.sol\":1511:1536  address(this).balance > 0 */\n      iszero\n        /* \"contracts/base/PeripheryPayments.sol\":1507:1603  if (address(this).balance > 0) TransferHelper.safeTransferETH(msg.sender, address(this).balance) */\n      tag_100\n      jumpi\n        /* \"contracts/base/PeripheryPayments.sol\":1538:1603  TransferHelper.safeTransferETH(msg.sender, address(this).balance) */\n      tag_100\n        /* \"contracts/base/PeripheryPayments.sol\":1569:1579  msg.sender */\n      caller\n        /* \"contracts/base/PeripheryPayments.sol\":1581:1602  address(this).balance */\n      selfbalance\n        /* \"contracts/base/PeripheryPayments.sol\":1538:1568  TransferHelper.safeTransferETH */\n      tag_101\n        /* \"contracts/base/PeripheryPayments.sol\":1538:1603  TransferHelper.safeTransferETH(msg.sender, address(this).balance) */\n      jump\t// in\n    tag_100:\n        /* \"contracts/base/PeripheryPayments.sol\":1449:1611  function refundETH() external payable override {\r... */\n      jump\t// out\n        /* \"contracts/SwapRouter.sol\":4414:4975  function exactInputSingle(ExactInputSingleParams calldata params)\r... */\n    tag_31:\n        /* \"contracts/SwapRouter.sol\":4591:4608  uint256 amountOut */\n      0x00\n        /* \"contracts/SwapRouter.sol\":4556:4562  params */\n      dup2\n        /* \"contracts/SwapRouter.sol\":4556:4571  params.deadline */\n      0x80\n      add\n      calldataload\n        /* \"contracts/base/PeripheryValidation.sol\":251:259  deadline */\n      dup1\n        /* \"contracts/base/PeripheryValidation.sol\":230:247  _blockTimestamp() */\n      tag_103\n        /* \"contracts/base/PeripheryValidation.sol\":230:245  _blockTimestamp */\n      tag_104\n        /* \"contracts/base/PeripheryValidation.sol\":230:247  _blockTimestamp() */\n      jump\t// in\n    tag_103:\n        /* \"contracts/base/PeripheryValidation.sol\":230:259  _blockTimestamp() <= deadline */\n      gt\n      iszero\n        /* \"contracts/base/PeripheryValidation.sol\":222:283  require(_blockTimestamp() <= deadline, 'Transaction too old') */\n      tag_105\n      jumpi\n      0x40\n      dup1\n      mload\n      shl(0xe5, 0x461bcd)\n      dup2\n      mstore\n      0x20\n      0x04\n      dup3\n      add\n      mstore\n      0x13\n      0x24\n      dup3\n      add\n      mstore\n      shl(0x6a, 0x151c985b9cd858dd1a5bdb881d1bdbc81bdb19)\n      0x44\n      dup3\n      add\n      mstore\n      swap1\n      mload\n      swap1\n      dup2\n      swap1\n      sub\n      0x64\n      add\n      swap1\n      revert\n    tag_105:\n        /* \"contracts/SwapRouter.sol\":4638:4888  exactInputInternal(\r... */\n      tag_107\n        /* \"contracts/SwapRouter.sol\":4671:4686  params.amountIn */\n      0xa0\n      dup5\n      add\n      calldataload\n        /* \"contracts/SwapRouter.sol\":4701:4717  params.recipient */\n      tag_108\n      0x80\n      dup7\n      add\n      0x60\n      dup8\n      add\n      tag_109\n      jump\t// in\n    tag_108:\n        /* \"contracts/SwapRouter.sol\":4732:4756  params.sqrtPriceLimitX96 */\n      tag_110\n      0x0100\n      dup8\n      add\n      0xe0\n      dup9\n      add\n      tag_109\n      jump\t// in\n    tag_110:\n        /* \"contracts/SwapRouter.sol\":4771:4877  SwapCallbackData({path: abi.encodePacked(params.tokenIn, params.fee, params.tokenOut), payer: msg.sender}) */\n      0x40\n      dup1\n      mload\n      dup1\n      dup3\n      add\n      swap1\n      swap2\n      mstore\n      dup1\n        /* \"contracts/SwapRouter.sol\":4812:4826  params.tokenIn */\n      tag_112\n      0x20\n      dup11\n      add\n        /* \"contracts/SwapRouter.sol\":4812:4818  params */\n      dup11\n        /* \"contracts/SwapRouter.sol\":4812:4826  params.tokenIn */\n      tag_109\n      jump\t// in\n    tag_112:\n        /* \"contracts/SwapRouter.sol\":4828:4838  params.fee */\n      tag_113\n      0x60\n      dup12\n      add\n      0x40\n      dup13\n      add\n      tag_114\n      jump\t// in\n    tag_113:\n        /* \"contracts/SwapRouter.sol\":4840:4855  params.tokenOut */\n      tag_115\n      0x40\n      dup13\n      add\n      0x20\n      dup14\n      add\n      tag_109\n      jump\t// in\n    tag_115:\n        /* \"contracts/SwapRouter.sol\":4795:4856  abi.encodePacked(params.tokenIn, params.fee, params.tokenOut) */\n      add(0x20, mload(0x40))\n      tag_116\n      swap4\n      swap3\n      swap2\n      swap1\n      tag_117\n      jump\t// in\n    tag_116:\n      mload(0x40)\n      0x20\n      dup2\n      dup4\n      sub\n      sub\n      dup2\n      mstore\n      swap1\n      0x40\n      mstore\n        /* \"contracts/SwapRouter.sol\":4771:4877  SwapCallbackData({path: abi.encodePacked(params.tokenIn, params.fee, params.tokenOut), payer: msg.sender}) */\n      dup2\n      mstore\n      0x20\n      add\n        /* \"contracts/SwapRouter.sol\":4865:4875  msg.sender */\n      caller\n      sub(shl(0xa0, 0x01), 0x01)\n        /* \"contracts/SwapRouter.sol\":4771:4877  SwapCallbackData({path: abi.encodePacked(params.tokenIn, params.fee, params.tokenOut), payer: msg.sender}) */\n      and\n      dup2\n      mstore\n      pop\n        /* \"contracts/SwapRouter.sol\":4638:4656  exactInputInternal */\n      tag_118\n        /* \"contracts/SwapRouter.sol\":4638:4888  exactInputInternal(\r... */\n      jump\t// in\n    tag_107:\n        /* \"contracts/SwapRouter.sol\":4626:4888  amountOut = exactInputInternal(\r... */\n      swap2\n      pop\n        /* \"contracts/SwapRouter.sol\":4920:4926  params */\n      dup3\n        /* \"contracts/SwapRouter.sol\":4920:4943  params.amountOutMinimum */\n      0xc0\n      add\n      calldataload\n        /* \"contracts/SwapRouter.sol\":4907:4916  amountOut */\n      dup3\n        /* \"contracts/SwapRouter.sol\":4907:4943  amountOut >= params.amountOutMinimum */\n      lt\n      iszero\n        /* \"contracts/SwapRouter.sol\":4899:4967  require(amountOut >= params.amountOutMinimum, 'Too little received') */\n      tag_119\n      jumpi\n      mload(0x40)\n      shl(0xe5, 0x461bcd)\n      dup2\n      mstore\n      0x04\n      add\n      tag_120\n      swap1\n      tag_121\n      jump\t// in\n    tag_120:\n      mload(0x40)\n      dup1\n      swap2\n      sub\n      swap1\n      revert\n    tag_119:\n        /* \"contracts/SwapRouter.sol\":4414:4975  function exactInputSingle(ExactInputSingleParams calldata params)\r... */\n      pop\n      swap2\n      swap1\n      pop\n      jump\t// out\n        /* \"contracts/base/SelfPermit.sol\":1364:1662  function selfPermitAllowed(\r... */\n    tag_37:\n        /* \"contracts/base/SelfPermit.sol\":1564:1654  IERC20PermitAllowed(token).permit(msg.sender, address(this), nonce, expiry, true, v, r, s) */\n      0x40\n      dup1\n      mload\n      shl(0xe2, 0x23f2ebc3)\n      dup2\n      mstore\n        /* \"contracts/base/SelfPermit.sol\":1598:1608  msg.sender */\n      caller\n        /* \"contracts/base/SelfPermit.sol\":1564:1654  IERC20PermitAllowed(token).permit(msg.sender, address(this), nonce, expiry, true, v, r, s) */\n      0x04\n      dup3\n      add\n      mstore\n        /* \"contracts/base/SelfPermit.sol\":1618:1622  this */\n      address\n        /* \"contracts/base/SelfPermit.sol\":1564:1654  IERC20PermitAllowed(token).permit(msg.sender, address(this), nonce, expiry, true, v, r, s) */\n      0x24\n      dup3\n      add\n      mstore\n      0x44\n      dup2\n      add\n      dup8\n      swap1\n      mstore\n      0x64\n      dup2\n      add\n      dup7\n      swap1\n      mstore\n        /* \"contracts/base/SelfPermit.sol\":1640:1644  true */\n      0x01\n        /* \"contracts/base/SelfPermit.sol\":1564:1654  IERC20PermitAllowed(token).permit(msg.sender, address(this), nonce, expiry, true, v, r, s) */\n      0x84\n      dup3\n      add\n      mstore\n      0xff\n      dup6\n      and\n      0xa4\n      dup3\n      add\n      mstore\n      0xc4\n      dup2\n      add\n      dup5\n      swap1\n      mstore\n      0xe4\n      dup2\n      add\n      dup4\n      swap1\n      mstore\n      swap1\n      mload\n      sub(shl(0xa0, 0x01), 0x01)\n        /* \"contracts/base/SelfPermit.sol\":1564:1597  IERC20PermitAllowed(token).permit */\n      dup9\n      and\n      swap2\n      0x8fcbaf0c\n      swap2\n        /* \"contracts/base/SelfPermit.sol\":1564:1654  IERC20PermitAllowed(token).permit(msg.sender, address(this), nonce, expiry, true, v, r, s) */\n      0x0104\n      dup1\n      dup4\n      add\n      swap3\n      0x00\n      swap3\n      swap2\n      swap1\n      dup3\n      swap1\n      sub\n      add\n      dup2\n      dup4\n        /* \"contracts/base/SelfPermit.sol\":1564:1597  IERC20PermitAllowed(token).permit */\n      dup8\n        /* \"contracts/base/SelfPermit.sol\":1564:1654  IERC20PermitAllowed(token).permit(msg.sender, address(this), nonce, expiry, true, v, r, s) */\n      dup1\n      extcodesize\n      iszero\n      dup1\n      iszero\n      tag_123\n      jumpi\n      0x00\n      dup1\n      revert\n    tag_123:\n      pop\n      gas\n      call\n      iszero\n      dup1\n      iszero\n      tag_125\n      jumpi\n      returndatasize\n      0x00\n      dup1\n      returndatacopy\n      revert(0x00, returndatasize)\n    tag_125:\n      pop\n      pop\n      pop\n      pop\n        /* \"contracts/base/SelfPermit.sol\":1364:1662  function selfPermitAllowed(\r... */\n      pop\n      pop\n      pop\n      pop\n      pop\n      pop\n      jump\t// out\n        /* \"contracts/base/PeripheryPayments.sol\":542:947  function unwrapWETH9(uint256 amountMinimum, address recipient) public payable override {\r... */\n    tag_41:\n        /* \"contracts/base/PeripheryPayments.sol\":640:660  uint256 balanceWETH9 */\n      0x00\n        /* \"contracts/base/PeripheryPayments.sol\":670:675  WETH9 */\n      immutable(\"0x4f722aad0315bc3832e551ccf6da3e098baeb8ee055023fde26c377410bf01b8\")\n      sub(shl(0xa0, 0x01), 0x01)\n        /* \"contracts/base/PeripheryPayments.sol\":663:686  IWETH9(WETH9).balanceOf */\n      and\n      0x70a08231\n        /* \"contracts/base/PeripheryPayments.sol\":695:699  this */\n      address\n        /* \"contracts/base/PeripheryPayments.sol\":663:701  IWETH9(WETH9).balanceOf(address(this)) */\n      mload(0x40)\n      dup3\n      0xffffffff\n      and\n      0xe0\n      shl\n      dup2\n      mstore\n      0x04\n      add\n      dup1\n      dup3\n      sub(shl(0xa0, 0x01), 0x01)\n      and\n      dup2\n      mstore\n      0x20\n      add\n      swap2\n      pop\n      pop\n      0x20\n      mload(0x40)\n      dup1\n      dup4\n      sub\n      dup2\n      dup7\n      dup1\n      extcodesize\n      iszero\n      dup1\n      iszero\n      tag_127\n      jumpi\n      0x00\n      dup1\n      revert\n    tag_127:\n      pop\n      gas\n      staticcall\n      iszero\n      dup1\n      iszero\n      tag_129\n      jumpi\n      returndatasize\n      0x00\n      dup1\n      returndatacopy\n      revert(0x00, returndatasize)\n    tag_129:\n      pop\n      pop\n      pop\n      pop\n      mload(0x40)\n      returndatasize\n      0x20\n      dup2\n      lt\n      iszero\n      tag_130\n      jumpi\n      0x00\n      dup1\n      revert\n    tag_130:\n      pop\n      mload\n      swap1\n      pop\n        /* \"contracts/base/PeripheryPayments.sol\":720:749  balanceWETH9 >= amountMinimum */\n      dup3\n      dup2\n      lt\n      iszero\n        /* \"contracts/base/PeripheryPayments.sol\":712:772  require(balanceWETH9 >= amountMinimum, 'Insufficient WETH9') */\n      tag_131\n      jumpi\n      0x40\n      dup1\n      mload\n      shl(0xe5, 0x461bcd)\n      dup2\n      mstore\n      0x20\n      0x04\n      dup3\n      add\n      mstore\n      0x12\n      0x24\n      dup3\n      add\n      mstore\n      shl(0x70, 0x496e73756666696369656e74205745544839)\n      0x44\n      dup3\n      add\n      mstore\n      swap1\n      mload\n      swap1\n      dup2\n      swap1\n      sub\n      0x64\n      add\n      swap1\n      revert\n    tag_131:\n        /* \"contracts/base/PeripheryPayments.sol\":789:805  balanceWETH9 > 0 */\n      dup1\n      iszero\n        /* \"contracts/base/PeripheryPayments.sol\":785:940  if (balanceWETH9 > 0) {\r... */\n      tag_136\n      jumpi\n        /* \"contracts/base/PeripheryPayments.sol\":829:834  WETH9 */\n      immutable(\"0x4f722aad0315bc3832e551ccf6da3e098baeb8ee055023fde26c377410bf01b8\")\n      sub(shl(0xa0, 0x01), 0x01)\n        /* \"contracts/base/PeripheryPayments.sol\":822:844  IWETH9(WETH9).withdraw */\n      and\n      0x2e1a7d4d\n        /* \"contracts/base/PeripheryPayments.sol\":845:857  balanceWETH9 */\n      dup3\n        /* \"contracts/base/PeripheryPayments.sol\":822:858  IWETH9(WETH9).withdraw(balanceWETH9) */\n      mload(0x40)\n      dup3\n      0xffffffff\n      and\n      0xe0\n      shl\n      dup2\n      mstore\n      0x04\n      add\n      dup1\n      dup3\n      dup2\n      mstore\n      0x20\n      add\n      swap2\n      pop\n      pop\n      0x00\n      mload(0x40)\n      dup1\n      dup4\n      sub\n      dup2\n      0x00\n      dup8\n      dup1\n      extcodesize\n      iszero\n      dup1\n      iszero\n      tag_133\n      jumpi\n      0x00\n      dup1\n      revert\n    tag_133:\n      pop\n      gas\n      call\n      iszero\n      dup1\n      iszero\n      tag_135\n      jumpi\n      returndatasize\n      0x00\n      dup1\n      returndatacopy\n      revert(0x00, returndatasize)\n    tag_135:\n      pop\n      pop\n      pop\n      pop\n        /* \"contracts/base/PeripheryPayments.sol\":873:928  TransferHelper.safeTransferETH(recipient, balanceWETH9) */\n      tag_136\n        /* \"contracts/base/PeripheryPayments.sol\":904:913  recipient */\n      dup3\n        /* \"contracts/base/PeripheryPayments.sol\":915:927  balanceWETH9 */\n      dup3\n        /* \"contracts/base/PeripheryPayments.sol\":873:903  TransferHelper.safeTransferETH */\n      tag_101\n        /* \"contracts/base/PeripheryPayments.sol\":873:928  TransferHelper.safeTransferETH(recipient, balanceWETH9) */\n      jump\t// in\n    tag_136:\n        /* \"contracts/base/PeripheryPayments.sol\":542:947  function unwrapWETH9(uint256 amountMinimum, address recipient) public payable override {\r... */\n      pop\n      pop\n      pop\n      jump\t// out\n        /* \"contracts/base/PeripheryImmutableState.sol\":431:470  address public immutable override WETH9 */\n    tag_44:\n      immutable(\"0x4f722aad0315bc3832e551ccf6da3e098baeb8ee055023fde26c377410bf01b8\")\n      dup2\n      jump\t// out\n        /* \"contracts/base/PeripheryPaymentsWithFee.sol\":569:1284  function unwrapWETH9WithFee(\r... */\n    tag_50:\n        /* \"contracts/base/PeripheryPaymentsWithFee.sol\":774:775  0 */\n      0x00\n        /* \"contracts/base/PeripheryPaymentsWithFee.sol\":764:771  feeBips */\n      dup3\n        /* \"contracts/base/PeripheryPaymentsWithFee.sol\":764:775  feeBips > 0 */\n      gt\n        /* \"contracts/base/PeripheryPaymentsWithFee.sol\":764:793  feeBips > 0 && feeBips <= 100 */\n      dup1\n      iszero\n      tag_138\n      jumpi\n      pop\n        /* \"contracts/base/PeripheryPaymentsWithFee.sol\":790:793  100 */\n      0x64\n        /* \"contracts/base/PeripheryPaymentsWithFee.sol\":779:786  feeBips */\n      dup3\n        /* \"contracts/base/PeripheryPaymentsWithFee.sol\":779:793  feeBips <= 100 */\n      gt\n      iszero\n        /* \"contracts/base/PeripheryPaymentsWithFee.sol\":764:793  feeBips > 0 && feeBips <= 100 */\n    tag_138:\n        /* \"contracts/base/PeripheryPaymentsWithFee.sol\":756:794  require(feeBips > 0 && feeBips <= 100) */\n      tag_139\n      jumpi\n      0x00\n      dup1\n      revert\n    tag_139:\n        /* \"contracts/base/PeripheryPaymentsWithFee.sol\":807:827  uint256 balanceWETH9 */\n      0x00\n        /* \"contracts/base/PeripheryPaymentsWithFee.sol\":837:842  WETH9 */\n      immutable(\"0x4f722aad0315bc3832e551ccf6da3e098baeb8ee055023fde26c377410bf01b8\")\n      sub(shl(0xa0, 0x01), 0x01)\n        /* \"contracts/base/PeripheryPaymentsWithFee.sol\":830:853  IWETH9(WETH9).balanceOf */\n      and\n      0x70a08231\n        /* \"contracts/base/PeripheryPaymentsWithFee.sol\":862:866  this */\n      address\n        /* \"contracts/base/PeripheryPaymentsWithFee.sol\":830:868  IWETH9(WETH9).balanceOf(address(this)) */\n      mload(0x40)\n      dup3\n      0xffffffff\n      and\n      0xe0\n      shl\n      dup2\n      mstore\n      0x04\n      add\n      dup1\n      dup3\n      sub(shl(0xa0, 0x01), 0x01)\n      and\n      dup2\n      mstore\n      0x20\n      add\n      swap2\n      pop\n      pop\n      0x20\n      mload(0x40)\n      dup1\n      dup4\n      sub\n      dup2\n      dup7\n      dup1\n      extcodesize\n      iszero\n      dup1\n      iszero\n      tag_140\n      jumpi\n      0x00\n      dup1\n      revert\n    tag_140:\n      pop\n      gas\n      staticcall\n      iszero\n      dup1\n      iszero\n      tag_142\n      jumpi\n      returndatasize\n      0x00\n      dup1\n      returndatacopy\n      revert(0x00, returndatasize)\n    tag_142:\n      pop\n      pop\n      pop\n      pop\n      mload(0x40)\n      returndatasize\n      0x20\n      dup2\n      lt\n      iszero\n      tag_143\n      jumpi\n      0x00\n      dup1\n      revert\n    tag_143:\n      pop\n      mload\n      swap1\n      pop\n        /* \"contracts/base/PeripheryPaymentsWithFee.sol\":887:916  balanceWETH9 >= amountMinimum */\n      dup5\n      dup2\n      lt\n      iszero\n        /* \"contracts/base/PeripheryPaymentsWithFee.sol\":879:939  require(balanceWETH9 >= amountMinimum, 'Insufficient WETH9') */\n      tag_144\n      jumpi\n      0x40\n      dup1\n      mload\n      shl(0xe5, 0x461bcd)\n      dup2\n      mstore\n      0x20\n      0x04\n      dup3\n      add\n      mstore\n      0x12\n      0x24\n      dup3\n      add\n      mstore\n      shl(0x70, 0x496e73756666696369656e74205745544839)\n      0x44\n      dup3\n      add\n      mstore\n      swap1\n      mload\n      swap1\n      dup2\n      swap1\n      sub\n      0x64\n      add\n      swap1\n      revert\n    tag_144:\n        /* \"contracts/base/PeripheryPaymentsWithFee.sol\":956:972  balanceWETH9 > 0 */\n      dup1\n      iszero\n        /* \"contracts/base/PeripheryPaymentsWithFee.sol\":952:1277  if (balanceWETH9 > 0) {\r... */\n      tag_145\n      jumpi\n        /* \"contracts/base/PeripheryPaymentsWithFee.sol\":996:1001  WETH9 */\n      immutable(\"0x4f722aad0315bc3832e551ccf6da3e098baeb8ee055023fde26c377410bf01b8\")\n      sub(shl(0xa0, 0x01), 0x01)\n        /* \"contracts/base/PeripheryPaymentsWithFee.sol\":989:1011  IWETH9(WETH9).withdraw */\n      and\n      0x2e1a7d4d\n        /* \"contracts/base/PeripheryPaymentsWithFee.sol\":1012:1024  balanceWETH9 */\n      dup3\n        /* \"contracts/base/PeripheryPaymentsWithFee.sol\":989:1025  IWETH9(WETH9).withdraw(balanceWETH9) */\n      mload(0x40)\n      dup3\n      0xffffffff\n      and\n      0xe0\n      shl\n      dup2\n      mstore\n      0x04\n      add\n      dup1\n      dup3\n      dup2\n      mstore\n      0x20\n      add\n      swap2\n      pop\n      pop\n      0x00\n      mload(0x40)\n      dup1\n      dup4\n      sub\n      dup2\n      0x00\n      dup8\n      dup1\n      extcodesize\n      iszero\n      dup1\n      iszero\n      tag_146\n      jumpi\n      0x00\n      dup1\n      revert\n    tag_146:\n      pop\n      gas\n      call\n      iszero\n      dup1\n      iszero\n      tag_148\n      jumpi\n      returndatasize\n      0x00\n      dup1\n      returndatacopy\n      revert(0x00, returndatasize)\n    tag_148:\n      pop\n      pop\n      pop\n      pop\n        /* \"contracts/base/PeripheryPaymentsWithFee.sol\":1040:1057  uint256 feeAmount */\n      0x00\n        /* \"contracts/base/PeripheryPaymentsWithFee.sol\":1088:1094  10_000 */\n      0x2710\n        /* \"contracts/base/PeripheryPaymentsWithFee.sol\":1060:1085  balanceWETH9.mul(feeBips) */\n      tag_149\n        /* \"contracts/base/PeripheryPaymentsWithFee.sol\":1077:1084  feeBips */\n      dup6\n        /* \"contracts/base/PeripheryPaymentsWithFee.sol\":1060:1072  balanceWETH9 */\n      dup5\n        /* \"contracts/base/PeripheryPaymentsWithFee.sol\":1060:1076  balanceWETH9.mul */\n      tag_150\n      swap1\n        /* \"contracts/base/PeripheryPaymentsWithFee.sol\":1060:1085  balanceWETH9.mul(feeBips) */\n      swap2\n      swap1\n      0xffffffff\n      and\n      jump\t// in\n    tag_149:\n        /* \"contracts/base/PeripheryPaymentsWithFee.sol\":1060:1094  balanceWETH9.mul(feeBips) / 10_000 */\n      dup2\n      tag_151\n      jumpi\n      invalid\n    tag_151:\n      div\n      swap1\n      pop\n        /* \"contracts/base/PeripheryPaymentsWithFee.sol\":1113:1126  feeAmount > 0 */\n      dup1\n      iszero\n        /* \"contracts/base/PeripheryPaymentsWithFee.sol\":1109:1183  if (feeAmount > 0) TransferHelper.safeTransferETH(feeRecipient, feeAmount) */\n      tag_153\n      jumpi\n        /* \"contracts/base/PeripheryPaymentsWithFee.sol\":1128:1183  TransferHelper.safeTransferETH(feeRecipient, feeAmount) */\n      tag_153\n        /* \"contracts/base/PeripheryPaymentsWithFee.sol\":1159:1171  feeRecipient */\n      dup4\n        /* \"contracts/base/PeripheryPaymentsWithFee.sol\":1173:1182  feeAmount */\n      dup3\n        /* \"contracts/base/PeripheryPaymentsWithFee.sol\":1128:1158  TransferHelper.safeTransferETH */\n      tag_101\n        /* \"contracts/base/PeripheryPaymentsWithFee.sol\":1128:1183  TransferHelper.safeTransferETH(feeRecipient, feeAmount) */\n      jump\t// in\n    tag_153:\n        /* \"contracts/base/PeripheryPaymentsWithFee.sol\":1198:1265  TransferHelper.safeTransferETH(recipient, balanceWETH9 - feeAmount) */\n      tag_154\n        /* \"contracts/base/PeripheryPaymentsWithFee.sol\":1229:1238  recipient */\n      dup6\n        /* \"contracts/base/PeripheryPaymentsWithFee.sol\":1255:1264  feeAmount */\n      dup3\n        /* \"contracts/base/PeripheryPaymentsWithFee.sol\":1240:1252  balanceWETH9 */\n      dup5\n        /* \"contracts/base/PeripheryPaymentsWithFee.sol\":1240:1264  balanceWETH9 - feeAmount */\n      sub\n        /* \"contracts/base/PeripheryPaymentsWithFee.sol\":1198:1228  TransferHelper.safeTransferETH */\n      tag_101\n        /* \"contracts/base/PeripheryPaymentsWithFee.sol\":1198:1265  TransferHelper.safeTransferETH(recipient, balanceWETH9 - feeAmount) */\n      jump\t// in\n    tag_154:\n        /* \"contracts/base/PeripheryPaymentsWithFee.sol\":952:1277  if (balanceWETH9 > 0) {\r... */\n      pop\n    tag_145:\n        /* \"contracts/base/PeripheryPaymentsWithFee.sol\":569:1284  function unwrapWETH9WithFee(\r... */\n      pop\n      pop\n      pop\n      pop\n      pop\n      jump\t// out\n        /* \"contracts/base/SelfPermit.sol\":1703:2061  function selfPermitAllowedIfNecessary(\r... */\n    tag_53:\n        /* \"contracts/base/SelfPermit.sol\":1920:1970  IERC20(token).allowance(msg.sender, address(this)) */\n      0x40\n      dup1\n      mload\n      shl(0xe1, 0x6eb1769f)\n      dup2\n      mstore\n        /* \"contracts/base/SelfPermit.sol\":1944:1954  msg.sender */\n      caller\n        /* \"contracts/base/SelfPermit.sol\":1920:1970  IERC20(token).allowance(msg.sender, address(this)) */\n      0x04\n      dup3\n      add\n      mstore\n        /* \"contracts/base/SelfPermit.sol\":1964:1968  this */\n      address\n        /* \"contracts/base/SelfPermit.sol\":1920:1970  IERC20(token).allowance(msg.sender, address(this)) */\n      0x24\n      dup3\n      add\n      mstore\n      swap1\n      mload\n      not(0x00)\n        /* \"contracts/base/SelfPermit.sol\":1973:1990  type(uint256).max */\n      swap2\n      sub(shl(0xa0, 0x01), 0x01)\n        /* \"contracts/base/SelfPermit.sol\":1920:1943  IERC20(token).allowance */\n      dup10\n      and\n      swap2\n      0xdd62ed3e\n      swap2\n        /* \"contracts/base/SelfPermit.sol\":1920:1970  IERC20(token).allowance(msg.sender, address(this)) */\n      0x44\n      dup1\n      dup3\n      add\n      swap3\n      0x20\n      swap3\n      swap1\n      swap2\n      swap1\n      dup3\n      swap1\n      sub\n      add\n      dup2\n        /* \"contracts/base/SelfPermit.sol\":1920:1943  IERC20(token).allowance */\n      dup7\n        /* \"contracts/base/SelfPermit.sol\":1920:1970  IERC20(token).allowance(msg.sender, address(this)) */\n      dup1\n      extcodesize\n      iszero\n      dup1\n      iszero\n      tag_156\n      jumpi\n      0x00\n      dup1\n      revert\n    tag_156:\n      pop\n      gas\n      staticcall\n      iszero\n      dup1\n      iszero\n      tag_158\n      jumpi\n      returndatasize\n      0x00\n      dup1\n      returndatacopy\n      revert(0x00, returndatasize)\n    tag_158:\n      pop\n      pop\n      pop\n      pop\n      mload(0x40)\n      returndatasize\n      0x20\n      dup2\n      lt\n      iszero\n      tag_159\n      jumpi\n      0x00\n      dup1\n      revert\n    tag_159:\n      pop\n      mload\n        /* \"contracts/base/SelfPermit.sol\":1920:1990  IERC20(token).allowance(msg.sender, address(this)) < type(uint256).max */\n      lt\n        /* \"contracts/base/SelfPermit.sol\":1916:2053  if (IERC20(token).allowance(msg.sender, address(this)) < type(uint256).max)\r... */\n      iszero\n      tag_154\n      jumpi\n        /* \"contracts/base/SelfPermit.sol\":2005:2053  selfPermitAllowed(token, nonce, expiry, v, r, s) */\n      tag_154\n        /* \"contracts/base/SelfPermit.sol\":2023:2028  token */\n      dup7\n        /* \"contracts/base/SelfPermit.sol\":2030:2035  nonce */\n      dup7\n        /* \"contracts/base/SelfPermit.sol\":2037:2043  expiry */\n      dup7\n        /* \"contracts/base/SelfPermit.sol\":2045:2046  v */\n      dup7\n        /* \"contracts/base/SelfPermit.sol\":2048:2049  r */\n      dup7\n        /* \"contracts/base/SelfPermit.sol\":2051:2052  s */\n      dup7\n        /* \"contracts/base/SelfPermit.sol\":2005:2022  selfPermitAllowed */\n      tag_37\n        /* \"contracts/base/SelfPermit.sol\":2005:2053  selfPermitAllowed(token, nonce, expiry, v, r, s) */\n      jump\t// in\n        /* \"contracts/base/Multicall.sol\":318:987  function multicall(bytes[] calldata data) public payable override returns (bytes[] memory results) {\r... */\n    tag_57:\n        /* \"contracts/base/Multicall.sol\":393:415  bytes[] memory results */\n      0x60\n        /* \"contracts/base/Multicall.sol\":450:454  data */\n      dup2\n        /* \"contracts/base/Multicall.sol\":438:462  new bytes[](data.length) */\n      0xffffffffffffffff\n      dup2\n      gt\n      dup1\n      iszero\n      tag_163\n      jumpi\n      0x00\n      dup1\n      revert\n    tag_163:\n      pop\n      mload(0x40)\n      swap1\n      dup1\n      dup3\n      mstore\n      dup1\n      0x20\n      mul\n      0x20\n      add\n      dup3\n      add\n      0x40\n      mstore\n      dup1\n      iszero\n      tag_164\n      jumpi\n      dup2\n      0x20\n      add\n    tag_165:\n      0x60\n      dup2\n      mstore\n      0x20\n      add\n      swap1\n      0x01\n      swap1\n      sub\n      swap1\n      dup2\n      tag_165\n      jumpi\n      swap1\n      pop\n    tag_164:\n      pop\n        /* \"contracts/base/Multicall.sol\":428:462  results = new bytes[](data.length) */\n      swap1\n      pop\n        /* \"contracts/base/Multicall.sol\":478:487  uint256 i */\n      0x00\n        /* \"contracts/base/Multicall.sol\":473:980  for (uint256 i = 0; i < data.length; i++) {\r... */\n    tag_166:\n        /* \"contracts/base/Multicall.sol\":493:508  i < data.length */\n      dup3\n      dup2\n      lt\n        /* \"contracts/base/Multicall.sol\":473:980  for (uint256 i = 0; i < data.length; i++) {\r... */\n      iszero\n      tag_167\n      jumpi\n        /* \"contracts/base/Multicall.sol\":531:543  bool success */\n      0x00\n      dup1\n        /* \"contracts/base/Multicall.sol\":576:580  this */\n      address\n        /* \"contracts/base/Multicall.sol\":595:599  data */\n      dup7\n      dup7\n        /* \"contracts/base/Multicall.sol\":600:601  i */\n      dup6\n        /* \"contracts/base/Multicall.sol\":595:602  data[i] */\n      dup2\n      dup2\n      lt\n      tag_169\n      jumpi\n      invalid\n    tag_169:\n      swap1\n      pop\n      0x20\n      mul\n      dup2\n      add\n      swap1\n      tag_170\n      swap2\n      swap1\n      tag_171\n      jump\t// in\n    tag_170:\n        /* \"contracts/base/Multicall.sol\":568:603  address(this).delegatecall(data[i]) */\n      mload(0x40)\n      tag_172\n      swap3\n      swap2\n      swap1\n      tag_173\n      jump\t// in\n    tag_172:\n      0x00\n      mload(0x40)\n      dup1\n      dup4\n      sub\n      dup2\n      dup6\n      gas\n      delegatecall\n      swap2\n      pop\n      pop\n      returndatasize\n      dup1\n      0x00\n      dup2\n      eq\n      tag_176\n      jumpi\n      mload(0x40)\n      swap2\n      pop\n      and(add(returndatasize, 0x3f), not(0x1f))\n      dup3\n      add\n      0x40\n      mstore\n      returndatasize\n      dup3\n      mstore\n      returndatasize\n      0x00\n      0x20\n      dup5\n      add\n      returndatacopy\n      jump(tag_175)\n    tag_176:\n      0x60\n      swap2\n      pop\n    tag_175:\n      pop\n        /* \"contracts/base/Multicall.sol\":530:603  (bool success, bytes memory result) = address(this).delegatecall(data[i]) */\n      swap2\n      pop\n      swap2\n      pop\n        /* \"contracts/base/Multicall.sol\":625:632  success */\n      dup2\n        /* \"contracts/base/Multicall.sol\":620:933  if (!success) {\r... */\n      tag_177\n      jumpi\n        /* \"contracts/base/Multicall.sol\":754:756  68 */\n      0x44\n        /* \"contracts/base/Multicall.sol\":738:744  result */\n      dup2\n        /* \"contracts/base/Multicall.sol\":738:751  result.length */\n      mload\n        /* \"contracts/base/Multicall.sol\":738:756  result.length < 68 */\n      lt\n        /* \"contracts/base/Multicall.sol\":734:766  if (result.length < 68) revert() */\n      iszero\n      tag_178\n      jumpi\n        /* \"contracts/base/Multicall.sol\":758:766  revert() */\n      0x00\n      dup1\n      revert\n        /* \"contracts/base/Multicall.sol\":734:766  if (result.length < 68) revert() */\n    tag_178:\n        /* \"contracts/base/Multicall.sol\":839:843  0x04 */\n      0x04\n        /* \"contracts/base/Multicall.sol\":831:837  result */\n      dup2\n        /* \"contracts/base/Multicall.sol\":827:844  add(result, 0x04) */\n      add\n        /* \"contracts/base/Multicall.sol\":817:844  result := add(result, 0x04) */\n      swap1\n      pop\n        /* \"contracts/base/Multicall.sol\":899:905  result */\n      dup1\n        /* \"contracts/base/Multicall.sol\":888:916  abi.decode(result, (string)) */\n      dup1\n      0x20\n      add\n      swap1\n      mload\n      dup2\n      add\n      swap1\n      tag_179\n      swap2\n      swap1\n      tag_180\n      jump\t// in\n    tag_179:\n        /* \"contracts/base/Multicall.sol\":881:917  revert(abi.decode(result, (string))) */\n      mload(0x40)\n      shl(0xe5, 0x461bcd)\n      dup2\n      mstore\n      0x04\n      add\n      tag_120\n      swap2\n      swap1\n      tag_182\n      jump\t// in\n        /* \"contracts/base/Multicall.sol\":620:933  if (!success) {\r... */\n    tag_177:\n        /* \"contracts/base/Multicall.sol\":962:968  result */\n      dup1\n        /* \"contracts/base/Multicall.sol\":949:956  results */\n      dup5\n        /* \"contracts/base/Multicall.sol\":957:958  i */\n      dup5\n        /* \"contracts/base/Multicall.sol\":949:959  results[i] */\n      dup2\n      mload\n      dup2\n      lt\n      tag_183\n      jumpi\n      invalid\n    tag_183:\n      0x20\n      swap1\n      dup2\n      mul\n      swap2\n      swap1\n      swap2\n      add\n      add\n        /* \"contracts/base/Multicall.sol\":949:968  results[i] = result */\n      mstore\n      pop\n      pop\n        /* \"contracts/base/Multicall.sol\":510:513  i++ */\n      0x01\n      add\n        /* \"contracts/base/Multicall.sol\":473:980  for (uint256 i = 0; i < data.length; i++) {\r... */\n      jump(tag_166)\n    tag_167:\n      pop\n        /* \"contracts/base/Multicall.sol\":318:987  function multicall(bytes[] calldata data) public payable override returns (bytes[] memory results) {\r... */\n      swap3\n      swap2\n      pop\n      pop\n      jump\t// out\n        /* \"contracts/SwapRouter.sol\":5016:6325  function exactInput(ExactInputParams memory params)\r... */\n    tag_63:\n        /* \"contracts/SwapRouter.sol\":5179:5196  uint256 amountOut */\n      0x00\n        /* \"contracts/SwapRouter.sol\":5144:5150  params */\n      dup2\n        /* \"contracts/SwapRouter.sol\":5144:5159  params.deadline */\n      0x40\n      add\n      mload\n        /* \"contracts/base/PeripheryValidation.sol\":251:259  deadline */\n      dup1\n        /* \"contracts/base/PeripheryValidation.sol\":230:247  _blockTimestamp() */\n      tag_185\n        /* \"contracts/base/PeripheryValidation.sol\":230:245  _blockTimestamp */\n      tag_104\n        /* \"contracts/base/PeripheryValidation.sol\":230:247  _blockTimestamp() */\n      jump\t// in\n    tag_185:\n        /* \"contracts/base/PeripheryValidation.sol\":230:259  _blockTimestamp() <= deadline */\n      gt\n      iszero\n        /* \"contracts/base/PeripheryValidation.sol\":222:283  require(_blockTimestamp() <= deadline, 'Transaction too old') */\n      tag_186\n      jumpi\n      0x40\n      dup1\n      mload\n      shl(0xe5, 0x461bcd)\n      dup2\n      mstore\n      0x20\n      0x04\n      dup3\n      add\n      mstore\n      0x13\n      0x24\n      dup3\n      add\n      mstore\n      shl(0x6a, 0x151c985b9cd858dd1a5bdb881d1bdbc81bdb19)\n      0x44\n      dup3\n      add\n      mstore\n      swap1\n      mload\n      swap1\n      dup2\n      swap1\n      sub\n      0x64\n      add\n      swap1\n      revert\n    tag_186:\n        /* \"contracts/SwapRouter.sol\":5230:5240  msg.sender */\n      caller\n        /* \"contracts/SwapRouter.sol\":5290:6237  while (true) {\r... */\n    tag_188:\n        /* \"contracts/SwapRouter.sol\":5318:5339  bool hasMultiplePools */\n      0x00\n        /* \"contracts/SwapRouter.sol\":5342:5372  params.path.hasMultiplePools() */\n      tag_190\n        /* \"contracts/SwapRouter.sol\":5342:5348  params */\n      dup6\n        /* \"contracts/SwapRouter.sol\":5342:5353  params.path */\n      0x00\n      add\n      mload\n        /* \"contracts/SwapRouter.sol\":5342:5370  params.path.hasMultiplePools */\n      tag_191\n        /* \"contracts/SwapRouter.sol\":5342:5372  params.path.hasMultiplePools() */\n      jump\t// in\n    tag_190:\n        /* \"contracts/SwapRouter.sol\":5318:5372  bool hasMultiplePools = params.path.hasMultiplePools() */\n      swap1\n      pop\n        /* \"contracts/SwapRouter.sol\":5487:5889  exactInputInternal(\r... */\n      tag_192\n        /* \"contracts/SwapRouter.sol\":5524:5530  params */\n      dup6\n        /* \"contracts/SwapRouter.sol\":5524:5539  params.amountIn */\n      0x60\n      add\n      mload\n        /* \"contracts/SwapRouter.sol\":5558:5574  hasMultiplePools */\n      dup3\n        /* \"contracts/SwapRouter.sol\":5558:5609  hasMultiplePools ? address(this) : params.recipient */\n      tag_193\n      jumpi\n        /* \"contracts/SwapRouter.sol\":5593:5599  params */\n      dup7\n        /* \"contracts/SwapRouter.sol\":5593:5609  params.recipient */\n      0x20\n      add\n      mload\n        /* \"contracts/SwapRouter.sol\":5558:5609  hasMultiplePools ? address(this) : params.recipient */\n      jump(tag_194)\n    tag_193:\n        /* \"contracts/SwapRouter.sol\":5585:5589  this */\n      address\n        /* \"contracts/SwapRouter.sol\":5558:5609  hasMultiplePools ? address(this) : params.recipient */\n    tag_194:\n        /* \"contracts/SwapRouter.sol\":5679:5680  0 */\n      0x00\n        /* \"contracts/SwapRouter.sol\":5699:5874  SwapCallbackData({\r... */\n      mload(0x40)\n      dup1\n      0x40\n      add\n      0x40\n      mstore\n      dup1\n        /* \"contracts/SwapRouter.sol\":5745:5771  params.path.getFirstPool() */\n      tag_195\n        /* \"contracts/SwapRouter.sol\":5745:5751  params */\n      dup12\n        /* \"contracts/SwapRouter.sol\":5745:5756  params.path */\n      0x00\n      add\n      mload\n        /* \"contracts/SwapRouter.sol\":5745:5769  params.path.getFirstPool */\n      tag_196\n        /* \"contracts/SwapRouter.sol\":5745:5771  params.path.getFirstPool() */\n      jump\t// in\n    tag_195:\n        /* \"contracts/SwapRouter.sol\":5699:5874  SwapCallbackData({\r... */\n      dup2\n      mstore\n      0x20\n      add\n        /* \"contracts/SwapRouter.sol\":5849:5854  payer */\n      dup8\n      sub(shl(0xa0, 0x01), 0x01)\n        /* \"contracts/SwapRouter.sol\":5699:5874  SwapCallbackData({\r... */\n      and\n      dup2\n      mstore\n      pop\n        /* \"contracts/SwapRouter.sol\":5487:5505  exactInputInternal */\n      tag_118\n        /* \"contracts/SwapRouter.sol\":5487:5889  exactInputInternal(\r... */\n      jump\t// in\n    tag_192:\n        /* \"contracts/SwapRouter.sol\":5469:5484  params.amountIn */\n      0x60\n      dup7\n      add\n        /* \"contracts/SwapRouter.sol\":5469:5889  params.amountIn = exactInputInternal(\r... */\n      mstore\n        /* \"contracts/SwapRouter.sol\":5962:6226  if (hasMultiplePools) {\r... */\n      dup1\n      iszero\n      tag_197\n      jumpi\n        /* \"contracts/SwapRouter.sol\":6095:6106  params.path */\n      dup5\n      mload\n        /* \"contracts/SwapRouter.sol\":6019:6023  this */\n      address\n      swap3\n      pop\n        /* \"contracts/SwapRouter.sol\":6095:6118  params.path.skipToken() */\n      tag_198\n      swap1\n        /* \"contracts/SwapRouter.sol\":6095:6116  params.path.skipToken */\n      tag_199\n        /* \"contracts/SwapRouter.sol\":6095:6118  params.path.skipToken() */\n      jump\t// in\n    tag_198:\n        /* \"contracts/SwapRouter.sol\":6081:6118  params.path = params.path.skipToken() */\n      dup6\n      mstore\n        /* \"contracts/SwapRouter.sol\":5962:6226  if (hasMultiplePools) {\r... */\n      jump(tag_200)\n    tag_197:\n        /* \"contracts/SwapRouter.sol\":6171:6177  params */\n      dup5\n        /* \"contracts/SwapRouter.sol\":6171:6186  params.amountIn */\n      0x60\n      add\n      mload\n        /* \"contracts/SwapRouter.sol\":6159:6186  amountOut = params.amountIn */\n      swap4\n      pop\n        /* \"contracts/SwapRouter.sol\":6205:6210  break */\n      pop\n      jump(tag_189)\n        /* \"contracts/SwapRouter.sol\":5962:6226  if (hasMultiplePools) {\r... */\n    tag_200:\n        /* \"contracts/SwapRouter.sol\":5290:6237  while (true) {\r... */\n      pop\n      jump(tag_188)\n    tag_189:\n        /* \"contracts/SwapRouter.sol\":6270:6276  params */\n      dup4\n        /* \"contracts/SwapRouter.sol\":6270:6293  params.amountOutMinimum */\n      0x80\n      add\n      mload\n        /* \"contracts/SwapRouter.sol\":6257:6266  amountOut */\n      dup4\n        /* \"contracts/SwapRouter.sol\":6257:6293  amountOut >= params.amountOutMinimum */\n      lt\n      iszero\n        /* \"contracts/SwapRouter.sol\":6249:6317  require(amountOut >= params.amountOutMinimum, 'Too little received') */\n      tag_201\n      jumpi\n      mload(0x40)\n      shl(0xe5, 0x461bcd)\n      dup2\n      mstore\n      0x04\n      add\n      tag_120\n      swap1\n      tag_121\n      jump\t// in\n    tag_201:\n        /* \"contracts/base/PeripheryValidation.sol\":294:295  _ */\n      pop\n        /* \"contracts/SwapRouter.sol\":5016:6325  function exactInput(ExactInputParams memory params)\r... */\n      pop\n      swap2\n      swap1\n      pop\n      jump\t// out\n        /* \"contracts/base/SelfPermit.sol\":1000:1323  function selfPermitIfNecessary(\r... */\n    tag_67:\n        /* \"contracts/base/SelfPermit.sol\":1212:1262  IERC20(token).allowance(msg.sender, address(this)) */\n      0x40\n      dup1\n      mload\n      shl(0xe1, 0x6eb1769f)\n      dup2\n      mstore\n        /* \"contracts/base/SelfPermit.sol\":1236:1246  msg.sender */\n      caller\n        /* \"contracts/base/SelfPermit.sol\":1212:1262  IERC20(token).allowance(msg.sender, address(this)) */\n      0x04\n      dup3\n      add\n      mstore\n        /* \"contracts/base/SelfPermit.sol\":1256:1260  this */\n      address\n        /* \"contracts/base/SelfPermit.sol\":1212:1262  IERC20(token).allowance(msg.sender, address(this)) */\n      0x24\n      dup3\n      add\n      mstore\n      swap1\n      mload\n        /* \"contracts/base/SelfPermit.sol\":1265:1270  value */\n      dup7\n      swap2\n      sub(shl(0xa0, 0x01), 0x01)\n        /* \"contracts/base/SelfPermit.sol\":1212:1235  IERC20(token).allowance */\n      dup10\n      and\n      swap2\n      0xdd62ed3e\n      swap2\n        /* \"contracts/base/SelfPermit.sol\":1212:1262  IERC20(token).allowance(msg.sender, address(this)) */\n      0x44\n      dup1\n      dup3\n      add\n      swap3\n      0x20\n      swap3\n      swap1\n      swap2\n      swap1\n      dup3\n      swap1\n      sub\n      add\n      dup2\n        /* \"contracts/base/SelfPermit.sol\":1212:1235  IERC20(token).allowance */\n      dup7\n        /* \"contracts/base/SelfPermit.sol\":1212:1262  IERC20(token).allowance(msg.sender, address(this)) */\n      dup1\n      extcodesize\n      iszero\n      dup1\n      iszero\n      tag_204\n      jumpi\n      0x00\n      dup1\n      revert\n    tag_204:\n      pop\n      gas\n      staticcall\n      iszero\n      dup1\n      iszero\n      tag_206\n      jumpi\n      returndatasize\n      0x00\n      dup1\n      returndatacopy\n      revert(0x00, returndatasize)\n    tag_206:\n      pop\n      pop\n      pop\n      pop\n      mload(0x40)\n      returndatasize\n      0x20\n      dup2\n      lt\n      iszero\n      tag_207\n      jumpi\n      0x00\n      dup1\n      revert\n    tag_207:\n      pop\n      mload\n        /* \"contracts/base/SelfPermit.sol\":1212:1270  IERC20(token).allowance(msg.sender, address(this)) < value */\n      lt\n        /* \"contracts/base/SelfPermit.sol\":1208:1315  if (IERC20(token).allowance(msg.sender, address(this)) < value) selfPermit(token, value, deadline, v, r, s) */\n      iszero\n      tag_154\n      jumpi\n        /* \"contracts/base/SelfPermit.sol\":1272:1315  selfPermit(token, value, deadline, v, r, s) */\n      tag_154\n        /* \"contracts/base/SelfPermit.sol\":1283:1288  token */\n      dup7\n        /* \"contracts/base/SelfPermit.sol\":1290:1295  value */\n      dup7\n        /* \"contracts/base/SelfPermit.sol\":1297:1305  deadline */\n      dup7\n        /* \"contracts/base/SelfPermit.sol\":1307:1308  v */\n      dup7\n        /* \"contracts/base/SelfPermit.sol\":1310:1311  r */\n      dup7\n        /* \"contracts/base/SelfPermit.sol\":1313:1314  s */\n      dup7\n        /* \"contracts/base/SelfPermit.sol\":1272:1282  selfPermit */\n      tag_92\n        /* \"contracts/base/SelfPermit.sol\":1272:1315  selfPermit(token, value, deadline, v, r, s) */\n      jump\t// in\n        /* \"contracts/base/PeripheryImmutableState.sol\":337:378  address public immutable override factory */\n    tag_70:\n      immutable(\"0x1dda9873baa24e5dc3a48371aa5a89ce85f19f9dd041db3ba184e623299b8433\")\n      dup2\n      jump\t// out\n        /* \"contracts/SwapRouter.sol\":7789:8539  function exactOutputSingle(ExactOutputSingleParams calldata params)\r... */\n    tag_75:\n        /* \"contracts/SwapRouter.sol\":7968:7984  uint256 amountIn */\n      0x00\n        /* \"contracts/SwapRouter.sol\":7933:7939  params */\n      dup2\n        /* \"contracts/SwapRouter.sol\":7933:7948  params.deadline */\n      0x80\n      add\n      calldataload\n        /* \"contracts/base/PeripheryValidation.sol\":251:259  deadline */\n      dup1\n        /* \"contracts/base/PeripheryValidation.sol\":230:247  _blockTimestamp() */\n      tag_211\n        /* \"contracts/base/PeripheryValidation.sol\":230:245  _blockTimestamp */\n      tag_104\n        /* \"contracts/base/PeripheryValidation.sol\":230:247  _blockTimestamp() */\n      jump\t// in\n    tag_211:\n        /* \"contracts/base/PeripheryValidation.sol\":230:259  _blockTimestamp() <= deadline */\n      gt\n      iszero\n        /* \"contracts/base/PeripheryValidation.sol\":222:283  require(_blockTimestamp() <= deadline, 'Transaction too old') */\n      tag_212\n      jumpi\n      0x40\n      dup1\n      mload\n      shl(0xe5, 0x461bcd)\n      dup2\n      mstore\n      0x20\n      0x04\n      dup3\n      add\n      mstore\n      0x13\n      0x24\n      dup3\n      add\n      mstore\n      shl(0x6a, 0x151c985b9cd858dd1a5bdb881d1bdbc81bdb19)\n      0x44\n      dup3\n      add\n      mstore\n      swap1\n      mload\n      swap1\n      dup2\n      swap1\n      sub\n      0x64\n      add\n      swap1\n      revert\n    tag_212:\n        /* \"contracts/SwapRouter.sol\":8070:8322  exactOutputInternal(\r... */\n      tag_214\n        /* \"contracts/SwapRouter.sol\":8104:8120  params.amountOut */\n      0xa0\n      dup5\n      add\n      calldataload\n        /* \"contracts/SwapRouter.sol\":8135:8151  params.recipient */\n      tag_215\n      0x80\n      dup7\n      add\n      0x60\n      dup8\n      add\n      tag_109\n      jump\t// in\n    tag_215:\n        /* \"contracts/SwapRouter.sol\":8166:8190  params.sqrtPriceLimitX96 */\n      tag_216\n      0x0100\n      dup8\n      add\n      0xe0\n      dup9\n      add\n      tag_109\n      jump\t// in\n    tag_216:\n        /* \"contracts/SwapRouter.sol\":8205:8311  SwapCallbackData({path: abi.encodePacked(params.tokenOut, params.fee, params.tokenIn), payer: msg.sender}) */\n      mload(0x40)\n      dup1\n      0x40\n      add\n      0x40\n      mstore\n      dup1\n        /* \"contracts/SwapRouter.sol\":8246:8252  params */\n      dup9\n        /* \"contracts/SwapRouter.sol\":8246:8261  params.tokenOut */\n      0x20\n      add\n      0x20\n      dup2\n      add\n      swap1\n      tag_217\n      swap2\n      swap1\n      tag_109\n      jump\t// in\n    tag_217:\n        /* \"contracts/SwapRouter.sol\":8263:8273  params.fee */\n      tag_218\n      0x60\n      dup12\n      add\n      0x40\n      dup13\n      add\n      tag_114\n      jump\t// in\n    tag_218:\n        /* \"contracts/SwapRouter.sol\":8275:8289  params.tokenIn */\n      tag_219\n      0x20\n      dup13\n      add\n        /* \"contracts/SwapRouter.sol\":8275:8281  params */\n      dup13\n        /* \"contracts/SwapRouter.sol\":8275:8289  params.tokenIn */\n      tag_109\n      jump\t// in\n    tag_219:\n        /* \"contracts/SwapRouter.sol\":8229:8290  abi.encodePacked(params.tokenOut, params.fee, params.tokenIn) */\n      add(0x20, mload(0x40))\n      tag_220\n      swap4\n      swap3\n      swap2\n      swap1\n      tag_117\n      jump\t// in\n    tag_220:\n      mload(0x40)\n      0x20\n      dup2\n      dup4\n      sub\n      sub\n      dup2\n      mstore\n      swap1\n      0x40\n      mstore\n        /* \"contracts/SwapRouter.sol\":8205:8311  SwapCallbackData({path: abi.encodePacked(params.tokenOut, params.fee, params.tokenIn), payer: msg.sender}) */\n      dup2\n      mstore\n      0x20\n      add\n        /* \"contracts/SwapRouter.sol\":8299:8309  msg.sender */\n      caller\n      sub(shl(0xa0, 0x01), 0x01)\n        /* \"contracts/SwapRouter.sol\":8205:8311  SwapCallbackData({path: abi.encodePacked(params.tokenOut, params.fee, params.tokenIn), payer: msg.sender}) */\n      and\n      dup2\n      mstore\n      pop\n        /* \"contracts/SwapRouter.sol\":8070:8089  exactOutputInternal */\n      tag_221\n        /* \"contracts/SwapRouter.sol\":8070:8322  exactOutputInternal(\r... */\n      jump\t// in\n    tag_214:\n        /* \"contracts/SwapRouter.sol\":8059:8322  amountIn = exactOutputInternal(\r... */\n      swap2\n      pop\n        /* \"contracts/SwapRouter.sol\":8355:8361  params */\n      dup3\n        /* \"contracts/SwapRouter.sol\":8355:8377  params.amountInMaximum */\n      0xc0\n      add\n      calldataload\n        /* \"contracts/SwapRouter.sol\":8343:8351  amountIn */\n      dup3\n        /* \"contracts/SwapRouter.sol\":8343:8377  amountIn <= params.amountInMaximum */\n      gt\n      iszero\n        /* \"contracts/SwapRouter.sol\":8335:8400  require(amountIn <= params.amountInMaximum, 'Too much requested') */\n      tag_222\n      jumpi\n      mload(0x40)\n      shl(0xe5, 0x461bcd)\n      dup2\n      mstore\n      0x04\n      add\n      tag_120\n      swap1\n      tag_224\n      jump\t// in\n    tag_222:\n      pop\n      not(0x00)\n        /* \"contracts/SwapRouter.sol\":8490:8504  amountInCached */\n      0x00\n        /* \"contracts/SwapRouter.sol\":8490:8531  amountInCached = DEFAULT_AMOUNT_IN_CACHED */\n      sstore\n        /* \"contracts/SwapRouter.sol\":7789:8539  function exactOutputSingle(ExactOutputSingleParams calldata params)\r... */\n      swap2\n      swap1\n      pop\n      jump\t// out\n        /* \"contracts/base/PeripheryPayments.sol\":995:1401  function sweepToken(\r... */\n    tag_80:\n        /* \"contracts/base/PeripheryPayments.sol\":1141:1161  uint256 balanceToken */\n      0x00\n        /* \"contracts/base/PeripheryPayments.sol\":1171:1176  token */\n      dup4\n      sub(shl(0xa0, 0x01), 0x01)\n        /* \"contracts/base/PeripheryPayments.sol\":1164:1187  IERC20(token).balanceOf */\n      and\n      0x70a08231\n        /* \"contracts/base/PeripheryPayments.sol\":1196:1200  this */\n      address\n        /* \"contracts/base/PeripheryPayments.sol\":1164:1202  IERC20(token).balanceOf(address(this)) */\n      mload(0x40)\n      dup3\n      0xffffffff\n      and\n      0xe0\n      shl\n      dup2\n      mstore\n      0x04\n      add\n      dup1\n      dup3\n      sub(shl(0xa0, 0x01), 0x01)\n      and\n      dup2\n      mstore\n      0x20\n      add\n      swap2\n      pop\n      pop\n      0x20\n      mload(0x40)\n      dup1\n      dup4\n      sub\n      dup2\n      dup7\n      dup1\n      extcodesize\n      iszero\n      dup1\n      iszero\n      tag_226\n      jumpi\n      0x00\n      dup1\n      revert\n    tag_226:\n      pop\n      gas\n      staticcall\n      iszero\n      dup1\n      iszero\n      tag_228\n      jumpi\n      returndatasize\n      0x00\n      dup1\n      returndatacopy\n      revert(0x00, returndatasize)\n    tag_228:\n      pop\n      pop\n      pop\n      pop\n      mload(0x40)\n      returndatasize\n      0x20\n      dup2\n      lt\n      iszero\n      tag_229\n      jumpi\n      0x00\n      dup1\n      revert\n    tag_229:\n      pop\n      mload\n      swap1\n      pop\n        /* \"contracts/base/PeripheryPayments.sol\":1221:1250  balanceToken >= amountMinimum */\n      dup3\n      dup2\n      lt\n      iszero\n        /* \"contracts/base/PeripheryPayments.sol\":1213:1273  require(balanceToken >= amountMinimum, 'Insufficient token') */\n      tag_230\n      jumpi\n      0x40\n      dup1\n      mload\n      shl(0xe5, 0x461bcd)\n      dup2\n      mstore\n      0x20\n      0x04\n      dup3\n      add\n      mstore\n      0x12\n      0x24\n      dup3\n      add\n      mstore\n      shl(0x71, 0x24b739bab33334b1b4b2b73a103a37b5b2b7)\n      0x44\n      dup3\n      add\n      mstore\n      swap1\n      mload\n      swap1\n      dup2\n      swap1\n      sub\n      0x64\n      add\n      swap1\n      revert\n    tag_230:\n        /* \"contracts/base/PeripheryPayments.sol\":1290:1306  balanceToken > 0 */\n      dup1\n      iszero\n        /* \"contracts/base/PeripheryPayments.sol\":1286:1394  if (balanceToken > 0) {\r... */\n      tag_232\n      jumpi\n        /* \"contracts/base/PeripheryPayments.sol\":1323:1382  TransferHelper.safeTransfer(token, recipient, balanceToken) */\n      tag_232\n        /* \"contracts/base/PeripheryPayments.sol\":1351:1356  token */\n      dup5\n        /* \"contracts/base/PeripheryPayments.sol\":1358:1367  recipient */\n      dup4\n        /* \"contracts/base/PeripheryPayments.sol\":1369:1381  balanceToken */\n      dup4\n        /* \"contracts/base/PeripheryPayments.sol\":1323:1350  TransferHelper.safeTransfer */\n      tag_233\n        /* \"contracts/base/PeripheryPayments.sol\":1323:1382  TransferHelper.safeTransfer(token, recipient, balanceToken) */\n      jump\t// in\n    tag_232:\n        /* \"contracts/base/PeripheryPayments.sol\":995:1401  function sweepToken(\r... */\n      pop\n      pop\n      pop\n      pop\n      jump\t// out\n        /* \"contracts/base/PeripheryPaymentsWithFee.sol\":1339:2034  function sweepTokenWithFee(\r... */\n    tag_84:\n        /* \"contracts/base/PeripheryPaymentsWithFee.sol\":1567:1568  0 */\n      0x00\n        /* \"contracts/base/PeripheryPaymentsWithFee.sol\":1557:1564  feeBips */\n      dup3\n        /* \"contracts/base/PeripheryPaymentsWithFee.sol\":1557:1568  feeBips > 0 */\n      gt\n        /* \"contracts/base/PeripheryPaymentsWithFee.sol\":1557:1586  feeBips > 0 && feeBips <= 100 */\n      dup1\n      iszero\n      tag_235\n      jumpi\n      pop\n        /* \"contracts/base/PeripheryPaymentsWithFee.sol\":1583:1586  100 */\n      0x64\n        /* \"contracts/base/PeripheryPaymentsWithFee.sol\":1572:1579  feeBips */\n      dup3\n        /* \"contracts/base/PeripheryPaymentsWithFee.sol\":1572:1586  feeBips <= 100 */\n      gt\n      iszero\n        /* \"contracts/base/PeripheryPaymentsWithFee.sol\":1557:1586  feeBips > 0 && feeBips <= 100 */\n    tag_235:\n        /* \"contracts/base/PeripheryPaymentsWithFee.sol\":1549:1587  require(feeBips > 0 && feeBips <= 100) */\n      tag_236\n      jumpi\n      0x00\n      dup1\n      revert\n    tag_236:\n        /* \"contracts/base/PeripheryPaymentsWithFee.sol\":1600:1620  uint256 balanceToken */\n      0x00\n        /* \"contracts/base/PeripheryPaymentsWithFee.sol\":1630:1635  token */\n      dup6\n      sub(shl(0xa0, 0x01), 0x01)\n        /* \"contracts/base/PeripheryPaymentsWithFee.sol\":1623:1646  IERC20(token).balanceOf */\n      and\n      0x70a08231\n        /* \"contracts/base/PeripheryPaymentsWithFee.sol\":1655:1659  this */\n      address\n        /* \"contracts/base/PeripheryPaymentsWithFee.sol\":1623:1661  IERC20(token).balanceOf(address(this)) */\n      mload(0x40)\n      dup3\n      0xffffffff\n      and\n      0xe0\n      shl\n      dup2\n      mstore\n      0x04\n      add\n      dup1\n      dup3\n      sub(shl(0xa0, 0x01), 0x01)\n      and\n      dup2\n      mstore\n      0x20\n      add\n      swap2\n      pop\n      pop\n      0x20\n      mload(0x40)\n      dup1\n      dup4\n      sub\n      dup2\n      dup7\n      dup1\n      extcodesize\n      iszero\n      dup1\n      iszero\n      tag_237\n      jumpi\n      0x00\n      dup1\n      revert\n    tag_237:\n      pop\n      gas\n      staticcall\n      iszero\n      dup1\n      iszero\n      tag_239\n      jumpi\n      returndatasize\n      0x00\n      dup1\n      returndatacopy\n      revert(0x00, returndatasize)\n    tag_239:\n      pop\n      pop\n      pop\n      pop\n      mload(0x40)\n      returndatasize\n      0x20\n      dup2\n      lt\n      iszero\n      tag_240\n      jumpi\n      0x00\n      dup1\n      revert\n    tag_240:\n      pop\n      mload\n      swap1\n      pop\n        /* \"contracts/base/PeripheryPaymentsWithFee.sol\":1680:1709  balanceToken >= amountMinimum */\n      dup5\n      dup2\n      lt\n      iszero\n        /* \"contracts/base/PeripheryPaymentsWithFee.sol\":1672:1732  require(balanceToken >= amountMinimum, 'Insufficient token') */\n      tag_241\n      jumpi\n      0x40\n      dup1\n      mload\n      shl(0xe5, 0x461bcd)\n      dup2\n      mstore\n      0x20\n      0x04\n      dup3\n      add\n      mstore\n      0x12\n      0x24\n      dup3\n      add\n      mstore\n      shl(0x71, 0x24b739bab33334b1b4b2b73a103a37b5b2b7)\n      0x44\n      dup3\n      add\n      mstore\n      swap1\n      mload\n      swap1\n      dup2\n      swap1\n      sub\n      0x64\n      add\n      swap1\n      revert\n    tag_241:\n        /* \"contracts/base/PeripheryPaymentsWithFee.sol\":1749:1765  balanceToken > 0 */\n      dup1\n      iszero\n        /* \"contracts/base/PeripheryPaymentsWithFee.sol\":1745:2027  if (balanceToken > 0) {\r... */\n      tag_154\n      jumpi\n        /* \"contracts/base/PeripheryPaymentsWithFee.sol\":1782:1799  uint256 feeAmount */\n      0x00\n        /* \"contracts/base/PeripheryPaymentsWithFee.sol\":1830:1836  10_000 */\n      0x2710\n        /* \"contracts/base/PeripheryPaymentsWithFee.sol\":1802:1827  balanceToken.mul(feeBips) */\n      tag_243\n        /* \"contracts/base/PeripheryPaymentsWithFee.sol\":1802:1814  balanceToken */\n      dup4\n        /* \"contracts/base/PeripheryPaymentsWithFee.sol\":1819:1826  feeBips */\n      dup7\n        /* \"contracts/base/PeripheryPaymentsWithFee.sol\":1802:1818  balanceToken.mul */\n      tag_150\n        /* \"contracts/base/PeripheryPaymentsWithFee.sol\":1802:1827  balanceToken.mul(feeBips) */\n      jump\t// in\n    tag_243:\n        /* \"contracts/base/PeripheryPaymentsWithFee.sol\":1802:1836  balanceToken.mul(feeBips) / 10_000 */\n      dup2\n      tag_244\n      jumpi\n      invalid\n    tag_244:\n      div\n      swap1\n      pop\n        /* \"contracts/base/PeripheryPaymentsWithFee.sol\":1855:1868  feeAmount > 0 */\n      dup1\n      iszero\n        /* \"contracts/base/PeripheryPaymentsWithFee.sol\":1851:1929  if (feeAmount > 0) TransferHelper.safeTransfer(token, feeRecipient, feeAmount) */\n      tag_246\n      jumpi\n        /* \"contracts/base/PeripheryPaymentsWithFee.sol\":1870:1929  TransferHelper.safeTransfer(token, feeRecipient, feeAmount) */\n      tag_246\n        /* \"contracts/base/PeripheryPaymentsWithFee.sol\":1898:1903  token */\n      dup8\n        /* \"contracts/base/PeripheryPaymentsWithFee.sol\":1905:1917  feeRecipient */\n      dup5\n        /* \"contracts/base/PeripheryPaymentsWithFee.sol\":1919:1928  feeAmount */\n      dup4\n        /* \"contracts/base/PeripheryPaymentsWithFee.sol\":1870:1897  TransferHelper.safeTransfer */\n      tag_233\n        /* \"contracts/base/PeripheryPaymentsWithFee.sol\":1870:1929  TransferHelper.safeTransfer(token, feeRecipient, feeAmount) */\n      jump\t// in\n    tag_246:\n        /* \"contracts/base/PeripheryPaymentsWithFee.sol\":1944:2015  TransferHelper.safeTransfer(token, recipient, balanceToken - feeAmount) */\n      tag_247\n        /* \"contracts/base/PeripheryPaymentsWithFee.sol\":1972:1977  token */\n      dup8\n        /* \"contracts/base/PeripheryPaymentsWithFee.sol\":1979:1988  recipient */\n      dup7\n        /* \"contracts/base/PeripheryPaymentsWithFee.sol\":2005:2014  feeAmount */\n      dup4\n        /* \"contracts/base/PeripheryPaymentsWithFee.sol\":1990:2002  balanceToken */\n      dup6\n        /* \"contracts/base/PeripheryPaymentsWithFee.sol\":1990:2014  balanceToken - feeAmount */\n      sub\n        /* \"contracts/base/PeripheryPaymentsWithFee.sol\":1944:1971  TransferHelper.safeTransfer */\n      tag_233\n        /* \"contracts/base/PeripheryPaymentsWithFee.sol\":1944:2015  TransferHelper.safeTransfer(token, recipient, balanceToken - feeAmount) */\n      jump\t// in\n    tag_247:\n        /* \"contracts/base/PeripheryPaymentsWithFee.sol\":1745:2027  if (balanceToken > 0) {\r... */\n      pop\n        /* \"contracts/base/PeripheryPaymentsWithFee.sol\":1339:2034  function sweepTokenWithFee(\r... */\n      pop\n      pop\n      pop\n      pop\n      pop\n      pop\n      jump\t// out\n        /* \"contracts/SwapRouter.sol\":8580:9355  function exactOutput(ExactOutputParams calldata params)\r... */\n    tag_88:\n        /* \"contracts/SwapRouter.sol\":8747:8763  uint256 amountIn */\n      0x00\n        /* \"contracts/SwapRouter.sol\":8712:8718  params */\n      dup2\n        /* \"contracts/SwapRouter.sol\":8712:8727  params.deadline */\n      0x40\n      add\n      calldataload\n        /* \"contracts/base/PeripheryValidation.sol\":251:259  deadline */\n      dup1\n        /* \"contracts/base/PeripheryValidation.sol\":230:247  _blockTimestamp() */\n      tag_249\n        /* \"contracts/base/PeripheryValidation.sol\":230:245  _blockTimestamp */\n      tag_104\n        /* \"contracts/base/PeripheryValidation.sol\":230:247  _blockTimestamp() */\n      jump\t// in\n    tag_249:\n        /* \"contracts/base/PeripheryValidation.sol\":230:259  _blockTimestamp() <= deadline */\n      gt\n      iszero\n        /* \"contracts/base/PeripheryValidation.sol\":222:283  require(_blockTimestamp() <= deadline, 'Transaction too old') */\n      tag_250\n      jumpi\n      0x40\n      dup1\n      mload\n      shl(0xe5, 0x461bcd)\n      dup2\n      mstore\n      0x20\n      0x04\n      dup3\n      add\n      mstore\n      0x13\n      0x24\n      dup3\n      add\n      mstore\n      shl(0x6a, 0x151c985b9cd858dd1a5bdb881d1bdbc81bdb19)\n      0x44\n      dup3\n      add\n      mstore\n      swap1\n      mload\n      swap1\n      dup2\n      swap1\n      sub\n      0x64\n      add\n      swap1\n      revert\n    tag_250:\n        /* \"contracts/SwapRouter.sol\":9002:9181  exactOutputInternal(\r... */\n      tag_252\n        /* \"contracts/SwapRouter.sol\":9036:9052  params.amountOut */\n      0x60\n      dup5\n      add\n      calldataload\n        /* \"contracts/SwapRouter.sol\":9067:9083  params.recipient */\n      tag_253\n      0x40\n      dup7\n      add\n      0x20\n      dup8\n      add\n      tag_109\n      jump\t// in\n    tag_253:\n        /* \"contracts/SwapRouter.sol\":9114:9170  SwapCallbackData({path: params.path, payer: msg.sender}) */\n      0x40\n      dup1\n      mload\n      dup1\n      dup3\n      add\n      swap1\n      swap2\n      mstore\n        /* \"contracts/SwapRouter.sol\":9098:9099  0 */\n      0x00\n      swap1\n        /* \"contracts/SwapRouter.sol\":9114:9170  SwapCallbackData({path: params.path, payer: msg.sender}) */\n      dup1\n        /* \"contracts/SwapRouter.sol\":9138:9149  params.path */\n      tag_254\n        /* \"contracts/SwapRouter.sol\":9138:9144  params */\n      dup10\n      dup1\n        /* \"contracts/SwapRouter.sol\":9138:9149  params.path */\n      tag_171\n      jump\t// in\n    tag_254:\n        /* \"contracts/SwapRouter.sol\":9114:9170  SwapCallbackData({path: params.path, payer: msg.sender}) */\n      dup1\n      dup1\n      0x1f\n      add\n      0x20\n      dup1\n      swap2\n      div\n      mul\n      0x20\n      add\n      mload(0x40)\n      swap1\n      dup2\n      add\n      0x40\n      mstore\n      dup1\n      swap4\n      swap3\n      swap2\n      swap1\n      dup2\n      dup2\n      mstore\n      0x20\n      add\n      dup4\n      dup4\n      dup1\n      dup3\n      dup5\n      calldatacopy\n      0x00\n      swap3\n      add\n      swap2\n      swap1\n      swap2\n      mstore\n      pop\n      pop\n      pop\n      swap1\n      dup3\n      mstore\n      pop\n        /* \"contracts/SwapRouter.sol\":9158:9168  msg.sender */\n      caller\n        /* \"contracts/SwapRouter.sol\":9114:9170  SwapCallbackData({path: params.path, payer: msg.sender}) */\n      0x20\n      swap1\n      swap2\n      add\n      mstore\n        /* \"contracts/SwapRouter.sol\":9002:9021  exactOutputInternal */\n      tag_221\n        /* \"contracts/SwapRouter.sol\":9002:9181  exactOutputInternal(\r... */\n      jump\t// in\n    tag_252:\n      pop\n        /* \"contracts/SwapRouter.sol\":9205:9219  amountInCached */\n      sload(0x00)\n        /* \"contracts/SwapRouter.sol\":9194:9219  amountIn = amountInCached */\n      swap2\n      pop\n        /* \"contracts/SwapRouter.sol\":9250:9256  params */\n      dup3\n        /* \"contracts/SwapRouter.sol\":9250:9272  params.amountInMaximum */\n      0x80\n      add\n      calldataload\n        /* \"contracts/SwapRouter.sol\":9238:9246  amountIn */\n      dup3\n        /* \"contracts/SwapRouter.sol\":9238:9272  amountIn <= params.amountInMaximum */\n      gt\n      iszero\n        /* \"contracts/SwapRouter.sol\":9230:9295  require(amountIn <= params.amountInMaximum, 'Too much requested') */\n      tag_222\n      jumpi\n      mload(0x40)\n      shl(0xe5, 0x461bcd)\n      dup2\n      mstore\n      0x04\n      add\n      tag_120\n      swap1\n      tag_224\n      jump\t// in\n        /* \"contracts/base/SelfPermit.sol\":677:959  function selfPermit(\r... */\n    tag_92:\n        /* \"contracts/base/SelfPermit.sol\":872:951  IERC20Permit(token).permit(msg.sender, address(this), value, deadline, v, r, s) */\n      0x40\n      dup1\n      mload\n      shl(0xe0, 0xd505accf)\n      dup2\n      mstore\n        /* \"contracts/base/SelfPermit.sol\":899:909  msg.sender */\n      caller\n        /* \"contracts/base/SelfPermit.sol\":872:951  IERC20Permit(token).permit(msg.sender, address(this), value, deadline, v, r, s) */\n      0x04\n      dup3\n      add\n      mstore\n        /* \"contracts/base/SelfPermit.sol\":919:923  this */\n      address\n        /* \"contracts/base/SelfPermit.sol\":872:951  IERC20Permit(token).permit(msg.sender, address(this), value, deadline, v, r, s) */\n      0x24\n      dup3\n      add\n      mstore\n      0x44\n      dup2\n      add\n      dup8\n      swap1\n      mstore\n      0x64\n      dup2\n      add\n      dup7\n      swap1\n      mstore\n      0xff\n      dup6\n      and\n      0x84\n      dup3\n      add\n      mstore\n      0xa4\n      dup2\n      add\n      dup5\n      swap1\n      mstore\n      0xc4\n      dup2\n      add\n      dup4\n      swap1\n      mstore\n      swap1\n      mload\n      sub(shl(0xa0, 0x01), 0x01)\n        /* \"contracts/base/SelfPermit.sol\":872:898  IERC20Permit(token).permit */\n      dup9\n      and\n      swap2\n      0xd505accf\n      swap2\n        /* \"contracts/base/SelfPermit.sol\":872:951  IERC20Permit(token).permit(msg.sender, address(this), value, deadline, v, r, s) */\n      0xe4\n      dup1\n      dup4\n      add\n      swap3\n      0x00\n      swap3\n      swap2\n      swap1\n      dup3\n      swap1\n      sub\n      add\n      dup2\n      dup4\n        /* \"contracts/base/SelfPermit.sol\":872:898  IERC20Permit(token).permit */\n      dup8\n        /* \"contracts/base/SelfPermit.sol\":872:951  IERC20Permit(token).permit(msg.sender, address(this), value, deadline, v, r, s) */\n      dup1\n      extcodesize\n      iszero\n      dup1\n      iszero\n      tag_123\n      jumpi\n      0x00\n      dup1\n      revert\n        /* \"contracts/SwapRouter.sol\":2036:3357  function uniswapV3SwapCallback(\r... */\n    tag_97:\n        /* \"contracts/SwapRouter.sol\":2217:2218  0 */\n      0x00\n        /* \"contracts/SwapRouter.sol\":2202:2214  amount0Delta */\n      dup5\n        /* \"contracts/SwapRouter.sol\":2202:2218  amount0Delta > 0 */\n      sgt\n        /* \"contracts/SwapRouter.sol\":2202:2238  amount0Delta > 0 || amount1Delta > 0 */\n      dup1\n      tag_262\n      jumpi\n      pop\n        /* \"contracts/SwapRouter.sol\":2237:2238  0 */\n      0x00\n        /* \"contracts/SwapRouter.sol\":2222:2234  amount1Delta */\n      dup4\n        /* \"contracts/SwapRouter.sol\":2222:2238  amount1Delta > 0 */\n      sgt\n        /* \"contracts/SwapRouter.sol\":2202:2238  amount0Delta > 0 || amount1Delta > 0 */\n    tag_262:\n        /* \"contracts/SwapRouter.sol\":2194:2239  require(amount0Delta > 0 || amount1Delta > 0) */\n      tag_263\n      jumpi\n      0x00\n      dup1\n      revert\n    tag_263:\n        /* \"contracts/SwapRouter.sol\":2313:2341  SwapCallbackData memory data */\n      0x00\n        /* \"contracts/SwapRouter.sol\":2344:2381  abi.decode(_data, (SwapCallbackData)) */\n      tag_264\n      dup3\n      dup5\n      add\n        /* \"contracts/SwapRouter.sol\":2355:2360  _data */\n      dup5\n        /* \"contracts/SwapRouter.sol\":2344:2381  abi.decode(_data, (SwapCallbackData)) */\n      tag_265\n      jump\t// in\n    tag_264:\n        /* \"contracts/SwapRouter.sol\":2313:2381  SwapCallbackData memory data = abi.decode(_data, (SwapCallbackData)) */\n      swap1\n      pop\n        /* \"contracts/SwapRouter.sol\":2393:2408  address tokenIn */\n      0x00\n        /* \"contracts/SwapRouter.sol\":2410:2426  address tokenOut */\n      dup1\n        /* \"contracts/SwapRouter.sol\":2428:2438  uint24 fee */\n      0x00\n        /* \"contracts/SwapRouter.sol\":2442:2469  data.path.decodeFirstPool() */\n      tag_266\n        /* \"contracts/SwapRouter.sol\":2442:2446  data */\n      dup5\n        /* \"contracts/SwapRouter.sol\":2442:2451  data.path */\n      0x00\n      add\n      mload\n        /* \"contracts/SwapRouter.sol\":2442:2467  data.path.decodeFirstPool */\n      tag_267\n        /* \"contracts/SwapRouter.sol\":2442:2469  data.path.decodeFirstPool() */\n      jump\t// in\n    tag_266:\n        /* \"contracts/SwapRouter.sol\":2392:2469  (address tokenIn, address tokenOut, uint24 fee) = data.path.decodeFirstPool() */\n      swap3\n      pop\n      swap3\n      pop\n      swap3\n      pop\n        /* \"contracts/SwapRouter.sol\":2480:2546  CallbackValidation.verifyCallback(factory, tokenIn, tokenOut, fee) */\n      tag_268\n        /* \"contracts/SwapRouter.sol\":2514:2521  factory */\n      immutable(\"0x1dda9873baa24e5dc3a48371aa5a89ce85f19f9dd041db3ba184e623299b8433\")\n        /* \"contracts/SwapRouter.sol\":2523:2530  tokenIn */\n      dup5\n        /* \"contracts/SwapRouter.sol\":2532:2540  tokenOut */\n      dup5\n        /* \"contracts/SwapRouter.sol\":2542:2545  fee */\n      dup5\n        /* \"contracts/SwapRouter.sol\":2480:2513  CallbackValidation.verifyCallback */\n      tag_269\n        /* \"contracts/SwapRouter.sol\":2480:2546  CallbackValidation.verifyCallback(factory, tokenIn, tokenOut, fee) */\n      jump\t// in\n    tag_268:\n      pop\n        /* \"contracts/SwapRouter.sol\":2560:2577  bool isExactInput */\n      0x00\n        /* \"contracts/SwapRouter.sol\":2579:2598  uint256 amountToPay */\n      dup1\n        /* \"contracts/SwapRouter.sol\":2630:2631  0 */\n      0x00\n        /* \"contracts/SwapRouter.sol\":2615:2627  amount0Delta */\n      dup11\n        /* \"contracts/SwapRouter.sol\":2615:2631  amount0Delta > 0 */\n      sgt\n        /* \"contracts/SwapRouter.sol\":2615:2757  amount0Delta > 0\r... */\n      tag_270\n      jumpi\n        /* \"contracts/SwapRouter.sol\":2726:2733  tokenIn */\n      dup5\n      sub(shl(0xa0, 0x01), 0x01)\n        /* \"contracts/SwapRouter.sol\":2715:2733  tokenOut < tokenIn */\n      and\n        /* \"contracts/SwapRouter.sol\":2715:2723  tokenOut */\n      dup5\n      sub(shl(0xa0, 0x01), 0x01)\n        /* \"contracts/SwapRouter.sol\":2715:2733  tokenOut < tokenIn */\n      and\n      lt\n        /* \"contracts/SwapRouter.sol\":2743:2755  amount1Delta */\n      dup10\n        /* \"contracts/SwapRouter.sol\":2615:2757  amount0Delta > 0\r... */\n      jump(tag_271)\n    tag_270:\n        /* \"contracts/SwapRouter.sol\":2662:2670  tokenOut */\n      dup4\n      sub(shl(0xa0, 0x01), 0x01)\n        /* \"contracts/SwapRouter.sol\":2652:2670  tokenIn < tokenOut */\n      and\n        /* \"contracts/SwapRouter.sol\":2652:2659  tokenIn */\n      dup6\n      sub(shl(0xa0, 0x01), 0x01)\n        /* \"contracts/SwapRouter.sol\":2652:2670  tokenIn < tokenOut */\n      and\n      lt\n        /* \"contracts/SwapRouter.sol\":2680:2692  amount0Delta */\n      dup11\n        /* \"contracts/SwapRouter.sol\":2615:2757  amount0Delta > 0\r... */\n    tag_271:\n        /* \"contracts/SwapRouter.sol\":2559:2757  (bool isExactInput, uint256 amountToPay) =\r... */\n      swap2\n      pop\n      swap2\n      pop\n        /* \"contracts/SwapRouter.sol\":2772:2784  isExactInput */\n      dup2\n        /* \"contracts/SwapRouter.sol\":2768:3350  if (isExactInput) {\r... */\n      iszero\n      tag_272\n      jumpi\n        /* \"contracts/SwapRouter.sol\":2801:2850  pay(tokenIn, data.payer, msg.sender, amountToPay) */\n      tag_273\n        /* \"contracts/SwapRouter.sol\":2805:2812  tokenIn */\n      dup6\n        /* \"contracts/SwapRouter.sol\":2814:2818  data */\n      dup8\n        /* \"contracts/SwapRouter.sol\":2814:2824  data.payer */\n      0x20\n      add\n      mload\n        /* \"contracts/SwapRouter.sol\":2826:2836  msg.sender */\n      caller\n        /* \"contracts/SwapRouter.sol\":2838:2849  amountToPay */\n      dup5\n        /* \"contracts/SwapRouter.sol\":2801:2804  pay */\n      tag_274\n        /* \"contracts/SwapRouter.sol\":2801:2850  pay(tokenIn, data.payer, msg.sender, amountToPay) */\n      jump\t// in\n    tag_273:\n        /* \"contracts/SwapRouter.sol\":2768:3350  if (isExactInput) {\r... */\n      jump(tag_125)\n    tag_272:\n        /* \"contracts/SwapRouter.sol\":2940:2949  data.path */\n      dup6\n      mload\n        /* \"contracts/SwapRouter.sol\":2940:2968  data.path.hasMultiplePools() */\n      tag_276\n      swap1\n        /* \"contracts/SwapRouter.sol\":2940:2966  data.path.hasMultiplePools */\n      tag_191\n        /* \"contracts/SwapRouter.sol\":2940:2968  data.path.hasMultiplePools() */\n      jump\t// in\n    tag_276:\n        /* \"contracts/SwapRouter.sol\":2936:3339  if (data.path.hasMultiplePools()) {\r... */\n      iszero\n      tag_277\n      jumpi\n        /* \"contracts/SwapRouter.sol\":3001:3010  data.path */\n      dup6\n      mload\n        /* \"contracts/SwapRouter.sol\":3001:3022  data.path.skipToken() */\n      tag_278\n      swap1\n        /* \"contracts/SwapRouter.sol\":3001:3020  data.path.skipToken */\n      tag_199\n        /* \"contracts/SwapRouter.sol\":3001:3022  data.path.skipToken() */\n      jump\t// in\n    tag_278:\n        /* \"contracts/SwapRouter.sol\":2989:3022  data.path = data.path.skipToken() */\n      dup7\n      mstore\n        /* \"contracts/SwapRouter.sol\":3041:3094  exactOutputInternal(amountToPay, msg.sender, 0, data) */\n      tag_279\n        /* \"contracts/SwapRouter.sol\":3061:3072  amountToPay */\n      dup2\n        /* \"contracts/SwapRouter.sol\":3074:3084  msg.sender */\n      caller\n        /* \"contracts/SwapRouter.sol\":2989:2998  data.path */\n      0x00\n        /* \"contracts/SwapRouter.sol\":2989:2993  data */\n      dup10\n        /* \"contracts/SwapRouter.sol\":3041:3060  exactOutputInternal */\n      tag_221\n        /* \"contracts/SwapRouter.sol\":3041:3094  exactOutputInternal(amountToPay, msg.sender, 0, data) */\n      jump\t// in\n    tag_279:\n      pop\n        /* \"contracts/SwapRouter.sol\":2936:3339  if (data.path.hasMultiplePools()) {\r... */\n      jump(tag_125)\n    tag_277:\n        /* \"contracts/SwapRouter.sol\":3152:3163  amountToPay */\n      dup1\n        /* \"contracts/SwapRouter.sol\":3135:3149  amountInCached */\n      0x00\n        /* \"contracts/SwapRouter.sol\":3135:3163  amountInCached = amountToPay */\n      dup2\n      swap1\n      sstore\n      pop\n        /* \"contracts/SwapRouter.sol\":3192:3200  tokenOut */\n      dup4\n        /* \"contracts/SwapRouter.sol\":3182:3200  tokenIn = tokenOut */\n      swap5\n      pop\n        /* \"contracts/SwapRouter.sol\":3274:3323  pay(tokenIn, data.payer, msg.sender, amountToPay) */\n      tag_125\n        /* \"contracts/SwapRouter.sol\":3278:3285  tokenIn */\n      dup6\n        /* \"contracts/SwapRouter.sol\":3287:3291  data */\n      dup8\n        /* \"contracts/SwapRouter.sol\":3287:3297  data.payer */\n      0x20\n      add\n      mload\n        /* \"contracts/SwapRouter.sol\":3299:3309  msg.sender */\n      caller\n        /* \"contracts/SwapRouter.sol\":3311:3322  amountToPay */\n      dup5\n        /* \"contracts/SwapRouter.sol\":3274:3277  pay */\n      tag_274\n        /* \"contracts/SwapRouter.sol\":3274:3323  pay(tokenIn, data.payer, msg.sender, amountToPay) */\n      jump\t// in\n        /* \"contracts/libraries/TransferHelper.sol\":2425:2593  function safeTransferETH(address to, uint256 value) internal {\r... */\n    tag_101:\n        /* \"contracts/libraries/TransferHelper.sol\":2538:2550  new bytes(0) */\n      0x40\n      dup1\n      mload\n        /* \"contracts/libraries/TransferHelper.sol\":2498:2510  bool success */\n      0x00\n        /* \"contracts/libraries/TransferHelper.sol\":2538:2550  new bytes(0) */\n      dup1\n      dup3\n      mstore\n      0x20\n      dup3\n      add\n      swap1\n      swap3\n      mstore\n      sub(shl(0xa0, 0x01), 0x01)\n        /* \"contracts/libraries/TransferHelper.sol\":2516:2523  to.call */\n      dup5\n      and\n      swap1\n        /* \"contracts/libraries/TransferHelper.sol\":2531:2536  value */\n      dup4\n      swap1\n        /* \"contracts/libraries/TransferHelper.sol\":2516:2551  to.call{value: value}(new bytes(0)) */\n      mload(0x40)\n      dup1\n      dup3\n      dup1\n      mload\n      swap1\n      0x20\n      add\n      swap1\n      dup1\n      dup4\n      dup4\n    tag_285:\n      0x20\n      dup4\n      lt\n      tag_287\n      jumpi\n      dup1\n      mload\n      dup3\n      mstore\n      not(0x1f)\n      swap1\n      swap3\n      add\n      swap2\n      0x20\n      swap2\n      dup3\n      add\n      swap2\n      add\n      jump(tag_285)\n    tag_287:\n      0x01\n      dup4\n      0x20\n      sub\n      0x0100\n      exp\n      sub\n      dup1\n      not\n      dup3\n      mload\n      and\n      dup2\n      dup5\n      mload\n      and\n      dup1\n      dup3\n      or\n      dup6\n      mstore\n      pop\n      pop\n      pop\n      pop\n      pop\n      pop\n      swap1\n      pop\n      add\n      swap2\n      pop\n      pop\n      0x00\n      mload(0x40)\n      dup1\n      dup4\n      sub\n      dup2\n      dup6\n      dup8\n      gas\n      call\n      swap3\n      pop\n      pop\n      pop\n      returndatasize\n      dup1\n      0x00\n      dup2\n      eq\n      tag_290\n      jumpi\n      mload(0x40)\n      swap2\n      pop\n      and(add(returndatasize, 0x3f), not(0x1f))\n      dup3\n      add\n      0x40\n      mstore\n      returndatasize\n      dup3\n      mstore\n      returndatasize\n      0x00\n      0x20\n      dup5\n      add\n      returndatacopy\n      jump(tag_289)\n    tag_290:\n      0x60\n      swap2\n      pop\n    tag_289:\n      pop\n        /* \"contracts/libraries/TransferHelper.sol\":2497:2551  (bool success, ) = to.call{value: value}(new bytes(0)) */\n      pop\n      swap1\n      pop\n        /* \"contracts/libraries/TransferHelper.sol\":2570:2577  success */\n      dup1\n        /* \"contracts/libraries/TransferHelper.sol\":2562:2585  require(success, 'STE') */\n      tag_136\n      jumpi\n      0x40\n      dup1\n      mload\n      shl(0xe5, 0x461bcd)\n      dup2\n      mstore\n      0x20\n      0x04\n      dup3\n      add\n      mstore\n      0x03\n      0x24\n      dup3\n      add\n      mstore\n      shl(0xe8, 0x535445)\n      0x44\n      dup3\n      add\n      mstore\n      swap1\n      mload\n      swap1\n      dup2\n      swap1\n      sub\n      0x64\n      add\n      swap1\n      revert\n        /* \"contracts/base/BlockTimestamp.sol\":327:435  function _blockTimestamp() internal view virtual returns (uint256) {\r... */\n    tag_104:\n        /* \"contracts/base/BlockTimestamp.sol\":412:427  block.timestamp */\n      timestamp\n        /* \"contracts/base/BlockTimestamp.sol\":327:435  function _blockTimestamp() internal view virtual returns (uint256) {\r... */\n      swap1\n      jump\t// out\n        /* \"contracts/SwapRouter.sol\":3414:4373  function exactInputInternal(\r... */\n    tag_118:\n        /* \"contracts/SwapRouter.sol\":3596:3613  uint256 amountOut */\n      0x00\n      sub(shl(0xa0, 0x01), 0x01)\n        /* \"contracts/SwapRouter.sol\":3694:3717  recipient == address(0) */\n      dup5\n      and\n        /* \"contracts/SwapRouter.sol\":3690:3744  if (recipient == address(0)) recipient = address(this) */\n      tag_294\n      jumpi\n        /* \"contracts/SwapRouter.sol\":3739:3743  this */\n      address\n        /* \"contracts/SwapRouter.sol\":3719:3744  recipient = address(this) */\n      swap4\n      pop\n        /* \"contracts/SwapRouter.sol\":3690:3744  if (recipient == address(0)) recipient = address(this) */\n    tag_294:\n        /* \"contracts/SwapRouter.sol\":3758:3773  address tokenIn */\n      0x00\n        /* \"contracts/SwapRouter.sol\":3775:3791  address tokenOut */\n      dup1\n        /* \"contracts/SwapRouter.sol\":3793:3803  uint24 fee */\n      0x00\n        /* \"contracts/SwapRouter.sol\":3807:3834  data.path.decodeFirstPool() */\n      tag_295\n        /* \"contracts/SwapRouter.sol\":3807:3811  data */\n      dup6\n        /* \"contracts/SwapRouter.sol\":3807:3816  data.path */\n      0x00\n      add\n      mload\n        /* \"contracts/SwapRouter.sol\":3807:3832  data.path.decodeFirstPool */\n      tag_267\n        /* \"contracts/SwapRouter.sol\":3807:3834  data.path.decodeFirstPool() */\n      jump\t// in\n    tag_295:\n        /* \"contracts/SwapRouter.sol\":3757:3834  (address tokenIn, address tokenOut, uint24 fee) = data.path.decodeFirstPool() */\n      swap2\n      swap5\n      pop\n      swap3\n      pop\n      swap1\n      pop\n      sub(shl(0xa0, 0x01), 0x01)\n        /* \"contracts/SwapRouter.sol\":3865:3883  tokenIn < tokenOut */\n      dup1\n      dup4\n      and\n      swap1\n      dup5\n      and\n      lt\n        /* \"contracts/SwapRouter.sol\":3847:3862  bool zeroForOne */\n      0x00\n      dup1\n        /* \"contracts/SwapRouter.sol\":3944:3975  getPool(tokenIn, tokenOut, fee) */\n      tag_296\n        /* \"contracts/SwapRouter.sol\":3757:3834  (address tokenIn, address tokenOut, uint24 fee) = data.path.decodeFirstPool() */\n      dup7\n      dup7\n      dup7\n        /* \"contracts/SwapRouter.sol\":3944:3951  getPool */\n      tag_297\n        /* \"contracts/SwapRouter.sol\":3944:3975  getPool(tokenIn, tokenOut, fee) */\n      jump\t// in\n    tag_296:\n      sub(shl(0xa0, 0x01), 0x01)\n        /* \"contracts/SwapRouter.sol\":3944:3980  getPool(tokenIn, tokenOut, fee).swap */\n      and\n      0x128acb08\n        /* \"contracts/SwapRouter.sol\":3999:4008  recipient */\n      dup12\n        /* \"contracts/SwapRouter.sol\":4027:4037  zeroForOne */\n      dup6\n        /* \"contracts/SwapRouter.sol\":4056:4075  amountIn.toInt256() */\n      tag_298\n        /* \"contracts/SwapRouter.sol\":4056:4064  amountIn */\n      dup16\n        /* \"contracts/SwapRouter.sol\":4056:4073  amountIn.toInt256 */\n      tag_299\n        /* \"contracts/SwapRouter.sol\":4056:4075  amountIn.toInt256() */\n      jump\t// in\n    tag_298:\n      sub(shl(0xa0, 0x01), 0x01)\n        /* \"contracts/SwapRouter.sol\":4094:4116  sqrtPriceLimitX96 == 0 */\n      dup15\n      and\n      iszero\n        /* \"contracts/SwapRouter.sol\":4094:4253  sqrtPriceLimitX96 == 0\r... */\n      tag_300\n      jumpi\n        /* \"contracts/SwapRouter.sol\":4236:4253  sqrtPriceLimitX96 */\n      dup14\n        /* \"contracts/SwapRouter.sol\":4094:4253  sqrtPriceLimitX96 == 0\r... */\n      jump(tag_303)\n    tag_300:\n        /* \"contracts/SwapRouter.sol\":4141:4151  zeroForOne */\n      dup8\n        /* \"contracts/SwapRouter.sol\":4141:4211  zeroForOne ? TickMath.MIN_SQRT_RATIO + 1 : TickMath.MAX_SQRT_RATIO - 1 */\n      tag_302\n      jumpi\n        /* \"contracts/SwapRouter.sol\":4184:4211  TickMath.MAX_SQRT_RATIO - 1 */\n      0xfffd8963efd1fc6a506488495d951d5263988d25\n        /* \"contracts/SwapRouter.sol\":4141:4211  zeroForOne ? TickMath.MIN_SQRT_RATIO + 1 : TickMath.MAX_SQRT_RATIO - 1 */\n      jump(tag_303)\n    tag_302:\n        /* \"contracts/SwapRouter.sol\":4154:4181  TickMath.MIN_SQRT_RATIO + 1 */\n      0x01000276a4\n        /* \"contracts/SwapRouter.sol\":4141:4211  zeroForOne ? TickMath.MIN_SQRT_RATIO + 1 : TickMath.MAX_SQRT_RATIO - 1 */\n    tag_303:\n        /* \"contracts/SwapRouter.sol\":4283:4287  data */\n      dup14\n        /* \"contracts/SwapRouter.sol\":4272:4288  abi.encode(data) */\n      add(0x20, mload(0x40))\n      tag_304\n      swap2\n      swap1\n      tag_305\n      jump\t// in\n    tag_304:\n      mload(0x40)\n      0x20\n      dup2\n      dup4\n      sub\n      sub\n      dup2\n      mstore\n      swap1\n      0x40\n      mstore\n        /* \"contracts/SwapRouter.sol\":3944:4303  getPool(tokenIn, tokenOut, fee).swap(\r... */\n      mload(0x40)\n      dup7\n      0xffffffff\n      and\n      0xe0\n      shl\n      dup2\n      mstore\n      0x04\n      add\n      tag_306\n      swap6\n      swap5\n      swap4\n      swap3\n      swap2\n      swap1\n      tag_307\n      jump\t// in\n    tag_306:\n      0x40\n      dup1\n      mload\n      dup1\n      dup4\n      sub\n      dup2\n      0x00\n      dup8\n      dup1\n      extcodesize\n      iszero\n      dup1\n      iszero\n      tag_308\n      jumpi\n      0x00\n      dup1\n      revert\n    tag_308:\n      pop\n      gas\n      call\n      iszero\n      dup1\n      iszero\n      tag_310\n      jumpi\n      returndatasize\n      0x00\n      dup1\n      returndatacopy\n      revert(0x00, returndatasize)\n    tag_310:\n      pop\n      pop\n      pop\n      pop\n      mload(0x40)\n      returndatasize\n      not(0x1f)\n      0x1f\n      dup3\n      add\n      and\n      dup3\n      add\n      dup1\n      0x40\n      mstore\n      pop\n      dup2\n      add\n      swap1\n      tag_311\n      swap2\n      swap1\n      tag_312\n      jump\t// in\n    tag_311:\n        /* \"contracts/SwapRouter.sol\":3896:4303  (int256 amount0, int256 amount1) =\r... */\n      swap2\n      pop\n      swap2\n      pop\n        /* \"contracts/SwapRouter.sol\":4333:4343  zeroForOne */\n      dup3\n        /* \"contracts/SwapRouter.sol\":4333:4363  zeroForOne ? amount1 : amount0 */\n      tag_313\n      jumpi\n        /* \"contracts/SwapRouter.sol\":4356:4363  amount0 */\n      dup2\n        /* \"contracts/SwapRouter.sol\":4333:4363  zeroForOne ? amount1 : amount0 */\n      jump(tag_314)\n    tag_313:\n        /* \"contracts/SwapRouter.sol\":4346:4353  amount1 */\n      dup1\n        /* \"contracts/SwapRouter.sol\":4333:4363  zeroForOne ? amount1 : amount0 */\n    tag_314:\n        /* \"contracts/SwapRouter.sol\":4331:4364  -(zeroForOne ? amount1 : amount0) */\n      0x00\n      sub\n      swap12\n        /* \"contracts/SwapRouter.sol\":3414:4373  function exactInputInternal(\r... */\n      swap11\n      pop\n      pop\n      pop\n      pop\n      pop\n      pop\n      pop\n      pop\n      pop\n      pop\n      pop\n      jump\t// out\n        /* \"@thinkincoin-libs/uniswap-v3-core/contracts/libraries/LowGasSafeMath.sol\":986:1111  function mul(uint256 x, uint256 y) internal pure returns (uint256 z) {... */\n    tag_150:\n        /* \"@thinkincoin-libs/uniswap-v3-core/contracts/libraries/LowGasSafeMath.sol\":1044:1053  uint256 z */\n      0x00\n        /* \"@thinkincoin-libs/uniswap-v3-core/contracts/libraries/LowGasSafeMath.sol\":1073:1079  x == 0 */\n      dup3\n      iszero\n      dup1\n        /* \"@thinkincoin-libs/uniswap-v3-core/contracts/libraries/LowGasSafeMath.sol\":1073:1103  x == 0 || (z = x * y) / x == y */\n      tag_316\n      jumpi\n      pop\n      pop\n        /* \"@thinkincoin-libs/uniswap-v3-core/contracts/libraries/LowGasSafeMath.sol\":1088:1093  x * y */\n      dup2\n      dup2\n      mul\n        /* \"@thinkincoin-libs/uniswap-v3-core/contracts/libraries/LowGasSafeMath.sol\":1102:1103  y */\n      dup2\n        /* \"@thinkincoin-libs/uniswap-v3-core/contracts/libraries/LowGasSafeMath.sol\":1097:1098  x */\n      dup4\n        /* \"@thinkincoin-libs/uniswap-v3-core/contracts/libraries/LowGasSafeMath.sol\":1088:1093  x * y */\n      dup3\n        /* \"@thinkincoin-libs/uniswap-v3-core/contracts/libraries/LowGasSafeMath.sol\":1097:1098  x */\n      dup2\n        /* \"@thinkincoin-libs/uniswap-v3-core/contracts/libraries/LowGasSafeMath.sol\":1083:1098  (z = x * y) / x */\n      tag_317\n      jumpi\n      invalid\n    tag_317:\n      div\n        /* \"@thinkincoin-libs/uniswap-v3-core/contracts/libraries/LowGasSafeMath.sol\":1083:1103  (z = x * y) / x == y */\n      eq\n        /* \"@thinkincoin-libs/uniswap-v3-core/contracts/libraries/LowGasSafeMath.sol\":1073:1103  x == 0 || (z = x * y) / x == y */\n    tag_316:\n        /* \"@thinkincoin-libs/uniswap-v3-core/contracts/libraries/LowGasSafeMath.sol\":1065:1104  require(x == 0 || (z = x * y) / x == y) */\n      tag_318\n      jumpi\n      0x00\n      dup1\n      revert\n    tag_318:\n        /* \"@thinkincoin-libs/uniswap-v3-core/contracts/libraries/LowGasSafeMath.sol\":986:1111  function mul(uint256 x, uint256 y) internal pure returns (uint256 z) {... */\n      swap3\n      swap2\n      pop\n      pop\n      jump\t// out\n        /* \"contracts/libraries/Path.sol\":1016:1156  function hasMultiplePools(bytes memory path) internal pure returns (bool) {\r... */\n    tag_191:\n        /* \"contracts/libraries/Path.sol\":1108:1119  path.length */\n      dup1\n      mload\n        /* \"contracts/libraries/Path.sol\":796:820  POP_OFFSET + NEXT_OFFSET */\n      0x42\n      gt\n        /* \"contracts/libraries/Path.sol\":1108:1148  path.length >= MULTIPLE_POOLS_MIN_LENGTH */\n      iszero\n        /* \"contracts/libraries/Path.sol\":1016:1156  function hasMultiplePools(bytes memory path) internal pure returns (bool) {\r... */\n    tag_319:\n      swap2\n      swap1\n      pop\n      jump\t// out\n        /* \"contracts/libraries/Path.sol\":2377:2506  function getFirstPool(bytes memory path) internal pure returns (bytes memory) {\r... */\n    tag_196:\n        /* \"contracts/libraries/Path.sol\":2441:2453  bytes memory */\n      0x60\n        /* \"contracts/libraries/Path.sol\":2473:2498  path.slice(0, POP_OFFSET) */\n      tag_318\n        /* \"contracts/libraries/Path.sol\":2473:2477  path */\n      dup3\n        /* \"contracts/libraries/Path.sol\":2484:2485  0 */\n      0x00\n        /* \"contracts/libraries/Path.sol\":635:658  NEXT_OFFSET + ADDR_SIZE */\n      0x2b\n        /* \"contracts/libraries/Path.sol\":2473:2483  path.slice */\n      tag_322\n        /* \"contracts/libraries/Path.sol\":2473:2498  path.slice(0, POP_OFFSET) */\n      jump\t// in\n        /* \"contracts/libraries/Path.sol\":2700:2851  function skipToken(bytes memory path) internal pure returns (bytes memory) {\r... */\n    tag_199:\n        /* \"contracts/libraries/Path.sol\":2817:2828  path.length */\n      dup1\n      mload\n        /* \"contracts/libraries/Path.sol\":2761:2773  bytes memory */\n      0x60\n      swap1\n        /* \"contracts/libraries/Path.sol\":2793:2843  path.slice(NEXT_OFFSET, path.length - NEXT_OFFSET) */\n      tag_318\n      swap1\n        /* \"contracts/libraries/Path.sol\":2817:2821  path */\n      dup4\n      swap1\n        /* \"contracts/libraries/Path.sol\":522:542  ADDR_SIZE + FEE_SIZE */\n      0x17\n      swap1\n      not(0x16)\n        /* \"contracts/libraries/Path.sol\":2817:2842  path.length - NEXT_OFFSET */\n      add\n        /* \"contracts/libraries/Path.sol\":2793:2803  path.slice */\n      tag_322\n        /* \"contracts/libraries/Path.sol\":2793:2843  path.slice(NEXT_OFFSET, path.length - NEXT_OFFSET) */\n      jump\t// in\n        /* \"contracts/SwapRouter.sol\":6383:7748  function exactOutputInternal(\r... */\n    tag_221:\n        /* \"contracts/SwapRouter.sol\":6567:6583  uint256 amountIn */\n      0x00\n      sub(shl(0xa0, 0x01), 0x01)\n        /* \"contracts/SwapRouter.sol\":6664:6687  recipient == address(0) */\n      dup5\n      and\n        /* \"contracts/SwapRouter.sol\":6660:6714  if (recipient == address(0)) recipient = address(this) */\n      tag_326\n      jumpi\n        /* \"contracts/SwapRouter.sol\":6709:6713  this */\n      address\n        /* \"contracts/SwapRouter.sol\":6689:6714  recipient = address(this) */\n      swap4\n      pop\n        /* \"contracts/SwapRouter.sol\":6660:6714  if (recipient == address(0)) recipient = address(this) */\n    tag_326:\n        /* \"contracts/SwapRouter.sol\":6728:6744  address tokenOut */\n      0x00\n        /* \"contracts/SwapRouter.sol\":6746:6761  address tokenIn */\n      dup1\n        /* \"contracts/SwapRouter.sol\":6763:6773  uint24 fee */\n      0x00\n        /* \"contracts/SwapRouter.sol\":6777:6804  data.path.decodeFirstPool() */\n      tag_327\n        /* \"contracts/SwapRouter.sol\":6777:6781  data */\n      dup6\n        /* \"contracts/SwapRouter.sol\":6777:6786  data.path */\n      0x00\n      add\n      mload\n        /* \"contracts/SwapRouter.sol\":6777:6802  data.path.decodeFirstPool */\n      tag_267\n        /* \"contracts/SwapRouter.sol\":6777:6804  data.path.decodeFirstPool() */\n      jump\t// in\n    tag_327:\n        /* \"contracts/SwapRouter.sol\":6727:6804  (address tokenOut, address tokenIn, uint24 fee) = data.path.decodeFirstPool() */\n      swap2\n      swap5\n      pop\n      swap3\n      pop\n      swap1\n      pop\n      sub(shl(0xa0, 0x01), 0x01)\n        /* \"contracts/SwapRouter.sol\":6835:6853  tokenIn < tokenOut */\n      dup1\n      dup5\n      and\n      swap1\n      dup4\n      and\n      lt\n        /* \"contracts/SwapRouter.sol\":6817:6832  bool zeroForOne */\n      0x00\n      dup1\n        /* \"contracts/SwapRouter.sol\":6924:6955  getPool(tokenIn, tokenOut, fee) */\n      tag_328\n        /* \"contracts/SwapRouter.sol\":6727:6804  (address tokenOut, address tokenIn, uint24 fee) = data.path.decodeFirstPool() */\n      dup6\n      dup8\n      dup7\n        /* \"contracts/SwapRouter.sol\":6924:6931  getPool */\n      tag_297\n        /* \"contracts/SwapRouter.sol\":6924:6955  getPool(tokenIn, tokenOut, fee) */\n      jump\t// in\n    tag_328:\n      sub(shl(0xa0, 0x01), 0x01)\n        /* \"contracts/SwapRouter.sol\":6924:6960  getPool(tokenIn, tokenOut, fee).swap */\n      and\n      0x128acb08\n        /* \"contracts/SwapRouter.sol\":6979:6988  recipient */\n      dup12\n        /* \"contracts/SwapRouter.sol\":7007:7017  zeroForOne */\n      dup6\n        /* \"contracts/SwapRouter.sol\":7037:7057  amountOut.toInt256() */\n      tag_329\n        /* \"contracts/SwapRouter.sol\":7037:7046  amountOut */\n      dup16\n        /* \"contracts/SwapRouter.sol\":7037:7055  amountOut.toInt256 */\n      tag_299\n        /* \"contracts/SwapRouter.sol\":7037:7057  amountOut.toInt256() */\n      jump\t// in\n    tag_329:\n        /* \"contracts/SwapRouter.sol\":7036:7057  -amountOut.toInt256() */\n      0x00\n      sub\n      sub(shl(0xa0, 0x01), 0x01)\n        /* \"contracts/SwapRouter.sol\":7076:7098  sqrtPriceLimitX96 == 0 */\n      dup15\n      and\n      iszero\n        /* \"contracts/SwapRouter.sol\":7076:7235  sqrtPriceLimitX96 == 0\r... */\n      tag_330\n      jumpi\n        /* \"contracts/SwapRouter.sol\":7218:7235  sqrtPriceLimitX96 */\n      dup14\n        /* \"contracts/SwapRouter.sol\":7076:7235  sqrtPriceLimitX96 == 0\r... */\n      jump(tag_333)\n    tag_330:\n        /* \"contracts/SwapRouter.sol\":7123:7133  zeroForOne */\n      dup8\n        /* \"contracts/SwapRouter.sol\":7123:7193  zeroForOne ? TickMath.MIN_SQRT_RATIO + 1 : TickMath.MAX_SQRT_RATIO - 1 */\n      tag_332\n      jumpi\n        /* \"contracts/SwapRouter.sol\":7166:7193  TickMath.MAX_SQRT_RATIO - 1 */\n      0xfffd8963efd1fc6a506488495d951d5263988d25\n        /* \"contracts/SwapRouter.sol\":7123:7193  zeroForOne ? TickMath.MIN_SQRT_RATIO + 1 : TickMath.MAX_SQRT_RATIO - 1 */\n      jump(tag_333)\n    tag_332:\n        /* \"contracts/SwapRouter.sol\":7136:7163  TickMath.MIN_SQRT_RATIO + 1 */\n      0x01000276a4\n        /* \"contracts/SwapRouter.sol\":7123:7193  zeroForOne ? TickMath.MIN_SQRT_RATIO + 1 : TickMath.MAX_SQRT_RATIO - 1 */\n    tag_333:\n        /* \"contracts/SwapRouter.sol\":7265:7269  data */\n      dup14\n        /* \"contracts/SwapRouter.sol\":7254:7270  abi.encode(data) */\n      add(0x20, mload(0x40))\n      tag_334\n      swap2\n      swap1\n      tag_305\n      jump\t// in\n    tag_334:\n      mload(0x40)\n      0x20\n      dup2\n      dup4\n      sub\n      sub\n      dup2\n      mstore\n      swap1\n      0x40\n      mstore\n        /* \"contracts/SwapRouter.sol\":6924:7285  getPool(tokenIn, tokenOut, fee).swap(\r... */\n      mload(0x40)\n      dup7\n      0xffffffff\n      and\n      0xe0\n      shl\n      dup2\n      mstore\n      0x04\n      add\n      tag_335\n      swap6\n      swap5\n      swap4\n      swap3\n      swap2\n      swap1\n      tag_307\n      jump\t// in\n    tag_335:\n      0x40\n      dup1\n      mload\n      dup1\n      dup4\n      sub\n      dup2\n      0x00\n      dup8\n      dup1\n      extcodesize\n      iszero\n      dup1\n      iszero\n      tag_336\n      jumpi\n      0x00\n      dup1\n      revert\n    tag_336:\n      pop\n      gas\n      call\n      iszero\n      dup1\n      iszero\n      tag_338\n      jumpi\n      returndatasize\n      0x00\n      dup1\n      returndatacopy\n      revert(0x00, returndatasize)\n    tag_338:\n      pop\n      pop\n      pop\n      pop\n      mload(0x40)\n      returndatasize\n      not(0x1f)\n      0x1f\n      dup3\n      add\n      and\n      dup3\n      add\n      dup1\n      0x40\n      mstore\n      pop\n      dup2\n      add\n      swap1\n      tag_339\n      swap2\n      swap1\n      tag_312\n      jump\t// in\n    tag_339:\n        /* \"contracts/SwapRouter.sol\":6866:7285  (int256 amount0Delta, int256 amount1Delta) =\r... */\n      swap2\n      pop\n      swap2\n      pop\n        /* \"contracts/SwapRouter.sol\":7298:7323  uint256 amountOutReceived */\n      0x00\n        /* \"contracts/SwapRouter.sol\":7366:7376  zeroForOne */\n      dup4\n        /* \"contracts/SwapRouter.sol\":7366:7502  zeroForOne\r... */\n      tag_340\n      jumpi\n        /* \"contracts/SwapRouter.sol\":7464:7476  amount1Delta */\n      dup2\n        /* \"contracts/SwapRouter.sol\":7488:7500  amount0Delta */\n      dup4\n        /* \"contracts/SwapRouter.sol\":7487:7500  -amount0Delta */\n      0x00\n      sub\n        /* \"contracts/SwapRouter.sol\":7366:7502  zeroForOne\r... */\n      jump(tag_341)\n    tag_340:\n        /* \"contracts/SwapRouter.sol\":7401:7413  amount0Delta */\n      dup3\n        /* \"contracts/SwapRouter.sol\":7425:7437  amount1Delta */\n      dup3\n        /* \"contracts/SwapRouter.sol\":7424:7437  -amount1Delta */\n      0x00\n      sub\n        /* \"contracts/SwapRouter.sol\":7366:7502  zeroForOne\r... */\n    tag_341:\n        /* \"contracts/SwapRouter.sol\":7334:7502  (amountIn, amountOutReceived) = zeroForOne\r... */\n      swap1\n      swap9\n      pop\n      swap1\n      pop\n      sub(shl(0xa0, 0x01), 0x01)\n        /* \"contracts/SwapRouter.sol\":7677:7699  sqrtPriceLimitX96 == 0 */\n      dup11\n      and\n        /* \"contracts/SwapRouter.sol\":7673:7740  if (sqrtPriceLimitX96 == 0) require(amountOutReceived == amountOut) */\n      tag_343\n      jumpi\n        /* \"contracts/SwapRouter.sol\":7730:7739  amountOut */\n      dup12\n        /* \"contracts/SwapRouter.sol\":7709:7726  amountOutReceived */\n      dup2\n        /* \"contracts/SwapRouter.sol\":7709:7739  amountOutReceived == amountOut */\n      eq\n        /* \"contracts/SwapRouter.sol\":7701:7740  require(amountOutReceived == amountOut) */\n      tag_343\n      jumpi\n      0x00\n      dup1\n      revert\n    tag_343:\n        /* \"contracts/SwapRouter.sol\":6383:7748  function exactOutputInternal(\r... */\n      pop\n      pop\n      pop\n      pop\n      pop\n      pop\n      pop\n      swap5\n      swap4\n      pop\n      pop\n      pop\n      pop\n      jump\t// out\n        /* \"contracts/libraries/TransferHelper.sol\":1239:1555  function safeTransfer(\r... */\n    tag_233:\n        /* \"contracts/libraries/TransferHelper.sol\":1404:1463  abi.encodeWithSelector(IERC20.transfer.selector, to, value) */\n      0x40\n      dup1\n      mload\n      sub(shl(0xa0, 0x01), 0x01)\n      dup5\n      dup2\n      and\n      0x24\n      dup4\n      add\n      mstore\n      0x44\n      dup1\n      dup4\n      add\n      dup6\n      swap1\n      mstore\n      dup4\n      mload\n      dup1\n      dup5\n      sub\n      swap1\n      swap2\n      add\n      dup2\n      mstore\n      0x64\n      swap1\n      swap3\n      add\n      dup4\n      mstore\n      0x20\n      dup3\n      add\n      dup1\n      mload\n      sub(shl(0xe0, 0x01), 0x01)\n      and\n      shl(0xe0, 0xa9059cbb)\n      or\n      dup2\n      mstore\n        /* \"contracts/libraries/TransferHelper.sol\":1393:1464  token.call(abi.encodeWithSelector(IERC20.transfer.selector, to, value)) */\n      swap3\n      mload\n      dup3\n      mload\n        /* \"contracts/libraries/TransferHelper.sol\":1358:1370  bool success */\n      0x00\n      swap5\n      dup6\n      swap5\n        /* \"contracts/libraries/TransferHelper.sol\":1393:1403  token.call */\n      swap4\n      dup10\n      and\n      swap4\n        /* \"contracts/libraries/TransferHelper.sol\":1404:1463  abi.encodeWithSelector(IERC20.transfer.selector, to, value) */\n      swap3\n        /* \"contracts/libraries/TransferHelper.sol\":1393:1464  token.call(abi.encodeWithSelector(IERC20.transfer.selector, to, value)) */\n      swap2\n      dup3\n      swap2\n        /* \"contracts/libraries/TransferHelper.sol\":1404:1463  abi.encodeWithSelector(IERC20.transfer.selector, to, value) */\n      swap1\n        /* \"contracts/libraries/TransferHelper.sol\":1393:1464  token.call(abi.encodeWithSelector(IERC20.transfer.selector, to, value)) */\n      dup1\n      dup4\n        /* \"contracts/libraries/TransferHelper.sol\":1404:1463  abi.encodeWithSelector(IERC20.transfer.selector, to, value) */\n      dup4\n        /* \"contracts/libraries/TransferHelper.sol\":1393:1464  token.call(abi.encodeWithSelector(IERC20.transfer.selector, to, value)) */\n    tag_345:\n      0x20\n      dup4\n      lt\n      tag_347\n      jumpi\n      dup1\n      mload\n      dup3\n      mstore\n      not(0x1f)\n      swap1\n      swap3\n      add\n      swap2\n      0x20\n      swap2\n      dup3\n      add\n      swap2\n      add\n      jump(tag_345)\n    tag_347:\n      0x01\n      dup4\n      0x20\n      sub\n      0x0100\n      exp\n      sub\n      dup1\n      not\n      dup3\n      mload\n      and\n      dup2\n      dup5\n      mload\n      and\n      dup1\n      dup3\n      or\n      dup6\n      mstore\n      pop\n      pop\n      pop\n      pop\n      pop\n      pop\n      swap1\n      pop\n      add\n      swap2\n      pop\n      pop\n      0x00\n      mload(0x40)\n      dup1\n      dup4\n      sub\n      dup2\n      0x00\n      dup7\n      gas\n      call\n      swap2\n      pop\n      pop\n      returndatasize\n      dup1\n      0x00\n      dup2\n      eq\n      tag_350\n      jumpi\n      mload(0x40)\n      swap2\n      pop\n      and(add(returndatasize, 0x3f), not(0x1f))\n      dup3\n      add\n      0x40\n      mstore\n      returndatasize\n      dup3\n      mstore\n      returndatasize\n      0x00\n      0x20\n      dup5\n      add\n      returndatacopy\n      jump(tag_349)\n    tag_350:\n      0x60\n      swap2\n      pop\n    tag_349:\n      pop\n        /* \"contracts/libraries/TransferHelper.sol\":1357:1464  (bool success, bytes memory data) = token.call(abi.encodeWithSelector(IERC20.transfer.selector, to, value)) */\n      swap2\n      pop\n      swap2\n      pop\n        /* \"contracts/libraries/TransferHelper.sol\":1483:1490  success */\n      dup2\n        /* \"contracts/libraries/TransferHelper.sol\":1483:1540  success && (data.length == 0 || abi.decode(data, (bool))) */\n      dup1\n      iszero\n      tag_352\n      jumpi\n      pop\n        /* \"contracts/libraries/TransferHelper.sol\":1495:1506  data.length */\n      dup1\n      mload\n        /* \"contracts/libraries/TransferHelper.sol\":1495:1511  data.length == 0 */\n      iszero\n      dup1\n        /* \"contracts/libraries/TransferHelper.sol\":1495:1539  data.length == 0 || abi.decode(data, (bool)) */\n      tag_352\n      jumpi\n      pop\n        /* \"contracts/libraries/TransferHelper.sol\":1526:1530  data */\n      dup1\n        /* \"contracts/libraries/TransferHelper.sol\":1515:1539  abi.decode(data, (bool)) */\n      dup1\n      0x20\n      add\n      swap1\n      mload\n      0x20\n      dup2\n      lt\n      iszero\n      tag_353\n      jumpi\n      0x00\n      dup1\n      revert\n    tag_353:\n      pop\n      mload\n        /* \"contracts/libraries/TransferHelper.sol\":1495:1539  data.length == 0 || abi.decode(data, (bool)) */\n    tag_352:\n        /* \"contracts/libraries/TransferHelper.sol\":1475:1547  require(success && (data.length == 0 || abi.decode(data, (bool))), 'ST') */\n      tag_145\n      jumpi\n      0x40\n      dup1\n      mload\n      shl(0xe5, 0x461bcd)\n      dup2\n      mstore\n      0x20\n      0x04\n      dup3\n      add\n      mstore\n      0x02\n      0x24\n      dup3\n      add\n      mstore\n      shl(0xf2, 0x14d5)\n      0x44\n      dup3\n      add\n      mstore\n      swap1\n      mload\n      swap1\n      dup2\n      swap1\n      sub\n      0x64\n      add\n      swap1\n      revert\n        /* \"contracts/libraries/Path.sol\":1820:2146  function decodeFirstPool(bytes memory path)\r... */\n    tag_267:\n        /* \"contracts/libraries/Path.sol\":1928:1942  address tokenA */\n      0x00\n      dup1\n      dup1\n        /* \"contracts/libraries/Path.sol\":2033:2050  path.toAddress(0) */\n      tag_356\n        /* \"contracts/libraries/Path.sol\":2033:2037  path */\n      dup5\n        /* \"contracts/libraries/Path.sol\":1928:1942  address tokenA */\n      dup3\n        /* \"contracts/libraries/Path.sol\":2033:2047  path.toAddress */\n      tag_357\n        /* \"contracts/libraries/Path.sol\":2033:2050  path.toAddress(0) */\n      jump\t// in\n    tag_356:\n        /* \"contracts/libraries/Path.sol\":2024:2050  tokenA = path.toAddress(0) */\n      swap3\n      pop\n        /* \"contracts/libraries/Path.sol\":2067:2091  path.toUint24(ADDR_SIZE) */\n      tag_358\n        /* \"contracts/libraries/Path.sol\":2067:2071  path */\n      dup5\n        /* \"contracts/libraries/Path.sol\":314:316  20 */\n      0x14\n        /* \"contracts/libraries/Path.sol\":2067:2080  path.toUint24 */\n      tag_359\n        /* \"contracts/libraries/Path.sol\":2067:2091  path.toUint24(ADDR_SIZE) */\n      jump\t// in\n    tag_358:\n        /* \"contracts/libraries/Path.sol\":2061:2091  fee = path.toUint24(ADDR_SIZE) */\n      swap1\n      pop\n        /* \"contracts/libraries/Path.sol\":2111:2138  path.toAddress(NEXT_OFFSET) */\n      tag_360\n        /* \"contracts/libraries/Path.sol\":2111:2115  path */\n      dup5\n        /* \"contracts/libraries/Path.sol\":522:542  ADDR_SIZE + FEE_SIZE */\n      0x17\n        /* \"contracts/libraries/Path.sol\":2111:2125  path.toAddress */\n      tag_357\n        /* \"contracts/libraries/Path.sol\":2111:2138  path.toAddress(NEXT_OFFSET) */\n      jump\t// in\n    tag_360:\n        /* \"contracts/libraries/Path.sol\":2102:2138  tokenB = path.toAddress(NEXT_OFFSET) */\n      swap2\n      pop\n        /* \"contracts/libraries/Path.sol\":1820:2146  function decodeFirstPool(bytes memory path)\r... */\n      swap2\n      swap4\n      swap1\n      swap3\n      pop\n      jump\t// out\n        /* \"contracts/libraries/CallbackValidation.sol\":697:963  function verifyCallback(\r... */\n    tag_269:\n        /* \"contracts/libraries/CallbackValidation.sol\":848:867  IUniswapV3Pool pool */\n      0x00\n        /* \"contracts/libraries/CallbackValidation.sol\":887:955  verifyCallback(factory, PoolAddress.getPoolKey(tokenA, tokenB, fee)) */\n      tag_362\n        /* \"contracts/libraries/CallbackValidation.sol\":902:909  factory */\n      dup6\n        /* \"contracts/libraries/CallbackValidation.sol\":911:954  PoolAddress.getPoolKey(tokenA, tokenB, fee) */\n      tag_363\n        /* \"contracts/libraries/CallbackValidation.sol\":934:940  tokenA */\n      dup7\n        /* \"contracts/libraries/CallbackValidation.sol\":942:948  tokenB */\n      dup7\n        /* \"contracts/libraries/CallbackValidation.sol\":950:953  fee */\n      dup7\n        /* \"contracts/libraries/CallbackValidation.sol\":911:933  PoolAddress.getPoolKey */\n      tag_364\n        /* \"contracts/libraries/CallbackValidation.sol\":911:954  PoolAddress.getPoolKey(tokenA, tokenB, fee) */\n      jump\t// in\n    tag_363:\n        /* \"contracts/libraries/CallbackValidation.sol\":887:901  verifyCallback */\n      tag_365\n        /* \"contracts/libraries/CallbackValidation.sol\":887:955  verifyCallback(factory, PoolAddress.getPoolKey(tokenA, tokenB, fee)) */\n      jump\t// in\n    tag_362:\n        /* \"contracts/libraries/CallbackValidation.sol\":880:955  return verifyCallback(factory, PoolAddress.getPoolKey(tokenA, tokenB, fee)) */\n      swap6\n        /* \"contracts/libraries/CallbackValidation.sol\":697:963  function verifyCallback(\r... */\n      swap5\n      pop\n      pop\n      pop\n      pop\n      pop\n      jump\t// out\n        /* \"contracts/base/PeripheryPayments.sol\":1808:2524  function pay(\r... */\n    tag_274:\n        /* \"contracts/base/PeripheryPayments.sol\":1961:1966  WETH9 */\n      immutable(\"0x4f722aad0315bc3832e551ccf6da3e098baeb8ee055023fde26c377410bf01b8\")\n      sub(shl(0xa0, 0x01), 0x01)\n        /* \"contracts/base/PeripheryPayments.sol\":1952:1966  token == WETH9 */\n      and\n        /* \"contracts/base/PeripheryPayments.sol\":1952:1957  token */\n      dup5\n      sub(shl(0xa0, 0x01), 0x01)\n        /* \"contracts/base/PeripheryPayments.sol\":1952:1966  token == WETH9 */\n      and\n      eq\n        /* \"contracts/base/PeripheryPayments.sol\":1952:2000  token == WETH9 && address(this).balance >= value */\n      dup1\n      iszero\n      tag_367\n      jumpi\n      pop\n        /* \"contracts/base/PeripheryPayments.sol\":1995:2000  value */\n      dup1\n        /* \"contracts/base/PeripheryPayments.sol\":1970:1991  address(this).balance */\n      selfbalance\n        /* \"contracts/base/PeripheryPayments.sol\":1970:2000  address(this).balance >= value */\n      lt\n      iszero\n        /* \"contracts/base/PeripheryPayments.sol\":1952:2000  token == WETH9 && address(this).balance >= value */\n    tag_367:\n        /* \"contracts/base/PeripheryPayments.sol\":1948:2517  if (token == WETH9 && address(this).balance >= value) {\r... */\n      iszero\n      tag_368\n      jumpi\n        /* \"contracts/base/PeripheryPayments.sol\":2055:2060  WETH9 */\n      immutable(\"0x4f722aad0315bc3832e551ccf6da3e098baeb8ee055023fde26c377410bf01b8\")\n      sub(shl(0xa0, 0x01), 0x01)\n        /* \"contracts/base/PeripheryPayments.sol\":2048:2069  IWETH9(WETH9).deposit */\n      and\n      0xd0e30db0\n        /* \"contracts/base/PeripheryPayments.sol\":2077:2082  value */\n      dup3\n        /* \"contracts/base/PeripheryPayments.sol\":2048:2085  IWETH9(WETH9).deposit{value: value}() */\n      mload(0x40)\n      dup3\n      0xffffffff\n      and\n      0xe0\n      shl\n      dup2\n      mstore\n      0x04\n      add\n      0x00\n      mload(0x40)\n      dup1\n      dup4\n      sub\n      dup2\n      dup6\n      dup9\n      dup1\n      extcodesize\n      iszero\n      dup1\n      iszero\n      tag_369\n      jumpi\n      0x00\n      dup1\n      revert\n    tag_369:\n      pop\n      gas\n      call\n      iszero\n      dup1\n      iszero\n      tag_371\n      jumpi\n      returndatasize\n      0x00\n      dup1\n      returndatacopy\n      revert(0x00, returndatasize)\n    tag_371:\n      pop\n      pop\n      pop\n      pop\n      pop\n        /* \"contracts/base/PeripheryPayments.sol\":2142:2147  WETH9 */\n      immutable(\"0x4f722aad0315bc3832e551ccf6da3e098baeb8ee055023fde26c377410bf01b8\")\n      sub(shl(0xa0, 0x01), 0x01)\n        /* \"contracts/base/PeripheryPayments.sol\":2135:2157  IWETH9(WETH9).transfer */\n      and\n      0xa9059cbb\n        /* \"contracts/base/PeripheryPayments.sol\":2158:2167  recipient */\n      dup4\n        /* \"contracts/base/PeripheryPayments.sol\":2169:2174  value */\n      dup4\n        /* \"contracts/base/PeripheryPayments.sol\":2135:2175  IWETH9(WETH9).transfer(recipient, value) */\n      mload(0x40)\n      dup4\n      0xffffffff\n      and\n      0xe0\n      shl\n      dup2\n      mstore\n      0x04\n      add\n      dup1\n      dup4\n      sub(shl(0xa0, 0x01), 0x01)\n      and\n      dup2\n      mstore\n      0x20\n      add\n      dup3\n      dup2\n      mstore\n      0x20\n      add\n      swap3\n      pop\n      pop\n      pop\n      0x20\n      mload(0x40)\n      dup1\n      dup4\n      sub\n      dup2\n      0x00\n      dup8\n      dup1\n      extcodesize\n      iszero\n      dup1\n      iszero\n      tag_372\n      jumpi\n      0x00\n      dup1\n      revert\n    tag_372:\n      pop\n      gas\n      call\n      iszero\n      dup1\n      iszero\n      tag_374\n      jumpi\n      returndatasize\n      0x00\n      dup1\n      returndatacopy\n      revert(0x00, returndatasize)\n    tag_374:\n      pop\n      pop\n      pop\n      pop\n      mload(0x40)\n      returndatasize\n      0x20\n      dup2\n      lt\n      iszero\n      tag_375\n      jumpi\n      0x00\n      dup1\n      revert\n    tag_375:\n      pop\n        /* \"contracts/base/PeripheryPayments.sol\":1948:2517  if (token == WETH9 && address(this).balance >= value) {\r... */\n      tag_232\n      swap1\n      pop\n      jump\n    tag_368:\n      sub(shl(0xa0, 0x01), 0x01)\n        /* \"contracts/base/PeripheryPayments.sol\":2197:2219  payer == address(this) */\n      dup4\n      and\n        /* \"contracts/base/PeripheryPayments.sol\":2214:2218  this */\n      address\n        /* \"contracts/base/PeripheryPayments.sol\":2197:2219  payer == address(this) */\n      eq\n        /* \"contracts/base/PeripheryPayments.sol\":2193:2517  if (payer == address(this)) {\r... */\n      iszero\n      tag_377\n      jumpi\n        /* \"contracts/base/PeripheryPayments.sol\":2328:2380  TransferHelper.safeTransfer(token, recipient, value) */\n      tag_378\n        /* \"contracts/base/PeripheryPayments.sol\":2356:2361  token */\n      dup5\n        /* \"contracts/base/PeripheryPayments.sol\":2363:2372  recipient */\n      dup4\n        /* \"contracts/base/PeripheryPayments.sol\":2374:2379  value */\n      dup4\n        /* \"contracts/base/PeripheryPayments.sol\":2328:2355  TransferHelper.safeTransfer */\n      tag_233\n        /* \"contracts/base/PeripheryPayments.sol\":2328:2380  TransferHelper.safeTransfer(token, recipient, value) */\n      jump\t// in\n    tag_378:\n        /* \"contracts/base/PeripheryPayments.sol\":2193:2517  if (payer == address(this)) {\r... */\n      jump(tag_232)\n    tag_377:\n        /* \"contracts/base/PeripheryPayments.sol\":2442:2505  TransferHelper.safeTransferFrom(token, payer, recipient, value) */\n      tag_232\n        /* \"contracts/base/PeripheryPayments.sol\":2474:2479  token */\n      dup5\n        /* \"contracts/base/PeripheryPayments.sol\":2481:2486  payer */\n      dup5\n        /* \"contracts/base/PeripheryPayments.sol\":2488:2497  recipient */\n      dup5\n        /* \"contracts/base/PeripheryPayments.sol\":2499:2504  value */\n      dup5\n        /* \"contracts/base/PeripheryPayments.sol\":2442:2473  TransferHelper.safeTransferFrom */\n      tag_381\n        /* \"contracts/base/PeripheryPayments.sol\":2442:2505  TransferHelper.safeTransferFrom(token, payer, recipient, value) */\n      jump\t// in\n        /* \"contracts/SwapRouter.sol\":1644:1899  function getPool(\r... */\n    tag_297:\n        /* \"contracts/SwapRouter.sol\":1761:1775  IUniswapV3Pool */\n      0x00\n        /* \"contracts/SwapRouter.sol\":1810:1890  PoolAddress.computeAddress(factory, PoolAddress.getPoolKey(tokenA, tokenB, fee)) */\n      tag_383\n        /* \"contracts/SwapRouter.sol\":1837:1844  factory */\n      immutable(\"0x1dda9873baa24e5dc3a48371aa5a89ce85f19f9dd041db3ba184e623299b8433\")\n        /* \"contracts/SwapRouter.sol\":1846:1889  PoolAddress.getPoolKey(tokenA, tokenB, fee) */\n      tag_384\n        /* \"contracts/SwapRouter.sol\":1869:1875  tokenA */\n      dup7\n        /* \"contracts/SwapRouter.sol\":1877:1883  tokenB */\n      dup7\n        /* \"contracts/SwapRouter.sol\":1885:1888  fee */\n      dup7\n        /* \"contracts/SwapRouter.sol\":1846:1868  PoolAddress.getPoolKey */\n      tag_364\n        /* \"contracts/SwapRouter.sol\":1846:1889  PoolAddress.getPoolKey(tokenA, tokenB, fee) */\n      jump\t// in\n    tag_384:\n        /* \"contracts/SwapRouter.sol\":1810:1836  PoolAddress.computeAddress */\n      tag_385\n        /* \"contracts/SwapRouter.sol\":1810:1890  PoolAddress.computeAddress(factory, PoolAddress.getPoolKey(tokenA, tokenB, fee)) */\n      jump\t// in\n    tag_383:\n        /* \"contracts/SwapRouter.sol\":1788:1891  return IUniswapV3Pool(PoolAddress.computeAddress(factory, PoolAddress.getPoolKey(tokenA, tokenB, fee))) */\n      swap5\n        /* \"contracts/SwapRouter.sol\":1644:1899  function getPool(\r... */\n      swap4\n      pop\n      pop\n      pop\n      pop\n      jump\t// out\n        /* \"@thinkincoin-libs/uniswap-v3-core/contracts/libraries/SafeCast.sol\":924:1045  function toInt256(uint256 y) internal pure returns (int256 z) {... */\n    tag_299:\n        /* \"@thinkincoin-libs/uniswap-v3-core/contracts/libraries/SafeCast.sol\":976:984  int256 z */\n      0x00\n      shl(0xff, 0x01)\n        /* \"@thinkincoin-libs/uniswap-v3-core/contracts/libraries/SafeCast.sol\":1004:1005  y */\n      dup3\n        /* \"@thinkincoin-libs/uniswap-v3-core/contracts/libraries/SafeCast.sol\":1004:1014  y < 2**255 */\n      lt\n        /* \"@thinkincoin-libs/uniswap-v3-core/contracts/libraries/SafeCast.sol\":996:1015  require(y < 2**255) */\n      tag_387\n      jumpi\n      0x00\n      dup1\n      revert\n    tag_387:\n      pop\n        /* \"@thinkincoin-libs/uniswap-v3-core/contracts/libraries/SafeCast.sol\":1036:1037  y */\n      swap1\n        /* \"@thinkincoin-libs/uniswap-v3-core/contracts/libraries/SafeCast.sol\":924:1045  function toInt256(uint256 y) internal pure returns (int256 z) {... */\n      jump\t// out\n        /* \"contracts/libraries/BytesLib.sol\":410:3481  function slice(\r... */\n    tag_322:\n        /* \"contracts/libraries/BytesLib.sol\":536:548  bytes memory */\n      0x60\n        /* \"contracts/libraries/BytesLib.sol\":585:592  _length */\n      dup2\n        /* \"contracts/libraries/BytesLib.sol\":569:576  _length */\n      dup3\n        /* \"contracts/libraries/BytesLib.sol\":579:581  31 */\n      0x1f\n        /* \"contracts/libraries/BytesLib.sol\":569:581  _length + 31 */\n      add\n        /* \"contracts/libraries/BytesLib.sol\":569:592  _length + 31 >= _length */\n      lt\n      iszero\n        /* \"contracts/libraries/BytesLib.sol\":561:611  require(_length + 31 >= _length, 'slice_overflow') */\n      tag_389\n      jumpi\n      0x40\n      dup1\n      mload\n      shl(0xe5, 0x461bcd)\n      dup2\n      mstore\n      0x20\n      0x04\n      dup3\n      add\n      mstore\n      0x0e\n      0x24\n      dup3\n      add\n      mstore\n      shl(0x90, 0x736c6963655f6f766572666c6f77)\n      0x44\n      dup3\n      add\n      mstore\n      swap1\n      mload\n      swap1\n      dup2\n      swap1\n      sub\n      0x64\n      add\n      swap1\n      revert\n    tag_389:\n        /* \"contracts/libraries/BytesLib.sol\":650:656  _start */\n      dup3\n        /* \"contracts/libraries/BytesLib.sol\":639:646  _length */\n      dup3\n        /* \"contracts/libraries/BytesLib.sol\":630:636  _start */\n      dup5\n        /* \"contracts/libraries/BytesLib.sol\":630:646  _start + _length */\n      add\n        /* \"contracts/libraries/BytesLib.sol\":630:656  _start + _length >= _start */\n      lt\n      iszero\n        /* \"contracts/libraries/BytesLib.sol\":622:675  require(_start + _length >= _start, 'slice_overflow') */\n      tag_390\n      jumpi\n      0x40\n      dup1\n      mload\n      shl(0xe5, 0x461bcd)\n      dup2\n      mstore\n      0x20\n      0x04\n      dup3\n      add\n      mstore\n      0x0e\n      0x24\n      dup3\n      add\n      mstore\n      shl(0x90, 0x736c6963655f6f766572666c6f77)\n      0x44\n      dup3\n      add\n      mstore\n      swap1\n      mload\n      swap1\n      dup2\n      swap1\n      sub\n      0x64\n      add\n      swap1\n      revert\n    tag_390:\n        /* \"contracts/libraries/BytesLib.sol\":720:727  _length */\n      dup2\n        /* \"contracts/libraries/BytesLib.sol\":711:717  _start */\n      dup4\n        /* \"contracts/libraries/BytesLib.sol\":711:727  _start + _length */\n      add\n        /* \"contracts/libraries/BytesLib.sol\":694:700  _bytes */\n      dup5\n        /* \"contracts/libraries/BytesLib.sol\":694:707  _bytes.length */\n      mload\n        /* \"contracts/libraries/BytesLib.sol\":694:727  _bytes.length >= _start + _length */\n      lt\n      iszero\n        /* \"contracts/libraries/BytesLib.sol\":686:749  require(_bytes.length >= _start + _length, 'slice_outOfBounds') */\n      tag_391\n      jumpi\n      0x40\n      dup1\n      mload\n      shl(0xe5, 0x461bcd)\n      dup2\n      mstore\n      0x20\n      0x04\n      dup3\n      add\n      mstore\n      0x11\n      0x24\n      dup3\n      add\n      mstore\n      shl(0x78, 0x736c6963655f6f75744f66426f756e6473)\n      0x44\n      dup3\n      add\n      mstore\n      swap1\n      mload\n      swap1\n      dup2\n      swap1\n      sub\n      0x64\n      add\n      swap1\n      revert\n    tag_391:\n        /* \"contracts/libraries/BytesLib.sol\":762:784  bytes memory tempBytes */\n      0x60\n        /* \"contracts/libraries/BytesLib.sol\":828:843  iszero(_length) */\n      dup3\n      iszero\n        /* \"contracts/libraries/BytesLib.sol\":861:2998  case 0 {\r... */\n      dup1\n      iszero\n      tag_393\n      jumpi\n        /* \"contracts/libraries/BytesLib.sol\":3154:3158  0x40 */\n      0x40\n        /* \"contracts/libraries/BytesLib.sol\":3148:3159  mload(0x40) */\n      mload\n        /* \"contracts/libraries/BytesLib.sol\":3135:3159  tempBytes := mload(0x40) */\n      swap2\n      pop\n        /* \"contracts/libraries/BytesLib.sol\":3355:3356  0 */\n      0x00\n        /* \"contracts/libraries/BytesLib.sol\":3344:3353  tempBytes */\n      dup3\n        /* \"contracts/libraries/BytesLib.sol\":3337:3357  mstore(tempBytes, 0) */\n      mstore\n        /* \"contracts/libraries/BytesLib.sol\":3409:3413  0x20 */\n      0x20\n        /* \"contracts/libraries/BytesLib.sol\":3398:3407  tempBytes */\n      dup3\n        /* \"contracts/libraries/BytesLib.sol\":3394:3414  add(tempBytes, 0x20) */\n      add\n        /* \"contracts/libraries/BytesLib.sol\":3388:3392  0x40 */\n      0x40\n        /* \"contracts/libraries/BytesLib.sol\":3381:3415  mstore(0x40, add(tempBytes, 0x20)) */\n      mstore\n        /* \"contracts/libraries/BytesLib.sol\":821:3434  switch iszero(_length)\r... */\n      jump(tag_392)\n        /* \"contracts/libraries/BytesLib.sol\":861:2998  case 0 {\r... */\n    tag_393:\n        /* \"contracts/libraries/BytesLib.sol\":1058:1062  0x40 */\n      0x40\n        /* \"contracts/libraries/BytesLib.sol\":1052:1063  mload(0x40) */\n      mload\n        /* \"contracts/libraries/BytesLib.sol\":1039:1063  tempBytes := mload(0x40) */\n      swap2\n      pop\n        /* \"contracts/libraries/BytesLib.sol\":1763:1765  31 */\n      0x1f\n        /* \"contracts/libraries/BytesLib.sol\":1754:1761  _length */\n      dup5\n        /* \"contracts/libraries/BytesLib.sol\":1750:1766  and(_length, 31) */\n      and\n        /* \"contracts/libraries/BytesLib.sol\":2171:2180  lengthmod */\n      dup1\n        /* \"contracts/libraries/BytesLib.sol\":2164:2181  iszero(lengthmod) */\n      iszero\n        /* \"contracts/libraries/BytesLib.sol\":2158:2162  0x20 */\n      0x20\n        /* \"contracts/libraries/BytesLib.sol\":2154:2182  mul(0x20, iszero(lengthmod)) */\n      mul\n        /* \"contracts/libraries/BytesLib.sol\":2142:2151  lengthmod */\n      dup2\n        /* \"contracts/libraries/BytesLib.sol\":2131:2140  tempBytes */\n      dup5\n        /* \"contracts/libraries/BytesLib.sol\":2127:2152  add(tempBytes, lengthmod) */\n      add\n        /* \"contracts/libraries/BytesLib.sol\":2123:2183  add(add(tempBytes, lengthmod), mul(0x20, iszero(lengthmod))) */\n      add\n        /* \"contracts/libraries/BytesLib.sol\":2224:2231  _length */\n      dup6\n        /* \"contracts/libraries/BytesLib.sol\":2220:2222  mc */\n      dup2\n        /* \"contracts/libraries/BytesLib.sol\":2216:2232  add(mc, _length) */\n      add\n        /* \"contracts/libraries/BytesLib.sol\":2497:2503  _start */\n      dup8\n        /* \"contracts/libraries/BytesLib.sol\":2483:2492  lengthmod */\n      dup4\n        /* \"contracts/libraries/BytesLib.sol\":2476:2493  iszero(lengthmod) */\n      iszero\n        /* \"contracts/libraries/BytesLib.sol\":2470:2474  0x20 */\n      0x20\n        /* \"contracts/libraries/BytesLib.sol\":2466:2494  mul(0x20, iszero(lengthmod)) */\n      mul\n        /* \"contracts/libraries/BytesLib.sol\":2454:2463  lengthmod */\n      dup5\n        /* \"contracts/libraries/BytesLib.sol\":2446:2452  _bytes */\n      dup12\n        /* \"contracts/libraries/BytesLib.sol\":2442:2464  add(_bytes, lengthmod) */\n      add\n        /* \"contracts/libraries/BytesLib.sol\":2438:2495  add(add(_bytes, lengthmod), mul(0x20, iszero(lengthmod))) */\n      add\n        /* \"contracts/libraries/BytesLib.sol\":2434:2504  add(add(add(_bytes, lengthmod), mul(0x20, iszero(lengthmod))), _start) */\n      add\n        /* \"contracts/libraries/BytesLib.sol\":2256:2726  for {\r... */\n    tag_394:\n        /* \"contracts/libraries/BytesLib.sol\":2535:2538  end */\n      dup2\n        /* \"contracts/libraries/BytesLib.sol\":2531:2533  mc */\n      dup4\n        /* \"contracts/libraries/BytesLib.sol\":2528:2539  lt(mc, end) */\n      lt\n        /* \"contracts/libraries/BytesLib.sol\":2256:2726  for {\r... */\n      iszero\n      tag_396\n      jumpi\n        /* \"contracts/libraries/BytesLib.sol\":2693:2702  mload(cc) */\n      dup1\n      mload\n        /* \"contracts/libraries/BytesLib.sol\":2682:2703  mstore(mc, mload(cc)) */\n      dup4\n      mstore\n        /* \"contracts/libraries/BytesLib.sol\":2581:2585  0x20 */\n      0x20\n        /* \"contracts/libraries/BytesLib.sol\":2573:2586  add(mc, 0x20) */\n      swap3\n      dup4\n      add\n      swap3\n        /* \"contracts/libraries/BytesLib.sol\":2618:2631  add(cc, 0x20) */\n      add\n        /* \"contracts/libraries/BytesLib.sol\":2256:2726  for {\r... */\n      jump(tag_394)\n    tag_396:\n      pop\n      pop\n        /* \"contracts/libraries/BytesLib.sol\":2750:2776  mstore(tempBytes, _length) */\n      dup6\n      dup5\n      mstore\n        /* \"contracts/libraries/BytesLib.sol\":2974:2976  31 */\n      0x1f\n        /* \"contracts/libraries/BytesLib.sol\":2957:2968  add(mc, 31) */\n      add\n      not(0x1f)\n        /* \"contracts/libraries/BytesLib.sol\":2953:2978  and(add(mc, 31), not(31)) */\n      and\n        /* \"contracts/libraries/BytesLib.sol\":2947:2951  0x40 */\n      0x40\n        /* \"contracts/libraries/BytesLib.sol\":2940:2979  mstore(0x40, and(add(mc, 31), not(31))) */\n      mstore\n      pop\n        /* \"contracts/libraries/BytesLib.sol\":821:3434  switch iszero(_length)\r... */\n    tag_392:\n      pop\n        /* \"contracts/libraries/BytesLib.sol\":3464:3473  tempBytes */\n      swap5\n        /* \"contracts/libraries/BytesLib.sol\":410:3481  function slice(\r... */\n      swap4\n      pop\n      pop\n      pop\n      pop\n      jump\t// out\n        /* \"contracts/libraries/BytesLib.sol\":3489:3915  function toAddress(bytes memory _bytes, uint256 _start) internal pure returns (address) {\r... */\n    tag_357:\n        /* \"contracts/libraries/BytesLib.sol\":3568:3575  address */\n      0x00\n        /* \"contracts/libraries/BytesLib.sol\":3611:3617  _start */\n      dup2\n        /* \"contracts/libraries/BytesLib.sol\":3596:3602  _start */\n      dup3\n        /* \"contracts/libraries/BytesLib.sol\":3605:3607  20 */\n      0x14\n        /* \"contracts/libraries/BytesLib.sol\":3596:3607  _start + 20 */\n      add\n        /* \"contracts/libraries/BytesLib.sol\":3596:3617  _start + 20 >= _start */\n      lt\n      iszero\n        /* \"contracts/libraries/BytesLib.sol\":3588:3640  require(_start + 20 >= _start, 'toAddress_overflow') */\n      tag_398\n      jumpi\n      0x40\n      dup1\n      mload\n      shl(0xe5, 0x461bcd)\n      dup2\n      mstore\n      0x20\n      0x04\n      dup3\n      add\n      mstore\n      0x12\n      0x24\n      dup3\n      add\n      mstore\n      shl(0x70, 0x746f416464726573735f6f766572666c6f77)\n      0x44\n      dup3\n      add\n      mstore\n      swap1\n      mload\n      swap1\n      dup2\n      swap1\n      sub\n      0x64\n      add\n      swap1\n      revert\n    tag_398:\n        /* \"contracts/libraries/BytesLib.sol\":3676:3682  _start */\n      dup2\n        /* \"contracts/libraries/BytesLib.sol\":3685:3687  20 */\n      0x14\n        /* \"contracts/libraries/BytesLib.sol\":3676:3687  _start + 20 */\n      add\n        /* \"contracts/libraries/BytesLib.sol\":3659:3665  _bytes */\n      dup4\n        /* \"contracts/libraries/BytesLib.sol\":3659:3672  _bytes.length */\n      mload\n        /* \"contracts/libraries/BytesLib.sol\":3659:3687  _bytes.length >= _start + 20 */\n      lt\n      iszero\n        /* \"contracts/libraries/BytesLib.sol\":3651:3713  require(_bytes.length >= _start + 20, 'toAddress_outOfBounds') */\n      tag_399\n      jumpi\n      0x40\n      dup1\n      mload\n      shl(0xe5, 0x461bcd)\n      dup2\n      mstore\n      0x20\n      0x04\n      dup3\n      add\n      mstore\n      0x15\n      0x24\n      dup3\n      add\n      mstore\n      shl(0x58, 0x746f416464726573735f6f75744f66426f756e6473)\n      0x44\n      dup3\n      add\n      mstore\n      swap1\n      mload\n      swap1\n      dup2\n      swap1\n      sub\n      0x64\n      add\n      swap1\n      revert\n    tag_399:\n      pop\n        /* \"contracts/libraries/BytesLib.sol\":3805:3835  add(add(_bytes, 0x20), _start) */\n      add\n        /* \"contracts/libraries/BytesLib.sol\":3821:3825  0x20 */\n      0x20\n        /* \"contracts/libraries/BytesLib.sol\":3805:3835  add(add(_bytes, 0x20), _start) */\n      add\n        /* \"contracts/libraries/BytesLib.sol\":3799:3836  mload(add(add(_bytes, 0x20), _start)) */\n      mload\n      shl(0x60, 0x01)\n        /* \"contracts/libraries/BytesLib.sol\":3795:3866  div(mload(add(add(_bytes, 0x20), _start)), 0x1000000000000000000000000) */\n      swap1\n      div\n      swap1\n        /* \"contracts/libraries/BytesLib.sol\":3489:3915  function toAddress(bytes memory _bytes, uint256 _start) internal pure returns (address) {\r... */\n      jump\t// out\n        /* \"contracts/libraries/BytesLib.sol\":3923:4298  function toUint24(bytes memory _bytes, uint256 _start) internal pure returns (uint24) {\r... */\n    tag_359:\n        /* \"contracts/libraries/BytesLib.sol\":4001:4007  uint24 */\n      0x00\n        /* \"contracts/libraries/BytesLib.sol\":4042:4048  _start */\n      dup2\n        /* \"contracts/libraries/BytesLib.sol\":4028:4034  _start */\n      dup3\n        /* \"contracts/libraries/BytesLib.sol\":4037:4038  3 */\n      0x03\n        /* \"contracts/libraries/BytesLib.sol\":4028:4038  _start + 3 */\n      add\n        /* \"contracts/libraries/BytesLib.sol\":4028:4048  _start + 3 >= _start */\n      lt\n      iszero\n        /* \"contracts/libraries/BytesLib.sol\":4020:4070  require(_start + 3 >= _start, 'toUint24_overflow') */\n      tag_401\n      jumpi\n      0x40\n      dup1\n      mload\n      shl(0xe5, 0x461bcd)\n      dup2\n      mstore\n      0x20\n      0x04\n      dup3\n      add\n      mstore\n      0x11\n      0x24\n      dup3\n      add\n      mstore\n      shl(0x78, 0x746f55696e7432345f6f766572666c6f77)\n      0x44\n      dup3\n      add\n      mstore\n      swap1\n      mload\n      swap1\n      dup2\n      swap1\n      sub\n      0x64\n      add\n      swap1\n      revert\n    tag_401:\n        /* \"contracts/libraries/BytesLib.sol\":4106:4112  _start */\n      dup2\n        /* \"contracts/libraries/BytesLib.sol\":4115:4116  3 */\n      0x03\n        /* \"contracts/libraries/BytesLib.sol\":4106:4116  _start + 3 */\n      add\n        /* \"contracts/libraries/BytesLib.sol\":4089:4095  _bytes */\n      dup4\n        /* \"contracts/libraries/BytesLib.sol\":4089:4102  _bytes.length */\n      mload\n        /* \"contracts/libraries/BytesLib.sol\":4089:4116  _bytes.length >= _start + 3 */\n      lt\n      iszero\n        /* \"contracts/libraries/BytesLib.sol\":4081:4141  require(_bytes.length >= _start + 3, 'toUint24_outOfBounds') */\n      tag_402\n      jumpi\n      0x40\n      dup1\n      mload\n      shl(0xe5, 0x461bcd)\n      dup2\n      mstore\n      0x20\n      0x04\n      dup3\n      add\n      mstore\n      0x14\n      0x24\n      dup3\n      add\n      mstore\n      shl(0x60, 0x746f55696e7432345f6f75744f66426f756e6473)\n      0x44\n      dup3\n      add\n      mstore\n      swap1\n      mload\n      swap1\n      dup2\n      swap1\n      sub\n      0x64\n      add\n      swap1\n      revert\n    tag_402:\n      pop\n        /* \"contracts/libraries/BytesLib.sol\":4222:4251  add(add(_bytes, 0x3), _start) */\n      add\n        /* \"contracts/libraries/BytesLib.sol\":4238:4241  0x3 */\n      0x03\n        /* \"contracts/libraries/BytesLib.sol\":4222:4251  add(add(_bytes, 0x3), _start) */\n      add\n        /* \"contracts/libraries/BytesLib.sol\":4216:4252  mload(add(add(_bytes, 0x3), _start)) */\n      mload\n      swap1\n        /* \"contracts/libraries/BytesLib.sol\":3923:4298  function toUint24(bytes memory _bytes, uint256 _start) internal pure returns (uint24) {\r... */\n      jump\t// out\n        /* \"contracts/libraries/PoolAddress.sol\":803:1084  function getPoolKey(\r... */\n    tag_364:\n        /* \"contracts/libraries/PoolAddress.sol\":924:938  PoolKey memory */\n      tag_403\n      tag_404\n      jump\t// in\n    tag_403:\n        /* \"contracts/libraries/PoolAddress.sol\":964:970  tokenB */\n      dup3\n      sub(shl(0xa0, 0x01), 0x01)\n        /* \"contracts/libraries/PoolAddress.sol\":955:970  tokenA > tokenB */\n      and\n        /* \"contracts/libraries/PoolAddress.sol\":955:961  tokenA */\n      dup5\n      sub(shl(0xa0, 0x01), 0x01)\n        /* \"contracts/libraries/PoolAddress.sol\":955:970  tokenA > tokenB */\n      and\n      gt\n        /* \"contracts/libraries/PoolAddress.sol\":951:1007  if (tokenA > tokenB) (tokenA, tokenB) = (tokenB, tokenA) */\n      iszero\n      tag_406\n      jumpi\n        /* \"contracts/libraries/PoolAddress.sol\":992:998  tokenB */\n      swap2\n      swap3\n        /* \"contracts/libraries/PoolAddress.sol\":1000:1006  tokenA */\n      swap2\n        /* \"contracts/libraries/PoolAddress.sol\":951:1007  if (tokenA > tokenB) (tokenA, tokenB) = (tokenB, tokenA) */\n    tag_406:\n      pop\n        /* \"contracts/libraries/PoolAddress.sol\":1025:1076  PoolKey({token0: tokenA, token1: tokenB, fee: fee}) */\n      0x40\n      dup1\n      mload\n      0x60\n      dup2\n      add\n      dup3\n      mstore\n      sub(shl(0xa0, 0x01), 0x01)\n      swap5\n      dup6\n      and\n      dup2\n      mstore\n      swap3\n      swap1\n      swap4\n      and\n      0x20\n      dup4\n      add\n      mstore\n      0xffffff\n      and\n      swap2\n      dup2\n      add\n      swap2\n      swap1\n      swap2\n      mstore\n      swap1\n        /* \"contracts/libraries/PoolAddress.sol\":803:1084  function getPoolKey(\r... */\n      jump\t// out\n        /* \"contracts/libraries/CallbackValidation.sol\":1216:1502  function verifyCallback(address factory, PoolAddress.PoolKey memory poolKey)\r... */\n    tag_365:\n        /* \"contracts/libraries/CallbackValidation.sol\":1343:1362  IUniswapV3Pool pool */\n      0x00\n        /* \"contracts/libraries/CallbackValidation.sol\":1402:1446  PoolAddress.computeAddress(factory, poolKey) */\n      tag_408\n        /* \"contracts/libraries/CallbackValidation.sol\":1429:1436  factory */\n      dup4\n        /* \"contracts/libraries/CallbackValidation.sol\":1438:1445  poolKey */\n      dup4\n        /* \"contracts/libraries/CallbackValidation.sol\":1402:1428  PoolAddress.computeAddress */\n      tag_385\n        /* \"contracts/libraries/CallbackValidation.sol\":1402:1446  PoolAddress.computeAddress(factory, poolKey) */\n      jump\t// in\n    tag_408:\n        /* \"contracts/libraries/CallbackValidation.sol\":1380:1447  pool = IUniswapV3Pool(PoolAddress.computeAddress(factory, poolKey)) */\n      swap1\n      pop\n        /* \"contracts/libraries/CallbackValidation.sol\":1466:1476  msg.sender */\n      caller\n      sub(shl(0xa0, 0x01), 0x01)\n        /* \"contracts/libraries/CallbackValidation.sol\":1466:1493  msg.sender == address(pool) */\n      dup3\n      and\n      eq\n        /* \"contracts/libraries/CallbackValidation.sol\":1458:1494  require(msg.sender == address(pool)) */\n      tag_318\n      jumpi\n      0x00\n      dup1\n      revert\n        /* \"contracts/libraries/TransferHelper.sol\":573:940  function safeTransferFrom(\r... */\n    tag_381:\n        /* \"contracts/libraries/TransferHelper.sol\":778:847  abi.encodeWithSelector(IERC20.transferFrom.selector, from, to, value) */\n      0x40\n      dup1\n      mload\n      sub(shl(0xa0, 0x01), 0x01)\n      dup6\n      dup2\n      and\n      0x24\n      dup4\n      add\n      mstore\n      dup5\n      dup2\n      and\n      0x44\n      dup4\n      add\n      mstore\n      0x64\n      dup1\n      dup4\n      add\n      dup6\n      swap1\n      mstore\n      dup4\n      mload\n      dup1\n      dup5\n      sub\n      swap1\n      swap2\n      add\n      dup2\n      mstore\n      0x84\n      swap1\n      swap3\n      add\n      dup4\n      mstore\n      0x20\n      dup3\n      add\n      dup1\n      mload\n      sub(shl(0xe0, 0x01), 0x01)\n      and\n      shl(0xe0, 0x23b872dd)\n      or\n      dup2\n      mstore\n        /* \"contracts/libraries/TransferHelper.sol\":767:848  token.call(abi.encodeWithSelector(IERC20.transferFrom.selector, from, to, value)) */\n      swap3\n      mload\n      dup3\n      mload\n        /* \"contracts/libraries/TransferHelper.sol\":719:731  bool success */\n      0x00\n      swap5\n      dup6\n      swap5\n        /* \"contracts/libraries/TransferHelper.sol\":767:777  token.call */\n      swap4\n      dup11\n      and\n      swap4\n        /* \"contracts/libraries/TransferHelper.sol\":778:847  abi.encodeWithSelector(IERC20.transferFrom.selector, from, to, value) */\n      swap3\n        /* \"contracts/libraries/TransferHelper.sol\":767:848  token.call(abi.encodeWithSelector(IERC20.transferFrom.selector, from, to, value)) */\n      swap2\n      dup3\n      swap2\n        /* \"contracts/libraries/TransferHelper.sol\":778:847  abi.encodeWithSelector(IERC20.transferFrom.selector, from, to, value) */\n      swap1\n        /* \"contracts/libraries/TransferHelper.sol\":767:848  token.call(abi.encodeWithSelector(IERC20.transferFrom.selector, from, to, value)) */\n      dup1\n      dup4\n        /* \"contracts/libraries/TransferHelper.sol\":778:847  abi.encodeWithSelector(IERC20.transferFrom.selector, from, to, value) */\n      dup4\n        /* \"contracts/libraries/TransferHelper.sol\":767:848  token.call(abi.encodeWithSelector(IERC20.transferFrom.selector, from, to, value)) */\n    tag_411:\n      0x20\n      dup4\n      lt\n      tag_413\n      jumpi\n      dup1\n      mload\n      dup3\n      mstore\n      not(0x1f)\n      swap1\n      swap3\n      add\n      swap2\n      0x20\n      swap2\n      dup3\n      add\n      swap2\n      add\n      jump(tag_411)\n    tag_413:\n      0x01\n      dup4\n      0x20\n      sub\n      0x0100\n      exp\n      sub\n      dup1\n      not\n      dup3\n      mload\n      and\n      dup2\n      dup5\n      mload\n      and\n      dup1\n      dup3\n      or\n      dup6\n      mstore\n      pop\n      pop\n      pop\n      pop\n      pop\n      pop\n      swap1\n      pop\n      add\n      swap2\n      pop\n      pop\n      0x00\n      mload(0x40)\n      dup1\n      dup4\n      sub\n      dup2\n      0x00\n      dup7\n      gas\n      call\n      swap2\n      pop\n      pop\n      returndatasize\n      dup1\n      0x00\n      dup2\n      eq\n      tag_416\n      jumpi\n      mload(0x40)\n      swap2\n      pop\n      and(add(returndatasize, 0x3f), not(0x1f))\n      dup3\n      add\n      0x40\n      mstore\n      returndatasize\n      dup3\n      mstore\n      returndatasize\n      0x00\n      0x20\n      dup5\n      add\n      returndatacopy\n      jump(tag_415)\n    tag_416:\n      0x60\n      swap2\n      pop\n    tag_415:\n      pop\n        /* \"contracts/libraries/TransferHelper.sol\":718:848  (bool success, bytes memory data) =\r... */\n      swap2\n      pop\n      swap2\n      pop\n        /* \"contracts/libraries/TransferHelper.sol\":867:874  success */\n      dup2\n        /* \"contracts/libraries/TransferHelper.sol\":867:924  success && (data.length == 0 || abi.decode(data, (bool))) */\n      dup1\n      iszero\n      tag_418\n      jumpi\n      pop\n        /* \"contracts/libraries/TransferHelper.sol\":879:890  data.length */\n      dup1\n      mload\n        /* \"contracts/libraries/TransferHelper.sol\":879:895  data.length == 0 */\n      iszero\n      dup1\n        /* \"contracts/libraries/TransferHelper.sol\":879:923  data.length == 0 || abi.decode(data, (bool)) */\n      tag_418\n      jumpi\n      pop\n        /* \"contracts/libraries/TransferHelper.sol\":910:914  data */\n      dup1\n        /* \"contracts/libraries/TransferHelper.sol\":899:923  abi.decode(data, (bool)) */\n      dup1\n      0x20\n      add\n      swap1\n      mload\n      0x20\n      dup2\n      lt\n      iszero\n      tag_419\n      jumpi\n      0x00\n      dup1\n      revert\n    tag_419:\n      pop\n      mload\n        /* \"contracts/libraries/TransferHelper.sol\":879:923  data.length == 0 || abi.decode(data, (bool)) */\n    tag_418:\n        /* \"contracts/libraries/TransferHelper.sol\":859:932  require(success && (data.length == 0 || abi.decode(data, (bool))), 'STF') */\n      tag_154\n      jumpi\n      0x40\n      dup1\n      mload\n      shl(0xe5, 0x461bcd)\n      dup2\n      mstore\n      0x20\n      0x04\n      dup3\n      add\n      mstore\n      0x03\n      0x24\n      dup3\n      add\n      mstore\n      shl(0xe9, 0x29aa23)\n      0x44\n      dup3\n      add\n      mstore\n      swap1\n      mload\n      swap1\n      dup2\n      swap1\n      sub\n      0x64\n      add\n      swap1\n      revert\n        /* \"contracts/libraries/PoolAddress.sol\":1337:1863  function computeAddress(address factory, PoolKey memory key) internal pure returns (address pool) {\r... */\n    tag_385:\n        /* \"contracts/libraries/PoolAddress.sol\":1421:1433  address pool */\n      0x00\n        /* \"contracts/libraries/PoolAddress.sol\":1467:1470  key */\n      dup2\n        /* \"contracts/libraries/PoolAddress.sol\":1467:1477  key.token1 */\n      0x20\n      add\n      mload\n      sub(shl(0xa0, 0x01), 0x01)\n        /* \"contracts/libraries/PoolAddress.sol\":1454:1477  key.token0 < key.token1 */\n      and\n        /* \"contracts/libraries/PoolAddress.sol\":1454:1457  key */\n      dup3\n        /* \"contracts/libraries/PoolAddress.sol\":1454:1464  key.token0 */\n      0x00\n      add\n      mload\n      sub(shl(0xa0, 0x01), 0x01)\n        /* \"contracts/libraries/PoolAddress.sol\":1454:1477  key.token0 < key.token1 */\n      and\n      lt\n        /* \"contracts/libraries/PoolAddress.sol\":1446:1478  require(key.token0 < key.token1) */\n      tag_422\n      jumpi\n      0x00\n      dup1\n      revert\n    tag_422:\n      pop\n        /* \"contracts/libraries/PoolAddress.sol\":1708:1718  key.token0 */\n      dup1\n      mload\n        /* \"contracts/libraries/PoolAddress.sol\":1720:1730  key.token1 */\n      0x20\n      dup1\n      dup4\n      add\n      mload\n        /* \"contracts/libraries/PoolAddress.sol\":1732:1739  key.fee */\n      0x40\n      swap4\n      dup5\n      add\n      mload\n        /* \"contracts/libraries/PoolAddress.sol\":1697:1740  abi.encode(key.token0, key.token1, key.fee) */\n      dup5\n      mload\n      sub(shl(0xa0, 0x01), 0x01)\n      swap5\n      dup6\n      and\n      dup2\n      dup6\n      add\n      mstore\n      swap4\n      swap1\n      swap2\n      and\n      dup4\n      dup6\n      add\n      mstore\n      0xffffff\n      and\n      0x60\n      dup1\n      dup5\n      add\n      swap2\n      swap1\n      swap2\n      mstore\n      dup4\n      mload\n      dup1\n      dup5\n      sub\n      dup3\n      add\n      dup2\n      mstore\n      0x80\n      dup5\n      add\n      dup6\n      mstore\n        /* \"contracts/libraries/PoolAddress.sol\":1687:1741  keccak256(abi.encode(key.token0, key.token1, key.fee)) */\n      dup1\n      mload\n      swap1\n      dup4\n      add\n      keccak256\n      not(sub(shl(0xf8, 0x01), 0x01))\n        /* \"contracts/libraries/PoolAddress.sol\":1576:1810  abi.encodePacked(\r... */\n      0xa0\n      dup6\n      add\n      mstore\n      swap5\n      swap1\n      shl\n      not(0xffffffffffffffffffffffff)\n      and\n      0xa1\n      dup4\n      add\n      mstore\n      0xb5\n      dup3\n      add\n      swap4\n      swap1\n      swap4\n      mstore\n        /* \"contracts/libraries/PoolAddress.sol\":246:312  0xe34f199b19b2b4f47f68442619d555527d244f78a3297ea89325f843f87b8b54 */\n      0xe34f199b19b2b4f47f68442619d555527d244f78a3297ea89325f843f87b8b54\n        /* \"contracts/libraries/PoolAddress.sol\":1576:1810  abi.encodePacked(\r... */\n      0xd5\n      dup1\n      dup4\n      add\n      swap2\n      swap1\n      swap2\n      mstore\n      dup3\n      mload\n      dup1\n      dup4\n      sub\n      swap1\n      swap2\n      add\n      dup2\n      mstore\n      0xf5\n      swap1\n      swap2\n      add\n      swap1\n      swap2\n      mstore\n        /* \"contracts/libraries/PoolAddress.sol\":1544:1829  keccak256(\r... */\n      dup1\n      mload\n      swap2\n      add\n      keccak256\n      swap1\n        /* \"contracts/libraries/PoolAddress.sol\":1337:1863  function computeAddress(address factory, PoolKey memory key) internal pure returns (address pool) {\r... */\n      jump\t// out\n    tag_404:\n      0x40\n      dup1\n      mload\n      0x60\n      dup2\n      add\n      dup3\n      mstore\n      0x00\n      dup1\n      dup3\n      mstore\n      0x20\n      dup3\n      add\n      dup2\n      swap1\n      mstore\n      swap2\n      dup2\n      add\n      swap2\n      swap1\n      swap2\n      mstore\n      swap1\n      jump\t// out\n        /* \"#utility.yul\":14:152   */\n    tag_424:\n        /* \"#utility.yul\":84:104   */\n      dup1\n      calldataload\n        /* \"#utility.yul\":113:146   */\n      tag_319\n        /* \"#utility.yul\":84:104   */\n      dup2\n        /* \"#utility.yul\":113:146   */\n      tag_427\n      jump\t// in\n        /* \"#utility.yul\":157:642   */\n    tag_428:\n      0x00\n        /* \"#utility.yul\":254:257   */\n      dup3\n        /* \"#utility.yul\":247:251   */\n      0x1f\n        /* \"#utility.yul\":239:245   */\n      dup4\n        /* \"#utility.yul\":235:252   */\n      add\n        /* \"#utility.yul\":231:258   */\n      slt\n        /* \"#utility.yul\":221:223   */\n      tag_430\n      jumpi\n        /* \"#utility.yul\":276:281   */\n      dup1\n        /* \"#utility.yul\":269:274   */\n      dup2\n        /* \"#utility.yul\":262:282   */\n      revert\n        /* \"#utility.yul\":221:223   */\n    tag_430:\n        /* \"#utility.yul\":316:322   */\n      dup2\n        /* \"#utility.yul\":303:323   */\n      calldataload\n        /* \"#utility.yul\":347:396   */\n      tag_431\n        /* \"#utility.yul\":362:395   */\n      tag_432\n        /* \"#utility.yul\":392:394   */\n      dup3\n        /* \"#utility.yul\":362:395   */\n      tag_433\n      jump\t// in\n    tag_432:\n        /* \"#utility.yul\":347:396   */\n      tag_434\n      jump\t// in\n    tag_431:\n        /* \"#utility.yul\":421:423   */\n      dup2\n        /* \"#utility.yul\":412:419   */\n      dup2\n        /* \"#utility.yul\":405:424   */\n      mstore\n        /* \"#utility.yul\":467:470   */\n      dup5\n        /* \"#utility.yul\":460:464   */\n      0x20\n        /* \"#utility.yul\":455:457   */\n      dup4\n        /* \"#utility.yul\":447:453   */\n      dup7\n        /* \"#utility.yul\":443:458   */\n      add\n        /* \"#utility.yul\":439:465   */\n      add\n        /* \"#utility.yul\":436:471   */\n      gt\n        /* \"#utility.yul\":433:435   */\n      iszero\n      tag_435\n      jumpi\n        /* \"#utility.yul\":488:493   */\n      dup3\n        /* \"#utility.yul\":481:486   */\n      dup4\n        /* \"#utility.yul\":474:494   */\n      revert\n        /* \"#utility.yul\":433:435   */\n    tag_435:\n        /* \"#utility.yul\":557:559   */\n      dup2\n        /* \"#utility.yul\":550:554   */\n      0x20\n        /* \"#utility.yul\":542:548   */\n      dup6\n        /* \"#utility.yul\":538:555   */\n      add\n        /* \"#utility.yul\":531:535   */\n      0x20\n        /* \"#utility.yul\":522:529   */\n      dup4\n        /* \"#utility.yul\":518:536   */\n      add\n        /* \"#utility.yul\":505:560   */\n      calldatacopy\n        /* \"#utility.yul\":580:596   */\n      swap1\n      dup2\n      add\n        /* \"#utility.yul\":598:602   */\n      0x20\n        /* \"#utility.yul\":576:603   */\n      add\n        /* \"#utility.yul\":569:611   */\n      swap2\n      swap1\n      swap2\n      mstore\n        /* \"#utility.yul\":584:591   */\n      swap3\n        /* \"#utility.yul\":211:642   */\n      swap2\n      pop\n      pop\n      jump\t// out\n        /* \"#utility.yul\":647:829   */\n    tag_436:\n      0x00\n        /* \"#utility.yul\":770:773   */\n      0x0100\n        /* \"#utility.yul\":761:767   */\n      dup3\n        /* \"#utility.yul\":756:759   */\n      dup5\n        /* \"#utility.yul\":752:768   */\n      sub\n        /* \"#utility.yul\":748:774   */\n      slt\n        /* \"#utility.yul\":745:747   */\n      iszero\n      tag_119\n      jumpi\n        /* \"#utility.yul\":791:796   */\n      dup1\n        /* \"#utility.yul\":784:789   */\n      dup2\n        /* \"#utility.yul\":777:797   */\n      revert\n        /* \"#utility.yul\":834:1093   */\n    tag_109:\n      0x00\n        /* \"#utility.yul\":946:948   */\n      0x20\n        /* \"#utility.yul\":934:943   */\n      dup3\n        /* \"#utility.yul\":925:932   */\n      dup5\n        /* \"#utility.yul\":921:944   */\n      sub\n        /* \"#utility.yul\":917:949   */\n      slt\n        /* \"#utility.yul\":914:916   */\n      iszero\n      tag_440\n      jumpi\n        /* \"#utility.yul\":967:973   */\n      dup1\n        /* \"#utility.yul\":959:965   */\n      dup2\n        /* \"#utility.yul\":952:974   */\n      revert\n        /* \"#utility.yul\":914:916   */\n    tag_440:\n        /* \"#utility.yul\":1011:1020   */\n      dup2\n        /* \"#utility.yul\":998:1021   */\n      calldataload\n        /* \"#utility.yul\":1030:1063   */\n      tag_441\n        /* \"#utility.yul\":1057:1062   */\n      dup2\n        /* \"#utility.yul\":1030:1063   */\n      tag_427\n      jump\t// in\n    tag_441:\n        /* \"#utility.yul\":1082:1087   */\n      swap4\n        /* \"#utility.yul\":904:1093   */\n      swap3\n      pop\n      pop\n      pop\n      jump\t// out\n        /* \"#utility.yul\":1098:1568   */\n    tag_79:\n      0x00\n      dup1\n      0x00\n        /* \"#utility.yul\":1244:1246   */\n      0x60\n        /* \"#utility.yul\":1232:1241   */\n      dup5\n        /* \"#utility.yul\":1223:1230   */\n      dup7\n        /* \"#utility.yul\":1219:1242   */\n      sub\n        /* \"#utility.yul\":1215:1247   */\n      slt\n        /* \"#utility.yul\":1212:1214   */\n      iszero\n      tag_443\n      jumpi\n        /* \"#utility.yul\":1265:1271   */\n      dup2\n        /* \"#utility.yul\":1257:1263   */\n      dup3\n        /* \"#utility.yul\":1250:1272   */\n      revert\n        /* \"#utility.yul\":1212:1214   */\n    tag_443:\n        /* \"#utility.yul\":1309:1318   */\n      dup4\n        /* \"#utility.yul\":1296:1319   */\n      calldataload\n        /* \"#utility.yul\":1328:1361   */\n      tag_444\n        /* \"#utility.yul\":1355:1360   */\n      dup2\n        /* \"#utility.yul\":1328:1361   */\n      tag_427\n      jump\t// in\n    tag_444:\n        /* \"#utility.yul\":1380:1385   */\n      swap3\n      pop\n        /* \"#utility.yul\":1432:1434   */\n      0x20\n        /* \"#utility.yul\":1417:1435   */\n      dup5\n      add\n        /* \"#utility.yul\":1404:1436   */\n      calldataload\n      swap2\n      pop\n        /* \"#utility.yul\":1488:1490   */\n      0x40\n        /* \"#utility.yul\":1473:1491   */\n      dup5\n      add\n        /* \"#utility.yul\":1460:1492   */\n      calldataload\n        /* \"#utility.yul\":1501:1536   */\n      tag_445\n        /* \"#utility.yul\":1460:1492   */\n      dup2\n        /* \"#utility.yul\":1501:1536   */\n      tag_427\n      jump\t// in\n    tag_445:\n        /* \"#utility.yul\":1555:1562   */\n      dup1\n        /* \"#utility.yul\":1545:1562   */\n      swap2\n      pop\n      pop\n        /* \"#utility.yul\":1202:1568   */\n      swap3\n      pop\n      swap3\n      pop\n      swap3\n      jump\t// out\n        /* \"#utility.yul\":1573:2256   */\n    tag_83:\n      0x00\n      dup1\n      0x00\n      dup1\n      0x00\n        /* \"#utility.yul\":1753:1756   */\n      0xa0\n        /* \"#utility.yul\":1741:1750   */\n      dup7\n        /* \"#utility.yul\":1732:1739   */\n      dup9\n        /* \"#utility.yul\":1728:1751   */\n      sub\n        /* \"#utility.yul\":1724:1757   */\n      slt\n        /* \"#utility.yul\":1721:1723   */\n      iszero\n      tag_447\n      jumpi\n        /* \"#utility.yul\":1775:1781   */\n      dup1\n        /* \"#utility.yul\":1767:1773   */\n      dup2\n        /* \"#utility.yul\":1760:1782   */\n      revert\n        /* \"#utility.yul\":1721:1723   */\n    tag_447:\n        /* \"#utility.yul\":1819:1828   */\n      dup6\n        /* \"#utility.yul\":1806:1829   */\n      calldataload\n        /* \"#utility.yul\":1838:1871   */\n      tag_448\n        /* \"#utility.yul\":1865:1870   */\n      dup2\n        /* \"#utility.yul\":1838:1871   */\n      tag_427\n      jump\t// in\n    tag_448:\n        /* \"#utility.yul\":1890:1895   */\n      swap5\n      pop\n        /* \"#utility.yul\":1942:1944   */\n      0x20\n        /* \"#utility.yul\":1927:1945   */\n      dup7\n      add\n        /* \"#utility.yul\":1914:1946   */\n      calldataload\n      swap4\n      pop\n        /* \"#utility.yul\":1998:2000   */\n      0x40\n        /* \"#utility.yul\":1983:2001   */\n      dup7\n      add\n        /* \"#utility.yul\":1970:2002   */\n      calldataload\n        /* \"#utility.yul\":2011:2046   */\n      tag_449\n        /* \"#utility.yul\":1970:2002   */\n      dup2\n        /* \"#utility.yul\":2011:2046   */\n      tag_427\n      jump\t// in\n    tag_449:\n        /* \"#utility.yul\":2065:2072   */\n      swap3\n      pop\n        /* \"#utility.yul\":2119:2121   */\n      0x60\n        /* \"#utility.yul\":2104:2122   */\n      dup7\n      add\n        /* \"#utility.yul\":2091:2123   */\n      calldataload\n      swap2\n      pop\n        /* \"#utility.yul\":2175:2178   */\n      0x80\n        /* \"#utility.yul\":2160:2179   */\n      dup7\n      add\n        /* \"#utility.yul\":2147:2180   */\n      calldataload\n        /* \"#utility.yul\":2189:2224   */\n      tag_450\n        /* \"#utility.yul\":2147:2180   */\n      dup2\n        /* \"#utility.yul\":2189:2224   */\n      tag_427\n      jump\t// in\n    tag_450:\n        /* \"#utility.yul\":2243:2250   */\n      dup1\n        /* \"#utility.yul\":2233:2250   */\n      swap2\n      pop\n      pop\n        /* \"#utility.yul\":1711:2256   */\n      swap3\n      swap6\n      pop\n      swap3\n      swap6\n      swap1\n      swap4\n      pop\n      jump\t// out\n        /* \"#utility.yul\":2261:2970   */\n    tag_36:\n      0x00\n      dup1\n      0x00\n      dup1\n      0x00\n      dup1\n        /* \"#utility.yul\":2456:2459   */\n      0xc0\n        /* \"#utility.yul\":2444:2453   */\n      dup8\n        /* \"#utility.yul\":2435:2442   */\n      dup10\n        /* \"#utility.yul\":2431:2454   */\n      sub\n        /* \"#utility.yul\":2427:2460   */\n      slt\n        /* \"#utility.yul\":2424:2426   */\n      iszero\n      tag_452\n      jumpi\n        /* \"#utility.yul\":2478:2484   */\n      dup1\n        /* \"#utility.yul\":2470:2476   */\n      dup2\n        /* \"#utility.yul\":2463:2485   */\n      revert\n        /* \"#utility.yul\":2424:2426   */\n    tag_452:\n        /* \"#utility.yul\":2522:2531   */\n      dup7\n        /* \"#utility.yul\":2509:2532   */\n      calldataload\n        /* \"#utility.yul\":2541:2574   */\n      tag_453\n        /* \"#utility.yul\":2568:2573   */\n      dup2\n        /* \"#utility.yul\":2541:2574   */\n      tag_427\n      jump\t// in\n    tag_453:\n        /* \"#utility.yul\":2593:2598   */\n      swap6\n      pop\n        /* \"#utility.yul\":2645:2647   */\n      0x20\n        /* \"#utility.yul\":2630:2648   */\n      dup8\n      add\n        /* \"#utility.yul\":2617:2649   */\n      calldataload\n      swap5\n      pop\n        /* \"#utility.yul\":2696:2698   */\n      0x40\n        /* \"#utility.yul\":2681:2699   */\n      dup8\n      add\n        /* \"#utility.yul\":2668:2700   */\n      calldataload\n      swap4\n      pop\n        /* \"#utility.yul\":2752:2754   */\n      0x60\n        /* \"#utility.yul\":2737:2755   */\n      dup8\n      add\n        /* \"#utility.yul\":2724:2756   */\n      calldataload\n        /* \"#utility.yul\":2800:2804   */\n      0xff\n        /* \"#utility.yul\":2787:2805   */\n      dup2\n      and\n        /* \"#utility.yul\":2775:2806   */\n      dup2\n      eq\n        /* \"#utility.yul\":2765:2767   */\n      tag_454\n      jumpi\n        /* \"#utility.yul\":2825:2831   */\n      dup2\n        /* \"#utility.yul\":2817:2823   */\n      dup3\n        /* \"#utility.yul\":2810:2832   */\n      revert\n        /* \"#utility.yul\":2765:2767   */\n    tag_454:\n        /* \"#utility.yul\":2414:2970   */\n      swap6\n      swap9\n      swap5\n      swap8\n      pop\n      swap3\n      swap6\n        /* \"#utility.yul\":2907:2910   */\n      0x80\n        /* \"#utility.yul\":2892:2911   */\n      dup2\n      add\n        /* \"#utility.yul\":2879:2912   */\n      calldataload\n      swap5\n        /* \"#utility.yul\":2959:2962   */\n      0xa0\n        /* \"#utility.yul\":2944:2963   */\n      swap1\n      swap2\n      add\n        /* \"#utility.yul\":2931:2964   */\n      calldataload\n      swap4\n      pop\n        /* \"#utility.yul\":2414:2970   */\n      swap2\n      pop\n      pop\n      jump\t// out\n        /* \"#utility.yul\":2975:3652   */\n    tag_56:\n      0x00\n      dup1\n        /* \"#utility.yul\":3133:3135   */\n      0x20\n        /* \"#utility.yul\":3121:3130   */\n      dup4\n        /* \"#utility.yul\":3112:3119   */\n      dup6\n        /* \"#utility.yul\":3108:3131   */\n      sub\n        /* \"#utility.yul\":3104:3136   */\n      slt\n        /* \"#utility.yul\":3101:3103   */\n      iszero\n      tag_456\n      jumpi\n        /* \"#utility.yul\":3154:3160   */\n      dup2\n        /* \"#utility.yul\":3146:3152   */\n      dup3\n        /* \"#utility.yul\":3139:3161   */\n      revert\n        /* \"#utility.yul\":3101:3103   */\n    tag_456:\n        /* \"#utility.yul\":3199:3208   */\n      dup3\n        /* \"#utility.yul\":3186:3209   */\n      calldataload\n        /* \"#utility.yul\":3228:3246   */\n      0xffffffffffffffff\n        /* \"#utility.yul\":3269:3271   */\n      dup1\n        /* \"#utility.yul\":3261:3267   */\n      dup3\n        /* \"#utility.yul\":3258:3272   */\n      gt\n        /* \"#utility.yul\":3255:3257   */\n      iszero\n      tag_457\n      jumpi\n        /* \"#utility.yul\":3290:3296   */\n      dup4\n        /* \"#utility.yul\":3282:3288   */\n      dup5\n        /* \"#utility.yul\":3275:3297   */\n      revert\n        /* \"#utility.yul\":3255:3257   */\n    tag_457:\n        /* \"#utility.yul\":3333:3339   */\n      dup2\n        /* \"#utility.yul\":3322:3331   */\n      dup6\n        /* \"#utility.yul\":3318:3340   */\n      add\n        /* \"#utility.yul\":3308:3340   */\n      swap2\n      pop\n        /* \"#utility.yul\":3378:3385   */\n      dup6\n        /* \"#utility.yul\":3371:3375   */\n      0x1f\n        /* \"#utility.yul\":3367:3369   */\n      dup4\n        /* \"#utility.yul\":3363:3376   */\n      add\n        /* \"#utility.yul\":3359:3386   */\n      slt\n        /* \"#utility.yul\":3349:3351   */\n      tag_458\n      jumpi\n        /* \"#utility.yul\":3405:3411   */\n      dup4\n        /* \"#utility.yul\":3397:3403   */\n      dup5\n        /* \"#utility.yul\":3390:3412   */\n      revert\n        /* \"#utility.yul\":3349:3351   */\n    tag_458:\n        /* \"#utility.yul\":3450:3452   */\n      dup2\n        /* \"#utility.yul\":3437:3453   */\n      calldataload\n        /* \"#utility.yul\":3476:3478   */\n      dup2\n        /* \"#utility.yul\":3468:3474   */\n      dup2\n        /* \"#utility.yul\":3465:3479   */\n      gt\n        /* \"#utility.yul\":3462:3464   */\n      iszero\n      tag_459\n      jumpi\n        /* \"#utility.yul\":3497:3503   */\n      dup5\n        /* \"#utility.yul\":3489:3495   */\n      dup6\n        /* \"#utility.yul\":3482:3504   */\n      revert\n        /* \"#utility.yul\":3462:3464   */\n    tag_459:\n        /* \"#utility.yul\":3556:3563   */\n      dup7\n        /* \"#utility.yul\":3551:3553   */\n      0x20\n        /* \"#utility.yul\":3545:3547   */\n      dup1\n        /* \"#utility.yul\":3537:3543   */\n      dup4\n        /* \"#utility.yul\":3533:3548   */\n      mul\n        /* \"#utility.yul\":3529:3531   */\n      dup6\n        /* \"#utility.yul\":3525:3549   */\n      add\n        /* \"#utility.yul\":3521:3554   */\n      add\n        /* \"#utility.yul\":3518:3564   */\n      gt\n        /* \"#utility.yul\":3515:3517   */\n      iszero\n      tag_460\n      jumpi\n        /* \"#utility.yul\":3582:3588   */\n      dup5\n        /* \"#utility.yul\":3574:3580   */\n      dup6\n        /* \"#utility.yul\":3567:3589   */\n      revert\n        /* \"#utility.yul\":3515:3517   */\n    tag_460:\n        /* \"#utility.yul\":3618:3620   */\n      0x20\n        /* \"#utility.yul\":3610:3621   */\n      swap3\n      swap1\n      swap3\n      add\n      swap7\n        /* \"#utility.yul\":3640:3646   */\n      swap2\n      swap6\n      pop\n        /* \"#utility.yul\":3091:3652   */\n      swap1\n      swap4\n      pop\n      pop\n      pop\n      pop\n      jump\t// out\n        /* \"#utility.yul\":3657:3910   */\n    tag_312:\n      0x00\n      dup1\n        /* \"#utility.yul\":3795:3797   */\n      0x40\n        /* \"#utility.yul\":3783:3792   */\n      dup4\n        /* \"#utility.yul\":3774:3781   */\n      dup6\n        /* \"#utility.yul\":3770:3793   */\n      sub\n        /* \"#utility.yul\":3766:3798   */\n      slt\n        /* \"#utility.yul\":3763:3765   */\n      iszero\n      tag_462\n      jumpi\n        /* \"#utility.yul\":3816:3822   */\n      dup2\n        /* \"#utility.yul\":3808:3814   */\n      dup3\n        /* \"#utility.yul\":3801:3823   */\n      revert\n        /* \"#utility.yul\":3763:3765   */\n    tag_462:\n      pop\n      pop\n        /* \"#utility.yul\":3844:3860   */\n      dup1\n      mload\n        /* \"#utility.yul\":3900:3902   */\n      0x20\n        /* \"#utility.yul\":3885:3903   */\n      swap1\n      swap2\n      add\n        /* \"#utility.yul\":3879:3904   */\n      mload\n        /* \"#utility.yul\":3844:3860   */\n      swap1\n      swap3\n        /* \"#utility.yul\":3879:3904   */\n      swap1\n      swap2\n      pop\n        /* \"#utility.yul\":3753:3910   */\n      jump\t// out\n        /* \"#utility.yul\":3915:4690   */\n    tag_96:\n      0x00\n      dup1\n      0x00\n      dup1\n        /* \"#utility.yul\":4078:4080   */\n      0x60\n        /* \"#utility.yul\":4066:4075   */\n      dup6\n        /* \"#utility.yul\":4057:4064   */\n      dup8\n        /* \"#utility.yul\":4053:4076   */\n      sub\n        /* \"#utility.yul\":4049:4081   */\n      slt\n        /* \"#utility.yul\":4046:4048   */\n      iszero\n      tag_464\n      jumpi\n        /* \"#utility.yul\":4099:4105   */\n      dup2\n        /* \"#utility.yul\":4091:4097   */\n      dup3\n        /* \"#utility.yul\":4084:4106   */\n      revert\n        /* \"#utility.yul\":4046:4048   */\n    tag_464:\n        /* \"#utility.yul\":4140:4149   */\n      dup5\n        /* \"#utility.yul\":4127:4150   */\n      calldataload\n        /* \"#utility.yul\":4117:4150   */\n      swap4\n      pop\n        /* \"#utility.yul\":4197:4199   */\n      0x20\n        /* \"#utility.yul\":4186:4195   */\n      dup6\n        /* \"#utility.yul\":4182:4200   */\n      add\n        /* \"#utility.yul\":4169:4201   */\n      calldataload\n        /* \"#utility.yul\":4159:4201   */\n      swap3\n      pop\n        /* \"#utility.yul\":4252:4254   */\n      0x40\n        /* \"#utility.yul\":4241:4250   */\n      dup6\n        /* \"#utility.yul\":4237:4255   */\n      add\n        /* \"#utility.yul\":4224:4256   */\n      calldataload\n        /* \"#utility.yul\":4275:4293   */\n      0xffffffffffffffff\n        /* \"#utility.yul\":4316:4318   */\n      dup1\n        /* \"#utility.yul\":4308:4314   */\n      dup3\n        /* \"#utility.yul\":4305:4319   */\n      gt\n        /* \"#utility.yul\":4302:4304   */\n      iszero\n      tag_465\n      jumpi\n        /* \"#utility.yul\":4337:4343   */\n      dup4\n        /* \"#utility.yul\":4329:4335   */\n      dup5\n        /* \"#utility.yul\":4322:4344   */\n      revert\n        /* \"#utility.yul\":4302:4304   */\n    tag_465:\n        /* \"#utility.yul\":4380:4386   */\n      dup2\n        /* \"#utility.yul\":4369:4378   */\n      dup8\n        /* \"#utility.yul\":4365:4387   */\n      add\n        /* \"#utility.yul\":4355:4387   */\n      swap2\n      pop\n        /* \"#utility.yul\":4425:4432   */\n      dup8\n        /* \"#utility.yul\":4418:4422   */\n      0x1f\n        /* \"#utility.yul\":4414:4416   */\n      dup4\n        /* \"#utility.yul\":4410:4423   */\n      add\n        /* \"#utility.yul\":4406:4433   */\n      slt\n        /* \"#utility.yul\":4396:4398   */\n      tag_466\n      jumpi\n        /* \"#utility.yul\":4452:4458   */\n      dup4\n        /* \"#utility.yul\":4444:4450   */\n      dup5\n        /* \"#utility.yul\":4437:4459   */\n      revert\n        /* \"#utility.yul\":4396:4398   */\n    tag_466:\n        /* \"#utility.yul\":4497:4499   */\n      dup2\n        /* \"#utility.yul\":4484:4500   */\n      calldataload\n        /* \"#utility.yul\":4523:4525   */\n      dup2\n        /* \"#utility.yul\":4515:4521   */\n      dup2\n        /* \"#utility.yul\":4512:4526   */\n      gt\n        /* \"#utility.yul\":4509:4511   */\n      iszero\n      tag_467\n      jumpi\n        /* \"#utility.yul\":4544:4550   */\n      dup5\n        /* \"#utility.yul\":4536:4542   */\n      dup6\n        /* \"#utility.yul\":4529:4551   */\n      revert\n        /* \"#utility.yul\":4509:4511   */\n    tag_467:\n        /* \"#utility.yul\":4594:4601   */\n      dup9\n        /* \"#utility.yul\":4589:4591   */\n      0x20\n        /* \"#utility.yul\":4580:4586   */\n      dup3\n        /* \"#utility.yul\":4576:4578   */\n      dup6\n        /* \"#utility.yul\":4572:4587   */\n      add\n        /* \"#utility.yul\":4568:4592   */\n      add\n        /* \"#utility.yul\":4565:4602   */\n      gt\n        /* \"#utility.yul\":4562:4564   */\n      iszero\n      tag_468\n      jumpi\n        /* \"#utility.yul\":4620:4626   */\n      dup5\n        /* \"#utility.yul\":4612:4618   */\n      dup6\n        /* \"#utility.yul\":4605:4627   */\n      revert\n        /* \"#utility.yul\":4562:4564   */\n    tag_468:\n        /* \"#utility.yul\":4036:4690   */\n      swap6\n      swap9\n      swap5\n      swap8\n      pop\n      pop\n        /* \"#utility.yul\":4656:4658   */\n      0x20\n        /* \"#utility.yul\":4648:4659   */\n      add\n      swap5\n      pop\n      pop\n      pop\n        /* \"#utility.yul\":4036:4690   */\n      jump\t// out\n        /* \"#utility.yul\":4695:5371   */\n    tag_180:\n      0x00\n        /* \"#utility.yul\":4828:4830   */\n      0x20\n        /* \"#utility.yul\":4816:4825   */\n      dup3\n        /* \"#utility.yul\":4807:4814   */\n      dup5\n        /* \"#utility.yul\":4803:4826   */\n      sub\n        /* \"#utility.yul\":4799:4831   */\n      slt\n        /* \"#utility.yul\":4796:4798   */\n      iszero\n      tag_470\n      jumpi\n        /* \"#utility.yul\":4849:4855   */\n      dup1\n        /* \"#utility.yul\":4841:4847   */\n      dup2\n        /* \"#utility.yul\":4834:4856   */\n      revert\n        /* \"#utility.yul\":4796:4798   */\n    tag_470:\n        /* \"#utility.yul\":4887:4896   */\n      dup2\n        /* \"#utility.yul\":4881:4897   */\n      mload\n        /* \"#utility.yul\":4920:4938   */\n      0xffffffffffffffff\n        /* \"#utility.yul\":4912:4918   */\n      dup2\n        /* \"#utility.yul\":4909:4939   */\n      gt\n        /* \"#utility.yul\":4906:4908   */\n      iszero\n      tag_471\n      jumpi\n        /* \"#utility.yul\":4957:4963   */\n      dup2\n        /* \"#utility.yul\":4949:4955   */\n      dup3\n        /* \"#utility.yul\":4942:4964   */\n      revert\n        /* \"#utility.yul\":4906:4908   */\n    tag_471:\n        /* \"#utility.yul\":4985:5007   */\n      dup3\n      add\n        /* \"#utility.yul\":5038:5042   */\n      0x1f\n        /* \"#utility.yul\":5030:5043   */\n      dup2\n      add\n        /* \"#utility.yul\":5026:5053   */\n      dup5\n      sgt\n        /* \"#utility.yul\":5016:5018   */\n      tag_472\n      jumpi\n        /* \"#utility.yul\":5072:5078   */\n      dup2\n        /* \"#utility.yul\":5064:5070   */\n      dup3\n        /* \"#utility.yul\":5057:5079   */\n      revert\n        /* \"#utility.yul\":5016:5018   */\n    tag_472:\n        /* \"#utility.yul\":5106:5108   */\n      dup1\n        /* \"#utility.yul\":5100:5109   */\n      mload\n        /* \"#utility.yul\":5131:5180   */\n      tag_473\n        /* \"#utility.yul\":5146:5179   */\n      tag_432\n        /* \"#utility.yul\":5176:5178   */\n      dup3\n        /* \"#utility.yul\":5146:5179   */\n      tag_433\n      jump\t// in\n        /* \"#utility.yul\":5131:5180   */\n    tag_473:\n        /* \"#utility.yul\":5203:5205   */\n      dup2\n        /* \"#utility.yul\":5196:5201   */\n      dup2\n        /* \"#utility.yul\":5189:5206   */\n      mstore\n        /* \"#utility.yul\":5243:5250   */\n      dup6\n        /* \"#utility.yul\":5238:5240   */\n      0x20\n        /* \"#utility.yul\":5233:5235   */\n      dup4\n        /* \"#utility.yul\":5229:5231   */\n      dup6\n        /* \"#utility.yul\":5225:5236   */\n      add\n        /* \"#utility.yul\":5221:5241   */\n      add\n        /* \"#utility.yul\":5218:5251   */\n      gt\n        /* \"#utility.yul\":5215:5217   */\n      iszero\n      tag_475\n      jumpi\n        /* \"#utility.yul\":5269:5275   */\n      dup4\n        /* \"#utility.yul\":5261:5267   */\n      dup5\n        /* \"#utility.yul\":5254:5276   */\n      revert\n        /* \"#utility.yul\":5215:5217   */\n    tag_475:\n        /* \"#utility.yul\":5287:5341   */\n      tag_362\n        /* \"#utility.yul\":5338:5340   */\n      dup3\n        /* \"#utility.yul\":5333:5335   */\n      0x20\n        /* \"#utility.yul\":5326:5331   */\n      dup4\n        /* \"#utility.yul\":5322:5336   */\n      add\n        /* \"#utility.yul\":5317:5319   */\n      0x20\n        /* \"#utility.yul\":5313:5315   */\n      dup7\n        /* \"#utility.yul\":5309:5320   */\n      add\n        /* \"#utility.yul\":5287:5341   */\n      tag_477\n      jump\t// in\n        /* \"#utility.yul\":5376:6418   */\n    tag_62:\n      0x00\n        /* \"#utility.yul\":5522:5524   */\n      0x20\n        /* \"#utility.yul\":5510:5519   */\n      dup3\n        /* \"#utility.yul\":5501:5508   */\n      dup5\n        /* \"#utility.yul\":5497:5520   */\n      sub\n        /* \"#utility.yul\":5493:5525   */\n      slt\n        /* \"#utility.yul\":5490:5492   */\n      iszero\n      tag_479\n      jumpi\n        /* \"#utility.yul\":5543:5549   */\n      dup1\n        /* \"#utility.yul\":5535:5541   */\n      dup2\n        /* \"#utility.yul\":5528:5550   */\n      revert\n        /* \"#utility.yul\":5490:5492   */\n    tag_479:\n        /* \"#utility.yul\":5588:5597   */\n      dup2\n        /* \"#utility.yul\":5575:5598   */\n      calldataload\n        /* \"#utility.yul\":5617:5635   */\n      0xffffffffffffffff\n        /* \"#utility.yul\":5658:5660   */\n      dup1\n        /* \"#utility.yul\":5650:5656   */\n      dup3\n        /* \"#utility.yul\":5647:5661   */\n      gt\n        /* \"#utility.yul\":5644:5646   */\n      iszero\n      tag_480\n      jumpi\n        /* \"#utility.yul\":5679:5685   */\n      dup3\n        /* \"#utility.yul\":5671:5677   */\n      dup4\n        /* \"#utility.yul\":5664:5686   */\n      revert\n        /* \"#utility.yul\":5644:5646   */\n    tag_480:\n        /* \"#utility.yul\":5707:5729   */\n      swap1\n      dup4\n      add\n      swap1\n        /* \"#utility.yul\":5763:5767   */\n      0xa0\n        /* \"#utility.yul\":5745:5761   */\n      dup3\n      dup7\n      sub\n        /* \"#utility.yul\":5741:5768   */\n      slt\n        /* \"#utility.yul\":5738:5740   */\n      iszero\n      tag_481\n      jumpi\n        /* \"#utility.yul\":5786:5792   */\n      dup3\n        /* \"#utility.yul\":5778:5784   */\n      dup4\n        /* \"#utility.yul\":5771:5793   */\n      revert\n        /* \"#utility.yul\":5738:5740   */\n    tag_481:\n        /* \"#utility.yul\":5824:5826   */\n      0x40\n        /* \"#utility.yul\":5818:5827   */\n      mload\n        /* \"#utility.yul\":5866:5870   */\n      0xa0\n        /* \"#utility.yul\":5858:5864   */\n      dup2\n        /* \"#utility.yul\":5854:5871   */\n      add\n        /* \"#utility.yul\":5921:5927   */\n      dup2\n        /* \"#utility.yul\":5909:5919   */\n      dup2\n        /* \"#utility.yul\":5906:5928   */\n      lt\n        /* \"#utility.yul\":5901:5903   */\n      dup4\n        /* \"#utility.yul\":5889:5899   */\n      dup3\n        /* \"#utility.yul\":5886:5904   */\n      gt\n        /* \"#utility.yul\":5883:5929   */\n      or\n        /* \"#utility.yul\":5880:5882   */\n      iszero\n      tag_482\n      jumpi\n        /* \"#utility.yul\":5932:5941   */\n      invalid\n        /* \"#utility.yul\":5880:5882   */\n    tag_482:\n        /* \"#utility.yul\":5959:5961   */\n      0x40\n        /* \"#utility.yul\":5952:5974   */\n      mstore\n        /* \"#utility.yul\":5999:6015   */\n      dup3\n      calldataload\n        /* \"#utility.yul\":6027:6043   */\n      dup3\n      dup2\n      gt\n        /* \"#utility.yul\":6024:6026   */\n      iszero\n      tag_483\n      jumpi\n        /* \"#utility.yul\":6061:6067   */\n      dup5\n        /* \"#utility.yul\":6053:6059   */\n      dup6\n        /* \"#utility.yul\":6046:6068   */\n      revert\n        /* \"#utility.yul\":6024:6026   */\n    tag_483:\n        /* \"#utility.yul\":6094:6140   */\n      tag_484\n        /* \"#utility.yul\":6132:6139   */\n      dup8\n        /* \"#utility.yul\":6121:6129   */\n      dup3\n        /* \"#utility.yul\":6117:6119   */\n      dup7\n        /* \"#utility.yul\":6113:6130   */\n      add\n        /* \"#utility.yul\":6094:6140   */\n      tag_428\n      jump\t// in\n    tag_484:\n        /* \"#utility.yul\":6086:6092   */\n      dup3\n        /* \"#utility.yul\":6079:6141   */\n      mstore\n      pop\n        /* \"#utility.yul\":6174:6207   */\n      tag_485\n        /* \"#utility.yul\":6203:6205   */\n      0x20\n        /* \"#utility.yul\":6199:6201   */\n      dup5\n        /* \"#utility.yul\":6195:6206   */\n      add\n        /* \"#utility.yul\":6174:6207   */\n      tag_424\n      jump\t// in\n    tag_485:\n        /* \"#utility.yul\":6169:6171   */\n      0x20\n        /* \"#utility.yul\":6161:6167   */\n      dup3\n        /* \"#utility.yul\":6157:6172   */\n      add\n        /* \"#utility.yul\":6150:6208   */\n      mstore\n        /* \"#utility.yul\":6262:6264   */\n      0x40\n        /* \"#utility.yul\":6258:6260   */\n      dup4\n        /* \"#utility.yul\":6254:6265   */\n      add\n        /* \"#utility.yul\":6241:6266   */\n      calldataload\n        /* \"#utility.yul\":6236:6238   */\n      0x40\n        /* \"#utility.yul\":6228:6234   */\n      dup3\n        /* \"#utility.yul\":6224:6239   */\n      add\n        /* \"#utility.yul\":6217:6267   */\n      mstore\n        /* \"#utility.yul\":6321:6323   */\n      0x60\n        /* \"#utility.yul\":6317:6319   */\n      dup4\n        /* \"#utility.yul\":6313:6324   */\n      add\n        /* \"#utility.yul\":6300:6325   */\n      calldataload\n        /* \"#utility.yul\":6295:6297   */\n      0x60\n        /* \"#utility.yul\":6287:6293   */\n      dup3\n        /* \"#utility.yul\":6283:6298   */\n      add\n        /* \"#utility.yul\":6276:6326   */\n      mstore\n        /* \"#utility.yul\":6381:6384   */\n      0x80\n        /* \"#utility.yul\":6377:6379   */\n      dup4\n        /* \"#utility.yul\":6373:6385   */\n      add\n        /* \"#utility.yul\":6360:6386   */\n      calldataload\n        /* \"#utility.yul\":6354:6357   */\n      0x80\n        /* \"#utility.yul\":6346:6352   */\n      dup3\n        /* \"#utility.yul\":6342:6358   */\n      add\n        /* \"#utility.yul\":6335:6387   */\n      mstore\n        /* \"#utility.yul\":6406:6412   */\n      dup1\n        /* \"#utility.yul\":6396:6412   */\n      swap4\n      pop\n      pop\n      pop\n      pop\n        /* \"#utility.yul\":5480:6418   */\n      swap3\n      swap2\n      pop\n      pop\n      jump\t// out\n        /* \"#utility.yul\":6423:6705   */\n    tag_30:\n      0x00\n        /* \"#utility.yul\":6577:6580   */\n      0x0100\n        /* \"#utility.yul\":6565:6574   */\n      dup3\n        /* \"#utility.yul\":6556:6563   */\n      dup5\n        /* \"#utility.yul\":6552:6575   */\n      sub\n        /* \"#utility.yul\":6548:6581   */\n      slt\n        /* \"#utility.yul\":6545:6547   */\n      iszero\n      tag_487\n      jumpi\n        /* \"#utility.yul\":6599:6605   */\n      dup1\n        /* \"#utility.yul\":6591:6597   */\n      dup2\n        /* \"#utility.yul\":6584:6606   */\n      revert\n        /* \"#utility.yul\":6545:6547   */\n    tag_487:\n        /* \"#utility.yul\":6627:6699   */\n      tag_441\n        /* \"#utility.yul\":6691:6698   */\n      dup4\n        /* \"#utility.yul\":6680:6689   */\n      dup4\n        /* \"#utility.yul\":6627:6699   */\n      tag_436\n      jump\t// in\n        /* \"#utility.yul\":6710:7137   */\n    tag_87:\n      0x00\n        /* \"#utility.yul\":6859:6861   */\n      0x20\n        /* \"#utility.yul\":6847:6856   */\n      dup3\n        /* \"#utility.yul\":6838:6845   */\n      dup5\n        /* \"#utility.yul\":6834:6857   */\n      sub\n        /* \"#utility.yul\":6830:6862   */\n      slt\n        /* \"#utility.yul\":6827:6829   */\n      iszero\n      tag_490\n      jumpi\n        /* \"#utility.yul\":6880:6886   */\n      dup1\n        /* \"#utility.yul\":6872:6878   */\n      dup2\n        /* \"#utility.yul\":6865:6887   */\n      revert\n        /* \"#utility.yul\":6827:6829   */\n    tag_490:\n        /* \"#utility.yul\":6925:6934   */\n      dup2\n        /* \"#utility.yul\":6912:6935   */\n      calldataload\n        /* \"#utility.yul\":6958:6976   */\n      0xffffffffffffffff\n        /* \"#utility.yul\":6950:6956   */\n      dup2\n        /* \"#utility.yul\":6947:6977   */\n      gt\n        /* \"#utility.yul\":6944:6946   */\n      iszero\n      tag_491\n      jumpi\n        /* \"#utility.yul\":6995:7001   */\n      dup2\n        /* \"#utility.yul\":6987:6993   */\n      dup3\n        /* \"#utility.yul\":6980:7002   */\n      revert\n        /* \"#utility.yul\":6944:6946   */\n    tag_491:\n        /* \"#utility.yul\":7023:7045   */\n      dup3\n      add\n        /* \"#utility.yul\":7079:7082   */\n      0xa0\n        /* \"#utility.yul\":7061:7077   */\n      dup2\n      dup6\n      sub\n        /* \"#utility.yul\":7057:7083   */\n      slt\n        /* \"#utility.yul\":7054:7056   */\n      iszero\n      tag_441\n      jumpi\n        /* \"#utility.yul\":7101:7107   */\n      dup2\n        /* \"#utility.yul\":7093:7099   */\n      dup3\n        /* \"#utility.yul\":7086:7108   */\n      revert\n        /* \"#utility.yul\":7430:8358   */\n    tag_265:\n      0x00\n        /* \"#utility.yul\":7576:7578   */\n      0x20\n        /* \"#utility.yul\":7564:7573   */\n      dup3\n        /* \"#utility.yul\":7555:7562   */\n      dup5\n        /* \"#utility.yul\":7551:7574   */\n      sub\n        /* \"#utility.yul\":7547:7579   */\n      slt\n        /* \"#utility.yul\":7544:7546   */\n      iszero\n      tag_497\n      jumpi\n        /* \"#utility.yul\":7597:7603   */\n      dup1\n        /* \"#utility.yul\":7589:7595   */\n      dup2\n        /* \"#utility.yul\":7582:7604   */\n      revert\n        /* \"#utility.yul\":7544:7546   */\n    tag_497:\n        /* \"#utility.yul\":7642:7651   */\n      dup2\n        /* \"#utility.yul\":7629:7652   */\n      calldataload\n        /* \"#utility.yul\":7671:7689   */\n      0xffffffffffffffff\n        /* \"#utility.yul\":7712:7714   */\n      dup1\n        /* \"#utility.yul\":7704:7710   */\n      dup3\n        /* \"#utility.yul\":7701:7715   */\n      gt\n        /* \"#utility.yul\":7698:7700   */\n      iszero\n      tag_498\n      jumpi\n        /* \"#utility.yul\":7733:7739   */\n      dup3\n        /* \"#utility.yul\":7725:7731   */\n      dup4\n        /* \"#utility.yul\":7718:7740   */\n      revert\n        /* \"#utility.yul\":7698:7700   */\n    tag_498:\n        /* \"#utility.yul\":7761:7783   */\n      swap1\n      dup4\n      add\n      swap1\n        /* \"#utility.yul\":7817:7821   */\n      0x40\n        /* \"#utility.yul\":7799:7815   */\n      dup3\n      dup7\n      sub\n        /* \"#utility.yul\":7795:7822   */\n      slt\n        /* \"#utility.yul\":7792:7794   */\n      iszero\n      tag_499\n      jumpi\n        /* \"#utility.yul\":7840:7846   */\n      dup3\n        /* \"#utility.yul\":7832:7838   */\n      dup4\n        /* \"#utility.yul\":7825:7847   */\n      revert\n        /* \"#utility.yul\":7792:7794   */\n    tag_499:\n        /* \"#utility.yul\":7878:7882   */\n      0x40\n        /* \"#utility.yul\":7872:7883   */\n      mload\n        /* \"#utility.yul\":7922:7926   */\n      0x40\n        /* \"#utility.yul\":7914:7920   */\n      dup2\n        /* \"#utility.yul\":7910:7927   */\n      add\n        /* \"#utility.yul\":7977:7983   */\n      dup2\n        /* \"#utility.yul\":7965:7975   */\n      dup2\n        /* \"#utility.yul\":7962:7984   */\n      lt\n        /* \"#utility.yul\":7957:7959   */\n      dup4\n        /* \"#utility.yul\":7945:7955   */\n      dup3\n        /* \"#utility.yul\":7942:7960   */\n      gt\n        /* \"#utility.yul\":7939:7985   */\n      or\n        /* \"#utility.yul\":7936:7938   */\n      iszero\n      tag_500\n      jumpi\n        /* \"#utility.yul\":7988:7997   */\n      invalid\n        /* \"#utility.yul\":7936:7938   */\n    tag_500:\n        /* \"#utility.yul\":8015:8019   */\n      0x40\n        /* \"#utility.yul\":8008:8032   */\n      mstore\n        /* \"#utility.yul\":8057:8073   */\n      dup3\n      calldataload\n        /* \"#utility.yul\":8085:8101   */\n      dup3\n      dup2\n      gt\n        /* \"#utility.yul\":8082:8084   */\n      iszero\n      tag_501\n      jumpi\n        /* \"#utility.yul\":8119:8125   */\n      dup5\n        /* \"#utility.yul\":8111:8117   */\n      dup6\n        /* \"#utility.yul\":8104:8126   */\n      revert\n        /* \"#utility.yul\":8082:8084   */\n    tag_501:\n        /* \"#utility.yul\":8152:8198   */\n      tag_502\n        /* \"#utility.yul\":8190:8197   */\n      dup8\n        /* \"#utility.yul\":8179:8187   */\n      dup3\n        /* \"#utility.yul\":8175:8177   */\n      dup7\n        /* \"#utility.yul\":8171:8188   */\n      add\n        /* \"#utility.yul\":8152:8198   */\n      tag_428\n      jump\t// in\n    tag_502:\n        /* \"#utility.yul\":8144:8150   */\n      dup3\n        /* \"#utility.yul\":8137:8199   */\n      mstore\n      pop\n        /* \"#utility.yul\":8242:8244   */\n      0x20\n        /* \"#utility.yul\":8238:8240   */\n      dup4\n        /* \"#utility.yul\":8234:8245   */\n      add\n        /* \"#utility.yul\":8221:8246   */\n      calldataload\n        /* \"#utility.yul\":8208:8246   */\n      swap3\n      pop\n        /* \"#utility.yul\":8255:8288   */\n      tag_503\n        /* \"#utility.yul\":8282:8287   */\n      dup4\n        /* \"#utility.yul\":8255:8288   */\n      tag_427\n      jump\t// in\n    tag_503:\n        /* \"#utility.yul\":8316:8318   */\n      0x20\n        /* \"#utility.yul\":8304:8319   */\n      dup2\n      add\n        /* \"#utility.yul\":8297:8327   */\n      swap3\n      swap1\n      swap3\n      mstore\n      pop\n        /* \"#utility.yul\":8308:8314   */\n      swap4\n        /* \"#utility.yul\":7534:8358   */\n      swap3\n      pop\n      pop\n      pop\n      jump\t// out\n        /* \"#utility.yul\":8627:8921   */\n    tag_114:\n      0x00\n        /* \"#utility.yul\":8738:8740   */\n      0x20\n        /* \"#utility.yul\":8726:8735   */\n      dup3\n        /* \"#utility.yul\":8717:8724   */\n      dup5\n        /* \"#utility.yul\":8713:8736   */\n      sub\n        /* \"#utility.yul\":8709:8741   */\n      slt\n        /* \"#utility.yul\":8706:8708   */\n      iszero\n      tag_508\n      jumpi\n        /* \"#utility.yul\":8759:8765   */\n      dup1\n        /* \"#utility.yul\":8751:8757   */\n      dup2\n        /* \"#utility.yul\":8744:8766   */\n      revert\n        /* \"#utility.yul\":8706:8708   */\n    tag_508:\n        /* \"#utility.yul\":8803:8812   */\n      dup2\n        /* \"#utility.yul\":8790:8813   */\n      calldataload\n        /* \"#utility.yul\":8853:8861   */\n      0xffffff\n        /* \"#utility.yul\":8846:8851   */\n      dup2\n        /* \"#utility.yul\":8842:8862   */\n      and\n        /* \"#utility.yul\":8835:8840   */\n      dup2\n        /* \"#utility.yul\":8832:8863   */\n      eq\n        /* \"#utility.yul\":8822:8824   */\n      tag_441\n      jumpi\n        /* \"#utility.yul\":8882:8888   */\n      dup2\n        /* \"#utility.yul\":8874:8880   */\n      dup3\n        /* \"#utility.yul\":8867:8889   */\n      revert\n        /* \"#utility.yul\":8926:9253   */\n    tag_40:\n      0x00\n      dup1\n        /* \"#utility.yul\":9055:9057   */\n      0x40\n        /* \"#utility.yul\":9043:9052   */\n      dup4\n        /* \"#utility.yul\":9034:9041   */\n      dup6\n        /* \"#utility.yul\":9030:9053   */\n      sub\n        /* \"#utility.yul\":9026:9058   */\n      slt\n        /* \"#utility.yul\":9023:9025   */\n      iszero\n      tag_511\n      jumpi\n        /* \"#utility.yul\":9076:9082   */\n      dup2\n        /* \"#utility.yul\":9068:9074   */\n      dup3\n        /* \"#utility.yul\":9061:9083   */\n      revert\n        /* \"#utility.yul\":9023:9025   */\n    tag_511:\n        /* \"#utility.yul\":9117:9126   */\n      dup3\n        /* \"#utility.yul\":9104:9127   */\n      calldataload\n        /* \"#utility.yul\":9094:9127   */\n      swap2\n      pop\n        /* \"#utility.yul\":9177:9179   */\n      0x20\n        /* \"#utility.yul\":9166:9175   */\n      dup4\n        /* \"#utility.yul\":9162:9180   */\n      add\n        /* \"#utility.yul\":9149:9181   */\n      calldataload\n        /* \"#utility.yul\":9190:9223   */\n      tag_512\n        /* \"#utility.yul\":9217:9222   */\n      dup2\n        /* \"#utility.yul\":9190:9223   */\n      tag_427\n      jump\t// in\n    tag_512:\n        /* \"#utility.yul\":9242:9247   */\n      dup1\n        /* \"#utility.yul\":9232:9247   */\n      swap2\n      pop\n      pop\n        /* \"#utility.yul\":9013:9253   */\n      swap3\n      pop\n      swap3\n      swap1\n      pop\n      jump\t// out\n        /* \"#utility.yul\":9258:9797   */\n    tag_49:\n      0x00\n      dup1\n      0x00\n      dup1\n        /* \"#utility.yul\":9421:9424   */\n      0x80\n        /* \"#utility.yul\":9409:9418   */\n      dup6\n        /* \"#utility.yul\":9400:9407   */\n      dup8\n        /* \"#utility.yul\":9396:9419   */\n      sub\n        /* \"#utility.yul\":9392:9425   */\n      slt\n        /* \"#utility.yul\":9389:9391   */\n      iszero\n      tag_514\n      jumpi\n        /* \"#utility.yul\":9443:9449   */\n      dup2\n        /* \"#utility.yul\":9435:9441   */\n      dup3\n        /* \"#utility.yul\":9428:9450   */\n      revert\n        /* \"#utility.yul\":9389:9391   */\n    tag_514:\n        /* \"#utility.yul\":9484:9493   */\n      dup5\n        /* \"#utility.yul\":9471:9494   */\n      calldataload\n        /* \"#utility.yul\":9461:9494   */\n      swap4\n      pop\n        /* \"#utility.yul\":9544:9546   */\n      0x20\n        /* \"#utility.yul\":9533:9542   */\n      dup6\n        /* \"#utility.yul\":9529:9547   */\n      add\n        /* \"#utility.yul\":9516:9548   */\n      calldataload\n        /* \"#utility.yul\":9557:9590   */\n      tag_515\n        /* \"#utility.yul\":9584:9589   */\n      dup2\n        /* \"#utility.yul\":9557:9590   */\n      tag_427\n      jump\t// in\n    tag_515:\n        /* \"#utility.yul\":9609:9614   */\n      swap3\n      pop\n        /* \"#utility.yul\":9661:9663   */\n      0x40\n        /* \"#utility.yul\":9646:9664   */\n      dup6\n      add\n        /* \"#utility.yul\":9633:9665   */\n      calldataload\n      swap2\n      pop\n        /* \"#utility.yul\":9717:9719   */\n      0x60\n        /* \"#utility.yul\":9702:9720   */\n      dup6\n      add\n        /* \"#utility.yul\":9689:9721   */\n      calldataload\n        /* \"#utility.yul\":9730:9765   */\n      tag_516\n        /* \"#utility.yul\":9689:9721   */\n      dup2\n        /* \"#utility.yul\":9730:9765   */\n      tag_427\n      jump\t// in\n    tag_516:\n        /* \"#utility.yul\":9379:9797   */\n      swap4\n      swap7\n      swap3\n      swap6\n      pop\n      swap1\n      swap4\n      pop\n      pop\n      jump\t// out\n        /* \"#utility.yul\":9802:10061   */\n    tag_517:\n      0x00\n        /* \"#utility.yul\":9883:9888   */\n      dup2\n        /* \"#utility.yul\":9877:9889   */\n      mload\n        /* \"#utility.yul\":9910:9916   */\n      dup1\n        /* \"#utility.yul\":9905:9908   */\n      dup5\n        /* \"#utility.yul\":9898:9917   */\n      mstore\n        /* \"#utility.yul\":9926:9989   */\n      tag_519\n        /* \"#utility.yul\":9982:9988   */\n      dup2\n        /* \"#utility.yul\":9975:9979   */\n      0x20\n        /* \"#utility.yul\":9970:9973   */\n      dup7\n        /* \"#utility.yul\":9966:9980   */\n      add\n        /* \"#utility.yul\":9959:9963   */\n      0x20\n        /* \"#utility.yul\":9952:9957   */\n      dup7\n        /* \"#utility.yul\":9948:9964   */\n      add\n        /* \"#utility.yul\":9926:9989   */\n      tag_477\n      jump\t// in\n    tag_519:\n        /* \"#utility.yul\":10043:10045   */\n      0x1f\n        /* \"#utility.yul\":10022:10037   */\n      add\n      not(0x1f)\n        /* \"#utility.yul\":10018:10047   */\n      and\n        /* \"#utility.yul\":10009:10048   */\n      swap3\n      swap1\n      swap3\n      add\n        /* \"#utility.yul\":10050:10054   */\n      0x20\n        /* \"#utility.yul\":10005:10055   */\n      add\n      swap3\n        /* \"#utility.yul\":9853:10061   */\n      swap2\n      pop\n      pop\n      jump\t// out\n        /* \"#utility.yul\":10066:10497   */\n    tag_117:\n        /* \"#utility.yul\":10319:10321   */\n      0x60\n        /* \"#utility.yul\":10315:10330   */\n      swap4\n      dup5\n      shl\n      not(0xffffffffffffffffffffffff)\n        /* \"#utility.yul\":10311:10335   */\n      swap1\n      dup2\n      and\n        /* \"#utility.yul\":10299:10336   */\n      dup3\n      mstore\n        /* \"#utility.yul\":10392:10395   */\n      0xe8\n        /* \"#utility.yul\":10370:10386   */\n      swap4\n      swap1\n      swap4\n      shl\n      not(sub(shl(0xe8, 0x01), 0x01))\n        /* \"#utility.yul\":10366:10407   */\n      and\n        /* \"#utility.yul\":10361:10363   */\n      0x14\n        /* \"#utility.yul\":10352:10364   */\n      dup3\n      add\n        /* \"#utility.yul\":10345:10408   */\n      mstore\n        /* \"#utility.yul\":10442:10457   */\n      swap3\n      shl\n        /* \"#utility.yul\":10438:10462   */\n      and\n        /* \"#utility.yul\":10433:10435   */\n      0x17\n        /* \"#utility.yul\":10424:10436   */\n      dup3\n      add\n        /* \"#utility.yul\":10417:10463   */\n      mstore\n        /* \"#utility.yul\":10488:10490   */\n      0x2b\n        /* \"#utility.yul\":10479:10491   */\n      add\n      swap1\n        /* \"#utility.yul\":10239:10497   */\n      jump\t// out\n        /* \"#utility.yul\":10502:10775   */\n    tag_173:\n      0x00\n        /* \"#utility.yul\":10685:10691   */\n      dup3\n        /* \"#utility.yul\":10677:10683   */\n      dup5\n        /* \"#utility.yul\":10672:10675   */\n      dup4\n        /* \"#utility.yul\":10659:10692   */\n      calldatacopy\n        /* \"#utility.yul\":10711:10727   */\n      swap2\n      add\n        /* \"#utility.yul\":10736:10751   */\n      swap1\n      dup2\n      mstore\n        /* \"#utility.yul\":10711:10727   */\n      swap2\n        /* \"#utility.yul\":10649:10775   */\n      swap1\n      pop\n      jump\t// out\n        /* \"#utility.yul\":10780:10983   */\n    tag_46:\n      sub(shl(0xa0, 0x01), 0x01)\n        /* \"#utility.yul\":10944:10976   */\n      swap2\n      swap1\n      swap2\n      and\n        /* \"#utility.yul\":10926:10977   */\n      dup2\n      mstore\n        /* \"#utility.yul\":10914:10916   */\n      0x20\n        /* \"#utility.yul\":10899:10917   */\n      add\n      swap1\n        /* \"#utility.yul\":10881:10983   */\n      jump\t// out\n        /* \"#utility.yul\":10988:11558   */\n    tag_307:\n      sub(shl(0xa0, 0x01), 0x01)\n        /* \"#utility.yul\":11277:11292   */\n      dup7\n      dup2\n      and\n        /* \"#utility.yul\":11259:11293   */\n      dup3\n      mstore\n        /* \"#utility.yul\":11336:11350   */\n      dup6\n      iszero\n        /* \"#utility.yul\":11329:11351   */\n      iszero\n        /* \"#utility.yul\":11324:11326   */\n      0x20\n        /* \"#utility.yul\":11309:11327   */\n      dup4\n      add\n        /* \"#utility.yul\":11302:11352   */\n      mstore\n        /* \"#utility.yul\":11383:11385   */\n      0x40\n        /* \"#utility.yul\":11368:11386   */\n      dup3\n      add\n        /* \"#utility.yul\":11361:11395   */\n      dup6\n      swap1\n      mstore\n        /* \"#utility.yul\":11431:11446   */\n      dup4\n      and\n        /* \"#utility.yul\":11426:11428   */\n      0x60\n        /* \"#utility.yul\":11411:11429   */\n      dup3\n      add\n        /* \"#utility.yul\":11404:11447   */\n      mstore\n        /* \"#utility.yul\":11239:11242   */\n      0xa0\n        /* \"#utility.yul\":11478:11481   */\n      0x80\n        /* \"#utility.yul\":11463:11482   */\n      dup3\n      add\n        /* \"#utility.yul\":11456:11488   */\n      dup2\n      swap1\n      mstore\n        /* \"#utility.yul\":10988:11558   */\n      0x00\n      swap1\n        /* \"#utility.yul\":11505:11552   */\n      tag_524\n      swap1\n        /* \"#utility.yul\":11532:11551   */\n      dup4\n      add\n        /* \"#utility.yul\":11524:11530   */\n      dup5\n        /* \"#utility.yul\":11505:11552   */\n      tag_517\n      jump\t// in\n    tag_524:\n        /* \"#utility.yul\":11497:11552   */\n      swap8\n        /* \"#utility.yul\":11211:11558   */\n      swap7\n      pop\n      pop\n      pop\n      pop\n      pop\n      pop\n      pop\n      jump\t// out\n        /* \"#utility.yul\":11563:12369   */\n    tag_59:\n      0x00\n        /* \"#utility.yul\":11752:11754   */\n      0x20\n        /* \"#utility.yul\":11792:11794   */\n      dup1\n        /* \"#utility.yul\":11781:11790   */\n      dup4\n        /* \"#utility.yul\":11777:11795   */\n      add\n        /* \"#utility.yul\":11822:11824   */\n      dup2\n        /* \"#utility.yul\":11811:11820   */\n      dup5\n        /* \"#utility.yul\":11804:11825   */\n      mstore\n        /* \"#utility.yul\":11845:11851   */\n      dup1\n        /* \"#utility.yul\":11880:11886   */\n      dup6\n        /* \"#utility.yul\":11874:11887   */\n      mload\n        /* \"#utility.yul\":11911:11917   */\n      dup1\n        /* \"#utility.yul\":11903:11909   */\n      dup4\n        /* \"#utility.yul\":11896:11918   */\n      mstore\n        /* \"#utility.yul\":11949:11951   */\n      0x40\n        /* \"#utility.yul\":11938:11947   */\n      dup7\n        /* \"#utility.yul\":11934:11952   */\n      add\n        /* \"#utility.yul\":11927:11952   */\n      swap2\n      pop\n        /* \"#utility.yul\":12012:12014   */\n      0x40\n        /* \"#utility.yul\":12006:12008   */\n      dup5\n        /* \"#utility.yul\":11998:12004   */\n      dup3\n        /* \"#utility.yul\":11994:12009   */\n      mul\n        /* \"#utility.yul\":11983:11992   */\n      dup8\n        /* \"#utility.yul\":11979:12010   */\n      add\n        /* \"#utility.yul\":11975:12015   */\n      add\n        /* \"#utility.yul\":11961:12015   */\n      swap3\n      pop\n        /* \"#utility.yul\":12050:12052   */\n      dup4\n        /* \"#utility.yul\":12042:12048   */\n      dup8\n        /* \"#utility.yul\":12038:12053   */\n      add\n        /* \"#utility.yul\":12071:12075   */\n      dup6\n        /* \"#utility.yul\":12084:12340   */\n    tag_526:\n        /* \"#utility.yul\":12098:12104   */\n      dup3\n        /* \"#utility.yul\":12095:12096   */\n      dup2\n        /* \"#utility.yul\":12092:12105   */\n      lt\n        /* \"#utility.yul\":12084:12340   */\n      iszero\n      tag_528\n      jumpi\n        /* \"#utility.yul\":12191:12193   */\n      0x3f\n        /* \"#utility.yul\":12187:12194   */\n      not\n        /* \"#utility.yul\":12175:12184   */\n      dup9\n        /* \"#utility.yul\":12167:12173   */\n      dup7\n        /* \"#utility.yul\":12163:12185   */\n      sub\n        /* \"#utility.yul\":12159:12195   */\n      add\n        /* \"#utility.yul\":12154:12157   */\n      dup5\n        /* \"#utility.yul\":12147:12196   */\n      mstore\n        /* \"#utility.yul\":12219:12260   */\n      tag_529\n        /* \"#utility.yul\":12253:12259   */\n      dup6\n        /* \"#utility.yul\":12244:12250   */\n      dup4\n        /* \"#utility.yul\":12238:12251   */\n      mload\n        /* \"#utility.yul\":12219:12260   */\n      tag_517\n      jump\t// in\n    tag_529:\n        /* \"#utility.yul\":12209:12260   */\n      swap5\n      pop\n        /* \"#utility.yul\":12318:12330   */\n      swap3\n      dup6\n      add\n      swap3\n        /* \"#utility.yul\":12283:12298   */\n      swap1\n      dup6\n      add\n      swap1\n        /* \"#utility.yul\":12120:12121   */\n      0x01\n        /* \"#utility.yul\":12113:12122   */\n      add\n        /* \"#utility.yul\":12084:12340   */\n      jump(tag_526)\n    tag_528:\n      pop\n        /* \"#utility.yul\":12357:12363   */\n      swap3\n      swap8\n        /* \"#utility.yul\":11732:12369   */\n      swap7\n      pop\n      pop\n      pop\n      pop\n      pop\n      pop\n      pop\n      jump\t// out\n        /* \"#utility.yul\":12374:12595   */\n    tag_182:\n      0x00\n        /* \"#utility.yul\":12523:12525   */\n      0x20\n        /* \"#utility.yul\":12512:12521   */\n      dup3\n        /* \"#utility.yul\":12505:12526   */\n      mstore\n        /* \"#utility.yul\":12543:12589   */\n      tag_441\n        /* \"#utility.yul\":12585:12587   */\n      0x20\n        /* \"#utility.yul\":12574:12583   */\n      dup4\n        /* \"#utility.yul\":12570:12588   */\n      add\n        /* \"#utility.yul\":12562:12568   */\n      dup5\n        /* \"#utility.yul\":12543:12589   */\n      tag_517\n      jump\t// in\n        /* \"#utility.yul\":12600:12942   */\n    tag_224:\n        /* \"#utility.yul\":12802:12804   */\n      0x20\n        /* \"#utility.yul\":12784:12805   */\n      dup1\n      dup3\n      mstore\n        /* \"#utility.yul\":12841:12843   */\n      0x12\n        /* \"#utility.yul\":12821:12839   */\n      swap1\n      dup3\n      add\n        /* \"#utility.yul\":12814:12844   */\n      mstore\n      shl(0x72, 0x151bdbc81b5d58da081c995c5d595cdd1959)\n        /* \"#utility.yul\":12875:12877   */\n      0x40\n        /* \"#utility.yul\":12860:12878   */\n      dup3\n      add\n        /* \"#utility.yul\":12853:12901   */\n      mstore\n        /* \"#utility.yul\":12933:12935   */\n      0x60\n        /* \"#utility.yul\":12918:12936   */\n      add\n      swap1\n        /* \"#utility.yul\":12774:12942   */\n      jump\t// out\n        /* \"#utility.yul\":12947:13290   */\n    tag_121:\n        /* \"#utility.yul\":13149:13151   */\n      0x20\n        /* \"#utility.yul\":13131:13152   */\n      dup1\n      dup3\n      mstore\n        /* \"#utility.yul\":13188:13190   */\n      0x13\n        /* \"#utility.yul\":13168:13186   */\n      swap1\n      dup3\n      add\n        /* \"#utility.yul\":13161:13191   */\n      mstore\n      shl(0x6a, 0x151bdbc81b1a5d1d1b19481c9958d95a5d9959)\n        /* \"#utility.yul\":13222:13224   */\n      0x40\n        /* \"#utility.yul\":13207:13225   */\n      dup3\n      add\n        /* \"#utility.yul\":13200:13249   */\n      mstore\n        /* \"#utility.yul\":13281:13283   */\n      0x60\n        /* \"#utility.yul\":13266:13284   */\n      add\n      swap1\n        /* \"#utility.yul\":13121:13290   */\n      jump\t// out\n        /* \"#utility.yul\":13295:13769   */\n    tag_305:\n      0x00\n        /* \"#utility.yul\":13492:13494   */\n      0x20\n        /* \"#utility.yul\":13481:13490   */\n      dup3\n        /* \"#utility.yul\":13474:13495   */\n      mstore\n        /* \"#utility.yul\":13530:13536   */\n      dup3\n        /* \"#utility.yul\":13524:13537   */\n      mload\n        /* \"#utility.yul\":13573:13577   */\n      0x40\n        /* \"#utility.yul\":13568:13570   */\n      0x20\n        /* \"#utility.yul\":13557:13566   */\n      dup5\n        /* \"#utility.yul\":13553:13571   */\n      add\n        /* \"#utility.yul\":13546:13578   */\n      mstore\n        /* \"#utility.yul\":13601:13653   */\n      tag_535\n        /* \"#utility.yul\":13649:13651   */\n      0x60\n        /* \"#utility.yul\":13638:13647   */\n      dup5\n        /* \"#utility.yul\":13634:13652   */\n      add\n        /* \"#utility.yul\":13620:13632   */\n      dup3\n        /* \"#utility.yul\":13601:13653   */\n      tag_517\n      jump\t// in\n    tag_535:\n        /* \"#utility.yul\":13713:13715   */\n      0x20\n        /* \"#utility.yul\":13701:13716   */\n      swap5\n      swap1\n      swap5\n      add\n        /* \"#utility.yul\":13695:13717   */\n      mload\n      sub(shl(0xa0, 0x01), 0x01)\n        /* \"#utility.yul\":13691:13739   */\n      and\n        /* \"#utility.yul\":13684:13688   */\n      0x40\n        /* \"#utility.yul\":13669:13689   */\n      swap4\n      swap1\n      swap4\n      add\n        /* \"#utility.yul\":13662:13740   */\n      swap3\n      swap1\n      swap3\n      mstore\n      pop\n        /* \"#utility.yul\":13587:13653   */\n      swap1\n      swap2\n        /* \"#utility.yul\":13464:13769   */\n      swap1\n      pop\n      jump\t// out\n        /* \"#utility.yul\":13774:13951   */\n    tag_33:\n        /* \"#utility.yul\":13920:13945   */\n      swap1\n      dup2\n      mstore\n        /* \"#utility.yul\":13908:13910   */\n      0x20\n        /* \"#utility.yul\":13893:13911   */\n      add\n      swap1\n        /* \"#utility.yul\":13875:13951   */\n      jump\t// out\n        /* \"#utility.yul\":13956:14489   */\n    tag_171:\n      0x00\n      dup1\n        /* \"#utility.yul\":14099:14110   */\n      dup4\n        /* \"#utility.yul\":14086:14111   */\n      calldataload\n        /* \"#utility.yul\":14193:14195   */\n      0x1e\n        /* \"#utility.yul\":14189:14196   */\n      not\n        /* \"#utility.yul\":14178:14186   */\n      dup5\n        /* \"#utility.yul\":14162:14176   */\n      calldatasize\n        /* \"#utility.yul\":14158:14187   */\n      sub\n        /* \"#utility.yul\":14154:14197   */\n      add\n        /* \"#utility.yul\":14134:14152   */\n      dup2\n        /* \"#utility.yul\":14130:14198   */\n      slt\n        /* \"#utility.yul\":14120:14122   */\n      tag_538\n      jumpi\n        /* \"#utility.yul\":14215:14219   */\n      dup3\n        /* \"#utility.yul\":14209:14213   */\n      dup4\n        /* \"#utility.yul\":14202:14220   */\n      revert\n        /* \"#utility.yul\":14120:14122   */\n    tag_538:\n        /* \"#utility.yul\":14245:14278   */\n      dup4\n      add\n        /* \"#utility.yul\":14297:14317   */\n      dup1\n      calldataload\n      swap2\n      pop\n        /* \"#utility.yul\":14340:14358   */\n      0xffffffffffffffff\n        /* \"#utility.yul\":14329:14359   */\n      dup3\n      gt\n        /* \"#utility.yul\":14326:14328   */\n      iszero\n      tag_539\n      jumpi\n        /* \"#utility.yul\":14375:14379   */\n      dup3\n        /* \"#utility.yul\":14369:14373   */\n      dup4\n        /* \"#utility.yul\":14362:14380   */\n      revert\n        /* \"#utility.yul\":14326:14328   */\n    tag_539:\n        /* \"#utility.yul\":14411:14415   */\n      0x20\n        /* \"#utility.yul\":14399:14416   */\n      add\n      swap2\n      pop\n        /* \"#utility.yul\":14442:14456   */\n      calldatasize\n        /* \"#utility.yul\":14438:14465   */\n      dup2\n      swap1\n      sub\n        /* \"#utility.yul\":14428:14466   */\n      dup3\n      sgt\n        /* \"#utility.yul\":14425:14427   */\n      iszero\n      tag_540\n      jumpi\n        /* \"#utility.yul\":14479:14480   */\n      0x00\n        /* \"#utility.yul\":14476:14477   */\n      dup1\n        /* \"#utility.yul\":14469:14481   */\n      revert\n        /* \"#utility.yul\":14425:14427   */\n    tag_540:\n        /* \"#utility.yul\":14050:14489   */\n      swap3\n      pop\n      swap3\n      swap1\n      pop\n      jump\t// out\n        /* \"#utility.yul\":14494:14736   */\n    tag_434:\n        /* \"#utility.yul\":14564:14566   */\n      0x40\n        /* \"#utility.yul\":14558:14567   */\n      mload\n        /* \"#utility.yul\":14594:14611   */\n      dup2\n      dup2\n      add\n        /* \"#utility.yul\":14641:14659   */\n      0xffffffffffffffff\n        /* \"#utility.yul\":14626:14660   */\n      dup2\n      gt\n        /* \"#utility.yul\":14662:14684   */\n      dup3\n      dup3\n      lt\n        /* \"#utility.yul\":14623:14685   */\n      or\n        /* \"#utility.yul\":14620:14622   */\n      iszero\n      tag_542\n      jumpi\n        /* \"#utility.yul\":14688:14697   */\n      invalid\n        /* \"#utility.yul\":14620:14622   */\n    tag_542:\n        /* \"#utility.yul\":14715:14717   */\n      0x40\n        /* \"#utility.yul\":14708:14730   */\n      mstore\n        /* \"#utility.yul\":14538:14736   */\n      swap2\n      swap1\n      pop\n      jump\t// out\n        /* \"#utility.yul\":14741:14922   */\n    tag_433:\n      0x00\n        /* \"#utility.yul\":14824:14842   */\n      0xffffffffffffffff\n        /* \"#utility.yul\":14816:14822   */\n      dup3\n        /* \"#utility.yul\":14813:14843   */\n      gt\n        /* \"#utility.yul\":14810:14812   */\n      iszero\n      tag_544\n      jumpi\n        /* \"#utility.yul\":14846:14855   */\n      invalid\n        /* \"#utility.yul\":14810:14812   */\n    tag_544:\n      pop\n        /* \"#utility.yul\":14905:14907   */\n      0x1f\n        /* \"#utility.yul\":14882:14899   */\n      add\n      not(0x1f)\n        /* \"#utility.yul\":14878:14909   */\n      and\n        /* \"#utility.yul\":14911:14915   */\n      0x20\n        /* \"#utility.yul\":14874:14916   */\n      add\n      swap1\n        /* \"#utility.yul\":14800:14922   */\n      jump\t// out\n        /* \"#utility.yul\":14927:15185   */\n    tag_477:\n        /* \"#utility.yul\":14999:15000   */\n      0x00\n        /* \"#utility.yul\":15009:15122   */\n    tag_546:\n        /* \"#utility.yul\":15023:15029   */\n      dup4\n        /* \"#utility.yul\":15020:15021   */\n      dup2\n        /* \"#utility.yul\":15017:15030   */\n      lt\n        /* \"#utility.yul\":15009:15122   */\n      iszero\n      tag_548\n      jumpi\n        /* \"#utility.yul\":15099:15110   */\n      dup2\n      dup2\n      add\n        /* \"#utility.yul\":15093:15111   */\n      mload\n        /* \"#utility.yul\":15080:15091   */\n      dup4\n      dup3\n      add\n        /* \"#utility.yul\":15073:15112   */\n      mstore\n        /* \"#utility.yul\":15045:15047   */\n      0x20\n        /* \"#utility.yul\":15038:15048   */\n      add\n        /* \"#utility.yul\":15009:15122   */\n      jump(tag_546)\n    tag_548:\n        /* \"#utility.yul\":15140:15146   */\n      dup4\n        /* \"#utility.yul\":15137:15138   */\n      dup2\n        /* \"#utility.yul\":15134:15147   */\n      gt\n        /* \"#utility.yul\":15131:15133   */\n      iszero\n      tag_232\n      jumpi\n      pop\n      pop\n        /* \"#utility.yul\":15175:15176   */\n      0x00\n        /* \"#utility.yul\":15157:15173   */\n      swap2\n      add\n        /* \"#utility.yul\":15150:15177   */\n      mstore\n        /* \"#utility.yul\":14980:15185   */\n      jump\t// out\n        /* \"#utility.yul\":15190:15323   */\n    tag_427:\n      sub(shl(0xa0, 0x01), 0x01)\n        /* \"#utility.yul\":15267:15298   */\n      dup2\n      and\n        /* \"#utility.yul\":15257:15299   */\n      dup2\n      eq\n        /* \"#utility.yul\":15247:15249   */\n      tag_551\n      jumpi\n        /* \"#utility.yul\":15313:15314   */\n      0x00\n        /* \"#utility.yul\":15310:15311   */\n      dup1\n        /* \"#utility.yul\":15303:15315   */\n      revert\n        /* \"#utility.yul\":15247:15249   */\n    tag_551:\n        /* \"#utility.yul\":15237:15323   */\n      pop\n      jump\t// out\n\n    auxdata: 0xa2646970667358221220074899082b56eba06449a9f3e47c770ee9436e6caa58ba0bec6074cd9c700a1264736f6c63430007060033\n}\n",
				"bytecode": {
					"linkReferences": {},
					"object": "60c06040526000196000553480156200001757600080fd5b50604051620027a1380380620027a18339810160408190526200003a9162000076565b6001600160601b0319606092831b8116608052911b1660a052620000ad565b80516001600160a01b03811681146200007157600080fd5b919050565b6000806040838503121562000089578182fd5b620000948362000059565b9150620000a46020840162000059565b90509250929050565b60805160601c60a05160601c612698620001096000398061011252806104c752806105b2528061063f528061067f528061076a5280611721528061176752806117db525080610ba3528061109e52806118b652506126986000f3fe6080604052600436106101025760003560e01c8063c04b8d5911610095578063df2ab5bb11610064578063df2ab5bb14610284578063e0e189a014610297578063f28c0498146102aa578063f3995c67146102bd578063fa461e33146102d057610172565b8063c04b8d5914610236578063c2e3140a14610249578063c45a01551461025c578063db3e21981461027157610172565b80634aa4a4fc116100d15780634aa4a4fc146101ce5780639b2c0a37146101f0578063a4a78f0c14610203578063ac9650d81461021657610172565b806312210e8a14610177578063414bf3891461017f5780634659a494146101a857806349404b7c146101bb57610172565b3661017257336001600160a01b037f00000000000000000000000000000000000000000000000000000000000000001614610170576040805162461bcd60e51b81526020600482015260096024820152684e6f7420574554483960b81b604482015290519081900360640190fd5b005b600080fd5b6101706102f0565b61019261018d36600461222a565b610302565b60405161019f9190612583565b60405180910390f35b6101706101b6366004611fa8565b610429565b6101706101c9366004612331565b6104c3565b3480156101da57600080fd5b506101e361063d565b60405161019f9190612420565b6101706101fe366004612360565b610661565b610170610211366004611fa8565b61082d565b610229610224366004612008565b6108be565b60405161019f919061247a565b61019261024436600461217f565b6109fe565b610170610257366004611fa8565b610b12565b34801561026857600080fd5b506101e3610ba1565b61019261027f36600461222a565b610bc5565b610170610292366004611f09565b610cec565b6101706102a5366004611f4a565b610dca565b6101926102b8366004612246565b610ef1565b6101706102cb366004611fa8565b610fe7565b3480156102dc57600080fd5b506101706102eb36600461209a565b611059565b471561030057610300334761116c565b565b600081608001358061031261125b565b111561035b576040805162461bcd60e51b8152602060048201526013602482015272151c985b9cd858dd1a5bdb881d1bdbc81bdb19606a1b604482015290519081900360640190fd5b6103f460a08401356103736080860160608701611ee6565b610384610100870160e08801611ee6565b604080518082019091528061039c60208a018a611ee6565b6103ac60608b0160408c0161230e565b6103bc60408c0160208d01611ee6565b6040516020016103ce939291906123d5565b6040516020818303038152906040528152602001336001600160a01b031681525061125f565b91508260c001358210156104235760405162461bcd60e51b815260040161041a90612519565b60405180910390fd5b50919050565b604080516323f2ebc360e21b815233600482015230602482015260448101879052606481018690526001608482015260ff851660a482015260c4810184905260e4810183905290516001600160a01b03881691638fcbaf0c9161010480830192600092919082900301818387803b1580156104a357600080fd5b505af11580156104b7573d6000803e3d6000fd5b50505050505050505050565b60007f00000000000000000000000000000000000000000000000000000000000000006001600160a01b03166370a08231306040518263ffffffff1660e01b815260040180826001600160a01b0316815260200191505060206040518083038186803b15801561053257600080fd5b505afa158015610546573d6000803e3d6000fd5b505050506040513d602081101561055c57600080fd5b50519050828110156105aa576040805162461bcd60e51b8152602060048201526012602482015271496e73756666696369656e7420574554483960701b604482015290519081900360640190fd5b8015610638577f00000000000000000000000000000000000000000000000000000000000000006001600160a01b0316632e1a7d4d826040518263ffffffff1660e01b815260040180828152602001915050600060405180830381600087803b15801561061657600080fd5b505af115801561062a573d6000803e3d6000fd5b50505050610638828261116c565b505050565b7f000000000000000000000000000000000000000000000000000000000000000081565b600082118015610672575060648211155b61067b57600080fd5b60007f00000000000000000000000000000000000000000000000000000000000000006001600160a01b03166370a08231306040518263ffffffff1660e01b815260040180826001600160a01b0316815260200191505060206040518083038186803b1580156106ea57600080fd5b505afa1580156106fe573d6000803e3d6000fd5b505050506040513d602081101561071457600080fd5b5051905084811015610762576040805162461bcd60e51b8152602060048201526012602482015271496e73756666696369656e7420574554483960701b604482015290519081900360640190fd5b8015610826577f00000000000000000000000000000000000000000000000000000000000000006001600160a01b0316632e1a7d4d826040518263ffffffff1660e01b815260040180828152602001915050600060405180830381600087803b1580156107ce57600080fd5b505af11580156107e2573d6000803e3d6000fd5b5050505060006127106107fe85846113b190919063ffffffff16565b8161080557fe5b049050801561081857610818838261116c565b6108248582840361116c565b505b5050505050565b60408051636eb1769f60e11b81523360048201523060248201529051600019916001600160a01b0389169163dd62ed3e91604480820192602092909190829003018186803b15801561087e57600080fd5b505afa158015610892573d6000803e3d6000fd5b505050506040513d60208110156108a857600080fd5b5051101561082457610824868686868686610429565b60608167ffffffffffffffff811180156108d757600080fd5b5060405190808252806020026020018201604052801561090b57816020015b60608152602001906001900390816108f65790505b50905060005b828110156109f7576000803086868581811061092957fe5b905060200281019061093b919061258c565b604051610949929190612410565b600060405180830381855af49150503d8060008114610984576040519150601f19603f3d011682016040523d82523d6000602084013e610989565b606091505b5091509150816109d5576044815110156109a257600080fd5b600481019050808060200190518101906109bc9190612115565b60405162461bcd60e51b815260040161041a91906124da565b808484815181106109e257fe5b60209081029190910101525050600101610911565b5092915050565b6000816040015180610a0e61125b565b1115610a57576040805162461bcd60e51b8152602060048201526013602482015272151c985b9cd858dd1a5bdb881d1bdbc81bdb19606a1b604482015290519081900360640190fd5b335b6000610a6885600001516113db565b9050610ab4856060015182610a81578660200151610a83565b305b60006040518060400160405280610a9d8b600001516113e7565b8152602001876001600160a01b031681525061125f565b60608601528015610ad4578451309250610acd906113f6565b8552610ae1565b8460600151935050610ae7565b50610a59565b8360800151831015610b0b5760405162461bcd60e51b815260040161041a90612519565b5050919050565b60408051636eb1769f60e11b8152336004820152306024820152905186916001600160a01b0389169163dd62ed3e91604480820192602092909190829003018186803b158015610b6157600080fd5b505afa158015610b75573d6000803e3d6000fd5b505050506040513d6020811015610b8b57600080fd5b5051101561082457610824868686868686610fe7565b7f000000000000000000000000000000000000000000000000000000000000000081565b6000816080013580610bd561125b565b1115610c1e576040805162461bcd60e51b8152602060048201526013602482015272151c985b9cd858dd1a5bdb881d1bdbc81bdb19606a1b604482015290519081900360640190fd5b610cba60a0840135610c366080860160608701611ee6565b610c47610100870160e08801611ee6565b6040518060400160405280886020016020810190610c659190611ee6565b610c7560608b0160408c0161230e565b610c8260208c018c611ee6565b604051602001610c94939291906123d5565b6040516020818303038152906040528152602001336001600160a01b031681525061140d565b91508260c00135821115610ce05760405162461bcd60e51b815260040161041a906124ed565b50600019600055919050565b6000836001600160a01b03166370a08231306040518263ffffffff1660e01b815260040180826001600160a01b0316815260200191505060206040518083038186803b158015610d3b57600080fd5b505afa158015610d4f573d6000803e3d6000fd5b505050506040513d6020811015610d6557600080fd5b5051905082811015610db3576040805162461bcd60e51b815260206004820152601260248201527124b739bab33334b1b4b2b73a103a37b5b2b760711b604482015290519081900360640190fd5b8015610dc457610dc4848383611588565b50505050565b600082118015610ddb575060648211155b610de457600080fd5b6000856001600160a01b03166370a08231306040518263ffffffff1660e01b815260040180826001600160a01b0316815260200191505060206040518083038186803b158015610e3357600080fd5b505afa158015610e47573d6000803e3d6000fd5b505050506040513d6020811015610e5d57600080fd5b5051905084811015610eab576040805162461bcd60e51b815260206004820152601260248201527124b739bab33334b1b4b2b73a103a37b5b2b760711b604482015290519081900360640190fd5b8015610824576000612710610ec083866113b1565b81610ec757fe5b0490508015610edb57610edb878483611588565b610ee88786838503611588565b50505050505050565b6000816040013580610f0161125b565b1115610f4a576040805162461bcd60e51b8152602060048201526013602482015272151c985b9cd858dd1a5bdb881d1bdbc81bdb19606a1b604482015290519081900360640190fd5b610fbd6060840135610f626040860160208701611ee6565b6040805180820190915260009080610f7a898061258c565b8080601f0160208091040260200160405190810160405280939291908181526020018383808284376000920191909152505050908252503360209091015261140d565b5060005491508260800135821115610ce05760405162461bcd60e51b815260040161041a906124ed565b6040805163d505accf60e01b8152336004820152306024820152604481018790526064810186905260ff8516608482015260a4810184905260c4810183905290516001600160a01b0388169163d505accf9160e480830192600092919082900301818387803b1580156104a357600080fd5b60008413806110685750600083135b61107157600080fd5b600061107f8284018461227e565b9050600080600061109384600001516116cf565b9250925092506110c57f0000000000000000000000000000000000000000000000000000000000000000848484611700565b5060008060008a136110ec57846001600160a01b0316846001600160a01b03161089611103565b836001600160a01b0316856001600160a01b0316108a5b9150915081156111225761111d858760200151338461171f565b6104b7565b855161112d906113db565b1561115257855161113d906113f6565b865261114c813360008961140d565b506104b7565b806000819055508394506104b7858760200151338461171f565b604080516000808252602082019092526001600160a01b0384169083906040518082805190602001908083835b602083106111b85780518252601f199092019160209182019101611199565b6001836020036101000a03801982511681845116808217855250505050505090500191505060006040518083038185875af1925050503d806000811461121a576040519150601f19603f3d011682016040523d82523d6000602084013e61121f565b606091505b5050905080610638576040805162461bcd60e51b815260206004820152600360248201526253544560e81b604482015290519081900360640190fd5b4290565b60006001600160a01b038416611273573093505b600080600061128585600001516116cf565b919450925090506001600160a01b03808316908416106000806112a98686866118af565b6001600160a01b031663128acb088b856112c28f6118ed565b6001600160a01b038e16156112d7578d6112fd565b876112f65773fffd8963efd1fc6a506488495d951d5263988d256112fd565b6401000276a45b8d60405160200161130e9190612546565b6040516020818303038152906040526040518663ffffffff1660e01b815260040161133d959493929190612434565b6040805180830381600087803b15801561135657600080fd5b505af115801561136a573d6000803e3d6000fd5b505050506040513d601f19601f8201168201806040525081019061138e9190612077565b915091508261139d578161139f565b805b6000039b9a5050505050505050505050565b60008215806113cc575050818102818382816113c957fe5b04145b6113d557600080fd5b92915050565b8051604211155b919050565b60606113d5826000602b611903565b80516060906113d590839060179060161901611903565b60006001600160a01b038416611421573093505b600080600061143385600001516116cf565b919450925090506001600160a01b03808416908316106000806114578587866118af565b6001600160a01b031663128acb088b856114708f6118ed565b6000036001600160a01b038e1615611488578d6114ae565b876114a75773fffd8963efd1fc6a506488495d951d5263988d256114ae565b6401000276a45b8d6040516020016114bf9190612546565b6040516020818303038152906040526040518663ffffffff1660e01b81526004016114ee959493929190612434565b6040805180830381600087803b15801561150757600080fd5b505af115801561151b573d6000803e3d6000fd5b505050506040513d601f19601f8201168201806040525081019061153f9190612077565b9150915060008361155457818360000361155a565b82826000035b90985090506001600160a01b038a16611579578b811461157957600080fd5b50505050505050949350505050565b604080516001600160a01b038481166024830152604480830185905283518084039091018152606490920183526020820180516001600160e01b031663a9059cbb60e01b1781529251825160009485949389169392918291908083835b602083106116045780518252601f1990920191602091820191016115e5565b6001836020036101000a0380198251168184511680821785525050505050509050019150506000604051808303816000865af19150503d8060008114611666576040519150601f19603f3d011682016040523d82523d6000602084013e61166b565b606091505b5091509150818015611699575080511580611699575080806020019051602081101561169657600080fd5b50515b610826576040805162461bcd60e51b815260206004820152600260248201526114d560f21b604482015290519081900360640190fd5b600080806116dd8482611a54565b92506116ea846014611b04565b90506116f7846017611a54565b91509193909250565b600061171685611711868686611bab565b611c01565b95945050505050565b7f00000000000000000000000000000000000000000000000000000000000000006001600160a01b0316846001600160a01b03161480156117605750804710155b15611882577f00000000000000000000000000000000000000000000000000000000000000006001600160a01b031663d0e30db0826040518263ffffffff1660e01b81526004016000604051808303818588803b1580156117c057600080fd5b505af11580156117d4573d6000803e3d6000fd5b50505050507f00000000000000000000000000000000000000000000000000000000000000006001600160a01b031663a9059cbb83836040518363ffffffff1660e01b815260040180836001600160a01b0316815260200182815260200192505050602060405180830381600087803b15801561185057600080fd5b505af1158015611864573d6000803e3d6000fd5b505050506040513d602081101561187a57600080fd5b50610dc49050565b6001600160a01b0383163014156118a35761189e848383611588565b610dc4565b610dc484848484611c24565b60006118e57f00000000000000000000000000000000000000000000000000000000000000006118e0868686611bab565b611d74565b949350505050565b6000600160ff1b82106118ff57600080fd5b5090565b60608182601f01101561194e576040805162461bcd60e51b815260206004820152600e60248201526d736c6963655f6f766572666c6f7760901b604482015290519081900360640190fd5b828284011015611996576040805162461bcd60e51b815260206004820152600e60248201526d736c6963655f6f766572666c6f7760901b604482015290519081900360640190fd5b818301845110156119e2576040805162461bcd60e51b8152602060048201526011602482015270736c6963655f6f75744f66426f756e647360781b604482015290519081900360640190fd5b606082158015611a015760405191506000825260208201604052611a4b565b6040519150601f8416801560200281840101858101878315602002848b0101015b81831015611a3a578051835260209283019201611a22565b5050858452601f01601f1916604052505b50949350505050565b600081826014011015611aa3576040805162461bcd60e51b8152602060048201526012602482015271746f416464726573735f6f766572666c6f7760701b604482015290519081900360640190fd5b8160140183511015611af4576040805162461bcd60e51b8152602060048201526015602482015274746f416464726573735f6f75744f66426f756e647360581b604482015290519081900360640190fd5b500160200151600160601b900490565b600081826003011015611b52576040805162461bcd60e51b8152602060048201526011602482015270746f55696e7432345f6f766572666c6f7760781b604482015290519081900360640190fd5b8160030183511015611ba2576040805162461bcd60e51b8152602060048201526014602482015273746f55696e7432345f6f75744f66426f756e647360601b604482015290519081900360640190fd5b50016003015190565b611bb3611e58565b826001600160a01b0316846001600160a01b03161115611bd1579192915b50604080516060810182526001600160a01b03948516815292909316602083015262ffffff169181019190915290565b6000611c0d8383611d74565b9050336001600160a01b038216146113d557600080fd5b604080516001600160a01b0385811660248301528481166044830152606480830185905283518084039091018152608490920183526020820180516001600160e01b03166323b872dd60e01b178152925182516000948594938a169392918291908083835b60208310611ca85780518252601f199092019160209182019101611c89565b6001836020036101000a0380198251168184511680821785525050505050509050019150506000604051808303816000865af19150503d8060008114611d0a576040519150601f19603f3d011682016040523d82523d6000602084013e611d0f565b606091505b5091509150818015611d3d575080511580611d3d5750808060200190516020811015611d3a57600080fd5b50515b610824576040805162461bcd60e51b815260206004820152600360248201526229aa2360e91b604482015290519081900360640190fd5b600081602001516001600160a01b031682600001516001600160a01b031610611d9c57600080fd5b50805160208083015160409384015184516001600160a01b0394851681850152939091168385015262ffffff166060808401919091528351808403820181526080840185528051908301206001600160f81b031960a085015294901b6bffffffffffffffffffffffff191660a183015260b58201939093527fe34f199b19b2b4f47f68442619d555527d244f78a3297ea89325f843f87b8b5460d5808301919091528251808303909101815260f5909101909152805191012090565b604080516060810182526000808252602082018190529181019190915290565b80356113e28161264a565b600082601f830112611e93578081fd5b8135611ea6611ea1826125fc565b6125d8565b818152846020838601011115611eba578283fd5b816020850160208301379081016020019190915292915050565b60006101008284031215610423578081fd5b600060208284031215611ef7578081fd5b8135611f028161264a565b9392505050565b600080600060608486031215611f1d578182fd5b8335611f288161264a565b9250602084013591506040840135611f3f8161264a565b809150509250925092565b600080600080600060a08688031215611f61578081fd5b8535611f6c8161264a565b9450602086013593506040860135611f838161264a565b9250606086013591506080860135611f9a8161264a565b809150509295509295909350565b60008060008060008060c08789031215611fc0578081fd5b8635611fcb8161264a565b95506020870135945060408701359350606087013560ff81168114611fee578182fd5b9598949750929560808101359460a0909101359350915050565b6000806020838503121561201a578182fd5b823567ffffffffffffffff80821115612031578384fd5b818501915085601f830112612044578384fd5b813581811115612052578485fd5b8660208083028501011115612065578485fd5b60209290920196919550909350505050565b60008060408385031215612089578182fd5b505080516020909101519092909150565b600080600080606085870312156120af578182fd5b8435935060208501359250604085013567ffffffffffffffff808211156120d4578384fd5b818701915087601f8301126120e7578384fd5b8135818111156120f5578485fd5b886020828501011115612106578485fd5b95989497505060200194505050565b600060208284031215612126578081fd5b815167ffffffffffffffff81111561213c578182fd5b8201601f8101841361214c578182fd5b805161215a611ea1826125fc565b81815285602083850101111561216e578384fd5b61171682602083016020860161261e565b600060208284031215612190578081fd5b813567ffffffffffffffff808211156121a7578283fd5b9083019060a082860312156121ba578283fd5b60405160a0810181811083821117156121cf57fe5b6040528235828111156121e0578485fd5b6121ec87828601611e83565b8252506121fb60208401611e78565b602082015260408301356040820152606083013560608201526080830135608082015280935050505092915050565b6000610100828403121561223c578081fd5b611f028383611ed4565b600060208284031215612257578081fd5b813567ffffffffffffffff81111561226d578182fd5b820160a08185031215611f02578182fd5b60006020828403121561228f578081fd5b813567ffffffffffffffff808211156122a6578283fd5b90830190604082860312156122b9578283fd5b6040516040810181811083821117156122ce57fe5b6040528235828111156122df578485fd5b6122eb87828601611e83565b825250602083013592506122fe8361264a565b6020810192909252509392505050565b60006020828403121561231f578081fd5b813562ffffff81168114611f02578182fd5b60008060408385031215612343578182fd5b8235915060208301356123558161264a565b809150509250929050565b60008060008060808587031215612375578182fd5b8435935060208501356123878161264a565b925060408501359150606085013561239e8161264a565b939692955090935050565b600081518084526123c181602086016020860161261e565b601f01601f19169290920160200192915050565b606093841b6bffffffffffffffffffffffff19908116825260e89390931b6001600160e81b0319166014820152921b166017820152602b0190565b6000828483379101908152919050565b6001600160a01b0391909116815260200190565b6001600160a01b0386811682528515156020830152604082018590528316606082015260a06080820181905260009061246f908301846123a9565b979650505050505050565b6000602080830181845280855180835260408601915060408482028701019250838701855b828110156124cd57603f198886030184526124bb8583516123a9565b9450928501929085019060010161249f565b5092979650505050505050565b600060208252611f0260208301846123a9565b602080825260129082015271151bdbc81b5d58da081c995c5d595cdd195960721b604082015260600190565b602080825260139082015272151bdbc81b1a5d1d1b19481c9958d95a5d9959606a1b604082015260600190565b60006020825282516040602084015261256260608401826123a9565b602094909401516001600160a01b0316604093909301929092525090919050565b90815260200190565b6000808335601e198436030181126125a2578283fd5b83018035915067ffffffffffffffff8211156125bc578283fd5b6020019150368190038213156125d157600080fd5b9250929050565b60405181810167ffffffffffffffff811182821017156125f457fe5b604052919050565b600067ffffffffffffffff82111561261057fe5b50601f01601f191660200190565b60005b83811015612639578181015183820152602001612621565b83811115610dc45750506000910152565b6001600160a01b038116811461265f57600080fd5b5056fea2646970667358221220074899082b56eba06449a9f3e47c770ee9436e6caa58ba0bec6074cd9c700a1264736f6c63430007060033",
					"opcodes": "PUSH1 0xC0 PUSH1 0x40 MSTORE PUSH1 0x0 NOT PUSH1 0x0 SSTORE CALLVALUE DUP1 ISZERO PUSH3 0x17 JUMPI PUSH1 0x0 DUP1 REVERT JUMPDEST POP PUSH1 0x40 MLOAD PUSH3 0x27A1 CODESIZE SUB DUP1 PUSH3 0x27A1 DUP4 CODECOPY DUP2 ADD PUSH1 0x40 DUP2 SWAP1 MSTORE PUSH3 0x3A SWAP2 PUSH3 0x76 JUMP JUMPDEST PUSH1 0x1 PUSH1 0x1 PUSH1 0x60 SHL SUB NOT PUSH1 0x60 SWAP3 DUP4 SHL DUP2 AND PUSH1 0x80 MSTORE SWAP2 SHL AND PUSH1 0xA0 MSTORE PUSH3 0xAD JUMP JUMPDEST DUP1 MLOAD PUSH1 0x1 PUSH1 0x1 PUSH1 0xA0 SHL SUB DUP2 AND DUP2 EQ PUSH3 0x71 JUMPI PUSH1 0x0 DUP1 REVERT JUMPDEST SWAP2 SWAP1 POP JUMP JUMPDEST PUSH1 0x0 DUP1 PUSH1 0x40 DUP4 DUP6 SUB SLT ISZERO PUSH3 0x89 JUMPI DUP2 DUP3 REVERT JUMPDEST PUSH3 0x94 DUP4 PUSH3 0x59 JUMP JUMPDEST SWAP2 POP PUSH3 0xA4 PUSH1 0x20 DUP5 ADD PUSH3 0x59 JUMP JUMPDEST SWAP1 POP SWAP3 POP SWAP3 SWAP1 POP JUMP JUMPDEST PUSH1 0x80 MLOAD PUSH1 0x60 SHR PUSH1 0xA0 MLOAD PUSH1 0x60 SHR PUSH2 0x2698 PUSH3 0x109 PUSH1 0x0 CODECOPY DUP1 PUSH2 0x112 MSTORE DUP1 PUSH2 0x4C7 MSTORE DUP1 PUSH2 0x5B2 MSTORE DUP1 PUSH2 0x63F MSTORE DUP1 PUSH2 0x67F MSTORE DUP1 PUSH2 0x76A MSTORE DUP1 PUSH2 0x1721 MSTORE DUP1 PUSH2 0x1767 MSTORE DUP1 PUSH2 0x17DB MSTORE POP DUP1 PUSH2 0xBA3 MSTORE DUP1 PUSH2 0x109E MSTORE DUP1 PUSH2 0x18B6 MSTORE POP PUSH2 0x2698 PUSH1 0x0 RETURN INVALID PUSH1 0x80 PUSH1 0x40 MSTORE PUSH1 0x4 CALLDATASIZE LT PUSH2 0x102 JUMPI PUSH1 0x0 CALLDATALOAD PUSH1 0xE0 SHR DUP1 PUSH4 0xC04B8D59 GT PUSH2 0x95 JUMPI DUP1 PUSH4 0xDF2AB5BB GT PUSH2 0x64 JUMPI DUP1 PUSH4 0xDF2AB5BB EQ PUSH2 0x284 JUMPI DUP1 PUSH4 0xE0E189A0 EQ PUSH2 0x297 JUMPI DUP1 PUSH4 0xF28C0498 EQ PUSH2 0x2AA JUMPI DUP1 PUSH4 0xF3995C67 EQ PUSH2 0x2BD JUMPI DUP1 PUSH4 0xFA461E33 EQ PUSH2 0x2D0 JUMPI PUSH2 0x172 JUMP JUMPDEST DUP1 PUSH4 0xC04B8D59 EQ PUSH2 0x236 JUMPI DUP1 PUSH4 0xC2E3140A EQ PUSH2 0x249 JUMPI DUP1 PUSH4 0xC45A0155 EQ PUSH2 0x25C JUMPI DUP1 PUSH4 0xDB3E2198 EQ PUSH2 0x271 JUMPI PUSH2 0x172 JUMP JUMPDEST DUP1 PUSH4 0x4AA4A4FC GT PUSH2 0xD1 JUMPI DUP1 PUSH4 0x4AA4A4FC EQ PUSH2 0x1CE JUMPI DUP1 PUSH4 0x9B2C0A37 EQ PUSH2 0x1F0 JUMPI DUP1 PUSH4 0xA4A78F0C EQ PUSH2 0x203 JUMPI DUP1 PUSH4 0xAC9650D8 EQ PUSH2 0x216 JUMPI PUSH2 0x172 JUMP JUMPDEST DUP1 PUSH4 0x12210E8A EQ PUSH2 0x177 JUMPI DUP1 PUSH4 0x414BF389 EQ PUSH2 0x17F JUMPI DUP1 PUSH4 0x4659A494 EQ PUSH2 0x1A8 JUMPI DUP1 PUSH4 0x49404B7C EQ PUSH2 0x1BB JUMPI PUSH2 0x172 JUMP JUMPDEST CALLDATASIZE PUSH2 0x172 JUMPI CALLER PUSH1 0x1 PUSH1 0x1 PUSH1 0xA0 SHL SUB PUSH32 0x0 AND EQ PUSH2 0x170 JUMPI PUSH1 0x40 DUP1 MLOAD PUSH3 0x461BCD PUSH1 0xE5 SHL DUP2 MSTORE PUSH1 0x20 PUSH1 0x4 DUP3 ADD MSTORE PUSH1 0x9 PUSH1 0x24 DUP3 ADD MSTORE PUSH9 0x4E6F74205745544839 PUSH1 0xB8 SHL PUSH1 0x44 DUP3 ADD MSTORE SWAP1 MLOAD SWAP1 DUP2 SWAP1 SUB PUSH1 0x64 ADD SWAP1 REVERT JUMPDEST STOP JUMPDEST PUSH1 0x0 DUP1 REVERT JUMPDEST PUSH2 0x170 PUSH2 0x2F0 JUMP JUMPDEST PUSH2 0x192 PUSH2 0x18D CALLDATASIZE PUSH1 0x4 PUSH2 0x222A JUMP JUMPDEST PUSH2 0x302 JUMP JUMPDEST PUSH1 0x40 MLOAD PUSH2 0x19F SWAP2 SWAP1 PUSH2 0x2583 JUMP JUMPDEST PUSH1 0x40 MLOAD DUP1 SWAP2 SUB SWAP1 RETURN JUMPDEST PUSH2 0x170 PUSH2 0x1B6 CALLDATASIZE PUSH1 0x4 PUSH2 0x1FA8 JUMP JUMPDEST PUSH2 0x429 JUMP JUMPDEST PUSH2 0x170 PUSH2 0x1C9 CALLDATASIZE PUSH1 0x4 PUSH2 0x2331 JUMP JUMPDEST PUSH2 0x4C3 JUMP JUMPDEST CALLVALUE DUP1 ISZERO PUSH2 0x1DA JUMPI PUSH1 0x0 DUP1 REVERT JUMPDEST POP PUSH2 0x1E3 PUSH2 0x63D JUMP JUMPDEST PUSH1 0x40 MLOAD PUSH2 0x19F SWAP2 SWAP1 PUSH2 0x2420 JUMP JUMPDEST PUSH2 0x170 PUSH2 0x1FE CALLDATASIZE PUSH1 0x4 PUSH2 0x2360 JUMP JUMPDEST PUSH2 0x661 JUMP JUMPDEST PUSH2 0x170 PUSH2 0x211 CALLDATASIZE PUSH1 0x4 PUSH2 0x1FA8 JUMP JUMPDEST PUSH2 0x82D JUMP JUMPDEST PUSH2 0x229 PUSH2 0x224 CALLDATASIZE PUSH1 0x4 PUSH2 0x2008 JUMP JUMPDEST PUSH2 0x8BE JUMP JUMPDEST PUSH1 0x40 MLOAD PUSH2 0x19F SWAP2 SWAP1 PUSH2 0x247A JUMP JUMPDEST PUSH2 0x192 PUSH2 0x244 CALLDATASIZE PUSH1 0x4 PUSH2 0x217F JUMP JUMPDEST PUSH2 0x9FE JUMP JUMPDEST PUSH2 0x170 PUSH2 0x257 CALLDATASIZE PUSH1 0x4 PUSH2 0x1FA8 JUMP JUMPDEST PUSH2 0xB12 JUMP JUMPDEST CALLVALUE DUP1 ISZERO PUSH2 0x268 JUMPI PUSH1 0x0 DUP1 REVERT JUMPDEST POP PUSH2 0x1E3 PUSH2 0xBA1 JUMP JUMPDEST PUSH2 0x192 PUSH2 0x27F CALLDATASIZE PUSH1 0x4 PUSH2 0x222A JUMP JUMPDEST PUSH2 0xBC5 JUMP JUMPDEST PUSH2 0x170 PUSH2 0x292 CALLDATASIZE PUSH1 0x4 PUSH2 0x1F09 JUMP JUMPDEST PUSH2 0xCEC JUMP JUMPDEST PUSH2 0x170 PUSH2 0x2A5 CALLDATASIZE PUSH1 0x4 PUSH2 0x1F4A JUMP JUMPDEST PUSH2 0xDCA JUMP JUMPDEST PUSH2 0x192 PUSH2 0x2B8 CALLDATASIZE PUSH1 0x4 PUSH2 0x2246 JUMP JUMPDEST PUSH2 0xEF1 JUMP JUMPDEST PUSH2 0x170 PUSH2 0x2CB CALLDATASIZE PUSH1 0x4 PUSH2 0x1FA8 JUMP JUMPDEST PUSH2 0xFE7 JUMP JUMPDEST CALLVALUE DUP1 ISZERO PUSH2 0x2DC JUMPI PUSH1 0x0 DUP1 REVERT JUMPDEST POP PUSH2 0x170 PUSH2 0x2EB CALLDATASIZE PUSH1 0x4 PUSH2 0x209A JUMP JUMPDEST PUSH2 0x1059 JUMP JUMPDEST SELFBALANCE ISZERO PUSH2 0x300 JUMPI PUSH2 0x300 CALLER SELFBALANCE PUSH2 0x116C JUMP JUMPDEST JUMP JUMPDEST PUSH1 0x0 DUP2 PUSH1 0x80 ADD CALLDATALOAD DUP1 PUSH2 0x312 PUSH2 0x125B JUMP JUMPDEST GT ISZERO PUSH2 0x35B JUMPI PUSH1 0x40 DUP1 MLOAD PUSH3 0x461BCD PUSH1 0xE5 SHL DUP2 MSTORE PUSH1 0x20 PUSH1 0x4 DUP3 ADD MSTORE PUSH1 0x13 PUSH1 0x24 DUP3 ADD MSTORE PUSH19 0x151C985B9CD858DD1A5BDB881D1BDBC81BDB19 PUSH1 0x6A SHL PUSH1 0x44 DUP3 ADD MSTORE SWAP1 MLOAD SWAP1 DUP2 SWAP1 SUB PUSH1 0x64 ADD SWAP1 REVERT JUMPDEST PUSH2 0x3F4 PUSH1 0xA0 DUP5 ADD CALLDATALOAD PUSH2 0x373 PUSH1 0x80 DUP7 ADD PUSH1 0x60 DUP8 ADD PUSH2 0x1EE6 JUMP JUMPDEST PUSH2 0x384 PUSH2 0x100 DUP8 ADD PUSH1 0xE0 DUP9 ADD PUSH2 0x1EE6 JUMP JUMPDEST PUSH1 0x40 DUP1 MLOAD DUP1 DUP3 ADD SWAP1 SWAP2 MSTORE DUP1 PUSH2 0x39C PUSH1 0x20 DUP11 ADD DUP11 PUSH2 0x1EE6 JUMP JUMPDEST PUSH2 0x3AC PUSH1 0x60 DUP12 ADD PUSH1 0x40 DUP13 ADD PUSH2 0x230E JUMP JUMPDEST PUSH2 0x3BC PUSH1 0x40 DUP13 ADD PUSH1 0x20 DUP14 ADD PUSH2 0x1EE6 JUMP JUMPDEST PUSH1 0x40 MLOAD PUSH1 0x20 ADD PUSH2 0x3CE SWAP4 SWAP3 SWAP2 SWAP1 PUSH2 0x23D5 JUMP JUMPDEST PUSH1 0x40 MLOAD PUSH1 0x20 DUP2 DUP4 SUB SUB DUP2 MSTORE SWAP1 PUSH1 0x40 MSTORE DUP2 MSTORE PUSH1 0x20 ADD CALLER PUSH1 0x1 PUSH1 0x1 PUSH1 0xA0 SHL SUB AND DUP2 MSTORE POP PUSH2 0x125F JUMP JUMPDEST SWAP2 POP DUP3 PUSH1 0xC0 ADD CALLDATALOAD DUP3 LT ISZERO PUSH2 0x423 JUMPI PUSH1 0x40 MLOAD PUSH3 0x461BCD PUSH1 0xE5 SHL DUP2 MSTORE PUSH1 0x4 ADD PUSH2 0x41A SWAP1 PUSH2 0x2519 JUMP JUMPDEST PUSH1 0x40 MLOAD DUP1 SWAP2 SUB SWAP1 REVERT JUMPDEST POP SWAP2 SWAP1 POP JUMP JUMPDEST PUSH1 0x40 DUP1 MLOAD PUSH4 0x23F2EBC3 PUSH1 0xE2 SHL DUP2 MSTORE CALLER PUSH1 0x4 DUP3 ADD MSTORE ADDRESS PUSH1 0x24 DUP3 ADD MSTORE PUSH1 0x44 DUP2 ADD DUP8 SWAP1 MSTORE PUSH1 0x64 DUP2 ADD DUP7 SWAP1 MSTORE PUSH1 0x1 PUSH1 0x84 DUP3 ADD MSTORE PUSH1 0xFF DUP6 AND PUSH1 0xA4 DUP3 ADD MSTORE PUSH1 0xC4 DUP2 ADD DUP5 SWAP1 MSTORE PUSH1 0xE4 DUP2 ADD DUP4 SWAP1 MSTORE SWAP1 MLOAD PUSH1 0x1 PUSH1 0x1 PUSH1 0xA0 SHL SUB DUP9 AND SWAP2 PUSH4 0x8FCBAF0C SWAP2 PUSH2 0x104 DUP1 DUP4 ADD SWAP3 PUSH1 0x0 SWAP3 SWAP2 SWAP1 DUP3 SWAP1 SUB ADD DUP2 DUP4 DUP8 DUP1 EXTCODESIZE ISZERO DUP1 ISZERO PUSH2 0x4A3 JUMPI PUSH1 0x0 DUP1 REVERT JUMPDEST POP GAS CALL ISZERO DUP1 ISZERO PUSH2 0x4B7 JUMPI RETURNDATASIZE PUSH1 0x0 DUP1 RETURNDATACOPY RETURNDATASIZE PUSH1 0x0 REVERT JUMPDEST POP POP POP POP POP POP POP POP POP POP JUMP JUMPDEST PUSH1 0x0 PUSH32 0x0 PUSH1 0x1 PUSH1 0x1 PUSH1 0xA0 SHL SUB AND PUSH4 0x70A08231 ADDRESS PUSH1 0x40 MLOAD DUP3 PUSH4 0xFFFFFFFF AND PUSH1 0xE0 SHL DUP2 MSTORE PUSH1 0x4 ADD DUP1 DUP3 PUSH1 0x1 PUSH1 0x1 PUSH1 0xA0 SHL SUB AND DUP2 MSTORE PUSH1 0x20 ADD SWAP2 POP POP PUSH1 0x20 PUSH1 0x40 MLOAD DUP1 DUP4 SUB DUP2 DUP7 DUP1 EXTCODESIZE ISZERO DUP1 ISZERO PUSH2 0x532 JUMPI PUSH1 0x0 DUP1 REVERT JUMPDEST POP GAS STATICCALL ISZERO DUP1 ISZERO PUSH2 0x546 JUMPI RETURNDATASIZE PUSH1 0x0 DUP1 RETURNDATACOPY RETURNDATASIZE PUSH1 0x0 REVERT JUMPDEST POP POP POP POP PUSH1 0x40 MLOAD RETURNDATASIZE PUSH1 0x20 DUP2 LT ISZERO PUSH2 0x55C JUMPI PUSH1 0x0 DUP1 REVERT JUMPDEST POP MLOAD SWAP1 POP DUP3 DUP2 LT ISZERO PUSH2 0x5AA JUMPI PUSH1 0x40 DUP1 MLOAD PUSH3 0x461BCD PUSH1 0xE5 SHL DUP2 MSTORE PUSH1 0x20 PUSH1 0x4 DUP3 ADD MSTORE PUSH1 0x12 PUSH1 0x24 DUP3 ADD MSTORE PUSH18 0x496E73756666696369656E74205745544839 PUSH1 0x70 SHL PUSH1 0x44 DUP3 ADD MSTORE SWAP1 MLOAD SWAP1 DUP2 SWAP1 SUB PUSH1 0x64 ADD SWAP1 REVERT JUMPDEST DUP1 ISZERO PUSH2 0x638 JUMPI PUSH32 0x0 PUSH1 0x1 PUSH1 0x1 PUSH1 0xA0 SHL SUB AND PUSH4 0x2E1A7D4D DUP3 PUSH1 0x40 MLOAD DUP3 PUSH4 0xFFFFFFFF AND PUSH1 0xE0 SHL DUP2 MSTORE PUSH1 0x4 ADD DUP1 DUP3 DUP2 MSTORE PUSH1 0x20 ADD SWAP2 POP POP PUSH1 0x0 PUSH1 0x40 MLOAD DUP1 DUP4 SUB DUP2 PUSH1 0x0 DUP8 DUP1 EXTCODESIZE ISZERO DUP1 ISZERO PUSH2 0x616 JUMPI PUSH1 0x0 DUP1 REVERT JUMPDEST POP GAS CALL ISZERO DUP1 ISZERO PUSH2 0x62A JUMPI RETURNDATASIZE PUSH1 0x0 DUP1 RETURNDATACOPY RETURNDATASIZE PUSH1 0x0 REVERT JUMPDEST POP POP POP POP PUSH2 0x638 DUP3 DUP3 PUSH2 0x116C JUMP JUMPDEST POP POP POP JUMP JUMPDEST PUSH32 0x0 DUP2 JUMP JUMPDEST PUSH1 0x0 DUP3 GT DUP1 ISZERO PUSH2 0x672 JUMPI POP PUSH1 0x64 DUP3 GT ISZERO JUMPDEST PUSH2 0x67B JUMPI PUSH1 0x0 DUP1 REVERT JUMPDEST PUSH1 0x0 PUSH32 0x0 PUSH1 0x1 PUSH1 0x1 PUSH1 0xA0 SHL SUB AND PUSH4 0x70A08231 ADDRESS PUSH1 0x40 MLOAD DUP3 PUSH4 0xFFFFFFFF AND PUSH1 0xE0 SHL DUP2 MSTORE PUSH1 0x4 ADD DUP1 DUP3 PUSH1 0x1 PUSH1 0x1 PUSH1 0xA0 SHL SUB AND DUP2 MSTORE PUSH1 0x20 ADD SWAP2 POP POP PUSH1 0x20 PUSH1 0x40 MLOAD DUP1 DUP4 SUB DUP2 DUP7 DUP1 EXTCODESIZE ISZERO DUP1 ISZERO PUSH2 0x6EA JUMPI PUSH1 0x0 DUP1 REVERT JUMPDEST POP GAS STATICCALL ISZERO DUP1 ISZERO PUSH2 0x6FE JUMPI RETURNDATASIZE PUSH1 0x0 DUP1 RETURNDATACOPY RETURNDATASIZE PUSH1 0x0 REVERT JUMPDEST POP POP POP POP PUSH1 0x40 MLOAD RETURNDATASIZE PUSH1 0x20 DUP2 LT ISZERO PUSH2 0x714 JUMPI PUSH1 0x0 DUP1 REVERT JUMPDEST POP MLOAD SWAP1 POP DUP5 DUP2 LT ISZERO PUSH2 0x762 JUMPI PUSH1 0x40 DUP1 MLOAD PUSH3 0x461BCD PUSH1 0xE5 SHL DUP2 MSTORE PUSH1 0x20 PUSH1 0x4 DUP3 ADD MSTORE PUSH1 0x12 PUSH1 0x24 DUP3 ADD MSTORE PUSH18 0x496E73756666696369656E74205745544839 PUSH1 0x70 SHL PUSH1 0x44 DUP3 ADD MSTORE SWAP1 MLOAD SWAP1 DUP2 SWAP1 SUB PUSH1 0x64 ADD SWAP1 REVERT JUMPDEST DUP1 ISZERO PUSH2 0x826 JUMPI PUSH32 0x0 PUSH1 0x1 PUSH1 0x1 PUSH1 0xA0 SHL SUB AND PUSH4 0x2E1A7D4D DUP3 PUSH1 0x40 MLOAD DUP3 PUSH4 0xFFFFFFFF AND PUSH1 0xE0 SHL DUP2 MSTORE PUSH1 0x4 ADD DUP1 DUP3 DUP2 MSTORE PUSH1 0x20 ADD SWAP2 POP POP PUSH1 0x0 PUSH1 0x40 MLOAD DUP1 DUP4 SUB DUP2 PUSH1 0x0 DUP8 DUP1 EXTCODESIZE ISZERO DUP1 ISZERO PUSH2 0x7CE JUMPI PUSH1 0x0 DUP1 REVERT JUMPDEST POP GAS CALL ISZERO DUP1 ISZERO PUSH2 0x7E2 JUMPI RETURNDATASIZE PUSH1 0x0 DUP1 RETURNDATACOPY RETURNDATASIZE PUSH1 0x0 REVERT JUMPDEST POP POP POP POP PUSH1 0x0 PUSH2 0x2710 PUSH2 0x7FE DUP6 DUP5 PUSH2 0x13B1 SWAP1 SWAP2 SWAP1 PUSH4 0xFFFFFFFF AND JUMP JUMPDEST DUP2 PUSH2 0x805 JUMPI INVALID JUMPDEST DIV SWAP1 POP DUP1 ISZERO PUSH2 0x818 JUMPI PUSH2 0x818 DUP4 DUP3 PUSH2 0x116C JUMP JUMPDEST PUSH2 0x824 DUP6 DUP3 DUP5 SUB PUSH2 0x116C JUMP JUMPDEST POP JUMPDEST POP POP POP POP POP JUMP JUMPDEST PUSH1 0x40 DUP1 MLOAD PUSH4 0x6EB1769F PUSH1 0xE1 SHL DUP2 MSTORE CALLER PUSH1 0x4 DUP3 ADD MSTORE ADDRESS PUSH1 0x24 DUP3 ADD MSTORE SWAP1 MLOAD PUSH1 0x0 NOT SWAP2 PUSH1 0x1 PUSH1 0x1 PUSH1 0xA0 SHL SUB DUP10 AND SWAP2 PUSH4 0xDD62ED3E SWAP2 PUSH1 0x44 DUP1 DUP3 ADD SWAP3 PUSH1 0x20 SWAP3 SWAP1 SWAP2 SWAP1 DUP3 SWAP1 SUB ADD DUP2 DUP7 DUP1 EXTCODESIZE ISZERO DUP1 ISZERO PUSH2 0x87E JUMPI PUSH1 0x0 DUP1 REVERT JUMPDEST POP GAS STATICCALL ISZERO DUP1 ISZERO PUSH2 0x892 JUMPI RETURNDATASIZE PUSH1 0x0 DUP1 RETURNDATACOPY RETURNDATASIZE PUSH1 0x0 REVERT JUMPDEST POP POP POP POP PUSH1 0x40 MLOAD RETURNDATASIZE PUSH1 0x20 DUP2 LT ISZERO PUSH2 0x8A8 JUMPI PUSH1 0x0 DUP1 REVERT JUMPDEST POP MLOAD LT ISZERO PUSH2 0x824 JUMPI PUSH2 0x824 DUP7 DUP7 DUP7 DUP7 DUP7 DUP7 PUSH2 0x429 JUMP JUMPDEST PUSH1 0x60 DUP2 PUSH8 0xFFFFFFFFFFFFFFFF DUP2 GT DUP1 ISZERO PUSH2 0x8D7 JUMPI PUSH1 0x0 DUP1 REVERT JUMPDEST POP PUSH1 0x40 MLOAD SWAP1 DUP1 DUP3 MSTORE DUP1 PUSH1 0x20 MUL PUSH1 0x20 ADD DUP3 ADD PUSH1 0x40 MSTORE DUP1 ISZERO PUSH2 0x90B JUMPI DUP2 PUSH1 0x20 ADD JUMPDEST PUSH1 0x60 DUP2 MSTORE PUSH1 0x20 ADD SWAP1 PUSH1 0x1 SWAP1 SUB SWAP1 DUP2 PUSH2 0x8F6 JUMPI SWAP1 POP JUMPDEST POP SWAP1 POP PUSH1 0x0 JUMPDEST DUP3 DUP2 LT ISZERO PUSH2 0x9F7 JUMPI PUSH1 0x0 DUP1 ADDRESS DUP7 DUP7 DUP6 DUP2 DUP2 LT PUSH2 0x929 JUMPI INVALID JUMPDEST SWAP1 POP PUSH1 0x20 MUL DUP2 ADD SWAP1 PUSH2 0x93B SWAP2 SWAP1 PUSH2 0x258C JUMP JUMPDEST PUSH1 0x40 MLOAD PUSH2 0x949 SWAP3 SWAP2 SWAP1 PUSH2 0x2410 JUMP JUMPDEST PUSH1 0x0 PUSH1 0x40 MLOAD DUP1 DUP4 SUB DUP2 DUP6 GAS DELEGATECALL SWAP2 POP POP RETURNDATASIZE DUP1 PUSH1 0x0 DUP2 EQ PUSH2 0x984 JUMPI PUSH1 0x40 MLOAD SWAP2 POP PUSH1 0x1F NOT PUSH1 0x3F RETURNDATASIZE ADD AND DUP3 ADD PUSH1 0x40 MSTORE RETURNDATASIZE DUP3 MSTORE RETURNDATASIZE PUSH1 0x0 PUSH1 0x20 DUP5 ADD RETURNDATACOPY PUSH2 0x989 JUMP JUMPDEST PUSH1 0x60 SWAP2 POP JUMPDEST POP SWAP2 POP SWAP2 POP DUP2 PUSH2 0x9D5 JUMPI PUSH1 0x44 DUP2 MLOAD LT ISZERO PUSH2 0x9A2 JUMPI PUSH1 0x0 DUP1 REVERT JUMPDEST PUSH1 0x4 DUP2 ADD SWAP1 POP DUP1 DUP1 PUSH1 0x20 ADD SWAP1 MLOAD DUP2 ADD SWAP1 PUSH2 0x9BC SWAP2 SWAP1 PUSH2 0x2115 JUMP JUMPDEST PUSH1 0x40 MLOAD PUSH3 0x461BCD PUSH1 0xE5 SHL DUP2 MSTORE PUSH1 0x4 ADD PUSH2 0x41A SWAP2 SWAP1 PUSH2 0x24DA JUMP JUMPDEST DUP1 DUP5 DUP5 DUP2 MLOAD DUP2 LT PUSH2 0x9E2 JUMPI INVALID JUMPDEST PUSH1 0x20 SWAP1 DUP2 MUL SWAP2 SWAP1 SWAP2 ADD ADD MSTORE POP POP PUSH1 0x1 ADD PUSH2 0x911 JUMP JUMPDEST POP SWAP3 SWAP2 POP POP JUMP JUMPDEST PUSH1 0x0 DUP2 PUSH1 0x40 ADD MLOAD DUP1 PUSH2 0xA0E PUSH2 0x125B JUMP JUMPDEST GT ISZERO PUSH2 0xA57 JUMPI PUSH1 0x40 DUP1 MLOAD PUSH3 0x461BCD PUSH1 0xE5 SHL DUP2 MSTORE PUSH1 0x20 PUSH1 0x4 DUP3 ADD MSTORE PUSH1 0x13 PUSH1 0x24 DUP3 ADD MSTORE PUSH19 0x151C985B9CD858DD1A5BDB881D1BDBC81BDB19 PUSH1 0x6A SHL PUSH1 0x44 DUP3 ADD MSTORE SWAP1 MLOAD SWAP1 DUP2 SWAP1 SUB PUSH1 0x64 ADD SWAP1 REVERT JUMPDEST CALLER JUMPDEST PUSH1 0x0 PUSH2 0xA68 DUP6 PUSH1 0x0 ADD MLOAD PUSH2 0x13DB JUMP JUMPDEST SWAP1 POP PUSH2 0xAB4 DUP6 PUSH1 0x60 ADD MLOAD DUP3 PUSH2 0xA81 JUMPI DUP7 PUSH1 0x20 ADD MLOAD PUSH2 0xA83 JUMP JUMPDEST ADDRESS JUMPDEST PUSH1 0x0 PUSH1 0x40 MLOAD DUP1 PUSH1 0x40 ADD PUSH1 0x40 MSTORE DUP1 PUSH2 0xA9D DUP12 PUSH1 0x0 ADD MLOAD PUSH2 0x13E7 JUMP JUMPDEST DUP2 MSTORE PUSH1 0x20 ADD DUP8 PUSH1 0x1 PUSH1 0x1 PUSH1 0xA0 SHL SUB AND DUP2 MSTORE POP PUSH2 0x125F JUMP JUMPDEST PUSH1 0x60 DUP7 ADD MSTORE DUP1 ISZERO PUSH2 0xAD4 JUMPI DUP5 MLOAD ADDRESS SWAP3 POP PUSH2 0xACD SWAP1 PUSH2 0x13F6 JUMP JUMPDEST DUP6 MSTORE PUSH2 0xAE1 JUMP JUMPDEST DUP5 PUSH1 0x60 ADD MLOAD SWAP4 POP POP PUSH2 0xAE7 JUMP JUMPDEST POP PUSH2 0xA59 JUMP JUMPDEST DUP4 PUSH1 0x80 ADD MLOAD DUP4 LT ISZERO PUSH2 0xB0B JUMPI PUSH1 0x40 MLOAD PUSH3 0x461BCD PUSH1 0xE5 SHL DUP2 MSTORE PUSH1 0x4 ADD PUSH2 0x41A SWAP1 PUSH2 0x2519 JUMP JUMPDEST POP POP SWAP2 SWAP1 POP JUMP JUMPDEST PUSH1 0x40 DUP1 MLOAD PUSH4 0x6EB1769F PUSH1 0xE1 SHL DUP2 MSTORE CALLER PUSH1 0x4 DUP3 ADD MSTORE ADDRESS PUSH1 0x24 DUP3 ADD MSTORE SWAP1 MLOAD DUP7 SWAP2 PUSH1 0x1 PUSH1 0x1 PUSH1 0xA0 SHL SUB DUP10 AND SWAP2 PUSH4 0xDD62ED3E SWAP2 PUSH1 0x44 DUP1 DUP3 ADD SWAP3 PUSH1 0x20 SWAP3 SWAP1 SWAP2 SWAP1 DUP3 SWAP1 SUB ADD DUP2 DUP7 DUP1 EXTCODESIZE ISZERO DUP1 ISZERO PUSH2 0xB61 JUMPI PUSH1 0x0 DUP1 REVERT JUMPDEST POP GAS STATICCALL ISZERO DUP1 ISZERO PUSH2 0xB75 JUMPI RETURNDATASIZE PUSH1 0x0 DUP1 RETURNDATACOPY RETURNDATASIZE PUSH1 0x0 REVERT JUMPDEST POP POP POP POP PUSH1 0x40 MLOAD RETURNDATASIZE PUSH1 0x20 DUP2 LT ISZERO PUSH2 0xB8B JUMPI PUSH1 0x0 DUP1 REVERT JUMPDEST POP MLOAD LT ISZERO PUSH2 0x824 JUMPI PUSH2 0x824 DUP7 DUP7 DUP7 DUP7 DUP7 DUP7 PUSH2 0xFE7 JUMP JUMPDEST PUSH32 0x0 DUP2 JUMP JUMPDEST PUSH1 0x0 DUP2 PUSH1 0x80 ADD CALLDATALOAD DUP1 PUSH2 0xBD5 PUSH2 0x125B JUMP JUMPDEST GT ISZERO PUSH2 0xC1E JUMPI PUSH1 0x40 DUP1 MLOAD PUSH3 0x461BCD PUSH1 0xE5 SHL DUP2 MSTORE PUSH1 0x20 PUSH1 0x4 DUP3 ADD MSTORE PUSH1 0x13 PUSH1 0x24 DUP3 ADD MSTORE PUSH19 0x151C985B9CD858DD1A5BDB881D1BDBC81BDB19 PUSH1 0x6A SHL PUSH1 0x44 DUP3 ADD MSTORE SWAP1 MLOAD SWAP1 DUP2 SWAP1 SUB PUSH1 0x64 ADD SWAP1 REVERT JUMPDEST PUSH2 0xCBA PUSH1 0xA0 DUP5 ADD CALLDATALOAD PUSH2 0xC36 PUSH1 0x80 DUP7 ADD PUSH1 0x60 DUP8 ADD PUSH2 0x1EE6 JUMP JUMPDEST PUSH2 0xC47 PUSH2 0x100 DUP8 ADD PUSH1 0xE0 DUP9 ADD PUSH2 0x1EE6 JUMP JUMPDEST PUSH1 0x40 MLOAD DUP1 PUSH1 0x40 ADD PUSH1 0x40 MSTORE DUP1 DUP9 PUSH1 0x20 ADD PUSH1 0x20 DUP2 ADD SWAP1 PUSH2 0xC65 SWAP2 SWAP1 PUSH2 0x1EE6 JUMP JUMPDEST PUSH2 0xC75 PUSH1 0x60 DUP12 ADD PUSH1 0x40 DUP13 ADD PUSH2 0x230E JUMP JUMPDEST PUSH2 0xC82 PUSH1 0x20 DUP13 ADD DUP13 PUSH2 0x1EE6 JUMP JUMPDEST PUSH1 0x40 MLOAD PUSH1 0x20 ADD PUSH2 0xC94 SWAP4 SWAP3 SWAP2 SWAP1 PUSH2 0x23D5 JUMP JUMPDEST PUSH1 0x40 MLOAD PUSH1 0x20 DUP2 DUP4 SUB SUB DUP2 MSTORE SWAP1 PUSH1 0x40 MSTORE DUP2 MSTORE PUSH1 0x20 ADD CALLER PUSH1 0x1 PUSH1 0x1 PUSH1 0xA0 SHL SUB AND DUP2 MSTORE POP PUSH2 0x140D JUMP JUMPDEST SWAP2 POP DUP3 PUSH1 0xC0 ADD CALLDATALOAD DUP3 GT ISZERO PUSH2 0xCE0 JUMPI PUSH1 0x40 MLOAD PUSH3 0x461BCD PUSH1 0xE5 SHL DUP2 MSTORE PUSH1 0x4 ADD PUSH2 0x41A SWAP1 PUSH2 0x24ED JUMP JUMPDEST POP PUSH1 0x0 NOT PUSH1 0x0 SSTORE SWAP2 SWAP1 POP JUMP JUMPDEST PUSH1 0x0 DUP4 PUSH1 0x1 PUSH1 0x1 PUSH1 0xA0 SHL SUB AND PUSH4 0x70A08231 ADDRESS PUSH1 0x40 MLOAD DUP3 PUSH4 0xFFFFFFFF AND PUSH1 0xE0 SHL DUP2 MSTORE PUSH1 0x4 ADD DUP1 DUP3 PUSH1 0x1 PUSH1 0x1 PUSH1 0xA0 SHL SUB AND DUP2 MSTORE PUSH1 0x20 ADD SWAP2 POP POP PUSH1 0x20 PUSH1 0x40 MLOAD DUP1 DUP4 SUB DUP2 DUP7 DUP1 EXTCODESIZE ISZERO DUP1 ISZERO PUSH2 0xD3B JUMPI PUSH1 0x0 DUP1 REVERT JUMPDEST POP GAS STATICCALL ISZERO DUP1 ISZERO PUSH2 0xD4F JUMPI RETURNDATASIZE PUSH1 0x0 DUP1 RETURNDATACOPY RETURNDATASIZE PUSH1 0x0 REVERT JUMPDEST POP POP POP POP PUSH1 0x40 MLOAD RETURNDATASIZE PUSH1 0x20 DUP2 LT ISZERO PUSH2 0xD65 JUMPI PUSH1 0x0 DUP1 REVERT JUMPDEST POP MLOAD SWAP1 POP DUP3 DUP2 LT ISZERO PUSH2 0xDB3 JUMPI PUSH1 0x40 DUP1 MLOAD PUSH3 0x461BCD PUSH1 0xE5 SHL DUP2 MSTORE PUSH1 0x20 PUSH1 0x4 DUP3 ADD MSTORE PUSH1 0x12 PUSH1 0x24 DUP3 ADD MSTORE PUSH18 0x24B739BAB33334B1B4B2B73A103A37B5B2B7 PUSH1 0x71 SHL PUSH1 0x44 DUP3 ADD MSTORE SWAP1 MLOAD SWAP1 DUP2 SWAP1 SUB PUSH1 0x64 ADD SWAP1 REVERT JUMPDEST DUP1 ISZERO PUSH2 0xDC4 JUMPI PUSH2 0xDC4 DUP5 DUP4 DUP4 PUSH2 0x1588 JUMP JUMPDEST POP POP POP POP JUMP JUMPDEST PUSH1 0x0 DUP3 GT DUP1 ISZERO PUSH2 0xDDB JUMPI POP PUSH1 0x64 DUP3 GT ISZERO JUMPDEST PUSH2 0xDE4 JUMPI PUSH1 0x0 DUP1 REVERT JUMPDEST PUSH1 0x0 DUP6 PUSH1 0x1 PUSH1 0x1 PUSH1 0xA0 SHL SUB AND PUSH4 0x70A08231 ADDRESS PUSH1 0x40 MLOAD DUP3 PUSH4 0xFFFFFFFF AND PUSH1 0xE0 SHL DUP2 MSTORE PUSH1 0x4 ADD DUP1 DUP3 PUSH1 0x1 PUSH1 0x1 PUSH1 0xA0 SHL SUB AND DUP2 MSTORE PUSH1 0x20 ADD SWAP2 POP POP PUSH1 0x20 PUSH1 0x40 MLOAD DUP1 DUP4 SUB DUP2 DUP7 DUP1 EXTCODESIZE ISZERO DUP1 ISZERO PUSH2 0xE33 JUMPI PUSH1 0x0 DUP1 REVERT JUMPDEST POP GAS STATICCALL ISZERO DUP1 ISZERO PUSH2 0xE47 JUMPI RETURNDATASIZE PUSH1 0x0 DUP1 RETURNDATACOPY RETURNDATASIZE PUSH1 0x0 REVERT JUMPDEST POP POP POP POP PUSH1 0x40 MLOAD RETURNDATASIZE PUSH1 0x20 DUP2 LT ISZERO PUSH2 0xE5D JUMPI PUSH1 0x0 DUP1 REVERT JUMPDEST POP MLOAD SWAP1 POP DUP5 DUP2 LT ISZERO PUSH2 0xEAB JUMPI PUSH1 0x40 DUP1 MLOAD PUSH3 0x461BCD PUSH1 0xE5 SHL DUP2 MSTORE PUSH1 0x20 PUSH1 0x4 DUP3 ADD MSTORE PUSH1 0x12 PUSH1 0x24 DUP3 ADD MSTORE PUSH18 0x24B739BAB33334B1B4B2B73A103A37B5B2B7 PUSH1 0x71 SHL PUSH1 0x44 DUP3 ADD MSTORE SWAP1 MLOAD SWAP1 DUP2 SWAP1 SUB PUSH1 0x64 ADD SWAP1 REVERT JUMPDEST DUP1 ISZERO PUSH2 0x824 JUMPI PUSH1 0x0 PUSH2 0x2710 PUSH2 0xEC0 DUP4 DUP7 PUSH2 0x13B1 JUMP JUMPDEST DUP2 PUSH2 0xEC7 JUMPI INVALID JUMPDEST DIV SWAP1 POP DUP1 ISZERO PUSH2 0xEDB JUMPI PUSH2 0xEDB DUP8 DUP5 DUP4 PUSH2 0x1588 JUMP JUMPDEST PUSH2 0xEE8 DUP8 DUP7 DUP4 DUP6 SUB PUSH2 0x1588 JUMP JUMPDEST POP POP POP POP POP POP POP JUMP JUMPDEST PUSH1 0x0 DUP2 PUSH1 0x40 ADD CALLDATALOAD DUP1 PUSH2 0xF01 PUSH2 0x125B JUMP JUMPDEST GT ISZERO PUSH2 0xF4A JUMPI PUSH1 0x40 DUP1 MLOAD PUSH3 0x461BCD PUSH1 0xE5 SHL DUP2 MSTORE PUSH1 0x20 PUSH1 0x4 DUP3 ADD MSTORE PUSH1 0x13 PUSH1 0x24 DUP3 ADD MSTORE PUSH19 0x151C985B9CD858DD1A5BDB881D1BDBC81BDB19 PUSH1 0x6A SHL PUSH1 0x44 DUP3 ADD MSTORE SWAP1 MLOAD SWAP1 DUP2 SWAP1 SUB PUSH1 0x64 ADD SWAP1 REVERT JUMPDEST PUSH2 0xFBD PUSH1 0x60 DUP5 ADD CALLDATALOAD PUSH2 0xF62 PUSH1 0x40 DUP7 ADD PUSH1 0x20 DUP8 ADD PUSH2 0x1EE6 JUMP JUMPDEST PUSH1 0x40 DUP1 MLOAD DUP1 DUP3 ADD SWAP1 SWAP2 MSTORE PUSH1 0x0 SWAP1 DUP1 PUSH2 0xF7A DUP10 DUP1 PUSH2 0x258C JUMP JUMPDEST DUP1 DUP1 PUSH1 0x1F ADD PUSH1 0x20 DUP1 SWAP2 DIV MUL PUSH1 0x20 ADD PUSH1 0x40 MLOAD SWAP1 DUP2 ADD PUSH1 0x40 MSTORE DUP1 SWAP4 SWAP3 SWAP2 SWAP1 DUP2 DUP2 MSTORE PUSH1 0x20 ADD DUP4 DUP4 DUP1 DUP3 DUP5 CALLDATACOPY PUSH1 0x0 SWAP3 ADD SWAP2 SWAP1 SWAP2 MSTORE POP POP POP SWAP1 DUP3 MSTORE POP CALLER PUSH1 0x20 SWAP1 SWAP2 ADD MSTORE PUSH2 0x140D JUMP JUMPDEST POP PUSH1 0x0 SLOAD SWAP2 POP DUP3 PUSH1 0x80 ADD CALLDATALOAD DUP3 GT ISZERO PUSH2 0xCE0 JUMPI PUSH1 0x40 MLOAD PUSH3 0x461BCD PUSH1 0xE5 SHL DUP2 MSTORE PUSH1 0x4 ADD PUSH2 0x41A SWAP1 PUSH2 0x24ED JUMP JUMPDEST PUSH1 0x40 DUP1 MLOAD PUSH4 0xD505ACCF PUSH1 0xE0 SHL DUP2 MSTORE CALLER PUSH1 0x4 DUP3 ADD MSTORE ADDRESS PUSH1 0x24 DUP3 ADD MSTORE PUSH1 0x44 DUP2 ADD DUP8 SWAP1 MSTORE PUSH1 0x64 DUP2 ADD DUP7 SWAP1 MSTORE PUSH1 0xFF DUP6 AND PUSH1 0x84 DUP3 ADD MSTORE PUSH1 0xA4 DUP2 ADD DUP5 SWAP1 MSTORE PUSH1 0xC4 DUP2 ADD DUP4 SWAP1 MSTORE SWAP1 MLOAD PUSH1 0x1 PUSH1 0x1 PUSH1 0xA0 SHL SUB DUP9 AND SWAP2 PUSH4 0xD505ACCF SWAP2 PUSH1 0xE4 DUP1 DUP4 ADD SWAP3 PUSH1 0x0 SWAP3 SWAP2 SWAP1 DUP3 SWAP1 SUB ADD DUP2 DUP4 DUP8 DUP1 EXTCODESIZE ISZERO DUP1 ISZERO PUSH2 0x4A3 JUMPI PUSH1 0x0 DUP1 REVERT JUMPDEST PUSH1 0x0 DUP5 SGT DUP1 PUSH2 0x1068 JUMPI POP PUSH1 0x0 DUP4 SGT JUMPDEST PUSH2 0x1071 JUMPI PUSH1 0x0 DUP1 REVERT JUMPDEST PUSH1 0x0 PUSH2 0x107F DUP3 DUP5 ADD DUP5 PUSH2 0x227E JUMP JUMPDEST SWAP1 POP PUSH1 0x0 DUP1 PUSH1 0x0 PUSH2 0x1093 DUP5 PUSH1 0x0 ADD MLOAD PUSH2 0x16CF JUMP JUMPDEST SWAP3 POP SWAP3 POP SWAP3 POP PUSH2 0x10C5 PUSH32 0x0 DUP5 DUP5 DUP5 PUSH2 0x1700 JUMP JUMPDEST POP PUSH1 0x0 DUP1 PUSH1 0x0 DUP11 SGT PUSH2 0x10EC JUMPI DUP5 PUSH1 0x1 PUSH1 0x1 PUSH1 0xA0 SHL SUB AND DUP5 PUSH1 0x1 PUSH1 0x1 PUSH1 0xA0 SHL SUB AND LT DUP10 PUSH2 0x1103 JUMP JUMPDEST DUP4 PUSH1 0x1 PUSH1 0x1 PUSH1 0xA0 SHL SUB AND DUP6 PUSH1 0x1 PUSH1 0x1 PUSH1 0xA0 SHL SUB AND LT DUP11 JUMPDEST SWAP2 POP SWAP2 POP DUP2 ISZERO PUSH2 0x1122 JUMPI PUSH2 0x111D DUP6 DUP8 PUSH1 0x20 ADD MLOAD CALLER DUP5 PUSH2 0x171F JUMP JUMPDEST PUSH2 0x4B7 JUMP JUMPDEST DUP6 MLOAD PUSH2 0x112D SWAP1 PUSH2 0x13DB JUMP JUMPDEST ISZERO PUSH2 0x1152 JUMPI DUP6 MLOAD PUSH2 0x113D SWAP1 PUSH2 0x13F6 JUMP JUMPDEST DUP7 MSTORE PUSH2 0x114C DUP2 CALLER PUSH1 0x0 DUP10 PUSH2 0x140D JUMP JUMPDEST POP PUSH2 0x4B7 JUMP JUMPDEST DUP1 PUSH1 0x0 DUP2 SWAP1 SSTORE POP DUP4 SWAP5 POP PUSH2 0x4B7 DUP6 DUP8 PUSH1 0x20 ADD MLOAD CALLER DUP5 PUSH2 0x171F JUMP JUMPDEST PUSH1 0x40 DUP1 MLOAD PUSH1 0x0 DUP1 DUP3 MSTORE PUSH1 0x20 DUP3 ADD SWAP1 SWAP3 MSTORE PUSH1 0x1 PUSH1 0x1 PUSH1 0xA0 SHL SUB DUP5 AND SWAP1 DUP4 SWAP1 PUSH1 0x40 MLOAD DUP1 DUP3 DUP1 MLOAD SWAP1 PUSH1 0x20 ADD SWAP1 DUP1 DUP4 DUP4 JUMPDEST PUSH1 0x20 DUP4 LT PUSH2 0x11B8 JUMPI DUP1 MLOAD DUP3 MSTORE PUSH1 0x1F NOT SWAP1 SWAP3 ADD SWAP2 PUSH1 0x20 SWAP2 DUP3 ADD SWAP2 ADD PUSH2 0x1199 JUMP JUMPDEST PUSH1 0x1 DUP4 PUSH1 0x20 SUB PUSH2 0x100 EXP SUB DUP1 NOT DUP3 MLOAD AND DUP2 DUP5 MLOAD AND DUP1 DUP3 OR DUP6 MSTORE POP POP POP POP POP POP SWAP1 POP ADD SWAP2 POP POP PUSH1 0x0 PUSH1 0x40 MLOAD DUP1 DUP4 SUB DUP2 DUP6 DUP8 GAS CALL SWAP3 POP POP POP RETURNDATASIZE DUP1 PUSH1 0x0 DUP2 EQ PUSH2 0x121A JUMPI PUSH1 0x40 MLOAD SWAP2 POP PUSH1 0x1F NOT PUSH1 0x3F RETURNDATASIZE ADD AND DUP3 ADD PUSH1 0x40 MSTORE RETURNDATASIZE DUP3 MSTORE RETURNDATASIZE PUSH1 0x0 PUSH1 0x20 DUP5 ADD RETURNDATACOPY PUSH2 0x121F JUMP JUMPDEST PUSH1 0x60 SWAP2 POP JUMPDEST POP POP SWAP1 POP DUP1 PUSH2 0x638 JUMPI PUSH1 0x40 DUP1 MLOAD PUSH3 0x461BCD PUSH1 0xE5 SHL DUP2 MSTORE PUSH1 0x20 PUSH1 0x4 DUP3 ADD MSTORE PUSH1 0x3 PUSH1 0x24 DUP3 ADD MSTORE PUSH3 0x535445 PUSH1 0xE8 SHL PUSH1 0x44 DUP3 ADD MSTORE SWAP1 MLOAD SWAP1 DUP2 SWAP1 SUB PUSH1 0x64 ADD SWAP1 REVERT JUMPDEST TIMESTAMP SWAP1 JUMP JUMPDEST PUSH1 0x0 PUSH1 0x1 PUSH1 0x1 PUSH1 0xA0 SHL SUB DUP5 AND PUSH2 0x1273 JUMPI ADDRESS SWAP4 POP JUMPDEST PUSH1 0x0 DUP1 PUSH1 0x0 PUSH2 0x1285 DUP6 PUSH1 0x0 ADD MLOAD PUSH2 0x16CF JUMP JUMPDEST SWAP2 SWAP5 POP SWAP3 POP SWAP1 POP PUSH1 0x1 PUSH1 0x1 PUSH1 0xA0 SHL SUB DUP1 DUP4 AND SWAP1 DUP5 AND LT PUSH1 0x0 DUP1 PUSH2 0x12A9 DUP7 DUP7 DUP7 PUSH2 0x18AF JUMP JUMPDEST PUSH1 0x1 PUSH1 0x1 PUSH1 0xA0 SHL SUB AND PUSH4 0x128ACB08 DUP12 DUP6 PUSH2 0x12C2 DUP16 PUSH2 0x18ED JUMP JUMPDEST PUSH1 0x1 PUSH1 0x1 PUSH1 0xA0 SHL SUB DUP15 AND ISZERO PUSH2 0x12D7 JUMPI DUP14 PUSH2 0x12FD JUMP JUMPDEST DUP8 PUSH2 0x12F6 JUMPI PUSH20 0xFFFD8963EFD1FC6A506488495D951D5263988D25 PUSH2 0x12FD JUMP JUMPDEST PUSH5 0x1000276A4 JUMPDEST DUP14 PUSH1 0x40 MLOAD PUSH1 0x20 ADD PUSH2 0x130E SWAP2 SWAP1 PUSH2 0x2546 JUMP JUMPDEST PUSH1 0x40 MLOAD PUSH1 0x20 DUP2 DUP4 SUB SUB DUP2 MSTORE SWAP1 PUSH1 0x40 MSTORE PUSH1 0x40 MLOAD DUP7 PUSH4 0xFFFFFFFF AND PUSH1 0xE0 SHL DUP2 MSTORE PUSH1 0x4 ADD PUSH2 0x133D SWAP6 SWAP5 SWAP4 SWAP3 SWAP2 SWAP1 PUSH2 0x2434 JUMP JUMPDEST PUSH1 0x40 DUP1 MLOAD DUP1 DUP4 SUB DUP2 PUSH1 0x0 DUP8 DUP1 EXTCODESIZE ISZERO DUP1 ISZERO PUSH2 0x1356 JUMPI PUSH1 0x0 DUP1 REVERT JUMPDEST POP GAS CALL ISZERO DUP1 ISZERO PUSH2 0x136A JUMPI RETURNDATASIZE PUSH1 0x0 DUP1 RETURNDATACOPY RETURNDATASIZE PUSH1 0x0 REVERT JUMPDEST POP POP POP POP PUSH1 0x40 MLOAD RETURNDATASIZE PUSH1 0x1F NOT PUSH1 0x1F DUP3 ADD AND DUP3 ADD DUP1 PUSH1 0x40 MSTORE POP DUP2 ADD SWAP1 PUSH2 0x138E SWAP2 SWAP1 PUSH2 0x2077 JUMP JUMPDEST SWAP2 POP SWAP2 POP DUP3 PUSH2 0x139D JUMPI DUP2 PUSH2 0x139F JUMP JUMPDEST DUP1 JUMPDEST PUSH1 0x0 SUB SWAP12 SWAP11 POP POP POP POP POP POP POP POP POP POP POP JUMP JUMPDEST PUSH1 0x0 DUP3 ISZERO DUP1 PUSH2 0x13CC JUMPI POP POP DUP2 DUP2 MUL DUP2 DUP4 DUP3 DUP2 PUSH2 0x13C9 JUMPI INVALID JUMPDEST DIV EQ JUMPDEST PUSH2 0x13D5 JUMPI PUSH1 0x0 DUP1 REVERT JUMPDEST SWAP3 SWAP2 POP POP JUMP JUMPDEST DUP1 MLOAD PUSH1 0x42 GT ISZERO JUMPDEST SWAP2 SWAP1 POP JUMP JUMPDEST PUSH1 0x60 PUSH2 0x13D5 DUP3 PUSH1 0x0 PUSH1 0x2B PUSH2 0x1903 JUMP JUMPDEST DUP1 MLOAD PUSH1 0x60 SWAP1 PUSH2 0x13D5 SWAP1 DUP4 SWAP1 PUSH1 0x17 SWAP1 PUSH1 0x16 NOT ADD PUSH2 0x1903 JUMP JUMPDEST PUSH1 0x0 PUSH1 0x1 PUSH1 0x1 PUSH1 0xA0 SHL SUB DUP5 AND PUSH2 0x1421 JUMPI ADDRESS SWAP4 POP JUMPDEST PUSH1 0x0 DUP1 PUSH1 0x0 PUSH2 0x1433 DUP6 PUSH1 0x0 ADD MLOAD PUSH2 0x16CF JUMP JUMPDEST SWAP2 SWAP5 POP SWAP3 POP SWAP1 POP PUSH1 0x1 PUSH1 0x1 PUSH1 0xA0 SHL SUB DUP1 DUP5 AND SWAP1 DUP4 AND LT PUSH1 0x0 DUP1 PUSH2 0x1457 DUP6 DUP8 DUP7 PUSH2 0x18AF JUMP JUMPDEST PUSH1 0x1 PUSH1 0x1 PUSH1 0xA0 SHL SUB AND PUSH4 0x128ACB08 DUP12 DUP6 PUSH2 0x1470 DUP16 PUSH2 0x18ED JUMP JUMPDEST PUSH1 0x0 SUB PUSH1 0x1 PUSH1 0x1 PUSH1 0xA0 SHL SUB DUP15 AND ISZERO PUSH2 0x1488 JUMPI DUP14 PUSH2 0x14AE JUMP JUMPDEST DUP8 PUSH2 0x14A7 JUMPI PUSH20 0xFFFD8963EFD1FC6A506488495D951D5263988D25 PUSH2 0x14AE JUMP JUMPDEST PUSH5 0x1000276A4 JUMPDEST DUP14 PUSH1 0x40 MLOAD PUSH1 0x20 ADD PUSH2 0x14BF SWAP2 SWAP1 PUSH2 0x2546 JUMP JUMPDEST PUSH1 0x40 MLOAD PUSH1 0x20 DUP2 DUP4 SUB SUB DUP2 MSTORE SWAP1 PUSH1 0x40 MSTORE PUSH1 0x40 MLOAD DUP7 PUSH4 0xFFFFFFFF AND PUSH1 0xE0 SHL DUP2 MSTORE PUSH1 0x4 ADD PUSH2 0x14EE SWAP6 SWAP5 SWAP4 SWAP3 SWAP2 SWAP1 PUSH2 0x2434 JUMP JUMPDEST PUSH1 0x40 DUP1 MLOAD DUP1 DUP4 SUB DUP2 PUSH1 0x0 DUP8 DUP1 EXTCODESIZE ISZERO DUP1 ISZERO PUSH2 0x1507 JUMPI PUSH1 0x0 DUP1 REVERT JUMPDEST POP GAS CALL ISZERO DUP1 ISZERO PUSH2 0x151B JUMPI RETURNDATASIZE PUSH1 0x0 DUP1 RETURNDATACOPY RETURNDATASIZE PUSH1 0x0 REVERT JUMPDEST POP POP POP POP PUSH1 0x40 MLOAD RETURNDATASIZE PUSH1 0x1F NOT PUSH1 0x1F DUP3 ADD AND DUP3 ADD DUP1 PUSH1 0x40 MSTORE POP DUP2 ADD SWAP1 PUSH2 0x153F SWAP2 SWAP1 PUSH2 0x2077 JUMP JUMPDEST SWAP2 POP SWAP2 POP PUSH1 0x0 DUP4 PUSH2 0x1554 JUMPI DUP2 DUP4 PUSH1 0x0 SUB PUSH2 0x155A JUMP JUMPDEST DUP3 DUP3 PUSH1 0x0 SUB JUMPDEST SWAP1 SWAP9 POP SWAP1 POP PUSH1 0x1 PUSH1 0x1 PUSH1 0xA0 SHL SUB DUP11 AND PUSH2 0x1579 JUMPI DUP12 DUP2 EQ PUSH2 0x1579 JUMPI PUSH1 0x0 DUP1 REVERT JUMPDEST POP POP POP POP POP POP POP SWAP5 SWAP4 POP POP POP POP JUMP JUMPDEST PUSH1 0x40 DUP1 MLOAD PUSH1 0x1 PUSH1 0x1 PUSH1 0xA0 SHL SUB DUP5 DUP2 AND PUSH1 0x24 DUP4 ADD MSTORE PUSH1 0x44 DUP1 DUP4 ADD DUP6 SWAP1 MSTORE DUP4 MLOAD DUP1 DUP5 SUB SWAP1 SWAP2 ADD DUP2 MSTORE PUSH1 0x64 SWAP1 SWAP3 ADD DUP4 MSTORE PUSH1 0x20 DUP3 ADD DUP1 MLOAD PUSH1 0x1 PUSH1 0x1 PUSH1 0xE0 SHL SUB AND PUSH4 0xA9059CBB PUSH1 0xE0 SHL OR DUP2 MSTORE SWAP3 MLOAD DUP3 MLOAD PUSH1 0x0 SWAP5 DUP6 SWAP5 SWAP4 DUP10 AND SWAP4 SWAP3 SWAP2 DUP3 SWAP2 SWAP1 DUP1 DUP4 DUP4 JUMPDEST PUSH1 0x20 DUP4 LT PUSH2 0x1604 JUMPI DUP1 MLOAD DUP3 MSTORE PUSH1 0x1F NOT SWAP1 SWAP3 ADD SWAP2 PUSH1 0x20 SWAP2 DUP3 ADD SWAP2 ADD PUSH2 0x15E5 JUMP JUMPDEST PUSH1 0x1 DUP4 PUSH1 0x20 SUB PUSH2 0x100 EXP SUB DUP1 NOT DUP3 MLOAD AND DUP2 DUP5 MLOAD AND DUP1 DUP3 OR DUP6 MSTORE POP POP POP POP POP POP SWAP1 POP ADD SWAP2 POP POP PUSH1 0x0 PUSH1 0x40 MLOAD DUP1 DUP4 SUB DUP2 PUSH1 0x0 DUP7 GAS CALL SWAP2 POP POP RETURNDATASIZE DUP1 PUSH1 0x0 DUP2 EQ PUSH2 0x1666 JUMPI PUSH1 0x40 MLOAD SWAP2 POP PUSH1 0x1F NOT PUSH1 0x3F RETURNDATASIZE ADD AND DUP3 ADD PUSH1 0x40 MSTORE RETURNDATASIZE DUP3 MSTORE RETURNDATASIZE PUSH1 0x0 PUSH1 0x20 DUP5 ADD RETURNDATACOPY PUSH2 0x166B JUMP JUMPDEST PUSH1 0x60 SWAP2 POP JUMPDEST POP SWAP2 POP SWAP2 POP DUP2 DUP1 ISZERO PUSH2 0x1699 JUMPI POP DUP1 MLOAD ISZERO DUP1 PUSH2 0x1699 JUMPI POP DUP1 DUP1 PUSH1 0x20 ADD SWAP1 MLOAD PUSH1 0x20 DUP2 LT ISZERO PUSH2 0x1696 JUMPI PUSH1 0x0 DUP1 REVERT JUMPDEST POP MLOAD JUMPDEST PUSH2 0x826 JUMPI PUSH1 0x40 DUP1 MLOAD PUSH3 0x461BCD PUSH1 0xE5 SHL DUP2 MSTORE PUSH1 0x20 PUSH1 0x4 DUP3 ADD MSTORE PUSH1 0x2 PUSH1 0x24 DUP3 ADD MSTORE PUSH2 0x14D5 PUSH1 0xF2 SHL PUSH1 0x44 DUP3 ADD MSTORE SWAP1 MLOAD SWAP1 DUP2 SWAP1 SUB PUSH1 0x64 ADD SWAP1 REVERT JUMPDEST PUSH1 0x0 DUP1 DUP1 PUSH2 0x16DD DUP5 DUP3 PUSH2 0x1A54 JUMP JUMPDEST SWAP3 POP PUSH2 0x16EA DUP5 PUSH1 0x14 PUSH2 0x1B04 JUMP JUMPDEST SWAP1 POP PUSH2 0x16F7 DUP5 PUSH1 0x17 PUSH2 0x1A54 JUMP JUMPDEST SWAP2 POP SWAP2 SWAP4 SWAP1 SWAP3 POP JUMP JUMPDEST PUSH1 0x0 PUSH2 0x1716 DUP6 PUSH2 0x1711 DUP7 DUP7 DUP7 PUSH2 0x1BAB JUMP JUMPDEST PUSH2 0x1C01 JUMP JUMPDEST SWAP6 SWAP5 POP POP POP POP POP JUMP JUMPDEST PUSH32 0x0 PUSH1 0x1 PUSH1 0x1 PUSH1 0xA0 SHL SUB AND DUP5 PUSH1 0x1 PUSH1 0x1 PUSH1 0xA0 SHL SUB AND EQ DUP1 ISZERO PUSH2 0x1760 JUMPI POP DUP1 SELFBALANCE LT ISZERO JUMPDEST ISZERO PUSH2 0x1882 JUMPI PUSH32 0x0 PUSH1 0x1 PUSH1 0x1 PUSH1 0xA0 SHL SUB AND PUSH4 0xD0E30DB0 DUP3 PUSH1 0x40 MLOAD DUP3 PUSH4 0xFFFFFFFF AND PUSH1 0xE0 SHL DUP2 MSTORE PUSH1 0x4 ADD PUSH1 0x0 PUSH1 0x40 MLOAD DUP1 DUP4 SUB DUP2 DUP6 DUP9 DUP1 EXTCODESIZE ISZERO DUP1 ISZERO PUSH2 0x17C0 JUMPI PUSH1 0x0 DUP1 REVERT JUMPDEST POP GAS CALL ISZERO DUP1 ISZERO PUSH2 0x17D4 JUMPI RETURNDATASIZE PUSH1 0x0 DUP1 RETURNDATACOPY RETURNDATASIZE PUSH1 0x0 REVERT JUMPDEST POP POP POP POP POP PUSH32 0x0 PUSH1 0x1 PUSH1 0x1 PUSH1 0xA0 SHL SUB AND PUSH4 0xA9059CBB DUP4 DUP4 PUSH1 0x40 MLOAD DUP4 PUSH4 0xFFFFFFFF AND PUSH1 0xE0 SHL DUP2 MSTORE PUSH1 0x4 ADD DUP1 DUP4 PUSH1 0x1 PUSH1 0x1 PUSH1 0xA0 SHL SUB AND DUP2 MSTORE PUSH1 0x20 ADD DUP3 DUP2 MSTORE PUSH1 0x20 ADD SWAP3 POP POP POP PUSH1 0x20 PUSH1 0x40 MLOAD DUP1 DUP4 SUB DUP2 PUSH1 0x0 DUP8 DUP1 EXTCODESIZE ISZERO DUP1 ISZERO PUSH2 0x1850 JUMPI PUSH1 0x0 DUP1 REVERT JUMPDEST POP GAS CALL ISZERO DUP1 ISZERO PUSH2 0x1864 JUMPI RETURNDATASIZE PUSH1 0x0 DUP1 RETURNDATACOPY RETURNDATASIZE PUSH1 0x0 REVERT JUMPDEST POP POP POP POP PUSH1 0x40 MLOAD RETURNDATASIZE PUSH1 0x20 DUP2 LT ISZERO PUSH2 0x187A JUMPI PUSH1 0x0 DUP1 REVERT JUMPDEST POP PUSH2 0xDC4 SWAP1 POP JUMP JUMPDEST PUSH1 0x1 PUSH1 0x1 PUSH1 0xA0 SHL SUB DUP4 AND ADDRESS EQ ISZERO PUSH2 0x18A3 JUMPI PUSH2 0x189E DUP5 DUP4 DUP4 PUSH2 0x1588 JUMP JUMPDEST PUSH2 0xDC4 JUMP JUMPDEST PUSH2 0xDC4 DUP5 DUP5 DUP5 DUP5 PUSH2 0x1C24 JUMP JUMPDEST PUSH1 0x0 PUSH2 0x18E5 PUSH32 0x0 PUSH2 0x18E0 DUP7 DUP7 DUP7 PUSH2 0x1BAB JUMP JUMPDEST PUSH2 0x1D74 JUMP JUMPDEST SWAP5 SWAP4 POP POP POP POP JUMP JUMPDEST PUSH1 0x0 PUSH1 0x1 PUSH1 0xFF SHL DUP3 LT PUSH2 0x18FF JUMPI PUSH1 0x0 DUP1 REVERT JUMPDEST POP SWAP1 JUMP JUMPDEST PUSH1 0x60 DUP2 DUP3 PUSH1 0x1F ADD LT ISZERO PUSH2 0x194E JUMPI PUSH1 0x40 DUP1 MLOAD PUSH3 0x461BCD PUSH1 0xE5 SHL DUP2 MSTORE PUSH1 0x20 PUSH1 0x4 DUP3 ADD MSTORE PUSH1 0xE PUSH1 0x24 DUP3 ADD MSTORE PUSH14 0x736C6963655F6F766572666C6F77 PUSH1 0x90 SHL PUSH1 0x44 DUP3 ADD MSTORE SWAP1 MLOAD SWAP1 DUP2 SWAP1 SUB PUSH1 0x64 ADD SWAP1 REVERT JUMPDEST DUP3 DUP3 DUP5 ADD LT ISZERO PUSH2 0x1996 JUMPI PUSH1 0x40 DUP1 MLOAD PUSH3 0x461BCD PUSH1 0xE5 SHL DUP2 MSTORE PUSH1 0x20 PUSH1 0x4 DUP3 ADD MSTORE PUSH1 0xE PUSH1 0x24 DUP3 ADD MSTORE PUSH14 0x736C6963655F6F766572666C6F77 PUSH1 0x90 SHL PUSH1 0x44 DUP3 ADD MSTORE SWAP1 MLOAD SWAP1 DUP2 SWAP1 SUB PUSH1 0x64 ADD SWAP1 REVERT JUMPDEST DUP2 DUP4 ADD DUP5 MLOAD LT ISZERO PUSH2 0x19E2 JUMPI PUSH1 0x40 DUP1 MLOAD PUSH3 0x461BCD PUSH1 0xE5 SHL DUP2 MSTORE PUSH1 0x20 PUSH1 0x4 DUP3 ADD MSTORE PUSH1 0x11 PUSH1 0x24 DUP3 ADD MSTORE PUSH17 0x736C6963655F6F75744F66426F756E6473 PUSH1 0x78 SHL PUSH1 0x44 DUP3 ADD MSTORE SWAP1 MLOAD SWAP1 DUP2 SWAP1 SUB PUSH1 0x64 ADD SWAP1 REVERT JUMPDEST PUSH1 0x60 DUP3 ISZERO DUP1 ISZERO PUSH2 0x1A01 JUMPI PUSH1 0x40 MLOAD SWAP2 POP PUSH1 0x0 DUP3 MSTORE PUSH1 0x20 DUP3 ADD PUSH1 0x40 MSTORE PUSH2 0x1A4B JUMP JUMPDEST PUSH1 0x40 MLOAD SWAP2 POP PUSH1 0x1F DUP5 AND DUP1 ISZERO PUSH1 0x20 MUL DUP2 DUP5 ADD ADD DUP6 DUP2 ADD DUP8 DUP4 ISZERO PUSH1 0x20 MUL DUP5 DUP12 ADD ADD ADD JUMPDEST DUP2 DUP4 LT ISZERO PUSH2 0x1A3A JUMPI DUP1 MLOAD DUP4 MSTORE PUSH1 0x20 SWAP3 DUP4 ADD SWAP3 ADD PUSH2 0x1A22 JUMP JUMPDEST POP POP DUP6 DUP5 MSTORE PUSH1 0x1F ADD PUSH1 0x1F NOT AND PUSH1 0x40 MSTORE POP JUMPDEST POP SWAP5 SWAP4 POP POP POP POP JUMP JUMPDEST PUSH1 0x0 DUP2 DUP3 PUSH1 0x14 ADD LT ISZERO PUSH2 0x1AA3 JUMPI PUSH1 0x40 DUP1 MLOAD PUSH3 0x461BCD PUSH1 0xE5 SHL DUP2 MSTORE PUSH1 0x20 PUSH1 0x4 DUP3 ADD MSTORE PUSH1 0x12 PUSH1 0x24 DUP3 ADD MSTORE PUSH18 0x746F416464726573735F6F766572666C6F77 PUSH1 0x70 SHL PUSH1 0x44 DUP3 ADD MSTORE SWAP1 MLOAD SWAP1 DUP2 SWAP1 SUB PUSH1 0x64 ADD SWAP1 REVERT JUMPDEST DUP2 PUSH1 0x14 ADD DUP4 MLOAD LT ISZERO PUSH2 0x1AF4 JUMPI PUSH1 0x40 DUP1 MLOAD PUSH3 0x461BCD PUSH1 0xE5 SHL DUP2 MSTORE PUSH1 0x20 PUSH1 0x4 DUP3 ADD MSTORE PUSH1 0x15 PUSH1 0x24 DUP3 ADD MSTORE PUSH21 0x746F416464726573735F6F75744F66426F756E6473 PUSH1 0x58 SHL PUSH1 0x44 DUP3 ADD MSTORE SWAP1 MLOAD SWAP1 DUP2 SWAP1 SUB PUSH1 0x64 ADD SWAP1 REVERT JUMPDEST POP ADD PUSH1 0x20 ADD MLOAD PUSH1 0x1 PUSH1 0x60 SHL SWAP1 DIV SWAP1 JUMP JUMPDEST PUSH1 0x0 DUP2 DUP3 PUSH1 0x3 ADD LT ISZERO PUSH2 0x1B52 JUMPI PUSH1 0x40 DUP1 MLOAD PUSH3 0x461BCD PUSH1 0xE5 SHL DUP2 MSTORE PUSH1 0x20 PUSH1 0x4 DUP3 ADD MSTORE PUSH1 0x11 PUSH1 0x24 DUP3 ADD MSTORE PUSH17 0x746F55696E7432345F6F766572666C6F77 PUSH1 0x78 SHL PUSH1 0x44 DUP3 ADD MSTORE SWAP1 MLOAD SWAP1 DUP2 SWAP1 SUB PUSH1 0x64 ADD SWAP1 REVERT JUMPDEST DUP2 PUSH1 0x3 ADD DUP4 MLOAD LT ISZERO PUSH2 0x1BA2 JUMPI PUSH1 0x40 DUP1 MLOAD PUSH3 0x461BCD PUSH1 0xE5 SHL DUP2 MSTORE PUSH1 0x20 PUSH1 0x4 DUP3 ADD MSTORE PUSH1 0x14 PUSH1 0x24 DUP3 ADD MSTORE PUSH20 0x746F55696E7432345F6F75744F66426F756E6473 PUSH1 0x60 SHL PUSH1 0x44 DUP3 ADD MSTORE SWAP1 MLOAD SWAP1 DUP2 SWAP1 SUB PUSH1 0x64 ADD SWAP1 REVERT JUMPDEST POP ADD PUSH1 0x3 ADD MLOAD SWAP1 JUMP JUMPDEST PUSH2 0x1BB3 PUSH2 0x1E58 JUMP JUMPDEST DUP3 PUSH1 0x1 PUSH1 0x1 PUSH1 0xA0 SHL SUB AND DUP5 PUSH1 0x1 PUSH1 0x1 PUSH1 0xA0 SHL SUB AND GT ISZERO PUSH2 0x1BD1 JUMPI SWAP2 SWAP3 SWAP2 JUMPDEST POP PUSH1 0x40 DUP1 MLOAD PUSH1 0x60 DUP2 ADD DUP3 MSTORE PUSH1 0x1 PUSH1 0x1 PUSH1 0xA0 SHL SUB SWAP5 DUP6 AND DUP2 MSTORE SWAP3 SWAP1 SWAP4 AND PUSH1 0x20 DUP4 ADD MSTORE PUSH3 0xFFFFFF AND SWAP2 DUP2 ADD SWAP2 SWAP1 SWAP2 MSTORE SWAP1 JUMP JUMPDEST PUSH1 0x0 PUSH2 0x1C0D DUP4 DUP4 PUSH2 0x1D74 JUMP JUMPDEST SWAP1 POP CALLER PUSH1 0x1 PUSH1 0x1 PUSH1 0xA0 SHL SUB DUP3 AND EQ PUSH2 0x13D5 JUMPI PUSH1 0x0 DUP1 REVERT JUMPDEST PUSH1 0x40 DUP1 MLOAD PUSH1 0x1 PUSH1 0x1 PUSH1 0xA0 SHL SUB DUP6 DUP2 AND PUSH1 0x24 DUP4 ADD MSTORE DUP5 DUP2 AND PUSH1 0x44 DUP4 ADD MSTORE PUSH1 0x64 DUP1 DUP4 ADD DUP6 SWAP1 MSTORE DUP4 MLOAD DUP1 DUP5 SUB SWAP1 SWAP2 ADD DUP2 MSTORE PUSH1 0x84 SWAP1 SWAP3 ADD DUP4 MSTORE PUSH1 0x20 DUP3 ADD DUP1 MLOAD PUSH1 0x1 PUSH1 0x1 PUSH1 0xE0 SHL SUB AND PUSH4 0x23B872DD PUSH1 0xE0 SHL OR DUP2 MSTORE SWAP3 MLOAD DUP3 MLOAD PUSH1 0x0 SWAP5 DUP6 SWAP5 SWAP4 DUP11 AND SWAP4 SWAP3 SWAP2 DUP3 SWAP2 SWAP1 DUP1 DUP4 DUP4 JUMPDEST PUSH1 0x20 DUP4 LT PUSH2 0x1CA8 JUMPI DUP1 MLOAD DUP3 MSTORE PUSH1 0x1F NOT SWAP1 SWAP3 ADD SWAP2 PUSH1 0x20 SWAP2 DUP3 ADD SWAP2 ADD PUSH2 0x1C89 JUMP JUMPDEST PUSH1 0x1 DUP4 PUSH1 0x20 SUB PUSH2 0x100 EXP SUB DUP1 NOT DUP3 MLOAD AND DUP2 DUP5 MLOAD AND DUP1 DUP3 OR DUP6 MSTORE POP POP POP POP POP POP SWAP1 POP ADD SWAP2 POP POP PUSH1 0x0 PUSH1 0x40 MLOAD DUP1 DUP4 SUB DUP2 PUSH1 0x0 DUP7 GAS CALL SWAP2 POP POP RETURNDATASIZE DUP1 PUSH1 0x0 DUP2 EQ PUSH2 0x1D0A JUMPI PUSH1 0x40 MLOAD SWAP2 POP PUSH1 0x1F NOT PUSH1 0x3F RETURNDATASIZE ADD AND DUP3 ADD PUSH1 0x40 MSTORE RETURNDATASIZE DUP3 MSTORE RETURNDATASIZE PUSH1 0x0 PUSH1 0x20 DUP5 ADD RETURNDATACOPY PUSH2 0x1D0F JUMP JUMPDEST PUSH1 0x60 SWAP2 POP JUMPDEST POP SWAP2 POP SWAP2 POP DUP2 DUP1 ISZERO PUSH2 0x1D3D JUMPI POP DUP1 MLOAD ISZERO DUP1 PUSH2 0x1D3D JUMPI POP DUP1 DUP1 PUSH1 0x20 ADD SWAP1 MLOAD PUSH1 0x20 DUP2 LT ISZERO PUSH2 0x1D3A JUMPI PUSH1 0x0 DUP1 REVERT JUMPDEST POP MLOAD JUMPDEST PUSH2 0x824 JUMPI PUSH1 0x40 DUP1 MLOAD PUSH3 0x461BCD PUSH1 0xE5 SHL DUP2 MSTORE PUSH1 0x20 PUSH1 0x4 DUP3 ADD MSTORE PUSH1 0x3 PUSH1 0x24 DUP3 ADD MSTORE PUSH3 0x29AA23 PUSH1 0xE9 SHL PUSH1 0x44 DUP3 ADD MSTORE SWAP1 MLOAD SWAP1 DUP2 SWAP1 SUB PUSH1 0x64 ADD SWAP1 REVERT JUMPDEST PUSH1 0x0 DUP2 PUSH1 0x20 ADD MLOAD PUSH1 0x1 PUSH1 0x1 PUSH1 0xA0 SHL SUB AND DUP3 PUSH1 0x0 ADD MLOAD PUSH1 0x1 PUSH1 0x1 PUSH1 0xA0 SHL SUB AND LT PUSH2 0x1D9C JUMPI PUSH1 0x0 DUP1 REVERT JUMPDEST POP DUP1 MLOAD PUSH1 0x20 DUP1 DUP4 ADD MLOAD PUSH1 0x40 SWAP4 DUP5 ADD MLOAD DUP5 MLOAD PUSH1 0x1 PUSH1 0x1 PUSH1 0xA0 SHL SUB SWAP5 DUP6 AND DUP2 DUP6 ADD MSTORE SWAP4 SWAP1 SWAP2 AND DUP4 DUP6 ADD MSTORE PUSH3 0xFFFFFF AND PUSH1 0x60 DUP1 DUP5 ADD SWAP2 SWAP1 SWAP2 MSTORE DUP4 MLOAD DUP1 DUP5 SUB DUP3 ADD DUP2 MSTORE PUSH1 0x80 DUP5 ADD DUP6 MSTORE DUP1 MLOAD SWAP1 DUP4 ADD KECCAK256 PUSH1 0x1 PUSH1 0x1 PUSH1 0xF8 SHL SUB NOT PUSH1 0xA0 DUP6 ADD MSTORE SWAP5 SWAP1 SHL PUSH12 0xFFFFFFFFFFFFFFFFFFFFFFFF NOT AND PUSH1 0xA1 DUP4 ADD MSTORE PUSH1 0xB5 DUP3 ADD SWAP4 SWAP1 SWAP4 MSTORE PUSH32 0xE34F199B19B2B4F47F68442619D555527D244F78A3297EA89325F843F87B8B54 PUSH1 0xD5 DUP1 DUP4 ADD SWAP2 SWAP1 SWAP2 MSTORE DUP3 MLOAD DUP1 DUP4 SUB SWAP1 SWAP2 ADD DUP2 MSTORE PUSH1 0xF5 SWAP1 SWAP2 ADD SWAP1 SWAP2 MSTORE DUP1 MLOAD SWAP2 ADD KECCAK256 SWAP1 JUMP JUMPDEST PUSH1 0x40 DUP1 MLOAD PUSH1 0x60 DUP2 ADD DUP3 MSTORE PUSH1 0x0 DUP1 DUP3 MSTORE PUSH1 0x20 DUP3 ADD DUP2 SWAP1 MSTORE SWAP2 DUP2 ADD SWAP2 SWAP1 SWAP2 MSTORE SWAP1 JUMP JUMPDEST DUP1 CALLDATALOAD PUSH2 0x13E2 DUP2 PUSH2 0x264A JUMP JUMPDEST PUSH1 0x0 DUP3 PUSH1 0x1F DUP4 ADD SLT PUSH2 0x1E93 JUMPI DUP1 DUP2 REVERT JUMPDEST DUP2 CALLDATALOAD PUSH2 0x1EA6 PUSH2 0x1EA1 DUP3 PUSH2 0x25FC JUMP JUMPDEST PUSH2 0x25D8 JUMP JUMPDEST DUP2 DUP2 MSTORE DUP5 PUSH1 0x20 DUP4 DUP7 ADD ADD GT ISZERO PUSH2 0x1EBA JUMPI DUP3 DUP4 REVERT JUMPDEST DUP2 PUSH1 0x20 DUP6 ADD PUSH1 0x20 DUP4 ADD CALLDATACOPY SWAP1 DUP2 ADD PUSH1 0x20 ADD SWAP2 SWAP1 SWAP2 MSTORE SWAP3 SWAP2 POP POP JUMP JUMPDEST PUSH1 0x0 PUSH2 0x100 DUP3 DUP5 SUB SLT ISZERO PUSH2 0x423 JUMPI DUP1 DUP2 REVERT JUMPDEST PUSH1 0x0 PUSH1 0x20 DUP3 DUP5 SUB SLT ISZERO PUSH2 0x1EF7 JUMPI DUP1 DUP2 REVERT JUMPDEST DUP2 CALLDATALOAD PUSH2 0x1F02 DUP2 PUSH2 0x264A JUMP JUMPDEST SWAP4 SWAP3 POP POP POP JUMP JUMPDEST PUSH1 0x0 DUP1 PUSH1 0x0 PUSH1 0x60 DUP5 DUP7 SUB SLT ISZERO PUSH2 0x1F1D JUMPI DUP2 DUP3 REVERT JUMPDEST DUP4 CALLDATALOAD PUSH2 0x1F28 DUP2 PUSH2 0x264A JUMP JUMPDEST SWAP3 POP PUSH1 0x20 DUP5 ADD CALLDATALOAD SWAP2 POP PUSH1 0x40 DUP5 ADD CALLDATALOAD PUSH2 0x1F3F DUP2 PUSH2 0x264A JUMP JUMPDEST DUP1 SWAP2 POP POP SWAP3 POP SWAP3 POP SWAP3 JUMP JUMPDEST PUSH1 0x0 DUP1 PUSH1 0x0 DUP1 PUSH1 0x0 PUSH1 0xA0 DUP7 DUP9 SUB SLT ISZERO PUSH2 0x1F61 JUMPI DUP1 DUP2 REVERT JUMPDEST DUP6 CALLDATALOAD PUSH2 0x1F6C DUP2 PUSH2 0x264A JUMP JUMPDEST SWAP5 POP PUSH1 0x20 DUP7 ADD CALLDATALOAD SWAP4 POP PUSH1 0x40 DUP7 ADD CALLDATALOAD PUSH2 0x1F83 DUP2 PUSH2 0x264A JUMP JUMPDEST SWAP3 POP PUSH1 0x60 DUP7 ADD CALLDATALOAD SWAP2 POP PUSH1 0x80 DUP7 ADD CALLDATALOAD PUSH2 0x1F9A DUP2 PUSH2 0x264A JUMP JUMPDEST DUP1 SWAP2 POP POP SWAP3 SWAP6 POP SWAP3 SWAP6 SWAP1 SWAP4 POP JUMP JUMPDEST PUSH1 0x0 DUP1 PUSH1 0x0 DUP1 PUSH1 0x0 DUP1 PUSH1 0xC0 DUP8 DUP10 SUB SLT ISZERO PUSH2 0x1FC0 JUMPI DUP1 DUP2 REVERT JUMPDEST DUP7 CALLDATALOAD PUSH2 0x1FCB DUP2 PUSH2 0x264A JUMP JUMPDEST SWAP6 POP PUSH1 0x20 DUP8 ADD CALLDATALOAD SWAP5 POP PUSH1 0x40 DUP8 ADD CALLDATALOAD SWAP4 POP PUSH1 0x60 DUP8 ADD CALLDATALOAD PUSH1 0xFF DUP2 AND DUP2 EQ PUSH2 0x1FEE JUMPI DUP2 DUP3 REVERT JUMPDEST SWAP6 SWAP9 SWAP5 SWAP8 POP SWAP3 SWAP6 PUSH1 0x80 DUP2 ADD CALLDATALOAD SWAP5 PUSH1 0xA0 SWAP1 SWAP2 ADD CALLDATALOAD SWAP4 POP SWAP2 POP POP JUMP JUMPDEST PUSH1 0x0 DUP1 PUSH1 0x20 DUP4 DUP6 SUB SLT ISZERO PUSH2 0x201A JUMPI DUP2 DUP3 REVERT JUMPDEST DUP3 CALLDATALOAD PUSH8 0xFFFFFFFFFFFFFFFF DUP1 DUP3 GT ISZERO PUSH2 0x2031 JUMPI DUP4 DUP5 REVERT JUMPDEST DUP2 DUP6 ADD SWAP2 POP DUP6 PUSH1 0x1F DUP4 ADD SLT PUSH2 0x2044 JUMPI DUP4 DUP5 REVERT JUMPDEST DUP2 CALLDATALOAD DUP2 DUP2 GT ISZERO PUSH2 0x2052 JUMPI DUP5 DUP6 REVERT JUMPDEST DUP7 PUSH1 0x20 DUP1 DUP4 MUL DUP6 ADD ADD GT ISZERO PUSH2 0x2065 JUMPI DUP5 DUP6 REVERT JUMPDEST PUSH1 0x20 SWAP3 SWAP1 SWAP3 ADD SWAP7 SWAP2 SWAP6 POP SWAP1 SWAP4 POP POP POP POP JUMP JUMPDEST PUSH1 0x0 DUP1 PUSH1 0x40 DUP4 DUP6 SUB SLT ISZERO PUSH2 0x2089 JUMPI DUP2 DUP3 REVERT JUMPDEST POP POP DUP1 MLOAD PUSH1 0x20 SWAP1 SWAP2 ADD MLOAD SWAP1 SWAP3 SWAP1 SWAP2 POP JUMP JUMPDEST PUSH1 0x0 DUP1 PUSH1 0x0 DUP1 PUSH1 0x60 DUP6 DUP8 SUB SLT ISZERO PUSH2 0x20AF JUMPI DUP2 DUP3 REVERT JUMPDEST DUP5 CALLDATALOAD SWAP4 POP PUSH1 0x20 DUP6 ADD CALLDATALOAD SWAP3 POP PUSH1 0x40 DUP6 ADD CALLDATALOAD PUSH8 0xFFFFFFFFFFFFFFFF DUP1 DUP3 GT ISZERO PUSH2 0x20D4 JUMPI DUP4 DUP5 REVERT JUMPDEST DUP2 DUP8 ADD SWAP2 POP DUP8 PUSH1 0x1F DUP4 ADD SLT PUSH2 0x20E7 JUMPI DUP4 DUP5 REVERT JUMPDEST DUP2 CALLDATALOAD DUP2 DUP2 GT ISZERO PUSH2 0x20F5 JUMPI DUP5 DUP6 REVERT JUMPDEST DUP9 PUSH1 0x20 DUP3 DUP6 ADD ADD GT ISZERO PUSH2 0x2106 JUMPI DUP5 DUP6 REVERT JUMPDEST SWAP6 SWAP9 SWAP5 SWAP8 POP POP PUSH1 0x20 ADD SWAP5 POP POP POP JUMP JUMPDEST PUSH1 0x0 PUSH1 0x20 DUP3 DUP5 SUB SLT ISZERO PUSH2 0x2126 JUMPI DUP1 DUP2 REVERT JUMPDEST DUP2 MLOAD PUSH8 0xFFFFFFFFFFFFFFFF DUP2 GT ISZERO PUSH2 0x213C JUMPI DUP2 DUP3 REVERT JUMPDEST DUP3 ADD PUSH1 0x1F DUP2 ADD DUP5 SGT PUSH2 0x214C JUMPI DUP2 DUP3 REVERT JUMPDEST DUP1 MLOAD PUSH2 0x215A PUSH2 0x1EA1 DUP3 PUSH2 0x25FC JUMP JUMPDEST DUP2 DUP2 MSTORE DUP6 PUSH1 0x20 DUP4 DUP6 ADD ADD GT ISZERO PUSH2 0x216E JUMPI DUP4 DUP5 REVERT JUMPDEST PUSH2 0x1716 DUP3 PUSH1 0x20 DUP4 ADD PUSH1 0x20 DUP7 ADD PUSH2 0x261E JUMP JUMPDEST PUSH1 0x0 PUSH1 0x20 DUP3 DUP5 SUB SLT ISZERO PUSH2 0x2190 JUMPI DUP1 DUP2 REVERT JUMPDEST DUP2 CALLDATALOAD PUSH8 0xFFFFFFFFFFFFFFFF DUP1 DUP3 GT ISZERO PUSH2 0x21A7 JUMPI DUP3 DUP4 REVERT JUMPDEST SWAP1 DUP4 ADD SWAP1 PUSH1 0xA0 DUP3 DUP7 SUB SLT ISZERO PUSH2 0x21BA JUMPI DUP3 DUP4 REVERT JUMPDEST PUSH1 0x40 MLOAD PUSH1 0xA0 DUP2 ADD DUP2 DUP2 LT DUP4 DUP3 GT OR ISZERO PUSH2 0x21CF JUMPI INVALID JUMPDEST PUSH1 0x40 MSTORE DUP3 CALLDATALOAD DUP3 DUP2 GT ISZERO PUSH2 0x21E0 JUMPI DUP5 DUP6 REVERT JUMPDEST PUSH2 0x21EC DUP8 DUP3 DUP7 ADD PUSH2 0x1E83 JUMP JUMPDEST DUP3 MSTORE POP PUSH2 0x21FB PUSH1 0x20 DUP5 ADD PUSH2 0x1E78 JUMP JUMPDEST PUSH1 0x20 DUP3 ADD MSTORE PUSH1 0x40 DUP4 ADD CALLDATALOAD PUSH1 0x40 DUP3 ADD MSTORE PUSH1 0x60 DUP4 ADD CALLDATALOAD PUSH1 0x60 DUP3 ADD MSTORE PUSH1 0x80 DUP4 ADD CALLDATALOAD PUSH1 0x80 DUP3 ADD MSTORE DUP1 SWAP4 POP POP POP POP SWAP3 SWAP2 POP POP JUMP JUMPDEST PUSH1 0x0 PUSH2 0x100 DUP3 DUP5 SUB SLT ISZERO PUSH2 0x223C JUMPI DUP1 DUP2 REVERT JUMPDEST PUSH2 0x1F02 DUP4 DUP4 PUSH2 0x1ED4 JUMP JUMPDEST PUSH1 0x0 PUSH1 0x20 DUP3 DUP5 SUB SLT ISZERO PUSH2 0x2257 JUMPI DUP1 DUP2 REVERT JUMPDEST DUP2 CALLDATALOAD PUSH8 0xFFFFFFFFFFFFFFFF DUP2 GT ISZERO PUSH2 0x226D JUMPI DUP2 DUP3 REVERT JUMPDEST DUP3 ADD PUSH1 0xA0 DUP2 DUP6 SUB SLT ISZERO PUSH2 0x1F02 JUMPI DUP2 DUP3 REVERT JUMPDEST PUSH1 0x0 PUSH1 0x20 DUP3 DUP5 SUB SLT ISZERO PUSH2 0x228F JUMPI DUP1 DUP2 REVERT JUMPDEST DUP2 CALLDATALOAD PUSH8 0xFFFFFFFFFFFFFFFF DUP1 DUP3 GT ISZERO PUSH2 0x22A6 JUMPI DUP3 DUP4 REVERT JUMPDEST SWAP1 DUP4 ADD SWAP1 PUSH1 0x40 DUP3 DUP7 SUB SLT ISZERO PUSH2 0x22B9 JUMPI DUP3 DUP4 REVERT JUMPDEST PUSH1 0x40 MLOAD PUSH1 0x40 DUP2 ADD DUP2 DUP2 LT DUP4 DUP3 GT OR ISZERO PUSH2 0x22CE JUMPI INVALID JUMPDEST PUSH1 0x40 MSTORE DUP3 CALLDATALOAD DUP3 DUP2 GT ISZERO PUSH2 0x22DF JUMPI DUP5 DUP6 REVERT JUMPDEST PUSH2 0x22EB DUP8 DUP3 DUP7 ADD PUSH2 0x1E83 JUMP JUMPDEST DUP3 MSTORE POP PUSH1 0x20 DUP4 ADD CALLDATALOAD SWAP3 POP PUSH2 0x22FE DUP4 PUSH2 0x264A JUMP JUMPDEST PUSH1 0x20 DUP2 ADD SWAP3 SWAP1 SWAP3 MSTORE POP SWAP4 SWAP3 POP POP POP JUMP JUMPDEST PUSH1 0x0 PUSH1 0x20 DUP3 DUP5 SUB SLT ISZERO PUSH2 0x231F JUMPI DUP1 DUP2 REVERT JUMPDEST DUP2 CALLDATALOAD PUSH3 0xFFFFFF DUP2 AND DUP2 EQ PUSH2 0x1F02 JUMPI DUP2 DUP3 REVERT JUMPDEST PUSH1 0x0 DUP1 PUSH1 0x40 DUP4 DUP6 SUB SLT ISZERO PUSH2 0x2343 JUMPI DUP2 DUP3 REVERT JUMPDEST DUP3 CALLDATALOAD SWAP2 POP PUSH1 0x20 DUP4 ADD CALLDATALOAD PUSH2 0x2355 DUP2 PUSH2 0x264A JUMP JUMPDEST DUP1 SWAP2 POP POP SWAP3 POP SWAP3 SWAP1 POP JUMP JUMPDEST PUSH1 0x0 DUP1 PUSH1 0x0 DUP1 PUSH1 0x80 DUP6 DUP8 SUB SLT ISZERO PUSH2 0x2375 JUMPI DUP2 DUP3 REVERT JUMPDEST DUP5 CALLDATALOAD SWAP4 POP PUSH1 0x20 DUP6 ADD CALLDATALOAD PUSH2 0x2387 DUP2 PUSH2 0x264A JUMP JUMPDEST SWAP3 POP PUSH1 0x40 DUP6 ADD CALLDATALOAD SWAP2 POP PUSH1 0x60 DUP6 ADD CALLDATALOAD PUSH2 0x239E DUP2 PUSH2 0x264A JUMP JUMPDEST SWAP4 SWAP7 SWAP3 SWAP6 POP SWAP1 SWAP4 POP POP JUMP JUMPDEST PUSH1 0x0 DUP2 MLOAD DUP1 DUP5 MSTORE PUSH2 0x23C1 DUP2 PUSH1 0x20 DUP7 ADD PUSH1 0x20 DUP7 ADD PUSH2 0x261E JUMP JUMPDEST PUSH1 0x1F ADD PUSH1 0x1F NOT AND SWAP3 SWAP1 SWAP3 ADD PUSH1 0x20 ADD SWAP3 SWAP2 POP POP JUMP JUMPDEST PUSH1 0x60 SWAP4 DUP5 SHL PUSH12 0xFFFFFFFFFFFFFFFFFFFFFFFF NOT SWAP1 DUP2 AND DUP3 MSTORE PUSH1 0xE8 SWAP4 SWAP1 SWAP4 SHL PUSH1 0x1 PUSH1 0x1 PUSH1 0xE8 SHL SUB NOT AND PUSH1 0x14 DUP3 ADD MSTORE SWAP3 SHL AND PUSH1 0x17 DUP3 ADD MSTORE PUSH1 0x2B ADD SWAP1 JUMP JUMPDEST PUSH1 0x0 DUP3 DUP5 DUP4 CALLDATACOPY SWAP2 ADD SWAP1 DUP2 MSTORE SWAP2 SWAP1 POP JUMP JUMPDEST PUSH1 0x1 PUSH1 0x1 PUSH1 0xA0 SHL SUB SWAP2 SWAP1 SWAP2 AND DUP2 MSTORE PUSH1 0x20 ADD SWAP1 JUMP JUMPDEST PUSH1 0x1 PUSH1 0x1 PUSH1 0xA0 SHL SUB DUP7 DUP2 AND DUP3 MSTORE DUP6 ISZERO ISZERO PUSH1 0x20 DUP4 ADD MSTORE PUSH1 0x40 DUP3 ADD DUP6 SWAP1 MSTORE DUP4 AND PUSH1 0x60 DUP3 ADD MSTORE PUSH1 0xA0 PUSH1 0x80 DUP3 ADD DUP2 SWAP1 MSTORE PUSH1 0x0 SWAP1 PUSH2 0x246F SWAP1 DUP4 ADD DUP5 PUSH2 0x23A9 JUMP JUMPDEST SWAP8 SWAP7 POP POP POP POP POP POP POP JUMP JUMPDEST PUSH1 0x0 PUSH1 0x20 DUP1 DUP4 ADD DUP2 DUP5 MSTORE DUP1 DUP6 MLOAD DUP1 DUP4 MSTORE PUSH1 0x40 DUP7 ADD SWAP2 POP PUSH1 0x40 DUP5 DUP3 MUL DUP8 ADD ADD SWAP3 POP DUP4 DUP8 ADD DUP6 JUMPDEST DUP3 DUP2 LT ISZERO PUSH2 0x24CD JUMPI PUSH1 0x3F NOT DUP9 DUP7 SUB ADD DUP5 MSTORE PUSH2 0x24BB DUP6 DUP4 MLOAD PUSH2 0x23A9 JUMP JUMPDEST SWAP5 POP SWAP3 DUP6 ADD SWAP3 SWAP1 DUP6 ADD SWAP1 PUSH1 0x1 ADD PUSH2 0x249F JUMP JUMPDEST POP SWAP3 SWAP8 SWAP7 POP POP POP POP POP POP POP JUMP JUMPDEST PUSH1 0x0 PUSH1 0x20 DUP3 MSTORE PUSH2 0x1F02 PUSH1 0x20 DUP4 ADD DUP5 PUSH2 0x23A9 JUMP JUMPDEST PUSH1 0x20 DUP1 DUP3 MSTORE PUSH1 0x12 SWAP1 DUP3 ADD MSTORE PUSH18 0x151BDBC81B5D58DA081C995C5D595CDD1959 PUSH1 0x72 SHL PUSH1 0x40 DUP3 ADD MSTORE PUSH1 0x60 ADD SWAP1 JUMP JUMPDEST PUSH1 0x20 DUP1 DUP3 MSTORE PUSH1 0x13 SWAP1 DUP3 ADD MSTORE PUSH19 0x151BDBC81B1A5D1D1B19481C9958D95A5D9959 PUSH1 0x6A SHL PUSH1 0x40 DUP3 ADD MSTORE PUSH1 0x60 ADD SWAP1 JUMP JUMPDEST PUSH1 0x0 PUSH1 0x20 DUP3 MSTORE DUP3 MLOAD PUSH1 0x40 PUSH1 0x20 DUP5 ADD MSTORE PUSH2 0x2562 PUSH1 0x60 DUP5 ADD DUP3 PUSH2 0x23A9 JUMP JUMPDEST PUSH1 0x20 SWAP5 SWAP1 SWAP5 ADD MLOAD PUSH1 0x1 PUSH1 0x1 PUSH1 0xA0 SHL SUB AND PUSH1 0x40 SWAP4 SWAP1 SWAP4 ADD SWAP3 SWAP1 SWAP3 MSTORE POP SWAP1 SWAP2 SWAP1 POP JUMP JUMPDEST SWAP1 DUP2 MSTORE PUSH1 0x20 ADD SWAP1 JUMP JUMPDEST PUSH1 0x0 DUP1 DUP4 CALLDATALOAD PUSH1 0x1E NOT DUP5 CALLDATASIZE SUB ADD DUP2 SLT PUSH2 0x25A2 JUMPI DUP3 DUP4 REVERT JUMPDEST DUP4 ADD DUP1 CALLDATALOAD SWAP2 POP PUSH8 0xFFFFFFFFFFFFFFFF DUP3 GT ISZERO PUSH2 0x25BC JUMPI DUP3 DUP4 REVERT JUMPDEST PUSH1 0x20 ADD SWAP2 POP CALLDATASIZE DUP2 SWAP1 SUB DUP3 SGT ISZERO PUSH2 0x25D1 JUMPI PUSH1 0x0 DUP1 REVERT JUMPDEST SWAP3 POP SWAP3 SWAP1 POP JUMP JUMPDEST PUSH1 0x40 MLOAD DUP2 DUP2 ADD PUSH8 0xFFFFFFFFFFFFFFFF DUP2 GT DUP3 DUP3 LT OR ISZERO PUSH2 0x25F4 JUMPI INVALID JUMPDEST PUSH1 0x40 MSTORE SWAP2 SWAP1 POP JUMP JUMPDEST PUSH1 0x0 PUSH8 0xFFFFFFFFFFFFFFFF DUP3 GT ISZERO PUSH2 0x2610 JUMPI INVALID JUMPDEST POP PUSH1 0x1F ADD PUSH1 0x1F NOT AND PUSH1 0x20 ADD SWAP1 JUMP JUMPDEST PUSH1 0x0 JUMPDEST DUP4 DUP2 LT ISZERO PUSH2 0x2639 JUMPI DUP2 DUP2 ADD MLOAD DUP4 DUP3 ADD MSTORE PUSH1 0x20 ADD PUSH2 0x2621 JUMP JUMPDEST DUP4 DUP2 GT ISZERO PUSH2 0xDC4 JUMPI POP POP PUSH1 0x0 SWAP2 ADD MSTORE JUMP JUMPDEST PUSH1 0x1 PUSH1 0x1 PUSH1 0xA0 SHL SUB DUP2 AND DUP2 EQ PUSH2 0x265F JUMPI PUSH1 0x0 DUP1 REVERT JUMPDEST POP JUMP INVALID LOG2 PUSH5 0x6970667358 0x22 SLT KECCAK256 SMOD 0x48 SWAP10 ADDMOD 0x2B JUMP 0xEB LOG0 PUSH5 0x49A9F3E47C PUSH24 0xEE9436E6CAA58BA0BEC6074CD9C700A1264736F6C634300 SMOD MOD STOP CALLER "
				},
				"gasEstimates": {
					"creation": {
						"codeDepositCost": "1976000",
						"executionCost": "infinite",
						"totalCost": "infinite"
					},
					"external": {
						"WETH9()": "infinite",
						"exactInput((bytes,address,uint256,uint256,uint256))": "infinite",
						"exactInputSingle((address,address,uint24,address,uint256,uint256,uint256,uint160))": "infinite",
						"exactOutput((bytes,address,uint256,uint256,uint256))": "infinite",
						"exactOutputSingle((address,address,uint24,address,uint256,uint256,uint256,uint160))": "infinite",
						"factory()": "infinite",
						"multicall(bytes[])": "infinite",
						"refundETH()": "infinite",
						"selfPermit(address,uint256,uint256,uint8,bytes32,bytes32)": "infinite",
						"selfPermitAllowed(address,uint256,uint256,uint8,bytes32,bytes32)": "infinite",
						"selfPermitAllowedIfNecessary(address,uint256,uint256,uint8,bytes32,bytes32)": "infinite",
						"selfPermitIfNecessary(address,uint256,uint256,uint8,bytes32,bytes32)": "infinite",
						"sweepToken(address,uint256,address)": "infinite",
						"sweepTokenWithFee(address,uint256,address,uint256,address)": "infinite",
						"uniswapV3SwapCallback(int256,int256,bytes)": "infinite",
						"unwrapWETH9(uint256,address)": "infinite",
						"unwrapWETH9WithFee(uint256,address,uint256,address)": "infinite"
					},
					"internal": {
						"exactInputInternal(uint256,address,uint160,struct SwapRouter.SwapCallbackData memory)": "infinite",
						"exactOutputInternal(uint256,address,uint160,struct SwapRouter.SwapCallbackData memory)": "infinite",
						"getPool(address,address,uint24)": "infinite"
					}
				},
				"methodIdentifiers": {
					"WETH9()": "4aa4a4fc",
					"exactInput((bytes,address,uint256,uint256,uint256))": "c04b8d59",
					"exactInputSingle((address,address,uint24,address,uint256,uint256,uint256,uint160))": "414bf389",
					"exactOutput((bytes,address,uint256,uint256,uint256))": "f28c0498",
					"exactOutputSingle((address,address,uint24,address,uint256,uint256,uint256,uint160))": "db3e2198",
					"factory()": "c45a0155",
					"multicall(bytes[])": "ac9650d8",
					"refundETH()": "12210e8a",
					"selfPermit(address,uint256,uint256,uint8,bytes32,bytes32)": "f3995c67",
					"selfPermitAllowed(address,uint256,uint256,uint8,bytes32,bytes32)": "4659a494",
					"selfPermitAllowedIfNecessary(address,uint256,uint256,uint8,bytes32,bytes32)": "a4a78f0c",
					"selfPermitIfNecessary(address,uint256,uint256,uint8,bytes32,bytes32)": "c2e3140a",
					"sweepToken(address,uint256,address)": "df2ab5bb",
					"sweepTokenWithFee(address,uint256,address,uint256,address)": "e0e189a0",
					"uniswapV3SwapCallback(int256,int256,bytes)": "fa461e33",
					"unwrapWETH9(uint256,address)": "49404b7c",
					"unwrapWETH9WithFee(uint256,address,uint256,address)": "9b2c0a37"
				}
			},
			"storageLayout": {
				"storage": [
					{
						"astId": 1351,
						"contract": "contracts/SwapRouter.sol:SwapRouter",
						"label": "amountInCached",
						"offset": 0,
						"slot": "0",
						"type": "t_uint256"
					}
				],
				"types": {
					"t_uint256": {
						"encoding": "inplace",
						"label": "uint256",
						"numberOfBytes": "32"
					}
				}
			},
			"userdoc": {
				"kind": "user",
				"methods": {
					"exactInput((bytes,address,uint256,uint256,uint256))": {
						"notice": "Swaps `amountIn` of one token for as much as possible of another along the specified path"
					},
					"exactInputSingle((address,address,uint24,address,uint256,uint256,uint256,uint160))": {
						"notice": "Swaps `amountIn` of one token for as much as possible of another token"
					},
					"exactOutput((bytes,address,uint256,uint256,uint256))": {
						"notice": "Swaps as little as possible of one token for `amountOut` of another along the specified path (reversed)"
					},
					"exactOutputSingle((address,address,uint24,address,uint256,uint256,uint256,uint160))": {
						"notice": "Swaps as little as possible of one token for `amountOut` of another token"
					},
					"multicall(bytes[])": {
						"notice": "Call multiple functions in the current contract and return the data from all of them if they all succeed"
					},
					"refundETH()": {
						"notice": "Refunds any ETH balance held by this contract to the `msg.sender`"
					},
					"selfPermit(address,uint256,uint256,uint8,bytes32,bytes32)": {
						"notice": "Permits this contract to spend a given token from `msg.sender`"
					},
					"selfPermitAllowed(address,uint256,uint256,uint8,bytes32,bytes32)": {
						"notice": "Permits this contract to spend the sender's tokens for permit signatures that have the `allowed` parameter"
					},
					"selfPermitAllowedIfNecessary(address,uint256,uint256,uint8,bytes32,bytes32)": {
						"notice": "Permits this contract to spend the sender's tokens for permit signatures that have the `allowed` parameter"
					},
					"selfPermitIfNecessary(address,uint256,uint256,uint8,bytes32,bytes32)": {
						"notice": "Permits this contract to spend a given token from `msg.sender`"
					},
					"sweepToken(address,uint256,address)": {
						"notice": "Transfers the full amount of a token held by this contract to recipient"
					},
					"sweepTokenWithFee(address,uint256,address,uint256,address)": {
						"notice": "Transfers the full amount of a token held by this contract to recipient, with a percentage between 0 (exclusive) and 1 (inclusive) going to feeRecipient"
					},
					"uniswapV3SwapCallback(int256,int256,bytes)": {
						"notice": "Called to `msg.sender` after executing a swap via IUniswapV3Pool#swap."
					},
					"unwrapWETH9(uint256,address)": {
						"notice": "Unwraps the contract's WETH9 balance and sends it to recipient as ETH."
					},
					"unwrapWETH9WithFee(uint256,address,uint256,address)": {
						"notice": "Unwraps the contract's WETH9 balance and sends it to recipient as ETH, with a percentage between 0 (exclusive), and 1 (inclusive) going to feeRecipient"
					}
				},
				"notice": "Router for stateless execution of swaps against Uniswap V3",
				"version": 1
			}
		}
	}
}