{
	"contracts/lens/Quoter.sol": {
		"Quoter": {
			"abi": [
				{
					"inputs": [
						{
							"internalType": "address",
							"name": "_factory",
							"type": "address"
						},
						{
							"internalType": "address",
							"name": "_WETH9",
							"type": "address"
						}
					],
					"stateMutability": "nonpayable",
					"type": "constructor"
				},
				{
					"inputs": [],
					"name": "WETH9",
					"outputs": [
						{
							"internalType": "address",
							"name": "",
							"type": "address"
						}
					],
					"stateMutability": "view",
					"type": "function"
				},
				{
					"inputs": [],
					"name": "factory",
					"outputs": [
						{
							"internalType": "address",
							"name": "",
							"type": "address"
						}
					],
					"stateMutability": "view",
					"type": "function"
				},
				{
					"inputs": [
						{
							"internalType": "bytes",
							"name": "path",
							"type": "bytes"
						},
						{
							"internalType": "uint256",
							"name": "amountIn",
							"type": "uint256"
						}
					],
					"name": "quoteExactInput",
					"outputs": [
						{
							"internalType": "uint256",
							"name": "amountOut",
							"type": "uint256"
						}
					],
					"stateMutability": "nonpayable",
					"type": "function"
				},
				{
					"inputs": [
						{
							"internalType": "address",
							"name": "tokenIn",
							"type": "address"
						},
						{
							"internalType": "address",
							"name": "tokenOut",
							"type": "address"
						},
						{
							"internalType": "uint24",
							"name": "fee",
							"type": "uint24"
						},
						{
							"internalType": "uint256",
							"name": "amountIn",
							"type": "uint256"
						},
						{
							"internalType": "uint160",
							"name": "sqrtPriceLimitX96",
							"type": "uint160"
						}
					],
					"name": "quoteExactInputSingle",
					"outputs": [
						{
							"internalType": "uint256",
							"name": "amountOut",
							"type": "uint256"
						}
					],
					"stateMutability": "nonpayable",
					"type": "function"
				},
				{
					"inputs": [
						{
							"internalType": "bytes",
							"name": "path",
							"type": "bytes"
						},
						{
							"internalType": "uint256",
							"name": "amountOut",
							"type": "uint256"
						}
					],
					"name": "quoteExactOutput",
					"outputs": [
						{
							"internalType": "uint256",
							"name": "amountIn",
							"type": "uint256"
						}
					],
					"stateMutability": "nonpayable",
					"type": "function"
				},
				{
					"inputs": [
						{
							"internalType": "address",
							"name": "tokenIn",
							"type": "address"
						},
						{
							"internalType": "address",
							"name": "tokenOut",
							"type": "address"
						},
						{
							"internalType": "uint24",
							"name": "fee",
							"type": "uint24"
						},
						{
							"internalType": "uint256",
							"name": "amountOut",
							"type": "uint256"
						},
						{
							"internalType": "uint160",
							"name": "sqrtPriceLimitX96",
							"type": "uint160"
						}
					],
					"name": "quoteExactOutputSingle",
					"outputs": [
						{
							"internalType": "uint256",
							"name": "amountIn",
							"type": "uint256"
						}
					],
					"stateMutability": "nonpayable",
					"type": "function"
				},
				{
					"inputs": [
						{
							"internalType": "int256",
							"name": "amount0Delta",
							"type": "int256"
						},
						{
							"internalType": "int256",
							"name": "amount1Delta",
							"type": "int256"
						},
						{
							"internalType": "bytes",
							"name": "path",
							"type": "bytes"
						}
					],
					"name": "uniswapV3SwapCallback",
					"outputs": [],
					"stateMutability": "view",
					"type": "function"
				}
			],
			"devdoc": {
				"details": "These functions are not gas efficient and should _not_ be called on chain. Instead, optimistically execute the swap and check the amounts in the callback.",
				"kind": "dev",
				"methods": {
					"quoteExactInput(bytes,uint256)": {
						"params": {
							"amountIn": "The amount of the first token to swap",
							"path": "The path of the swap, i.e. each token pair and the pool fee"
						},
						"returns": {
							"amountOut": "The amount of the last token that would be received"
						}
					},
					"quoteExactInputSingle(address,address,uint24,uint256,uint160)": {
						"params": {
							"amountIn": "The desired input amount",
							"fee": "The fee of the token pool to consider for the pair",
							"sqrtPriceLimitX96": "The price limit of the pool that cannot be exceeded by the swap",
							"tokenIn": "The token being swapped in",
							"tokenOut": "The token being swapped out"
						},
						"returns": {
							"amountOut": "The amount of `tokenOut` that would be received"
						}
					},
					"quoteExactOutput(bytes,uint256)": {
						"params": {
							"amountOut": "The amount of the last token to receive",
							"path": "The path of the swap, i.e. each token pair and the pool fee. Path must be provided in reverse order"
						},
						"returns": {
							"amountIn": "The amount of first token required to be paid"
						}
					},
					"quoteExactOutputSingle(address,address,uint24,uint256,uint160)": {
						"params": {
							"amountOut": "The desired output amount",
							"fee": "The fee of the token pool to consider for the pair",
							"sqrtPriceLimitX96": "The price limit of the pool that cannot be exceeded by the swap",
							"tokenIn": "The token being swapped in",
							"tokenOut": "The token being swapped out"
						},
						"returns": {
							"amountIn": "The amount required as the input for the swap in order to receive `amountOut`"
						}
					},
					"uniswapV3SwapCallback(int256,int256,bytes)": {
						"details": "In the implementation you must pay the pool tokens owed for the swap. The caller of this method must be checked to be a UniswapV3Pool deployed by the canonical UniswapV3Factory. amount0Delta and amount1Delta can both be 0 if no tokens were swapped.",
						"params": {
							"amount0Delta": "The amount of token0 that was sent (negative) or must be received (positive) by the pool by the end of the swap. If positive, the callback must send that amount of token0 to the pool.",
							"amount1Delta": "The amount of token1 that was sent (negative) or must be received (positive) by the pool by the end of the swap. If positive, the callback must send that amount of token1 to the pool.",
							"data": "Any data passed through by the caller via the IUniswapV3PoolActions#swap call"
						}
					}
				},
				"stateVariables": {
					"amountOutCached": {
						"details": "Transient storage variable used to check a safety condition in exact output swaps."
					}
				},
				"title": "Provides quotes for swaps",
				"version": 1
			},
			"evm": {
				"assembly": "    /* \"contracts/lens/Quoter.sol\":873:6744  contract Quoter is IQuoter, IUniswapV3SwapCallback, PeripheryImmutableState {\r... */\n  mstore(0x40, 0xc0)\n    /* \"contracts/lens/Quoter.sol\":1155:1245  constructor(address _factory, address _WETH9) PeripheryImmutableState(_factory, _WETH9) {} */\n  callvalue\n  dup1\n  iszero\n  tag_1\n  jumpi\n  0x00\n  dup1\n  revert\ntag_1:\n  pop\n  mload(0x40)\n  sub(codesize, bytecodeSize)\n  dup1\n  bytecodeSize\n  dup4\n  codecopy\n  dup2\n  dup2\n  add\n  0x40\n  mstore\n  0x40\n  dup2\n  lt\n  iszero\n  tag_2\n  jumpi\n  0x00\n  dup1\n  revert\ntag_2:\n  pop\n  dup1\n  mload\n  0x20\n  swap1\n  swap2\n  add\n  mload\n  not(sub(shl(0x60, 0x01), 0x01))\n    /* \"contracts/base/PeripheryImmutableState.sol\":536:554  factory = _factory */\n  0x60\n  swap3\n  dup4\n  shl\n  dup2\n  and\n  0x80\n  mstore\n    /* \"contracts/base/PeripheryImmutableState.sol\":565:579  WETH9 = _WETH9 */\n  swap2\n  shl\n  and\n  0xa0\n  mstore\n    /* \"contracts/lens/Quoter.sol\":873:6744  contract Quoter is IQuoter, IUniswapV3SwapCallback, PeripheryImmutableState {\r... */\n  shr(0x60, mload(0x80))\n  shr(0x60, mload(0xa0))\n  codecopy(0x00, dataOffset(sub_0), dataSize(sub_0))\n  assignImmutable(\"0xb37328d1c6f33416cc50b9168b9894b89e743919cc7edc16d1bdc20660330b9f\")\n  assignImmutable(\"0x912cdad641b4408bd64eb5a331e5fe393f33f2296e0c7fad54e613ac760cfb47\")\n  return(0x00, dataSize(sub_0))\nstop\n\nsub_0: assembly {\n        /* \"contracts/lens/Quoter.sol\":873:6744  contract Quoter is IQuoter, IUniswapV3SwapCallback, PeripheryImmutableState {\r... */\n      mstore(0x40, 0x80)\n      callvalue\n      dup1\n      iszero\n      tag_1\n      jumpi\n      0x00\n      dup1\n      revert\n    tag_1:\n      pop\n      jumpi(tag_2, lt(calldatasize, 0x04))\n      shr(0xe0, calldataload(0x00))\n      dup1\n      0xc45a0155\n      gt\n      tag_10\n      jumpi\n      dup1\n      0xc45a0155\n      eq\n      tag_6\n      jumpi\n      dup1\n      0xcdca1753\n      eq\n      tag_7\n      jumpi\n      dup1\n      0xf7729d43\n      eq\n      tag_8\n      jumpi\n      dup1\n      0xfa461e33\n      eq\n      tag_9\n      jumpi\n      jump(tag_2)\n    tag_10:\n      dup1\n      0x2f80bb1d\n      eq\n      tag_3\n      jumpi\n      dup1\n      0x30d07f21\n      eq\n      tag_4\n      jumpi\n      dup1\n      0x4aa4a4fc\n      eq\n      tag_5\n      jumpi\n    tag_2:\n      0x00\n      dup1\n      revert\n        /* \"contracts/lens/Quoter.sol\":6060:6741  function quoteExactOutput(bytes memory path, uint256 amountOut) external override returns (uint256 amountIn) {\r... */\n    tag_3:\n      tag_11\n      0x04\n      dup1\n      calldatasize\n      sub\n      0x40\n      dup2\n      lt\n      iszero\n      tag_12\n      jumpi\n      0x00\n      dup1\n      revert\n    tag_12:\n      dup2\n      add\n      swap1\n      0x20\n      dup2\n      add\n      dup2\n      calldataload\n      shl(0x20, 0x01)\n      dup2\n      gt\n      iszero\n      tag_13\n      jumpi\n      0x00\n      dup1\n      revert\n    tag_13:\n      dup3\n      add\n      dup4\n      0x20\n      dup3\n      add\n      gt\n      iszero\n      tag_14\n      jumpi\n      0x00\n      dup1\n      revert\n    tag_14:\n      dup1\n      calldataload\n      swap1\n      0x20\n      add\n      swap2\n      dup5\n      0x01\n      dup4\n      mul\n      dup5\n      add\n      gt\n      shl(0x20, 0x01)\n      dup4\n      gt\n      or\n      iszero\n      tag_15\n      jumpi\n      0x00\n      dup1\n      revert\n    tag_15:\n      swap2\n      swap1\n      dup1\n      dup1\n      0x1f\n      add\n      0x20\n      dup1\n      swap2\n      div\n      mul\n      0x20\n      add\n      mload(0x40)\n      swap1\n      dup2\n      add\n      0x40\n      mstore\n      dup1\n      swap4\n      swap3\n      swap2\n      swap1\n      dup2\n      dup2\n      mstore\n      0x20\n      add\n      dup4\n      dup4\n      dup1\n      dup3\n      dup5\n      calldatacopy\n      0x00\n      swap3\n      add\n      swap2\n      swap1\n      swap2\n      mstore\n      pop\n      swap3\n      swap6\n      pop\n      pop\n      swap2\n      calldataload\n      swap3\n      pop\n      tag_16\n      swap2\n      pop\n      pop\n      jump\t// in\n    tag_11:\n      0x40\n      dup1\n      mload\n      swap2\n      dup3\n      mstore\n      mload\n      swap1\n      dup2\n      swap1\n      sub\n      0x20\n      add\n      swap1\n      return\n        /* \"contracts/lens/Quoter.sol\":4924:6023  function quoteExactOutputSingle(\r... */\n    tag_4:\n      tag_11\n      0x04\n      dup1\n      calldatasize\n      sub\n      0xa0\n      dup2\n      lt\n      iszero\n      tag_18\n      jumpi\n      0x00\n      dup1\n      revert\n    tag_18:\n      pop\n      sub(shl(0xa0, 0x01), 0x01)\n      dup2\n      calldataload\n      dup2\n      and\n      swap2\n      0x20\n      dup2\n      add\n      calldataload\n      dup3\n      and\n      swap2\n      0xffffff\n      0x40\n      dup4\n      add\n      calldataload\n      and\n      swap2\n      0x60\n      dup2\n      add\n      calldataload\n      swap2\n      0x80\n      swap1\n      swap2\n      add\n      calldataload\n      and\n      tag_19\n      jump\t// in\n        /* \"contracts/base/PeripheryImmutableState.sol\":431:470  address public immutable override WETH9 */\n    tag_5:\n      tag_20\n      tag_21\n      jump\t// in\n    tag_20:\n      0x40\n      dup1\n      mload\n      sub(shl(0xa0, 0x01), 0x01)\n      swap1\n      swap3\n      and\n      dup3\n      mstore\n      mload\n      swap1\n      dup2\n      swap1\n      sub\n      0x20\n      add\n      swap1\n      return\n        /* \"contracts/base/PeripheryImmutableState.sol\":337:378  address public immutable override factory */\n    tag_6:\n      tag_20\n      tag_23\n      jump\t// in\n        /* \"contracts/lens/Quoter.sol\":4211:4887  function quoteExactInput(bytes memory path, uint256 amountIn) external override returns (uint256 amountOut) {\r... */\n    tag_7:\n      tag_11\n      0x04\n      dup1\n      calldatasize\n      sub\n      0x40\n      dup2\n      lt\n      iszero\n      tag_25\n      jumpi\n      0x00\n      dup1\n      revert\n    tag_25:\n      dup2\n      add\n      swap1\n      0x20\n      dup2\n      add\n      dup2\n      calldataload\n      shl(0x20, 0x01)\n      dup2\n      gt\n      iszero\n      tag_26\n      jumpi\n      0x00\n      dup1\n      revert\n    tag_26:\n      dup3\n      add\n      dup4\n      0x20\n      dup3\n      add\n      gt\n      iszero\n      tag_27\n      jumpi\n      0x00\n      dup1\n      revert\n    tag_27:\n      dup1\n      calldataload\n      swap1\n      0x20\n      add\n      swap2\n      dup5\n      0x01\n      dup4\n      mul\n      dup5\n      add\n      gt\n      shl(0x20, 0x01)\n      dup4\n      gt\n      or\n      iszero\n      tag_28\n      jumpi\n      0x00\n      dup1\n      revert\n    tag_28:\n      swap2\n      swap1\n      dup1\n      dup1\n      0x1f\n      add\n      0x20\n      dup1\n      swap2\n      div\n      mul\n      0x20\n      add\n      mload(0x40)\n      swap1\n      dup2\n      add\n      0x40\n      mstore\n      dup1\n      swap4\n      swap3\n      swap2\n      swap1\n      dup2\n      dup2\n      mstore\n      0x20\n      add\n      dup4\n      dup4\n      dup1\n      dup3\n      dup5\n      calldatacopy\n      0x00\n      swap3\n      add\n      swap2\n      swap1\n      swap2\n      mstore\n      pop\n      swap3\n      swap6\n      pop\n      pop\n      swap2\n      calldataload\n      swap3\n      pop\n      tag_29\n      swap2\n      pop\n      pop\n      jump\t// in\n        /* \"contracts/lens/Quoter.sol\":3334:4174  function quoteExactInputSingle(\r... */\n    tag_8:\n      tag_11\n      0x04\n      dup1\n      calldatasize\n      sub\n      0xa0\n      dup2\n      lt\n      iszero\n      tag_31\n      jumpi\n      0x00\n      dup1\n      revert\n    tag_31:\n      pop\n      sub(shl(0xa0, 0x01), 0x01)\n      dup2\n      calldataload\n      dup2\n      and\n      swap2\n      0x20\n      dup2\n      add\n      calldataload\n      dup3\n      and\n      swap2\n      0xffffff\n      0x40\n      dup4\n      add\n      calldataload\n      and\n      swap2\n      0x60\n      dup2\n      add\n      calldataload\n      swap2\n      0x80\n      swap1\n      swap2\n      add\n      calldataload\n      and\n      tag_32\n      jump\t// in\n        /* \"contracts/lens/Quoter.sol\":1560:2833  function uniswapV3SwapCallback(\r... */\n    tag_9:\n      tag_33\n      0x04\n      dup1\n      calldatasize\n      sub\n      0x60\n      dup2\n      lt\n      iszero\n      tag_34\n      jumpi\n      0x00\n      dup1\n      revert\n    tag_34:\n      dup2\n      calldataload\n      swap2\n      0x20\n      dup2\n      add\n      calldataload\n      swap2\n      dup2\n      add\n      swap1\n      0x60\n      dup2\n      add\n      0x40\n      dup3\n      add\n      calldataload\n      shl(0x20, 0x01)\n      dup2\n      gt\n      iszero\n      tag_35\n      jumpi\n      0x00\n      dup1\n      revert\n    tag_35:\n      dup3\n      add\n      dup4\n      0x20\n      dup3\n      add\n      gt\n      iszero\n      tag_36\n      jumpi\n      0x00\n      dup1\n      revert\n    tag_36:\n      dup1\n      calldataload\n      swap1\n      0x20\n      add\n      swap2\n      dup5\n      0x01\n      dup4\n      mul\n      dup5\n      add\n      gt\n      shl(0x20, 0x01)\n      dup4\n      gt\n      or\n      iszero\n      tag_37\n      jumpi\n      0x00\n      dup1\n      revert\n    tag_37:\n      swap2\n      swap1\n      dup1\n      dup1\n      0x1f\n      add\n      0x20\n      dup1\n      swap2\n      div\n      mul\n      0x20\n      add\n      mload(0x40)\n      swap1\n      dup2\n      add\n      0x40\n      mstore\n      dup1\n      swap4\n      swap3\n      swap2\n      swap1\n      dup2\n      dup2\n      mstore\n      0x20\n      add\n      dup4\n      dup4\n      dup1\n      dup3\n      dup5\n      calldatacopy\n      0x00\n      swap3\n      add\n      swap2\n      swap1\n      swap2\n      mstore\n      pop\n      swap3\n      swap6\n      pop\n      tag_38\n      swap5\n      pop\n      pop\n      pop\n      pop\n      pop\n      jump\t// in\n    tag_33:\n      stop\n        /* \"contracts/lens/Quoter.sol\":6060:6741  function quoteExactOutput(bytes memory path, uint256 amountOut) external override returns (uint256 amountIn) {\r... */\n    tag_16:\n        /* \"contracts/lens/Quoter.sol\":6151:6167  uint256 amountIn */\n      0x00\n        /* \"contracts/lens/Quoter.sol\":6180:6734  while (true) {\r... */\n    tag_40:\n        /* \"contracts/lens/Quoter.sol\":6208:6229  bool hasMultiplePools */\n      0x00\n        /* \"contracts/lens/Quoter.sol\":6232:6255  path.hasMultiplePools() */\n      tag_42\n        /* \"contracts/lens/Quoter.sol\":6232:6236  path */\n      dup5\n        /* \"contracts/lens/Quoter.sol\":6232:6253  path.hasMultiplePools */\n      tag_43\n        /* \"contracts/lens/Quoter.sol\":6232:6255  path.hasMultiplePools() */\n      jump\t// in\n    tag_42:\n        /* \"contracts/lens/Quoter.sol\":6208:6255  bool hasMultiplePools = path.hasMultiplePools() */\n      swap1\n      pop\n        /* \"contracts/lens/Quoter.sol\":6273:6289  address tokenOut */\n      0x00\n        /* \"contracts/lens/Quoter.sol\":6291:6306  address tokenIn */\n      dup1\n        /* \"contracts/lens/Quoter.sol\":6308:6318  uint24 fee */\n      0x00\n        /* \"contracts/lens/Quoter.sol\":6322:6344  path.decodeFirstPool() */\n      tag_44\n        /* \"contracts/lens/Quoter.sol\":6322:6326  path */\n      dup8\n        /* \"contracts/lens/Quoter.sol\":6322:6342  path.decodeFirstPool */\n      tag_45\n        /* \"contracts/lens/Quoter.sol\":6322:6344  path.decodeFirstPool() */\n      jump\t// in\n    tag_44:\n        /* \"contracts/lens/Quoter.sol\":6272:6344  (address tokenOut, address tokenIn, uint24 fee) = path.decodeFirstPool() */\n      swap3\n      pop\n      swap3\n      pop\n      swap3\n      pop\n        /* \"contracts/lens/Quoter.sol\":6453:6513  quoteExactOutputSingle(tokenIn, tokenOut, fee, amountOut, 0) */\n      tag_46\n        /* \"contracts/lens/Quoter.sol\":6476:6483  tokenIn */\n      dup3\n        /* \"contracts/lens/Quoter.sol\":6485:6493  tokenOut */\n      dup5\n        /* \"contracts/lens/Quoter.sol\":6495:6498  fee */\n      dup4\n        /* \"contracts/lens/Quoter.sol\":6500:6509  amountOut */\n      dup10\n        /* \"contracts/lens/Quoter.sol\":6511:6512  0 */\n      0x00\n        /* \"contracts/lens/Quoter.sol\":6453:6475  quoteExactOutputSingle */\n      tag_19\n        /* \"contracts/lens/Quoter.sol\":6453:6513  quoteExactOutputSingle(tokenIn, tokenOut, fee, amountOut, 0) */\n      jump\t// in\n    tag_46:\n        /* \"contracts/lens/Quoter.sol\":6441:6513  amountOut = quoteExactOutputSingle(tokenIn, tokenOut, fee, amountOut, 0) */\n      swap6\n      pop\n        /* \"contracts/lens/Quoter.sol\":6590:6606  hasMultiplePools */\n      dup4\n        /* \"contracts/lens/Quoter.sol\":6586:6723  if (hasMultiplePools) {\r... */\n      iszero\n      tag_47\n      jumpi\n        /* \"contracts/lens/Quoter.sol\":6634:6650  path.skipToken() */\n      tag_48\n        /* \"contracts/lens/Quoter.sol\":6634:6638  path */\n      dup8\n        /* \"contracts/lens/Quoter.sol\":6634:6648  path.skipToken */\n      tag_49\n        /* \"contracts/lens/Quoter.sol\":6634:6650  path.skipToken() */\n      jump\t// in\n    tag_48:\n        /* \"contracts/lens/Quoter.sol\":6627:6650  path = path.skipToken() */\n      swap7\n      pop\n        /* \"contracts/lens/Quoter.sol\":6586:6723  if (hasMultiplePools) {\r... */\n      jump(tag_50)\n    tag_47:\n        /* \"contracts/lens/Quoter.sol\":6698:6707  amountOut */\n      dup6\n        /* \"contracts/lens/Quoter.sol\":6691:6707  return amountOut */\n      swap5\n      pop\n      pop\n      pop\n      pop\n      pop\n      jump(tag_41)\n        /* \"contracts/lens/Quoter.sol\":6586:6723  if (hasMultiplePools) {\r... */\n    tag_50:\n        /* \"contracts/lens/Quoter.sol\":6180:6734  while (true) {\r... */\n      pop\n      pop\n      pop\n      pop\n      jump(tag_40)\n    tag_41:\n        /* \"contracts/lens/Quoter.sol\":6060:6741  function quoteExactOutput(bytes memory path, uint256 amountOut) external override returns (uint256 amountIn) {\r... */\n      swap3\n      swap2\n      pop\n      pop\n      jump\t// out\n        /* \"contracts/lens/Quoter.sol\":4924:6023  function quoteExactOutputSingle(\r... */\n    tag_19:\n        /* \"contracts/lens/Quoter.sol\":5126:5142  uint256 amountIn */\n      0x00\n      sub(shl(0xa0, 0x01), 0x01)\n        /* \"contracts/lens/Quoter.sol\":5173:5191  tokenIn < tokenOut */\n      dup1\n      dup7\n      and\n      dup8\n      dup3\n      and\n      lt\n      swap1\n        /* \"contracts/lens/Quoter.sol\":5318:5340  sqrtPriceLimitX96 == 0 */\n      dup4\n      and\n        /* \"contracts/lens/Quoter.sol\":5314:5369  if (sqrtPriceLimitX96 == 0) amountOutCached = amountOut */\n      tag_52\n      jumpi\n        /* \"contracts/lens/Quoter.sol\":5342:5357  amountOutCached */\n      0x00\n        /* \"contracts/lens/Quoter.sol\":5342:5369  amountOutCached = amountOut */\n      dup5\n      swap1\n      sstore\n        /* \"contracts/lens/Quoter.sol\":5314:5369  if (sqrtPriceLimitX96 == 0) amountOutCached = amountOut */\n    tag_52:\n        /* \"contracts/lens/Quoter.sol\":5397:5428  getPool(tokenIn, tokenOut, fee) */\n      tag_53\n        /* \"contracts/lens/Quoter.sol\":5405:5412  tokenIn */\n      dup8\n        /* \"contracts/lens/Quoter.sol\":5414:5422  tokenOut */\n      dup8\n        /* \"contracts/lens/Quoter.sol\":5424:5427  fee */\n      dup8\n        /* \"contracts/lens/Quoter.sol\":5397:5404  getPool */\n      tag_54\n        /* \"contracts/lens/Quoter.sol\":5397:5428  getPool(tokenIn, tokenOut, fee) */\n      jump\t// in\n    tag_53:\n      sub(shl(0xa0, 0x01), 0x01)\n        /* \"contracts/lens/Quoter.sol\":5397:5433  getPool(tokenIn, tokenOut, fee).swap */\n      and\n      0x128acb08\n        /* \"contracts/lens/Quoter.sol\":5460:5464  this */\n      address\n        /* \"contracts/lens/Quoter.sol\":5534:5544  zeroForOne */\n      dup4\n        /* \"contracts/lens/Quoter.sol\":5564:5584  amountOut.toInt256() */\n      tag_55\n        /* \"contracts/lens/Quoter.sol\":5564:5573  amountOut */\n      dup9\n        /* \"contracts/lens/Quoter.sol\":5564:5582  amountOut.toInt256 */\n      tag_56\n        /* \"contracts/lens/Quoter.sol\":5564:5584  amountOut.toInt256() */\n      jump\t// in\n    tag_55:\n        /* \"contracts/lens/Quoter.sol\":5563:5584  -amountOut.toInt256() */\n      0x00\n      sub\n      sub(shl(0xa0, 0x01), 0x01)\n        /* \"contracts/lens/Quoter.sol\":5603:5625  sqrtPriceLimitX96 == 0 */\n      dup9\n      and\n      iszero\n        /* \"contracts/lens/Quoter.sol\":5603:5762  sqrtPriceLimitX96 == 0\r... */\n      tag_57\n      jumpi\n        /* \"contracts/lens/Quoter.sol\":5745:5762  sqrtPriceLimitX96 */\n      dup8\n        /* \"contracts/lens/Quoter.sol\":5603:5762  sqrtPriceLimitX96 == 0\r... */\n      jump(tag_60)\n    tag_57:\n        /* \"contracts/lens/Quoter.sol\":5650:5660  zeroForOne */\n      dup6\n        /* \"contracts/lens/Quoter.sol\":5650:5720  zeroForOne ? TickMath.MIN_SQRT_RATIO + 1 : TickMath.MAX_SQRT_RATIO - 1 */\n      tag_59\n      jumpi\n        /* \"contracts/lens/Quoter.sol\":5693:5720  TickMath.MAX_SQRT_RATIO - 1 */\n      0xfffd8963efd1fc6a506488495d951d5263988d25\n        /* \"contracts/lens/Quoter.sol\":5650:5720  zeroForOne ? TickMath.MIN_SQRT_RATIO + 1 : TickMath.MAX_SQRT_RATIO - 1 */\n      jump(tag_60)\n    tag_59:\n        /* \"contracts/lens/Quoter.sol\":5663:5690  TickMath.MIN_SQRT_RATIO + 1 */\n      0x01000276a4\n        /* \"contracts/lens/Quoter.sol\":5650:5720  zeroForOne ? TickMath.MIN_SQRT_RATIO + 1 : TickMath.MAX_SQRT_RATIO - 1 */\n    tag_60:\n        /* \"contracts/lens/Quoter.sol\":5798:5806  tokenOut */\n      dup12\n        /* \"contracts/lens/Quoter.sol\":5808:5811  fee */\n      dup12\n        /* \"contracts/lens/Quoter.sol\":5813:5820  tokenIn */\n      dup15\n        /* \"contracts/lens/Quoter.sol\":5781:5821  abi.encodePacked(tokenOut, fee, tokenIn) */\n      add(0x20, mload(0x40))\n      dup1\n      dup5\n      sub(shl(0xa0, 0x01), 0x01)\n      and\n      0x60\n      shl\n      dup2\n      mstore\n      0x14\n      add\n      dup4\n      0xffffff\n      and\n      0xe8\n      shl\n      dup2\n      mstore\n      0x03\n      add\n      dup3\n      sub(shl(0xa0, 0x01), 0x01)\n      and\n      0x60\n      shl\n      dup2\n      mstore\n      0x14\n      add\n      swap4\n      pop\n      pop\n      pop\n      pop\n      mload(0x40)\n      0x20\n      dup2\n      dup4\n      sub\n      sub\n      dup2\n      mstore\n      swap1\n      0x40\n      mstore\n        /* \"contracts/lens/Quoter.sol\":5397:5836  getPool(tokenIn, tokenOut, fee).swap(\r... */\n      mload(0x40)\n      dup7\n      0xffffffff\n      and\n      0xe0\n      shl\n      dup2\n      mstore\n      0x04\n      add\n      dup1\n      dup7\n      sub(shl(0xa0, 0x01), 0x01)\n      and\n      dup2\n      mstore\n      0x20\n      add\n      dup6\n      iszero\n      iszero\n      dup2\n      mstore\n      0x20\n      add\n      dup5\n      dup2\n      mstore\n      0x20\n      add\n      dup4\n      sub(shl(0xa0, 0x01), 0x01)\n      and\n      dup2\n      mstore\n      0x20\n      add\n      dup1\n      0x20\n      add\n      dup3\n      dup2\n      sub\n      dup3\n      mstore\n      dup4\n      dup2\n      dup2\n      mload\n      dup2\n      mstore\n      0x20\n      add\n      swap2\n      pop\n      dup1\n      mload\n      swap1\n      0x20\n      add\n      swap1\n      dup1\n      dup4\n      dup4\n      0x00\n    tag_61:\n      dup4\n      dup2\n      lt\n      iszero\n      tag_63\n      jumpi\n      dup2\n      dup2\n      add\n      mload\n      dup4\n      dup3\n      add\n      mstore\n      0x20\n      add\n      jump(tag_61)\n    tag_63:\n      pop\n      pop\n      pop\n      pop\n      swap1\n      pop\n      swap1\n      dup2\n      add\n      swap1\n      0x1f\n      and\n      dup1\n      iszero\n      tag_64\n      jumpi\n      dup1\n      dup3\n      sub\n      dup1\n      mload\n      0x01\n      dup4\n      0x20\n      sub\n      0x0100\n      exp\n      sub\n      not\n      and\n      dup2\n      mstore\n      0x20\n      add\n      swap2\n      pop\n    tag_64:\n      pop\n      swap7\n      pop\n      pop\n      pop\n      pop\n      pop\n      pop\n      pop\n      0x40\n      dup1\n      mload\n      dup1\n      dup4\n      sub\n      dup2\n      0x00\n      dup8\n      dup1\n      extcodesize\n      iszero\n      dup1\n      iszero\n      tag_65\n      jumpi\n      0x00\n      dup1\n      revert\n    tag_65:\n      pop\n      gas\n      call\n      swap3\n      pop\n      pop\n      pop\n      dup1\n      iszero\n      tag_66\n      jumpi\n      pop\n      mload(0x40)\n      returndatasize\n      0x40\n      dup2\n      lt\n      iszero\n      tag_67\n      jumpi\n      0x00\n      dup1\n      revert\n    tag_67:\n      pop\n      dup1\n      mload\n      0x20\n      swap1\n      swap2\n      add\n      mload\n      0x01\n    tag_66:\n        /* \"contracts/lens/Quoter.sol\":5380:6016  try\r... */\n      tag_68\n      jumpi\n      returndatasize\n      dup1\n      dup1\n      iszero\n      tag_72\n      jumpi\n      mload(0x40)\n      swap2\n      pop\n      and(add(returndatasize, 0x3f), not(0x1f))\n      dup3\n      add\n      0x40\n      mstore\n      returndatasize\n      dup3\n      mstore\n      returndatasize\n      0x00\n      0x20\n      dup5\n      add\n      returndatacopy\n      jump(tag_71)\n    tag_72:\n      0x60\n      swap2\n      pop\n    tag_71:\n      pop\n      sub(shl(0xa0, 0x01), 0x01)\n        /* \"contracts/lens/Quoter.sol\":5896:5918  sqrtPriceLimitX96 == 0 */\n      dup5\n      and\n        /* \"contracts/lens/Quoter.sol\":5892:5942  if (sqrtPriceLimitX96 == 0) delete amountOutCached */\n      tag_73\n      jumpi\n        /* \"contracts/lens/Quoter.sol\":5927:5942  amountOutCached */\n      0x00\n        /* \"contracts/lens/Quoter.sol\":5920:5942  delete amountOutCached */\n      dup1\n      sstore\n        /* \"contracts/lens/Quoter.sol\":5892:5942  if (sqrtPriceLimitX96 == 0) delete amountOutCached */\n    tag_73:\n        /* \"contracts/lens/Quoter.sol\":5979:6004  parseRevertReason(reason) */\n      tag_74\n        /* \"contracts/lens/Quoter.sol\":5997:6003  reason */\n      dup2\n        /* \"contracts/lens/Quoter.sol\":5979:5996  parseRevertReason */\n      tag_75\n        /* \"contracts/lens/Quoter.sol\":5979:6004  parseRevertReason(reason) */\n      jump\t// in\n    tag_74:\n        /* \"contracts/lens/Quoter.sol\":5972:6004  return parseRevertReason(reason) */\n      swap3\n      pop\n      pop\n      pop\n      jump(tag_51)\n        /* \"contracts/lens/Quoter.sol\":5380:6016  try\r... */\n    tag_68:\n      pop\n      pop\n        /* \"contracts/lens/Quoter.sol\":4924:6023  function quoteExactOutputSingle(\r... */\n      pop\n    tag_51:\n      swap6\n      swap5\n      pop\n      pop\n      pop\n      pop\n      pop\n      jump\t// out\n        /* \"contracts/base/PeripheryImmutableState.sol\":431:470  address public immutable override WETH9 */\n    tag_21:\n      immutable(\"0xb37328d1c6f33416cc50b9168b9894b89e743919cc7edc16d1bdc20660330b9f\")\n      dup2\n      jump\t// out\n        /* \"contracts/base/PeripheryImmutableState.sol\":337:378  address public immutable override factory */\n    tag_23:\n      immutable(\"0x912cdad641b4408bd64eb5a331e5fe393f33f2296e0c7fad54e613ac760cfb47\")\n      dup2\n      jump\t// out\n        /* \"contracts/lens/Quoter.sol\":4211:4887  function quoteExactInput(bytes memory path, uint256 amountIn) external override returns (uint256 amountOut) {\r... */\n    tag_29:\n        /* \"contracts/lens/Quoter.sol\":4300:4317  uint256 amountOut */\n      0x00\n        /* \"contracts/lens/Quoter.sol\":4330:4880  while (true) {\r... */\n    tag_78:\n        /* \"contracts/lens/Quoter.sol\":4358:4379  bool hasMultiplePools */\n      0x00\n        /* \"contracts/lens/Quoter.sol\":4382:4405  path.hasMultiplePools() */\n      tag_80\n        /* \"contracts/lens/Quoter.sol\":4382:4386  path */\n      dup5\n        /* \"contracts/lens/Quoter.sol\":4382:4403  path.hasMultiplePools */\n      tag_43\n        /* \"contracts/lens/Quoter.sol\":4382:4405  path.hasMultiplePools() */\n      jump\t// in\n    tag_80:\n        /* \"contracts/lens/Quoter.sol\":4358:4405  bool hasMultiplePools = path.hasMultiplePools() */\n      swap1\n      pop\n        /* \"contracts/lens/Quoter.sol\":4423:4438  address tokenIn */\n      0x00\n        /* \"contracts/lens/Quoter.sol\":4440:4456  address tokenOut */\n      dup1\n        /* \"contracts/lens/Quoter.sol\":4458:4468  uint24 fee */\n      0x00\n        /* \"contracts/lens/Quoter.sol\":4472:4494  path.decodeFirstPool() */\n      tag_81\n        /* \"contracts/lens/Quoter.sol\":4472:4476  path */\n      dup8\n        /* \"contracts/lens/Quoter.sol\":4472:4492  path.decodeFirstPool */\n      tag_45\n        /* \"contracts/lens/Quoter.sol\":4472:4494  path.decodeFirstPool() */\n      jump\t// in\n    tag_81:\n        /* \"contracts/lens/Quoter.sol\":4422:4494  (address tokenIn, address tokenOut, uint24 fee) = path.decodeFirstPool() */\n      swap3\n      pop\n      swap3\n      pop\n      swap3\n      pop\n        /* \"contracts/lens/Quoter.sol\":4602:4660  quoteExactInputSingle(tokenIn, tokenOut, fee, amountIn, 0) */\n      tag_82\n        /* \"contracts/lens/Quoter.sol\":4624:4631  tokenIn */\n      dup4\n        /* \"contracts/lens/Quoter.sol\":4633:4641  tokenOut */\n      dup4\n        /* \"contracts/lens/Quoter.sol\":4643:4646  fee */\n      dup4\n        /* \"contracts/lens/Quoter.sol\":4648:4656  amountIn */\n      dup10\n        /* \"contracts/lens/Quoter.sol\":4658:4659  0 */\n      0x00\n        /* \"contracts/lens/Quoter.sol\":4602:4623  quoteExactInputSingle */\n      tag_32\n        /* \"contracts/lens/Quoter.sol\":4602:4660  quoteExactInputSingle(tokenIn, tokenOut, fee, amountIn, 0) */\n      jump\t// in\n    tag_82:\n        /* \"contracts/lens/Quoter.sol\":4591:4660  amountIn = quoteExactInputSingle(tokenIn, tokenOut, fee, amountIn, 0) */\n      swap6\n      pop\n        /* \"contracts/lens/Quoter.sol\":4737:4753  hasMultiplePools */\n      dup4\n        /* \"contracts/lens/Quoter.sol\":4733:4869  if (hasMultiplePools) {\r... */\n      iszero\n      tag_47\n      jumpi\n        /* \"contracts/lens/Quoter.sol\":4781:4797  path.skipToken() */\n      tag_84\n        /* \"contracts/lens/Quoter.sol\":4781:4785  path */\n      dup8\n        /* \"contracts/lens/Quoter.sol\":4781:4795  path.skipToken */\n      tag_49\n        /* \"contracts/lens/Quoter.sol\":4781:4797  path.skipToken() */\n      jump\t// in\n    tag_84:\n        /* \"contracts/lens/Quoter.sol\":4774:4797  path = path.skipToken() */\n      swap7\n      pop\n        /* \"contracts/lens/Quoter.sol\":4330:4880  while (true) {\r... */\n      pop\n      pop\n      pop\n      pop\n      jump(tag_78)\n        /* \"contracts/lens/Quoter.sol\":3334:4174  function quoteExactInputSingle(\r... */\n    tag_32:\n        /* \"contracts/lens/Quoter.sol\":3534:3551  uint256 amountOut */\n      0x00\n      sub(shl(0xa0, 0x01), 0x01)\n        /* \"contracts/lens/Quoter.sol\":3582:3600  tokenIn < tokenOut */\n      dup1\n      dup7\n      and\n      swap1\n      dup8\n      and\n      lt\n        /* \"contracts/lens/Quoter.sol\":3630:3661  getPool(tokenIn, tokenOut, fee) */\n      tag_87\n        /* \"contracts/lens/Quoter.sol\":3582:3589  tokenIn */\n      dup8\n        /* \"contracts/lens/Quoter.sol\":3592:3600  tokenOut */\n      dup8\n        /* \"contracts/lens/Quoter.sol\":3657:3660  fee */\n      dup8\n        /* \"contracts/lens/Quoter.sol\":3630:3637  getPool */\n      tag_54\n        /* \"contracts/lens/Quoter.sol\":3630:3661  getPool(tokenIn, tokenOut, fee) */\n      jump\t// in\n    tag_87:\n      sub(shl(0xa0, 0x01), 0x01)\n        /* \"contracts/lens/Quoter.sol\":3630:3666  getPool(tokenIn, tokenOut, fee).swap */\n      and\n      0x128acb08\n        /* \"contracts/lens/Quoter.sol\":3693:3697  this */\n      address\n        /* \"contracts/lens/Quoter.sol\":3767:3777  zeroForOne */\n      dup4\n        /* \"contracts/lens/Quoter.sol\":3796:3815  amountIn.toInt256() */\n      tag_88\n        /* \"contracts/lens/Quoter.sol\":3796:3804  amountIn */\n      dup9\n        /* \"contracts/lens/Quoter.sol\":3796:3813  amountIn.toInt256 */\n      tag_56\n        /* \"contracts/lens/Quoter.sol\":3796:3815  amountIn.toInt256() */\n      jump\t// in\n    tag_88:\n      sub(shl(0xa0, 0x01), 0x01)\n        /* \"contracts/lens/Quoter.sol\":3834:3856  sqrtPriceLimitX96 == 0 */\n      dup9\n      and\n      iszero\n        /* \"contracts/lens/Quoter.sol\":3834:3993  sqrtPriceLimitX96 == 0\r... */\n      tag_89\n      jumpi\n        /* \"contracts/lens/Quoter.sol\":3976:3993  sqrtPriceLimitX96 */\n      dup8\n        /* \"contracts/lens/Quoter.sol\":3834:3993  sqrtPriceLimitX96 == 0\r... */\n      jump(tag_92)\n    tag_89:\n        /* \"contracts/lens/Quoter.sol\":3881:3891  zeroForOne */\n      dup6\n        /* \"contracts/lens/Quoter.sol\":3881:3951  zeroForOne ? TickMath.MIN_SQRT_RATIO + 1 : TickMath.MAX_SQRT_RATIO - 1 */\n      tag_91\n      jumpi\n        /* \"contracts/lens/Quoter.sol\":3924:3951  TickMath.MAX_SQRT_RATIO - 1 */\n      0xfffd8963efd1fc6a506488495d951d5263988d25\n        /* \"contracts/lens/Quoter.sol\":3881:3951  zeroForOne ? TickMath.MIN_SQRT_RATIO + 1 : TickMath.MAX_SQRT_RATIO - 1 */\n      jump(tag_92)\n    tag_91:\n        /* \"contracts/lens/Quoter.sol\":3894:3921  TickMath.MIN_SQRT_RATIO + 1 */\n      0x01000276a4\n        /* \"contracts/lens/Quoter.sol\":3881:3951  zeroForOne ? TickMath.MIN_SQRT_RATIO + 1 : TickMath.MAX_SQRT_RATIO - 1 */\n    tag_92:\n        /* \"contracts/lens/Quoter.sol\":4029:4036  tokenIn */\n      dup13\n        /* \"contracts/lens/Quoter.sol\":4038:4041  fee */\n      dup12\n        /* \"contracts/lens/Quoter.sol\":4043:4051  tokenOut */\n      dup14\n        /* \"contracts/lens/Quoter.sol\":4012:4052  abi.encodePacked(tokenIn, fee, tokenOut) */\n      add(0x20, mload(0x40))\n      dup1\n      dup5\n      sub(shl(0xa0, 0x01), 0x01)\n      and\n      0x60\n      shl\n      dup2\n      mstore\n      0x14\n      add\n      dup4\n      0xffffff\n      and\n      0xe8\n      shl\n      dup2\n      mstore\n      0x03\n      add\n      dup3\n      sub(shl(0xa0, 0x01), 0x01)\n      and\n      0x60\n      shl\n      dup2\n      mstore\n      0x14\n      add\n      swap4\n      pop\n      pop\n      pop\n      pop\n      mload(0x40)\n      0x20\n      dup2\n      dup4\n      sub\n      sub\n      dup2\n      mstore\n      swap1\n      0x40\n      mstore\n        /* \"contracts/lens/Quoter.sol\":3630:4067  getPool(tokenIn, tokenOut, fee).swap(\r... */\n      mload(0x40)\n      dup7\n      0xffffffff\n      and\n      0xe0\n      shl\n      dup2\n      mstore\n      0x04\n      add\n      dup1\n      dup7\n      sub(shl(0xa0, 0x01), 0x01)\n      and\n      dup2\n      mstore\n      0x20\n      add\n      dup6\n      iszero\n      iszero\n      dup2\n      mstore\n      0x20\n      add\n      dup5\n      dup2\n      mstore\n      0x20\n      add\n      dup4\n      sub(shl(0xa0, 0x01), 0x01)\n      and\n      dup2\n      mstore\n      0x20\n      add\n      dup1\n      0x20\n      add\n      dup3\n      dup2\n      sub\n      dup3\n      mstore\n      dup4\n      dup2\n      dup2\n      mload\n      dup2\n      mstore\n      0x20\n      add\n      swap2\n      pop\n      dup1\n      mload\n      swap1\n      0x20\n      add\n      swap1\n      dup1\n      dup4\n      dup4\n      0x00\n    tag_93:\n      dup4\n      dup2\n      lt\n      iszero\n      tag_95\n      jumpi\n      dup2\n      dup2\n      add\n      mload\n      dup4\n      dup3\n      add\n      mstore\n      0x20\n      add\n      jump(tag_93)\n    tag_95:\n      pop\n      pop\n      pop\n      pop\n      swap1\n      pop\n      swap1\n      dup2\n      add\n      swap1\n      0x1f\n      and\n      dup1\n      iszero\n      tag_96\n      jumpi\n      dup1\n      dup3\n      sub\n      dup1\n      mload\n      0x01\n      dup4\n      0x20\n      sub\n      0x0100\n      exp\n      sub\n      not\n      and\n      dup2\n      mstore\n      0x20\n      add\n      swap2\n      pop\n    tag_96:\n      pop\n      swap7\n      pop\n      pop\n      pop\n      pop\n      pop\n      pop\n      pop\n      0x40\n      dup1\n      mload\n      dup1\n      dup4\n      sub\n      dup2\n      0x00\n      dup8\n      dup1\n      extcodesize\n      iszero\n      dup1\n      iszero\n      tag_97\n      jumpi\n      0x00\n      dup1\n      revert\n    tag_97:\n      pop\n      gas\n      call\n      swap3\n      pop\n      pop\n      pop\n      dup1\n      iszero\n      tag_98\n      jumpi\n      pop\n      mload(0x40)\n      returndatasize\n      0x40\n      dup2\n      lt\n      iszero\n      tag_99\n      jumpi\n      0x00\n      dup1\n      revert\n    tag_99:\n      pop\n      dup1\n      mload\n      0x20\n      swap1\n      swap2\n      add\n      mload\n      0x01\n    tag_98:\n        /* \"contracts/lens/Quoter.sol\":3613:4167  try\r... */\n      tag_68\n      jumpi\n      returndatasize\n      dup1\n      dup1\n      iszero\n      tag_104\n      jumpi\n      mload(0x40)\n      swap2\n      pop\n      and(add(returndatasize, 0x3f), not(0x1f))\n      dup3\n      add\n      0x40\n      mstore\n      returndatasize\n      dup3\n      mstore\n      returndatasize\n      0x00\n      0x20\n      dup5\n      add\n      returndatacopy\n      jump(tag_103)\n    tag_104:\n      0x60\n      swap2\n      pop\n    tag_103:\n      pop\n        /* \"contracts/lens/Quoter.sol\":4130:4155  parseRevertReason(reason) */\n      tag_74\n        /* \"contracts/lens/Quoter.sol\":4148:4154  reason */\n      dup2\n        /* \"contracts/lens/Quoter.sol\":4130:4147  parseRevertReason */\n      tag_75\n        /* \"contracts/lens/Quoter.sol\":4130:4155  parseRevertReason(reason) */\n      jump\t// in\n        /* \"contracts/lens/Quoter.sol\":1560:2833  function uniswapV3SwapCallback(\r... */\n    tag_38:\n        /* \"contracts/lens/Quoter.sol\":1743:1744  0 */\n      0x00\n        /* \"contracts/lens/Quoter.sol\":1728:1740  amount0Delta */\n      dup4\n        /* \"contracts/lens/Quoter.sol\":1728:1744  amount0Delta > 0 */\n      sgt\n        /* \"contracts/lens/Quoter.sol\":1728:1764  amount0Delta > 0 || amount1Delta > 0 */\n      dup1\n      tag_108\n      jumpi\n      pop\n        /* \"contracts/lens/Quoter.sol\":1763:1764  0 */\n      0x00\n        /* \"contracts/lens/Quoter.sol\":1748:1760  amount1Delta */\n      dup3\n        /* \"contracts/lens/Quoter.sol\":1748:1764  amount1Delta > 0 */\n      sgt\n        /* \"contracts/lens/Quoter.sol\":1728:1764  amount0Delta > 0 || amount1Delta > 0 */\n    tag_108:\n        /* \"contracts/lens/Quoter.sol\":1720:1765  require(amount0Delta > 0 || amount1Delta > 0) */\n      tag_109\n      jumpi\n      0x00\n      dup1\n      revert\n    tag_109:\n        /* \"contracts/lens/Quoter.sol\":1840:1855  address tokenIn */\n      0x00\n        /* \"contracts/lens/Quoter.sol\":1857:1873  address tokenOut */\n      dup1\n        /* \"contracts/lens/Quoter.sol\":1875:1885  uint24 fee */\n      0x00\n        /* \"contracts/lens/Quoter.sol\":1889:1911  path.decodeFirstPool() */\n      tag_110\n        /* \"contracts/lens/Quoter.sol\":1889:1893  path */\n      dup5\n        /* \"contracts/lens/Quoter.sol\":1889:1909  path.decodeFirstPool */\n      tag_45\n        /* \"contracts/lens/Quoter.sol\":1889:1911  path.decodeFirstPool() */\n      jump\t// in\n    tag_110:\n        /* \"contracts/lens/Quoter.sol\":1839:1911  (address tokenIn, address tokenOut, uint24 fee) = path.decodeFirstPool() */\n      swap3\n      pop\n      swap3\n      pop\n      swap3\n      pop\n        /* \"contracts/lens/Quoter.sol\":1922:1988  CallbackValidation.verifyCallback(factory, tokenIn, tokenOut, fee) */\n      tag_111\n        /* \"contracts/lens/Quoter.sol\":1956:1963  factory */\n      immutable(\"0x912cdad641b4408bd64eb5a331e5fe393f33f2296e0c7fad54e613ac760cfb47\")\n        /* \"contracts/lens/Quoter.sol\":1965:1972  tokenIn */\n      dup5\n        /* \"contracts/lens/Quoter.sol\":1974:1982  tokenOut */\n      dup5\n        /* \"contracts/lens/Quoter.sol\":1984:1987  fee */\n      dup5\n        /* \"contracts/lens/Quoter.sol\":1922:1955  CallbackValidation.verifyCallback */\n      tag_112\n        /* \"contracts/lens/Quoter.sol\":1922:1988  CallbackValidation.verifyCallback(factory, tokenIn, tokenOut, fee) */\n      jump\t// in\n    tag_111:\n      pop\n        /* \"contracts/lens/Quoter.sol\":2002:2019  bool isExactInput */\n      0x00\n        /* \"contracts/lens/Quoter.sol\":2021:2040  uint256 amountToPay */\n      dup1\n        /* \"contracts/lens/Quoter.sol\":2042:2064  uint256 amountReceived */\n      0x00\n        /* \"contracts/lens/Quoter.sol\":2096:2097  0 */\n      dup1\n        /* \"contracts/lens/Quoter.sol\":2081:2093  amount0Delta */\n      dup10\n        /* \"contracts/lens/Quoter.sol\":2081:2097  amount0Delta > 0 */\n      sgt\n        /* \"contracts/lens/Quoter.sol\":2081:2271  amount0Delta > 0\r... */\n      tag_113\n      jumpi\n        /* \"contracts/lens/Quoter.sol\":2216:2223  tokenIn */\n      dup6\n      sub(shl(0xa0, 0x01), 0x01)\n        /* \"contracts/lens/Quoter.sol\":2205:2223  tokenOut < tokenIn */\n      and\n        /* \"contracts/lens/Quoter.sol\":2205:2213  tokenOut */\n      dup6\n      sub(shl(0xa0, 0x01), 0x01)\n        /* \"contracts/lens/Quoter.sol\":2205:2223  tokenOut < tokenIn */\n      and\n      lt\n        /* \"contracts/lens/Quoter.sol\":2233:2245  amount1Delta */\n      dup9\n        /* \"contracts/lens/Quoter.sol\":2257:2269  amount0Delta */\n      dup11\n        /* \"contracts/lens/Quoter.sol\":2256:2269  -amount0Delta */\n      0x00\n      sub\n        /* \"contracts/lens/Quoter.sol\":2081:2271  amount0Delta > 0\r... */\n      jump(tag_114)\n    tag_113:\n        /* \"contracts/lens/Quoter.sol\":2128:2136  tokenOut */\n      dup5\n      sub(shl(0xa0, 0x01), 0x01)\n        /* \"contracts/lens/Quoter.sol\":2118:2136  tokenIn < tokenOut */\n      and\n        /* \"contracts/lens/Quoter.sol\":2118:2125  tokenIn */\n      dup7\n      sub(shl(0xa0, 0x01), 0x01)\n        /* \"contracts/lens/Quoter.sol\":2118:2136  tokenIn < tokenOut */\n      and\n      lt\n        /* \"contracts/lens/Quoter.sol\":2146:2158  amount0Delta */\n      dup10\n        /* \"contracts/lens/Quoter.sol\":2170:2182  amount1Delta */\n      dup10\n        /* \"contracts/lens/Quoter.sol\":2169:2182  -amount1Delta */\n      0x00\n      sub\n        /* \"contracts/lens/Quoter.sol\":2081:2271  amount0Delta > 0\r... */\n    tag_114:\n        /* \"contracts/lens/Quoter.sol\":2001:2271  (bool isExactInput, uint256 amountToPay, uint256 amountReceived) =\r... */\n      swap3\n      pop\n      swap3\n      pop\n      swap3\n      pop\n        /* \"contracts/lens/Quoter.sol\":2286:2298  isExactInput */\n      dup3\n        /* \"contracts/lens/Quoter.sol\":2282:2826  if (isExactInput) {\r... */\n      iszero\n      tag_115\n      jumpi\n        /* \"contracts/lens/Quoter.sol\":2360:2364  0x40 */\n      0x40\n        /* \"contracts/lens/Quoter.sol\":2354:2365  mload(0x40) */\n      mload\n        /* \"contracts/lens/Quoter.sol\":2395:2409  amountReceived */\n      dup2\n        /* \"contracts/lens/Quoter.sol\":2390:2393  ptr */\n      dup2\n        /* \"contracts/lens/Quoter.sol\":2383:2410  mstore(ptr, amountReceived) */\n      mstore\n        /* \"contracts/lens/Quoter.sol\":2440:2442  32 */\n      0x20\n        /* \"contracts/lens/Quoter.sol\":2435:2438  ptr */\n      dup2\n        /* \"contracts/lens/Quoter.sol\":2428:2443  revert(ptr, 32) */\n      revert\n        /* \"contracts/lens/Quoter.sol\":2324:2458  {\r... */\n    tag_115:\n        /* \"contracts/lens/Quoter.sol\":2596:2611  amountOutCached */\n      sload(0x00)\n        /* \"contracts/lens/Quoter.sol\":2596:2616  amountOutCached != 0 */\n      iszero\n        /* \"contracts/lens/Quoter.sol\":2592:2660  if (amountOutCached != 0) require(amountReceived == amountOutCached) */\n      tag_118\n      jumpi\n        /* \"contracts/lens/Quoter.sol\":2644:2659  amountOutCached */\n      sload(0x00)\n        /* \"contracts/lens/Quoter.sol\":2626:2640  amountReceived */\n      dup2\n        /* \"contracts/lens/Quoter.sol\":2626:2659  amountReceived == amountOutCached */\n      eq\n        /* \"contracts/lens/Quoter.sol\":2618:2660  require(amountReceived == amountOutCached) */\n      tag_118\n      jumpi\n      0x00\n      dup1\n      revert\n    tag_118:\n        /* \"contracts/lens/Quoter.sol\":2720:2724  0x40 */\n      0x40\n        /* \"contracts/lens/Quoter.sol\":2714:2725  mload(0x40) */\n      mload\n        /* \"contracts/lens/Quoter.sol\":2755:2766  amountToPay */\n      dup3\n        /* \"contracts/lens/Quoter.sol\":2750:2753  ptr */\n      dup2\n        /* \"contracts/lens/Quoter.sol\":2743:2767  mstore(ptr, amountToPay) */\n      mstore\n        /* \"contracts/lens/Quoter.sol\":2797:2799  32 */\n      0x20\n        /* \"contracts/lens/Quoter.sol\":2792:2795  ptr */\n      dup2\n        /* \"contracts/lens/Quoter.sol\":2785:2800  revert(ptr, 32) */\n      revert\n        /* \"contracts/libraries/Path.sol\":1016:1156  function hasMultiplePools(bytes memory path) internal pure returns (bool) {\r... */\n    tag_43:\n        /* \"contracts/libraries/Path.sol\":1108:1119  path.length */\n      mload\n        /* \"contracts/libraries/Path.sol\":796:820  POP_OFFSET + NEXT_OFFSET */\n      0x42\n      gt\n        /* \"contracts/libraries/Path.sol\":1108:1148  path.length >= MULTIPLE_POOLS_MIN_LENGTH */\n      iszero\n      swap1\n        /* \"contracts/libraries/Path.sol\":1016:1156  function hasMultiplePools(bytes memory path) internal pure returns (bool) {\r... */\n      jump\t// out\n        /* \"contracts/libraries/Path.sol\":1820:2146  function decodeFirstPool(bytes memory path)\r... */\n    tag_45:\n        /* \"contracts/libraries/Path.sol\":1928:1942  address tokenA */\n      0x00\n      dup1\n      dup1\n        /* \"contracts/libraries/Path.sol\":2033:2050  path.toAddress(0) */\n      tag_121\n        /* \"contracts/libraries/Path.sol\":2033:2037  path */\n      dup5\n        /* \"contracts/libraries/Path.sol\":1928:1942  address tokenA */\n      dup3\n        /* \"contracts/libraries/Path.sol\":2033:2047  path.toAddress */\n      tag_122\n        /* \"contracts/libraries/Path.sol\":2033:2050  path.toAddress(0) */\n      jump\t// in\n    tag_121:\n        /* \"contracts/libraries/Path.sol\":2024:2050  tokenA = path.toAddress(0) */\n      swap3\n      pop\n        /* \"contracts/libraries/Path.sol\":2067:2091  path.toUint24(ADDR_SIZE) */\n      tag_123\n        /* \"contracts/libraries/Path.sol\":2067:2071  path */\n      dup5\n        /* \"contracts/libraries/Path.sol\":314:316  20 */\n      0x14\n        /* \"contracts/libraries/Path.sol\":2067:2080  path.toUint24 */\n      tag_124\n        /* \"contracts/libraries/Path.sol\":2067:2091  path.toUint24(ADDR_SIZE) */\n      jump\t// in\n    tag_123:\n        /* \"contracts/libraries/Path.sol\":2061:2091  fee = path.toUint24(ADDR_SIZE) */\n      swap1\n      pop\n        /* \"contracts/libraries/Path.sol\":2111:2138  path.toAddress(NEXT_OFFSET) */\n      tag_125\n        /* \"contracts/libraries/Path.sol\":2111:2115  path */\n      dup5\n        /* \"contracts/libraries/Path.sol\":522:542  ADDR_SIZE + FEE_SIZE */\n      0x17\n        /* \"contracts/libraries/Path.sol\":2111:2125  path.toAddress */\n      tag_122\n        /* \"contracts/libraries/Path.sol\":2111:2138  path.toAddress(NEXT_OFFSET) */\n      jump\t// in\n    tag_125:\n        /* \"contracts/libraries/Path.sol\":2102:2138  tokenB = path.toAddress(NEXT_OFFSET) */\n      swap2\n      pop\n        /* \"contracts/libraries/Path.sol\":1820:2146  function decodeFirstPool(bytes memory path)\r... */\n      swap2\n      swap4\n      swap1\n      swap3\n      pop\n      jump\t// out\n        /* \"contracts/libraries/Path.sol\":2700:2851  function skipToken(bytes memory path) internal pure returns (bytes memory) {\r... */\n    tag_49:\n        /* \"contracts/libraries/Path.sol\":2817:2828  path.length */\n      dup1\n      mload\n        /* \"contracts/libraries/Path.sol\":2761:2773  bytes memory */\n      0x60\n      swap1\n        /* \"contracts/libraries/Path.sol\":2793:2843  path.slice(NEXT_OFFSET, path.length - NEXT_OFFSET) */\n      tag_41\n      swap1\n        /* \"contracts/libraries/Path.sol\":2817:2821  path */\n      dup4\n      swap1\n        /* \"contracts/libraries/Path.sol\":522:542  ADDR_SIZE + FEE_SIZE */\n      0x17\n      swap1\n      not(0x16)\n        /* \"contracts/libraries/Path.sol\":2817:2842  path.length - NEXT_OFFSET */\n      add\n        /* \"contracts/libraries/Path.sol\":2793:2803  path.slice */\n      tag_128\n        /* \"contracts/libraries/Path.sol\":2793:2843  path.slice(NEXT_OFFSET, path.length - NEXT_OFFSET) */\n      jump\t// in\n        /* \"contracts/lens/Quoter.sol\":1253:1508  function getPool(\r... */\n    tag_54:\n        /* \"contracts/lens/Quoter.sol\":1370:1384  IUniswapV3Pool */\n      0x00\n        /* \"contracts/lens/Quoter.sol\":1419:1499  PoolAddress.computeAddress(factory, PoolAddress.getPoolKey(tokenA, tokenB, fee)) */\n      tag_130\n        /* \"contracts/lens/Quoter.sol\":1446:1453  factory */\n      immutable(\"0x912cdad641b4408bd64eb5a331e5fe393f33f2296e0c7fad54e613ac760cfb47\")\n        /* \"contracts/lens/Quoter.sol\":1455:1498  PoolAddress.getPoolKey(tokenA, tokenB, fee) */\n      tag_131\n        /* \"contracts/lens/Quoter.sol\":1478:1484  tokenA */\n      dup7\n        /* \"contracts/lens/Quoter.sol\":1486:1492  tokenB */\n      dup7\n        /* \"contracts/lens/Quoter.sol\":1494:1497  fee */\n      dup7\n        /* \"contracts/lens/Quoter.sol\":1455:1477  PoolAddress.getPoolKey */\n      tag_132\n        /* \"contracts/lens/Quoter.sol\":1455:1498  PoolAddress.getPoolKey(tokenA, tokenB, fee) */\n      jump\t// in\n    tag_131:\n        /* \"contracts/lens/Quoter.sol\":1419:1445  PoolAddress.computeAddress */\n      tag_133\n        /* \"contracts/lens/Quoter.sol\":1419:1499  PoolAddress.computeAddress(factory, PoolAddress.getPoolKey(tokenA, tokenB, fee)) */\n      jump\t// in\n    tag_130:\n        /* \"contracts/lens/Quoter.sol\":1397:1500  return IUniswapV3Pool(PoolAddress.computeAddress(factory, PoolAddress.getPoolKey(tokenA, tokenB, fee))) */\n      swap5\n        /* \"contracts/lens/Quoter.sol\":1253:1508  function getPool(\r... */\n      swap4\n      pop\n      pop\n      pop\n      pop\n      jump\t// out\n        /* \"@thinkincoin-libs/uniswap-v3-core/contracts/libraries/SafeCast.sol\":924:1045  function toInt256(uint256 y) internal pure returns (int256 z) {... */\n    tag_56:\n        /* \"@thinkincoin-libs/uniswap-v3-core/contracts/libraries/SafeCast.sol\":976:984  int256 z */\n      0x00\n      shl(0xff, 0x01)\n        /* \"@thinkincoin-libs/uniswap-v3-core/contracts/libraries/SafeCast.sol\":1004:1005  y */\n      dup3\n        /* \"@thinkincoin-libs/uniswap-v3-core/contracts/libraries/SafeCast.sol\":1004:1014  y < 2**255 */\n      lt\n        /* \"@thinkincoin-libs/uniswap-v3-core/contracts/libraries/SafeCast.sol\":996:1015  require(y < 2**255) */\n      tag_135\n      jumpi\n      0x00\n      dup1\n      revert\n    tag_135:\n      pop\n        /* \"@thinkincoin-libs/uniswap-v3-core/contracts/libraries/SafeCast.sol\":1036:1037  y */\n      swap1\n        /* \"@thinkincoin-libs/uniswap-v3-core/contracts/libraries/SafeCast.sol\":924:1045  function toInt256(uint256 y) internal pure returns (int256 z) {... */\n      jump\t// out\n        /* \"contracts/lens/Quoter.sol\":2916:3297  function parseRevertReason(bytes memory reason) private pure returns (uint256) {\r... */\n    tag_75:\n        /* \"contracts/lens/Quoter.sol\":2986:2993  uint256 */\n      0x00\n        /* \"contracts/lens/Quoter.sol\":3010:3016  reason */\n      dup2\n        /* \"contracts/lens/Quoter.sol\":3010:3023  reason.length */\n      mload\n        /* \"contracts/lens/Quoter.sol\":3027:3029  32 */\n      0x20\n        /* \"contracts/lens/Quoter.sol\":3010:3029  reason.length != 32 */\n      eq\n        /* \"contracts/lens/Quoter.sol\":3006:3243  if (reason.length != 32) {\r... */\n      tag_137\n      jumpi\n        /* \"contracts/lens/Quoter.sol\":3066:3068  68 */\n      0x44\n        /* \"contracts/lens/Quoter.sol\":3050:3056  reason */\n      dup3\n        /* \"contracts/lens/Quoter.sol\":3050:3063  reason.length */\n      mload\n        /* \"contracts/lens/Quoter.sol\":3050:3068  reason.length < 68 */\n      lt\n        /* \"contracts/lens/Quoter.sol\":3046:3096  if (reason.length < 68) revert('Unexpected error') */\n      iszero\n      tag_138\n      jumpi\n        /* \"contracts/lens/Quoter.sol\":3070:3096  revert('Unexpected error') */\n      0x40\n      dup1\n      mload\n      shl(0xe5, 0x461bcd)\n      dup2\n      mstore\n      0x20\n      0x04\n      dup3\n      add\n      mstore\n      0x10\n      0x24\n      dup3\n      add\n      mstore\n      shl(0x81, 0x2ab732bc3832b1ba32b21032b93937b9)\n      0x44\n      dup3\n      add\n      mstore\n      swap1\n      mload\n      swap1\n      dup2\n      swap1\n      sub\n      0x64\n      add\n      swap1\n      revert\n        /* \"contracts/lens/Quoter.sol\":3046:3096  if (reason.length < 68) revert('Unexpected error') */\n    tag_138:\n        /* \"contracts/lens/Quoter.sol\":3161:3165  0x04 */\n      0x04\n        /* \"contracts/lens/Quoter.sol\":3149:3166  add(reason, 0x04) */\n      dup3\n      add\n        /* \"contracts/lens/Quoter.sol\":3202:3230  abi.decode(reason, (string)) */\n      dup1\n      mload\n        /* \"contracts/lens/Quoter.sol\":3149:3166  add(reason, 0x04) */\n      swap1\n      swap3\n        /* \"contracts/lens/Quoter.sol\":3202:3230  abi.decode(reason, (string)) */\n      0x24\n      add\n      swap1\n      0x20\n      dup2\n      lt\n      iszero\n      tag_139\n      jumpi\n      0x00\n      dup1\n      revert\n    tag_139:\n      dup2\n      add\n      swap1\n      dup1\n      dup1\n      mload\n      mload(0x40)\n      swap4\n      swap3\n      swap2\n      swap1\n      dup5\n      shl(0x20, 0x01)\n      dup3\n      gt\n      iszero\n      tag_140\n      jumpi\n      0x00\n      dup1\n      revert\n    tag_140:\n      swap1\n      dup4\n      add\n      swap1\n      0x20\n      dup3\n      add\n      dup6\n      dup2\n      gt\n      iszero\n      tag_141\n      jumpi\n      0x00\n      dup1\n      revert\n    tag_141:\n      dup3\n      mload\n      shl(0x20, 0x01)\n      dup2\n      gt\n      dup3\n      dup3\n      add\n      dup9\n      lt\n      or\n      iszero\n      tag_142\n      jumpi\n      0x00\n      dup1\n      revert\n    tag_142:\n      dup3\n      mstore\n      pop\n      dup2\n      mload\n      0x20\n      swap2\n      dup3\n      add\n      swap3\n      swap1\n      swap2\n      add\n      swap1\n      dup1\n      dup4\n      dup4\n      0x00\n    tag_143:\n      dup4\n      dup2\n      lt\n      iszero\n      tag_145\n      jumpi\n      dup2\n      dup2\n      add\n      mload\n      dup4\n      dup3\n      add\n      mstore\n      0x20\n      add\n      jump(tag_143)\n    tag_145:\n      pop\n      pop\n      pop\n      pop\n      swap1\n      pop\n      swap1\n      dup2\n      add\n      swap1\n      0x1f\n      and\n      dup1\n      iszero\n      tag_146\n      jumpi\n      dup1\n      dup3\n      sub\n      dup1\n      mload\n      0x01\n      dup4\n      0x20\n      sub\n      0x0100\n      exp\n      sub\n      not\n      and\n      dup2\n      mstore\n      0x20\n      add\n      swap2\n      pop\n    tag_146:\n      pop\n      0x40\n      mstore\n      pop\n      pop\n      pop\n        /* \"contracts/lens/Quoter.sol\":3195:3231  revert(abi.decode(reason, (string))) */\n      mload(0x40)\n      shl(0xe5, 0x461bcd)\n      dup2\n      mstore\n      0x04\n      add\n      dup1\n      dup1\n      0x20\n      add\n      dup3\n      dup2\n      sub\n      dup3\n      mstore\n      dup4\n      dup2\n      dup2\n      mload\n      dup2\n      mstore\n      0x20\n      add\n      swap2\n      pop\n      dup1\n      mload\n      swap1\n      0x20\n      add\n      swap1\n      dup1\n      dup4\n      dup4\n      0x00\n    tag_147:\n      dup4\n      dup2\n      lt\n      iszero\n      tag_149\n      jumpi\n      dup2\n      dup2\n      add\n      mload\n      dup4\n      dup3\n      add\n      mstore\n      0x20\n      add\n      jump(tag_147)\n    tag_149:\n      pop\n      pop\n      pop\n      pop\n      swap1\n      pop\n      swap1\n      dup2\n      add\n      swap1\n      0x1f\n      and\n      dup1\n      iszero\n      tag_150\n      jumpi\n      dup1\n      dup3\n      sub\n      dup1\n      mload\n      0x01\n      dup4\n      0x20\n      sub\n      0x0100\n      exp\n      sub\n      not\n      and\n      dup2\n      mstore\n      0x20\n      add\n      swap2\n      pop\n    tag_150:\n      pop\n      swap3\n      pop\n      pop\n      pop\n      mload(0x40)\n      dup1\n      swap2\n      sub\n      swap1\n      revert\n        /* \"contracts/lens/Quoter.sol\":3006:3243  if (reason.length != 32) {\r... */\n    tag_137:\n        /* \"contracts/lens/Quoter.sol\":3271:3277  reason */\n      dup2\n        /* \"contracts/lens/Quoter.sol\":3260:3289  abi.decode(reason, (uint256)) */\n      dup1\n      0x20\n      add\n      swap1\n      mload\n      0x20\n      dup2\n      lt\n      iszero\n      tag_151\n      jumpi\n      0x00\n      dup1\n      revert\n    tag_151:\n      pop\n      mload\n      swap3\n        /* \"contracts/lens/Quoter.sol\":2916:3297  function parseRevertReason(bytes memory reason) private pure returns (uint256) {\r... */\n      swap2\n      pop\n      pop\n      jump\t// out\n        /* \"contracts/libraries/CallbackValidation.sol\":697:963  function verifyCallback(\r... */\n    tag_112:\n        /* \"contracts/libraries/CallbackValidation.sol\":848:867  IUniswapV3Pool pool */\n      0x00\n        /* \"contracts/libraries/CallbackValidation.sol\":887:955  verifyCallback(factory, PoolAddress.getPoolKey(tokenA, tokenB, fee)) */\n      tag_51\n        /* \"contracts/libraries/CallbackValidation.sol\":902:909  factory */\n      dup6\n        /* \"contracts/libraries/CallbackValidation.sol\":911:954  PoolAddress.getPoolKey(tokenA, tokenB, fee) */\n      tag_154\n        /* \"contracts/libraries/CallbackValidation.sol\":934:940  tokenA */\n      dup7\n        /* \"contracts/libraries/CallbackValidation.sol\":942:948  tokenB */\n      dup7\n        /* \"contracts/libraries/CallbackValidation.sol\":950:953  fee */\n      dup7\n        /* \"contracts/libraries/CallbackValidation.sol\":911:933  PoolAddress.getPoolKey */\n      tag_132\n        /* \"contracts/libraries/CallbackValidation.sol\":911:954  PoolAddress.getPoolKey(tokenA, tokenB, fee) */\n      jump\t// in\n    tag_154:\n        /* \"contracts/libraries/CallbackValidation.sol\":887:901  verifyCallback */\n      tag_155\n        /* \"contracts/libraries/CallbackValidation.sol\":887:955  verifyCallback(factory, PoolAddress.getPoolKey(tokenA, tokenB, fee)) */\n      jump\t// in\n        /* \"contracts/libraries/BytesLib.sol\":3489:3915  function toAddress(bytes memory _bytes, uint256 _start) internal pure returns (address) {\r... */\n    tag_122:\n        /* \"contracts/libraries/BytesLib.sol\":3568:3575  address */\n      0x00\n        /* \"contracts/libraries/BytesLib.sol\":3611:3617  _start */\n      dup2\n        /* \"contracts/libraries/BytesLib.sol\":3596:3602  _start */\n      dup3\n        /* \"contracts/libraries/BytesLib.sol\":3605:3607  20 */\n      0x14\n        /* \"contracts/libraries/BytesLib.sol\":3596:3607  _start + 20 */\n      add\n        /* \"contracts/libraries/BytesLib.sol\":3596:3617  _start + 20 >= _start */\n      lt\n      iszero\n        /* \"contracts/libraries/BytesLib.sol\":3588:3640  require(_start + 20 >= _start, 'toAddress_overflow') */\n      tag_157\n      jumpi\n      0x40\n      dup1\n      mload\n      shl(0xe5, 0x461bcd)\n      dup2\n      mstore\n      0x20\n      0x04\n      dup3\n      add\n      mstore\n      0x12\n      0x24\n      dup3\n      add\n      mstore\n      shl(0x70, 0x746f416464726573735f6f766572666c6f77)\n      0x44\n      dup3\n      add\n      mstore\n      swap1\n      mload\n      swap1\n      dup2\n      swap1\n      sub\n      0x64\n      add\n      swap1\n      revert\n    tag_157:\n        /* \"contracts/libraries/BytesLib.sol\":3676:3682  _start */\n      dup2\n        /* \"contracts/libraries/BytesLib.sol\":3685:3687  20 */\n      0x14\n        /* \"contracts/libraries/BytesLib.sol\":3676:3687  _start + 20 */\n      add\n        /* \"contracts/libraries/BytesLib.sol\":3659:3665  _bytes */\n      dup4\n        /* \"contracts/libraries/BytesLib.sol\":3659:3672  _bytes.length */\n      mload\n        /* \"contracts/libraries/BytesLib.sol\":3659:3687  _bytes.length >= _start + 20 */\n      lt\n      iszero\n        /* \"contracts/libraries/BytesLib.sol\":3651:3713  require(_bytes.length >= _start + 20, 'toAddress_outOfBounds') */\n      tag_158\n      jumpi\n      0x40\n      dup1\n      mload\n      shl(0xe5, 0x461bcd)\n      dup2\n      mstore\n      0x20\n      0x04\n      dup3\n      add\n      mstore\n      0x15\n      0x24\n      dup3\n      add\n      mstore\n      shl(0x58, 0x746f416464726573735f6f75744f66426f756e6473)\n      0x44\n      dup3\n      add\n      mstore\n      swap1\n      mload\n      swap1\n      dup2\n      swap1\n      sub\n      0x64\n      add\n      swap1\n      revert\n    tag_158:\n      pop\n        /* \"contracts/libraries/BytesLib.sol\":3805:3835  add(add(_bytes, 0x20), _start) */\n      add\n        /* \"contracts/libraries/BytesLib.sol\":3821:3825  0x20 */\n      0x20\n        /* \"contracts/libraries/BytesLib.sol\":3805:3835  add(add(_bytes, 0x20), _start) */\n      add\n        /* \"contracts/libraries/BytesLib.sol\":3799:3836  mload(add(add(_bytes, 0x20), _start)) */\n      mload\n      shl(0x60, 0x01)\n        /* \"contracts/libraries/BytesLib.sol\":3795:3866  div(mload(add(add(_bytes, 0x20), _start)), 0x1000000000000000000000000) */\n      swap1\n      div\n      swap1\n        /* \"contracts/libraries/BytesLib.sol\":3489:3915  function toAddress(bytes memory _bytes, uint256 _start) internal pure returns (address) {\r... */\n      jump\t// out\n        /* \"contracts/libraries/BytesLib.sol\":3923:4298  function toUint24(bytes memory _bytes, uint256 _start) internal pure returns (uint24) {\r... */\n    tag_124:\n        /* \"contracts/libraries/BytesLib.sol\":4001:4007  uint24 */\n      0x00\n        /* \"contracts/libraries/BytesLib.sol\":4042:4048  _start */\n      dup2\n        /* \"contracts/libraries/BytesLib.sol\":4028:4034  _start */\n      dup3\n        /* \"contracts/libraries/BytesLib.sol\":4037:4038  3 */\n      0x03\n        /* \"contracts/libraries/BytesLib.sol\":4028:4038  _start + 3 */\n      add\n        /* \"contracts/libraries/BytesLib.sol\":4028:4048  _start + 3 >= _start */\n      lt\n      iszero\n        /* \"contracts/libraries/BytesLib.sol\":4020:4070  require(_start + 3 >= _start, 'toUint24_overflow') */\n      tag_160\n      jumpi\n      0x40\n      dup1\n      mload\n      shl(0xe5, 0x461bcd)\n      dup2\n      mstore\n      0x20\n      0x04\n      dup3\n      add\n      mstore\n      0x11\n      0x24\n      dup3\n      add\n      mstore\n      shl(0x78, 0x746f55696e7432345f6f766572666c6f77)\n      0x44\n      dup3\n      add\n      mstore\n      swap1\n      mload\n      swap1\n      dup2\n      swap1\n      sub\n      0x64\n      add\n      swap1\n      revert\n    tag_160:\n        /* \"contracts/libraries/BytesLib.sol\":4106:4112  _start */\n      dup2\n        /* \"contracts/libraries/BytesLib.sol\":4115:4116  3 */\n      0x03\n        /* \"contracts/libraries/BytesLib.sol\":4106:4116  _start + 3 */\n      add\n        /* \"contracts/libraries/BytesLib.sol\":4089:4095  _bytes */\n      dup4\n        /* \"contracts/libraries/BytesLib.sol\":4089:4102  _bytes.length */\n      mload\n        /* \"contracts/libraries/BytesLib.sol\":4089:4116  _bytes.length >= _start + 3 */\n      lt\n      iszero\n        /* \"contracts/libraries/BytesLib.sol\":4081:4141  require(_bytes.length >= _start + 3, 'toUint24_outOfBounds') */\n      tag_161\n      jumpi\n      0x40\n      dup1\n      mload\n      shl(0xe5, 0x461bcd)\n      dup2\n      mstore\n      0x20\n      0x04\n      dup3\n      add\n      mstore\n      0x14\n      0x24\n      dup3\n      add\n      mstore\n      shl(0x60, 0x746f55696e7432345f6f75744f66426f756e6473)\n      0x44\n      dup3\n      add\n      mstore\n      swap1\n      mload\n      swap1\n      dup2\n      swap1\n      sub\n      0x64\n      add\n      swap1\n      revert\n    tag_161:\n      pop\n        /* \"contracts/libraries/BytesLib.sol\":4222:4251  add(add(_bytes, 0x3), _start) */\n      add\n        /* \"contracts/libraries/BytesLib.sol\":4238:4241  0x3 */\n      0x03\n        /* \"contracts/libraries/BytesLib.sol\":4222:4251  add(add(_bytes, 0x3), _start) */\n      add\n        /* \"contracts/libraries/BytesLib.sol\":4216:4252  mload(add(add(_bytes, 0x3), _start)) */\n      mload\n      swap1\n        /* \"contracts/libraries/BytesLib.sol\":3923:4298  function toUint24(bytes memory _bytes, uint256 _start) internal pure returns (uint24) {\r... */\n      jump\t// out\n        /* \"contracts/libraries/BytesLib.sol\":410:3481  function slice(\r... */\n    tag_128:\n        /* \"contracts/libraries/BytesLib.sol\":536:548  bytes memory */\n      0x60\n        /* \"contracts/libraries/BytesLib.sol\":585:592  _length */\n      dup2\n        /* \"contracts/libraries/BytesLib.sol\":569:576  _length */\n      dup3\n        /* \"contracts/libraries/BytesLib.sol\":579:581  31 */\n      0x1f\n        /* \"contracts/libraries/BytesLib.sol\":569:581  _length + 31 */\n      add\n        /* \"contracts/libraries/BytesLib.sol\":569:592  _length + 31 >= _length */\n      lt\n      iszero\n        /* \"contracts/libraries/BytesLib.sol\":561:611  require(_length + 31 >= _length, 'slice_overflow') */\n      tag_163\n      jumpi\n      0x40\n      dup1\n      mload\n      shl(0xe5, 0x461bcd)\n      dup2\n      mstore\n      0x20\n      0x04\n      dup3\n      add\n      mstore\n      0x0e\n      0x24\n      dup3\n      add\n      mstore\n      shl(0x90, 0x736c6963655f6f766572666c6f77)\n      0x44\n      dup3\n      add\n      mstore\n      swap1\n      mload\n      swap1\n      dup2\n      swap1\n      sub\n      0x64\n      add\n      swap1\n      revert\n    tag_163:\n        /* \"contracts/libraries/BytesLib.sol\":650:656  _start */\n      dup3\n        /* \"contracts/libraries/BytesLib.sol\":639:646  _length */\n      dup3\n        /* \"contracts/libraries/BytesLib.sol\":630:636  _start */\n      dup5\n        /* \"contracts/libraries/BytesLib.sol\":630:646  _start + _length */\n      add\n        /* \"contracts/libraries/BytesLib.sol\":630:656  _start + _length >= _start */\n      lt\n      iszero\n        /* \"contracts/libraries/BytesLib.sol\":622:675  require(_start + _length >= _start, 'slice_overflow') */\n      tag_164\n      jumpi\n      0x40\n      dup1\n      mload\n      shl(0xe5, 0x461bcd)\n      dup2\n      mstore\n      0x20\n      0x04\n      dup3\n      add\n      mstore\n      0x0e\n      0x24\n      dup3\n      add\n      mstore\n      shl(0x90, 0x736c6963655f6f766572666c6f77)\n      0x44\n      dup3\n      add\n      mstore\n      swap1\n      mload\n      swap1\n      dup2\n      swap1\n      sub\n      0x64\n      add\n      swap1\n      revert\n    tag_164:\n        /* \"contracts/libraries/BytesLib.sol\":720:727  _length */\n      dup2\n        /* \"contracts/libraries/BytesLib.sol\":711:717  _start */\n      dup4\n        /* \"contracts/libraries/BytesLib.sol\":711:727  _start + _length */\n      add\n        /* \"contracts/libraries/BytesLib.sol\":694:700  _bytes */\n      dup5\n        /* \"contracts/libraries/BytesLib.sol\":694:707  _bytes.length */\n      mload\n        /* \"contracts/libraries/BytesLib.sol\":694:727  _bytes.length >= _start + _length */\n      lt\n      iszero\n        /* \"contracts/libraries/BytesLib.sol\":686:749  require(_bytes.length >= _start + _length, 'slice_outOfBounds') */\n      tag_165\n      jumpi\n      0x40\n      dup1\n      mload\n      shl(0xe5, 0x461bcd)\n      dup2\n      mstore\n      0x20\n      0x04\n      dup3\n      add\n      mstore\n      0x11\n      0x24\n      dup3\n      add\n      mstore\n      shl(0x78, 0x736c6963655f6f75744f66426f756e6473)\n      0x44\n      dup3\n      add\n      mstore\n      swap1\n      mload\n      swap1\n      dup2\n      swap1\n      sub\n      0x64\n      add\n      swap1\n      revert\n    tag_165:\n        /* \"contracts/libraries/BytesLib.sol\":762:784  bytes memory tempBytes */\n      0x60\n        /* \"contracts/libraries/BytesLib.sol\":828:843  iszero(_length) */\n      dup3\n      iszero\n        /* \"contracts/libraries/BytesLib.sol\":861:2998  case 0 {\r... */\n      dup1\n      iszero\n      tag_167\n      jumpi\n        /* \"contracts/libraries/BytesLib.sol\":3154:3158  0x40 */\n      0x40\n        /* \"contracts/libraries/BytesLib.sol\":3148:3159  mload(0x40) */\n      mload\n        /* \"contracts/libraries/BytesLib.sol\":3135:3159  tempBytes := mload(0x40) */\n      swap2\n      pop\n        /* \"contracts/libraries/BytesLib.sol\":3355:3356  0 */\n      0x00\n        /* \"contracts/libraries/BytesLib.sol\":3344:3353  tempBytes */\n      dup3\n        /* \"contracts/libraries/BytesLib.sol\":3337:3357  mstore(tempBytes, 0) */\n      mstore\n        /* \"contracts/libraries/BytesLib.sol\":3409:3413  0x20 */\n      0x20\n        /* \"contracts/libraries/BytesLib.sol\":3398:3407  tempBytes */\n      dup3\n        /* \"contracts/libraries/BytesLib.sol\":3394:3414  add(tempBytes, 0x20) */\n      add\n        /* \"contracts/libraries/BytesLib.sol\":3388:3392  0x40 */\n      0x40\n        /* \"contracts/libraries/BytesLib.sol\":3381:3415  mstore(0x40, add(tempBytes, 0x20)) */\n      mstore\n        /* \"contracts/libraries/BytesLib.sol\":821:3434  switch iszero(_length)\r... */\n      jump(tag_166)\n        /* \"contracts/libraries/BytesLib.sol\":861:2998  case 0 {\r... */\n    tag_167:\n        /* \"contracts/libraries/BytesLib.sol\":1058:1062  0x40 */\n      0x40\n        /* \"contracts/libraries/BytesLib.sol\":1052:1063  mload(0x40) */\n      mload\n        /* \"contracts/libraries/BytesLib.sol\":1039:1063  tempBytes := mload(0x40) */\n      swap2\n      pop\n        /* \"contracts/libraries/BytesLib.sol\":1763:1765  31 */\n      0x1f\n        /* \"contracts/libraries/BytesLib.sol\":1754:1761  _length */\n      dup5\n        /* \"contracts/libraries/BytesLib.sol\":1750:1766  and(_length, 31) */\n      and\n        /* \"contracts/libraries/BytesLib.sol\":2171:2180  lengthmod */\n      dup1\n        /* \"contracts/libraries/BytesLib.sol\":2164:2181  iszero(lengthmod) */\n      iszero\n        /* \"contracts/libraries/BytesLib.sol\":2158:2162  0x20 */\n      0x20\n        /* \"contracts/libraries/BytesLib.sol\":2154:2182  mul(0x20, iszero(lengthmod)) */\n      mul\n        /* \"contracts/libraries/BytesLib.sol\":2142:2151  lengthmod */\n      dup2\n        /* \"contracts/libraries/BytesLib.sol\":2131:2140  tempBytes */\n      dup5\n        /* \"contracts/libraries/BytesLib.sol\":2127:2152  add(tempBytes, lengthmod) */\n      add\n        /* \"contracts/libraries/BytesLib.sol\":2123:2183  add(add(tempBytes, lengthmod), mul(0x20, iszero(lengthmod))) */\n      add\n        /* \"contracts/libraries/BytesLib.sol\":2224:2231  _length */\n      dup6\n        /* \"contracts/libraries/BytesLib.sol\":2220:2222  mc */\n      dup2\n        /* \"contracts/libraries/BytesLib.sol\":2216:2232  add(mc, _length) */\n      add\n        /* \"contracts/libraries/BytesLib.sol\":2497:2503  _start */\n      dup8\n        /* \"contracts/libraries/BytesLib.sol\":2483:2492  lengthmod */\n      dup4\n        /* \"contracts/libraries/BytesLib.sol\":2476:2493  iszero(lengthmod) */\n      iszero\n        /* \"contracts/libraries/BytesLib.sol\":2470:2474  0x20 */\n      0x20\n        /* \"contracts/libraries/BytesLib.sol\":2466:2494  mul(0x20, iszero(lengthmod)) */\n      mul\n        /* \"contracts/libraries/BytesLib.sol\":2454:2463  lengthmod */\n      dup5\n        /* \"contracts/libraries/BytesLib.sol\":2446:2452  _bytes */\n      dup12\n        /* \"contracts/libraries/BytesLib.sol\":2442:2464  add(_bytes, lengthmod) */\n      add\n        /* \"contracts/libraries/BytesLib.sol\":2438:2495  add(add(_bytes, lengthmod), mul(0x20, iszero(lengthmod))) */\n      add\n        /* \"contracts/libraries/BytesLib.sol\":2434:2504  add(add(add(_bytes, lengthmod), mul(0x20, iszero(lengthmod))), _start) */\n      add\n        /* \"contracts/libraries/BytesLib.sol\":2256:2726  for {\r... */\n    tag_168:\n        /* \"contracts/libraries/BytesLib.sol\":2535:2538  end */\n      dup2\n        /* \"contracts/libraries/BytesLib.sol\":2531:2533  mc */\n      dup4\n        /* \"contracts/libraries/BytesLib.sol\":2528:2539  lt(mc, end) */\n      lt\n        /* \"contracts/libraries/BytesLib.sol\":2256:2726  for {\r... */\n      iszero\n      tag_170\n      jumpi\n        /* \"contracts/libraries/BytesLib.sol\":2693:2702  mload(cc) */\n      dup1\n      mload\n        /* \"contracts/libraries/BytesLib.sol\":2682:2703  mstore(mc, mload(cc)) */\n      dup4\n      mstore\n        /* \"contracts/libraries/BytesLib.sol\":2581:2585  0x20 */\n      0x20\n        /* \"contracts/libraries/BytesLib.sol\":2573:2586  add(mc, 0x20) */\n      swap3\n      dup4\n      add\n      swap3\n        /* \"contracts/libraries/BytesLib.sol\":2618:2631  add(cc, 0x20) */\n      add\n        /* \"contracts/libraries/BytesLib.sol\":2256:2726  for {\r... */\n      jump(tag_168)\n    tag_170:\n      pop\n      pop\n        /* \"contracts/libraries/BytesLib.sol\":2750:2776  mstore(tempBytes, _length) */\n      dup6\n      dup5\n      mstore\n        /* \"contracts/libraries/BytesLib.sol\":2974:2976  31 */\n      0x1f\n        /* \"contracts/libraries/BytesLib.sol\":2957:2968  add(mc, 31) */\n      add\n      not(0x1f)\n        /* \"contracts/libraries/BytesLib.sol\":2953:2978  and(add(mc, 31), not(31)) */\n      and\n        /* \"contracts/libraries/BytesLib.sol\":2947:2951  0x40 */\n      0x40\n        /* \"contracts/libraries/BytesLib.sol\":2940:2979  mstore(0x40, and(add(mc, 31), not(31))) */\n      mstore\n      pop\n        /* \"contracts/libraries/BytesLib.sol\":821:3434  switch iszero(_length)\r... */\n    tag_166:\n      pop\n        /* \"contracts/libraries/BytesLib.sol\":3464:3473  tempBytes */\n      swap5\n        /* \"contracts/libraries/BytesLib.sol\":410:3481  function slice(\r... */\n      swap4\n      pop\n      pop\n      pop\n      pop\n      jump\t// out\n        /* \"contracts/libraries/PoolAddress.sol\":803:1084  function getPoolKey(\r... */\n    tag_132:\n        /* \"contracts/libraries/PoolAddress.sol\":924:938  PoolKey memory */\n      tag_171\n      tag_172\n      jump\t// in\n    tag_171:\n        /* \"contracts/libraries/PoolAddress.sol\":964:970  tokenB */\n      dup3\n      sub(shl(0xa0, 0x01), 0x01)\n        /* \"contracts/libraries/PoolAddress.sol\":955:970  tokenA > tokenB */\n      and\n        /* \"contracts/libraries/PoolAddress.sol\":955:961  tokenA */\n      dup5\n      sub(shl(0xa0, 0x01), 0x01)\n        /* \"contracts/libraries/PoolAddress.sol\":955:970  tokenA > tokenB */\n      and\n      gt\n        /* \"contracts/libraries/PoolAddress.sol\":951:1007  if (tokenA > tokenB) (tokenA, tokenB) = (tokenB, tokenA) */\n      iszero\n      tag_174\n      jumpi\n        /* \"contracts/libraries/PoolAddress.sol\":992:998  tokenB */\n      swap2\n      swap3\n        /* \"contracts/libraries/PoolAddress.sol\":1000:1006  tokenA */\n      swap2\n        /* \"contracts/libraries/PoolAddress.sol\":951:1007  if (tokenA > tokenB) (tokenA, tokenB) = (tokenB, tokenA) */\n    tag_174:\n      pop\n        /* \"contracts/libraries/PoolAddress.sol\":1025:1076  PoolKey({token0: tokenA, token1: tokenB, fee: fee}) */\n      0x40\n      dup1\n      mload\n      0x60\n      dup2\n      add\n      dup3\n      mstore\n      sub(shl(0xa0, 0x01), 0x01)\n      swap5\n      dup6\n      and\n      dup2\n      mstore\n      swap3\n      swap1\n      swap4\n      and\n      0x20\n      dup4\n      add\n      mstore\n      0xffffff\n      and\n      swap2\n      dup2\n      add\n      swap2\n      swap1\n      swap2\n      mstore\n      swap1\n        /* \"contracts/libraries/PoolAddress.sol\":803:1084  function getPoolKey(\r... */\n      jump\t// out\n        /* \"contracts/libraries/PoolAddress.sol\":1337:1863  function computeAddress(address factory, PoolKey memory key) internal pure returns (address pool) {\r... */\n    tag_133:\n        /* \"contracts/libraries/PoolAddress.sol\":1421:1433  address pool */\n      0x00\n        /* \"contracts/libraries/PoolAddress.sol\":1467:1470  key */\n      dup2\n        /* \"contracts/libraries/PoolAddress.sol\":1467:1477  key.token1 */\n      0x20\n      add\n      mload\n      sub(shl(0xa0, 0x01), 0x01)\n        /* \"contracts/libraries/PoolAddress.sol\":1454:1477  key.token0 < key.token1 */\n      and\n        /* \"contracts/libraries/PoolAddress.sol\":1454:1457  key */\n      dup3\n        /* \"contracts/libraries/PoolAddress.sol\":1454:1464  key.token0 */\n      0x00\n      add\n      mload\n      sub(shl(0xa0, 0x01), 0x01)\n        /* \"contracts/libraries/PoolAddress.sol\":1454:1477  key.token0 < key.token1 */\n      and\n      lt\n        /* \"contracts/libraries/PoolAddress.sol\":1446:1478  require(key.token0 < key.token1) */\n      tag_176\n      jumpi\n      0x00\n      dup1\n      revert\n    tag_176:\n      pop\n        /* \"contracts/libraries/PoolAddress.sol\":1708:1718  key.token0 */\n      dup1\n      mload\n        /* \"contracts/libraries/PoolAddress.sol\":1720:1730  key.token1 */\n      0x20\n      dup1\n      dup4\n      add\n      mload\n        /* \"contracts/libraries/PoolAddress.sol\":1732:1739  key.fee */\n      0x40\n      swap4\n      dup5\n      add\n      mload\n        /* \"contracts/libraries/PoolAddress.sol\":1697:1740  abi.encode(key.token0, key.token1, key.fee) */\n      dup5\n      mload\n      sub(shl(0xa0, 0x01), 0x01)\n      swap5\n      dup6\n      and\n      dup2\n      dup6\n      add\n      mstore\n      swap4\n      swap1\n      swap2\n      and\n      dup4\n      dup6\n      add\n      mstore\n      0xffffff\n      and\n      0x60\n      dup1\n      dup5\n      add\n      swap2\n      swap1\n      swap2\n      mstore\n      dup4\n      mload\n      dup1\n      dup5\n      sub\n      dup3\n      add\n      dup2\n      mstore\n      0x80\n      dup5\n      add\n      dup6\n      mstore\n        /* \"contracts/libraries/PoolAddress.sol\":1687:1741  keccak256(abi.encode(key.token0, key.token1, key.fee)) */\n      dup1\n      mload\n      swap1\n      dup4\n      add\n      keccak256\n      not(sub(shl(0xf8, 0x01), 0x01))\n        /* \"contracts/libraries/PoolAddress.sol\":1576:1810  abi.encodePacked(\r... */\n      0xa0\n      dup6\n      add\n      mstore\n      swap5\n      swap1\n      shl\n      not(0xffffffffffffffffffffffff)\n      and\n      0xa1\n      dup4\n      add\n      mstore\n      0xb5\n      dup3\n      add\n      swap4\n      swap1\n      swap4\n      mstore\n        /* \"contracts/libraries/PoolAddress.sol\":246:312  0xe34f199b19b2b4f47f68442619d555527d244f78a3297ea89325f843f87b8b54 */\n      0xe34f199b19b2b4f47f68442619d555527d244f78a3297ea89325f843f87b8b54\n        /* \"contracts/libraries/PoolAddress.sol\":1576:1810  abi.encodePacked(\r... */\n      0xd5\n      dup1\n      dup4\n      add\n      swap2\n      swap1\n      swap2\n      mstore\n      dup3\n      mload\n      dup1\n      dup4\n      sub\n      swap1\n      swap2\n      add\n      dup2\n      mstore\n      0xf5\n      swap1\n      swap2\n      add\n      swap1\n      swap2\n      mstore\n        /* \"contracts/libraries/PoolAddress.sol\":1544:1829  keccak256(\r... */\n      dup1\n      mload\n      swap2\n      add\n      keccak256\n      swap1\n        /* \"contracts/libraries/PoolAddress.sol\":1337:1863  function computeAddress(address factory, PoolKey memory key) internal pure returns (address pool) {\r... */\n      jump\t// out\n        /* \"contracts/libraries/CallbackValidation.sol\":1216:1502  function verifyCallback(address factory, PoolAddress.PoolKey memory poolKey)\r... */\n    tag_155:\n        /* \"contracts/libraries/CallbackValidation.sol\":1343:1362  IUniswapV3Pool pool */\n      0x00\n        /* \"contracts/libraries/CallbackValidation.sol\":1402:1446  PoolAddress.computeAddress(factory, poolKey) */\n      tag_178\n        /* \"contracts/libraries/CallbackValidation.sol\":1429:1436  factory */\n      dup4\n        /* \"contracts/libraries/CallbackValidation.sol\":1438:1445  poolKey */\n      dup4\n        /* \"contracts/libraries/CallbackValidation.sol\":1402:1428  PoolAddress.computeAddress */\n      tag_133\n        /* \"contracts/libraries/CallbackValidation.sol\":1402:1446  PoolAddress.computeAddress(factory, poolKey) */\n      jump\t// in\n    tag_178:\n        /* \"contracts/libraries/CallbackValidation.sol\":1380:1447  pool = IUniswapV3Pool(PoolAddress.computeAddress(factory, poolKey)) */\n      swap1\n      pop\n        /* \"contracts/libraries/CallbackValidation.sol\":1466:1476  msg.sender */\n      caller\n      sub(shl(0xa0, 0x01), 0x01)\n        /* \"contracts/libraries/CallbackValidation.sol\":1466:1493  msg.sender == address(pool) */\n      dup3\n      and\n      eq\n        /* \"contracts/libraries/CallbackValidation.sol\":1458:1494  require(msg.sender == address(pool)) */\n      tag_41\n      jumpi\n      0x00\n      dup1\n      revert\n    tag_172:\n      0x40\n      dup1\n      mload\n      0x60\n      dup2\n      add\n      dup3\n      mstore\n      0x00\n      dup1\n      dup3\n      mstore\n      0x20\n      dup3\n      add\n      dup2\n      swap1\n      mstore\n      swap2\n      dup2\n      add\n      swap2\n      swap1\n      swap2\n      mstore\n      swap1\n      jump\t// out\n\n    auxdata: 0xa2646970667358221220934f0cabd75fbc5170927a0fe70889f701a9955ddb6289f60f552f2727c767f764736f6c63430007060033\n}\n",
				"bytecode": {
					"linkReferences": {},
					"object": "60c060405234801561001057600080fd5b506040516110963803806110968339818101604052604081101561003357600080fd5b5080516020909101516001600160601b0319606092831b8116608052911b1660a05260805160601c60a05160601c61100e610088600039806105e052508061060452806108955280610992525061100e6000f3fe608060405234801561001057600080fd5b506004361061007d5760003560e01c8063c45a01551161005b578063c45a0155146101a7578063cdca1753146101af578063f7729d4314610255578063fa461e331461029e5761007d565b80632f80bb1d1461008257806330d07f211461013a5780634aa4a4fc14610183575b600080fd5b6101286004803603604081101561009857600080fd5b810190602081018135600160201b8111156100b257600080fd5b8201836020820111156100c457600080fd5b803590602001918460018302840111600160201b831117156100e557600080fd5b91908080601f0160208091040260200160405190810160405280939291908181526020018383808284376000920191909152509295505091359250610350915050565b60408051918252519081900360200190f35b610128600480360360a081101561015057600080fd5b506001600160a01b038135811691602081013582169162ffffff60408301351691606081013591608090910135166103b5565b61018b6105de565b604080516001600160a01b039092168252519081900360200190f35b61018b610602565b610128600480360360408110156101c557600080fd5b810190602081018135600160201b8111156101df57600080fd5b8201836020820111156101f157600080fd5b803590602001918460018302840111600160201b8311171561021257600080fd5b91908080601f0160208091040260200160405190810160405280939291908181526020018383808284376000920191909152509295505091359250610626915050565b610128600480360360a081101561026b57600080fd5b506001600160a01b038135811691602081013582169162ffffff6040830135169160608101359160809091013516610674565b61034e600480360360608110156102b457600080fd5b813591602081013591810190606081016040820135600160201b8111156102da57600080fd5b8201836020820111156102ec57600080fd5b803590602001918460018302840111600160201b8311171561030d57600080fd5b91908080601f016020809104026020016040519081016040528093929190818152602001838380828437600092019190915250929550610864945050505050565b005b60005b600061035e8461093b565b9050600080600061036e87610943565b9250925092506103828284838960006103b5565b9550831561039a5761039387610974565b96506103a6565b859450505050506103af565b50505050610353565b92915050565b60006001600160a01b03808616878216109083166103d35760008490555b6103de87878761098b565b6001600160a01b031663128acb0830836103f7886109c9565b6000036001600160a01b0388161561040f5787610435565b8561042e5773fffd8963efd1fc6a506488495d951d5263988d25610435565b6401000276a45b8b8b8e60405160200180846001600160a01b031660601b81526014018362ffffff1660e81b8152600301826001600160a01b031660601b815260140193505050506040516020818303038152906040526040518663ffffffff1660e01b815260040180866001600160a01b031681526020018515158152602001848152602001836001600160a01b0316815260200180602001828103825283818151815260200191508051906020019080838360005b838110156104fd5781810151838201526020016104e5565b50505050905090810190601f16801561052a5780820380516001836020036101000a031916815260200191505b5096505050505050506040805180830381600087803b15801561054c57600080fd5b505af192505050801561057857506040513d604081101561056c57600080fd5b50805160209091015160015b6105d1573d8080156105a6576040519150601f19603f3d011682016040523d82523d6000602084013e6105ab565b606091505b506001600160a01b0384166105bf57600080555b6105c8816109df565b925050506105d5565b5050505b95945050505050565b7f000000000000000000000000000000000000000000000000000000000000000081565b7f000000000000000000000000000000000000000000000000000000000000000081565b60005b60006106348461093b565b9050600080600061064487610943565b925092509250610658838383896000610674565b9550831561039a5761066987610974565b965050505050610629565b60006001600160a01b038086169087161061069087878761098b565b6001600160a01b031663128acb0830836106a9886109c9565b6001600160a01b038816156106be57876106e4565b856106dd5773fffd8963efd1fc6a506488495d951d5263988d256106e4565b6401000276a45b8c8b8d60405160200180846001600160a01b031660601b81526014018362ffffff1660e81b8152600301826001600160a01b031660601b815260140193505050506040516020818303038152906040526040518663ffffffff1660e01b815260040180866001600160a01b031681526020018515158152602001848152602001836001600160a01b0316815260200180602001828103825283818151815260200191508051906020019080838360005b838110156107ac578181015183820152602001610794565b50505050905090810190601f1680156107d95780820380516001836020036101000a031916815260200191505b5096505050505050506040805180830381600087803b1580156107fb57600080fd5b505af192505050801561082757506040513d604081101561081b57600080fd5b50805160209091015160015b6105d1573d808015610855576040519150601f19603f3d011682016040523d82523d6000602084013e61085a565b606091505b506105c8816109df565b60008313806108735750600082135b61087c57600080fd5b600080600061088a84610943565b9250925092506108bc7f0000000000000000000000000000000000000000000000000000000000000000848484610b9d565b5060008060008089136108e857856001600160a01b0316856001600160a01b031610888a600003610903565b846001600160a01b0316866001600160a01b03161089896000035b925092509250821561091a57604051818152602081fd5b6000541561093057600054811461093057600080fd5b604051828152602081fd5b516042111590565b600080806109518482610bb3565b925061095e846014610c63565b905061096b846017610bb3565b91509193909250565b80516060906103af90839060179060161901610d0a565b60006109c17f00000000000000000000000000000000000000000000000000000000000000006109bc868686610e5b565b610eb1565b949350505050565b6000600160ff1b82106109db57600080fd5b5090565b60008151602014610b8057604482511015610a34576040805162461bcd60e51b815260206004820152601060248201526f2ab732bc3832b1ba32b21032b93937b960811b604482015290519081900360640190fd5b6004820180519092602401906020811015610a4e57600080fd5b8101908080516040519392919084600160201b821115610a6d57600080fd5b908301906020820185811115610a8257600080fd5b8251600160201b811182820188101715610a9b57600080fd5b82525081516020918201929091019080838360005b83811015610ac8578181015183820152602001610ab0565b50505050905090810190601f168015610af55780820380516001836020036101000a031916815260200191505b5060405250505060405162461bcd60e51b81526004018080602001828103825283818151815260200191508051906020019080838360005b83811015610b45578181015183820152602001610b2d565b50505050905090810190601f168015610b725780820380516001836020036101000a031916815260200191505b509250505060405180910390fd5b818060200190516020811015610b9557600080fd5b505192915050565b60006105d585610bae868686610e5b565b610f95565b600081826014011015610c02576040805162461bcd60e51b8152602060048201526012602482015271746f416464726573735f6f766572666c6f7760701b604482015290519081900360640190fd5b8160140183511015610c53576040805162461bcd60e51b8152602060048201526015602482015274746f416464726573735f6f75744f66426f756e647360581b604482015290519081900360640190fd5b500160200151600160601b900490565b600081826003011015610cb1576040805162461bcd60e51b8152602060048201526011602482015270746f55696e7432345f6f766572666c6f7760781b604482015290519081900360640190fd5b8160030183511015610d01576040805162461bcd60e51b8152602060048201526014602482015273746f55696e7432345f6f75744f66426f756e647360601b604482015290519081900360640190fd5b50016003015190565b60608182601f011015610d55576040805162461bcd60e51b815260206004820152600e60248201526d736c6963655f6f766572666c6f7760901b604482015290519081900360640190fd5b828284011015610d9d576040805162461bcd60e51b815260206004820152600e60248201526d736c6963655f6f766572666c6f7760901b604482015290519081900360640190fd5b81830184511015610de9576040805162461bcd60e51b8152602060048201526011602482015270736c6963655f6f75744f66426f756e647360781b604482015290519081900360640190fd5b606082158015610e085760405191506000825260208201604052610e52565b6040519150601f8416801560200281840101858101878315602002848b0101015b81831015610e41578051835260209283019201610e29565b5050858452601f01601f1916604052505b50949350505050565b610e63610fb8565b826001600160a01b0316846001600160a01b03161115610e81579192915b50604080516060810182526001600160a01b03948516815292909316602083015262ffffff169181019190915290565b600081602001516001600160a01b031682600001516001600160a01b031610610ed957600080fd5b50805160208083015160409384015184516001600160a01b0394851681850152939091168385015262ffffff166060808401919091528351808403820181526080840185528051908301206001600160f81b031960a085015294901b6bffffffffffffffffffffffff191660a183015260b58201939093527fe34f199b19b2b4f47f68442619d555527d244f78a3297ea89325f843f87b8b5460d5808301919091528251808303909101815260f5909101909152805191012090565b6000610fa18383610eb1565b9050336001600160a01b038216146103af57600080fd5b60408051606081018252600080825260208201819052918101919091529056fea2646970667358221220934f0cabd75fbc5170927a0fe70889f701a9955ddb6289f60f552f2727c767f764736f6c63430007060033",
					"opcodes": "PUSH1 0xC0 PUSH1 0x40 MSTORE CALLVALUE DUP1 ISZERO PUSH2 0x10 JUMPI PUSH1 0x0 DUP1 REVERT JUMPDEST POP PUSH1 0x40 MLOAD PUSH2 0x1096 CODESIZE SUB DUP1 PUSH2 0x1096 DUP4 CODECOPY DUP2 DUP2 ADD PUSH1 0x40 MSTORE PUSH1 0x40 DUP2 LT ISZERO PUSH2 0x33 JUMPI PUSH1 0x0 DUP1 REVERT JUMPDEST POP DUP1 MLOAD PUSH1 0x20 SWAP1 SWAP2 ADD MLOAD PUSH1 0x1 PUSH1 0x1 PUSH1 0x60 SHL SUB NOT PUSH1 0x60 SWAP3 DUP4 SHL DUP2 AND PUSH1 0x80 MSTORE SWAP2 SHL AND PUSH1 0xA0 MSTORE PUSH1 0x80 MLOAD PUSH1 0x60 SHR PUSH1 0xA0 MLOAD PUSH1 0x60 SHR PUSH2 0x100E PUSH2 0x88 PUSH1 0x0 CODECOPY DUP1 PUSH2 0x5E0 MSTORE POP DUP1 PUSH2 0x604 MSTORE DUP1 PUSH2 0x895 MSTORE DUP1 PUSH2 0x992 MSTORE POP PUSH2 0x100E PUSH1 0x0 RETURN INVALID PUSH1 0x80 PUSH1 0x40 MSTORE CALLVALUE DUP1 ISZERO PUSH2 0x10 JUMPI PUSH1 0x0 DUP1 REVERT JUMPDEST POP PUSH1 0x4 CALLDATASIZE LT PUSH2 0x7D JUMPI PUSH1 0x0 CALLDATALOAD PUSH1 0xE0 SHR DUP1 PUSH4 0xC45A0155 GT PUSH2 0x5B JUMPI DUP1 PUSH4 0xC45A0155 EQ PUSH2 0x1A7 JUMPI DUP1 PUSH4 0xCDCA1753 EQ PUSH2 0x1AF JUMPI DUP1 PUSH4 0xF7729D43 EQ PUSH2 0x255 JUMPI DUP1 PUSH4 0xFA461E33 EQ PUSH2 0x29E JUMPI PUSH2 0x7D JUMP JUMPDEST DUP1 PUSH4 0x2F80BB1D EQ PUSH2 0x82 JUMPI DUP1 PUSH4 0x30D07F21 EQ PUSH2 0x13A JUMPI DUP1 PUSH4 0x4AA4A4FC EQ PUSH2 0x183 JUMPI JUMPDEST PUSH1 0x0 DUP1 REVERT JUMPDEST PUSH2 0x128 PUSH1 0x4 DUP1 CALLDATASIZE SUB PUSH1 0x40 DUP2 LT ISZERO PUSH2 0x98 JUMPI PUSH1 0x0 DUP1 REVERT JUMPDEST DUP2 ADD SWAP1 PUSH1 0x20 DUP2 ADD DUP2 CALLDATALOAD PUSH1 0x1 PUSH1 0x20 SHL DUP2 GT ISZERO PUSH2 0xB2 JUMPI PUSH1 0x0 DUP1 REVERT JUMPDEST DUP3 ADD DUP4 PUSH1 0x20 DUP3 ADD GT ISZERO PUSH2 0xC4 JUMPI PUSH1 0x0 DUP1 REVERT JUMPDEST DUP1 CALLDATALOAD SWAP1 PUSH1 0x20 ADD SWAP2 DUP5 PUSH1 0x1 DUP4 MUL DUP5 ADD GT PUSH1 0x1 PUSH1 0x20 SHL DUP4 GT OR ISZERO PUSH2 0xE5 JUMPI PUSH1 0x0 DUP1 REVERT JUMPDEST SWAP2 SWAP1 DUP1 DUP1 PUSH1 0x1F ADD PUSH1 0x20 DUP1 SWAP2 DIV MUL PUSH1 0x20 ADD PUSH1 0x40 MLOAD SWAP1 DUP2 ADD PUSH1 0x40 MSTORE DUP1 SWAP4 SWAP3 SWAP2 SWAP1 DUP2 DUP2 MSTORE PUSH1 0x20 ADD DUP4 DUP4 DUP1 DUP3 DUP5 CALLDATACOPY PUSH1 0x0 SWAP3 ADD SWAP2 SWAP1 SWAP2 MSTORE POP SWAP3 SWAP6 POP POP SWAP2 CALLDATALOAD SWAP3 POP PUSH2 0x350 SWAP2 POP POP JUMP JUMPDEST PUSH1 0x40 DUP1 MLOAD SWAP2 DUP3 MSTORE MLOAD SWAP1 DUP2 SWAP1 SUB PUSH1 0x20 ADD SWAP1 RETURN JUMPDEST PUSH2 0x128 PUSH1 0x4 DUP1 CALLDATASIZE SUB PUSH1 0xA0 DUP2 LT ISZERO PUSH2 0x150 JUMPI PUSH1 0x0 DUP1 REVERT JUMPDEST POP PUSH1 0x1 PUSH1 0x1 PUSH1 0xA0 SHL SUB DUP2 CALLDATALOAD DUP2 AND SWAP2 PUSH1 0x20 DUP2 ADD CALLDATALOAD DUP3 AND SWAP2 PUSH3 0xFFFFFF PUSH1 0x40 DUP4 ADD CALLDATALOAD AND SWAP2 PUSH1 0x60 DUP2 ADD CALLDATALOAD SWAP2 PUSH1 0x80 SWAP1 SWAP2 ADD CALLDATALOAD AND PUSH2 0x3B5 JUMP JUMPDEST PUSH2 0x18B PUSH2 0x5DE JUMP JUMPDEST PUSH1 0x40 DUP1 MLOAD PUSH1 0x1 PUSH1 0x1 PUSH1 0xA0 SHL SUB SWAP1 SWAP3 AND DUP3 MSTORE MLOAD SWAP1 DUP2 SWAP1 SUB PUSH1 0x20 ADD SWAP1 RETURN JUMPDEST PUSH2 0x18B PUSH2 0x602 JUMP JUMPDEST PUSH2 0x128 PUSH1 0x4 DUP1 CALLDATASIZE SUB PUSH1 0x40 DUP2 LT ISZERO PUSH2 0x1C5 JUMPI PUSH1 0x0 DUP1 REVERT JUMPDEST DUP2 ADD SWAP1 PUSH1 0x20 DUP2 ADD DUP2 CALLDATALOAD PUSH1 0x1 PUSH1 0x20 SHL DUP2 GT ISZERO PUSH2 0x1DF JUMPI PUSH1 0x0 DUP1 REVERT JUMPDEST DUP3 ADD DUP4 PUSH1 0x20 DUP3 ADD GT ISZERO PUSH2 0x1F1 JUMPI PUSH1 0x0 DUP1 REVERT JUMPDEST DUP1 CALLDATALOAD SWAP1 PUSH1 0x20 ADD SWAP2 DUP5 PUSH1 0x1 DUP4 MUL DUP5 ADD GT PUSH1 0x1 PUSH1 0x20 SHL DUP4 GT OR ISZERO PUSH2 0x212 JUMPI PUSH1 0x0 DUP1 REVERT JUMPDEST SWAP2 SWAP1 DUP1 DUP1 PUSH1 0x1F ADD PUSH1 0x20 DUP1 SWAP2 DIV MUL PUSH1 0x20 ADD PUSH1 0x40 MLOAD SWAP1 DUP2 ADD PUSH1 0x40 MSTORE DUP1 SWAP4 SWAP3 SWAP2 SWAP1 DUP2 DUP2 MSTORE PUSH1 0x20 ADD DUP4 DUP4 DUP1 DUP3 DUP5 CALLDATACOPY PUSH1 0x0 SWAP3 ADD SWAP2 SWAP1 SWAP2 MSTORE POP SWAP3 SWAP6 POP POP SWAP2 CALLDATALOAD SWAP3 POP PUSH2 0x626 SWAP2 POP POP JUMP JUMPDEST PUSH2 0x128 PUSH1 0x4 DUP1 CALLDATASIZE SUB PUSH1 0xA0 DUP2 LT ISZERO PUSH2 0x26B JUMPI PUSH1 0x0 DUP1 REVERT JUMPDEST POP PUSH1 0x1 PUSH1 0x1 PUSH1 0xA0 SHL SUB DUP2 CALLDATALOAD DUP2 AND SWAP2 PUSH1 0x20 DUP2 ADD CALLDATALOAD DUP3 AND SWAP2 PUSH3 0xFFFFFF PUSH1 0x40 DUP4 ADD CALLDATALOAD AND SWAP2 PUSH1 0x60 DUP2 ADD CALLDATALOAD SWAP2 PUSH1 0x80 SWAP1 SWAP2 ADD CALLDATALOAD AND PUSH2 0x674 JUMP JUMPDEST PUSH2 0x34E PUSH1 0x4 DUP1 CALLDATASIZE SUB PUSH1 0x60 DUP2 LT ISZERO PUSH2 0x2B4 JUMPI PUSH1 0x0 DUP1 REVERT JUMPDEST DUP2 CALLDATALOAD SWAP2 PUSH1 0x20 DUP2 ADD CALLDATALOAD SWAP2 DUP2 ADD SWAP1 PUSH1 0x60 DUP2 ADD PUSH1 0x40 DUP3 ADD CALLDATALOAD PUSH1 0x1 PUSH1 0x20 SHL DUP2 GT ISZERO PUSH2 0x2DA JUMPI PUSH1 0x0 DUP1 REVERT JUMPDEST DUP3 ADD DUP4 PUSH1 0x20 DUP3 ADD GT ISZERO PUSH2 0x2EC JUMPI PUSH1 0x0 DUP1 REVERT JUMPDEST DUP1 CALLDATALOAD SWAP1 PUSH1 0x20 ADD SWAP2 DUP5 PUSH1 0x1 DUP4 MUL DUP5 ADD GT PUSH1 0x1 PUSH1 0x20 SHL DUP4 GT OR ISZERO PUSH2 0x30D JUMPI PUSH1 0x0 DUP1 REVERT JUMPDEST SWAP2 SWAP1 DUP1 DUP1 PUSH1 0x1F ADD PUSH1 0x20 DUP1 SWAP2 DIV MUL PUSH1 0x20 ADD PUSH1 0x40 MLOAD SWAP1 DUP2 ADD PUSH1 0x40 MSTORE DUP1 SWAP4 SWAP3 SWAP2 SWAP1 DUP2 DUP2 MSTORE PUSH1 0x20 ADD DUP4 DUP4 DUP1 DUP3 DUP5 CALLDATACOPY PUSH1 0x0 SWAP3 ADD SWAP2 SWAP1 SWAP2 MSTORE POP SWAP3 SWAP6 POP PUSH2 0x864 SWAP5 POP POP POP POP POP JUMP JUMPDEST STOP JUMPDEST PUSH1 0x0 JUMPDEST PUSH1 0x0 PUSH2 0x35E DUP5 PUSH2 0x93B JUMP JUMPDEST SWAP1 POP PUSH1 0x0 DUP1 PUSH1 0x0 PUSH2 0x36E DUP8 PUSH2 0x943 JUMP JUMPDEST SWAP3 POP SWAP3 POP SWAP3 POP PUSH2 0x382 DUP3 DUP5 DUP4 DUP10 PUSH1 0x0 PUSH2 0x3B5 JUMP JUMPDEST SWAP6 POP DUP4 ISZERO PUSH2 0x39A JUMPI PUSH2 0x393 DUP8 PUSH2 0x974 JUMP JUMPDEST SWAP7 POP PUSH2 0x3A6 JUMP JUMPDEST DUP6 SWAP5 POP POP POP POP POP PUSH2 0x3AF JUMP JUMPDEST POP POP POP POP PUSH2 0x353 JUMP JUMPDEST SWAP3 SWAP2 POP POP JUMP JUMPDEST PUSH1 0x0 PUSH1 0x1 PUSH1 0x1 PUSH1 0xA0 SHL SUB DUP1 DUP7 AND DUP8 DUP3 AND LT SWAP1 DUP4 AND PUSH2 0x3D3 JUMPI PUSH1 0x0 DUP5 SWAP1 SSTORE JUMPDEST PUSH2 0x3DE DUP8 DUP8 DUP8 PUSH2 0x98B JUMP JUMPDEST PUSH1 0x1 PUSH1 0x1 PUSH1 0xA0 SHL SUB AND PUSH4 0x128ACB08 ADDRESS DUP4 PUSH2 0x3F7 DUP9 PUSH2 0x9C9 JUMP JUMPDEST PUSH1 0x0 SUB PUSH1 0x1 PUSH1 0x1 PUSH1 0xA0 SHL SUB DUP9 AND ISZERO PUSH2 0x40F JUMPI DUP8 PUSH2 0x435 JUMP JUMPDEST DUP6 PUSH2 0x42E JUMPI PUSH20 0xFFFD8963EFD1FC6A506488495D951D5263988D25 PUSH2 0x435 JUMP JUMPDEST PUSH5 0x1000276A4 JUMPDEST DUP12 DUP12 DUP15 PUSH1 0x40 MLOAD PUSH1 0x20 ADD DUP1 DUP5 PUSH1 0x1 PUSH1 0x1 PUSH1 0xA0 SHL SUB AND PUSH1 0x60 SHL DUP2 MSTORE PUSH1 0x14 ADD DUP4 PUSH3 0xFFFFFF AND PUSH1 0xE8 SHL DUP2 MSTORE PUSH1 0x3 ADD DUP3 PUSH1 0x1 PUSH1 0x1 PUSH1 0xA0 SHL SUB AND PUSH1 0x60 SHL DUP2 MSTORE PUSH1 0x14 ADD SWAP4 POP POP POP POP PUSH1 0x40 MLOAD PUSH1 0x20 DUP2 DUP4 SUB SUB DUP2 MSTORE SWAP1 PUSH1 0x40 MSTORE PUSH1 0x40 MLOAD DUP7 PUSH4 0xFFFFFFFF AND PUSH1 0xE0 SHL DUP2 MSTORE PUSH1 0x4 ADD DUP1 DUP7 PUSH1 0x1 PUSH1 0x1 PUSH1 0xA0 SHL SUB AND DUP2 MSTORE PUSH1 0x20 ADD DUP6 ISZERO ISZERO DUP2 MSTORE PUSH1 0x20 ADD DUP5 DUP2 MSTORE PUSH1 0x20 ADD DUP4 PUSH1 0x1 PUSH1 0x1 PUSH1 0xA0 SHL SUB AND DUP2 MSTORE PUSH1 0x20 ADD DUP1 PUSH1 0x20 ADD DUP3 DUP2 SUB DUP3 MSTORE DUP4 DUP2 DUP2 MLOAD DUP2 MSTORE PUSH1 0x20 ADD SWAP2 POP DUP1 MLOAD SWAP1 PUSH1 0x20 ADD SWAP1 DUP1 DUP4 DUP4 PUSH1 0x0 JUMPDEST DUP4 DUP2 LT ISZERO PUSH2 0x4FD JUMPI DUP2 DUP2 ADD MLOAD DUP4 DUP3 ADD MSTORE PUSH1 0x20 ADD PUSH2 0x4E5 JUMP JUMPDEST POP POP POP POP SWAP1 POP SWAP1 DUP2 ADD SWAP1 PUSH1 0x1F AND DUP1 ISZERO PUSH2 0x52A JUMPI DUP1 DUP3 SUB DUP1 MLOAD PUSH1 0x1 DUP4 PUSH1 0x20 SUB PUSH2 0x100 EXP SUB NOT AND DUP2 MSTORE PUSH1 0x20 ADD SWAP2 POP JUMPDEST POP SWAP7 POP POP POP POP POP POP POP PUSH1 0x40 DUP1 MLOAD DUP1 DUP4 SUB DUP2 PUSH1 0x0 DUP8 DUP1 EXTCODESIZE ISZERO DUP1 ISZERO PUSH2 0x54C JUMPI PUSH1 0x0 DUP1 REVERT JUMPDEST POP GAS CALL SWAP3 POP POP POP DUP1 ISZERO PUSH2 0x578 JUMPI POP PUSH1 0x40 MLOAD RETURNDATASIZE PUSH1 0x40 DUP2 LT ISZERO PUSH2 0x56C JUMPI PUSH1 0x0 DUP1 REVERT JUMPDEST POP DUP1 MLOAD PUSH1 0x20 SWAP1 SWAP2 ADD MLOAD PUSH1 0x1 JUMPDEST PUSH2 0x5D1 JUMPI RETURNDATASIZE DUP1 DUP1 ISZERO PUSH2 0x5A6 JUMPI PUSH1 0x40 MLOAD SWAP2 POP PUSH1 0x1F NOT PUSH1 0x3F RETURNDATASIZE ADD AND DUP3 ADD PUSH1 0x40 MSTORE RETURNDATASIZE DUP3 MSTORE RETURNDATASIZE PUSH1 0x0 PUSH1 0x20 DUP5 ADD RETURNDATACOPY PUSH2 0x5AB JUMP JUMPDEST PUSH1 0x60 SWAP2 POP JUMPDEST POP PUSH1 0x1 PUSH1 0x1 PUSH1 0xA0 SHL SUB DUP5 AND PUSH2 0x5BF JUMPI PUSH1 0x0 DUP1 SSTORE JUMPDEST PUSH2 0x5C8 DUP2 PUSH2 0x9DF JUMP JUMPDEST SWAP3 POP POP POP PUSH2 0x5D5 JUMP JUMPDEST POP POP POP JUMPDEST SWAP6 SWAP5 POP POP POP POP POP JUMP JUMPDEST PUSH32 0x0 DUP2 JUMP JUMPDEST PUSH32 0x0 DUP2 JUMP JUMPDEST PUSH1 0x0 JUMPDEST PUSH1 0x0 PUSH2 0x634 DUP5 PUSH2 0x93B JUMP JUMPDEST SWAP1 POP PUSH1 0x0 DUP1 PUSH1 0x0 PUSH2 0x644 DUP8 PUSH2 0x943 JUMP JUMPDEST SWAP3 POP SWAP3 POP SWAP3 POP PUSH2 0x658 DUP4 DUP4 DUP4 DUP10 PUSH1 0x0 PUSH2 0x674 JUMP JUMPDEST SWAP6 POP DUP4 ISZERO PUSH2 0x39A JUMPI PUSH2 0x669 DUP8 PUSH2 0x974 JUMP JUMPDEST SWAP7 POP POP POP POP POP PUSH2 0x629 JUMP JUMPDEST PUSH1 0x0 PUSH1 0x1 PUSH1 0x1 PUSH1 0xA0 SHL SUB DUP1 DUP7 AND SWAP1 DUP8 AND LT PUSH2 0x690 DUP8 DUP8 DUP8 PUSH2 0x98B JUMP JUMPDEST PUSH1 0x1 PUSH1 0x1 PUSH1 0xA0 SHL SUB AND PUSH4 0x128ACB08 ADDRESS DUP4 PUSH2 0x6A9 DUP9 PUSH2 0x9C9 JUMP JUMPDEST PUSH1 0x1 PUSH1 0x1 PUSH1 0xA0 SHL SUB DUP9 AND ISZERO PUSH2 0x6BE JUMPI DUP8 PUSH2 0x6E4 JUMP JUMPDEST DUP6 PUSH2 0x6DD JUMPI PUSH20 0xFFFD8963EFD1FC6A506488495D951D5263988D25 PUSH2 0x6E4 JUMP JUMPDEST PUSH5 0x1000276A4 JUMPDEST DUP13 DUP12 DUP14 PUSH1 0x40 MLOAD PUSH1 0x20 ADD DUP1 DUP5 PUSH1 0x1 PUSH1 0x1 PUSH1 0xA0 SHL SUB AND PUSH1 0x60 SHL DUP2 MSTORE PUSH1 0x14 ADD DUP4 PUSH3 0xFFFFFF AND PUSH1 0xE8 SHL DUP2 MSTORE PUSH1 0x3 ADD DUP3 PUSH1 0x1 PUSH1 0x1 PUSH1 0xA0 SHL SUB AND PUSH1 0x60 SHL DUP2 MSTORE PUSH1 0x14 ADD SWAP4 POP POP POP POP PUSH1 0x40 MLOAD PUSH1 0x20 DUP2 DUP4 SUB SUB DUP2 MSTORE SWAP1 PUSH1 0x40 MSTORE PUSH1 0x40 MLOAD DUP7 PUSH4 0xFFFFFFFF AND PUSH1 0xE0 SHL DUP2 MSTORE PUSH1 0x4 ADD DUP1 DUP7 PUSH1 0x1 PUSH1 0x1 PUSH1 0xA0 SHL SUB AND DUP2 MSTORE PUSH1 0x20 ADD DUP6 ISZERO ISZERO DUP2 MSTORE PUSH1 0x20 ADD DUP5 DUP2 MSTORE PUSH1 0x20 ADD DUP4 PUSH1 0x1 PUSH1 0x1 PUSH1 0xA0 SHL SUB AND DUP2 MSTORE PUSH1 0x20 ADD DUP1 PUSH1 0x20 ADD DUP3 DUP2 SUB DUP3 MSTORE DUP4 DUP2 DUP2 MLOAD DUP2 MSTORE PUSH1 0x20 ADD SWAP2 POP DUP1 MLOAD SWAP1 PUSH1 0x20 ADD SWAP1 DUP1 DUP4 DUP4 PUSH1 0x0 JUMPDEST DUP4 DUP2 LT ISZERO PUSH2 0x7AC JUMPI DUP2 DUP2 ADD MLOAD DUP4 DUP3 ADD MSTORE PUSH1 0x20 ADD PUSH2 0x794 JUMP JUMPDEST POP POP POP POP SWAP1 POP SWAP1 DUP2 ADD SWAP1 PUSH1 0x1F AND DUP1 ISZERO PUSH2 0x7D9 JUMPI DUP1 DUP3 SUB DUP1 MLOAD PUSH1 0x1 DUP4 PUSH1 0x20 SUB PUSH2 0x100 EXP SUB NOT AND DUP2 MSTORE PUSH1 0x20 ADD SWAP2 POP JUMPDEST POP SWAP7 POP POP POP POP POP POP POP PUSH1 0x40 DUP1 MLOAD DUP1 DUP4 SUB DUP2 PUSH1 0x0 DUP8 DUP1 EXTCODESIZE ISZERO DUP1 ISZERO PUSH2 0x7FB JUMPI PUSH1 0x0 DUP1 REVERT JUMPDEST POP GAS CALL SWAP3 POP POP POP DUP1 ISZERO PUSH2 0x827 JUMPI POP PUSH1 0x40 MLOAD RETURNDATASIZE PUSH1 0x40 DUP2 LT ISZERO PUSH2 0x81B JUMPI PUSH1 0x0 DUP1 REVERT JUMPDEST POP DUP1 MLOAD PUSH1 0x20 SWAP1 SWAP2 ADD MLOAD PUSH1 0x1 JUMPDEST PUSH2 0x5D1 JUMPI RETURNDATASIZE DUP1 DUP1 ISZERO PUSH2 0x855 JUMPI PUSH1 0x40 MLOAD SWAP2 POP PUSH1 0x1F NOT PUSH1 0x3F RETURNDATASIZE ADD AND DUP3 ADD PUSH1 0x40 MSTORE RETURNDATASIZE DUP3 MSTORE RETURNDATASIZE PUSH1 0x0 PUSH1 0x20 DUP5 ADD RETURNDATACOPY PUSH2 0x85A JUMP JUMPDEST PUSH1 0x60 SWAP2 POP JUMPDEST POP PUSH2 0x5C8 DUP2 PUSH2 0x9DF JUMP JUMPDEST PUSH1 0x0 DUP4 SGT DUP1 PUSH2 0x873 JUMPI POP PUSH1 0x0 DUP3 SGT JUMPDEST PUSH2 0x87C JUMPI PUSH1 0x0 DUP1 REVERT JUMPDEST PUSH1 0x0 DUP1 PUSH1 0x0 PUSH2 0x88A DUP5 PUSH2 0x943 JUMP JUMPDEST SWAP3 POP SWAP3 POP SWAP3 POP PUSH2 0x8BC PUSH32 0x0 DUP5 DUP5 DUP5 PUSH2 0xB9D JUMP JUMPDEST POP PUSH1 0x0 DUP1 PUSH1 0x0 DUP1 DUP10 SGT PUSH2 0x8E8 JUMPI DUP6 PUSH1 0x1 PUSH1 0x1 PUSH1 0xA0 SHL SUB AND DUP6 PUSH1 0x1 PUSH1 0x1 PUSH1 0xA0 SHL SUB AND LT DUP9 DUP11 PUSH1 0x0 SUB PUSH2 0x903 JUMP JUMPDEST DUP5 PUSH1 0x1 PUSH1 0x1 PUSH1 0xA0 SHL SUB AND DUP7 PUSH1 0x1 PUSH1 0x1 PUSH1 0xA0 SHL SUB AND LT DUP10 DUP10 PUSH1 0x0 SUB JUMPDEST SWAP3 POP SWAP3 POP SWAP3 POP DUP3 ISZERO PUSH2 0x91A JUMPI PUSH1 0x40 MLOAD DUP2 DUP2 MSTORE PUSH1 0x20 DUP2 REVERT JUMPDEST PUSH1 0x0 SLOAD ISZERO PUSH2 0x930 JUMPI PUSH1 0x0 SLOAD DUP2 EQ PUSH2 0x930 JUMPI PUSH1 0x0 DUP1 REVERT JUMPDEST PUSH1 0x40 MLOAD DUP3 DUP2 MSTORE PUSH1 0x20 DUP2 REVERT JUMPDEST MLOAD PUSH1 0x42 GT ISZERO SWAP1 JUMP JUMPDEST PUSH1 0x0 DUP1 DUP1 PUSH2 0x951 DUP5 DUP3 PUSH2 0xBB3 JUMP JUMPDEST SWAP3 POP PUSH2 0x95E DUP5 PUSH1 0x14 PUSH2 0xC63 JUMP JUMPDEST SWAP1 POP PUSH2 0x96B DUP5 PUSH1 0x17 PUSH2 0xBB3 JUMP JUMPDEST SWAP2 POP SWAP2 SWAP4 SWAP1 SWAP3 POP JUMP JUMPDEST DUP1 MLOAD PUSH1 0x60 SWAP1 PUSH2 0x3AF SWAP1 DUP4 SWAP1 PUSH1 0x17 SWAP1 PUSH1 0x16 NOT ADD PUSH2 0xD0A JUMP JUMPDEST PUSH1 0x0 PUSH2 0x9C1 PUSH32 0x0 PUSH2 0x9BC DUP7 DUP7 DUP7 PUSH2 0xE5B JUMP JUMPDEST PUSH2 0xEB1 JUMP JUMPDEST SWAP5 SWAP4 POP POP POP POP JUMP JUMPDEST PUSH1 0x0 PUSH1 0x1 PUSH1 0xFF SHL DUP3 LT PUSH2 0x9DB JUMPI PUSH1 0x0 DUP1 REVERT JUMPDEST POP SWAP1 JUMP JUMPDEST PUSH1 0x0 DUP2 MLOAD PUSH1 0x20 EQ PUSH2 0xB80 JUMPI PUSH1 0x44 DUP3 MLOAD LT ISZERO PUSH2 0xA34 JUMPI PUSH1 0x40 DUP1 MLOAD PUSH3 0x461BCD PUSH1 0xE5 SHL DUP2 MSTORE PUSH1 0x20 PUSH1 0x4 DUP3 ADD MSTORE PUSH1 0x10 PUSH1 0x24 DUP3 ADD MSTORE PUSH16 0x2AB732BC3832B1BA32B21032B93937B9 PUSH1 0x81 SHL PUSH1 0x44 DUP3 ADD MSTORE SWAP1 MLOAD SWAP1 DUP2 SWAP1 SUB PUSH1 0x64 ADD SWAP1 REVERT JUMPDEST PUSH1 0x4 DUP3 ADD DUP1 MLOAD SWAP1 SWAP3 PUSH1 0x24 ADD SWAP1 PUSH1 0x20 DUP2 LT ISZERO PUSH2 0xA4E JUMPI PUSH1 0x0 DUP1 REVERT JUMPDEST DUP2 ADD SWAP1 DUP1 DUP1 MLOAD PUSH1 0x40 MLOAD SWAP4 SWAP3 SWAP2 SWAP1 DUP5 PUSH1 0x1 PUSH1 0x20 SHL DUP3 GT ISZERO PUSH2 0xA6D JUMPI PUSH1 0x0 DUP1 REVERT JUMPDEST SWAP1 DUP4 ADD SWAP1 PUSH1 0x20 DUP3 ADD DUP6 DUP2 GT ISZERO PUSH2 0xA82 JUMPI PUSH1 0x0 DUP1 REVERT JUMPDEST DUP3 MLOAD PUSH1 0x1 PUSH1 0x20 SHL DUP2 GT DUP3 DUP3 ADD DUP9 LT OR ISZERO PUSH2 0xA9B JUMPI PUSH1 0x0 DUP1 REVERT JUMPDEST DUP3 MSTORE POP DUP2 MLOAD PUSH1 0x20 SWAP2 DUP3 ADD SWAP3 SWAP1 SWAP2 ADD SWAP1 DUP1 DUP4 DUP4 PUSH1 0x0 JUMPDEST DUP4 DUP2 LT ISZERO PUSH2 0xAC8 JUMPI DUP2 DUP2 ADD MLOAD DUP4 DUP3 ADD MSTORE PUSH1 0x20 ADD PUSH2 0xAB0 JUMP JUMPDEST POP POP POP POP SWAP1 POP SWAP1 DUP2 ADD SWAP1 PUSH1 0x1F AND DUP1 ISZERO PUSH2 0xAF5 JUMPI DUP1 DUP3 SUB DUP1 MLOAD PUSH1 0x1 DUP4 PUSH1 0x20 SUB PUSH2 0x100 EXP SUB NOT AND DUP2 MSTORE PUSH1 0x20 ADD SWAP2 POP JUMPDEST POP PUSH1 0x40 MSTORE POP POP POP PUSH1 0x40 MLOAD PUSH3 0x461BCD PUSH1 0xE5 SHL DUP2 MSTORE PUSH1 0x4 ADD DUP1 DUP1 PUSH1 0x20 ADD DUP3 DUP2 SUB DUP3 MSTORE DUP4 DUP2 DUP2 MLOAD DUP2 MSTORE PUSH1 0x20 ADD SWAP2 POP DUP1 MLOAD SWAP1 PUSH1 0x20 ADD SWAP1 DUP1 DUP4 DUP4 PUSH1 0x0 JUMPDEST DUP4 DUP2 LT ISZERO PUSH2 0xB45 JUMPI DUP2 DUP2 ADD MLOAD DUP4 DUP3 ADD MSTORE PUSH1 0x20 ADD PUSH2 0xB2D JUMP JUMPDEST POP POP POP POP SWAP1 POP SWAP1 DUP2 ADD SWAP1 PUSH1 0x1F AND DUP1 ISZERO PUSH2 0xB72 JUMPI DUP1 DUP3 SUB DUP1 MLOAD PUSH1 0x1 DUP4 PUSH1 0x20 SUB PUSH2 0x100 EXP SUB NOT AND DUP2 MSTORE PUSH1 0x20 ADD SWAP2 POP JUMPDEST POP SWAP3 POP POP POP PUSH1 0x40 MLOAD DUP1 SWAP2 SUB SWAP1 REVERT JUMPDEST DUP2 DUP1 PUSH1 0x20 ADD SWAP1 MLOAD PUSH1 0x20 DUP2 LT ISZERO PUSH2 0xB95 JUMPI PUSH1 0x0 DUP1 REVERT JUMPDEST POP MLOAD SWAP3 SWAP2 POP POP JUMP JUMPDEST PUSH1 0x0 PUSH2 0x5D5 DUP6 PUSH2 0xBAE DUP7 DUP7 DUP7 PUSH2 0xE5B JUMP JUMPDEST PUSH2 0xF95 JUMP JUMPDEST PUSH1 0x0 DUP2 DUP3 PUSH1 0x14 ADD LT ISZERO PUSH2 0xC02 JUMPI PUSH1 0x40 DUP1 MLOAD PUSH3 0x461BCD PUSH1 0xE5 SHL DUP2 MSTORE PUSH1 0x20 PUSH1 0x4 DUP3 ADD MSTORE PUSH1 0x12 PUSH1 0x24 DUP3 ADD MSTORE PUSH18 0x746F416464726573735F6F766572666C6F77 PUSH1 0x70 SHL PUSH1 0x44 DUP3 ADD MSTORE SWAP1 MLOAD SWAP1 DUP2 SWAP1 SUB PUSH1 0x64 ADD SWAP1 REVERT JUMPDEST DUP2 PUSH1 0x14 ADD DUP4 MLOAD LT ISZERO PUSH2 0xC53 JUMPI PUSH1 0x40 DUP1 MLOAD PUSH3 0x461BCD PUSH1 0xE5 SHL DUP2 MSTORE PUSH1 0x20 PUSH1 0x4 DUP3 ADD MSTORE PUSH1 0x15 PUSH1 0x24 DUP3 ADD MSTORE PUSH21 0x746F416464726573735F6F75744F66426F756E6473 PUSH1 0x58 SHL PUSH1 0x44 DUP3 ADD MSTORE SWAP1 MLOAD SWAP1 DUP2 SWAP1 SUB PUSH1 0x64 ADD SWAP1 REVERT JUMPDEST POP ADD PUSH1 0x20 ADD MLOAD PUSH1 0x1 PUSH1 0x60 SHL SWAP1 DIV SWAP1 JUMP JUMPDEST PUSH1 0x0 DUP2 DUP3 PUSH1 0x3 ADD LT ISZERO PUSH2 0xCB1 JUMPI PUSH1 0x40 DUP1 MLOAD PUSH3 0x461BCD PUSH1 0xE5 SHL DUP2 MSTORE PUSH1 0x20 PUSH1 0x4 DUP3 ADD MSTORE PUSH1 0x11 PUSH1 0x24 DUP3 ADD MSTORE PUSH17 0x746F55696E7432345F6F766572666C6F77 PUSH1 0x78 SHL PUSH1 0x44 DUP3 ADD MSTORE SWAP1 MLOAD SWAP1 DUP2 SWAP1 SUB PUSH1 0x64 ADD SWAP1 REVERT JUMPDEST DUP2 PUSH1 0x3 ADD DUP4 MLOAD LT ISZERO PUSH2 0xD01 JUMPI PUSH1 0x40 DUP1 MLOAD PUSH3 0x461BCD PUSH1 0xE5 SHL DUP2 MSTORE PUSH1 0x20 PUSH1 0x4 DUP3 ADD MSTORE PUSH1 0x14 PUSH1 0x24 DUP3 ADD MSTORE PUSH20 0x746F55696E7432345F6F75744F66426F756E6473 PUSH1 0x60 SHL PUSH1 0x44 DUP3 ADD MSTORE SWAP1 MLOAD SWAP1 DUP2 SWAP1 SUB PUSH1 0x64 ADD SWAP1 REVERT JUMPDEST POP ADD PUSH1 0x3 ADD MLOAD SWAP1 JUMP JUMPDEST PUSH1 0x60 DUP2 DUP3 PUSH1 0x1F ADD LT ISZERO PUSH2 0xD55 JUMPI PUSH1 0x40 DUP1 MLOAD PUSH3 0x461BCD PUSH1 0xE5 SHL DUP2 MSTORE PUSH1 0x20 PUSH1 0x4 DUP3 ADD MSTORE PUSH1 0xE PUSH1 0x24 DUP3 ADD MSTORE PUSH14 0x736C6963655F6F766572666C6F77 PUSH1 0x90 SHL PUSH1 0x44 DUP3 ADD MSTORE SWAP1 MLOAD SWAP1 DUP2 SWAP1 SUB PUSH1 0x64 ADD SWAP1 REVERT JUMPDEST DUP3 DUP3 DUP5 ADD LT ISZERO PUSH2 0xD9D JUMPI PUSH1 0x40 DUP1 MLOAD PUSH3 0x461BCD PUSH1 0xE5 SHL DUP2 MSTORE PUSH1 0x20 PUSH1 0x4 DUP3 ADD MSTORE PUSH1 0xE PUSH1 0x24 DUP3 ADD MSTORE PUSH14 0x736C6963655F6F766572666C6F77 PUSH1 0x90 SHL PUSH1 0x44 DUP3 ADD MSTORE SWAP1 MLOAD SWAP1 DUP2 SWAP1 SUB PUSH1 0x64 ADD SWAP1 REVERT JUMPDEST DUP2 DUP4 ADD DUP5 MLOAD LT ISZERO PUSH2 0xDE9 JUMPI PUSH1 0x40 DUP1 MLOAD PUSH3 0x461BCD PUSH1 0xE5 SHL DUP2 MSTORE PUSH1 0x20 PUSH1 0x4 DUP3 ADD MSTORE PUSH1 0x11 PUSH1 0x24 DUP3 ADD MSTORE PUSH17 0x736C6963655F6F75744F66426F756E6473 PUSH1 0x78 SHL PUSH1 0x44 DUP3 ADD MSTORE SWAP1 MLOAD SWAP1 DUP2 SWAP1 SUB PUSH1 0x64 ADD SWAP1 REVERT JUMPDEST PUSH1 0x60 DUP3 ISZERO DUP1 ISZERO PUSH2 0xE08 JUMPI PUSH1 0x40 MLOAD SWAP2 POP PUSH1 0x0 DUP3 MSTORE PUSH1 0x20 DUP3 ADD PUSH1 0x40 MSTORE PUSH2 0xE52 JUMP JUMPDEST PUSH1 0x40 MLOAD SWAP2 POP PUSH1 0x1F DUP5 AND DUP1 ISZERO PUSH1 0x20 MUL DUP2 DUP5 ADD ADD DUP6 DUP2 ADD DUP8 DUP4 ISZERO PUSH1 0x20 MUL DUP5 DUP12 ADD ADD ADD JUMPDEST DUP2 DUP4 LT ISZERO PUSH2 0xE41 JUMPI DUP1 MLOAD DUP4 MSTORE PUSH1 0x20 SWAP3 DUP4 ADD SWAP3 ADD PUSH2 0xE29 JUMP JUMPDEST POP POP DUP6 DUP5 MSTORE PUSH1 0x1F ADD PUSH1 0x1F NOT AND PUSH1 0x40 MSTORE POP JUMPDEST POP SWAP5 SWAP4 POP POP POP POP JUMP JUMPDEST PUSH2 0xE63 PUSH2 0xFB8 JUMP JUMPDEST DUP3 PUSH1 0x1 PUSH1 0x1 PUSH1 0xA0 SHL SUB AND DUP5 PUSH1 0x1 PUSH1 0x1 PUSH1 0xA0 SHL SUB AND GT ISZERO PUSH2 0xE81 JUMPI SWAP2 SWAP3 SWAP2 JUMPDEST POP PUSH1 0x40 DUP1 MLOAD PUSH1 0x60 DUP2 ADD DUP3 MSTORE PUSH1 0x1 PUSH1 0x1 PUSH1 0xA0 SHL SUB SWAP5 DUP6 AND DUP2 MSTORE SWAP3 SWAP1 SWAP4 AND PUSH1 0x20 DUP4 ADD MSTORE PUSH3 0xFFFFFF AND SWAP2 DUP2 ADD SWAP2 SWAP1 SWAP2 MSTORE SWAP1 JUMP JUMPDEST PUSH1 0x0 DUP2 PUSH1 0x20 ADD MLOAD PUSH1 0x1 PUSH1 0x1 PUSH1 0xA0 SHL SUB AND DUP3 PUSH1 0x0 ADD MLOAD PUSH1 0x1 PUSH1 0x1 PUSH1 0xA0 SHL SUB AND LT PUSH2 0xED9 JUMPI PUSH1 0x0 DUP1 REVERT JUMPDEST POP DUP1 MLOAD PUSH1 0x20 DUP1 DUP4 ADD MLOAD PUSH1 0x40 SWAP4 DUP5 ADD MLOAD DUP5 MLOAD PUSH1 0x1 PUSH1 0x1 PUSH1 0xA0 SHL SUB SWAP5 DUP6 AND DUP2 DUP6 ADD MSTORE SWAP4 SWAP1 SWAP2 AND DUP4 DUP6 ADD MSTORE PUSH3 0xFFFFFF AND PUSH1 0x60 DUP1 DUP5 ADD SWAP2 SWAP1 SWAP2 MSTORE DUP4 MLOAD DUP1 DUP5 SUB DUP3 ADD DUP2 MSTORE PUSH1 0x80 DUP5 ADD DUP6 MSTORE DUP1 MLOAD SWAP1 DUP4 ADD KECCAK256 PUSH1 0x1 PUSH1 0x1 PUSH1 0xF8 SHL SUB NOT PUSH1 0xA0 DUP6 ADD MSTORE SWAP5 SWAP1 SHL PUSH12 0xFFFFFFFFFFFFFFFFFFFFFFFF NOT AND PUSH1 0xA1 DUP4 ADD MSTORE PUSH1 0xB5 DUP3 ADD SWAP4 SWAP1 SWAP4 MSTORE PUSH32 0xE34F199B19B2B4F47F68442619D555527D244F78A3297EA89325F843F87B8B54 PUSH1 0xD5 DUP1 DUP4 ADD SWAP2 SWAP1 SWAP2 MSTORE DUP3 MLOAD DUP1 DUP4 SUB SWAP1 SWAP2 ADD DUP2 MSTORE PUSH1 0xF5 SWAP1 SWAP2 ADD SWAP1 SWAP2 MSTORE DUP1 MLOAD SWAP2 ADD KECCAK256 SWAP1 JUMP JUMPDEST PUSH1 0x0 PUSH2 0xFA1 DUP4 DUP4 PUSH2 0xEB1 JUMP JUMPDEST SWAP1 POP CALLER PUSH1 0x1 PUSH1 0x1 PUSH1 0xA0 SHL SUB DUP3 AND EQ PUSH2 0x3AF JUMPI PUSH1 0x0 DUP1 REVERT JUMPDEST PUSH1 0x40 DUP1 MLOAD PUSH1 0x60 DUP2 ADD DUP3 MSTORE PUSH1 0x0 DUP1 DUP3 MSTORE PUSH1 0x20 DUP3 ADD DUP2 SWAP1 MSTORE SWAP2 DUP2 ADD SWAP2 SWAP1 SWAP2 MSTORE SWAP1 JUMP INVALID LOG2 PUSH5 0x6970667358 0x22 SLT KECCAK256 SWAP4 0x4F 0xC 0xAB 0xD7 0x5F 0xBC MLOAD PUSH17 0x927A0FE70889F701A9955DDB6289F60F55 0x2F 0x27 0x27 0xC7 PUSH8 0xF764736F6C634300 SMOD MOD STOP CALLER "
				},
				"gasEstimates": {
					"creation": {
						"codeDepositCost": "822000",
						"executionCost": "infinite",
						"totalCost": "infinite"
					},
					"external": {
						"WETH9()": "infinite",
						"factory()": "infinite",
						"quoteExactInput(bytes,uint256)": "infinite",
						"quoteExactInputSingle(address,address,uint24,uint256,uint160)": "infinite",
						"quoteExactOutput(bytes,uint256)": "infinite",
						"quoteExactOutputSingle(address,address,uint24,uint256,uint160)": "infinite",
						"uniswapV3SwapCallback(int256,int256,bytes)": "infinite"
					},
					"internal": {
						"getPool(address,address,uint24)": "infinite",
						"parseRevertReason(bytes memory)": "infinite"
					}
				},
				"methodIdentifiers": {
					"WETH9()": "4aa4a4fc",
					"factory()": "c45a0155",
					"quoteExactInput(bytes,uint256)": "cdca1753",
					"quoteExactInputSingle(address,address,uint24,uint256,uint160)": "f7729d43",
					"quoteExactOutput(bytes,uint256)": "2f80bb1d",
					"quoteExactOutputSingle(address,address,uint24,uint256,uint160)": "30d07f21",
					"uniswapV3SwapCallback(int256,int256,bytes)": "fa461e33"
				}
			},
			"storageLayout": {
				"storage": [
					{
						"astId": 1191,
						"contract": "contracts/lens/Quoter.sol:Quoter",
						"label": "amountOutCached",
						"offset": 0,
						"slot": "0",
						"type": "t_uint256"
					}
				],
				"types": {
					"t_uint256": {
						"encoding": "inplace",
						"label": "uint256",
						"numberOfBytes": "32"
					}
				}
			},
			"userdoc": {
				"kind": "user",
				"methods": {
					"quoteExactInput(bytes,uint256)": {
						"notice": "Returns the amount out received for a given exact input swap without executing the swap"
					},
					"quoteExactInputSingle(address,address,uint24,uint256,uint160)": {
						"notice": "Returns the amount out received for a given exact input but for a swap of a single pool"
					},
					"quoteExactOutput(bytes,uint256)": {
						"notice": "Returns the amount in required for a given exact output swap without executing the swap"
					},
					"quoteExactOutputSingle(address,address,uint24,uint256,uint160)": {
						"notice": "Returns the amount in required to receive the given exact output amount but for a swap of a single pool"
					},
					"uniswapV3SwapCallback(int256,int256,bytes)": {
						"notice": "Called to `msg.sender` after executing a swap via IUniswapV3Pool#swap."
					}
				},
				"notice": "Allows getting the expected amount out or amount in for a given swap without executing the swap",
				"version": 1
			}
		}
	}
}