{
	"contracts/lens/TickLens.sol": {
		"TickLens": {
			"abi": [
				{
					"inputs": [
						{
							"internalType": "address",
							"name": "pool",
							"type": "address"
						},
						{
							"internalType": "int16",
							"name": "tickBitmapIndex",
							"type": "int16"
						}
					],
					"name": "getPopulatedTicksInWord",
					"outputs": [
						{
							"components": [
								{
									"internalType": "int24",
									"name": "tick",
									"type": "int24"
								},
								{
									"internalType": "int128",
									"name": "liquidityNet",
									"type": "int128"
								},
								{
									"internalType": "uint128",
									"name": "liquidityGross",
									"type": "uint128"
								}
							],
							"internalType": "struct ITickLens.PopulatedTick[]",
							"name": "populatedTicks",
							"type": "tuple[]"
						}
					],
					"stateMutability": "view",
					"type": "function"
				}
			],
			"devdoc": {
				"kind": "dev",
				"methods": {
					"getPopulatedTicksInWord(address,int16)": {
						"params": {
							"pool": "The address of the pool for which to fetch populated tick data",
							"tickBitmapIndex": "The index of the word in the tick bitmap for which to parse the bitmap and fetch all the populated ticks"
						},
						"returns": {
							"populatedTicks": "An array of tick data for the given word in the tick bitmap"
						}
					}
				},
				"title": "Tick Lens contract",
				"version": 1
			},
			"evm": {
				"assembly": "    /* \"contracts/lens/TickLens.sol\":237:1561  contract TickLens is ITickLens {\r... */\n  mstore(0x40, 0x80)\n  callvalue\n  dup1\n  iszero\n  tag_1\n  jumpi\n  0x00\n  dup1\n  revert\ntag_1:\n  pop\n  dataSize(sub_0)\n  dup1\n  dataOffset(sub_0)\n  0x00\n  codecopy\n  0x00\n  return\nstop\n\nsub_0: assembly {\n        /* \"contracts/lens/TickLens.sol\":237:1561  contract TickLens is ITickLens {\r... */\n      mstore(0x40, 0x80)\n      callvalue\n      dup1\n      iszero\n      tag_1\n      jumpi\n      0x00\n      dup1\n      revert\n    tag_1:\n      pop\n      jumpi(tag_2, lt(calldatasize, 0x04))\n      shr(0xe0, calldataload(0x00))\n      dup1\n      0x351fb478\n      eq\n      tag_3\n      jumpi\n    tag_2:\n      0x00\n      dup1\n      revert\n        /* \"contracts/lens/TickLens.sol\":306:1558  function getPopulatedTicksInWord(address pool, int16 tickBitmapIndex)\r... */\n    tag_3:\n      tag_4\n      tag_5\n      calldatasize\n      0x04\n      tag_6\n      jump\t// in\n    tag_5:\n      tag_7\n      jump\t// in\n    tag_4:\n      mload(0x40)\n      tag_8\n      swap2\n      swap1\n      tag_9\n      jump\t// in\n    tag_8:\n      mload(0x40)\n      dup1\n      swap2\n      sub\n      swap1\n      return\n    tag_7:\n        /* \"contracts/lens/TickLens.sol\":442:479  PopulatedTick[] memory populatedTicks */\n      0x60\n        /* \"contracts/lens/TickLens.sol\":522:536  uint256 bitmap */\n      0x00\n        /* \"contracts/lens/TickLens.sol\":554:558  pool */\n      dup4\n      sub(shl(0xa0, 0x01), 0x01)\n        /* \"contracts/lens/TickLens.sol\":539:570  IUniswapV3Pool(pool).tickBitmap */\n      and\n      0x5339c296\n        /* \"contracts/lens/TickLens.sol\":571:586  tickBitmapIndex */\n      dup5\n        /* \"contracts/lens/TickLens.sol\":539:587  IUniswapV3Pool(pool).tickBitmap(tickBitmapIndex) */\n      mload(0x40)\n      dup3\n      0xffffffff\n      and\n      0xe0\n      shl\n      dup2\n      mstore\n      0x04\n      add\n      tag_11\n      swap2\n      swap1\n      tag_12\n      jump\t// in\n    tag_11:\n      0x20\n      mload(0x40)\n      dup1\n      dup4\n      sub\n      dup2\n      dup7\n      dup1\n      extcodesize\n      iszero\n      dup1\n      iszero\n      tag_13\n      jumpi\n      0x00\n      dup1\n      revert\n    tag_13:\n      pop\n      gas\n      staticcall\n      iszero\n      dup1\n      iszero\n      tag_15\n      jumpi\n      returndatasize\n      0x00\n      dup1\n      returndatacopy\n      revert(0x00, returndatasize)\n    tag_15:\n      pop\n      pop\n      pop\n      pop\n      mload(0x40)\n      returndatasize\n      not(0x1f)\n      0x1f\n      dup3\n      add\n      and\n      dup3\n      add\n      dup1\n      0x40\n      mstore\n      pop\n      dup2\n      add\n      swap1\n      tag_16\n      swap2\n      swap1\n      tag_17\n      jump\t// in\n    tag_16:\n        /* \"contracts/lens/TickLens.sol\":522:587  uint256 bitmap = IUniswapV3Pool(pool).tickBitmap(tickBitmapIndex) */\n      swap1\n      pop\n        /* \"contracts/lens/TickLens.sol\":652:682  uint256 numberOfPopulatedTicks */\n      0x00\n      dup1\n        /* \"contracts/lens/TickLens.sol\":693:805  for (uint256 i = 0; i < 256; i++) {\r... */\n    tag_18:\n        /* \"contracts/lens/TickLens.sol\":717:720  256 */\n      0x0100\n        /* \"contracts/lens/TickLens.sol\":713:714  i */\n      dup2\n        /* \"contracts/lens/TickLens.sol\":713:720  i < 256 */\n      lt\n        /* \"contracts/lens/TickLens.sol\":693:805  for (uint256 i = 0; i < 256; i++) {\r... */\n      iszero\n      tag_19\n      jumpi\n        /* \"contracts/lens/TickLens.sol\":756:757  1 */\n      0x01\n        /* \"contracts/lens/TickLens.sol\":756:762  1 << i */\n      dup2\n      shl\n        /* \"contracts/lens/TickLens.sol\":746:763  bitmap & (1 << i) */\n      dup4\n      and\n        /* \"contracts/lens/TickLens.sol\":746:767  bitmap & (1 << i) > 0 */\n      iszero\n        /* \"contracts/lens/TickLens.sol\":742:793  if (bitmap & (1 << i) > 0) numberOfPopulatedTicks++ */\n      tag_21\n      jumpi\n        /* \"contracts/lens/TickLens.sol\":769:793  numberOfPopulatedTicks++ */\n      0x01\n      swap1\n      swap2\n      add\n      swap1\n        /* \"contracts/lens/TickLens.sol\":742:793  if (bitmap & (1 << i) > 0) numberOfPopulatedTicks++ */\n    tag_21:\n        /* \"contracts/lens/TickLens.sol\":722:725  i++ */\n      0x01\n      add\n        /* \"contracts/lens/TickLens.sol\":693:805  for (uint256 i = 0; i < 256; i++) {\r... */\n      jump(tag_18)\n    tag_19:\n      pop\n        /* \"contracts/lens/TickLens.sol\":855:872  int24 tickSpacing */\n      0x00\n        /* \"contracts/lens/TickLens.sol\":890:894  pool */\n      dup6\n      sub(shl(0xa0, 0x01), 0x01)\n        /* \"contracts/lens/TickLens.sol\":875:907  IUniswapV3Pool(pool).tickSpacing */\n      and\n      0xd0c93a7c\n        /* \"contracts/lens/TickLens.sol\":875:909  IUniswapV3Pool(pool).tickSpacing() */\n      mload(0x40)\n      dup2\n      0xffffffff\n      and\n      0xe0\n      shl\n      dup2\n      mstore\n      0x04\n      add\n      0x20\n      mload(0x40)\n      dup1\n      dup4\n      sub\n      dup2\n      dup7\n      dup1\n      extcodesize\n      iszero\n      dup1\n      iszero\n      tag_22\n      jumpi\n      0x00\n      dup1\n      revert\n    tag_22:\n      pop\n      gas\n      staticcall\n      iszero\n      dup1\n      iszero\n      tag_24\n      jumpi\n      returndatasize\n      0x00\n      dup1\n      returndatacopy\n      revert(0x00, returndatasize)\n    tag_24:\n      pop\n      pop\n      pop\n      pop\n      mload(0x40)\n      returndatasize\n      not(0x1f)\n      0x1f\n      dup3\n      add\n      and\n      dup3\n      add\n      dup1\n      0x40\n      mstore\n      pop\n      dup2\n      add\n      swap1\n      tag_25\n      swap2\n      swap1\n      tag_26\n      jump\t// in\n    tag_25:\n        /* \"contracts/lens/TickLens.sol\":855:909  int24 tickSpacing = IUniswapV3Pool(pool).tickSpacing() */\n      swap1\n      pop\n        /* \"contracts/lens/TickLens.sol\":957:979  numberOfPopulatedTicks */\n      dup2\n        /* \"contracts/lens/TickLens.sol\":937:980  new PopulatedTick[](numberOfPopulatedTicks) */\n      0xffffffffffffffff\n      dup2\n      gt\n      dup1\n      iszero\n      tag_27\n      jumpi\n      0x00\n      dup1\n      revert\n    tag_27:\n      pop\n      mload(0x40)\n      swap1\n      dup1\n      dup3\n      mstore\n      dup1\n      0x20\n      mul\n      0x20\n      add\n      dup3\n      add\n      0x40\n      mstore\n      dup1\n      iszero\n      tag_28\n      jumpi\n      dup2\n      0x20\n      add\n    tag_29:\n      tag_30\n      tag_31\n      jump\t// in\n    tag_30:\n      dup2\n      mstore\n      0x20\n      add\n      swap1\n      0x01\n      swap1\n      sub\n      swap1\n      dup2\n      tag_29\n      jumpi\n      swap1\n      pop\n    tag_28:\n      pop\n        /* \"contracts/lens/TickLens.sol\":920:980  populatedTicks = new PopulatedTick[](numberOfPopulatedTicks) */\n      swap4\n      pop\n        /* \"contracts/lens/TickLens.sol\":996:1005  uint256 i */\n      0x00\n        /* \"contracts/lens/TickLens.sol\":991:1551  for (uint256 i = 0; i < 256; i++) {\r... */\n    tag_32:\n        /* \"contracts/lens/TickLens.sol\":1015:1018  256 */\n      0x0100\n        /* \"contracts/lens/TickLens.sol\":1011:1012  i */\n      dup2\n        /* \"contracts/lens/TickLens.sol\":1011:1018  i < 256 */\n      lt\n        /* \"contracts/lens/TickLens.sol\":991:1551  for (uint256 i = 0; i < 256; i++) {\r... */\n      iszero\n      tag_33\n      jumpi\n        /* \"contracts/lens/TickLens.sol\":1054:1055  1 */\n      0x01\n        /* \"contracts/lens/TickLens.sol\":1054:1060  1 << i */\n      dup2\n      shl\n        /* \"contracts/lens/TickLens.sol\":1044:1061  bitmap & (1 << i) */\n      dup5\n      and\n        /* \"contracts/lens/TickLens.sol\":1044:1065  bitmap & (1 << i) > 0 */\n      iszero\n        /* \"contracts/lens/TickLens.sol\":1040:1540  if (bitmap & (1 << i) > 0) {\r... */\n      tag_35\n      jumpi\n        /* \"contracts/lens/TickLens.sol\":1243:1284  IUniswapV3Pool(pool).ticks(populatedTick) */\n      mload(0x40)\n      shl(0xe0, 0xf30dba93)\n      dup2\n      mstore\n        /* \"contracts/lens/TickLens.sol\":1110:1132  int24(tickBitmapIndex) */\n      0x01\n      dup8\n      swap1\n      signextend\n        /* \"contracts/lens/TickLens.sol\":1110:1137  int24(tickBitmapIndex) << 8 */\n      0x02\n      signextend\n        /* \"contracts/lens/TickLens.sol\":1136:1137  8 */\n      0x08\n        /* \"contracts/lens/TickLens.sol\":1110:1137  int24(tickBitmapIndex) << 8 */\n      shl\n        /* \"contracts/lens/TickLens.sol\":1109:1149  (int24(tickBitmapIndex) << 8) + int24(i) */\n      dup3\n      add\n        /* \"contracts/lens/TickLens.sol\":1108:1164  ((int24(tickBitmapIndex) << 8) + int24(i)) * tickSpacing */\n      dup4\n      mul\n      swap1\n        /* \"contracts/lens/TickLens.sol\":1086:1105  int24 populatedTick */\n      0x00\n      swap1\n      dup2\n      swap1\n      sub(shl(0xa0, 0x01), 0x01)\n        /* \"contracts/lens/TickLens.sol\":1243:1269  IUniswapV3Pool(pool).ticks */\n      dup12\n      and\n      swap1\n      0xf30dba93\n      swap1\n        /* \"contracts/lens/TickLens.sol\":1243:1284  IUniswapV3Pool(pool).ticks(populatedTick) */\n      tag_36\n      swap1\n        /* \"contracts/lens/TickLens.sol\":1108:1164  ((int24(tickBitmapIndex) << 8) + int24(i)) * tickSpacing */\n      dup7\n      swap1\n        /* \"contracts/lens/TickLens.sol\":1243:1284  IUniswapV3Pool(pool).ticks(populatedTick) */\n      0x04\n      add\n      tag_37\n      jump\t// in\n    tag_36:\n      0x0100\n      mload(0x40)\n      dup1\n      dup4\n      sub\n      dup2\n      dup7\n      dup1\n      extcodesize\n      iszero\n      dup1\n      iszero\n      tag_38\n      jumpi\n      0x00\n      dup1\n      revert\n    tag_38:\n      pop\n      gas\n      staticcall\n      iszero\n      dup1\n      iszero\n      tag_40\n      jumpi\n      returndatasize\n      0x00\n      dup1\n      returndatacopy\n      revert(0x00, returndatasize)\n    tag_40:\n      pop\n      pop\n      pop\n      pop\n      mload(0x40)\n      returndatasize\n      not(0x1f)\n      0x1f\n      dup3\n      add\n      and\n      dup3\n      add\n      dup1\n      0x40\n      mstore\n      pop\n      dup2\n      add\n      swap1\n      tag_41\n      swap2\n      swap1\n      tag_42\n      jump\t// in\n    tag_41:\n        /* \"contracts/lens/TickLens.sol\":1183:1284  (uint128 liquidityGross, int128 liquidityNet, , , , , , ) = IUniswapV3Pool(pool).ticks(populatedTick) */\n      pop\n      pop\n      pop\n      pop\n      pop\n      pop\n      swap2\n      pop\n      swap2\n      pop\n        /* \"contracts/lens/TickLens.sol\":1346:1524  PopulatedTick({\r... */\n      mload(0x40)\n      dup1\n      0x60\n      add\n      0x40\n      mstore\n      dup1\n        /* \"contracts/lens/TickLens.sol\":1389:1402  populatedTick */\n      dup5\n        /* \"contracts/lens/TickLens.sol\":1346:1524  PopulatedTick({\r... */\n      0x02\n      signextend\n      dup2\n      mstore\n      0x20\n      add\n        /* \"contracts/lens/TickLens.sol\":1439:1451  liquidityNet */\n      dup3\n        /* \"contracts/lens/TickLens.sol\":1346:1524  PopulatedTick({\r... */\n      0x0f\n      signextend\n      dup2\n      mstore\n      0x20\n      add\n        /* \"contracts/lens/TickLens.sol\":1490:1504  liquidityGross */\n      dup4\n      sub(shl(0x80, 0x01), 0x01)\n        /* \"contracts/lens/TickLens.sol\":1346:1524  PopulatedTick({\r... */\n      and\n      dup2\n      mstore\n      pop\n        /* \"contracts/lens/TickLens.sol\":1303:1317  populatedTicks */\n      dup9\n        /* \"contracts/lens/TickLens.sol\":1318:1342  --numberOfPopulatedTicks */\n      dup8\n      0x01\n      swap1\n      sub\n      swap8\n      pop\n      dup8\n        /* \"contracts/lens/TickLens.sol\":1303:1343  populatedTicks[--numberOfPopulatedTicks] */\n      dup2\n      mload\n      dup2\n      lt\n      tag_43\n      jumpi\n      invalid\n    tag_43:\n      0x20\n      mul\n      0x20\n      add\n      add\n        /* \"contracts/lens/TickLens.sol\":1303:1524  populatedTicks[--numberOfPopulatedTicks] = PopulatedTick({\r... */\n      dup2\n      swap1\n      mstore\n      pop\n        /* \"contracts/lens/TickLens.sol\":1040:1540  if (bitmap & (1 << i) > 0) {\r... */\n      pop\n      pop\n      pop\n    tag_35:\n        /* \"contracts/lens/TickLens.sol\":1020:1023  i++ */\n      0x01\n      add\n        /* \"contracts/lens/TickLens.sol\":991:1551  for (uint256 i = 0; i < 256; i++) {\r... */\n      jump(tag_32)\n    tag_33:\n      pop\n        /* \"contracts/lens/TickLens.sol\":306:1558  function getPopulatedTicksInWord(address pool, int16 tickBitmapIndex)\r... */\n      pop\n      pop\n      pop\n      swap3\n      swap2\n      pop\n      pop\n      jump\t// out\n    tag_31:\n      0x40\n      dup1\n      mload\n      0x60\n      dup2\n      add\n      dup3\n      mstore\n      0x00\n      dup1\n      dup3\n      mstore\n      0x20\n      dup3\n      add\n      dup2\n      swap1\n      mstore\n      swap2\n      dup2\n      add\n      swap2\n      swap1\n      swap2\n      mstore\n      swap1\n      jump\t// out\n        /* \"#utility.yul\":14:180   */\n    tag_45:\n        /* \"#utility.yul\":92:105   */\n      dup1\n      mload\n        /* \"#utility.yul\":141:154   */\n      dup1\n      iszero\n        /* \"#utility.yul\":134:155   */\n      iszero\n        /* \"#utility.yul\":124:156   */\n      dup2\n      eq\n        /* \"#utility.yul\":114:116   */\n      tag_47\n      jumpi\n        /* \"#utility.yul\":170:171   */\n      0x00\n        /* \"#utility.yul\":167:168   */\n      dup1\n        /* \"#utility.yul\":160:172   */\n      revert\n        /* \"#utility.yul\":114:116   */\n    tag_47:\n        /* \"#utility.yul\":73:180   */\n      swap2\n      swap1\n      pop\n      jump\t// out\n        /* \"#utility.yul\":185:327   */\n    tag_48:\n        /* \"#utility.yul\":266:279   */\n      dup1\n      mload\n        /* \"#utility.yul\":288:321   */\n      tag_47\n        /* \"#utility.yul\":266:279   */\n      dup2\n        /* \"#utility.yul\":288:321   */\n      tag_51\n      jump\t// in\n        /* \"#utility.yul\":332:501   */\n    tag_52:\n        /* \"#utility.yul\":412:425   */\n      dup1\n      mload\n        /* \"#utility.yul\":465:475   */\n      0xffffffff\n        /* \"#utility.yul\":454:476   */\n      dup2\n      and\n        /* \"#utility.yul\":444:477   */\n      dup2\n      eq\n        /* \"#utility.yul\":434:436   */\n      tag_47\n      jumpi\n        /* \"#utility.yul\":491:492   */\n      0x00\n        /* \"#utility.yul\":488:489   */\n      dup1\n        /* \"#utility.yul\":481:493   */\n      revert\n        /* \"#utility.yul\":506:944   */\n    tag_6:\n      0x00\n      dup1\n        /* \"#utility.yul\":633:635   */\n      0x40\n        /* \"#utility.yul\":621:630   */\n      dup4\n        /* \"#utility.yul\":612:619   */\n      dup6\n        /* \"#utility.yul\":608:631   */\n      sub\n        /* \"#utility.yul\":604:636   */\n      slt\n        /* \"#utility.yul\":601:603   */\n      iszero\n      tag_56\n      jumpi\n        /* \"#utility.yul\":654:660   */\n      dup2\n        /* \"#utility.yul\":646:652   */\n      dup3\n        /* \"#utility.yul\":639:661   */\n      revert\n        /* \"#utility.yul\":601:603   */\n    tag_56:\n        /* \"#utility.yul\":698:707   */\n      dup3\n        /* \"#utility.yul\":685:708   */\n      calldataload\n        /* \"#utility.yul\":717:750   */\n      tag_57\n        /* \"#utility.yul\":744:749   */\n      dup2\n        /* \"#utility.yul\":717:750   */\n      tag_51\n      jump\t// in\n    tag_57:\n        /* \"#utility.yul\":769:774   */\n      swap2\n      pop\n        /* \"#utility.yul\":826:828   */\n      0x20\n        /* \"#utility.yul\":811:829   */\n      dup4\n      add\n        /* \"#utility.yul\":798:830   */\n      calldataload\n        /* \"#utility.yul\":872:873   */\n      0x01\n        /* \"#utility.yul\":861:883   */\n      dup2\n      swap1\n      signextend\n        /* \"#utility.yul\":849:884   */\n      dup2\n      eq\n        /* \"#utility.yul\":839:841   */\n      tag_58\n      jumpi\n        /* \"#utility.yul\":903:909   */\n      dup2\n        /* \"#utility.yul\":895:901   */\n      dup3\n        /* \"#utility.yul\":888:910   */\n      revert\n        /* \"#utility.yul\":839:841   */\n    tag_58:\n        /* \"#utility.yul\":931:938   */\n      dup1\n        /* \"#utility.yul\":921:938   */\n      swap2\n      pop\n      pop\n        /* \"#utility.yul\":591:944   */\n      swap3\n      pop\n      swap3\n      swap1\n      pop\n      jump\t// out\n        /* \"#utility.yul\":949:1246   */\n    tag_26:\n      0x00\n        /* \"#utility.yul\":1070:1072   */\n      0x20\n        /* \"#utility.yul\":1058:1067   */\n      dup3\n        /* \"#utility.yul\":1049:1056   */\n      dup5\n        /* \"#utility.yul\":1045:1068   */\n      sub\n        /* \"#utility.yul\":1041:1073   */\n      slt\n        /* \"#utility.yul\":1038:1040   */\n      iszero\n      tag_60\n      jumpi\n        /* \"#utility.yul\":1091:1097   */\n      dup1\n        /* \"#utility.yul\":1083:1089   */\n      dup2\n        /* \"#utility.yul\":1076:1098   */\n      revert\n        /* \"#utility.yul\":1038:1040   */\n    tag_60:\n        /* \"#utility.yul\":1128:1137   */\n      dup2\n        /* \"#utility.yul\":1122:1138   */\n      mload\n        /* \"#utility.yul\":1181:1186   */\n      dup1\n        /* \"#utility.yul\":1178:1179   */\n      0x02\n        /* \"#utility.yul\":1167:1187   */\n      signextend\n        /* \"#utility.yul\":1160:1165   */\n      dup2\n        /* \"#utility.yul\":1157:1188   */\n      eq\n        /* \"#utility.yul\":1147:1149   */\n      tag_61\n      jumpi\n        /* \"#utility.yul\":1207:1213   */\n      dup2\n        /* \"#utility.yul\":1199:1205   */\n      dup3\n        /* \"#utility.yul\":1192:1214   */\n      revert\n        /* \"#utility.yul\":1147:1149   */\n    tag_61:\n        /* \"#utility.yul\":1235:1240   */\n      swap4\n        /* \"#utility.yul\":1028:1246   */\n      swap3\n      pop\n      pop\n      pop\n      jump\t// out\n        /* \"#utility.yul\":1251:2302   */\n    tag_42:\n      0x00\n      dup1\n      0x00\n      dup1\n      0x00\n      dup1\n      0x00\n      dup1\n        /* \"#utility.yul\":1486:1489   */\n      0x0100\n        /* \"#utility.yul\":1474:1483   */\n      dup10\n        /* \"#utility.yul\":1465:1472   */\n      dup12\n        /* \"#utility.yul\":1461:1484   */\n      sub\n        /* \"#utility.yul\":1457:1490   */\n      slt\n        /* \"#utility.yul\":1454:1456   */\n      iszero\n      tag_63\n      jumpi\n        /* \"#utility.yul\":1508:1514   */\n      dup4\n        /* \"#utility.yul\":1500:1506   */\n      dup5\n        /* \"#utility.yul\":1493:1515   */\n      revert\n        /* \"#utility.yul\":1454:1456   */\n    tag_63:\n        /* \"#utility.yul\":1545:1554   */\n      dup9\n        /* \"#utility.yul\":1539:1555   */\n      mload\n      sub(shl(0x80, 0x01), 0x01)\n        /* \"#utility.yul\":1588:1593   */\n      dup2\n        /* \"#utility.yul\":1584:1630   */\n      and\n        /* \"#utility.yul\":1577:1582   */\n      dup2\n        /* \"#utility.yul\":1574:1631   */\n      eq\n        /* \"#utility.yul\":1564:1566   */\n      tag_64\n      jumpi\n        /* \"#utility.yul\":1650:1656   */\n      dup5\n        /* \"#utility.yul\":1642:1648   */\n      dup6\n        /* \"#utility.yul\":1635:1657   */\n      revert\n        /* \"#utility.yul\":1564:1566   */\n    tag_64:\n        /* \"#utility.yul\":1678:1683   */\n      dup1\n        /* \"#utility.yul\":1668:1683   */\n      swap9\n      pop\n      pop\n        /* \"#utility.yul\":1728:1730   */\n      0x20\n        /* \"#utility.yul\":1717:1726   */\n      dup10\n        /* \"#utility.yul\":1713:1731   */\n      add\n        /* \"#utility.yul\":1707:1732   */\n      mload\n        /* \"#utility.yul\":1778:1785   */\n      dup1\n        /* \"#utility.yul\":1774:1776   */\n      0x0f\n        /* \"#utility.yul\":1763:1786   */\n      signextend\n        /* \"#utility.yul\":1754:1761   */\n      dup2\n        /* \"#utility.yul\":1751:1787   */\n      eq\n        /* \"#utility.yul\":1741:1743   */\n      tag_65\n      jumpi\n        /* \"#utility.yul\":1806:1812   */\n      dup5\n        /* \"#utility.yul\":1798:1804   */\n      dup6\n        /* \"#utility.yul\":1791:1813   */\n      revert\n        /* \"#utility.yul\":1741:1743   */\n    tag_65:\n        /* \"#utility.yul\":1834:1841   */\n      dup1\n        /* \"#utility.yul\":1824:1841   */\n      swap8\n      pop\n      pop\n        /* \"#utility.yul\":1881:1883   */\n      0x40\n        /* \"#utility.yul\":1870:1879   */\n      dup10\n        /* \"#utility.yul\":1866:1884   */\n      add\n        /* \"#utility.yul\":1860:1885   */\n      mload\n        /* \"#utility.yul\":1850:1885   */\n      swap6\n      pop\n        /* \"#utility.yul\":1925:1927   */\n      0x60\n        /* \"#utility.yul\":1914:1923   */\n      dup10\n        /* \"#utility.yul\":1910:1928   */\n      add\n        /* \"#utility.yul\":1904:1929   */\n      mload\n        /* \"#utility.yul\":1894:1929   */\n      swap5\n      pop\n        /* \"#utility.yul\":1974:1977   */\n      0x80\n        /* \"#utility.yul\":1963:1972   */\n      dup10\n        /* \"#utility.yul\":1959:1978   */\n      add\n        /* \"#utility.yul\":1953:1979   */\n      mload\n        /* \"#utility.yul\":2024:2031   */\n      dup1\n        /* \"#utility.yul\":2021:2022   */\n      0x06\n        /* \"#utility.yul\":2010:2032   */\n      signextend\n        /* \"#utility.yul\":2001:2008   */\n      dup2\n        /* \"#utility.yul\":1998:2033   */\n      eq\n        /* \"#utility.yul\":1988:1990   */\n      tag_66\n      jumpi\n        /* \"#utility.yul\":2052:2058   */\n      dup5\n        /* \"#utility.yul\":2044:2050   */\n      dup6\n        /* \"#utility.yul\":2037:2059   */\n      revert\n        /* \"#utility.yul\":1988:1990   */\n    tag_66:\n        /* \"#utility.yul\":2080:2087   */\n      swap4\n      pop\n        /* \"#utility.yul\":2106:2158   */\n      tag_67\n        /* \"#utility.yul\":2153:2156   */\n      0xa0\n        /* \"#utility.yul\":2138:2157   */\n      dup11\n      add\n        /* \"#utility.yul\":2106:2158   */\n      tag_48\n      jump\t// in\n    tag_67:\n        /* \"#utility.yul\":2096:2158   */\n      swap3\n      pop\n        /* \"#utility.yul\":2177:2228   */\n      tag_68\n        /* \"#utility.yul\":2223:2226   */\n      0xc0\n        /* \"#utility.yul\":2212:2221   */\n      dup11\n        /* \"#utility.yul\":2208:2227   */\n      add\n        /* \"#utility.yul\":2177:2228   */\n      tag_52\n      jump\t// in\n    tag_68:\n        /* \"#utility.yul\":2167:2228   */\n      swap2\n      pop\n        /* \"#utility.yul\":2247:2296   */\n      tag_69\n        /* \"#utility.yul\":2291:2294   */\n      0xe0\n        /* \"#utility.yul\":2280:2289   */\n      dup11\n        /* \"#utility.yul\":2276:2295   */\n      add\n        /* \"#utility.yul\":2247:2296   */\n      tag_45\n      jump\t// in\n    tag_69:\n        /* \"#utility.yul\":2237:2296   */\n      swap1\n      pop\n        /* \"#utility.yul\":1444:2302   */\n      swap3\n      swap6\n      swap9\n      pop\n      swap3\n      swap6\n      swap9\n      swap1\n      swap4\n      swap7\n      pop\n      jump\t// out\n        /* \"#utility.yul\":2307:2501   */\n    tag_17:\n      0x00\n        /* \"#utility.yul\":2430:2432   */\n      0x20\n        /* \"#utility.yul\":2418:2427   */\n      dup3\n        /* \"#utility.yul\":2409:2416   */\n      dup5\n        /* \"#utility.yul\":2405:2428   */\n      sub\n        /* \"#utility.yul\":2401:2433   */\n      slt\n        /* \"#utility.yul\":2398:2400   */\n      iszero\n      tag_71\n      jumpi\n        /* \"#utility.yul\":2451:2457   */\n      dup1\n        /* \"#utility.yul\":2443:2449   */\n      dup2\n        /* \"#utility.yul\":2436:2458   */\n      revert\n        /* \"#utility.yul\":2398:2400   */\n    tag_71:\n      pop\n        /* \"#utility.yul\":2479:2495   */\n      mload\n      swap2\n        /* \"#utility.yul\":2388:2501   */\n      swap1\n      pop\n      jump\t// out\n        /* \"#utility.yul\":2506:3434   */\n    tag_9:\n        /* \"#utility.yul\":2737:2739   */\n      0x20\n        /* \"#utility.yul\":2789:2810   */\n      dup1\n      dup3\n      mstore\n        /* \"#utility.yul\":2859:2872   */\n      dup3\n      mload\n        /* \"#utility.yul\":2762:2780   */\n      dup3\n      dup3\n      add\n        /* \"#utility.yul\":2881:2903   */\n      dup2\n      swap1\n      mstore\n        /* \"#utility.yul\":2506:3434   */\n      0x00\n      swap2\n        /* \"#utility.yul\":2737:2739   */\n      swap1\n        /* \"#utility.yul\":2922:2924   */\n      0x40\n      swap1\n        /* \"#utility.yul\":2940:2958   */\n      dup2\n      dup6\n      add\n      swap1\n        /* \"#utility.yul\":2981:2996   */\n      dup7\n      dup5\n      add\n        /* \"#utility.yul\":2506:3434   */\n      dup6\n        /* \"#utility.yul\":3027:3408   */\n    tag_73:\n        /* \"#utility.yul\":3041:3047   */\n      dup3\n        /* \"#utility.yul\":3038:3039   */\n      dup2\n        /* \"#utility.yul\":3035:3048   */\n      lt\n        /* \"#utility.yul\":3027:3408   */\n      iszero\n      tag_75\n      jumpi\n        /* \"#utility.yul\":3100:3113   */\n      dup2\n      mload\n        /* \"#utility.yul\":3152:3161   */\n      dup1\n      mload\n        /* \"#utility.yul\":3149:3150   */\n      0x02\n        /* \"#utility.yul\":3138:3162   */\n      signextend\n        /* \"#utility.yul\":3126:3163   */\n      dup6\n      mstore\n        /* \"#utility.yul\":3218:3229   */\n      dup7\n      dup2\n      add\n        /* \"#utility.yul\":3212:3230   */\n      mload\n        /* \"#utility.yul\":3208:3210   */\n      0x0f\n        /* \"#utility.yul\":3197:3231   */\n      signextend\n        /* \"#utility.yul\":3183:3195   */\n      dup8\n      dup7\n      add\n        /* \"#utility.yul\":3176:3232   */\n      mstore\n        /* \"#utility.yul\":3276:3287   */\n      dup6\n      add\n        /* \"#utility.yul\":3270:3288   */\n      mload\n      sub(shl(0x80, 0x01), 0x01)\n        /* \"#utility.yul\":3266:3325   */\n      and\n        /* \"#utility.yul\":3252:3264   */\n      dup6\n      dup6\n      add\n        /* \"#utility.yul\":3245:3326   */\n      mstore\n        /* \"#utility.yul\":3355:3359   */\n      0x60\n        /* \"#utility.yul\":3346:3360   */\n      swap1\n      swap4\n      add\n      swap3\n        /* \"#utility.yul\":3383:3398   */\n      swap1\n      dup6\n      add\n      swap1\n        /* \"#utility.yul\":3063:3064   */\n      0x01\n        /* \"#utility.yul\":3056:3065   */\n      add\n        /* \"#utility.yul\":3027:3408   */\n      jump(tag_73)\n    tag_75:\n      pop\n        /* \"#utility.yul\":3425:3428   */\n      swap2\n      swap8\n        /* \"#utility.yul\":2717:3434   */\n      swap7\n      pop\n      pop\n      pop\n      pop\n      pop\n      pop\n      pop\n      jump\t// out\n        /* \"#utility.yul\":3439:3627   */\n    tag_12:\n        /* \"#utility.yul\":3610:3611   */\n      0x01\n        /* \"#utility.yul\":3599:3620   */\n      swap2\n      swap1\n      swap2\n      signextend\n        /* \"#utility.yul\":3581:3621   */\n      dup2\n      mstore\n        /* \"#utility.yul\":3569:3571   */\n      0x20\n        /* \"#utility.yul\":3554:3572   */\n      add\n      swap1\n        /* \"#utility.yul\":3536:3627   */\n      jump\t// out\n        /* \"#utility.yul\":3632:3820   */\n    tag_37:\n        /* \"#utility.yul\":3803:3804   */\n      0x02\n        /* \"#utility.yul\":3792:3813   */\n      swap2\n      swap1\n      swap2\n      signextend\n        /* \"#utility.yul\":3774:3814   */\n      dup2\n      mstore\n        /* \"#utility.yul\":3762:3764   */\n      0x20\n        /* \"#utility.yul\":3747:3765   */\n      add\n      swap1\n        /* \"#utility.yul\":3729:3820   */\n      jump\t// out\n        /* \"#utility.yul\":3825:3958   */\n    tag_51:\n      sub(shl(0xa0, 0x01), 0x01)\n        /* \"#utility.yul\":3902:3933   */\n      dup2\n      and\n        /* \"#utility.yul\":3892:3934   */\n      dup2\n      eq\n        /* \"#utility.yul\":3882:3884   */\n      tag_79\n      jumpi\n        /* \"#utility.yul\":3948:3949   */\n      0x00\n        /* \"#utility.yul\":3945:3946   */\n      dup1\n        /* \"#utility.yul\":3938:3950   */\n      revert\n        /* \"#utility.yul\":3882:3884   */\n    tag_79:\n        /* \"#utility.yul\":3872:3958   */\n      pop\n      jump\t// out\n\n    auxdata: 0xa2646970667358221220d515d1f5da7f695ddabd054527c5c41a620d4740bb8480f8e9053a3ce2a8c4b764736f6c63430007060033\n}\n",
				"bytecode": {
					"linkReferences": {},
					"object": "608060405234801561001057600080fd5b5061052a806100206000396000f3fe608060405234801561001057600080fd5b506004361061002b5760003560e01c8063351fb47814610030575b600080fd5b61004361003e366004610333565b610059565b6040516100509190610458565b60405180910390f35b60606000836001600160a01b0316635339c296846040518263ffffffff1660e01b815260040161008991906104c0565b60206040518083038186803b1580156100a157600080fd5b505afa1580156100b5573d6000803e3d6000fd5b505050506040513d601f19601f820116820180604052508101906100d99190610440565b90506000805b610100811015610103576001811b8316156100fb576001909101905b6001016100df565b506000856001600160a01b031663d0c93a7c6040518163ffffffff1660e01b815260040160206040518083038186803b15801561013f57600080fd5b505afa158015610153573d6000803e3d6000fd5b505050506040513d601f19601f820116820180604052508101906101779190610371565b90508167ffffffffffffffff8111801561019057600080fd5b506040519080825280602002602001820160405280156101ca57816020015b6101b76102df565b8152602001906001900390816101af5790505b50935060005b6101008110156102d5576001811b8416156102cd5760405163f30dba9360e01b8152600187900b60020b60081b820183029060009081906001600160a01b038b169063f30dba93906102269086906004016104ce565b6101006040518083038186803b15801561023f57600080fd5b505afa158015610253573d6000803e3d6000fd5b505050506040513d601f19601f820116820180604052508101906102779190610399565b5050505050509150915060405180606001604052808460020b815260200182600f0b8152602001836001600160801b0316815250888760019003975087815181106102be57fe5b60200260200101819052505050505b6001016101d0565b5050505092915050565b604080516060810182526000808252602082018190529181019190915290565b8051801515811461030f57600080fd5b919050565b805161030f816104dc565b805163ffffffff8116811461030f57600080fd5b60008060408385031215610345578182fd5b8235610350816104dc565b91506020830135600181900b8114610366578182fd5b809150509250929050565b600060208284031215610382578081fd5b81518060020b8114610392578182fd5b9392505050565b600080600080600080600080610100898b0312156103b5578384fd5b88516001600160801b03811681146103cb578485fd5b80985050602089015180600f0b81146103e2578485fd5b80975050604089015195506060890151945060808901518060060b8114610407578485fd5b935061041560a08a01610314565b925061042360c08a0161031f565b915061043160e08a016102ff565b90509295985092959890939650565b600060208284031215610451578081fd5b5051919050565b602080825282518282018190526000919060409081850190868401855b828110156104b3578151805160020b855286810151600f0b878601528501516001600160801b03168585015260609093019290850190600101610475565b5091979650505050505050565b60019190910b815260200190565b60029190910b815260200190565b6001600160a01b03811681146104f157600080fd5b5056fea2646970667358221220d515d1f5da7f695ddabd054527c5c41a620d4740bb8480f8e9053a3ce2a8c4b764736f6c63430007060033",
					"opcodes": "PUSH1 0x80 PUSH1 0x40 MSTORE CALLVALUE DUP1 ISZERO PUSH2 0x10 JUMPI PUSH1 0x0 DUP1 REVERT JUMPDEST POP PUSH2 0x52A DUP1 PUSH2 0x20 PUSH1 0x0 CODECOPY PUSH1 0x0 RETURN INVALID PUSH1 0x80 PUSH1 0x40 MSTORE CALLVALUE DUP1 ISZERO PUSH2 0x10 JUMPI PUSH1 0x0 DUP1 REVERT JUMPDEST POP PUSH1 0x4 CALLDATASIZE LT PUSH2 0x2B JUMPI PUSH1 0x0 CALLDATALOAD PUSH1 0xE0 SHR DUP1 PUSH4 0x351FB478 EQ PUSH2 0x30 JUMPI JUMPDEST PUSH1 0x0 DUP1 REVERT JUMPDEST PUSH2 0x43 PUSH2 0x3E CALLDATASIZE PUSH1 0x4 PUSH2 0x333 JUMP JUMPDEST PUSH2 0x59 JUMP JUMPDEST PUSH1 0x40 MLOAD PUSH2 0x50 SWAP2 SWAP1 PUSH2 0x458 JUMP JUMPDEST PUSH1 0x40 MLOAD DUP1 SWAP2 SUB SWAP1 RETURN JUMPDEST PUSH1 0x60 PUSH1 0x0 DUP4 PUSH1 0x1 PUSH1 0x1 PUSH1 0xA0 SHL SUB AND PUSH4 0x5339C296 DUP5 PUSH1 0x40 MLOAD DUP3 PUSH4 0xFFFFFFFF AND PUSH1 0xE0 SHL DUP2 MSTORE PUSH1 0x4 ADD PUSH2 0x89 SWAP2 SWAP1 PUSH2 0x4C0 JUMP JUMPDEST PUSH1 0x20 PUSH1 0x40 MLOAD DUP1 DUP4 SUB DUP2 DUP7 DUP1 EXTCODESIZE ISZERO DUP1 ISZERO PUSH2 0xA1 JUMPI PUSH1 0x0 DUP1 REVERT JUMPDEST POP GAS STATICCALL ISZERO DUP1 ISZERO PUSH2 0xB5 JUMPI RETURNDATASIZE PUSH1 0x0 DUP1 RETURNDATACOPY RETURNDATASIZE PUSH1 0x0 REVERT JUMPDEST POP POP POP POP PUSH1 0x40 MLOAD RETURNDATASIZE PUSH1 0x1F NOT PUSH1 0x1F DUP3 ADD AND DUP3 ADD DUP1 PUSH1 0x40 MSTORE POP DUP2 ADD SWAP1 PUSH2 0xD9 SWAP2 SWAP1 PUSH2 0x440 JUMP JUMPDEST SWAP1 POP PUSH1 0x0 DUP1 JUMPDEST PUSH2 0x100 DUP2 LT ISZERO PUSH2 0x103 JUMPI PUSH1 0x1 DUP2 SHL DUP4 AND ISZERO PUSH2 0xFB JUMPI PUSH1 0x1 SWAP1 SWAP2 ADD SWAP1 JUMPDEST PUSH1 0x1 ADD PUSH2 0xDF JUMP JUMPDEST POP PUSH1 0x0 DUP6 PUSH1 0x1 PUSH1 0x1 PUSH1 0xA0 SHL SUB AND PUSH4 0xD0C93A7C PUSH1 0x40 MLOAD DUP2 PUSH4 0xFFFFFFFF AND PUSH1 0xE0 SHL DUP2 MSTORE PUSH1 0x4 ADD PUSH1 0x20 PUSH1 0x40 MLOAD DUP1 DUP4 SUB DUP2 DUP7 DUP1 EXTCODESIZE ISZERO DUP1 ISZERO PUSH2 0x13F JUMPI PUSH1 0x0 DUP1 REVERT JUMPDEST POP GAS STATICCALL ISZERO DUP1 ISZERO PUSH2 0x153 JUMPI RETURNDATASIZE PUSH1 0x0 DUP1 RETURNDATACOPY RETURNDATASIZE PUSH1 0x0 REVERT JUMPDEST POP POP POP POP PUSH1 0x40 MLOAD RETURNDATASIZE PUSH1 0x1F NOT PUSH1 0x1F DUP3 ADD AND DUP3 ADD DUP1 PUSH1 0x40 MSTORE POP DUP2 ADD SWAP1 PUSH2 0x177 SWAP2 SWAP1 PUSH2 0x371 JUMP JUMPDEST SWAP1 POP DUP2 PUSH8 0xFFFFFFFFFFFFFFFF DUP2 GT DUP1 ISZERO PUSH2 0x190 JUMPI PUSH1 0x0 DUP1 REVERT JUMPDEST POP PUSH1 0x40 MLOAD SWAP1 DUP1 DUP3 MSTORE DUP1 PUSH1 0x20 MUL PUSH1 0x20 ADD DUP3 ADD PUSH1 0x40 MSTORE DUP1 ISZERO PUSH2 0x1CA JUMPI DUP2 PUSH1 0x20 ADD JUMPDEST PUSH2 0x1B7 PUSH2 0x2DF JUMP JUMPDEST DUP2 MSTORE PUSH1 0x20 ADD SWAP1 PUSH1 0x1 SWAP1 SUB SWAP1 DUP2 PUSH2 0x1AF JUMPI SWAP1 POP JUMPDEST POP SWAP4 POP PUSH1 0x0 JUMPDEST PUSH2 0x100 DUP2 LT ISZERO PUSH2 0x2D5 JUMPI PUSH1 0x1 DUP2 SHL DUP5 AND ISZERO PUSH2 0x2CD JUMPI PUSH1 0x40 MLOAD PUSH4 0xF30DBA93 PUSH1 0xE0 SHL DUP2 MSTORE PUSH1 0x1 DUP8 SWAP1 SIGNEXTEND PUSH1 0x2 SIGNEXTEND PUSH1 0x8 SHL DUP3 ADD DUP4 MUL SWAP1 PUSH1 0x0 SWAP1 DUP2 SWAP1 PUSH1 0x1 PUSH1 0x1 PUSH1 0xA0 SHL SUB DUP12 AND SWAP1 PUSH4 0xF30DBA93 SWAP1 PUSH2 0x226 SWAP1 DUP7 SWAP1 PUSH1 0x4 ADD PUSH2 0x4CE JUMP JUMPDEST PUSH2 0x100 PUSH1 0x40 MLOAD DUP1 DUP4 SUB DUP2 DUP7 DUP1 EXTCODESIZE ISZERO DUP1 ISZERO PUSH2 0x23F JUMPI PUSH1 0x0 DUP1 REVERT JUMPDEST POP GAS STATICCALL ISZERO DUP1 ISZERO PUSH2 0x253 JUMPI RETURNDATASIZE PUSH1 0x0 DUP1 RETURNDATACOPY RETURNDATASIZE PUSH1 0x0 REVERT JUMPDEST POP POP POP POP PUSH1 0x40 MLOAD RETURNDATASIZE PUSH1 0x1F NOT PUSH1 0x1F DUP3 ADD AND DUP3 ADD DUP1 PUSH1 0x40 MSTORE POP DUP2 ADD SWAP1 PUSH2 0x277 SWAP2 SWAP1 PUSH2 0x399 JUMP JUMPDEST POP POP POP POP POP POP SWAP2 POP SWAP2 POP PUSH1 0x40 MLOAD DUP1 PUSH1 0x60 ADD PUSH1 0x40 MSTORE DUP1 DUP5 PUSH1 0x2 SIGNEXTEND DUP2 MSTORE PUSH1 0x20 ADD DUP3 PUSH1 0xF SIGNEXTEND DUP2 MSTORE PUSH1 0x20 ADD DUP4 PUSH1 0x1 PUSH1 0x1 PUSH1 0x80 SHL SUB AND DUP2 MSTORE POP DUP9 DUP8 PUSH1 0x1 SWAP1 SUB SWAP8 POP DUP8 DUP2 MLOAD DUP2 LT PUSH2 0x2BE JUMPI INVALID JUMPDEST PUSH1 0x20 MUL PUSH1 0x20 ADD ADD DUP2 SWAP1 MSTORE POP POP POP POP JUMPDEST PUSH1 0x1 ADD PUSH2 0x1D0 JUMP JUMPDEST POP POP POP POP SWAP3 SWAP2 POP POP JUMP JUMPDEST PUSH1 0x40 DUP1 MLOAD PUSH1 0x60 DUP2 ADD DUP3 MSTORE PUSH1 0x0 DUP1 DUP3 MSTORE PUSH1 0x20 DUP3 ADD DUP2 SWAP1 MSTORE SWAP2 DUP2 ADD SWAP2 SWAP1 SWAP2 MSTORE SWAP1 JUMP JUMPDEST DUP1 MLOAD DUP1 ISZERO ISZERO DUP2 EQ PUSH2 0x30F JUMPI PUSH1 0x0 DUP1 REVERT JUMPDEST SWAP2 SWAP1 POP JUMP JUMPDEST DUP1 MLOAD PUSH2 0x30F DUP2 PUSH2 0x4DC JUMP JUMPDEST DUP1 MLOAD PUSH4 0xFFFFFFFF DUP2 AND DUP2 EQ PUSH2 0x30F JUMPI PUSH1 0x0 DUP1 REVERT JUMPDEST PUSH1 0x0 DUP1 PUSH1 0x40 DUP4 DUP6 SUB SLT ISZERO PUSH2 0x345 JUMPI DUP2 DUP3 REVERT JUMPDEST DUP3 CALLDATALOAD PUSH2 0x350 DUP2 PUSH2 0x4DC JUMP JUMPDEST SWAP2 POP PUSH1 0x20 DUP4 ADD CALLDATALOAD PUSH1 0x1 DUP2 SWAP1 SIGNEXTEND DUP2 EQ PUSH2 0x366 JUMPI DUP2 DUP3 REVERT JUMPDEST DUP1 SWAP2 POP POP SWAP3 POP SWAP3 SWAP1 POP JUMP JUMPDEST PUSH1 0x0 PUSH1 0x20 DUP3 DUP5 SUB SLT ISZERO PUSH2 0x382 JUMPI DUP1 DUP2 REVERT JUMPDEST DUP2 MLOAD DUP1 PUSH1 0x2 SIGNEXTEND DUP2 EQ PUSH2 0x392 JUMPI DUP2 DUP3 REVERT JUMPDEST SWAP4 SWAP3 POP POP POP JUMP JUMPDEST PUSH1 0x0 DUP1 PUSH1 0x0 DUP1 PUSH1 0x0 DUP1 PUSH1 0x0 DUP1 PUSH2 0x100 DUP10 DUP12 SUB SLT ISZERO PUSH2 0x3B5 JUMPI DUP4 DUP5 REVERT JUMPDEST DUP9 MLOAD PUSH1 0x1 PUSH1 0x1 PUSH1 0x80 SHL SUB DUP2 AND DUP2 EQ PUSH2 0x3CB JUMPI DUP5 DUP6 REVERT JUMPDEST DUP1 SWAP9 POP POP PUSH1 0x20 DUP10 ADD MLOAD DUP1 PUSH1 0xF SIGNEXTEND DUP2 EQ PUSH2 0x3E2 JUMPI DUP5 DUP6 REVERT JUMPDEST DUP1 SWAP8 POP POP PUSH1 0x40 DUP10 ADD MLOAD SWAP6 POP PUSH1 0x60 DUP10 ADD MLOAD SWAP5 POP PUSH1 0x80 DUP10 ADD MLOAD DUP1 PUSH1 0x6 SIGNEXTEND DUP2 EQ PUSH2 0x407 JUMPI DUP5 DUP6 REVERT JUMPDEST SWAP4 POP PUSH2 0x415 PUSH1 0xA0 DUP11 ADD PUSH2 0x314 JUMP JUMPDEST SWAP3 POP PUSH2 0x423 PUSH1 0xC0 DUP11 ADD PUSH2 0x31F JUMP JUMPDEST SWAP2 POP PUSH2 0x431 PUSH1 0xE0 DUP11 ADD PUSH2 0x2FF JUMP JUMPDEST SWAP1 POP SWAP3 SWAP6 SWAP9 POP SWAP3 SWAP6 SWAP9 SWAP1 SWAP4 SWAP7 POP JUMP JUMPDEST PUSH1 0x0 PUSH1 0x20 DUP3 DUP5 SUB SLT ISZERO PUSH2 0x451 JUMPI DUP1 DUP2 REVERT JUMPDEST POP MLOAD SWAP2 SWAP1 POP JUMP JUMPDEST PUSH1 0x20 DUP1 DUP3 MSTORE DUP3 MLOAD DUP3 DUP3 ADD DUP2 SWAP1 MSTORE PUSH1 0x0 SWAP2 SWAP1 PUSH1 0x40 SWAP1 DUP2 DUP6 ADD SWAP1 DUP7 DUP5 ADD DUP6 JUMPDEST DUP3 DUP2 LT ISZERO PUSH2 0x4B3 JUMPI DUP2 MLOAD DUP1 MLOAD PUSH1 0x2 SIGNEXTEND DUP6 MSTORE DUP7 DUP2 ADD MLOAD PUSH1 0xF SIGNEXTEND DUP8 DUP7 ADD MSTORE DUP6 ADD MLOAD PUSH1 0x1 PUSH1 0x1 PUSH1 0x80 SHL SUB AND DUP6 DUP6 ADD MSTORE PUSH1 0x60 SWAP1 SWAP4 ADD SWAP3 SWAP1 DUP6 ADD SWAP1 PUSH1 0x1 ADD PUSH2 0x475 JUMP JUMPDEST POP SWAP2 SWAP8 SWAP7 POP POP POP POP POP POP POP JUMP JUMPDEST PUSH1 0x1 SWAP2 SWAP1 SWAP2 SIGNEXTEND DUP2 MSTORE PUSH1 0x20 ADD SWAP1 JUMP JUMPDEST PUSH1 0x2 SWAP2 SWAP1 SWAP2 SIGNEXTEND DUP2 MSTORE PUSH1 0x20 ADD SWAP1 JUMP JUMPDEST PUSH1 0x1 PUSH1 0x1 PUSH1 0xA0 SHL SUB DUP2 AND DUP2 EQ PUSH2 0x4F1 JUMPI PUSH1 0x0 DUP1 REVERT JUMPDEST POP JUMP INVALID LOG2 PUSH5 0x6970667358 0x22 SLT KECCAK256 0xD5 ISZERO 0xD1 CREATE2 0xDA PUSH32 0x695DDABD054527C5C41A620D4740BB8480F8E9053A3CE2A8C4B764736F6C6343 STOP SMOD MOD STOP CALLER "
				},
				"gasEstimates": {
					"creation": {
						"codeDepositCost": "264400",
						"executionCost": "306",
						"totalCost": "264706"
					},
					"external": {
						"getPopulatedTicksInWord(address,int16)": "infinite"
					}
				},
				"methodIdentifiers": {
					"getPopulatedTicksInWord(address,int16)": "351fb478"
				}
			},
			"storageLayout": {
				"storage": [],
				"types": null
			},
			"userdoc": {
				"kind": "user",
				"methods": {
					"getPopulatedTicksInWord(address,int16)": {
						"notice": "Get all the tick data for the populated ticks from a word of the tick bitmap of a pool"
					}
				},
				"version": 1
			}
		}
	}
}