{
	"contracts/lens/QuoterV2_flattened.sol": {
		"QuoterV2": {
			"abi": [
				{
					"inputs": [
						{
							"internalType": "address",
							"name": "_factory",
							"type": "address"
						},
						{
							"internalType": "address",
							"name": "_WETH9",
							"type": "address"
						}
					],
					"stateMutability": "nonpayable",
					"type": "constructor"
				},
				{
					"inputs": [],
					"name": "WETH9",
					"outputs": [
						{
							"internalType": "address",
							"name": "",
							"type": "address"
						}
					],
					"stateMutability": "view",
					"type": "function"
				},
				{
					"inputs": [],
					"name": "factory",
					"outputs": [
						{
							"internalType": "address",
							"name": "",
							"type": "address"
						}
					],
					"stateMutability": "view",
					"type": "function"
				},
				{
					"inputs": [
						{
							"internalType": "bytes",
							"name": "path",
							"type": "bytes"
						},
						{
							"internalType": "uint256",
							"name": "amountIn",
							"type": "uint256"
						}
					],
					"name": "quoteExactInput",
					"outputs": [
						{
							"internalType": "uint256",
							"name": "amountOut",
							"type": "uint256"
						},
						{
							"internalType": "uint160[]",
							"name": "sqrtPriceX96AfterList",
							"type": "uint160[]"
						},
						{
							"internalType": "uint32[]",
							"name": "initializedTicksCrossedList",
							"type": "uint32[]"
						},
						{
							"internalType": "uint256",
							"name": "gasEstimate",
							"type": "uint256"
						}
					],
					"stateMutability": "nonpayable",
					"type": "function"
				},
				{
					"inputs": [
						{
							"components": [
								{
									"internalType": "address",
									"name": "tokenIn",
									"type": "address"
								},
								{
									"internalType": "address",
									"name": "tokenOut",
									"type": "address"
								},
								{
									"internalType": "uint256",
									"name": "amountIn",
									"type": "uint256"
								},
								{
									"internalType": "uint24",
									"name": "fee",
									"type": "uint24"
								},
								{
									"internalType": "uint160",
									"name": "sqrtPriceLimitX96",
									"type": "uint160"
								}
							],
							"internalType": "struct IQuoterV2.QuoteExactInputSingleParams",
							"name": "params",
							"type": "tuple"
						}
					],
					"name": "quoteExactInputSingle",
					"outputs": [
						{
							"internalType": "uint256",
							"name": "amountOut",
							"type": "uint256"
						},
						{
							"internalType": "uint160",
							"name": "sqrtPriceX96After",
							"type": "uint160"
						},
						{
							"internalType": "uint32",
							"name": "initializedTicksCrossed",
							"type": "uint32"
						},
						{
							"internalType": "uint256",
							"name": "gasEstimate",
							"type": "uint256"
						}
					],
					"stateMutability": "nonpayable",
					"type": "function"
				},
				{
					"inputs": [
						{
							"internalType": "bytes",
							"name": "path",
							"type": "bytes"
						},
						{
							"internalType": "uint256",
							"name": "amountOut",
							"type": "uint256"
						}
					],
					"name": "quoteExactOutput",
					"outputs": [
						{
							"internalType": "uint256",
							"name": "amountIn",
							"type": "uint256"
						},
						{
							"internalType": "uint160[]",
							"name": "sqrtPriceX96AfterList",
							"type": "uint160[]"
						},
						{
							"internalType": "uint32[]",
							"name": "initializedTicksCrossedList",
							"type": "uint32[]"
						},
						{
							"internalType": "uint256",
							"name": "gasEstimate",
							"type": "uint256"
						}
					],
					"stateMutability": "nonpayable",
					"type": "function"
				},
				{
					"inputs": [
						{
							"components": [
								{
									"internalType": "address",
									"name": "tokenIn",
									"type": "address"
								},
								{
									"internalType": "address",
									"name": "tokenOut",
									"type": "address"
								},
								{
									"internalType": "uint256",
									"name": "amount",
									"type": "uint256"
								},
								{
									"internalType": "uint24",
									"name": "fee",
									"type": "uint24"
								},
								{
									"internalType": "uint160",
									"name": "sqrtPriceLimitX96",
									"type": "uint160"
								}
							],
							"internalType": "struct IQuoterV2.QuoteExactOutputSingleParams",
							"name": "params",
							"type": "tuple"
						}
					],
					"name": "quoteExactOutputSingle",
					"outputs": [
						{
							"internalType": "uint256",
							"name": "amountIn",
							"type": "uint256"
						},
						{
							"internalType": "uint160",
							"name": "sqrtPriceX96After",
							"type": "uint160"
						},
						{
							"internalType": "uint32",
							"name": "initializedTicksCrossed",
							"type": "uint32"
						},
						{
							"internalType": "uint256",
							"name": "gasEstimate",
							"type": "uint256"
						}
					],
					"stateMutability": "nonpayable",
					"type": "function"
				},
				{
					"inputs": [
						{
							"internalType": "int256",
							"name": "amount0Delta",
							"type": "int256"
						},
						{
							"internalType": "int256",
							"name": "amount1Delta",
							"type": "int256"
						},
						{
							"internalType": "bytes",
							"name": "path",
							"type": "bytes"
						}
					],
					"name": "uniswapV3SwapCallback",
					"outputs": [],
					"stateMutability": "view",
					"type": "function"
				}
			],
			"devdoc": {
				"details": "These functions are not gas efficient and should _not_ be called on chain. Instead, optimistically execute the swap and check the amounts in the callback.",
				"kind": "dev",
				"methods": {
					"quoteExactInput(bytes,uint256)": {
						"params": {
							"amountIn": "The amount of the first token to swap",
							"path": "The path of the swap, i.e. each token pair and the pool fee"
						},
						"returns": {
							"amountOut": "The amount of the last token that would be received",
							"gasEstimate": "The estimate of the gas that the swap consumes",
							"initializedTicksCrossedList": "List of the initialized ticks that the swap crossed for each pool in the path",
							"sqrtPriceX96AfterList": "List of the sqrt price after the swap for each pool in the path"
						}
					},
					"quoteExactInputSingle((address,address,uint256,uint24,uint160))": {
						"params": {
							"params": "The params for the quote, encoded as `QuoteExactInputSingleParams` tokenIn The token being swapped in tokenOut The token being swapped out fee The fee of the token pool to consider for the pair amountIn The desired input amount sqrtPriceLimitX96 The price limit of the pool that cannot be exceeded by the swap"
						},
						"returns": {
							"amountOut": "The amount of `tokenOut` that would be received",
							"gasEstimate": "The estimate of the gas that the swap consumes",
							"initializedTicksCrossed": "The number of initialized ticks that the swap crossed",
							"sqrtPriceX96After": "The sqrt price of the pool after the swap"
						}
					},
					"quoteExactOutput(bytes,uint256)": {
						"params": {
							"amountOut": "The amount of the last token to receive",
							"path": "The path of the swap, i.e. each token pair and the pool fee. Path must be provided in reverse order"
						},
						"returns": {
							"amountIn": "The amount of first token required to be paid",
							"gasEstimate": "The estimate of the gas that the swap consumes",
							"initializedTicksCrossedList": "List of the initialized ticks that the swap crossed for each pool in the path",
							"sqrtPriceX96AfterList": "List of the sqrt price after the swap for each pool in the path"
						}
					},
					"quoteExactOutputSingle((address,address,uint256,uint24,uint160))": {
						"params": {
							"params": "The params for the quote, encoded as `QuoteExactOutputSingleParams` tokenIn The token being swapped in tokenOut The token being swapped out fee The fee of the token pool to consider for the pair amountOut The desired output amount sqrtPriceLimitX96 The price limit of the pool that cannot be exceeded by the swap"
						},
						"returns": {
							"amountIn": "The amount required as the input for the swap in order to receive `amountOut`",
							"gasEstimate": "The estimate of the gas that the swap consumes",
							"initializedTicksCrossed": "The number of initialized ticks that the swap crossed",
							"sqrtPriceX96After": "The sqrt price of the pool after the swap"
						}
					},
					"uniswapV3SwapCallback(int256,int256,bytes)": {
						"details": "In the implementation you must pay the pool tokens owed for the swap. The caller of this method must be checked to be a UniswapV3Pool deployed by the canonical UniswapV3Factory. amount0Delta and amount1Delta can both be 0 if no tokens were swapped.",
						"params": {
							"amount0Delta": "The amount of token0 that was sent (negative) or must be received (positive) by the pool by the end of the swap. If positive, the callback must send that amount of token0 to the pool.",
							"amount1Delta": "The amount of token1 that was sent (negative) or must be received (positive) by the pool by the end of the swap. If positive, the callback must send that amount of token1 to the pool.",
							"data": "Any data passed through by the caller via the IUniswapV3PoolActions#swap call"
						}
					}
				},
				"stateVariables": {
					"amountOutCached": {
						"details": "Transient storage variable used to check a safety condition in exact output swaps."
					}
				},
				"title": "Provides quotes for swaps",
				"version": 1
			},
			"evm": {
				"assembly": "    /* \"contracts/lens/QuoterV2_flattened.sol\":63769:73102  contract QuoterV2 is IQuoterV2, IUniswapV3SwapCallback, PeripheryImmutableState {... */\n  mstore(0x40, 0xc0)\n    /* \"contracts/lens/QuoterV2_flattened.sol\":64095:64185  constructor(address _factory, address _WETH9) PeripheryImmutableState(_factory, _WETH9) {} */\n  callvalue\n  dup1\n  iszero\n  tag_1\n  jumpi\n  0x00\n  dup1\n  revert\ntag_1:\n  pop\n  mload(0x40)\n  sub(codesize, bytecodeSize)\n  dup1\n  bytecodeSize\n  dup4\n  codecopy\n  dup2\n  add\n  0x40\n  dup2\n  swap1\n  mstore\n  tag_2\n  swap2\n  tag_3\n  jump\t// in\ntag_2:\n  not(sub(shl(0x60, 0x01), 0x01))\n    /* \"contracts/lens/QuoterV2_flattened.sol\":9742:9760  factory = _factory */\n  0x60\n  swap3\n  dup4\n  shl\n  dup2\n  and\n  0x80\n  mstore\n    /* \"contracts/lens/QuoterV2_flattened.sol\":9770:9784  WETH9 = _WETH9 */\n  swap2\n  shl\n  and\n  0xa0\n  mstore\n    /* \"contracts/lens/QuoterV2_flattened.sol\":63769:73102  contract QuoterV2 is IQuoterV2, IUniswapV3SwapCallback, PeripheryImmutableState {... */\n  jump(tag_9)\n    /* \"#utility.yul\":14:193   */\ntag_10:\n    /* \"#utility.yul\":95:108   */\n  dup1\n  mload\n  sub(shl(0xa0, 0x01), 0x01)\n    /* \"#utility.yul\":137:168   */\n  dup2\n  and\n    /* \"#utility.yul\":127:169   */\n  dup2\n  eq\n    /* \"#utility.yul\":117:119   */\n  tag_12\n  jumpi\n    /* \"#utility.yul\":183:184   */\n  0x00\n    /* \"#utility.yul\":180:181   */\n  dup1\n    /* \"#utility.yul\":173:185   */\n  revert\n    /* \"#utility.yul\":117:119   */\ntag_12:\n    /* \"#utility.yul\":76:193   */\n  swap2\n  swap1\n  pop\n  jump\t// out\n    /* \"#utility.yul\":198:505   */\ntag_3:\n  0x00\n  dup1\n    /* \"#utility.yul\":338:340   */\n  0x40\n    /* \"#utility.yul\":326:335   */\n  dup4\n    /* \"#utility.yul\":317:324   */\n  dup6\n    /* \"#utility.yul\":313:336   */\n  sub\n    /* \"#utility.yul\":309:341   */\n  slt\n    /* \"#utility.yul\":306:308   */\n  iszero\n  tag_14\n  jumpi\n    /* \"#utility.yul\":359:365   */\n  dup2\n    /* \"#utility.yul\":351:357   */\n  dup3\n    /* \"#utility.yul\":344:366   */\n  revert\n    /* \"#utility.yul\":306:308   */\ntag_14:\n    /* \"#utility.yul\":387:429   */\n  tag_15\n    /* \"#utility.yul\":419:428   */\n  dup4\n    /* \"#utility.yul\":387:429   */\n  tag_10\n  jump\t// in\ntag_15:\n    /* \"#utility.yul\":377:429   */\n  swap2\n  pop\n    /* \"#utility.yul\":448:499   */\n  tag_16\n    /* \"#utility.yul\":495:497   */\n  0x20\n    /* \"#utility.yul\":484:493   */\n  dup5\n    /* \"#utility.yul\":480:498   */\n  add\n    /* \"#utility.yul\":448:499   */\n  tag_10\n  jump\t// in\ntag_16:\n    /* \"#utility.yul\":438:499   */\n  swap1\n  pop\n    /* \"#utility.yul\":296:505   */\n  swap3\n  pop\n  swap3\n  swap1\n  pop\n  jump\t// out\ntag_9:\n    /* \"contracts/lens/QuoterV2_flattened.sol\":63769:73102  contract QuoterV2 is IQuoterV2, IUniswapV3SwapCallback, PeripheryImmutableState {... */\n  shr(0x60, mload(0x80))\n  shr(0x60, mload(0xa0))\n  codecopy(0x00, dataOffset(sub_0), dataSize(sub_0))\n  assignImmutable(\"0x4a2481aeb31e74f0e353ded3d8816b025fc54779281de96894ad2bca730528bd\")\n  assignImmutable(\"0x6b88fa438cae5c1216aa45b8d58426fb848d0ea4056264a8a6a1dd473ff0fc05\")\n  return(0x00, dataSize(sub_0))\nstop\n\nsub_0: assembly {\n        /* \"contracts/lens/QuoterV2_flattened.sol\":63769:73102  contract QuoterV2 is IQuoterV2, IUniswapV3SwapCallback, PeripheryImmutableState {... */\n      mstore(0x40, 0x80)\n      callvalue\n      dup1\n      iszero\n      tag_1\n      jumpi\n      0x00\n      dup1\n      revert\n    tag_1:\n      pop\n      jumpi(tag_2, lt(calldatasize, 0x04))\n      shr(0xe0, calldataload(0x00))\n      dup1\n      0xc45a0155\n      gt\n      tag_10\n      jumpi\n      dup1\n      0xc45a0155\n      eq\n      tag_6\n      jumpi\n      dup1\n      0xc6a5026a\n      eq\n      tag_7\n      jumpi\n      dup1\n      0xcdca1753\n      eq\n      tag_8\n      jumpi\n      dup1\n      0xfa461e33\n      eq\n      tag_9\n      jumpi\n      jump(tag_2)\n    tag_10:\n      dup1\n      0x2f80bb1d\n      eq\n      tag_3\n      jumpi\n      dup1\n      0x4aa4a4fc\n      eq\n      tag_4\n      jumpi\n      dup1\n      0xbd21704a\n      eq\n      tag_5\n      jumpi\n    tag_2:\n      0x00\n      dup1\n      revert\n        /* \"contracts/lens/QuoterV2_flattened.sol\":71480:73100  function quoteExactOutput(bytes memory path, uint256 amountOut)... */\n    tag_3:\n      tag_11\n      tag_12\n      calldatasize\n      0x04\n      tag_13\n      jump\t// in\n    tag_12:\n      tag_14\n      jump\t// in\n    tag_11:\n      mload(0x40)\n      tag_15\n      swap5\n      swap4\n      swap3\n      swap2\n      swap1\n      tag_16\n      jump\t// in\n    tag_15:\n      mload(0x40)\n      dup1\n      swap2\n      sub\n      swap1\n      return\n        /* \"contracts/lens/QuoterV2_flattened.sol\":9640:9679  address public immutable override WETH9 */\n    tag_4:\n      tag_17\n      tag_18\n      jump\t// in\n    tag_17:\n      mload(0x40)\n      tag_15\n      swap2\n      swap1\n      tag_20\n      jump\t// in\n        /* \"contracts/lens/QuoterV2_flattened.sol\":70099:71474  function quoteExactOutputSingle(QuoteExactOutputSingleParams memory params)... */\n    tag_5:\n      tag_21\n      tag_22\n      calldatasize\n      0x04\n      tag_32\n      jump\t// in\n    tag_22:\n      tag_24\n      jump\t// in\n    tag_21:\n      mload(0x40)\n      tag_15\n      swap5\n      swap4\n      swap3\n      swap2\n      swap1\n      tag_26\n      jump\t// in\n        /* \"contracts/lens/QuoterV2_flattened.sol\":9548:9589  address public immutable override factory */\n    tag_6:\n      tag_17\n      tag_28\n      jump\t// in\n        /* \"contracts/lens/QuoterV2_flattened.sol\":67365:68469  function quoteExactInputSingle(QuoteExactInputSingleParams memory params)... */\n    tag_7:\n      tag_21\n      tag_31\n      calldatasize\n      0x04\n      tag_32\n      jump\t// in\n    tag_31:\n      tag_33\n      jump\t// in\n        /* \"contracts/lens/QuoterV2_flattened.sol\":68475:70093  function quoteExactInput(bytes memory path, uint256 amountIn)... */\n    tag_8:\n      tag_11\n      tag_36\n      calldatasize\n      0x04\n      tag_13\n      jump\t// in\n    tag_36:\n      tag_37\n      jump\t// in\n        /* \"contracts/lens/QuoterV2_flattened.sol\":64489:66094  function uniswapV3SwapCallback(... */\n    tag_9:\n      tag_39\n      tag_40\n      calldatasize\n      0x04\n      tag_41\n      jump\t// in\n    tag_40:\n      tag_42\n      jump\t// in\n    tag_39:\n      stop\n        /* \"contracts/lens/QuoterV2_flattened.sol\":71480:73100  function quoteExactOutput(bytes memory path, uint256 amountOut)... */\n    tag_14:\n        /* \"contracts/lens/QuoterV2_flattened.sol\":71606:71622  uint256 amountIn */\n      0x00\n        /* \"contracts/lens/QuoterV2_flattened.sol\":71636:71674  uint160[] memory sqrtPriceX96AfterList */\n      0x60\n        /* \"contracts/lens/QuoterV2_flattened.sol\":71688:71731  uint32[] memory initializedTicksCrossedList */\n      dup1\n        /* \"contracts/lens/QuoterV2_flattened.sol\":71745:71764  uint256 gasEstimate */\n      0x00\n        /* \"contracts/lens/QuoterV2_flattened.sol\":71827:71842  path.numPools() */\n      tag_44\n        /* \"contracts/lens/QuoterV2_flattened.sol\":71827:71831  path */\n      dup7\n        /* \"contracts/lens/QuoterV2_flattened.sol\":71827:71840  path.numPools */\n      tag_45\n        /* \"contracts/lens/QuoterV2_flattened.sol\":71827:71842  path.numPools() */\n      jump\t// in\n    tag_44:\n        /* \"contracts/lens/QuoterV2_flattened.sol\":71813:71843  new uint160[](path.numPools()) */\n      0xffffffffffffffff\n      dup2\n      gt\n      dup1\n      iszero\n      tag_46\n      jumpi\n      0x00\n      dup1\n      revert\n    tag_46:\n      pop\n      mload(0x40)\n      swap1\n      dup1\n      dup3\n      mstore\n      dup1\n      0x20\n      mul\n      0x20\n      add\n      dup3\n      add\n      0x40\n      mstore\n      dup1\n      iszero\n      tag_47\n      jumpi\n      dup2\n      0x20\n      add\n      0x20\n      dup3\n      mul\n      dup1\n      calldatasize\n      dup4\n      calldatacopy\n      add\n      swap1\n      pop\n    tag_47:\n      pop\n        /* \"contracts/lens/QuoterV2_flattened.sol\":71789:71843  sqrtPriceX96AfterList = new uint160[](path.numPools()) */\n      swap3\n      pop\n        /* \"contracts/lens/QuoterV2_flattened.sol\":71896:71911  path.numPools() */\n      tag_48\n        /* \"contracts/lens/QuoterV2_flattened.sol\":71896:71900  path */\n      dup7\n        /* \"contracts/lens/QuoterV2_flattened.sol\":71896:71909  path.numPools */\n      tag_45\n        /* \"contracts/lens/QuoterV2_flattened.sol\":71896:71911  path.numPools() */\n      jump\t// in\n    tag_48:\n        /* \"contracts/lens/QuoterV2_flattened.sol\":71883:71912  new uint32[](path.numPools()) */\n      0xffffffffffffffff\n      dup2\n      gt\n      dup1\n      iszero\n      tag_49\n      jumpi\n      0x00\n      dup1\n      revert\n    tag_49:\n      pop\n      mload(0x40)\n      swap1\n      dup1\n      dup3\n      mstore\n      dup1\n      0x20\n      mul\n      0x20\n      add\n      dup3\n      add\n      0x40\n      mstore\n      dup1\n      iszero\n      tag_50\n      jumpi\n      dup2\n      0x20\n      add\n      0x20\n      dup3\n      mul\n      dup1\n      calldatasize\n      dup4\n      calldatacopy\n      add\n      swap1\n      pop\n    tag_50:\n      pop\n        /* \"contracts/lens/QuoterV2_flattened.sol\":71853:71912  initializedTicksCrossedList = new uint32[](path.numPools()) */\n      swap2\n      pop\n        /* \"contracts/lens/QuoterV2_flattened.sol\":71923:71932  uint256 i */\n      0x00\n        /* \"contracts/lens/QuoterV2_flattened.sol\":71946:73094  while (true) {... */\n    tag_51:\n        /* \"contracts/lens/QuoterV2_flattened.sol\":71974:71990  address tokenOut */\n      0x00\n        /* \"contracts/lens/QuoterV2_flattened.sol\":71992:72007  address tokenIn */\n      dup1\n        /* \"contracts/lens/QuoterV2_flattened.sol\":72009:72019  uint24 fee */\n      0x00\n        /* \"contracts/lens/QuoterV2_flattened.sol\":72023:72045  path.decodeFirstPool() */\n      tag_53\n        /* \"contracts/lens/QuoterV2_flattened.sol\":72023:72027  path */\n      dup11\n        /* \"contracts/lens/QuoterV2_flattened.sol\":72023:72043  path.decodeFirstPool */\n      tag_54\n        /* \"contracts/lens/QuoterV2_flattened.sol\":72023:72045  path.decodeFirstPool() */\n      jump\t// in\n    tag_53:\n        /* \"contracts/lens/QuoterV2_flattened.sol\":71973:72045  (address tokenOut, address tokenIn, uint24 fee) = path.decodeFirstPool() */\n      swap3\n      pop\n      swap3\n      pop\n      swap3\n      pop\n        /* \"contracts/lens/QuoterV2_flattened.sol\":72140:72157  uint256 _amountIn */\n      0x00\n        /* \"contracts/lens/QuoterV2_flattened.sol\":72159:72185  uint160 _sqrtPriceX96After */\n      dup1\n        /* \"contracts/lens/QuoterV2_flattened.sol\":72187:72218  uint32 _initializedTicksCrossed */\n      0x00\n        /* \"contracts/lens/QuoterV2_flattened.sol\":72220:72240  uint256 _gasEstimate */\n      dup1\n        /* \"contracts/lens/QuoterV2_flattened.sol\":72260:72583  quoteExactOutputSingle(... */\n      tag_55\n        /* \"contracts/lens/QuoterV2_flattened.sol\":72304:72565  QuoteExactOutputSingleParams({... */\n      mload(0x40)\n      dup1\n      0xa0\n      add\n      0x40\n      mstore\n      dup1\n        /* \"contracts/lens/QuoterV2_flattened.sol\":72368:72375  tokenIn */\n      dup9\n      sub(shl(0xa0, 0x01), 0x01)\n        /* \"contracts/lens/QuoterV2_flattened.sol\":72304:72565  QuoteExactOutputSingleParams({... */\n      and\n      dup2\n      mstore\n      0x20\n      add\n        /* \"contracts/lens/QuoterV2_flattened.sol\":72411:72419  tokenOut */\n      dup10\n      sub(shl(0xa0, 0x01), 0x01)\n        /* \"contracts/lens/QuoterV2_flattened.sol\":72304:72565  QuoteExactOutputSingleParams({... */\n      and\n      dup2\n      mstore\n      0x20\n      add\n        /* \"contracts/lens/QuoterV2_flattened.sol\":72453:72462  amountOut */\n      dup16\n        /* \"contracts/lens/QuoterV2_flattened.sol\":72304:72565  QuoteExactOutputSingleParams({... */\n      dup2\n      mstore\n      0x20\n      add\n        /* \"contracts/lens/QuoterV2_flattened.sol\":72493:72496  fee */\n      dup8\n        /* \"contracts/lens/QuoterV2_flattened.sol\":72304:72565  QuoteExactOutputSingleParams({... */\n      0xffffff\n      and\n      dup2\n      mstore\n      0x20\n      add\n        /* \"contracts/lens/QuoterV2_flattened.sol\":72541:72542  0 */\n      0x00\n      sub(shl(0xa0, 0x01), 0x01)\n        /* \"contracts/lens/QuoterV2_flattened.sol\":72304:72565  QuoteExactOutputSingleParams({... */\n      and\n      dup2\n      mstore\n      pop\n        /* \"contracts/lens/QuoterV2_flattened.sol\":72260:72282  quoteExactOutputSingle */\n      tag_24\n        /* \"contracts/lens/QuoterV2_flattened.sol\":72260:72583  quoteExactOutputSingle(... */\n      jump\t// in\n    tag_55:\n        /* \"contracts/lens/QuoterV2_flattened.sol\":72139:72583  (uint256 _amountIn, uint160 _sqrtPriceX96After, uint32 _initializedTicksCrossed, uint256 _gasEstimate) =... */\n      swap4\n      pop\n      swap4\n      pop\n      swap4\n      pop\n      swap4\n      pop\n        /* \"contracts/lens/QuoterV2_flattened.sol\":72625:72643  _sqrtPriceX96After */\n      dup3\n        /* \"contracts/lens/QuoterV2_flattened.sol\":72598:72619  sqrtPriceX96AfterList */\n      dup12\n        /* \"contracts/lens/QuoterV2_flattened.sol\":72620:72621  i */\n      dup10\n        /* \"contracts/lens/QuoterV2_flattened.sol\":72598:72622  sqrtPriceX96AfterList[i] */\n      dup2\n      mload\n      dup2\n      lt\n      tag_56\n      jumpi\n      invalid\n    tag_56:\n      0x20\n      mul\n      0x20\n      add\n      add\n        /* \"contracts/lens/QuoterV2_flattened.sol\":72598:72643  sqrtPriceX96AfterList[i] = _sqrtPriceX96After */\n      swap1\n      sub(shl(0xa0, 0x01), 0x01)\n      and\n      swap1\n      dup2\n      sub(shl(0xa0, 0x01), 0x01)\n      and\n      dup2\n      mstore\n      pop\n      pop\n        /* \"contracts/lens/QuoterV2_flattened.sol\":72690:72714  _initializedTicksCrossed */\n      dup2\n        /* \"contracts/lens/QuoterV2_flattened.sol\":72657:72684  initializedTicksCrossedList */\n      dup11\n        /* \"contracts/lens/QuoterV2_flattened.sol\":72685:72686  i */\n      dup10\n        /* \"contracts/lens/QuoterV2_flattened.sol\":72657:72687  initializedTicksCrossedList[i] */\n      dup2\n      mload\n      dup2\n      lt\n      tag_57\n      jumpi\n      invalid\n    tag_57:\n        /* \"contracts/lens/QuoterV2_flattened.sol\":72657:72714  initializedTicksCrossedList[i] = _initializedTicksCrossed */\n      0xffffffff\n      swap1\n      swap3\n      and\n        /* \"contracts/lens/QuoterV2_flattened.sol\":72657:72687  initializedTicksCrossedList[i] */\n      0x20\n      swap3\n      dup4\n      mul\n      swap2\n      swap1\n      swap2\n      add\n      swap1\n      swap2\n      add\n        /* \"contracts/lens/QuoterV2_flattened.sol\":72657:72714  initializedTicksCrossedList[i] = _initializedTicksCrossed */\n      mstore\n        /* \"contracts/lens/QuoterV2_flattened.sol\":72740:72749  _amountIn */\n      swap3\n      swap12\n      pop\n        /* \"contracts/lens/QuoterV2_flattened.sol\":72763:72790  gasEstimate += _gasEstimate */\n      swap7\n      dup3\n      add\n      swap7\n        /* \"contracts/lens/QuoterV2_flattened.sol\":72804:72807  i++ */\n      0x01\n      swap1\n      swap7\n      add\n      swap6\n        /* \"contracts/lens/QuoterV2_flattened.sol\":72740:72749  _amountIn */\n      dup12\n      swap3\n        /* \"contracts/lens/QuoterV2_flattened.sol\":72881:72904  path.hasMultiplePools() */\n      tag_58\n        /* \"contracts/lens/QuoterV2_flattened.sol\":72881:72885  path */\n      dup15\n        /* \"contracts/lens/QuoterV2_flattened.sol\":72881:72902  path.hasMultiplePools */\n      tag_59\n        /* \"contracts/lens/QuoterV2_flattened.sol\":72881:72904  path.hasMultiplePools() */\n      jump\t// in\n    tag_58:\n        /* \"contracts/lens/QuoterV2_flattened.sol\":72877:73084  if (path.hasMultiplePools()) {... */\n      iszero\n      tag_60\n      jumpi\n        /* \"contracts/lens/QuoterV2_flattened.sol\":72931:72947  path.skipToken() */\n      tag_61\n        /* \"contracts/lens/QuoterV2_flattened.sol\":72931:72935  path */\n      dup15\n        /* \"contracts/lens/QuoterV2_flattened.sol\":72931:72945  path.skipToken */\n      tag_62\n        /* \"contracts/lens/QuoterV2_flattened.sol\":72931:72947  path.skipToken() */\n      jump\t// in\n    tag_61:\n        /* \"contracts/lens/QuoterV2_flattened.sol\":72924:72947  path = path.skipToken() */\n      swap14\n      pop\n        /* \"contracts/lens/QuoterV2_flattened.sol\":72877:73084  if (path.hasMultiplePools()) {... */\n      jump(tag_63)\n    tag_60:\n        /* \"contracts/lens/QuoterV2_flattened.sol\":72994:73003  amountOut */\n      dup13\n        /* \"contracts/lens/QuoterV2_flattened.sol\":72986:73069  return (amountOut, sqrtPriceX96AfterList, initializedTicksCrossedList, gasEstimate) */\n      swap12\n      pop\n      pop\n      pop\n      pop\n      pop\n      pop\n      pop\n      pop\n      pop\n      jump(tag_43)\n        /* \"contracts/lens/QuoterV2_flattened.sol\":72877:73084  if (path.hasMultiplePools()) {... */\n    tag_63:\n        /* \"contracts/lens/QuoterV2_flattened.sol\":71946:73094  while (true) {... */\n      pop\n      pop\n      pop\n      pop\n      pop\n      pop\n      pop\n      jump(tag_51)\n        /* \"contracts/lens/QuoterV2_flattened.sol\":71480:73100  function quoteExactOutput(bytes memory path, uint256 amountOut)... */\n    tag_43:\n      swap3\n      swap6\n      swap2\n      swap5\n      pop\n      swap3\n      pop\n      jump\t// out\n        /* \"contracts/lens/QuoterV2_flattened.sol\":9640:9679  address public immutable override WETH9 */\n    tag_18:\n      immutable(\"0x4a2481aeb31e74f0e353ded3d8816b025fc54779281de96894ad2bca730528bd\")\n      dup2\n      jump\t// out\n        /* \"contracts/lens/QuoterV2_flattened.sol\":70099:71474  function quoteExactOutputSingle(QuoteExactOutputSingleParams memory params)... */\n    tag_24:\n        /* \"contracts/lens/QuoterV2_flattened.sol\":70429:70444  params.tokenOut */\n      0x20\n      dup2\n      add\n      mload\n        /* \"contracts/lens/QuoterV2_flattened.sol\":70412:70426  params.tokenIn */\n      dup2\n      mload\n        /* \"contracts/lens/QuoterV2_flattened.sol\":70517:70527  params.fee */\n      0x60\n      dup4\n      add\n      mload\n        /* \"contracts/lens/QuoterV2_flattened.sol\":70237:70253  uint256 amountIn */\n      0x00\n      swap3\n      dup4\n      swap3\n      dup4\n      swap3\n      dup4\n      swap3\n      sub(shl(0xa0, 0x01), 0x01)\n        /* \"contracts/lens/QuoterV2_flattened.sol\":70412:70444  params.tokenIn < params.tokenOut */\n      dup1\n      dup3\n      and\n      swap1\n      dup5\n      and\n      lt\n      swap3\n        /* \"contracts/lens/QuoterV2_flattened.sol\":70237:70253  uint256 amountIn */\n      dup5\n      swap3\n        /* \"contracts/lens/QuoterV2_flattened.sol\":70476:70528  getPool(params.tokenIn, params.tokenOut, params.fee) */\n      tag_65\n      swap3\n        /* \"contracts/lens/QuoterV2_flattened.sol\":70429:70444  params.tokenOut */\n      swap1\n        /* \"contracts/lens/QuoterV2_flattened.sol\":70476:70483  getPool */\n      tag_66\n        /* \"contracts/lens/QuoterV2_flattened.sol\":70476:70528  getPool(params.tokenIn, params.tokenOut, params.fee) */\n      jump\t// in\n    tag_65:\n        /* \"contracts/lens/QuoterV2_flattened.sol\":70454:70528  IUniswapV3Pool pool = getPool(params.tokenIn, params.tokenOut, params.fee) */\n      swap1\n      pop\n        /* \"contracts/lens/QuoterV2_flattened.sol\":70652:70658  params */\n      dup7\n        /* \"contracts/lens/QuoterV2_flattened.sol\":70652:70676  params.sqrtPriceLimitX96 */\n      0x80\n      add\n      mload\n      sub(shl(0xa0, 0x01), 0x01)\n        /* \"contracts/lens/QuoterV2_flattened.sol\":70652:70681  params.sqrtPriceLimitX96 == 0 */\n      and\n        /* \"contracts/lens/QuoterV2_flattened.sol\":70680:70681  0 */\n      0x00\n        /* \"contracts/lens/QuoterV2_flattened.sol\":70652:70681  params.sqrtPriceLimitX96 == 0 */\n      eq\n        /* \"contracts/lens/QuoterV2_flattened.sol\":70648:70714  if (params.sqrtPriceLimitX96 == 0) amountOutCached = params.amount */\n      iszero\n      tag_67\n      jumpi\n        /* \"contracts/lens/QuoterV2_flattened.sol\":70701:70714  params.amount */\n      0x40\n      dup8\n      add\n      mload\n        /* \"contracts/lens/QuoterV2_flattened.sol\":70683:70698  amountOutCached */\n      0x00\n        /* \"contracts/lens/QuoterV2_flattened.sol\":70683:70714  amountOutCached = params.amount */\n      sstore\n        /* \"contracts/lens/QuoterV2_flattened.sol\":70648:70714  if (params.sqrtPriceLimitX96 == 0) amountOutCached = params.amount */\n    tag_67:\n        /* \"contracts/lens/QuoterV2_flattened.sol\":70724:70741  uint256 gasBefore */\n      0x00\n        /* \"contracts/lens/QuoterV2_flattened.sol\":70744:70753  gasleft() */\n      gas\n        /* \"contracts/lens/QuoterV2_flattened.sol\":70724:70753  uint256 gasBefore = gasleft() */\n      swap1\n      pop\n        /* \"contracts/lens/QuoterV2_flattened.sol\":70779:70783  pool */\n      dup2\n      sub(shl(0xa0, 0x01), 0x01)\n        /* \"contracts/lens/QuoterV2_flattened.sol\":70779:70788  pool.swap */\n      and\n      0x128acb08\n        /* \"contracts/lens/QuoterV2_flattened.sol\":70814:70818  this */\n      address\n        /* \"contracts/lens/QuoterV2_flattened.sol\":70887:70897  zeroForOne */\n      dup6\n        /* \"contracts/lens/QuoterV2_flattened.sol\":70916:70940  params.amount.toInt256() */\n      tag_68\n        /* \"contracts/lens/QuoterV2_flattened.sol\":70916:70922  params */\n      dup13\n        /* \"contracts/lens/QuoterV2_flattened.sol\":70916:70929  params.amount */\n      0x40\n      add\n      mload\n        /* \"contracts/lens/QuoterV2_flattened.sol\":70916:70938  params.amount.toInt256 */\n      tag_69\n        /* \"contracts/lens/QuoterV2_flattened.sol\":70916:70940  params.amount.toInt256() */\n      jump\t// in\n    tag_68:\n        /* \"contracts/lens/QuoterV2_flattened.sol\":70915:70940  -params.amount.toInt256() */\n      0x00\n      sub\n        /* \"contracts/lens/QuoterV2_flattened.sol\":70958:70964  params */\n      dup13\n        /* \"contracts/lens/QuoterV2_flattened.sol\":70958:70982  params.sqrtPriceLimitX96 */\n      0x80\n      add\n      mload\n      sub(shl(0xa0, 0x01), 0x01)\n        /* \"contracts/lens/QuoterV2_flattened.sol\":70958:70987  params.sqrtPriceLimitX96 == 0 */\n      and\n        /* \"contracts/lens/QuoterV2_flattened.sol\":70986:70987  0 */\n      0x00\n        /* \"contracts/lens/QuoterV2_flattened.sol\":70958:70987  params.sqrtPriceLimitX96 == 0 */\n      eq\n        /* \"contracts/lens/QuoterV2_flattened.sol\":70958:71129  params.sqrtPriceLimitX96 == 0... */\n      tag_70\n      jumpi\n        /* \"contracts/lens/QuoterV2_flattened.sol\":71105:71111  params */\n      dup13\n        /* \"contracts/lens/QuoterV2_flattened.sol\":71105:71129  params.sqrtPriceLimitX96 */\n      0x80\n      add\n      mload\n        /* \"contracts/lens/QuoterV2_flattened.sol\":70958:71129  params.sqrtPriceLimitX96 == 0... */\n      jump(tag_73)\n    tag_70:\n        /* \"contracts/lens/QuoterV2_flattened.sol\":71011:71021  zeroForOne */\n      dup8\n        /* \"contracts/lens/QuoterV2_flattened.sol\":71011:71081  zeroForOne ? TickMath.MIN_SQRT_RATIO + 1 : TickMath.MAX_SQRT_RATIO - 1 */\n      tag_72\n      jumpi\n        /* \"contracts/lens/QuoterV2_flattened.sol\":71054:71081  TickMath.MAX_SQRT_RATIO - 1 */\n      0xfffd8963efd1fc6a506488495d951d5263988d25\n        /* \"contracts/lens/QuoterV2_flattened.sol\":71011:71081  zeroForOne ? TickMath.MIN_SQRT_RATIO + 1 : TickMath.MAX_SQRT_RATIO - 1 */\n      jump(tag_73)\n    tag_72:\n        /* \"contracts/lens/QuoterV2_flattened.sol\":71024:71051  TickMath.MIN_SQRT_RATIO + 1 */\n      0x01000276a4\n        /* \"contracts/lens/QuoterV2_flattened.sol\":71011:71081  zeroForOne ? TickMath.MIN_SQRT_RATIO + 1 : TickMath.MAX_SQRT_RATIO - 1 */\n    tag_73:\n        /* \"contracts/lens/QuoterV2_flattened.sol\":71164:71170  params */\n      dup14\n        /* \"contracts/lens/QuoterV2_flattened.sol\":71164:71179  params.tokenOut */\n      0x20\n      add\n      mload\n        /* \"contracts/lens/QuoterV2_flattened.sol\":71181:71187  params */\n      dup15\n        /* \"contracts/lens/QuoterV2_flattened.sol\":71181:71191  params.fee */\n      0x60\n      add\n      mload\n        /* \"contracts/lens/QuoterV2_flattened.sol\":71193:71199  params */\n      dup16\n        /* \"contracts/lens/QuoterV2_flattened.sol\":71193:71207  params.tokenIn */\n      0x00\n      add\n      mload\n        /* \"contracts/lens/QuoterV2_flattened.sol\":71147:71208  abi.encodePacked(params.tokenOut, params.fee, params.tokenIn) */\n      add(0x20, mload(0x40))\n      tag_74\n      swap4\n      swap3\n      swap2\n      swap1\n      tag_75\n      jump\t// in\n    tag_74:\n      mload(0x40)\n      0x20\n      dup2\n      dup4\n      sub\n      sub\n      dup2\n      mstore\n      swap1\n      0x40\n      mstore\n        /* \"contracts/lens/QuoterV2_flattened.sol\":70779:71222  pool.swap(... */\n      mload(0x40)\n      dup7\n      0xffffffff\n      and\n      0xe0\n      shl\n      dup2\n      mstore\n      0x04\n      add\n      tag_76\n      swap6\n      swap5\n      swap4\n      swap3\n      swap2\n      swap1\n      tag_77\n      jump\t// in\n    tag_76:\n      0x40\n      dup1\n      mload\n      dup1\n      dup4\n      sub\n      dup2\n      0x00\n      dup8\n      dup1\n      extcodesize\n      iszero\n      dup1\n      iszero\n      tag_78\n      jumpi\n      0x00\n      dup1\n      revert\n    tag_78:\n      pop\n      gas\n      call\n      swap3\n      pop\n      pop\n      pop\n      dup1\n      iszero\n      tag_79\n      jumpi\n      pop\n      0x40\n      dup1\n      mload\n      0x1f\n      returndatasize\n      swap1\n      dup2\n      add\n      not(0x1f)\n      and\n      dup3\n      add\n      swap1\n      swap3\n      mstore\n      tag_80\n      swap2\n      dup2\n      add\n      swap1\n      tag_81\n      jump\t// in\n    tag_80:\n      0x01\n    tag_79:\n        /* \"contracts/lens/QuoterV2_flattened.sol\":70763:71468  try... */\n      tag_82\n      jumpi\n      returndatasize\n      dup1\n      dup1\n      iszero\n      tag_86\n      jumpi\n      mload(0x40)\n      swap2\n      pop\n      and(add(returndatasize, 0x3f), not(0x1f))\n      dup3\n      add\n      0x40\n      mstore\n      returndatasize\n      dup3\n      mstore\n      returndatasize\n      0x00\n      0x20\n      dup5\n      add\n      returndatacopy\n      jump(tag_85)\n    tag_86:\n      0x60\n      swap2\n      pop\n    tag_85:\n      pop\n        /* \"contracts/lens/QuoterV2_flattened.sol\":71302:71311  gasleft() */\n      gas\n        /* \"contracts/lens/QuoterV2_flattened.sol\":71290:71299  gasBefore */\n      dup3\n        /* \"contracts/lens/QuoterV2_flattened.sol\":71290:71311  gasBefore - gasleft() */\n      sub\n        /* \"contracts/lens/QuoterV2_flattened.sol\":71276:71311  gasEstimate = gasBefore - gasleft() */\n      swap5\n      pop\n        /* \"contracts/lens/QuoterV2_flattened.sol\":71329:71335  params */\n      dup9\n        /* \"contracts/lens/QuoterV2_flattened.sol\":71329:71353  params.sqrtPriceLimitX96 */\n      0x80\n      add\n      mload\n      sub(shl(0xa0, 0x01), 0x01)\n        /* \"contracts/lens/QuoterV2_flattened.sol\":71329:71358  params.sqrtPriceLimitX96 == 0 */\n      and\n        /* \"contracts/lens/QuoterV2_flattened.sol\":71357:71358  0 */\n      0x00\n        /* \"contracts/lens/QuoterV2_flattened.sol\":71329:71358  params.sqrtPriceLimitX96 == 0 */\n      eq\n        /* \"contracts/lens/QuoterV2_flattened.sol\":71325:71382  if (params.sqrtPriceLimitX96 == 0) delete amountOutCached */\n      iszero\n      tag_87\n      jumpi\n        /* \"contracts/lens/QuoterV2_flattened.sol\":71367:71382  amountOutCached */\n      0x00\n        /* \"contracts/lens/QuoterV2_flattened.sol\":71360:71382  delete amountOutCached */\n      dup1\n      sstore\n        /* \"contracts/lens/QuoterV2_flattened.sol\":71325:71382  if (params.sqrtPriceLimitX96 == 0) delete amountOutCached */\n    tag_87:\n        /* \"contracts/lens/QuoterV2_flattened.sol\":71418:71457  handleRevert(reason, pool, gasEstimate) */\n      tag_88\n        /* \"contracts/lens/QuoterV2_flattened.sol\":71431:71437  reason */\n      dup2\n        /* \"contracts/lens/QuoterV2_flattened.sol\":71439:71443  pool */\n      dup5\n        /* \"contracts/lens/QuoterV2_flattened.sol\":71445:71456  gasEstimate */\n      dup8\n        /* \"contracts/lens/QuoterV2_flattened.sol\":71418:71430  handleRevert */\n      tag_89\n        /* \"contracts/lens/QuoterV2_flattened.sol\":71418:71457  handleRevert(reason, pool, gasEstimate) */\n      jump\t// in\n    tag_88:\n        /* \"contracts/lens/QuoterV2_flattened.sol\":71411:71457  return handleRevert(reason, pool, gasEstimate) */\n      swap8\n      pop\n      swap8\n      pop\n      swap8\n      pop\n      swap8\n      pop\n      pop\n      pop\n      pop\n      pop\n      jump(tag_64)\n        /* \"contracts/lens/QuoterV2_flattened.sol\":70763:71468  try... */\n    tag_82:\n      pop\n      pop\n        /* \"contracts/lens/QuoterV2_flattened.sol\":70099:71474  function quoteExactOutputSingle(QuoteExactOutputSingleParams memory params)... */\n      pop\n      pop\n      pop\n    tag_64:\n      swap2\n      swap4\n      pop\n      swap2\n      swap4\n      jump\t// out\n        /* \"contracts/lens/QuoterV2_flattened.sol\":9548:9589  address public immutable override factory */\n    tag_28:\n      immutable(\"0x6b88fa438cae5c1216aa45b8d58426fb848d0ea4056264a8a6a1dd473ff0fc05\")\n      dup2\n      jump\t// out\n        /* \"contracts/lens/QuoterV2_flattened.sol\":67365:68469  function quoteExactInputSingle(QuoteExactInputSingleParams memory params)... */\n    tag_33:\n        /* \"contracts/lens/QuoterV2_flattened.sol\":67694:67709  params.tokenOut */\n      0x20\n      dup2\n      add\n      mload\n        /* \"contracts/lens/QuoterV2_flattened.sol\":67677:67691  params.tokenIn */\n      dup2\n      mload\n        /* \"contracts/lens/QuoterV2_flattened.sol\":67782:67792  params.fee */\n      0x60\n      dup4\n      add\n      mload\n        /* \"contracts/lens/QuoterV2_flattened.sol\":67501:67518  uint256 amountOut */\n      0x00\n      swap3\n      dup4\n      swap3\n      dup4\n      swap3\n      dup4\n      swap3\n      sub(shl(0xa0, 0x01), 0x01)\n        /* \"contracts/lens/QuoterV2_flattened.sol\":67677:67709  params.tokenIn < params.tokenOut */\n      dup1\n      dup3\n      and\n      swap1\n      dup5\n      and\n      lt\n      swap3\n        /* \"contracts/lens/QuoterV2_flattened.sol\":67501:67518  uint256 amountOut */\n      dup5\n      swap3\n        /* \"contracts/lens/QuoterV2_flattened.sol\":67741:67793  getPool(params.tokenIn, params.tokenOut, params.fee) */\n      tag_92\n      swap3\n        /* \"contracts/lens/QuoterV2_flattened.sol\":67694:67709  params.tokenOut */\n      swap1\n        /* \"contracts/lens/QuoterV2_flattened.sol\":67741:67748  getPool */\n      tag_66\n        /* \"contracts/lens/QuoterV2_flattened.sol\":67741:67793  getPool(params.tokenIn, params.tokenOut, params.fee) */\n      jump\t// in\n    tag_92:\n        /* \"contracts/lens/QuoterV2_flattened.sol\":67719:67793  IUniswapV3Pool pool = getPool(params.tokenIn, params.tokenOut, params.fee) */\n      swap1\n      pop\n        /* \"contracts/lens/QuoterV2_flattened.sol\":67804:67821  uint256 gasBefore */\n      0x00\n        /* \"contracts/lens/QuoterV2_flattened.sol\":67824:67833  gasleft() */\n      gas\n        /* \"contracts/lens/QuoterV2_flattened.sol\":67804:67833  uint256 gasBefore = gasleft() */\n      swap1\n      pop\n        /* \"contracts/lens/QuoterV2_flattened.sol\":67859:67863  pool */\n      dup2\n      sub(shl(0xa0, 0x01), 0x01)\n        /* \"contracts/lens/QuoterV2_flattened.sol\":67859:67868  pool.swap */\n      and\n      0x128acb08\n        /* \"contracts/lens/QuoterV2_flattened.sol\":67894:67898  this */\n      address\n        /* \"contracts/lens/QuoterV2_flattened.sol\":67967:67977  zeroForOne */\n      dup6\n        /* \"contracts/lens/QuoterV2_flattened.sol\":67995:68021  params.amountIn.toInt256() */\n      tag_93\n        /* \"contracts/lens/QuoterV2_flattened.sol\":67995:68001  params */\n      dup13\n        /* \"contracts/lens/QuoterV2_flattened.sol\":67995:68010  params.amountIn */\n      0x40\n      add\n      mload\n        /* \"contracts/lens/QuoterV2_flattened.sol\":67995:68019  params.amountIn.toInt256 */\n      tag_69\n        /* \"contracts/lens/QuoterV2_flattened.sol\":67995:68021  params.amountIn.toInt256() */\n      jump\t// in\n    tag_93:\n        /* \"contracts/lens/QuoterV2_flattened.sol\":68039:68063  params.sqrtPriceLimitX96 */\n      0x80\n      dup14\n      add\n      mload\n      sub(shl(0xa0, 0x01), 0x01)\n        /* \"contracts/lens/QuoterV2_flattened.sol\":68039:68068  params.sqrtPriceLimitX96 == 0 */\n      and\n      iszero\n        /* \"contracts/lens/QuoterV2_flattened.sol\":68039:68210  params.sqrtPriceLimitX96 == 0... */\n      tag_94\n      jumpi\n        /* \"contracts/lens/QuoterV2_flattened.sol\":68186:68192  params */\n      dup13\n        /* \"contracts/lens/QuoterV2_flattened.sol\":68186:68210  params.sqrtPriceLimitX96 */\n      0x80\n      add\n      mload\n        /* \"contracts/lens/QuoterV2_flattened.sol\":68039:68210  params.sqrtPriceLimitX96 == 0... */\n      jump(tag_97)\n    tag_94:\n        /* \"contracts/lens/QuoterV2_flattened.sol\":68092:68102  zeroForOne */\n      dup8\n        /* \"contracts/lens/QuoterV2_flattened.sol\":68092:68162  zeroForOne ? TickMath.MIN_SQRT_RATIO + 1 : TickMath.MAX_SQRT_RATIO - 1 */\n      tag_96\n      jumpi\n        /* \"contracts/lens/QuoterV2_flattened.sol\":68135:68162  TickMath.MAX_SQRT_RATIO - 1 */\n      0xfffd8963efd1fc6a506488495d951d5263988d25\n        /* \"contracts/lens/QuoterV2_flattened.sol\":68092:68162  zeroForOne ? TickMath.MIN_SQRT_RATIO + 1 : TickMath.MAX_SQRT_RATIO - 1 */\n      jump(tag_97)\n    tag_96:\n        /* \"contracts/lens/QuoterV2_flattened.sol\":68105:68132  TickMath.MIN_SQRT_RATIO + 1 */\n      0x01000276a4\n        /* \"contracts/lens/QuoterV2_flattened.sol\":68092:68162  zeroForOne ? TickMath.MIN_SQRT_RATIO + 1 : TickMath.MAX_SQRT_RATIO - 1 */\n    tag_97:\n        /* \"contracts/lens/QuoterV2_flattened.sol\":68245:68251  params */\n      dup14\n        /* \"contracts/lens/QuoterV2_flattened.sol\":68245:68259  params.tokenIn */\n      0x00\n      add\n      mload\n        /* \"contracts/lens/QuoterV2_flattened.sol\":68261:68267  params */\n      dup15\n        /* \"contracts/lens/QuoterV2_flattened.sol\":68261:68271  params.fee */\n      0x60\n      add\n      mload\n        /* \"contracts/lens/QuoterV2_flattened.sol\":68273:68279  params */\n      dup16\n        /* \"contracts/lens/QuoterV2_flattened.sol\":68273:68288  params.tokenOut */\n      0x20\n      add\n      mload\n        /* \"contracts/lens/QuoterV2_flattened.sol\":68228:68289  abi.encodePacked(params.tokenIn, params.fee, params.tokenOut) */\n      add(0x20, mload(0x40))\n      tag_98\n      swap4\n      swap3\n      swap2\n      swap1\n      tag_75\n      jump\t// in\n    tag_98:\n      mload(0x40)\n      0x20\n      dup2\n      dup4\n      sub\n      sub\n      dup2\n      mstore\n      swap1\n      0x40\n      mstore\n        /* \"contracts/lens/QuoterV2_flattened.sol\":67859:68303  pool.swap(... */\n      mload(0x40)\n      dup7\n      0xffffffff\n      and\n      0xe0\n      shl\n      dup2\n      mstore\n      0x04\n      add\n      tag_99\n      swap6\n      swap5\n      swap4\n      swap3\n      swap2\n      swap1\n      tag_77\n      jump\t// in\n    tag_99:\n      0x40\n      dup1\n      mload\n      dup1\n      dup4\n      sub\n      dup2\n      0x00\n      dup8\n      dup1\n      extcodesize\n      iszero\n      dup1\n      iszero\n      tag_100\n      jumpi\n      0x00\n      dup1\n      revert\n    tag_100:\n      pop\n      gas\n      call\n      swap3\n      pop\n      pop\n      pop\n      dup1\n      iszero\n      tag_101\n      jumpi\n      pop\n      0x40\n      dup1\n      mload\n      0x1f\n      returndatasize\n      swap1\n      dup2\n      add\n      not(0x1f)\n      and\n      dup3\n      add\n      swap1\n      swap3\n      mstore\n      tag_102\n      swap2\n      dup2\n      add\n      swap1\n      tag_81\n      jump\t// in\n    tag_102:\n      0x01\n    tag_101:\n        /* \"contracts/lens/QuoterV2_flattened.sol\":67843:68463  try... */\n      tag_82\n      jumpi\n      returndatasize\n      dup1\n      dup1\n      iszero\n      tag_107\n      jumpi\n      mload(0x40)\n      swap2\n      pop\n      and(add(returndatasize, 0x3f), not(0x1f))\n      dup3\n      add\n      0x40\n      mstore\n      returndatasize\n      dup3\n      mstore\n      returndatasize\n      0x00\n      0x20\n      dup5\n      add\n      returndatacopy\n      jump(tag_106)\n    tag_107:\n      0x60\n      swap2\n      pop\n    tag_106:\n      pop\n        /* \"contracts/lens/QuoterV2_flattened.sol\":68383:68392  gasleft() */\n      gas\n        /* \"contracts/lens/QuoterV2_flattened.sol\":68371:68380  gasBefore */\n      dup3\n        /* \"contracts/lens/QuoterV2_flattened.sol\":68371:68392  gasBefore - gasleft() */\n      sub\n        /* \"contracts/lens/QuoterV2_flattened.sol\":68357:68392  gasEstimate = gasBefore - gasleft() */\n      swap5\n      pop\n        /* \"contracts/lens/QuoterV2_flattened.sol\":68413:68452  handleRevert(reason, pool, gasEstimate) */\n      tag_88\n        /* \"contracts/lens/QuoterV2_flattened.sol\":68426:68432  reason */\n      dup2\n        /* \"contracts/lens/QuoterV2_flattened.sol\":68434:68438  pool */\n      dup5\n        /* \"contracts/lens/QuoterV2_flattened.sol\":68440:68451  gasEstimate */\n      dup8\n        /* \"contracts/lens/QuoterV2_flattened.sol\":68413:68425  handleRevert */\n      tag_89\n        /* \"contracts/lens/QuoterV2_flattened.sol\":68413:68452  handleRevert(reason, pool, gasEstimate) */\n      jump\t// in\n        /* \"contracts/lens/QuoterV2_flattened.sol\":68475:70093  function quoteExactInput(bytes memory path, uint256 amountIn)... */\n    tag_37:\n        /* \"contracts/lens/QuoterV2_flattened.sol\":68599:68616  uint256 amountOut */\n      0x00\n        /* \"contracts/lens/QuoterV2_flattened.sol\":68630:68668  uint160[] memory sqrtPriceX96AfterList */\n      0x60\n        /* \"contracts/lens/QuoterV2_flattened.sol\":68682:68725  uint32[] memory initializedTicksCrossedList */\n      dup1\n        /* \"contracts/lens/QuoterV2_flattened.sol\":68739:68758  uint256 gasEstimate */\n      0x00\n        /* \"contracts/lens/QuoterV2_flattened.sol\":68821:68836  path.numPools() */\n      tag_111\n        /* \"contracts/lens/QuoterV2_flattened.sol\":68821:68825  path */\n      dup7\n        /* \"contracts/lens/QuoterV2_flattened.sol\":68821:68834  path.numPools */\n      tag_45\n        /* \"contracts/lens/QuoterV2_flattened.sol\":68821:68836  path.numPools() */\n      jump\t// in\n    tag_111:\n        /* \"contracts/lens/QuoterV2_flattened.sol\":68807:68837  new uint160[](path.numPools()) */\n      0xffffffffffffffff\n      dup2\n      gt\n      dup1\n      iszero\n      tag_112\n      jumpi\n      0x00\n      dup1\n      revert\n    tag_112:\n      pop\n      mload(0x40)\n      swap1\n      dup1\n      dup3\n      mstore\n      dup1\n      0x20\n      mul\n      0x20\n      add\n      dup3\n      add\n      0x40\n      mstore\n      dup1\n      iszero\n      tag_113\n      jumpi\n      dup2\n      0x20\n      add\n      0x20\n      dup3\n      mul\n      dup1\n      calldatasize\n      dup4\n      calldatacopy\n      add\n      swap1\n      pop\n    tag_113:\n      pop\n        /* \"contracts/lens/QuoterV2_flattened.sol\":68783:68837  sqrtPriceX96AfterList = new uint160[](path.numPools()) */\n      swap3\n      pop\n        /* \"contracts/lens/QuoterV2_flattened.sol\":68890:68905  path.numPools() */\n      tag_114\n        /* \"contracts/lens/QuoterV2_flattened.sol\":68890:68894  path */\n      dup7\n        /* \"contracts/lens/QuoterV2_flattened.sol\":68890:68903  path.numPools */\n      tag_45\n        /* \"contracts/lens/QuoterV2_flattened.sol\":68890:68905  path.numPools() */\n      jump\t// in\n    tag_114:\n        /* \"contracts/lens/QuoterV2_flattened.sol\":68877:68906  new uint32[](path.numPools()) */\n      0xffffffffffffffff\n      dup2\n      gt\n      dup1\n      iszero\n      tag_115\n      jumpi\n      0x00\n      dup1\n      revert\n    tag_115:\n      pop\n      mload(0x40)\n      swap1\n      dup1\n      dup3\n      mstore\n      dup1\n      0x20\n      mul\n      0x20\n      add\n      dup3\n      add\n      0x40\n      mstore\n      dup1\n      iszero\n      tag_116\n      jumpi\n      dup2\n      0x20\n      add\n      0x20\n      dup3\n      mul\n      dup1\n      calldatasize\n      dup4\n      calldatacopy\n      add\n      swap1\n      pop\n    tag_116:\n      pop\n        /* \"contracts/lens/QuoterV2_flattened.sol\":68847:68906  initializedTicksCrossedList = new uint32[](path.numPools()) */\n      swap2\n      pop\n        /* \"contracts/lens/QuoterV2_flattened.sol\":68917:68926  uint256 i */\n      0x00\n        /* \"contracts/lens/QuoterV2_flattened.sol\":68940:70087  while (true) {... */\n    tag_117:\n        /* \"contracts/lens/QuoterV2_flattened.sol\":68968:68983  address tokenIn */\n      0x00\n        /* \"contracts/lens/QuoterV2_flattened.sol\":68985:69001  address tokenOut */\n      dup1\n        /* \"contracts/lens/QuoterV2_flattened.sol\":69003:69013  uint24 fee */\n      0x00\n        /* \"contracts/lens/QuoterV2_flattened.sol\":69017:69039  path.decodeFirstPool() */\n      tag_119\n        /* \"contracts/lens/QuoterV2_flattened.sol\":69017:69021  path */\n      dup11\n        /* \"contracts/lens/QuoterV2_flattened.sol\":69017:69037  path.decodeFirstPool */\n      tag_54\n        /* \"contracts/lens/QuoterV2_flattened.sol\":69017:69039  path.decodeFirstPool() */\n      jump\t// in\n    tag_119:\n        /* \"contracts/lens/QuoterV2_flattened.sol\":68967:69039  (address tokenIn, address tokenOut, uint24 fee) = path.decodeFirstPool() */\n      swap3\n      pop\n      swap3\n      pop\n      swap3\n      pop\n        /* \"contracts/lens/QuoterV2_flattened.sol\":69134:69152  uint256 _amountOut */\n      0x00\n        /* \"contracts/lens/QuoterV2_flattened.sol\":69154:69180  uint160 _sqrtPriceX96After */\n      dup1\n        /* \"contracts/lens/QuoterV2_flattened.sol\":69182:69213  uint32 _initializedTicksCrossed */\n      0x00\n        /* \"contracts/lens/QuoterV2_flattened.sol\":69215:69235  uint256 _gasEstimate */\n      dup1\n        /* \"contracts/lens/QuoterV2_flattened.sol\":69255:69577  quoteExactInputSingle(... */\n      tag_120\n        /* \"contracts/lens/QuoterV2_flattened.sol\":69298:69559  QuoteExactInputSingleParams({... */\n      mload(0x40)\n      dup1\n      0xa0\n      add\n      0x40\n      mstore\n      dup1\n        /* \"contracts/lens/QuoterV2_flattened.sol\":69361:69368  tokenIn */\n      dup10\n      sub(shl(0xa0, 0x01), 0x01)\n        /* \"contracts/lens/QuoterV2_flattened.sol\":69298:69559  QuoteExactInputSingleParams({... */\n      and\n      dup2\n      mstore\n      0x20\n      add\n        /* \"contracts/lens/QuoterV2_flattened.sol\":69404:69412  tokenOut */\n      dup9\n      sub(shl(0xa0, 0x01), 0x01)\n        /* \"contracts/lens/QuoterV2_flattened.sol\":69298:69559  QuoteExactInputSingleParams({... */\n      and\n      dup2\n      mstore\n      0x20\n      add\n        /* \"contracts/lens/QuoterV2_flattened.sol\":69482:69490  amountIn */\n      dup16\n        /* \"contracts/lens/QuoterV2_flattened.sol\":69298:69559  QuoteExactInputSingleParams({... */\n      dup2\n      mstore\n      0x20\n      add\n        /* \"contracts/lens/QuoterV2_flattened.sol\":69443:69446  fee */\n      dup8\n        /* \"contracts/lens/QuoterV2_flattened.sol\":69298:69559  QuoteExactInputSingleParams({... */\n      0xffffff\n      and\n      dup2\n      mstore\n      0x20\n      add\n        /* \"contracts/lens/QuoterV2_flattened.sol\":69535:69536  0 */\n      0x00\n      sub(shl(0xa0, 0x01), 0x01)\n        /* \"contracts/lens/QuoterV2_flattened.sol\":69298:69559  QuoteExactInputSingleParams({... */\n      and\n      dup2\n      mstore\n      pop\n        /* \"contracts/lens/QuoterV2_flattened.sol\":69255:69276  quoteExactInputSingle */\n      tag_33\n        /* \"contracts/lens/QuoterV2_flattened.sol\":69255:69577  quoteExactInputSingle(... */\n      jump\t// in\n    tag_120:\n        /* \"contracts/lens/QuoterV2_flattened.sol\":69133:69577  (uint256 _amountOut, uint160 _sqrtPriceX96After, uint32 _initializedTicksCrossed, uint256 _gasEstimate) =... */\n      swap4\n      pop\n      swap4\n      pop\n      swap4\n      pop\n      swap4\n      pop\n        /* \"contracts/lens/QuoterV2_flattened.sol\":69619:69637  _sqrtPriceX96After */\n      dup3\n        /* \"contracts/lens/QuoterV2_flattened.sol\":69592:69613  sqrtPriceX96AfterList */\n      dup12\n        /* \"contracts/lens/QuoterV2_flattened.sol\":69614:69615  i */\n      dup10\n        /* \"contracts/lens/QuoterV2_flattened.sol\":69592:69616  sqrtPriceX96AfterList[i] */\n      dup2\n      mload\n      dup2\n      lt\n      tag_121\n      jumpi\n      invalid\n    tag_121:\n      0x20\n      mul\n      0x20\n      add\n      add\n        /* \"contracts/lens/QuoterV2_flattened.sol\":69592:69637  sqrtPriceX96AfterList[i] = _sqrtPriceX96After */\n      swap1\n      sub(shl(0xa0, 0x01), 0x01)\n      and\n      swap1\n      dup2\n      sub(shl(0xa0, 0x01), 0x01)\n      and\n      dup2\n      mstore\n      pop\n      pop\n        /* \"contracts/lens/QuoterV2_flattened.sol\":69684:69708  _initializedTicksCrossed */\n      dup2\n        /* \"contracts/lens/QuoterV2_flattened.sol\":69651:69678  initializedTicksCrossedList */\n      dup11\n        /* \"contracts/lens/QuoterV2_flattened.sol\":69679:69680  i */\n      dup10\n        /* \"contracts/lens/QuoterV2_flattened.sol\":69651:69681  initializedTicksCrossedList[i] */\n      dup2\n      mload\n      dup2\n      lt\n      tag_122\n      jumpi\n      invalid\n    tag_122:\n        /* \"contracts/lens/QuoterV2_flattened.sol\":69651:69708  initializedTicksCrossedList[i] = _initializedTicksCrossed */\n      0xffffffff\n      swap1\n      swap3\n      and\n        /* \"contracts/lens/QuoterV2_flattened.sol\":69651:69681  initializedTicksCrossedList[i] */\n      0x20\n      swap3\n      dup4\n      mul\n      swap2\n      swap1\n      swap2\n      add\n      swap1\n      swap2\n      add\n        /* \"contracts/lens/QuoterV2_flattened.sol\":69651:69708  initializedTicksCrossedList[i] = _initializedTicksCrossed */\n      mstore\n        /* \"contracts/lens/QuoterV2_flattened.sol\":69733:69743  _amountOut */\n      swap3\n      swap12\n      pop\n        /* \"contracts/lens/QuoterV2_flattened.sol\":69757:69784  gasEstimate += _gasEstimate */\n      swap7\n      dup3\n      add\n      swap7\n        /* \"contracts/lens/QuoterV2_flattened.sol\":69798:69801  i++ */\n      0x01\n      swap1\n      swap7\n      add\n      swap6\n        /* \"contracts/lens/QuoterV2_flattened.sol\":69733:69743  _amountOut */\n      dup12\n      swap3\n        /* \"contracts/lens/QuoterV2_flattened.sol\":69875:69898  path.hasMultiplePools() */\n      tag_123\n        /* \"contracts/lens/QuoterV2_flattened.sol\":69875:69879  path */\n      dup15\n        /* \"contracts/lens/QuoterV2_flattened.sol\":69875:69896  path.hasMultiplePools */\n      tag_59\n        /* \"contracts/lens/QuoterV2_flattened.sol\":69875:69898  path.hasMultiplePools() */\n      jump\t// in\n    tag_123:\n        /* \"contracts/lens/QuoterV2_flattened.sol\":69871:70077  if (path.hasMultiplePools()) {... */\n      iszero\n      tag_60\n      jumpi\n        /* \"contracts/lens/QuoterV2_flattened.sol\":69925:69941  path.skipToken() */\n      tag_125\n        /* \"contracts/lens/QuoterV2_flattened.sol\":69925:69929  path */\n      dup15\n        /* \"contracts/lens/QuoterV2_flattened.sol\":69925:69939  path.skipToken */\n      tag_62\n        /* \"contracts/lens/QuoterV2_flattened.sol\":69925:69941  path.skipToken() */\n      jump\t// in\n    tag_125:\n        /* \"contracts/lens/QuoterV2_flattened.sol\":69918:69941  path = path.skipToken() */\n      swap14\n      pop\n        /* \"contracts/lens/QuoterV2_flattened.sol\":68940:70087  while (true) {... */\n      pop\n      pop\n      pop\n      pop\n      pop\n      pop\n      pop\n      jump(tag_117)\n        /* \"contracts/lens/QuoterV2_flattened.sol\":64489:66094  function uniswapV3SwapCallback(... */\n    tag_42:\n        /* \"contracts/lens/QuoterV2_flattened.sol\":64667:64668  0 */\n      0x00\n        /* \"contracts/lens/QuoterV2_flattened.sol\":64652:64664  amount0Delta */\n      dup4\n        /* \"contracts/lens/QuoterV2_flattened.sol\":64652:64668  amount0Delta > 0 */\n      sgt\n        /* \"contracts/lens/QuoterV2_flattened.sol\":64652:64688  amount0Delta > 0 || amount1Delta > 0 */\n      dup1\n      tag_128\n      jumpi\n      pop\n        /* \"contracts/lens/QuoterV2_flattened.sol\":64687:64688  0 */\n      0x00\n        /* \"contracts/lens/QuoterV2_flattened.sol\":64672:64684  amount1Delta */\n      dup3\n        /* \"contracts/lens/QuoterV2_flattened.sol\":64672:64688  amount1Delta > 0 */\n      sgt\n        /* \"contracts/lens/QuoterV2_flattened.sol\":64652:64688  amount0Delta > 0 || amount1Delta > 0 */\n    tag_128:\n        /* \"contracts/lens/QuoterV2_flattened.sol\":64644:64689  require(amount0Delta > 0 || amount1Delta > 0) */\n      tag_129\n      jumpi\n      0x00\n      dup1\n      revert\n    tag_129:\n        /* \"contracts/lens/QuoterV2_flattened.sol\":64763:64778  address tokenIn */\n      0x00\n        /* \"contracts/lens/QuoterV2_flattened.sol\":64780:64796  address tokenOut */\n      dup1\n        /* \"contracts/lens/QuoterV2_flattened.sol\":64798:64808  uint24 fee */\n      0x00\n        /* \"contracts/lens/QuoterV2_flattened.sol\":64812:64834  path.decodeFirstPool() */\n      tag_130\n        /* \"contracts/lens/QuoterV2_flattened.sol\":64812:64816  path */\n      dup5\n        /* \"contracts/lens/QuoterV2_flattened.sol\":64812:64832  path.decodeFirstPool */\n      tag_54\n        /* \"contracts/lens/QuoterV2_flattened.sol\":64812:64834  path.decodeFirstPool() */\n      jump\t// in\n    tag_130:\n        /* \"contracts/lens/QuoterV2_flattened.sol\":64762:64834  (address tokenIn, address tokenOut, uint24 fee) = path.decodeFirstPool() */\n      swap3\n      pop\n      swap3\n      pop\n      swap3\n      pop\n        /* \"contracts/lens/QuoterV2_flattened.sol\":64844:64910  CallbackValidation.verifyCallback(factory, tokenIn, tokenOut, fee) */\n      tag_131\n        /* \"contracts/lens/QuoterV2_flattened.sol\":64878:64885  factory */\n      immutable(\"0x6b88fa438cae5c1216aa45b8d58426fb848d0ea4056264a8a6a1dd473ff0fc05\")\n        /* \"contracts/lens/QuoterV2_flattened.sol\":64887:64894  tokenIn */\n      dup5\n        /* \"contracts/lens/QuoterV2_flattened.sol\":64896:64904  tokenOut */\n      dup5\n        /* \"contracts/lens/QuoterV2_flattened.sol\":64906:64909  fee */\n      dup5\n        /* \"contracts/lens/QuoterV2_flattened.sol\":64844:64877  CallbackValidation.verifyCallback */\n      tag_132\n        /* \"contracts/lens/QuoterV2_flattened.sol\":64844:64910  CallbackValidation.verifyCallback(factory, tokenIn, tokenOut, fee) */\n      jump\t// in\n    tag_131:\n      pop\n        /* \"contracts/lens/QuoterV2_flattened.sol\":64922:64939  bool isExactInput */\n      0x00\n        /* \"contracts/lens/QuoterV2_flattened.sol\":64941:64960  uint256 amountToPay */\n      dup1\n        /* \"contracts/lens/QuoterV2_flattened.sol\":64962:64984  uint256 amountReceived */\n      0x00\n        /* \"contracts/lens/QuoterV2_flattened.sol\":65015:65016  0 */\n      dup1\n        /* \"contracts/lens/QuoterV2_flattened.sol\":65000:65012  amount0Delta */\n      dup10\n        /* \"contracts/lens/QuoterV2_flattened.sol\":65000:65016  amount0Delta > 0 */\n      sgt\n        /* \"contracts/lens/QuoterV2_flattened.sol\":65000:65188  amount0Delta > 0... */\n      tag_133\n      jumpi\n        /* \"contracts/lens/QuoterV2_flattened.sol\":65133:65140  tokenIn */\n      dup6\n      sub(shl(0xa0, 0x01), 0x01)\n        /* \"contracts/lens/QuoterV2_flattened.sol\":65122:65140  tokenOut < tokenIn */\n      and\n        /* \"contracts/lens/QuoterV2_flattened.sol\":65122:65130  tokenOut */\n      dup6\n      sub(shl(0xa0, 0x01), 0x01)\n        /* \"contracts/lens/QuoterV2_flattened.sol\":65122:65140  tokenOut < tokenIn */\n      and\n      lt\n        /* \"contracts/lens/QuoterV2_flattened.sol\":65150:65162  amount1Delta */\n      dup9\n        /* \"contracts/lens/QuoterV2_flattened.sol\":65174:65186  amount0Delta */\n      dup11\n        /* \"contracts/lens/QuoterV2_flattened.sol\":65173:65186  -amount0Delta */\n      0x00\n      sub\n        /* \"contracts/lens/QuoterV2_flattened.sol\":65000:65188  amount0Delta > 0... */\n      jump(tag_134)\n    tag_133:\n        /* \"contracts/lens/QuoterV2_flattened.sol\":65046:65054  tokenOut */\n      dup5\n      sub(shl(0xa0, 0x01), 0x01)\n        /* \"contracts/lens/QuoterV2_flattened.sol\":65036:65054  tokenIn < tokenOut */\n      and\n        /* \"contracts/lens/QuoterV2_flattened.sol\":65036:65043  tokenIn */\n      dup7\n      sub(shl(0xa0, 0x01), 0x01)\n        /* \"contracts/lens/QuoterV2_flattened.sol\":65036:65054  tokenIn < tokenOut */\n      and\n      lt\n        /* \"contracts/lens/QuoterV2_flattened.sol\":65064:65076  amount0Delta */\n      dup10\n        /* \"contracts/lens/QuoterV2_flattened.sol\":65088:65100  amount1Delta */\n      dup10\n        /* \"contracts/lens/QuoterV2_flattened.sol\":65087:65100  -amount1Delta */\n      0x00\n      sub\n        /* \"contracts/lens/QuoterV2_flattened.sol\":65000:65188  amount0Delta > 0... */\n    tag_134:\n        /* \"contracts/lens/QuoterV2_flattened.sol\":64921:65188  (bool isExactInput, uint256 amountToPay, uint256 amountReceived) =... */\n      swap3\n      pop\n      swap3\n      pop\n      swap3\n      pop\n        /* \"contracts/lens/QuoterV2_flattened.sol\":65199:65218  IUniswapV3Pool pool */\n      0x00\n        /* \"contracts/lens/QuoterV2_flattened.sol\":65221:65252  getPool(tokenIn, tokenOut, fee) */\n      tag_135\n        /* \"contracts/lens/QuoterV2_flattened.sol\":65229:65236  tokenIn */\n      dup8\n        /* \"contracts/lens/QuoterV2_flattened.sol\":65238:65246  tokenOut */\n      dup8\n        /* \"contracts/lens/QuoterV2_flattened.sol\":65248:65251  fee */\n      dup8\n        /* \"contracts/lens/QuoterV2_flattened.sol\":65221:65228  getPool */\n      tag_66\n        /* \"contracts/lens/QuoterV2_flattened.sol\":65221:65252  getPool(tokenIn, tokenOut, fee) */\n      jump\t// in\n    tag_135:\n        /* \"contracts/lens/QuoterV2_flattened.sol\":65199:65252  IUniswapV3Pool pool = getPool(tokenIn, tokenOut, fee) */\n      swap1\n      pop\n        /* \"contracts/lens/QuoterV2_flattened.sol\":65263:65288  uint160 sqrtPriceX96After */\n      0x00\n        /* \"contracts/lens/QuoterV2_flattened.sol\":65290:65305  int24 tickAfter */\n      dup1\n        /* \"contracts/lens/QuoterV2_flattened.sol\":65319:65323  pool */\n      dup3\n      sub(shl(0xa0, 0x01), 0x01)\n        /* \"contracts/lens/QuoterV2_flattened.sol\":65319:65329  pool.slot0 */\n      and\n      0x3850c7bd\n        /* \"contracts/lens/QuoterV2_flattened.sol\":65319:65331  pool.slot0() */\n      mload(0x40)\n      dup2\n      0xffffffff\n      and\n      0xe0\n      shl\n      dup2\n      mstore\n      0x04\n      add\n      0xe0\n      mload(0x40)\n      dup1\n      dup4\n      sub\n      dup2\n      dup7\n      dup1\n      extcodesize\n      iszero\n      dup1\n      iszero\n      tag_136\n      jumpi\n      0x00\n      dup1\n      revert\n    tag_136:\n      pop\n      gas\n      staticcall\n      iszero\n      dup1\n      iszero\n      tag_138\n      jumpi\n      returndatasize\n      0x00\n      dup1\n      returndatacopy\n      revert(0x00, returndatasize)\n    tag_138:\n      pop\n      pop\n      pop\n      pop\n      mload(0x40)\n      returndatasize\n      not(0x1f)\n      0x1f\n      dup3\n      add\n      and\n      dup3\n      add\n      dup1\n      0x40\n      mstore\n      pop\n      dup2\n      add\n      swap1\n      tag_139\n      swap2\n      swap1\n      tag_140\n      jump\t// in\n    tag_139:\n        /* \"contracts/lens/QuoterV2_flattened.sol\":65262:65331  (uint160 sqrtPriceX96After, int24 tickAfter, , , , , ) = pool.slot0() */\n      pop\n      pop\n      pop\n      pop\n      pop\n      swap2\n      pop\n      swap2\n      pop\n        /* \"contracts/lens/QuoterV2_flattened.sol\":65346:65358  isExactInput */\n      dup6\n        /* \"contracts/lens/QuoterV2_flattened.sol\":65342:66088  if (isExactInput) {... */\n      iszero\n      tag_141\n      jumpi\n        /* \"contracts/lens/QuoterV2_flattened.sol\":65418:65422  0x40 */\n      0x40\n        /* \"contracts/lens/QuoterV2_flattened.sol\":65412:65423  mload(0x40) */\n      mload\n        /* \"contracts/lens/QuoterV2_flattened.sol\":65452:65466  amountReceived */\n      dup5\n        /* \"contracts/lens/QuoterV2_flattened.sol\":65447:65450  ptr */\n      dup2\n        /* \"contracts/lens/QuoterV2_flattened.sol\":65440:65467  mstore(ptr, amountReceived) */\n      mstore\n        /* \"contracts/lens/QuoterV2_flattened.sol\":65507:65524  sqrtPriceX96After */\n      dup3\n        /* \"contracts/lens/QuoterV2_flattened.sol\":65500:65504  0x20 */\n      0x20\n        /* \"contracts/lens/QuoterV2_flattened.sol\":65495:65498  ptr */\n      dup3\n        /* \"contracts/lens/QuoterV2_flattened.sol\":65491:65505  add(ptr, 0x20) */\n      add\n        /* \"contracts/lens/QuoterV2_flattened.sol\":65484:65525  mstore(add(ptr, 0x20), sqrtPriceX96After) */\n      mstore\n        /* \"contracts/lens/QuoterV2_flattened.sol\":65565:65574  tickAfter */\n      dup2\n        /* \"contracts/lens/QuoterV2_flattened.sol\":65558:65562  0x40 */\n      0x40\n        /* \"contracts/lens/QuoterV2_flattened.sol\":65553:65556  ptr */\n      dup3\n        /* \"contracts/lens/QuoterV2_flattened.sol\":65549:65563  add(ptr, 0x40) */\n      add\n        /* \"contracts/lens/QuoterV2_flattened.sol\":65542:65575  mstore(add(ptr, 0x40), tickAfter) */\n      mstore\n        /* \"contracts/lens/QuoterV2_flattened.sol\":65604:65606  96 */\n      0x60\n        /* \"contracts/lens/QuoterV2_flattened.sol\":65599:65602  ptr */\n      dup2\n        /* \"contracts/lens/QuoterV2_flattened.sol\":65592:65607  revert(ptr, 96) */\n      revert\n        /* \"contracts/lens/QuoterV2_flattened.sol\":65383:65621  {... */\n    tag_141:\n        /* \"contracts/lens/QuoterV2_flattened.sol\":65756:65771  amountOutCached */\n      sload(0x00)\n        /* \"contracts/lens/QuoterV2_flattened.sol\":65756:65776  amountOutCached != 0 */\n      iszero\n        /* \"contracts/lens/QuoterV2_flattened.sol\":65752:65820  if (amountOutCached != 0) require(amountReceived == amountOutCached) */\n      tag_144\n      jumpi\n        /* \"contracts/lens/QuoterV2_flattened.sol\":65804:65819  amountOutCached */\n      sload(0x00)\n        /* \"contracts/lens/QuoterV2_flattened.sol\":65786:65800  amountReceived */\n      dup5\n        /* \"contracts/lens/QuoterV2_flattened.sol\":65786:65819  amountReceived == amountOutCached */\n      eq\n        /* \"contracts/lens/QuoterV2_flattened.sol\":65778:65820  require(amountReceived == amountOutCached) */\n      tag_144\n      jumpi\n      0x00\n      dup1\n      revert\n    tag_144:\n        /* \"contracts/lens/QuoterV2_flattened.sol\":65878:65882  0x40 */\n      0x40\n        /* \"contracts/lens/QuoterV2_flattened.sol\":65872:65883  mload(0x40) */\n      mload\n        /* \"contracts/lens/QuoterV2_flattened.sol\":65912:65923  amountToPay */\n      dup6\n        /* \"contracts/lens/QuoterV2_flattened.sol\":65907:65910  ptr */\n      dup2\n        /* \"contracts/lens/QuoterV2_flattened.sol\":65900:65924  mstore(ptr, amountToPay) */\n      mstore\n        /* \"contracts/lens/QuoterV2_flattened.sol\":65964:65981  sqrtPriceX96After */\n      dup3\n        /* \"contracts/lens/QuoterV2_flattened.sol\":65957:65961  0x20 */\n      0x20\n        /* \"contracts/lens/QuoterV2_flattened.sol\":65952:65955  ptr */\n      dup3\n        /* \"contracts/lens/QuoterV2_flattened.sol\":65948:65962  add(ptr, 0x20) */\n      add\n        /* \"contracts/lens/QuoterV2_flattened.sol\":65941:65982  mstore(add(ptr, 0x20), sqrtPriceX96After) */\n      mstore\n        /* \"contracts/lens/QuoterV2_flattened.sol\":66022:66031  tickAfter */\n      dup2\n        /* \"contracts/lens/QuoterV2_flattened.sol\":66015:66019  0x40 */\n      0x40\n        /* \"contracts/lens/QuoterV2_flattened.sol\":66010:66013  ptr */\n      dup3\n        /* \"contracts/lens/QuoterV2_flattened.sol\":66006:66020  add(ptr, 0x40) */\n      add\n        /* \"contracts/lens/QuoterV2_flattened.sol\":65999:66032  mstore(add(ptr, 0x40), tickAfter) */\n      mstore\n        /* \"contracts/lens/QuoterV2_flattened.sol\":66061:66063  96 */\n      0x60\n        /* \"contracts/lens/QuoterV2_flattened.sol\":66056:66059  ptr */\n      dup2\n        /* \"contracts/lens/QuoterV2_flattened.sol\":66049:66064  revert(ptr, 96) */\n      revert\n        /* \"contracts/lens/QuoterV2_flattened.sol\":7322:7557  function numPools(bytes memory path) internal pure returns (uint256) {... */\n    tag_45:\n        /* \"contracts/lens/QuoterV2_flattened.sol\":7511:7522  path.length */\n      dup1\n      mload\n        /* \"contracts/lens/QuoterV2_flattened.sol\":6547:6567  ADDR_SIZE + FEE_SIZE */\n      0x17\n      not(0x13)\n        /* \"contracts/lens/QuoterV2_flattened.sol\":7511:7534  path.length - ADDR_SIZE */\n      swap1\n      swap2\n      add\n        /* \"contracts/lens/QuoterV2_flattened.sol\":7510:7549  (path.length - ADDR_SIZE) / NEXT_OFFSET */\n      div\n        /* \"contracts/lens/QuoterV2_flattened.sol\":7322:7557  function numPools(bytes memory path) internal pure returns (uint256) {... */\n    tag_145:\n      swap2\n      swap1\n      pop\n      jump\t// out\n        /* \"contracts/lens/QuoterV2_flattened.sol\":7819:8133  function decodeFirstPool(bytes memory path)... */\n    tag_54:\n        /* \"contracts/lens/QuoterV2_flattened.sol\":7923:7937  address tokenA */\n      0x00\n      dup1\n      dup1\n        /* \"contracts/lens/QuoterV2_flattened.sol\":8023:8040  path.toAddress(0) */\n      tag_148\n        /* \"contracts/lens/QuoterV2_flattened.sol\":8023:8027  path */\n      dup5\n        /* \"contracts/lens/QuoterV2_flattened.sol\":7923:7937  address tokenA */\n      dup3\n        /* \"contracts/lens/QuoterV2_flattened.sol\":8023:8037  path.toAddress */\n      tag_149\n        /* \"contracts/lens/QuoterV2_flattened.sol\":8023:8040  path.toAddress(0) */\n      jump\t// in\n    tag_148:\n        /* \"contracts/lens/QuoterV2_flattened.sol\":8014:8040  tokenA = path.toAddress(0) */\n      swap3\n      pop\n        /* \"contracts/lens/QuoterV2_flattened.sol\":8056:8080  path.toUint24(ADDR_SIZE) */\n      tag_150\n        /* \"contracts/lens/QuoterV2_flattened.sol\":8056:8060  path */\n      dup5\n        /* \"contracts/lens/QuoterV2_flattened.sol\":6344:6346  20 */\n      0x14\n        /* \"contracts/lens/QuoterV2_flattened.sol\":8056:8069  path.toUint24 */\n      tag_151\n        /* \"contracts/lens/QuoterV2_flattened.sol\":8056:8080  path.toUint24(ADDR_SIZE) */\n      jump\t// in\n    tag_150:\n        /* \"contracts/lens/QuoterV2_flattened.sol\":8050:8080  fee = path.toUint24(ADDR_SIZE) */\n      swap1\n      pop\n        /* \"contracts/lens/QuoterV2_flattened.sol\":8099:8126  path.toAddress(NEXT_OFFSET) */\n      tag_152\n        /* \"contracts/lens/QuoterV2_flattened.sol\":8099:8103  path */\n      dup5\n        /* \"contracts/lens/QuoterV2_flattened.sol\":6547:6567  ADDR_SIZE + FEE_SIZE */\n      0x17\n        /* \"contracts/lens/QuoterV2_flattened.sol\":8099:8113  path.toAddress */\n      tag_149\n        /* \"contracts/lens/QuoterV2_flattened.sol\":8099:8126  path.toAddress(NEXT_OFFSET) */\n      jump\t// in\n    tag_152:\n        /* \"contracts/lens/QuoterV2_flattened.sol\":8090:8126  tokenB = path.toAddress(NEXT_OFFSET) */\n      swap2\n      pop\n        /* \"contracts/lens/QuoterV2_flattened.sol\":7819:8133  function decodeFirstPool(bytes memory path)... */\n      swap2\n      swap4\n      swap1\n      swap3\n      pop\n      jump\t// out\n        /* \"contracts/lens/QuoterV2_flattened.sol\":7032:7170  function hasMultiplePools(bytes memory path) internal pure returns (bool) {... */\n    tag_59:\n        /* \"contracts/lens/QuoterV2_flattened.sol\":7123:7134  path.length */\n      mload\n        /* \"contracts/lens/QuoterV2_flattened.sol\":6817:6841  POP_OFFSET + NEXT_OFFSET */\n      0x42\n      gt\n        /* \"contracts/lens/QuoterV2_flattened.sol\":7123:7163  path.length >= MULTIPLE_POOLS_MIN_LENGTH */\n      iszero\n      swap1\n        /* \"contracts/lens/QuoterV2_flattened.sol\":7032:7170  function hasMultiplePools(bytes memory path) internal pure returns (bool) {... */\n      jump\t// out\n        /* \"contracts/lens/QuoterV2_flattened.sol\":8675:8824  function skipToken(bytes memory path) internal pure returns (bytes memory) {... */\n    tag_62:\n        /* \"contracts/lens/QuoterV2_flattened.sol\":8791:8802  path.length */\n      dup1\n      mload\n        /* \"contracts/lens/QuoterV2_flattened.sol\":8736:8748  bytes memory */\n      0x60\n      swap1\n        /* \"contracts/lens/QuoterV2_flattened.sol\":8767:8817  path.slice(NEXT_OFFSET, path.length - NEXT_OFFSET) */\n      tag_155\n      swap1\n        /* \"contracts/lens/QuoterV2_flattened.sol\":8791:8795  path */\n      dup4\n      swap1\n        /* \"contracts/lens/QuoterV2_flattened.sol\":6547:6567  ADDR_SIZE + FEE_SIZE */\n      0x17\n      swap1\n      not(0x16)\n        /* \"contracts/lens/QuoterV2_flattened.sol\":8791:8816  path.length - NEXT_OFFSET */\n      add\n        /* \"contracts/lens/QuoterV2_flattened.sol\":8767:8777  path.slice */\n      tag_156\n        /* \"contracts/lens/QuoterV2_flattened.sol\":8767:8817  path.slice(NEXT_OFFSET, path.length - NEXT_OFFSET) */\n      jump\t// in\n    tag_155:\n        /* \"contracts/lens/QuoterV2_flattened.sol\":8760:8817  return path.slice(NEXT_OFFSET, path.length - NEXT_OFFSET) */\n      swap3\n        /* \"contracts/lens/QuoterV2_flattened.sol\":8675:8824  function skipToken(bytes memory path) internal pure returns (bytes memory) {... */\n      swap2\n      pop\n      pop\n      jump\t// out\n        /* \"contracts/lens/QuoterV2_flattened.sol\":64191:64440  function getPool(... */\n    tag_66:\n        /* \"contracts/lens/QuoterV2_flattened.sol\":64304:64318  IUniswapV3Pool */\n      0x00\n        /* \"contracts/lens/QuoterV2_flattened.sol\":64352:64432  PoolAddress.computeAddress(factory, PoolAddress.getPoolKey(tokenA, tokenB, fee)) */\n      tag_158\n        /* \"contracts/lens/QuoterV2_flattened.sol\":64379:64386  factory */\n      immutable(\"0x6b88fa438cae5c1216aa45b8d58426fb848d0ea4056264a8a6a1dd473ff0fc05\")\n        /* \"contracts/lens/QuoterV2_flattened.sol\":64388:64431  PoolAddress.getPoolKey(tokenA, tokenB, fee) */\n      tag_159\n        /* \"contracts/lens/QuoterV2_flattened.sol\":64411:64417  tokenA */\n      dup7\n        /* \"contracts/lens/QuoterV2_flattened.sol\":64419:64425  tokenB */\n      dup7\n        /* \"contracts/lens/QuoterV2_flattened.sol\":64427:64430  fee */\n      dup7\n        /* \"contracts/lens/QuoterV2_flattened.sol\":64388:64410  PoolAddress.getPoolKey */\n      tag_160\n        /* \"contracts/lens/QuoterV2_flattened.sol\":64388:64431  PoolAddress.getPoolKey(tokenA, tokenB, fee) */\n      jump\t// in\n    tag_159:\n        /* \"contracts/lens/QuoterV2_flattened.sol\":64352:64378  PoolAddress.computeAddress */\n      tag_161\n        /* \"contracts/lens/QuoterV2_flattened.sol\":64352:64432  PoolAddress.computeAddress(factory, PoolAddress.getPoolKey(tokenA, tokenB, fee)) */\n      jump\t// in\n    tag_158:\n        /* \"contracts/lens/QuoterV2_flattened.sol\":64330:64433  return IUniswapV3Pool(PoolAddress.computeAddress(factory, PoolAddress.getPoolKey(tokenA, tokenB, fee))) */\n      swap5\n        /* \"contracts/lens/QuoterV2_flattened.sol\":64191:64440  function getPool(... */\n      swap4\n      pop\n      pop\n      pop\n      pop\n      jump\t// out\n        /* \"contracts/lens/QuoterV2_flattened.sol\":63256:63377  function toInt256(uint256 y) internal pure returns (int256 z) {... */\n    tag_69:\n        /* \"contracts/lens/QuoterV2_flattened.sol\":63308:63316  int256 z */\n      0x00\n      shl(0xff, 0x01)\n        /* \"contracts/lens/QuoterV2_flattened.sol\":63336:63337  y */\n      dup3\n        /* \"contracts/lens/QuoterV2_flattened.sol\":63336:63346  y < 2**255 */\n      lt\n        /* \"contracts/lens/QuoterV2_flattened.sol\":63328:63347  require(y < 2**255) */\n      tag_163\n      jumpi\n      0x00\n      dup1\n      revert\n    tag_163:\n      pop\n        /* \"contracts/lens/QuoterV2_flattened.sol\":63368:63369  y */\n      swap1\n        /* \"contracts/lens/QuoterV2_flattened.sol\":63256:63377  function toInt256(uint256 y) internal pure returns (int256 z) {... */\n      jump\t// out\n        /* \"contracts/lens/QuoterV2_flattened.sol\":66693:67359  function handleRevert(... */\n    tag_89:\n        /* \"contracts/lens/QuoterV2_flattened.sol\":66867:66881  uint256 amount */\n      0x00\n        /* \"contracts/lens/QuoterV2_flattened.sol\":66895:66920  uint160 sqrtPriceX96After */\n      dup1\n        /* \"contracts/lens/QuoterV2_flattened.sol\":66934:66964  uint32 initializedTicksCrossed */\n      0x00\n        /* \"contracts/lens/QuoterV2_flattened.sol\":66978:66985  uint256 */\n      dup1\n        /* \"contracts/lens/QuoterV2_flattened.sol\":67010:67026  int24 tickBefore */\n      0x00\n        /* \"contracts/lens/QuoterV2_flattened.sol\":67036:67051  int24 tickAfter */\n      dup1\n        /* \"contracts/lens/QuoterV2_flattened.sol\":67088:67092  pool */\n      dup8\n      sub(shl(0xa0, 0x01), 0x01)\n        /* \"contracts/lens/QuoterV2_flattened.sol\":67088:67098  pool.slot0 */\n      and\n      0x3850c7bd\n        /* \"contracts/lens/QuoterV2_flattened.sol\":67088:67100  pool.slot0() */\n      mload(0x40)\n      dup2\n      0xffffffff\n      and\n      0xe0\n      shl\n      dup2\n      mstore\n      0x04\n      add\n      0xe0\n      mload(0x40)\n      dup1\n      dup4\n      sub\n      dup2\n      dup7\n      dup1\n      extcodesize\n      iszero\n      dup1\n      iszero\n      tag_165\n      jumpi\n      0x00\n      dup1\n      revert\n    tag_165:\n      pop\n      gas\n      staticcall\n      iszero\n      dup1\n      iszero\n      tag_167\n      jumpi\n      returndatasize\n      0x00\n      dup1\n      returndatacopy\n      revert(0x00, returndatasize)\n    tag_167:\n      pop\n      pop\n      pop\n      pop\n      mload(0x40)\n      returndatasize\n      not(0x1f)\n      0x1f\n      dup3\n      add\n      and\n      dup3\n      add\n      dup1\n      0x40\n      mstore\n      pop\n      dup2\n      add\n      swap1\n      tag_168\n      swap2\n      swap1\n      tag_140\n      jump\t// in\n    tag_168:\n      pop\n        /* \"contracts/lens/QuoterV2_flattened.sol\":67061:67100  (, tickBefore, , , , , ) = pool.slot0() */\n      swap4\n      swap7\n      pop\n        /* \"contracts/lens/QuoterV2_flattened.sol\":67151:67176  parseRevertReason(reason) */\n      tag_169\n      swap5\n      pop\n        /* \"contracts/lens/QuoterV2_flattened.sol\":67169:67175  reason */\n      dup14\n      swap4\n      pop\n        /* \"contracts/lens/QuoterV2_flattened.sol\":67151:67168  parseRevertReason */\n      tag_170\n      swap3\n      pop\n      pop\n      pop\n        /* \"contracts/lens/QuoterV2_flattened.sol\":67151:67176  parseRevertReason(reason) */\n      jump\t// in\n    tag_169:\n        /* \"contracts/lens/QuoterV2_flattened.sol\":67110:67176  (amount, sqrtPriceX96After, tickAfter) = parseRevertReason(reason) */\n      swap2\n      swap8\n      pop\n      swap6\n      pop\n      swap1\n      pop\n        /* \"contracts/lens/QuoterV2_flattened.sol\":67213:67269  pool.countInitializedTicksCrossed(tickBefore, tickAfter) */\n      tag_171\n      sub(shl(0xa0, 0x01), 0x01)\n        /* \"contracts/lens/QuoterV2_flattened.sol\":67213:67246  pool.countInitializedTicksCrossed */\n      dup10\n      and\n        /* \"contracts/lens/QuoterV2_flattened.sol\":67247:67257  tickBefore */\n      dup4\n        /* \"contracts/lens/QuoterV2_flattened.sol\":67110:67176  (amount, sqrtPriceX96After, tickAfter) = parseRevertReason(reason) */\n      dup4\n        /* \"contracts/lens/QuoterV2_flattened.sol\":67213:67246  pool.countInitializedTicksCrossed */\n      tag_172\n        /* \"contracts/lens/QuoterV2_flattened.sol\":67213:67269  pool.countInitializedTicksCrossed(tickBefore, tickAfter) */\n      jump\t// in\n    tag_171:\n        /* \"contracts/lens/QuoterV2_flattened.sol\":67187:67269  initializedTicksCrossed = pool.countInitializedTicksCrossed(tickBefore, tickAfter) */\n      swap4\n      pop\n        /* \"contracts/lens/QuoterV2_flattened.sol\":67340:67351  gasEstimate */\n      dup7\n      swap3\n      pop\n      pop\n      pop\n        /* \"contracts/lens/QuoterV2_flattened.sol\":66693:67359  function handleRevert(... */\n      swap4\n      pop\n      swap4\n      pop\n      swap4\n      pop\n      swap4\n      jump\t// out\n        /* \"contracts/lens/QuoterV2_flattened.sol\":45951:46210  function verifyCallback(... */\n    tag_132:\n        /* \"contracts/lens/QuoterV2_flattened.sol\":46097:46116  IUniswapV3Pool pool */\n      0x00\n        /* \"contracts/lens/QuoterV2_flattened.sol\":46135:46203  verifyCallback(factory, PoolAddress.getPoolKey(tokenA, tokenB, fee)) */\n      tag_174\n        /* \"contracts/lens/QuoterV2_flattened.sol\":46150:46157  factory */\n      dup6\n        /* \"contracts/lens/QuoterV2_flattened.sol\":46159:46202  PoolAddress.getPoolKey(tokenA, tokenB, fee) */\n      tag_175\n        /* \"contracts/lens/QuoterV2_flattened.sol\":46182:46188  tokenA */\n      dup7\n        /* \"contracts/lens/QuoterV2_flattened.sol\":46190:46196  tokenB */\n      dup7\n        /* \"contracts/lens/QuoterV2_flattened.sol\":46198:46201  fee */\n      dup7\n        /* \"contracts/lens/QuoterV2_flattened.sol\":46159:46181  PoolAddress.getPoolKey */\n      tag_160\n        /* \"contracts/lens/QuoterV2_flattened.sol\":46159:46202  PoolAddress.getPoolKey(tokenA, tokenB, fee) */\n      jump\t// in\n    tag_175:\n        /* \"contracts/lens/QuoterV2_flattened.sol\":46135:46149  verifyCallback */\n      tag_176\n        /* \"contracts/lens/QuoterV2_flattened.sol\":46135:46203  verifyCallback(factory, PoolAddress.getPoolKey(tokenA, tokenB, fee)) */\n      jump\t// in\n    tag_174:\n        /* \"contracts/lens/QuoterV2_flattened.sol\":46128:46203  return verifyCallback(factory, PoolAddress.getPoolKey(tokenA, tokenB, fee)) */\n      swap6\n        /* \"contracts/lens/QuoterV2_flattened.sol\":45951:46210  function verifyCallback(... */\n      swap5\n      pop\n      pop\n      pop\n      pop\n      pop\n      jump\t// out\n        /* \"contracts/lens/QuoterV2_flattened.sol\":5279:5695  function toAddress(bytes memory _bytes, uint256 _start) internal pure returns (address) {... */\n    tag_149:\n        /* \"contracts/lens/QuoterV2_flattened.sol\":5358:5365  address */\n      0x00\n        /* \"contracts/lens/QuoterV2_flattened.sol\":5400:5406  _start */\n      dup2\n        /* \"contracts/lens/QuoterV2_flattened.sol\":5385:5391  _start */\n      dup3\n        /* \"contracts/lens/QuoterV2_flattened.sol\":5394:5396  20 */\n      0x14\n        /* \"contracts/lens/QuoterV2_flattened.sol\":5385:5396  _start + 20 */\n      add\n        /* \"contracts/lens/QuoterV2_flattened.sol\":5385:5406  _start + 20 >= _start */\n      lt\n      iszero\n        /* \"contracts/lens/QuoterV2_flattened.sol\":5377:5429  require(_start + 20 >= _start, 'toAddress_overflow') */\n      tag_178\n      jumpi\n      mload(0x40)\n      shl(0xe5, 0x461bcd)\n      dup2\n      mstore\n      0x04\n      add\n      tag_179\n      swap1\n      tag_180\n      jump\t// in\n    tag_179:\n      mload(0x40)\n      dup1\n      swap2\n      sub\n      swap1\n      revert\n    tag_178:\n        /* \"contracts/lens/QuoterV2_flattened.sol\":5464:5470  _start */\n      dup2\n        /* \"contracts/lens/QuoterV2_flattened.sol\":5473:5475  20 */\n      0x14\n        /* \"contracts/lens/QuoterV2_flattened.sol\":5464:5475  _start + 20 */\n      add\n        /* \"contracts/lens/QuoterV2_flattened.sol\":5447:5453  _bytes */\n      dup4\n        /* \"contracts/lens/QuoterV2_flattened.sol\":5447:5460  _bytes.length */\n      mload\n        /* \"contracts/lens/QuoterV2_flattened.sol\":5447:5475  _bytes.length >= _start + 20 */\n      lt\n      iszero\n        /* \"contracts/lens/QuoterV2_flattened.sol\":5439:5501  require(_bytes.length >= _start + 20, 'toAddress_outOfBounds') */\n      tag_181\n      jumpi\n      mload(0x40)\n      shl(0xe5, 0x461bcd)\n      dup2\n      mstore\n      0x04\n      add\n      tag_179\n      swap1\n      tag_183\n      jump\t// in\n    tag_181:\n      pop\n        /* \"contracts/lens/QuoterV2_flattened.sol\":5589:5619  add(add(_bytes, 0x20), _start) */\n      add\n        /* \"contracts/lens/QuoterV2_flattened.sol\":5605:5609  0x20 */\n      0x20\n        /* \"contracts/lens/QuoterV2_flattened.sol\":5589:5619  add(add(_bytes, 0x20), _start) */\n      add\n        /* \"contracts/lens/QuoterV2_flattened.sol\":5583:5620  mload(add(add(_bytes, 0x20), _start)) */\n      mload\n      shl(0x60, 0x01)\n        /* \"contracts/lens/QuoterV2_flattened.sol\":5579:5650  div(mload(add(add(_bytes, 0x20), _start)), 0x1000000000000000000000000) */\n      swap1\n      div\n      swap1\n        /* \"contracts/lens/QuoterV2_flattened.sol\":5279:5695  function toAddress(bytes memory _bytes, uint256 _start) internal pure returns (address) {... */\n      jump\t// out\n        /* \"contracts/lens/QuoterV2_flattened.sol\":5701:6066  function toUint24(bytes memory _bytes, uint256 _start) internal pure returns (uint24) {... */\n    tag_151:\n        /* \"contracts/lens/QuoterV2_flattened.sol\":5779:5785  uint24 */\n      0x00\n        /* \"contracts/lens/QuoterV2_flattened.sol\":5819:5825  _start */\n      dup2\n        /* \"contracts/lens/QuoterV2_flattened.sol\":5805:5811  _start */\n      dup3\n        /* \"contracts/lens/QuoterV2_flattened.sol\":5814:5815  3 */\n      0x03\n        /* \"contracts/lens/QuoterV2_flattened.sol\":5805:5815  _start + 3 */\n      add\n        /* \"contracts/lens/QuoterV2_flattened.sol\":5805:5825  _start + 3 >= _start */\n      lt\n      iszero\n        /* \"contracts/lens/QuoterV2_flattened.sol\":5797:5847  require(_start + 3 >= _start, 'toUint24_overflow') */\n      tag_185\n      jumpi\n      mload(0x40)\n      shl(0xe5, 0x461bcd)\n      dup2\n      mstore\n      0x04\n      add\n      tag_179\n      swap1\n      tag_187\n      jump\t// in\n    tag_185:\n        /* \"contracts/lens/QuoterV2_flattened.sol\":5882:5888  _start */\n      dup2\n        /* \"contracts/lens/QuoterV2_flattened.sol\":5891:5892  3 */\n      0x03\n        /* \"contracts/lens/QuoterV2_flattened.sol\":5882:5892  _start + 3 */\n      add\n        /* \"contracts/lens/QuoterV2_flattened.sol\":5865:5871  _bytes */\n      dup4\n        /* \"contracts/lens/QuoterV2_flattened.sol\":5865:5878  _bytes.length */\n      mload\n        /* \"contracts/lens/QuoterV2_flattened.sol\":5865:5892  _bytes.length >= _start + 3 */\n      lt\n      iszero\n        /* \"contracts/lens/QuoterV2_flattened.sol\":5857:5917  require(_bytes.length >= _start + 3, 'toUint24_outOfBounds') */\n      tag_188\n      jumpi\n      mload(0x40)\n      shl(0xe5, 0x461bcd)\n      dup2\n      mstore\n      0x04\n      add\n      tag_179\n      swap1\n      tag_190\n      jump\t// in\n    tag_188:\n      pop\n        /* \"contracts/lens/QuoterV2_flattened.sol\":5994:6023  add(add(_bytes, 0x3), _start) */\n      add\n        /* \"contracts/lens/QuoterV2_flattened.sol\":6010:6013  0x3 */\n      0x03\n        /* \"contracts/lens/QuoterV2_flattened.sol\":5994:6023  add(add(_bytes, 0x3), _start) */\n      add\n        /* \"contracts/lens/QuoterV2_flattened.sol\":5988:6024  mload(add(add(_bytes, 0x3), _start)) */\n      mload\n      swap1\n        /* \"contracts/lens/QuoterV2_flattened.sol\":5701:6066  function toUint24(bytes memory _bytes, uint256 _start) internal pure returns (uint24) {... */\n      jump\t// out\n        /* \"contracts/lens/QuoterV2_flattened.sol\":2266:5273  function slice(... */\n    tag_156:\n        /* \"contracts/lens/QuoterV2_flattened.sol\":2388:2400  bytes memory */\n      0x60\n        /* \"contracts/lens/QuoterV2_flattened.sol\":2436:2443  _length */\n      dup2\n        /* \"contracts/lens/QuoterV2_flattened.sol\":2420:2427  _length */\n      dup3\n        /* \"contracts/lens/QuoterV2_flattened.sol\":2430:2432  31 */\n      0x1f\n        /* \"contracts/lens/QuoterV2_flattened.sol\":2420:2432  _length + 31 */\n      add\n        /* \"contracts/lens/QuoterV2_flattened.sol\":2420:2443  _length + 31 >= _length */\n      lt\n      iszero\n        /* \"contracts/lens/QuoterV2_flattened.sol\":2412:2462  require(_length + 31 >= _length, 'slice_overflow') */\n      tag_192\n      jumpi\n      mload(0x40)\n      shl(0xe5, 0x461bcd)\n      dup2\n      mstore\n      0x04\n      add\n      tag_179\n      swap1\n      tag_194\n      jump\t// in\n    tag_192:\n        /* \"contracts/lens/QuoterV2_flattened.sol\":2500:2506  _start */\n      dup3\n        /* \"contracts/lens/QuoterV2_flattened.sol\":2489:2496  _length */\n      dup3\n        /* \"contracts/lens/QuoterV2_flattened.sol\":2480:2486  _start */\n      dup5\n        /* \"contracts/lens/QuoterV2_flattened.sol\":2480:2496  _start + _length */\n      add\n        /* \"contracts/lens/QuoterV2_flattened.sol\":2480:2506  _start + _length >= _start */\n      lt\n      iszero\n        /* \"contracts/lens/QuoterV2_flattened.sol\":2472:2525  require(_start + _length >= _start, 'slice_overflow') */\n      tag_195\n      jumpi\n      mload(0x40)\n      shl(0xe5, 0x461bcd)\n      dup2\n      mstore\n      0x04\n      add\n      tag_179\n      swap1\n      tag_194\n      jump\t// in\n    tag_195:\n        /* \"contracts/lens/QuoterV2_flattened.sol\":2569:2576  _length */\n      dup2\n        /* \"contracts/lens/QuoterV2_flattened.sol\":2560:2566  _start */\n      dup4\n        /* \"contracts/lens/QuoterV2_flattened.sol\":2560:2576  _start + _length */\n      add\n        /* \"contracts/lens/QuoterV2_flattened.sol\":2543:2549  _bytes */\n      dup5\n        /* \"contracts/lens/QuoterV2_flattened.sol\":2543:2556  _bytes.length */\n      mload\n        /* \"contracts/lens/QuoterV2_flattened.sol\":2543:2576  _bytes.length >= _start + _length */\n      lt\n      iszero\n        /* \"contracts/lens/QuoterV2_flattened.sol\":2535:2598  require(_bytes.length >= _start + _length, 'slice_outOfBounds') */\n      tag_197\n      jumpi\n      mload(0x40)\n      shl(0xe5, 0x461bcd)\n      dup2\n      mstore\n      0x04\n      add\n      tag_179\n      swap1\n      tag_199\n      jump\t// in\n    tag_197:\n        /* \"contracts/lens/QuoterV2_flattened.sol\":2609:2631  bytes memory tempBytes */\n      0x60\n        /* \"contracts/lens/QuoterV2_flattened.sol\":2672:2687  iszero(_length) */\n      dup3\n      iszero\n        /* \"contracts/lens/QuoterV2_flattened.sol\":2704:4803  case 0 {... */\n      dup1\n      iszero\n      tag_201\n      jumpi\n        /* \"contracts/lens/QuoterV2_flattened.sol\":4956:4960  0x40 */\n      0x40\n        /* \"contracts/lens/QuoterV2_flattened.sol\":4950:4961  mload(0x40) */\n      mload\n        /* \"contracts/lens/QuoterV2_flattened.sol\":4937:4961  tempBytes := mload(0x40) */\n      swap2\n      pop\n        /* \"contracts/lens/QuoterV2_flattened.sol\":5154:5155  0 */\n      0x00\n        /* \"contracts/lens/QuoterV2_flattened.sol\":5143:5152  tempBytes */\n      dup3\n        /* \"contracts/lens/QuoterV2_flattened.sol\":5136:5156  mstore(tempBytes, 0) */\n      mstore\n        /* \"contracts/lens/QuoterV2_flattened.sol\":5206:5210  0x20 */\n      0x20\n        /* \"contracts/lens/QuoterV2_flattened.sol\":5195:5204  tempBytes */\n      dup3\n        /* \"contracts/lens/QuoterV2_flattened.sol\":5191:5211  add(tempBytes, 0x20) */\n      add\n        /* \"contracts/lens/QuoterV2_flattened.sol\":5185:5189  0x40 */\n      0x40\n        /* \"contracts/lens/QuoterV2_flattened.sol\":5178:5212  mstore(0x40, add(tempBytes, 0x20)) */\n      mstore\n        /* \"contracts/lens/QuoterV2_flattened.sol\":2665:5230  switch iszero(_length)... */\n      jump(tag_200)\n        /* \"contracts/lens/QuoterV2_flattened.sol\":2704:4803  case 0 {... */\n    tag_201:\n        /* \"contracts/lens/QuoterV2_flattened.sol\":2898:2902  0x40 */\n      0x40\n        /* \"contracts/lens/QuoterV2_flattened.sol\":2892:2903  mload(0x40) */\n      mload\n        /* \"contracts/lens/QuoterV2_flattened.sol\":2879:2903  tempBytes := mload(0x40) */\n      swap2\n      pop\n        /* \"contracts/lens/QuoterV2_flattened.sol\":3593:3595  31 */\n      0x1f\n        /* \"contracts/lens/QuoterV2_flattened.sol\":3584:3591  _length */\n      dup5\n        /* \"contracts/lens/QuoterV2_flattened.sol\":3580:3596  and(_length, 31) */\n      and\n        /* \"contracts/lens/QuoterV2_flattened.sol\":3995:4004  lengthmod */\n      dup1\n        /* \"contracts/lens/QuoterV2_flattened.sol\":3988:4005  iszero(lengthmod) */\n      iszero\n        /* \"contracts/lens/QuoterV2_flattened.sol\":3982:3986  0x20 */\n      0x20\n        /* \"contracts/lens/QuoterV2_flattened.sol\":3978:4006  mul(0x20, iszero(lengthmod)) */\n      mul\n        /* \"contracts/lens/QuoterV2_flattened.sol\":3966:3975  lengthmod */\n      dup2\n        /* \"contracts/lens/QuoterV2_flattened.sol\":3955:3964  tempBytes */\n      dup5\n        /* \"contracts/lens/QuoterV2_flattened.sol\":3951:3976  add(tempBytes, lengthmod) */\n      add\n        /* \"contracts/lens/QuoterV2_flattened.sol\":3947:4007  add(add(tempBytes, lengthmod), mul(0x20, iszero(lengthmod))) */\n      add\n        /* \"contracts/lens/QuoterV2_flattened.sol\":4047:4054  _length */\n      dup6\n        /* \"contracts/lens/QuoterV2_flattened.sol\":4043:4045  mc */\n      dup2\n        /* \"contracts/lens/QuoterV2_flattened.sol\":4039:4055  add(mc, _length) */\n      add\n        /* \"contracts/lens/QuoterV2_flattened.sol\":4315:4321  _start */\n      dup8\n        /* \"contracts/lens/QuoterV2_flattened.sol\":4301:4310  lengthmod */\n      dup4\n        /* \"contracts/lens/QuoterV2_flattened.sol\":4294:4311  iszero(lengthmod) */\n      iszero\n        /* \"contracts/lens/QuoterV2_flattened.sol\":4288:4292  0x20 */\n      0x20\n        /* \"contracts/lens/QuoterV2_flattened.sol\":4284:4312  mul(0x20, iszero(lengthmod)) */\n      mul\n        /* \"contracts/lens/QuoterV2_flattened.sol\":4272:4281  lengthmod */\n      dup5\n        /* \"contracts/lens/QuoterV2_flattened.sol\":4264:4270  _bytes */\n      dup12\n        /* \"contracts/lens/QuoterV2_flattened.sol\":4260:4282  add(_bytes, lengthmod) */\n      add\n        /* \"contracts/lens/QuoterV2_flattened.sol\":4256:4313  add(add(_bytes, lengthmod), mul(0x20, iszero(lengthmod))) */\n      add\n        /* \"contracts/lens/QuoterV2_flattened.sol\":4252:4322  add(add(add(_bytes, lengthmod), mul(0x20, iszero(lengthmod))), _start) */\n      add\n        /* \"contracts/lens/QuoterV2_flattened.sol\":4077:4538  for {... */\n    tag_202:\n        /* \"contracts/lens/QuoterV2_flattened.sol\":4352:4355  end */\n      dup2\n        /* \"contracts/lens/QuoterV2_flattened.sol\":4348:4350  mc */\n      dup4\n        /* \"contracts/lens/QuoterV2_flattened.sol\":4345:4356  lt(mc, end) */\n      lt\n        /* \"contracts/lens/QuoterV2_flattened.sol\":4077:4538  for {... */\n      iszero\n      tag_204\n      jumpi\n        /* \"contracts/lens/QuoterV2_flattened.sol\":4506:4515  mload(cc) */\n      dup1\n      mload\n        /* \"contracts/lens/QuoterV2_flattened.sol\":4495:4516  mstore(mc, mload(cc)) */\n      dup4\n      mstore\n        /* \"contracts/lens/QuoterV2_flattened.sol\":4397:4401  0x20 */\n      0x20\n        /* \"contracts/lens/QuoterV2_flattened.sol\":4389:4402  add(mc, 0x20) */\n      swap3\n      dup4\n      add\n      swap3\n        /* \"contracts/lens/QuoterV2_flattened.sol\":4433:4446  add(cc, 0x20) */\n      add\n        /* \"contracts/lens/QuoterV2_flattened.sol\":4077:4538  for {... */\n      jump(tag_202)\n    tag_204:\n      pop\n      pop\n        /* \"contracts/lens/QuoterV2_flattened.sol\":4560:4586  mstore(tempBytes, _length) */\n      dup6\n      dup5\n      mstore\n        /* \"contracts/lens/QuoterV2_flattened.sol\":4780:4782  31 */\n      0x1f\n        /* \"contracts/lens/QuoterV2_flattened.sol\":4763:4774  add(mc, 31) */\n      add\n      not(0x1f)\n        /* \"contracts/lens/QuoterV2_flattened.sol\":4759:4784  and(add(mc, 31), not(31)) */\n      and\n        /* \"contracts/lens/QuoterV2_flattened.sol\":4753:4757  0x40 */\n      0x40\n        /* \"contracts/lens/QuoterV2_flattened.sol\":4746:4785  mstore(0x40, and(add(mc, 31), not(31))) */\n      mstore\n      pop\n        /* \"contracts/lens/QuoterV2_flattened.sol\":2665:5230  switch iszero(_length)... */\n    tag_200:\n      pop\n        /* \"contracts/lens/QuoterV2_flattened.sol\":5257:5266  tempBytes */\n      swap5\n        /* \"contracts/lens/QuoterV2_flattened.sol\":2266:5273  function slice(... */\n      swap4\n      pop\n      pop\n      pop\n      pop\n      jump\t// out\n        /* \"contracts/lens/QuoterV2_flattened.sol\":831:1105  function getPoolKey(... */\n    tag_160:\n        /* \"contracts/lens/QuoterV2_flattened.sol\":948:962  PoolKey memory */\n      tag_205\n      tag_206\n      jump\t// in\n    tag_205:\n        /* \"contracts/lens/QuoterV2_flattened.sol\":987:993  tokenB */\n      dup3\n      sub(shl(0xa0, 0x01), 0x01)\n        /* \"contracts/lens/QuoterV2_flattened.sol\":978:993  tokenA > tokenB */\n      and\n        /* \"contracts/lens/QuoterV2_flattened.sol\":978:984  tokenA */\n      dup5\n      sub(shl(0xa0, 0x01), 0x01)\n        /* \"contracts/lens/QuoterV2_flattened.sol\":978:993  tokenA > tokenB */\n      and\n      gt\n        /* \"contracts/lens/QuoterV2_flattened.sol\":974:1030  if (tokenA > tokenB) (tokenA, tokenB) = (tokenB, tokenA) */\n      iszero\n      tag_208\n      jumpi\n        /* \"contracts/lens/QuoterV2_flattened.sol\":1015:1021  tokenB */\n      swap2\n      swap3\n        /* \"contracts/lens/QuoterV2_flattened.sol\":1023:1029  tokenA */\n      swap2\n        /* \"contracts/lens/QuoterV2_flattened.sol\":974:1030  if (tokenA > tokenB) (tokenA, tokenB) = (tokenB, tokenA) */\n    tag_208:\n      pop\n        /* \"contracts/lens/QuoterV2_flattened.sol\":1047:1098  PoolKey({token0: tokenA, token1: tokenB, fee: fee}) */\n      0x40\n      dup1\n      mload\n      0x60\n      dup2\n      add\n      dup3\n      mstore\n      sub(shl(0xa0, 0x01), 0x01)\n      swap5\n      dup6\n      and\n      dup2\n      mstore\n      swap3\n      swap1\n      swap4\n      and\n      0x20\n      dup4\n      add\n      mstore\n      0xffffff\n      and\n      swap2\n      dup2\n      add\n      swap2\n      swap1\n      swap2\n      mstore\n      swap1\n        /* \"contracts/lens/QuoterV2_flattened.sol\":831:1105  function getPoolKey(... */\n      jump\t// out\n        /* \"contracts/lens/QuoterV2_flattened.sol\":1352:1864  function computeAddress(address factory, PoolKey memory key) internal pure returns (address pool) {... */\n    tag_161:\n        /* \"contracts/lens/QuoterV2_flattened.sol\":1436:1448  address pool */\n      0x00\n        /* \"contracts/lens/QuoterV2_flattened.sol\":1481:1484  key */\n      dup2\n        /* \"contracts/lens/QuoterV2_flattened.sol\":1481:1491  key.token1 */\n      0x20\n      add\n      mload\n      sub(shl(0xa0, 0x01), 0x01)\n        /* \"contracts/lens/QuoterV2_flattened.sol\":1468:1491  key.token0 < key.token1 */\n      and\n        /* \"contracts/lens/QuoterV2_flattened.sol\":1468:1471  key */\n      dup3\n        /* \"contracts/lens/QuoterV2_flattened.sol\":1468:1478  key.token0 */\n      0x00\n      add\n      mload\n      sub(shl(0xa0, 0x01), 0x01)\n        /* \"contracts/lens/QuoterV2_flattened.sol\":1468:1491  key.token0 < key.token1 */\n      and\n      lt\n        /* \"contracts/lens/QuoterV2_flattened.sol\":1460:1492  require(key.token0 < key.token1) */\n      tag_210\n      jumpi\n      0x00\n      dup1\n      revert\n    tag_210:\n        /* \"contracts/lens/QuoterV2_flattened.sol\":1661:1668  factory */\n      dup3\n        /* \"contracts/lens/QuoterV2_flattened.sol\":1715:1718  key */\n      dup3\n        /* \"contracts/lens/QuoterV2_flattened.sol\":1715:1725  key.token0 */\n      0x00\n      add\n      mload\n        /* \"contracts/lens/QuoterV2_flattened.sol\":1727:1730  key */\n      dup4\n        /* \"contracts/lens/QuoterV2_flattened.sol\":1727:1737  key.token1 */\n      0x20\n      add\n      mload\n        /* \"contracts/lens/QuoterV2_flattened.sol\":1739:1742  key */\n      dup5\n        /* \"contracts/lens/QuoterV2_flattened.sol\":1739:1746  key.fee */\n      0x40\n      add\n      mload\n        /* \"contracts/lens/QuoterV2_flattened.sol\":1704:1747  abi.encode(key.token0, key.token1, key.fee) */\n      add(0x20, mload(0x40))\n      tag_211\n      swap4\n      swap3\n      swap2\n      swap1\n      tag_212\n      jump\t// in\n    tag_211:\n      0x40\n      dup1\n      mload\n      not(0x1f)\n      dup2\n      dup5\n      sub\n      add\n      dup2\n      mstore\n      swap1\n      dup3\n      swap1\n      mstore\n        /* \"contracts/lens/QuoterV2_flattened.sol\":1694:1748  keccak256(abi.encode(key.token0, key.token1, key.fee)) */\n      dup1\n      mload\n        /* \"contracts/lens/QuoterV2_flattened.sol\":1704:1747  abi.encode(key.token0, key.token1, key.fee) */\n      0x20\n        /* \"contracts/lens/QuoterV2_flattened.sol\":1694:1748  keccak256(abi.encode(key.token0, key.token1, key.fee)) */\n      swap2\n      dup3\n      add\n      keccak256\n        /* \"contracts/lens/QuoterV2_flattened.sol\":1586:1815  abi.encodePacked(... */\n      tag_213\n      swap4\n      swap3\n        /* \"contracts/lens/QuoterV2_flattened.sol\":1694:1748  keccak256(abi.encode(key.token0, key.token1, key.fee)) */\n      swap1\n      swap2\n        /* \"contracts/lens/QuoterV2_flattened.sol\":288:354  0xe34f199b19b2b4f47f68442619d555527d244f78a3297ea89325f843f87b8b54 */\n      0xe34f199b19b2b4f47f68442619d555527d244f78a3297ea89325f843f87b8b54\n      swap2\n        /* \"contracts/lens/QuoterV2_flattened.sol\":1586:1815  abi.encodePacked(... */\n      add\n      tag_214\n      jump\t// in\n    tag_213:\n      0x40\n      dup1\n      mload\n      not(0x1f)\n      dup2\n      dup5\n      sub\n      add\n      dup2\n      mstore\n      swap2\n      swap1\n      mstore\n        /* \"contracts/lens/QuoterV2_flattened.sol\":1555:1833  keccak256(... */\n      dup1\n      mload\n        /* \"contracts/lens/QuoterV2_flattened.sol\":1586:1815  abi.encodePacked(... */\n      0x20\n        /* \"contracts/lens/QuoterV2_flattened.sol\":1555:1833  keccak256(... */\n      swap1\n      swap2\n      add\n      keccak256\n      swap4\n        /* \"contracts/lens/QuoterV2_flattened.sol\":1352:1864  function computeAddress(address factory, PoolKey memory key) internal pure returns (address pool) {... */\n      swap3\n      pop\n      pop\n      pop\n      jump\t// out\n        /* \"contracts/lens/QuoterV2_flattened.sol\":66174:66687  function parseRevertReason(bytes memory reason)... */\n    tag_170:\n        /* \"contracts/lens/QuoterV2_flattened.sol\":66281:66295  uint256 amount */\n      0x00\n        /* \"contracts/lens/QuoterV2_flattened.sol\":66309:66334  uint160 sqrtPriceX96After */\n      dup1\n        /* \"contracts/lens/QuoterV2_flattened.sol\":66348:66363  int24 tickAfter */\n      0x00\n        /* \"contracts/lens/QuoterV2_flattened.sol\":66392:66398  reason */\n      dup4\n        /* \"contracts/lens/QuoterV2_flattened.sol\":66392:66405  reason.length */\n      mload\n        /* \"contracts/lens/QuoterV2_flattened.sol\":66409:66411  96 */\n      0x60\n        /* \"contracts/lens/QuoterV2_flattened.sol\":66392:66411  reason.length != 96 */\n      eq\n        /* \"contracts/lens/QuoterV2_flattened.sol\":66388:66619  if (reason.length != 96) {... */\n      tag_216\n      jumpi\n        /* \"contracts/lens/QuoterV2_flattened.sol\":66447:66449  68 */\n      0x44\n        /* \"contracts/lens/QuoterV2_flattened.sol\":66431:66437  reason */\n      dup5\n        /* \"contracts/lens/QuoterV2_flattened.sol\":66431:66444  reason.length */\n      mload\n        /* \"contracts/lens/QuoterV2_flattened.sol\":66431:66449  reason.length < 68 */\n      lt\n        /* \"contracts/lens/QuoterV2_flattened.sol\":66427:66477  if (reason.length < 68) revert('Unexpected error') */\n      iszero\n      tag_217\n      jumpi\n        /* \"contracts/lens/QuoterV2_flattened.sol\":66451:66477  revert('Unexpected error') */\n      mload(0x40)\n      shl(0xe5, 0x461bcd)\n      dup2\n      mstore\n      0x04\n      add\n      tag_179\n      swap1\n      tag_219\n      jump\t// in\n        /* \"contracts/lens/QuoterV2_flattened.sol\":66427:66477  if (reason.length < 68) revert('Unexpected error') */\n    tag_217:\n        /* \"contracts/lens/QuoterV2_flattened.sol\":66540:66544  0x04 */\n      0x04\n        /* \"contracts/lens/QuoterV2_flattened.sol\":66532:66538  reason */\n      dup5\n        /* \"contracts/lens/QuoterV2_flattened.sol\":66528:66545  add(reason, 0x04) */\n      add\n        /* \"contracts/lens/QuoterV2_flattened.sol\":66518:66545  reason := add(reason, 0x04) */\n      swap4\n      pop\n        /* \"contracts/lens/QuoterV2_flattened.sol\":66590:66596  reason */\n      dup4\n        /* \"contracts/lens/QuoterV2_flattened.sol\":66579:66607  abi.decode(reason, (string)) */\n      dup1\n      0x20\n      add\n      swap1\n      mload\n      dup2\n      add\n      swap1\n      tag_220\n      swap2\n      swap1\n      tag_221\n      jump\t// in\n    tag_220:\n        /* \"contracts/lens/QuoterV2_flattened.sol\":66572:66608  revert(abi.decode(reason, (string))) */\n      mload(0x40)\n      shl(0xe5, 0x461bcd)\n      dup2\n      mstore\n      0x04\n      add\n      tag_179\n      swap2\n      swap1\n      tag_223\n      jump\t// in\n        /* \"contracts/lens/QuoterV2_flattened.sol\":66388:66619  if (reason.length != 96) {... */\n    tag_216:\n        /* \"contracts/lens/QuoterV2_flattened.sol\":66646:66652  reason */\n      dup4\n        /* \"contracts/lens/QuoterV2_flattened.sol\":66635:66680  abi.decode(reason, (uint256, uint160, int24)) */\n      dup1\n      0x20\n      add\n      swap1\n      mload\n      dup2\n      add\n      swap1\n      tag_224\n      swap2\n      swap1\n      tag_225\n      jump\t// in\n    tag_224:\n        /* \"contracts/lens/QuoterV2_flattened.sol\":66628:66680  return abi.decode(reason, (uint256, uint160, int24)) */\n      swap3\n      pop\n      swap3\n      pop\n      swap3\n      pop\n        /* \"contracts/lens/QuoterV2_flattened.sol\":66174:66687  function parseRevertReason(bytes memory reason)... */\n      swap2\n      swap4\n      swap1\n      swap3\n      pop\n      jump\t// out\n        /* \"contracts/lens/QuoterV2_flattened.sol\":41841:45146  function countInitializedTicksCrossed(... */\n    tag_172:\n        /* \"contracts/lens/QuoterV2_flattened.sol\":41988:42018  uint32 initializedTicksCrossed */\n      0x00\n        /* \"contracts/lens/QuoterV2_flattened.sol\":42030:42048  int16 wordPosLower */\n      dup1\n        /* \"contracts/lens/QuoterV2_flattened.sol\":42058:42077  int16 wordPosHigher */\n      0x00\n        /* \"contracts/lens/QuoterV2_flattened.sol\":42087:42104  uint8 bitPosLower */\n      dup1\n        /* \"contracts/lens/QuoterV2_flattened.sol\":42114:42132  uint8 bitPosHigher */\n      0x00\n        /* \"contracts/lens/QuoterV2_flattened.sol\":42142:42168  bool tickBeforeInitialized */\n      dup1\n        /* \"contracts/lens/QuoterV2_flattened.sol\":42178:42203  bool tickAfterInitialized */\n      0x00\n        /* \"contracts/lens/QuoterV2_flattened.sol\":42331:42344  int16 wordPos */\n      dup1\n        /* \"contracts/lens/QuoterV2_flattened.sol\":42390:42391  8 */\n      0x08\n        /* \"contracts/lens/QuoterV2_flattened.sol\":42367:42371  self */\n      dup12\n      sub(shl(0xa0, 0x01), 0x01)\n        /* \"contracts/lens/QuoterV2_flattened.sol\":42367:42383  self.tickSpacing */\n      and\n      0xd0c93a7c\n        /* \"contracts/lens/QuoterV2_flattened.sol\":42367:42385  self.tickSpacing() */\n      mload(0x40)\n      dup2\n      0xffffffff\n      and\n      0xe0\n      shl\n      dup2\n      mstore\n      0x04\n      add\n      0x20\n      mload(0x40)\n      dup1\n      dup4\n      sub\n      dup2\n      dup7\n      dup1\n      extcodesize\n      iszero\n      dup1\n      iszero\n      tag_227\n      jumpi\n      0x00\n      dup1\n      revert\n    tag_227:\n      pop\n      gas\n      staticcall\n      iszero\n      dup1\n      iszero\n      tag_229\n      jumpi\n      returndatasize\n      0x00\n      dup1\n      returndatacopy\n      revert(0x00, returndatasize)\n    tag_229:\n      pop\n      pop\n      pop\n      pop\n      mload(0x40)\n      returndatasize\n      not(0x1f)\n      0x1f\n      dup3\n      add\n      and\n      dup3\n      add\n      dup1\n      0x40\n      mstore\n      pop\n      dup2\n      add\n      swap1\n      tag_230\n      swap2\n      swap1\n      tag_231\n      jump\t// in\n    tag_230:\n        /* \"contracts/lens/QuoterV2_flattened.sol\":42354:42385  tickBefore / self.tickSpacing() */\n      0x02\n      signextend\n        /* \"contracts/lens/QuoterV2_flattened.sol\":42354:42364  tickBefore */\n      dup12\n        /* \"contracts/lens/QuoterV2_flattened.sol\":42354:42385  tickBefore / self.tickSpacing() */\n      0x02\n      signextend\n      dup2\n      tag_232\n      jumpi\n      invalid\n    tag_232:\n      sdiv\n        /* \"contracts/lens/QuoterV2_flattened.sol\":42353:42391  (tickBefore / self.tickSpacing()) >> 8 */\n      0x02\n      signextend\n      swap1\n      sar\n        /* \"contracts/lens/QuoterV2_flattened.sol\":42331:42392  int16 wordPos = int16((tickBefore / self.tickSpacing()) >> 8) */\n      swap1\n      pop\n        /* \"contracts/lens/QuoterV2_flattened.sol\":42406:42418  uint8 bitPos */\n      0x00\n        /* \"contracts/lens/QuoterV2_flattened.sol\":42463:42466  256 */\n      0x0100\n        /* \"contracts/lens/QuoterV2_flattened.sol\":42441:42445  self */\n      dup13\n      sub(shl(0xa0, 0x01), 0x01)\n        /* \"contracts/lens/QuoterV2_flattened.sol\":42441:42457  self.tickSpacing */\n      and\n      0xd0c93a7c\n        /* \"contracts/lens/QuoterV2_flattened.sol\":42441:42459  self.tickSpacing() */\n      mload(0x40)\n      dup2\n      0xffffffff\n      and\n      0xe0\n      shl\n      dup2\n      mstore\n      0x04\n      add\n      0x20\n      mload(0x40)\n      dup1\n      dup4\n      sub\n      dup2\n      dup7\n      dup1\n      extcodesize\n      iszero\n      dup1\n      iszero\n      tag_233\n      jumpi\n      0x00\n      dup1\n      revert\n    tag_233:\n      pop\n      gas\n      staticcall\n      iszero\n      dup1\n      iszero\n      tag_235\n      jumpi\n      returndatasize\n      0x00\n      dup1\n      returndatacopy\n      revert(0x00, returndatasize)\n    tag_235:\n      pop\n      pop\n      pop\n      pop\n      mload(0x40)\n      returndatasize\n      not(0x1f)\n      0x1f\n      dup3\n      add\n      and\n      dup3\n      add\n      dup1\n      0x40\n      mstore\n      pop\n      dup2\n      add\n      swap1\n      tag_236\n      swap2\n      swap1\n      tag_231\n      jump\t// in\n    tag_236:\n        /* \"contracts/lens/QuoterV2_flattened.sol\":42428:42459  tickBefore / self.tickSpacing() */\n      0x02\n      signextend\n        /* \"contracts/lens/QuoterV2_flattened.sol\":42428:42438  tickBefore */\n      dup13\n        /* \"contracts/lens/QuoterV2_flattened.sol\":42428:42459  tickBefore / self.tickSpacing() */\n      0x02\n      signextend\n      dup2\n      tag_237\n      jumpi\n      invalid\n    tag_237:\n      sdiv\n        /* \"contracts/lens/QuoterV2_flattened.sol\":42427:42466  (tickBefore / self.tickSpacing()) % 256 */\n      0x02\n      signextend\n      dup2\n      tag_238\n      jumpi\n      invalid\n    tag_238:\n      smod\n        /* \"contracts/lens/QuoterV2_flattened.sol\":42406:42467  uint8 bitPos = uint8((tickBefore / self.tickSpacing()) % 256) */\n      swap1\n      pop\n        /* \"contracts/lens/QuoterV2_flattened.sol\":42482:42500  int16 wordPosAfter */\n      0x00\n        /* \"contracts/lens/QuoterV2_flattened.sol\":42545:42546  8 */\n      0x08\n        /* \"contracts/lens/QuoterV2_flattened.sol\":42522:42526  self */\n      dup14\n      sub(shl(0xa0, 0x01), 0x01)\n        /* \"contracts/lens/QuoterV2_flattened.sol\":42522:42538  self.tickSpacing */\n      and\n      0xd0c93a7c\n        /* \"contracts/lens/QuoterV2_flattened.sol\":42522:42540  self.tickSpacing() */\n      mload(0x40)\n      dup2\n      0xffffffff\n      and\n      0xe0\n      shl\n      dup2\n      mstore\n      0x04\n      add\n      0x20\n      mload(0x40)\n      dup1\n      dup4\n      sub\n      dup2\n      dup7\n      dup1\n      extcodesize\n      iszero\n      dup1\n      iszero\n      tag_239\n      jumpi\n      0x00\n      dup1\n      revert\n    tag_239:\n      pop\n      gas\n      staticcall\n      iszero\n      dup1\n      iszero\n      tag_241\n      jumpi\n      returndatasize\n      0x00\n      dup1\n      returndatacopy\n      revert(0x00, returndatasize)\n    tag_241:\n      pop\n      pop\n      pop\n      pop\n      mload(0x40)\n      returndatasize\n      not(0x1f)\n      0x1f\n      dup3\n      add\n      and\n      dup3\n      add\n      dup1\n      0x40\n      mstore\n      pop\n      dup2\n      add\n      swap1\n      tag_242\n      swap2\n      swap1\n      tag_231\n      jump\t// in\n    tag_242:\n        /* \"contracts/lens/QuoterV2_flattened.sol\":42510:42540  tickAfter / self.tickSpacing() */\n      0x02\n      signextend\n        /* \"contracts/lens/QuoterV2_flattened.sol\":42510:42519  tickAfter */\n      dup13\n        /* \"contracts/lens/QuoterV2_flattened.sol\":42510:42540  tickAfter / self.tickSpacing() */\n      0x02\n      signextend\n      dup2\n      tag_243\n      jumpi\n      invalid\n    tag_243:\n      sdiv\n        /* \"contracts/lens/QuoterV2_flattened.sol\":42509:42546  (tickAfter / self.tickSpacing()) >> 8 */\n      0x02\n      signextend\n      swap1\n      sar\n        /* \"contracts/lens/QuoterV2_flattened.sol\":42482:42547  int16 wordPosAfter = int16((tickAfter / self.tickSpacing()) >> 8) */\n      swap1\n      pop\n        /* \"contracts/lens/QuoterV2_flattened.sol\":42561:42578  uint8 bitPosAfter */\n      0x00\n        /* \"contracts/lens/QuoterV2_flattened.sol\":42622:42625  256 */\n      0x0100\n        /* \"contracts/lens/QuoterV2_flattened.sol\":42600:42604  self */\n      dup15\n      sub(shl(0xa0, 0x01), 0x01)\n        /* \"contracts/lens/QuoterV2_flattened.sol\":42600:42616  self.tickSpacing */\n      and\n      0xd0c93a7c\n        /* \"contracts/lens/QuoterV2_flattened.sol\":42600:42618  self.tickSpacing() */\n      mload(0x40)\n      dup2\n      0xffffffff\n      and\n      0xe0\n      shl\n      dup2\n      mstore\n      0x04\n      add\n      0x20\n      mload(0x40)\n      dup1\n      dup4\n      sub\n      dup2\n      dup7\n      dup1\n      extcodesize\n      iszero\n      dup1\n      iszero\n      tag_244\n      jumpi\n      0x00\n      dup1\n      revert\n    tag_244:\n      pop\n      gas\n      staticcall\n      iszero\n      dup1\n      iszero\n      tag_246\n      jumpi\n      returndatasize\n      0x00\n      dup1\n      returndatacopy\n      revert(0x00, returndatasize)\n    tag_246:\n      pop\n      pop\n      pop\n      pop\n      mload(0x40)\n      returndatasize\n      not(0x1f)\n      0x1f\n      dup3\n      add\n      and\n      dup3\n      add\n      dup1\n      0x40\n      mstore\n      pop\n      dup2\n      add\n      swap1\n      tag_247\n      swap2\n      swap1\n      tag_231\n      jump\t// in\n    tag_247:\n        /* \"contracts/lens/QuoterV2_flattened.sol\":42588:42618  tickAfter / self.tickSpacing() */\n      0x02\n      signextend\n        /* \"contracts/lens/QuoterV2_flattened.sol\":42588:42597  tickAfter */\n      dup14\n        /* \"contracts/lens/QuoterV2_flattened.sol\":42588:42618  tickAfter / self.tickSpacing() */\n      0x02\n      signextend\n      dup2\n      tag_248\n      jumpi\n      invalid\n    tag_248:\n      sdiv\n        /* \"contracts/lens/QuoterV2_flattened.sol\":42587:42625  (tickAfter / self.tickSpacing()) % 256 */\n      0x02\n      signextend\n      dup2\n      tag_249\n      jumpi\n      invalid\n    tag_249:\n      smod\n        /* \"contracts/lens/QuoterV2_flattened.sol\":42561:42626  uint8 bitPosAfter = uint8((tickAfter / self.tickSpacing()) % 256) */\n      swap1\n      pop\n        /* \"contracts/lens/QuoterV2_flattened.sol\":43101:43102  0 */\n      0x00\n        /* \"contracts/lens/QuoterV2_flattened.sol\":43085:43096  bitPosAfter */\n      dup2\n        /* \"contracts/lens/QuoterV2_flattened.sol\":43080:43096  1 << bitPosAfter */\n      0xff\n      and\n        /* \"contracts/lens/QuoterV2_flattened.sol\":43080:43081  1 */\n      0x01\n        /* \"contracts/lens/QuoterV2_flattened.sol\":43080:43096  1 << bitPosAfter */\n      swap1\n      shl\n        /* \"contracts/lens/QuoterV2_flattened.sol\":43047:43051  self */\n      dup16\n      sub(shl(0xa0, 0x01), 0x01)\n        /* \"contracts/lens/QuoterV2_flattened.sol\":43047:43062  self.tickBitmap */\n      and\n      0x5339c296\n        /* \"contracts/lens/QuoterV2_flattened.sol\":43063:43075  wordPosAfter */\n      dup6\n        /* \"contracts/lens/QuoterV2_flattened.sol\":43047:43076  self.tickBitmap(wordPosAfter) */\n      mload(0x40)\n      dup3\n      0xffffffff\n      and\n      0xe0\n      shl\n      dup2\n      mstore\n      0x04\n      add\n      tag_250\n      swap2\n      swap1\n      tag_251\n      jump\t// in\n    tag_250:\n      0x20\n      mload(0x40)\n      dup1\n      dup4\n      sub\n      dup2\n      dup7\n      dup1\n      extcodesize\n      iszero\n      dup1\n      iszero\n      tag_252\n      jumpi\n      0x00\n      dup1\n      revert\n    tag_252:\n      pop\n      gas\n      staticcall\n      iszero\n      dup1\n      iszero\n      tag_254\n      jumpi\n      returndatasize\n      0x00\n      dup1\n      returndatacopy\n      revert(0x00, returndatasize)\n    tag_254:\n      pop\n      pop\n      pop\n      pop\n      mload(0x40)\n      returndatasize\n      not(0x1f)\n      0x1f\n      dup3\n      add\n      and\n      dup3\n      add\n      dup1\n      0x40\n      mstore\n      pop\n      dup2\n      add\n      swap1\n      tag_255\n      swap2\n      swap1\n      tag_256\n      jump\t// in\n    tag_255:\n        /* \"contracts/lens/QuoterV2_flattened.sol\":43047:43097  self.tickBitmap(wordPosAfter) & (1 << bitPosAfter) */\n      and\n        /* \"contracts/lens/QuoterV2_flattened.sol\":43046:43102  (self.tickBitmap(wordPosAfter) & (1 << bitPosAfter)) > 0 */\n      gt\n        /* \"contracts/lens/QuoterV2_flattened.sol\":43045:43162  ((self.tickBitmap(wordPosAfter) & (1 << bitPosAfter)) > 0) &&... */\n      dup1\n      iszero\n      tag_257\n      jumpi\n      pop\n        /* \"contracts/lens/QuoterV2_flattened.sol\":43137:43141  self */\n      dup14\n      sub(shl(0xa0, 0x01), 0x01)\n        /* \"contracts/lens/QuoterV2_flattened.sol\":43137:43153  self.tickSpacing */\n      and\n      0xd0c93a7c\n        /* \"contracts/lens/QuoterV2_flattened.sol\":43137:43155  self.tickSpacing() */\n      mload(0x40)\n      dup2\n      0xffffffff\n      and\n      0xe0\n      shl\n      dup2\n      mstore\n      0x04\n      add\n      0x20\n      mload(0x40)\n      dup1\n      dup4\n      sub\n      dup2\n      dup7\n      dup1\n      extcodesize\n      iszero\n      dup1\n      iszero\n      tag_258\n      jumpi\n      0x00\n      dup1\n      revert\n    tag_258:\n      pop\n      gas\n      staticcall\n      iszero\n      dup1\n      iszero\n      tag_260\n      jumpi\n      returndatasize\n      0x00\n      dup1\n      returndatacopy\n      revert(0x00, returndatasize)\n    tag_260:\n      pop\n      pop\n      pop\n      pop\n      mload(0x40)\n      returndatasize\n      not(0x1f)\n      0x1f\n      dup3\n      add\n      and\n      dup3\n      add\n      dup1\n      0x40\n      mstore\n      pop\n      dup2\n      add\n      swap1\n      tag_261\n      swap2\n      swap1\n      tag_231\n      jump\t// in\n    tag_261:\n        /* \"contracts/lens/QuoterV2_flattened.sol\":43125:43155  tickAfter % self.tickSpacing() */\n      0x02\n      signextend\n        /* \"contracts/lens/QuoterV2_flattened.sol\":43125:43134  tickAfter */\n      dup13\n        /* \"contracts/lens/QuoterV2_flattened.sol\":43125:43155  tickAfter % self.tickSpacing() */\n      0x02\n      signextend\n      dup2\n      tag_262\n      jumpi\n      invalid\n    tag_262:\n      smod\n        /* \"contracts/lens/QuoterV2_flattened.sol\":43124:43161  (tickAfter % self.tickSpacing()) == 0 */\n      0x02\n      signextend\n      iszero\n        /* \"contracts/lens/QuoterV2_flattened.sol\":43045:43162  ((self.tickBitmap(wordPosAfter) & (1 << bitPosAfter)) > 0) &&... */\n    tag_257:\n        /* \"contracts/lens/QuoterV2_flattened.sol\":43045:43206  ((self.tickBitmap(wordPosAfter) & (1 << bitPosAfter)) > 0) &&... */\n      dup1\n      iszero\n      tag_263\n      jumpi\n      pop\n        /* \"contracts/lens/QuoterV2_flattened.sol\":43196:43205  tickAfter */\n      dup12\n        /* \"contracts/lens/QuoterV2_flattened.sol\":43183:43205  tickBefore > tickAfter */\n      0x02\n      signextend\n        /* \"contracts/lens/QuoterV2_flattened.sol\":43183:43193  tickBefore */\n      dup14\n        /* \"contracts/lens/QuoterV2_flattened.sol\":43183:43205  tickBefore > tickAfter */\n      0x02\n      signextend\n      sgt\n        /* \"contracts/lens/QuoterV2_flattened.sol\":43045:43206  ((self.tickBitmap(wordPosAfter) & (1 << bitPosAfter)) > 0) &&... */\n    tag_263:\n        /* \"contracts/lens/QuoterV2_flattened.sol\":43006:43206  tickAfterInitialized =... */\n      swap5\n      pop\n        /* \"contracts/lens/QuoterV2_flattened.sol\":43516:43517  0 */\n      0x00\n        /* \"contracts/lens/QuoterV2_flattened.sol\":43505:43511  bitPos */\n      dup4\n        /* \"contracts/lens/QuoterV2_flattened.sol\":43500:43511  1 << bitPos */\n      0xff\n      and\n        /* \"contracts/lens/QuoterV2_flattened.sol\":43500:43501  1 */\n      0x01\n        /* \"contracts/lens/QuoterV2_flattened.sol\":43500:43511  1 << bitPos */\n      swap1\n      shl\n        /* \"contracts/lens/QuoterV2_flattened.sol\":43472:43476  self */\n      dup16\n      sub(shl(0xa0, 0x01), 0x01)\n        /* \"contracts/lens/QuoterV2_flattened.sol\":43472:43487  self.tickBitmap */\n      and\n      0x5339c296\n        /* \"contracts/lens/QuoterV2_flattened.sol\":43488:43495  wordPos */\n      dup8\n        /* \"contracts/lens/QuoterV2_flattened.sol\":43472:43496  self.tickBitmap(wordPos) */\n      mload(0x40)\n      dup3\n      0xffffffff\n      and\n      0xe0\n      shl\n      dup2\n      mstore\n      0x04\n      add\n      tag_264\n      swap2\n      swap1\n      tag_251\n      jump\t// in\n    tag_264:\n      0x20\n      mload(0x40)\n      dup1\n      dup4\n      sub\n      dup2\n      dup7\n      dup1\n      extcodesize\n      iszero\n      dup1\n      iszero\n      tag_265\n      jumpi\n      0x00\n      dup1\n      revert\n    tag_265:\n      pop\n      gas\n      staticcall\n      iszero\n      dup1\n      iszero\n      tag_267\n      jumpi\n      returndatasize\n      0x00\n      dup1\n      returndatacopy\n      revert(0x00, returndatasize)\n    tag_267:\n      pop\n      pop\n      pop\n      pop\n      mload(0x40)\n      returndatasize\n      not(0x1f)\n      0x1f\n      dup3\n      add\n      and\n      dup3\n      add\n      dup1\n      0x40\n      mstore\n      pop\n      dup2\n      add\n      swap1\n      tag_268\n      swap2\n      swap1\n      tag_256\n      jump\t// in\n    tag_268:\n        /* \"contracts/lens/QuoterV2_flattened.sol\":43472:43512  self.tickBitmap(wordPos) & (1 << bitPos) */\n      and\n        /* \"contracts/lens/QuoterV2_flattened.sol\":43471:43517  (self.tickBitmap(wordPos) & (1 << bitPos)) > 0 */\n      gt\n        /* \"contracts/lens/QuoterV2_flattened.sol\":43470:43578  ((self.tickBitmap(wordPos) & (1 << bitPos)) > 0) &&... */\n      dup1\n      iszero\n      tag_269\n      jumpi\n      pop\n        /* \"contracts/lens/QuoterV2_flattened.sol\":43553:43557  self */\n      dup14\n      sub(shl(0xa0, 0x01), 0x01)\n        /* \"contracts/lens/QuoterV2_flattened.sol\":43553:43569  self.tickSpacing */\n      and\n      0xd0c93a7c\n        /* \"contracts/lens/QuoterV2_flattened.sol\":43553:43571  self.tickSpacing() */\n      mload(0x40)\n      dup2\n      0xffffffff\n      and\n      0xe0\n      shl\n      dup2\n      mstore\n      0x04\n      add\n      0x20\n      mload(0x40)\n      dup1\n      dup4\n      sub\n      dup2\n      dup7\n      dup1\n      extcodesize\n      iszero\n      dup1\n      iszero\n      tag_270\n      jumpi\n      0x00\n      dup1\n      revert\n    tag_270:\n      pop\n      gas\n      staticcall\n      iszero\n      dup1\n      iszero\n      tag_272\n      jumpi\n      returndatasize\n      0x00\n      dup1\n      returndatacopy\n      revert(0x00, returndatasize)\n    tag_272:\n      pop\n      pop\n      pop\n      pop\n      mload(0x40)\n      returndatasize\n      not(0x1f)\n      0x1f\n      dup3\n      add\n      and\n      dup3\n      add\n      dup1\n      0x40\n      mstore\n      pop\n      dup2\n      add\n      swap1\n      tag_273\n      swap2\n      swap1\n      tag_231\n      jump\t// in\n    tag_273:\n        /* \"contracts/lens/QuoterV2_flattened.sol\":43540:43571  tickBefore % self.tickSpacing() */\n      0x02\n      signextend\n        /* \"contracts/lens/QuoterV2_flattened.sol\":43540:43550  tickBefore */\n      dup14\n        /* \"contracts/lens/QuoterV2_flattened.sol\":43540:43571  tickBefore % self.tickSpacing() */\n      0x02\n      signextend\n      dup2\n      tag_274\n      jumpi\n      invalid\n    tag_274:\n      smod\n        /* \"contracts/lens/QuoterV2_flattened.sol\":43539:43577  (tickBefore % self.tickSpacing()) == 0 */\n      0x02\n      signextend\n      iszero\n        /* \"contracts/lens/QuoterV2_flattened.sol\":43470:43578  ((self.tickBitmap(wordPos) & (1 << bitPos)) > 0) &&... */\n    tag_269:\n        /* \"contracts/lens/QuoterV2_flattened.sol\":43470:43622  ((self.tickBitmap(wordPos) & (1 << bitPos)) > 0) &&... */\n      dup1\n      iszero\n      tag_275\n      jumpi\n      pop\n        /* \"contracts/lens/QuoterV2_flattened.sol\":43612:43621  tickAfter */\n      dup12\n        /* \"contracts/lens/QuoterV2_flattened.sol\":43599:43621  tickBefore < tickAfter */\n      0x02\n      signextend\n        /* \"contracts/lens/QuoterV2_flattened.sol\":43599:43609  tickBefore */\n      dup14\n        /* \"contracts/lens/QuoterV2_flattened.sol\":43599:43621  tickBefore < tickAfter */\n      0x02\n      signextend\n      slt\n        /* \"contracts/lens/QuoterV2_flattened.sol\":43470:43622  ((self.tickBitmap(wordPos) & (1 << bitPos)) > 0) &&... */\n    tag_275:\n        /* \"contracts/lens/QuoterV2_flattened.sol\":43430:43622  tickBeforeInitialized =... */\n      swap6\n      pop\n        /* \"contracts/lens/QuoterV2_flattened.sol\":43651:43663  wordPosAfter */\n      dup2\n        /* \"contracts/lens/QuoterV2_flattened.sol\":43641:43663  wordPos < wordPosAfter */\n      0x01\n      signextend\n        /* \"contracts/lens/QuoterV2_flattened.sol\":43641:43648  wordPos */\n      dup5\n        /* \"contracts/lens/QuoterV2_flattened.sol\":43641:43663  wordPos < wordPosAfter */\n      0x01\n      signextend\n      slt\n        /* \"contracts/lens/QuoterV2_flattened.sol\":43641:43717  wordPos < wordPosAfter || (wordPos == wordPosAfter && bitPos <= bitPosAfter) */\n      dup1\n      tag_277\n      jumpi\n      pop\n        /* \"contracts/lens/QuoterV2_flattened.sol\":43679:43691  wordPosAfter */\n      dup2\n        /* \"contracts/lens/QuoterV2_flattened.sol\":43668:43691  wordPos == wordPosAfter */\n      0x01\n      signextend\n        /* \"contracts/lens/QuoterV2_flattened.sol\":43668:43675  wordPos */\n      dup5\n        /* \"contracts/lens/QuoterV2_flattened.sol\":43668:43691  wordPos == wordPosAfter */\n      0x01\n      signextend\n      eq\n        /* \"contracts/lens/QuoterV2_flattened.sol\":43668:43716  wordPos == wordPosAfter && bitPos <= bitPosAfter */\n      dup1\n      iszero\n      tag_277\n      jumpi\n      pop\n        /* \"contracts/lens/QuoterV2_flattened.sol\":43705:43716  bitPosAfter */\n      dup1\n        /* \"contracts/lens/QuoterV2_flattened.sol\":43695:43716  bitPos <= bitPosAfter */\n      0xff\n      and\n        /* \"contracts/lens/QuoterV2_flattened.sol\":43695:43701  bitPos */\n      dup4\n        /* \"contracts/lens/QuoterV2_flattened.sol\":43695:43716  bitPos <= bitPosAfter */\n      0xff\n      and\n      gt\n      iszero\n        /* \"contracts/lens/QuoterV2_flattened.sol\":43668:43716  wordPos == wordPosAfter && bitPos <= bitPosAfter */\n    tag_277:\n        /* \"contracts/lens/QuoterV2_flattened.sol\":43637:44091  if (wordPos < wordPosAfter || (wordPos == wordPosAfter && bitPos <= bitPosAfter)) {... */\n      iszero\n      tag_278\n      jumpi\n        /* \"contracts/lens/QuoterV2_flattened.sol\":43752:43759  wordPos */\n      dup4\n        /* \"contracts/lens/QuoterV2_flattened.sol\":43737:43759  wordPosLower = wordPos */\n      swap10\n      pop\n        /* \"contracts/lens/QuoterV2_flattened.sol\":43791:43797  bitPos */\n      dup3\n        /* \"contracts/lens/QuoterV2_flattened.sol\":43777:43797  bitPosLower = bitPos */\n      swap8\n      pop\n        /* \"contracts/lens/QuoterV2_flattened.sol\":43831:43843  wordPosAfter */\n      dup2\n        /* \"contracts/lens/QuoterV2_flattened.sol\":43815:43843  wordPosHigher = wordPosAfter */\n      swap9\n      pop\n        /* \"contracts/lens/QuoterV2_flattened.sol\":43876:43887  bitPosAfter */\n      dup1\n        /* \"contracts/lens/QuoterV2_flattened.sol\":43861:43887  bitPosHigher = bitPosAfter */\n      swap7\n      pop\n        /* \"contracts/lens/QuoterV2_flattened.sol\":43637:44091  if (wordPos < wordPosAfter || (wordPos == wordPosAfter && bitPos <= bitPosAfter)) {... */\n      jump(tag_279)\n    tag_278:\n        /* \"contracts/lens/QuoterV2_flattened.sol\":43941:43953  wordPosAfter */\n      dup2\n        /* \"contracts/lens/QuoterV2_flattened.sol\":43926:43953  wordPosLower = wordPosAfter */\n      swap10\n      pop\n        /* \"contracts/lens/QuoterV2_flattened.sol\":43985:43996  bitPosAfter */\n      dup1\n        /* \"contracts/lens/QuoterV2_flattened.sol\":43971:43996  bitPosLower = bitPosAfter */\n      swap8\n      pop\n        /* \"contracts/lens/QuoterV2_flattened.sol\":44030:44037  wordPos */\n      dup4\n        /* \"contracts/lens/QuoterV2_flattened.sol\":44014:44037  wordPosHigher = wordPos */\n      swap9\n      pop\n        /* \"contracts/lens/QuoterV2_flattened.sol\":44070:44076  bitPos */\n      dup3\n        /* \"contracts/lens/QuoterV2_flattened.sol\":44055:44076  bitPosHigher = bitPos */\n      swap7\n      pop\n        /* \"contracts/lens/QuoterV2_flattened.sol\":43637:44091  if (wordPos < wordPosAfter || (wordPos == wordPosAfter && bitPos <= bitPosAfter)) {... */\n    tag_279:\n      pop\n      pop\n      not(0x00)\n        /* \"contracts/lens/QuoterV2_flattened.sol\":44305:44337  type(uint256).max << bitPosLower */\n      0xff\n      dup8\n      and\n      shl\n      swap2\n      pop\n      pop\n        /* \"contracts/lens/QuoterV2_flattened.sol\":44347:44920  while (wordPosLower <= wordPosHigher) {... */\n    tag_280:\n        /* \"contracts/lens/QuoterV2_flattened.sol\":44370:44383  wordPosHigher */\n      dup6\n        /* \"contracts/lens/QuoterV2_flattened.sol\":44354:44383  wordPosLower <= wordPosHigher */\n      0x01\n      signextend\n        /* \"contracts/lens/QuoterV2_flattened.sol\":44354:44366  wordPosLower */\n      dup8\n        /* \"contracts/lens/QuoterV2_flattened.sol\":44354:44383  wordPosLower <= wordPosHigher */\n      0x01\n      signextend\n      sgt\n        /* \"contracts/lens/QuoterV2_flattened.sol\":44347:44920  while (wordPosLower <= wordPosHigher) {... */\n      tag_281\n      jumpi\n        /* \"contracts/lens/QuoterV2_flattened.sol\":44533:44546  wordPosHigher */\n      dup6\n        /* \"contracts/lens/QuoterV2_flattened.sol\":44517:44546  wordPosLower == wordPosHigher */\n      0x01\n      signextend\n        /* \"contracts/lens/QuoterV2_flattened.sol\":44517:44529  wordPosLower */\n      dup8\n        /* \"contracts/lens/QuoterV2_flattened.sol\":44517:44546  wordPosLower == wordPosHigher */\n      0x01\n      signextend\n      eq\n        /* \"contracts/lens/QuoterV2_flattened.sol\":44513:44638  if (wordPosLower == wordPosHigher) {... */\n      iszero\n      tag_282\n      jumpi\n      not(0x00)\n        /* \"contracts/lens/QuoterV2_flattened.sol\":44603:44606  255 */\n      0xff\n        /* \"contracts/lens/QuoterV2_flattened.sol\":44603:44621  255 - bitPosHigher */\n      dup6\n      dup2\n      sub\n        /* \"contracts/lens/QuoterV2_flattened.sol\":44581:44622  type(uint256).max >> (255 - bitPosHigher) */\n      and\n      shr\n        /* \"contracts/lens/QuoterV2_flattened.sol\":44573:44623  mask & (type(uint256).max >> (255 - bitPosHigher)) */\n      and\n        /* \"contracts/lens/QuoterV2_flattened.sol\":44513:44638  if (wordPosLower == wordPosHigher) {... */\n    tag_282:\n        /* \"contracts/lens/QuoterV2_flattened.sol\":44652:44666  uint256 masked */\n      0x00\n        /* \"contracts/lens/QuoterV2_flattened.sol\":44701:44705  mask */\n      dup2\n        /* \"contracts/lens/QuoterV2_flattened.sol\":44669:44673  self */\n      dup13\n      sub(shl(0xa0, 0x01), 0x01)\n        /* \"contracts/lens/QuoterV2_flattened.sol\":44669:44684  self.tickBitmap */\n      and\n      0x5339c296\n        /* \"contracts/lens/QuoterV2_flattened.sol\":44685:44697  wordPosLower */\n      dup11\n        /* \"contracts/lens/QuoterV2_flattened.sol\":44669:44698  self.tickBitmap(wordPosLower) */\n      mload(0x40)\n      dup3\n      0xffffffff\n      and\n      0xe0\n      shl\n      dup2\n      mstore\n      0x04\n      add\n      tag_283\n      swap2\n      swap1\n      tag_251\n      jump\t// in\n    tag_283:\n      0x20\n      mload(0x40)\n      dup1\n      dup4\n      sub\n      dup2\n      dup7\n      dup1\n      extcodesize\n      iszero\n      dup1\n      iszero\n      tag_284\n      jumpi\n      0x00\n      dup1\n      revert\n    tag_284:\n      pop\n      gas\n      staticcall\n      iszero\n      dup1\n      iszero\n      tag_286\n      jumpi\n      returndatasize\n      0x00\n      dup1\n      returndatacopy\n      revert(0x00, returndatasize)\n    tag_286:\n      pop\n      pop\n      pop\n      pop\n      mload(0x40)\n      returndatasize\n      not(0x1f)\n      0x1f\n      dup3\n      add\n      and\n      dup3\n      add\n      dup1\n      0x40\n      mstore\n      pop\n      dup2\n      add\n      swap1\n      tag_287\n      swap2\n      swap1\n      tag_256\n      jump\t// in\n    tag_287:\n        /* \"contracts/lens/QuoterV2_flattened.sol\":44669:44705  self.tickBitmap(wordPosLower) & mask */\n      and\n        /* \"contracts/lens/QuoterV2_flattened.sol\":44652:44705  uint256 masked = self.tickBitmap(wordPosLower) & mask */\n      swap1\n      pop\n        /* \"contracts/lens/QuoterV2_flattened.sol\":44746:44766  countOneBits(masked) */\n      tag_288\n        /* \"contracts/lens/QuoterV2_flattened.sol\":44759:44765  masked */\n      dup2\n        /* \"contracts/lens/QuoterV2_flattened.sol\":44746:44758  countOneBits */\n      tag_289\n        /* \"contracts/lens/QuoterV2_flattened.sol\":44746:44766  countOneBits(masked) */\n      jump\t// in\n    tag_288:\n        /* \"contracts/lens/QuoterV2_flattened.sol\":44719:44766  initializedTicksCrossed += countOneBits(masked) */\n      0xffff\n      and\n      swap9\n      swap1\n      swap9\n      add\n      swap8\n      pop\n      pop\n        /* \"contracts/lens/QuoterV2_flattened.sol\":44780:44794  wordPosLower++ */\n      0x01\n      swap1\n      swap6\n      add\n      swap5\n      not(0x00)\n        /* \"contracts/lens/QuoterV2_flattened.sol\":44347:44920  while (wordPosLower <= wordPosHigher) {... */\n      jump(tag_280)\n    tag_281:\n        /* \"contracts/lens/QuoterV2_flattened.sol\":44934:44954  tickAfterInitialized */\n      dup2\n        /* \"contracts/lens/QuoterV2_flattened.sol\":44930:45009  if (tickAfterInitialized) {... */\n      iszero\n      tag_290\n      jumpi\n        /* \"contracts/lens/QuoterV2_flattened.sol\":44997:44998  1 */\n      0x01\n        /* \"contracts/lens/QuoterV2_flattened.sol\":44970:44998  initializedTicksCrossed -= 1 */\n      dup9\n      sub\n      swap8\n      pop\n        /* \"contracts/lens/QuoterV2_flattened.sol\":44930:45009  if (tickAfterInitialized) {... */\n    tag_290:\n        /* \"contracts/lens/QuoterV2_flattened.sol\":45023:45044  tickBeforeInitialized */\n      dup3\n        /* \"contracts/lens/QuoterV2_flattened.sol\":45019:45099  if (tickBeforeInitialized) {... */\n      iszero\n      tag_291\n      jumpi\n        /* \"contracts/lens/QuoterV2_flattened.sol\":45087:45088  1 */\n      0x01\n        /* \"contracts/lens/QuoterV2_flattened.sol\":45060:45088  initializedTicksCrossed -= 1 */\n      dup9\n      sub\n      swap8\n      pop\n        /* \"contracts/lens/QuoterV2_flattened.sol\":45019:45099  if (tickBeforeInitialized) {... */\n    tag_291:\n        /* \"contracts/lens/QuoterV2_flattened.sol\":45109:45139  return initializedTicksCrossed */\n      pop\n      pop\n      pop\n      pop\n      pop\n      pop\n      pop\n        /* \"contracts/lens/QuoterV2_flattened.sol\":41841:45146  function countInitializedTicksCrossed(... */\n      swap4\n      swap3\n      pop\n      pop\n      pop\n      jump\t// out\n        /* \"contracts/lens/QuoterV2_flattened.sol\":46457:46736  function verifyCallback(address factory, PoolAddress.PoolKey memory poolKey)... */\n    tag_176:\n        /* \"contracts/lens/QuoterV2_flattened.sol\":46581:46600  IUniswapV3Pool pool */\n      0x00\n        /* \"contracts/lens/QuoterV2_flattened.sol\":46638:46682  PoolAddress.computeAddress(factory, poolKey) */\n      tag_293\n        /* \"contracts/lens/QuoterV2_flattened.sol\":46665:46672  factory */\n      dup4\n        /* \"contracts/lens/QuoterV2_flattened.sol\":46674:46681  poolKey */\n      dup4\n        /* \"contracts/lens/QuoterV2_flattened.sol\":46638:46664  PoolAddress.computeAddress */\n      tag_161\n        /* \"contracts/lens/QuoterV2_flattened.sol\":46638:46682  PoolAddress.computeAddress(factory, poolKey) */\n      jump\t// in\n    tag_293:\n        /* \"contracts/lens/QuoterV2_flattened.sol\":46616:46683  pool = IUniswapV3Pool(PoolAddress.computeAddress(factory, poolKey)) */\n      swap1\n      pop\n        /* \"contracts/lens/QuoterV2_flattened.sol\":46701:46711  msg.sender */\n      caller\n      sub(shl(0xa0, 0x01), 0x01)\n        /* \"contracts/lens/QuoterV2_flattened.sol\":46701:46728  msg.sender == address(pool) */\n      dup3\n      and\n      eq\n        /* \"contracts/lens/QuoterV2_flattened.sol\":46693:46729  require(msg.sender == address(pool)) */\n      tag_155\n      jumpi\n      0x00\n      dup1\n      revert\n        /* \"contracts/lens/QuoterV2_flattened.sol\":45152:45349  function countOneBits(uint256 x) private pure returns (uint16) {... */\n    tag_289:\n        /* \"contracts/lens/QuoterV2_flattened.sol\":45207:45213  uint16 */\n      0x00\n      dup1\n        /* \"contracts/lens/QuoterV2_flattened.sol\":45250:45322  while (x != 0) {... */\n    tag_296:\n        /* \"contracts/lens/QuoterV2_flattened.sol\":45257:45263  x != 0 */\n      dup3\n      iszero\n        /* \"contracts/lens/QuoterV2_flattened.sol\":45250:45322  while (x != 0) {... */\n      tag_155\n      jumpi\n      not(0x00)\n        /* \"contracts/lens/QuoterV2_flattened.sol\":45305:45310  x - 1 */\n      dup4\n      add\n        /* \"contracts/lens/QuoterV2_flattened.sol\":45299:45311  x &= (x - 1) */\n      swap1\n      swap3\n      and\n      swap2\n        /* \"contracts/lens/QuoterV2_flattened.sol\":45279:45285  bits++ */\n      0x01\n      add\n        /* \"contracts/lens/QuoterV2_flattened.sol\":45250:45322  while (x != 0) {... */\n      jump(tag_296)\n    tag_206:\n      0x40\n      dup1\n      mload\n      0x60\n      dup2\n      add\n      dup3\n      mstore\n      0x00\n      dup1\n      dup3\n      mstore\n      0x20\n      dup3\n      add\n      dup2\n      swap1\n      mstore\n      swap2\n      dup2\n      add\n      swap2\n      swap1\n      swap2\n      mstore\n      swap1\n      jump\t// out\n        /* \"#utility.yul\":14:499   */\n    tag_299:\n      0x00\n        /* \"#utility.yul\":111:114   */\n      dup3\n        /* \"#utility.yul\":104:108   */\n      0x1f\n        /* \"#utility.yul\":96:102   */\n      dup4\n        /* \"#utility.yul\":92:109   */\n      add\n        /* \"#utility.yul\":88:115   */\n      slt\n        /* \"#utility.yul\":78:80   */\n      tag_301\n      jumpi\n        /* \"#utility.yul\":133:138   */\n      dup1\n        /* \"#utility.yul\":126:131   */\n      dup2\n        /* \"#utility.yul\":119:139   */\n      revert\n        /* \"#utility.yul\":78:80   */\n    tag_301:\n        /* \"#utility.yul\":173:179   */\n      dup2\n        /* \"#utility.yul\":160:180   */\n      calldataload\n        /* \"#utility.yul\":204:253   */\n      tag_302\n        /* \"#utility.yul\":219:252   */\n      tag_303\n        /* \"#utility.yul\":249:251   */\n      dup3\n        /* \"#utility.yul\":219:252   */\n      tag_304\n      jump\t// in\n    tag_303:\n        /* \"#utility.yul\":204:253   */\n      tag_305\n      jump\t// in\n    tag_302:\n        /* \"#utility.yul\":278:280   */\n      dup2\n        /* \"#utility.yul\":269:276   */\n      dup2\n        /* \"#utility.yul\":262:281   */\n      mstore\n        /* \"#utility.yul\":324:327   */\n      dup5\n        /* \"#utility.yul\":317:321   */\n      0x20\n        /* \"#utility.yul\":312:314   */\n      dup4\n        /* \"#utility.yul\":304:310   */\n      dup7\n        /* \"#utility.yul\":300:315   */\n      add\n        /* \"#utility.yul\":296:322   */\n      add\n        /* \"#utility.yul\":293:328   */\n      gt\n        /* \"#utility.yul\":290:292   */\n      iszero\n      tag_306\n      jumpi\n        /* \"#utility.yul\":345:350   */\n      dup3\n        /* \"#utility.yul\":338:343   */\n      dup4\n        /* \"#utility.yul\":331:351   */\n      revert\n        /* \"#utility.yul\":290:292   */\n    tag_306:\n        /* \"#utility.yul\":414:416   */\n      dup2\n        /* \"#utility.yul\":407:411   */\n      0x20\n        /* \"#utility.yul\":399:405   */\n      dup6\n        /* \"#utility.yul\":395:412   */\n      add\n        /* \"#utility.yul\":388:392   */\n      0x20\n        /* \"#utility.yul\":379:386   */\n      dup4\n        /* \"#utility.yul\":375:393   */\n      add\n        /* \"#utility.yul\":362:417   */\n      calldatacopy\n        /* \"#utility.yul\":437:453   */\n      swap1\n      dup2\n      add\n        /* \"#utility.yul\":455:459   */\n      0x20\n        /* \"#utility.yul\":433:460   */\n      add\n        /* \"#utility.yul\":426:468   */\n      swap2\n      swap1\n      swap2\n      mstore\n        /* \"#utility.yul\":441:448   */\n      swap3\n        /* \"#utility.yul\":68:499   */\n      swap2\n      pop\n      pop\n      jump\t// out\n        /* \"#utility.yul\":504:670   */\n    tag_307:\n        /* \"#utility.yul\":583:596   */\n      dup1\n      mload\n        /* \"#utility.yul\":636:637   */\n      0x02\n        /* \"#utility.yul\":625:645   */\n      dup2\n      swap1\n      signextend\n        /* \"#utility.yul\":615:646   */\n      dup2\n      eq\n        /* \"#utility.yul\":605:607   */\n      tag_145\n      jumpi\n        /* \"#utility.yul\":660:661   */\n      0x00\n        /* \"#utility.yul\":657:658   */\n      dup1\n        /* \"#utility.yul\":650:662   */\n      revert\n        /* \"#utility.yul\":675:1630   */\n    tag_310:\n      0x00\n        /* \"#utility.yul\":800:804   */\n      0xa0\n        /* \"#utility.yul\":788:797   */\n      dup3\n        /* \"#utility.yul\":783:786   */\n      dup5\n        /* \"#utility.yul\":779:798   */\n      sub\n        /* \"#utility.yul\":775:805   */\n      slt\n        /* \"#utility.yul\":772:774   */\n      iszero\n      tag_312\n      jumpi\n        /* \"#utility.yul\":822:827   */\n      dup1\n        /* \"#utility.yul\":815:820   */\n      dup2\n        /* \"#utility.yul\":808:828   */\n      revert\n        /* \"#utility.yul\":772:774   */\n    tag_312:\n        /* \"#utility.yul\":859:861   */\n      0x40\n        /* \"#utility.yul\":853:862   */\n      mload\n        /* \"#utility.yul\":901:905   */\n      0xa0\n        /* \"#utility.yul\":893:899   */\n      dup2\n        /* \"#utility.yul\":889:906   */\n      add\n        /* \"#utility.yul\":972:978   */\n      dup2\n        /* \"#utility.yul\":960:970   */\n      dup2\n        /* \"#utility.yul\":957:979   */\n      lt\n        /* \"#utility.yul\":936:954   */\n      0xffffffffffffffff\n        /* \"#utility.yul\":924:934   */\n      dup3\n        /* \"#utility.yul\":921:955   */\n      gt\n        /* \"#utility.yul\":918:980   */\n      or\n        /* \"#utility.yul\":915:917   */\n      iszero\n      tag_313\n      jumpi\n        /* \"#utility.yul\":983:992   */\n      invalid\n        /* \"#utility.yul\":915:917   */\n    tag_313:\n        /* \"#utility.yul\":1010:1012   */\n      0x40\n        /* \"#utility.yul\":1003:1025   */\n      mstore\n        /* \"#utility.yul\":1043:1049   */\n      swap1\n      pop\n      dup1\n        /* \"#utility.yul\":1073:1096   */\n      dup3\n      calldataload\n        /* \"#utility.yul\":1105:1140   */\n      tag_314\n        /* \"#utility.yul\":1073:1096   */\n      dup2\n        /* \"#utility.yul\":1105:1140   */\n      tag_315\n      jump\t// in\n    tag_314:\n        /* \"#utility.yul\":1149:1172   */\n      dup2\n      mstore\n        /* \"#utility.yul\":1224:1226   */\n      0x20\n        /* \"#utility.yul\":1209:1227   */\n      dup4\n      add\n        /* \"#utility.yul\":1196:1228   */\n      calldataload\n        /* \"#utility.yul\":1237:1272   */\n      tag_316\n        /* \"#utility.yul\":1196:1228   */\n      dup2\n        /* \"#utility.yul\":1237:1272   */\n      tag_315\n      jump\t// in\n    tag_316:\n        /* \"#utility.yul\":1300:1302   */\n      0x20\n        /* \"#utility.yul\":1288:1303   */\n      dup3\n      add\n        /* \"#utility.yul\":1281:1313   */\n      mstore\n        /* \"#utility.yul\":1374:1376   */\n      0x40\n        /* \"#utility.yul\":1359:1377   */\n      dup4\n      dup2\n      add\n        /* \"#utility.yul\":1346:1378   */\n      calldataload\n        /* \"#utility.yul\":1329:1344   */\n      swap1\n      dup3\n      add\n        /* \"#utility.yul\":1322:1379   */\n      mstore\n        /* \"#utility.yul\":1431:1433   */\n      0x60\n        /* \"#utility.yul\":1416:1434   */\n      dup4\n      add\n        /* \"#utility.yul\":1403:1435   */\n      calldataload\n        /* \"#utility.yul\":1479:1487   */\n      0xffffff\n        /* \"#utility.yul\":1466:1488   */\n      dup2\n      and\n        /* \"#utility.yul\":1454:1489   */\n      dup2\n      eq\n        /* \"#utility.yul\":1444:1446   */\n      tag_317\n      jumpi\n        /* \"#utility.yul\":1503:1504   */\n      0x00\n        /* \"#utility.yul\":1500:1501   */\n      dup1\n        /* \"#utility.yul\":1493:1505   */\n      revert\n        /* \"#utility.yul\":1444:1446   */\n    tag_317:\n        /* \"#utility.yul\":1535:1537   */\n      0x60\n        /* \"#utility.yul\":1523:1538   */\n      dup3\n      add\n        /* \"#utility.yul\":1516:1548   */\n      mstore\n        /* \"#utility.yul\":1582:1623   */\n      tag_318\n        /* \"#utility.yul\":1618:1621   */\n      0x80\n        /* \"#utility.yul\":1603:1622   */\n      dup5\n      add\n        /* \"#utility.yul\":1582:1623   */\n      tag_319\n      jump\t// in\n    tag_318:\n        /* \"#utility.yul\":1576:1579   */\n      0x80\n        /* \"#utility.yul\":1568:1574   */\n      dup3\n        /* \"#utility.yul\":1564:1580   */\n      add\n        /* \"#utility.yul\":1557:1624   */\n      mstore\n      pop\n        /* \"#utility.yul\":762:1630   */\n      swap3\n      swap2\n      pop\n      pop\n      jump\t// out\n        /* \"#utility.yul\":1635:1773   */\n    tag_319:\n        /* \"#utility.yul\":1705:1725   */\n      dup1\n      calldataload\n        /* \"#utility.yul\":1734:1767   */\n      tag_145\n        /* \"#utility.yul\":1705:1725   */\n      dup2\n        /* \"#utility.yul\":1734:1767   */\n      tag_315\n      jump\t// in\n        /* \"#utility.yul\":1778:1943   */\n    tag_322:\n        /* \"#utility.yul\":1858:1871   */\n      dup1\n      mload\n        /* \"#utility.yul\":1911:1917   */\n      0xffff\n        /* \"#utility.yul\":1900:1918   */\n      dup2\n      and\n        /* \"#utility.yul\":1890:1919   */\n      dup2\n      eq\n        /* \"#utility.yul\":1880:1882   */\n      tag_145\n      jumpi\n        /* \"#utility.yul\":1933:1934   */\n      0x00\n        /* \"#utility.yul\":1930:1931   */\n      dup1\n        /* \"#utility.yul\":1923:1935   */\n      revert\n        /* \"#utility.yul\":1948:2358   */\n    tag_13:\n      0x00\n      dup1\n        /* \"#utility.yul\":2086:2088   */\n      0x40\n        /* \"#utility.yul\":2074:2083   */\n      dup4\n        /* \"#utility.yul\":2065:2072   */\n      dup6\n        /* \"#utility.yul\":2061:2084   */\n      sub\n        /* \"#utility.yul\":2057:2089   */\n      slt\n        /* \"#utility.yul\":2054:2056   */\n      iszero\n      tag_326\n      jumpi\n        /* \"#utility.yul\":2107:2113   */\n      dup2\n        /* \"#utility.yul\":2099:2105   */\n      dup3\n        /* \"#utility.yul\":2092:2114   */\n      revert\n        /* \"#utility.yul\":2054:2056   */\n    tag_326:\n        /* \"#utility.yul\":2152:2161   */\n      dup3\n        /* \"#utility.yul\":2139:2162   */\n      calldataload\n        /* \"#utility.yul\":2185:2203   */\n      0xffffffffffffffff\n        /* \"#utility.yul\":2177:2183   */\n      dup2\n        /* \"#utility.yul\":2174:2204   */\n      gt\n        /* \"#utility.yul\":2171:2173   */\n      iszero\n      tag_327\n      jumpi\n        /* \"#utility.yul\":2222:2228   */\n      dup3\n        /* \"#utility.yul\":2214:2220   */\n      dup4\n        /* \"#utility.yul\":2207:2229   */\n      revert\n        /* \"#utility.yul\":2171:2173   */\n    tag_327:\n        /* \"#utility.yul\":2250:2301   */\n      tag_328\n        /* \"#utility.yul\":2293:2300   */\n      dup6\n        /* \"#utility.yul\":2284:2290   */\n      dup3\n        /* \"#utility.yul\":2273:2282   */\n      dup7\n        /* \"#utility.yul\":2269:2291   */\n      add\n        /* \"#utility.yul\":2250:2301   */\n      tag_299\n      jump\t// in\n    tag_328:\n        /* \"#utility.yul\":2240:2301   */\n      swap6\n        /* \"#utility.yul\":2348:2350   */\n      0x20\n        /* \"#utility.yul\":2333:2351   */\n      swap5\n      swap1\n      swap5\n      add\n        /* \"#utility.yul\":2320:2352   */\n      calldataload\n      swap5\n      pop\n      pop\n      pop\n      pop\n        /* \"#utility.yul\":2044:2358   */\n      jump\t// out\n        /* \"#utility.yul\":2363:2579   */\n    tag_231:\n      0x00\n        /* \"#utility.yul\":2484:2486   */\n      0x20\n        /* \"#utility.yul\":2472:2481   */\n      dup3\n        /* \"#utility.yul\":2463:2470   */\n      dup5\n        /* \"#utility.yul\":2459:2482   */\n      sub\n        /* \"#utility.yul\":2455:2487   */\n      slt\n        /* \"#utility.yul\":2452:2454   */\n      iszero\n      tag_330\n      jumpi\n        /* \"#utility.yul\":2505:2511   */\n      dup1\n        /* \"#utility.yul\":2497:2503   */\n      dup2\n        /* \"#utility.yul\":2490:2512   */\n      revert\n        /* \"#utility.yul\":2452:2454   */\n    tag_330:\n        /* \"#utility.yul\":2533:2573   */\n      tag_331\n        /* \"#utility.yul\":2563:2572   */\n      dup3\n        /* \"#utility.yul\":2533:2573   */\n      tag_307\n      jump\t// in\n    tag_331:\n        /* \"#utility.yul\":2523:2573   */\n      swap4\n        /* \"#utility.yul\":2442:2579   */\n      swap3\n      pop\n      pop\n      pop\n      jump\t// out\n        /* \"#utility.yul\":2584:2837   */\n    tag_81:\n      0x00\n      dup1\n        /* \"#utility.yul\":2722:2724   */\n      0x40\n        /* \"#utility.yul\":2710:2719   */\n      dup4\n        /* \"#utility.yul\":2701:2708   */\n      dup6\n        /* \"#utility.yul\":2697:2720   */\n      sub\n        /* \"#utility.yul\":2693:2725   */\n      slt\n        /* \"#utility.yul\":2690:2692   */\n      iszero\n      tag_333\n      jumpi\n        /* \"#utility.yul\":2743:2749   */\n      dup2\n        /* \"#utility.yul\":2735:2741   */\n      dup3\n        /* \"#utility.yul\":2728:2750   */\n      revert\n        /* \"#utility.yul\":2690:2692   */\n    tag_333:\n      pop\n      pop\n        /* \"#utility.yul\":2771:2787   */\n      dup1\n      mload\n        /* \"#utility.yul\":2827:2829   */\n      0x20\n        /* \"#utility.yul\":2812:2830   */\n      swap1\n      swap2\n      add\n        /* \"#utility.yul\":2806:2831   */\n      mload\n        /* \"#utility.yul\":2771:2787   */\n      swap1\n      swap3\n        /* \"#utility.yul\":2806:2831   */\n      swap1\n      swap2\n      pop\n        /* \"#utility.yul\":2680:2837   */\n      jump\t// out\n        /* \"#utility.yul\":2842:3318   */\n    tag_41:\n      0x00\n      dup1\n      0x00\n        /* \"#utility.yul\":2995:2997   */\n      0x60\n        /* \"#utility.yul\":2983:2992   */\n      dup5\n        /* \"#utility.yul\":2974:2981   */\n      dup7\n        /* \"#utility.yul\":2970:2993   */\n      sub\n        /* \"#utility.yul\":2966:2998   */\n      slt\n        /* \"#utility.yul\":2963:2965   */\n      iszero\n      tag_335\n      jumpi\n        /* \"#utility.yul\":3016:3022   */\n      dup1\n        /* \"#utility.yul\":3008:3014   */\n      dup2\n        /* \"#utility.yul\":3001:3023   */\n      revert\n        /* \"#utility.yul\":2963:2965   */\n    tag_335:\n        /* \"#utility.yul\":3057:3066   */\n      dup4\n        /* \"#utility.yul\":3044:3067   */\n      calldataload\n        /* \"#utility.yul\":3034:3067   */\n      swap3\n      pop\n        /* \"#utility.yul\":3114:3116   */\n      0x20\n        /* \"#utility.yul\":3103:3112   */\n      dup5\n        /* \"#utility.yul\":3099:3117   */\n      add\n        /* \"#utility.yul\":3086:3118   */\n      calldataload\n        /* \"#utility.yul\":3076:3118   */\n      swap2\n      pop\n        /* \"#utility.yul\":3169:3171   */\n      0x40\n        /* \"#utility.yul\":3158:3167   */\n      dup5\n        /* \"#utility.yul\":3154:3172   */\n      add\n        /* \"#utility.yul\":3141:3173   */\n      calldataload\n        /* \"#utility.yul\":3196:3214   */\n      0xffffffffffffffff\n        /* \"#utility.yul\":3188:3194   */\n      dup2\n        /* \"#utility.yul\":3185:3215   */\n      gt\n        /* \"#utility.yul\":3182:3184   */\n      iszero\n      tag_336\n      jumpi\n        /* \"#utility.yul\":3233:3239   */\n      dup2\n        /* \"#utility.yul\":3225:3231   */\n      dup3\n        /* \"#utility.yul\":3218:3240   */\n      revert\n        /* \"#utility.yul\":3182:3184   */\n    tag_336:\n        /* \"#utility.yul\":3261:3312   */\n      tag_337\n        /* \"#utility.yul\":3304:3311   */\n      dup7\n        /* \"#utility.yul\":3295:3301   */\n      dup3\n        /* \"#utility.yul\":3284:3293   */\n      dup8\n        /* \"#utility.yul\":3280:3302   */\n      add\n        /* \"#utility.yul\":3261:3312   */\n      tag_299\n      jump\t// in\n    tag_337:\n        /* \"#utility.yul\":3251:3312   */\n      swap2\n      pop\n      pop\n        /* \"#utility.yul\":2953:3318   */\n      swap3\n      pop\n      swap3\n      pop\n      swap3\n      jump\t// out\n        /* \"#utility.yul\":3323:3999   */\n    tag_221:\n      0x00\n        /* \"#utility.yul\":3456:3458   */\n      0x20\n        /* \"#utility.yul\":3444:3453   */\n      dup3\n        /* \"#utility.yul\":3435:3442   */\n      dup5\n        /* \"#utility.yul\":3431:3454   */\n      sub\n        /* \"#utility.yul\":3427:3459   */\n      slt\n        /* \"#utility.yul\":3424:3426   */\n      iszero\n      tag_339\n      jumpi\n        /* \"#utility.yul\":3477:3483   */\n      dup1\n        /* \"#utility.yul\":3469:3475   */\n      dup2\n        /* \"#utility.yul\":3462:3484   */\n      revert\n        /* \"#utility.yul\":3424:3426   */\n    tag_339:\n        /* \"#utility.yul\":3515:3524   */\n      dup2\n        /* \"#utility.yul\":3509:3525   */\n      mload\n        /* \"#utility.yul\":3548:3566   */\n      0xffffffffffffffff\n        /* \"#utility.yul\":3540:3546   */\n      dup2\n        /* \"#utility.yul\":3537:3567   */\n      gt\n        /* \"#utility.yul\":3534:3536   */\n      iszero\n      tag_340\n      jumpi\n        /* \"#utility.yul\":3585:3591   */\n      dup2\n        /* \"#utility.yul\":3577:3583   */\n      dup3\n        /* \"#utility.yul\":3570:3592   */\n      revert\n        /* \"#utility.yul\":3534:3536   */\n    tag_340:\n        /* \"#utility.yul\":3613:3635   */\n      dup3\n      add\n        /* \"#utility.yul\":3666:3670   */\n      0x1f\n        /* \"#utility.yul\":3658:3671   */\n      dup2\n      add\n        /* \"#utility.yul\":3654:3681   */\n      dup5\n      sgt\n        /* \"#utility.yul\":3644:3646   */\n      tag_341\n      jumpi\n        /* \"#utility.yul\":3700:3706   */\n      dup2\n        /* \"#utility.yul\":3692:3698   */\n      dup3\n        /* \"#utility.yul\":3685:3707   */\n      revert\n        /* \"#utility.yul\":3644:3646   */\n    tag_341:\n        /* \"#utility.yul\":3734:3736   */\n      dup1\n        /* \"#utility.yul\":3728:3737   */\n      mload\n        /* \"#utility.yul\":3759:3808   */\n      tag_342\n        /* \"#utility.yul\":3774:3807   */\n      tag_303\n        /* \"#utility.yul\":3804:3806   */\n      dup3\n        /* \"#utility.yul\":3774:3807   */\n      tag_304\n      jump\t// in\n        /* \"#utility.yul\":3759:3808   */\n    tag_342:\n        /* \"#utility.yul\":3831:3833   */\n      dup2\n        /* \"#utility.yul\":3824:3829   */\n      dup2\n        /* \"#utility.yul\":3817:3834   */\n      mstore\n        /* \"#utility.yul\":3871:3878   */\n      dup6\n        /* \"#utility.yul\":3866:3868   */\n      0x20\n        /* \"#utility.yul\":3861:3863   */\n      dup4\n        /* \"#utility.yul\":3857:3859   */\n      dup6\n        /* \"#utility.yul\":3853:3864   */\n      add\n        /* \"#utility.yul\":3849:3869   */\n      add\n        /* \"#utility.yul\":3846:3879   */\n      gt\n        /* \"#utility.yul\":3843:3845   */\n      iszero\n      tag_344\n      jumpi\n        /* \"#utility.yul\":3897:3903   */\n      dup4\n        /* \"#utility.yul\":3889:3895   */\n      dup5\n        /* \"#utility.yul\":3882:3904   */\n      revert\n        /* \"#utility.yul\":3843:3845   */\n    tag_344:\n        /* \"#utility.yul\":3915:3969   */\n      tag_174\n        /* \"#utility.yul\":3966:3968   */\n      dup3\n        /* \"#utility.yul\":3961:3963   */\n      0x20\n        /* \"#utility.yul\":3954:3959   */\n      dup4\n        /* \"#utility.yul\":3950:3964   */\n      add\n        /* \"#utility.yul\":3945:3947   */\n      0x20\n        /* \"#utility.yul\":3941:3943   */\n      dup7\n        /* \"#utility.yul\":3937:3948   */\n      add\n        /* \"#utility.yul\":3915:3969   */\n      tag_346\n      jump\t// in\n        /* \"#utility.yul\":4004:4284   */\n    tag_32:\n      0x00\n        /* \"#utility.yul\":4160:4163   */\n      0xa0\n        /* \"#utility.yul\":4148:4157   */\n      dup3\n        /* \"#utility.yul\":4139:4146   */\n      dup5\n        /* \"#utility.yul\":4135:4158   */\n      sub\n        /* \"#utility.yul\":4131:4164   */\n      slt\n        /* \"#utility.yul\":4128:4130   */\n      iszero\n      tag_348\n      jumpi\n        /* \"#utility.yul\":4182:4188   */\n      dup1\n        /* \"#utility.yul\":4174:4180   */\n      dup2\n        /* \"#utility.yul\":4167:4189   */\n      revert\n        /* \"#utility.yul\":4128:4130   */\n    tag_348:\n        /* \"#utility.yul\":4210:4278   */\n      tag_331\n        /* \"#utility.yul\":4270:4277   */\n      dup4\n        /* \"#utility.yul\":4259:4268   */\n      dup4\n        /* \"#utility.yul\":4210:4278   */\n      tag_310\n      jump\t// in\n        /* \"#utility.yul\":4575:5520   */\n    tag_140:\n      0x00\n      dup1\n      0x00\n      dup1\n      0x00\n      dup1\n      0x00\n        /* \"#utility.yul\":4790:4793   */\n      0xe0\n        /* \"#utility.yul\":4778:4787   */\n      dup9\n        /* \"#utility.yul\":4769:4776   */\n      dup11\n        /* \"#utility.yul\":4765:4788   */\n      sub\n        /* \"#utility.yul\":4761:4794   */\n      slt\n        /* \"#utility.yul\":4758:4760   */\n      iszero\n      tag_354\n      jumpi\n        /* \"#utility.yul\":4812:4818   */\n      dup3\n        /* \"#utility.yul\":4804:4810   */\n      dup4\n        /* \"#utility.yul\":4797:4819   */\n      revert\n        /* \"#utility.yul\":4758:4760   */\n    tag_354:\n        /* \"#utility.yul\":4849:4858   */\n      dup8\n        /* \"#utility.yul\":4843:4859   */\n      mload\n        /* \"#utility.yul\":4868:4901   */\n      tag_355\n        /* \"#utility.yul\":4895:4900   */\n      dup2\n        /* \"#utility.yul\":4868:4901   */\n      tag_315\n      jump\t// in\n    tag_355:\n        /* \"#utility.yul\":4920:4925   */\n      swap7\n      pop\n        /* \"#utility.yul\":4944:4993   */\n      tag_356\n        /* \"#utility.yul\":4989:4991   */\n      0x20\n        /* \"#utility.yul\":4974:4992   */\n      dup10\n      add\n        /* \"#utility.yul\":4944:4993   */\n      tag_307\n      jump\t// in\n    tag_356:\n        /* \"#utility.yul\":4934:4993   */\n      swap6\n      pop\n        /* \"#utility.yul\":5012:5062   */\n      tag_357\n        /* \"#utility.yul\":5058:5060   */\n      0x40\n        /* \"#utility.yul\":5047:5056   */\n      dup10\n        /* \"#utility.yul\":5043:5061   */\n      add\n        /* \"#utility.yul\":5012:5062   */\n      tag_322\n      jump\t// in\n    tag_357:\n        /* \"#utility.yul\":5002:5062   */\n      swap5\n      pop\n        /* \"#utility.yul\":5081:5131   */\n      tag_358\n        /* \"#utility.yul\":5127:5129   */\n      0x60\n        /* \"#utility.yul\":5116:5125   */\n      dup10\n        /* \"#utility.yul\":5112:5130   */\n      add\n        /* \"#utility.yul\":5081:5131   */\n      tag_322\n      jump\t// in\n    tag_358:\n        /* \"#utility.yul\":5071:5131   */\n      swap4\n      pop\n        /* \"#utility.yul\":5150:5201   */\n      tag_359\n        /* \"#utility.yul\":5196:5199   */\n      0x80\n        /* \"#utility.yul\":5185:5194   */\n      dup10\n        /* \"#utility.yul\":5181:5200   */\n      add\n        /* \"#utility.yul\":5150:5201   */\n      tag_322\n      jump\t// in\n    tag_359:\n        /* \"#utility.yul\":5140:5201   */\n      swap3\n      pop\n        /* \"#utility.yul\":5246:5249   */\n      0xa0\n        /* \"#utility.yul\":5235:5244   */\n      dup9\n        /* \"#utility.yul\":5231:5250   */\n      add\n        /* \"#utility.yul\":5225:5251   */\n      mload\n        /* \"#utility.yul\":5295:5299   */\n      0xff\n        /* \"#utility.yul\":5286:5293   */\n      dup2\n        /* \"#utility.yul\":5282:5300   */\n      and\n        /* \"#utility.yul\":5273:5280   */\n      dup2\n        /* \"#utility.yul\":5270:5301   */\n      eq\n        /* \"#utility.yul\":5260:5262   */\n      tag_360\n      jumpi\n        /* \"#utility.yul\":5320:5326   */\n      dup3\n        /* \"#utility.yul\":5312:5318   */\n      dup4\n        /* \"#utility.yul\":5305:5327   */\n      revert\n        /* \"#utility.yul\":5260:5262   */\n    tag_360:\n        /* \"#utility.yul\":5400:5403   */\n      0xc0\n        /* \"#utility.yul\":5385:5404   */\n      dup10\n      add\n        /* \"#utility.yul\":5379:5405   */\n      mload\n        /* \"#utility.yul\":5348:5355   */\n      swap1\n      swap3\n      pop\n        /* \"#utility.yul\":5443:5458   */\n      dup1\n      iszero\n        /* \"#utility.yul\":5436:5459   */\n      iszero\n        /* \"#utility.yul\":5424:5460   */\n      dup2\n      eq\n        /* \"#utility.yul\":5414:5416   */\n      tag_361\n      jumpi\n        /* \"#utility.yul\":5479:5485   */\n      dup2\n        /* \"#utility.yul\":5471:5477   */\n      dup3\n        /* \"#utility.yul\":5464:5486   */\n      revert\n        /* \"#utility.yul\":5414:5416   */\n    tag_361:\n        /* \"#utility.yul\":5507:5514   */\n      dup1\n        /* \"#utility.yul\":5497:5514   */\n      swap2\n      pop\n      pop\n        /* \"#utility.yul\":4748:5520   */\n      swap3\n      swap6\n      swap9\n      swap2\n      swap5\n      swap8\n      pop\n      swap3\n      swap6\n      pop\n      jump\t// out\n        /* \"#utility.yul\":5525:5719   */\n    tag_256:\n      0x00\n        /* \"#utility.yul\":5648:5650   */\n      0x20\n        /* \"#utility.yul\":5636:5645   */\n      dup3\n        /* \"#utility.yul\":5627:5634   */\n      dup5\n        /* \"#utility.yul\":5623:5646   */\n      sub\n        /* \"#utility.yul\":5619:5651   */\n      slt\n        /* \"#utility.yul\":5616:5618   */\n      iszero\n      tag_363\n      jumpi\n        /* \"#utility.yul\":5669:5675   */\n      dup1\n        /* \"#utility.yul\":5661:5667   */\n      dup2\n        /* \"#utility.yul\":5654:5676   */\n      revert\n        /* \"#utility.yul\":5616:5618   */\n    tag_363:\n      pop\n        /* \"#utility.yul\":5697:5713   */\n      mload\n      swap2\n        /* \"#utility.yul\":5606:5719   */\n      swap1\n      pop\n      jump\t// out\n        /* \"#utility.yul\":5724:6131   */\n    tag_225:\n      0x00\n      dup1\n      0x00\n        /* \"#utility.yul\":5879:5881   */\n      0x60\n        /* \"#utility.yul\":5867:5876   */\n      dup5\n        /* \"#utility.yul\":5858:5865   */\n      dup7\n        /* \"#utility.yul\":5854:5877   */\n      sub\n        /* \"#utility.yul\":5850:5882   */\n      slt\n        /* \"#utility.yul\":5847:5849   */\n      iszero\n      tag_365\n      jumpi\n        /* \"#utility.yul\":5900:5906   */\n      dup1\n        /* \"#utility.yul\":5892:5898   */\n      dup2\n        /* \"#utility.yul\":5885:5907   */\n      revert\n        /* \"#utility.yul\":5847:5849   */\n    tag_365:\n        /* \"#utility.yul\":5934:5943   */\n      dup4\n        /* \"#utility.yul\":5928:5944   */\n      mload\n        /* \"#utility.yul\":5918:5944   */\n      swap3\n      pop\n        /* \"#utility.yul\":5987:5989   */\n      0x20\n        /* \"#utility.yul\":5976:5985   */\n      dup5\n        /* \"#utility.yul\":5972:5990   */\n      add\n        /* \"#utility.yul\":5966:5991   */\n      mload\n        /* \"#utility.yul\":6000:6033   */\n      tag_366\n        /* \"#utility.yul\":6027:6032   */\n      dup2\n        /* \"#utility.yul\":6000:6033   */\n      tag_315\n      jump\t// in\n    tag_366:\n        /* \"#utility.yul\":6052:6057   */\n      swap2\n      pop\n        /* \"#utility.yul\":6076:6125   */\n      tag_367\n        /* \"#utility.yul\":6121:6123   */\n      0x40\n        /* \"#utility.yul\":6106:6124   */\n      dup6\n      add\n        /* \"#utility.yul\":6076:6125   */\n      tag_307\n      jump\t// in\n    tag_367:\n        /* \"#utility.yul\":6066:6125   */\n      swap1\n      pop\n        /* \"#utility.yul\":5837:6131   */\n      swap3\n      pop\n      swap3\n      pop\n      swap3\n      jump\t// out\n        /* \"#utility.yul\":6136:6395   */\n    tag_368:\n      0x00\n        /* \"#utility.yul\":6217:6222   */\n      dup2\n        /* \"#utility.yul\":6211:6223   */\n      mload\n        /* \"#utility.yul\":6244:6250   */\n      dup1\n        /* \"#utility.yul\":6239:6242   */\n      dup5\n        /* \"#utility.yul\":6232:6251   */\n      mstore\n        /* \"#utility.yul\":6260:6323   */\n      tag_370\n        /* \"#utility.yul\":6316:6322   */\n      dup2\n        /* \"#utility.yul\":6309:6313   */\n      0x20\n        /* \"#utility.yul\":6304:6307   */\n      dup7\n        /* \"#utility.yul\":6300:6314   */\n      add\n        /* \"#utility.yul\":6293:6297   */\n      0x20\n        /* \"#utility.yul\":6286:6291   */\n      dup7\n        /* \"#utility.yul\":6282:6298   */\n      add\n        /* \"#utility.yul\":6260:6323   */\n      tag_346\n      jump\t// in\n    tag_370:\n        /* \"#utility.yul\":6377:6379   */\n      0x1f\n        /* \"#utility.yul\":6356:6371   */\n      add\n      not(0x1f)\n        /* \"#utility.yul\":6352:6381   */\n      and\n        /* \"#utility.yul\":6343:6382   */\n      swap3\n      swap1\n      swap3\n      add\n        /* \"#utility.yul\":6384:6388   */\n      0x20\n        /* \"#utility.yul\":6339:6389   */\n      add\n      swap3\n        /* \"#utility.yul\":6187:6395   */\n      swap2\n      pop\n      pop\n      jump\t// out\n        /* \"#utility.yul\":6400:6831   */\n    tag_75:\n        /* \"#utility.yul\":6653:6655   */\n      0x60\n        /* \"#utility.yul\":6649:6664   */\n      swap4\n      dup5\n      shl\n      not(0xffffffffffffffffffffffff)\n        /* \"#utility.yul\":6645:6669   */\n      swap1\n      dup2\n      and\n        /* \"#utility.yul\":6633:6670   */\n      dup3\n      mstore\n        /* \"#utility.yul\":6726:6729   */\n      0xe8\n        /* \"#utility.yul\":6704:6720   */\n      swap4\n      swap1\n      swap4\n      shl\n      not(sub(shl(0xe8, 0x01), 0x01))\n        /* \"#utility.yul\":6700:6741   */\n      and\n        /* \"#utility.yul\":6695:6697   */\n      0x14\n        /* \"#utility.yul\":6686:6698   */\n      dup3\n      add\n        /* \"#utility.yul\":6679:6742   */\n      mstore\n        /* \"#utility.yul\":6776:6791   */\n      swap3\n      shl\n        /* \"#utility.yul\":6772:6796   */\n      and\n        /* \"#utility.yul\":6767:6769   */\n      0x17\n        /* \"#utility.yul\":6758:6770   */\n      dup3\n      add\n        /* \"#utility.yul\":6751:6797   */\n      mstore\n        /* \"#utility.yul\":6822:6824   */\n      0x2b\n        /* \"#utility.yul\":6813:6825   */\n      add\n      swap1\n        /* \"#utility.yul\":6573:6831   */\n      jump\t// out\n        /* \"#utility.yul\":6836:7339   */\n    tag_214:\n      not(sub(shl(0xf8, 0x01), 0x01))\n        /* \"#utility.yul\":7122:7148   */\n      dup2\n      mstore\n        /* \"#utility.yul\":7185:7187   */\n      0x60\n        /* \"#utility.yul\":7181:7196   */\n      swap4\n      swap1\n      swap4\n      shl\n      not(0xffffffffffffffffffffffff)\n        /* \"#utility.yul\":7177:7230   */\n      and\n        /* \"#utility.yul\":7173:7174   */\n      0x01\n        /* \"#utility.yul\":7164:7175   */\n      dup5\n      add\n        /* \"#utility.yul\":7157:7231   */\n      mstore\n        /* \"#utility.yul\":7256:7258   */\n      0x15\n        /* \"#utility.yul\":7247:7259   */\n      dup4\n      add\n        /* \"#utility.yul\":7240:7268   */\n      swap2\n      swap1\n      swap2\n      mstore\n        /* \"#utility.yul\":7293:7295   */\n      0x35\n        /* \"#utility.yul\":7284:7296   */\n      dup3\n      add\n        /* \"#utility.yul\":7277:7305   */\n      mstore\n        /* \"#utility.yul\":7330:7332   */\n      0x55\n        /* \"#utility.yul\":7321:7333   */\n      add\n      swap1\n        /* \"#utility.yul\":7112:7339   */\n      jump\t// out\n        /* \"#utility.yul\":7344:7547   */\n    tag_20:\n      sub(shl(0xa0, 0x01), 0x01)\n        /* \"#utility.yul\":7508:7540   */\n      swap2\n      swap1\n      swap2\n      and\n        /* \"#utility.yul\":7490:7541   */\n      dup2\n      mstore\n        /* \"#utility.yul\":7478:7480   */\n      0x20\n        /* \"#utility.yul\":7463:7481   */\n      add\n      swap1\n        /* \"#utility.yul\":7445:7547   */\n      jump\t// out\n        /* \"#utility.yul\":7552:7940   */\n    tag_212:\n      sub(shl(0xa0, 0x01), 0x01)\n        /* \"#utility.yul\":7808:7823   */\n      swap4\n      dup5\n      and\n        /* \"#utility.yul\":7790:7824   */\n      dup2\n      mstore\n        /* \"#utility.yul\":7860:7875   */\n      swap2\n      swap1\n      swap3\n      and\n        /* \"#utility.yul\":7855:7857   */\n      0x20\n        /* \"#utility.yul\":7840:7858   */\n      dup3\n      add\n        /* \"#utility.yul\":7833:7876   */\n      mstore\n        /* \"#utility.yul\":7924:7932   */\n      0xffffff\n        /* \"#utility.yul\":7912:7933   */\n      swap1\n      swap2\n      and\n        /* \"#utility.yul\":7907:7909   */\n      0x40\n        /* \"#utility.yul\":7892:7910   */\n      dup3\n      add\n        /* \"#utility.yul\":7885:7934   */\n      mstore\n        /* \"#utility.yul\":7740:7742   */\n      0x60\n        /* \"#utility.yul\":7725:7743   */\n      add\n      swap1\n        /* \"#utility.yul\":7707:7940   */\n      jump\t// out\n        /* \"#utility.yul\":7945:8515   */\n    tag_77:\n      sub(shl(0xa0, 0x01), 0x01)\n        /* \"#utility.yul\":8234:8249   */\n      dup7\n      dup2\n      and\n        /* \"#utility.yul\":8216:8250   */\n      dup3\n      mstore\n        /* \"#utility.yul\":8293:8307   */\n      dup6\n      iszero\n        /* \"#utility.yul\":8286:8308   */\n      iszero\n        /* \"#utility.yul\":8281:8283   */\n      0x20\n        /* \"#utility.yul\":8266:8284   */\n      dup4\n      add\n        /* \"#utility.yul\":8259:8309   */\n      mstore\n        /* \"#utility.yul\":8340:8342   */\n      0x40\n        /* \"#utility.yul\":8325:8343   */\n      dup3\n      add\n        /* \"#utility.yul\":8318:8352   */\n      dup6\n      swap1\n      mstore\n        /* \"#utility.yul\":8388:8403   */\n      dup4\n      and\n        /* \"#utility.yul\":8383:8385   */\n      0x60\n        /* \"#utility.yul\":8368:8386   */\n      dup3\n      add\n        /* \"#utility.yul\":8361:8404   */\n      mstore\n        /* \"#utility.yul\":8196:8199   */\n      0xa0\n        /* \"#utility.yul\":8435:8438   */\n      0x80\n        /* \"#utility.yul\":8420:8439   */\n      dup3\n      add\n        /* \"#utility.yul\":8413:8445   */\n      dup2\n      swap1\n      mstore\n        /* \"#utility.yul\":7945:8515   */\n      0x00\n      swap1\n        /* \"#utility.yul\":8462:8509   */\n      tag_376\n      swap1\n        /* \"#utility.yul\":8489:8508   */\n      dup4\n      add\n        /* \"#utility.yul\":8481:8487   */\n      dup5\n        /* \"#utility.yul\":8462:8509   */\n      tag_368\n      jump\t// in\n    tag_376:\n        /* \"#utility.yul\":8454:8509   */\n      swap8\n        /* \"#utility.yul\":8168:8515   */\n      swap7\n      pop\n      pop\n      pop\n      pop\n      pop\n      pop\n      pop\n      jump\t// out\n        /* \"#utility.yul\":8520:8708   */\n    tag_251:\n        /* \"#utility.yul\":8691:8692   */\n      0x01\n        /* \"#utility.yul\":8680:8701   */\n      swap2\n      swap1\n      swap2\n      signextend\n        /* \"#utility.yul\":8662:8702   */\n      dup2\n      mstore\n        /* \"#utility.yul\":8650:8652   */\n      0x20\n        /* \"#utility.yul\":8635:8653   */\n      add\n      swap1\n        /* \"#utility.yul\":8617:8708   */\n      jump\t// out\n        /* \"#utility.yul\":8713:8934   */\n    tag_223:\n      0x00\n        /* \"#utility.yul\":8862:8864   */\n      0x20\n        /* \"#utility.yul\":8851:8860   */\n      dup3\n        /* \"#utility.yul\":8844:8865   */\n      mstore\n        /* \"#utility.yul\":8882:8928   */\n      tag_331\n        /* \"#utility.yul\":8924:8926   */\n      0x20\n        /* \"#utility.yul\":8913:8922   */\n      dup4\n        /* \"#utility.yul\":8909:8927   */\n      add\n        /* \"#utility.yul\":8901:8907   */\n      dup5\n        /* \"#utility.yul\":8882:8928   */\n      tag_368\n      jump\t// in\n        /* \"#utility.yul\":8939:9280   */\n    tag_187:\n        /* \"#utility.yul\":9141:9143   */\n      0x20\n        /* \"#utility.yul\":9123:9144   */\n      dup1\n      dup3\n      mstore\n        /* \"#utility.yul\":9180:9182   */\n      0x11\n        /* \"#utility.yul\":9160:9178   */\n      swap1\n      dup3\n      add\n        /* \"#utility.yul\":9153:9183   */\n      mstore\n      shl(0x78, 0x746f55696e7432345f6f766572666c6f77)\n        /* \"#utility.yul\":9214:9216   */\n      0x40\n        /* \"#utility.yul\":9199:9217   */\n      dup3\n      add\n        /* \"#utility.yul\":9192:9239   */\n      mstore\n        /* \"#utility.yul\":9271:9273   */\n      0x60\n        /* \"#utility.yul\":9256:9274   */\n      add\n      swap1\n        /* \"#utility.yul\":9113:9280   */\n      jump\t// out\n        /* \"#utility.yul\":9285:9623   */\n    tag_194:\n        /* \"#utility.yul\":9487:9489   */\n      0x20\n        /* \"#utility.yul\":9469:9490   */\n      dup1\n      dup3\n      mstore\n        /* \"#utility.yul\":9526:9528   */\n      0x0e\n        /* \"#utility.yul\":9506:9524   */\n      swap1\n      dup3\n      add\n        /* \"#utility.yul\":9499:9529   */\n      mstore\n      shl(0x90, 0x736c6963655f6f766572666c6f77)\n        /* \"#utility.yul\":9560:9562   */\n      0x40\n        /* \"#utility.yul\":9545:9563   */\n      dup3\n      add\n        /* \"#utility.yul\":9538:9582   */\n      mstore\n        /* \"#utility.yul\":9614:9616   */\n      0x60\n        /* \"#utility.yul\":9599:9617   */\n      add\n      swap1\n        /* \"#utility.yul\":9459:9623   */\n      jump\t// out\n        /* \"#utility.yul\":9628:9972   */\n    tag_190:\n        /* \"#utility.yul\":9830:9832   */\n      0x20\n        /* \"#utility.yul\":9812:9833   */\n      dup1\n      dup3\n      mstore\n        /* \"#utility.yul\":9869:9871   */\n      0x14\n        /* \"#utility.yul\":9849:9867   */\n      swap1\n      dup3\n      add\n        /* \"#utility.yul\":9842:9872   */\n      mstore\n      shl(0x60, 0x746f55696e7432345f6f75744f66426f756e6473)\n        /* \"#utility.yul\":9903:9905   */\n      0x40\n        /* \"#utility.yul\":9888:9906   */\n      dup3\n      add\n        /* \"#utility.yul\":9881:9931   */\n      mstore\n        /* \"#utility.yul\":9963:9965   */\n      0x60\n        /* \"#utility.yul\":9948:9966   */\n      add\n      swap1\n        /* \"#utility.yul\":9802:9972   */\n      jump\t// out\n        /* \"#utility.yul\":9977:10317   */\n    tag_219:\n        /* \"#utility.yul\":10179:10181   */\n      0x20\n        /* \"#utility.yul\":10161:10182   */\n      dup1\n      dup3\n      mstore\n        /* \"#utility.yul\":10218:10220   */\n      0x10\n        /* \"#utility.yul\":10198:10216   */\n      swap1\n      dup3\n      add\n        /* \"#utility.yul\":10191:10221   */\n      mstore\n      shl(0x81, 0x2ab732bc3832b1ba32b21032b93937b9)\n        /* \"#utility.yul\":10252:10254   */\n      0x40\n        /* \"#utility.yul\":10237:10255   */\n      dup3\n      add\n        /* \"#utility.yul\":10230:10276   */\n      mstore\n        /* \"#utility.yul\":10308:10310   */\n      0x60\n        /* \"#utility.yul\":10293:10311   */\n      add\n      swap1\n        /* \"#utility.yul\":10151:10317   */\n      jump\t// out\n        /* \"#utility.yul\":10322:10667   */\n    tag_183:\n        /* \"#utility.yul\":10524:10526   */\n      0x20\n        /* \"#utility.yul\":10506:10527   */\n      dup1\n      dup3\n      mstore\n        /* \"#utility.yul\":10563:10565   */\n      0x15\n        /* \"#utility.yul\":10543:10561   */\n      swap1\n      dup3\n      add\n        /* \"#utility.yul\":10536:10566   */\n      mstore\n      shl(0x58, 0x746f416464726573735f6f75744f66426f756e6473)\n        /* \"#utility.yul\":10597:10599   */\n      0x40\n        /* \"#utility.yul\":10582:10600   */\n      dup3\n      add\n        /* \"#utility.yul\":10575:10626   */\n      mstore\n        /* \"#utility.yul\":10658:10660   */\n      0x60\n        /* \"#utility.yul\":10643:10661   */\n      add\n      swap1\n        /* \"#utility.yul\":10496:10667   */\n      jump\t// out\n        /* \"#utility.yul\":10672:11013   */\n    tag_199:\n        /* \"#utility.yul\":10874:10876   */\n      0x20\n        /* \"#utility.yul\":10856:10877   */\n      dup1\n      dup3\n      mstore\n        /* \"#utility.yul\":10913:10915   */\n      0x11\n        /* \"#utility.yul\":10893:10911   */\n      swap1\n      dup3\n      add\n        /* \"#utility.yul\":10886:10916   */\n      mstore\n      shl(0x78, 0x736c6963655f6f75744f66426f756e6473)\n        /* \"#utility.yul\":10947:10949   */\n      0x40\n        /* \"#utility.yul\":10932:10950   */\n      dup3\n      add\n        /* \"#utility.yul\":10925:10972   */\n      mstore\n        /* \"#utility.yul\":11004:11006   */\n      0x60\n        /* \"#utility.yul\":10989:11007   */\n      add\n      swap1\n        /* \"#utility.yul\":10846:11013   */\n      jump\t// out\n        /* \"#utility.yul\":11018:11360   */\n    tag_180:\n        /* \"#utility.yul\":11220:11222   */\n      0x20\n        /* \"#utility.yul\":11202:11223   */\n      dup1\n      dup3\n      mstore\n        /* \"#utility.yul\":11259:11261   */\n      0x12\n        /* \"#utility.yul\":11239:11257   */\n      swap1\n      dup3\n      add\n        /* \"#utility.yul\":11232:11262   */\n      mstore\n      shl(0x70, 0x746f416464726573735f6f766572666c6f77)\n        /* \"#utility.yul\":11293:11295   */\n      0x40\n        /* \"#utility.yul\":11278:11296   */\n      dup3\n      add\n        /* \"#utility.yul\":11271:11319   */\n      mstore\n        /* \"#utility.yul\":11351:11353   */\n      0x60\n        /* \"#utility.yul\":11336:11354   */\n      add\n      swap1\n        /* \"#utility.yul\":11192:11360   */\n      jump\t// out\n        /* \"#utility.yul\":11365:12707   */\n    tag_16:\n      0x00\n        /* \"#utility.yul\":11687:11690   */\n      0x80\n        /* \"#utility.yul\":11676:11685   */\n      dup3\n        /* \"#utility.yul\":11672:11691   */\n      add\n        /* \"#utility.yul\":11718:11724   */\n      dup7\n        /* \"#utility.yul\":11707:11716   */\n      dup4\n        /* \"#utility.yul\":11700:11725   */\n      mstore\n        /* \"#utility.yul\":11744:11746   */\n      0x20\n        /* \"#utility.yul\":11782:11785   */\n      0x80\n        /* \"#utility.yul\":11777:11779   */\n      dup2\n        /* \"#utility.yul\":11766:11775   */\n      dup6\n        /* \"#utility.yul\":11762:11780   */\n      add\n        /* \"#utility.yul\":11755:11786   */\n      mstore\n        /* \"#utility.yul\":11806:11812   */\n      dup2\n        /* \"#utility.yul\":11841:11847   */\n      dup8\n        /* \"#utility.yul\":11835:11848   */\n      mload\n        /* \"#utility.yul\":11872:11878   */\n      dup1\n        /* \"#utility.yul\":11864:11870   */\n      dup5\n        /* \"#utility.yul\":11857:11879   */\n      mstore\n        /* \"#utility.yul\":11910:11913   */\n      0xa0\n        /* \"#utility.yul\":11899:11908   */\n      dup7\n        /* \"#utility.yul\":11895:11914   */\n      add\n        /* \"#utility.yul\":11888:11914   */\n      swap2\n      pop\n        /* \"#utility.yul\":11949:11951   */\n      dup3\n        /* \"#utility.yul\":11941:11947   */\n      dup10\n        /* \"#utility.yul\":11937:11952   */\n      add\n        /* \"#utility.yul\":11923:11952   */\n      swap4\n      pop\n        /* \"#utility.yul\":11970:11974   */\n      dup5\n        /* \"#utility.yul\":11983:12178   */\n    tag_388:\n        /* \"#utility.yul\":11997:12003   */\n      dup2\n        /* \"#utility.yul\":11994:11995   */\n      dup2\n        /* \"#utility.yul\":11991:12004   */\n      lt\n        /* \"#utility.yul\":11983:12178   */\n      iszero\n      tag_390\n      jumpi\n        /* \"#utility.yul\":12062:12075   */\n      dup5\n      mload\n      sub(shl(0xa0, 0x01), 0x01)\n        /* \"#utility.yul\":12058:12097   */\n      and\n        /* \"#utility.yul\":12046:12098   */\n      dup4\n      mstore\n        /* \"#utility.yul\":12153:12168   */\n      swap4\n      dup4\n      add\n      swap4\n        /* \"#utility.yul\":12118:12130   */\n      swap2\n      dup4\n      add\n      swap2\n        /* \"#utility.yul\":12094:12095   */\n      0x01\n        /* \"#utility.yul\":12012:12021   */\n      add\n        /* \"#utility.yul\":11983:12178   */\n      jump(tag_388)\n    tag_390:\n      pop\n      pop\n        /* \"#utility.yul\":12214:12233   */\n      dup5\n      dup2\n      sub\n        /* \"#utility.yul\":12209:12211   */\n      0x40\n        /* \"#utility.yul\":12194:12212   */\n      dup7\n      add\n        /* \"#utility.yul\":12187:12234   */\n      mstore\n        /* \"#utility.yul\":12284:12297   */\n      dup7\n      mload\n        /* \"#utility.yul\":12306:12327   */\n      dup1\n      dup3\n      mstore\n        /* \"#utility.yul\":12345:12357   */\n      swap1\n      dup3\n      add\n      swap3\n      pop\n        /* \"#utility.yul\":12382:12397   */\n      dup2\n      dup8\n      add\n      swap1\n        /* \"#utility.yul\":12417:12421   */\n      dup5\n        /* \"#utility.yul\":12430:12636   */\n    tag_391:\n        /* \"#utility.yul\":12446:12454   */\n      dup2\n        /* \"#utility.yul\":12441:12444   */\n      dup2\n        /* \"#utility.yul\":12438:12455   */\n      lt\n        /* \"#utility.yul\":12430:12636   */\n      iszero\n      tag_393\n      jumpi\n        /* \"#utility.yul\":12519:12534   */\n      dup3\n      mload\n        /* \"#utility.yul\":12536:12546   */\n      0xffffffff\n        /* \"#utility.yul\":12515:12547   */\n      and\n        /* \"#utility.yul\":12501:12548   */\n      dup6\n      mstore\n        /* \"#utility.yul\":12570:12584   */\n      swap4\n      dup4\n      add\n      swap4\n        /* \"#utility.yul\":12609:12626   */\n      swap2\n      dup4\n      add\n      swap2\n        /* \"#utility.yul\":12474:12475   */\n      0x01\n        /* \"#utility.yul\":12465:12476   */\n      add\n        /* \"#utility.yul\":12430:12636   */\n      jump(tag_391)\n    tag_393:\n      pop\n      pop\n      pop\n      pop\n        /* \"#utility.yul\":12689:12691   */\n      0x60\n        /* \"#utility.yul\":12674:12692   */\n      swap3\n      swap1\n      swap3\n      add\n        /* \"#utility.yul\":12667:12701   */\n      swap3\n      swap1\n      swap3\n      mstore\n        /* \"#utility.yul\":12653:12658   */\n      swap5\n        /* \"#utility.yul\":11648:12707   */\n      swap4\n      pop\n      pop\n      pop\n      pop\n      jump\t// out\n        /* \"#utility.yul\":12712:13144   */\n    tag_26:\n        /* \"#utility.yul\":12941:12966   */\n      swap4\n      dup5\n      mstore\n      sub(shl(0xa0, 0x01), 0x01)\n        /* \"#utility.yul\":13002:13034   */\n      swap3\n      swap1\n      swap3\n      and\n        /* \"#utility.yul\":12997:12999   */\n      0x20\n        /* \"#utility.yul\":12982:13000   */\n      dup5\n      add\n        /* \"#utility.yul\":12975:13035   */\n      mstore\n        /* \"#utility.yul\":13083:13093   */\n      0xffffffff\n        /* \"#utility.yul\":13071:13094   */\n      and\n        /* \"#utility.yul\":13066:13068   */\n      0x40\n        /* \"#utility.yul\":13051:13069   */\n      dup4\n      add\n        /* \"#utility.yul\":13044:13095   */\n      mstore\n        /* \"#utility.yul\":13126:13128   */\n      0x60\n        /* \"#utility.yul\":13111:13129   */\n      dup3\n      add\n        /* \"#utility.yul\":13104:13138   */\n      mstore\n        /* \"#utility.yul\":12928:12931   */\n      0x80\n        /* \"#utility.yul\":12913:12932   */\n      add\n      swap1\n        /* \"#utility.yul\":12895:13144   */\n      jump\t// out\n        /* \"#utility.yul\":13149:13391   */\n    tag_305:\n        /* \"#utility.yul\":13219:13221   */\n      0x40\n        /* \"#utility.yul\":13213:13222   */\n      mload\n        /* \"#utility.yul\":13249:13266   */\n      dup2\n      dup2\n      add\n        /* \"#utility.yul\":13296:13314   */\n      0xffffffffffffffff\n        /* \"#utility.yul\":13281:13315   */\n      dup2\n      gt\n        /* \"#utility.yul\":13317:13339   */\n      dup3\n      dup3\n      lt\n        /* \"#utility.yul\":13278:13340   */\n      or\n        /* \"#utility.yul\":13275:13277   */\n      iszero\n      tag_396\n      jumpi\n        /* \"#utility.yul\":13343:13352   */\n      invalid\n        /* \"#utility.yul\":13275:13277   */\n    tag_396:\n        /* \"#utility.yul\":13370:13372   */\n      0x40\n        /* \"#utility.yul\":13363:13385   */\n      mstore\n        /* \"#utility.yul\":13193:13391   */\n      swap2\n      swap1\n      pop\n      jump\t// out\n        /* \"#utility.yul\":13396:13577   */\n    tag_304:\n      0x00\n        /* \"#utility.yul\":13479:13497   */\n      0xffffffffffffffff\n        /* \"#utility.yul\":13471:13477   */\n      dup3\n        /* \"#utility.yul\":13468:13498   */\n      gt\n        /* \"#utility.yul\":13465:13467   */\n      iszero\n      tag_398\n      jumpi\n        /* \"#utility.yul\":13501:13510   */\n      invalid\n        /* \"#utility.yul\":13465:13467   */\n    tag_398:\n      pop\n        /* \"#utility.yul\":13560:13562   */\n      0x1f\n        /* \"#utility.yul\":13537:13554   */\n      add\n      not(0x1f)\n        /* \"#utility.yul\":13533:13564   */\n      and\n        /* \"#utility.yul\":13566:13570   */\n      0x20\n        /* \"#utility.yul\":13529:13571   */\n      add\n      swap1\n        /* \"#utility.yul\":13455:13577   */\n      jump\t// out\n        /* \"#utility.yul\":13582:13840   */\n    tag_346:\n        /* \"#utility.yul\":13654:13655   */\n      0x00\n        /* \"#utility.yul\":13664:13777   */\n    tag_400:\n        /* \"#utility.yul\":13678:13684   */\n      dup4\n        /* \"#utility.yul\":13675:13676   */\n      dup2\n        /* \"#utility.yul\":13672:13685   */\n      lt\n        /* \"#utility.yul\":13664:13777   */\n      iszero\n      tag_402\n      jumpi\n        /* \"#utility.yul\":13754:13765   */\n      dup2\n      dup2\n      add\n        /* \"#utility.yul\":13748:13766   */\n      mload\n        /* \"#utility.yul\":13735:13746   */\n      dup4\n      dup3\n      add\n        /* \"#utility.yul\":13728:13767   */\n      mstore\n        /* \"#utility.yul\":13700:13702   */\n      0x20\n        /* \"#utility.yul\":13693:13703   */\n      add\n        /* \"#utility.yul\":13664:13777   */\n      jump(tag_400)\n    tag_402:\n        /* \"#utility.yul\":13795:13801   */\n      dup4\n        /* \"#utility.yul\":13792:13793   */\n      dup2\n        /* \"#utility.yul\":13789:13802   */\n      gt\n        /* \"#utility.yul\":13786:13788   */\n      iszero\n      tag_403\n      jumpi\n        /* \"#utility.yul\":13830:13831   */\n      0x00\n        /* \"#utility.yul\":13821:13827   */\n      dup5\n        /* \"#utility.yul\":13816:13819   */\n      dup5\n        /* \"#utility.yul\":13812:13828   */\n      add\n        /* \"#utility.yul\":13805:13832   */\n      mstore\n        /* \"#utility.yul\":13786:13788   */\n    tag_403:\n      pop\n        /* \"#utility.yul\":13635:13840   */\n      pop\n      pop\n      pop\n      jump\t// out\n        /* \"#utility.yul\":13845:13978   */\n    tag_315:\n      sub(shl(0xa0, 0x01), 0x01)\n        /* \"#utility.yul\":13922:13953   */\n      dup2\n      and\n        /* \"#utility.yul\":13912:13954   */\n      dup2\n      eq\n        /* \"#utility.yul\":13902:13904   */\n      tag_405\n      jumpi\n        /* \"#utility.yul\":13968:13969   */\n      0x00\n        /* \"#utility.yul\":13965:13966   */\n      dup1\n        /* \"#utility.yul\":13958:13970   */\n      revert\n        /* \"#utility.yul\":13902:13904   */\n    tag_405:\n        /* \"#utility.yul\":13892:13978   */\n      pop\n      jump\t// out\n\n    auxdata: 0xa2646970667358221220f9781e692a78af0d4cf3d953b2910c65f323dcbfa5050a9175ebdcd49f284adb64736f6c63430007060033\n}\n",
				"bytecode": {
					"linkReferences": {},
					"object": "60c06040523480156200001157600080fd5b5060405162001c9c38038062001c9c833981016040819052620000349162000070565b6001600160601b0319606092831b8116608052911b1660a052620000a7565b80516001600160a01b03811681146200006b57600080fd5b919050565b6000806040838503121562000083578182fd5b6200008e8362000053565b91506200009e6020840162000053565b90509250929050565b60805160601c60a05160601c611bc1620000db600039806102e05250806104d7528061083752806109ef5250611bc16000f3fe608060405234801561001057600080fd5b506004361061007d5760003560e01c8063c45a01551161005b578063c45a0155146100e6578063c6a5026a146100ee578063cdca175314610101578063fa461e33146101145761007d565b80632f80bb1d146100825780634aa4a4fc146100ae578063bd21704a146100c3575b600080fd5b61009561009036600461157f565b610129565b6040516100a59493929190611a38565b60405180910390f35b6100b66102de565b6040516100a59190611864565b6100d66100d13660046116be565b610302565b6040516100a59493929190611ad3565b6100b66104d5565b6100d66100fc3660046116be565b6104f9565b61009561010f36600461157f565b61066f565b610127610122366004611606565b610806565b005b6000606080600061013986610981565b67ffffffffffffffff8111801561014f57600080fd5b50604051908082528060200260200182016040528015610179578160200160208202803683370190505b50925061018586610981565b67ffffffffffffffff8111801561019b57600080fd5b506040519080825280602002602001820160405280156101c5578160200160208202803683370190505b50915060005b60008060006101d98a610992565b9250925092506000806000806102356040518060a00160405280886001600160a01b03168152602001896001600160a01b031681526020018f81526020018762ffffff16815260200160006001600160a01b0316815250610302565b9350935093509350828b898151811061024a57fe5b60200260200101906001600160a01b031690816001600160a01b031681525050818a898151811061027757fe5b63ffffffff90921660209283029190910190910152929b50968201966001909601958b926102a48e6109c3565b156102b9576102b28e6109cb565b9d506102c9565b8c9b5050505050505050506102d5565b505050505050506101cb565b92959194509250565b7f000000000000000000000000000000000000000000000000000000000000000081565b6020810151815160608301516000928392839283926001600160a01b038082169084161092849261033392906109e8565b905086608001516001600160a01b0316600014156103545760408701516000555b60005a9050816001600160a01b031663128acb0830856103778c60400151610a26565b6000038c608001516001600160a01b0316600014610399578c608001516103bf565b876103b85773fffd8963efd1fc6a506488495d951d5263988d256103bf565b6401000276a45b8d602001518e606001518f600001516040516020016103e0939291906117f1565b6040516020818303038152906040526040518663ffffffff1660e01b815260040161040f9594939291906118a0565b6040805180830381600087803b15801561042857600080fd5b505af1925050508015610458575060408051601f3d908101601f19168201909252610455918101906115e3565b60015b6104c8573d808015610486576040519150601f19603f3d011682016040523d82523d6000602084013e61048b565b606091505b505a8203945088608001516001600160a01b0316600014156104ac57600080555b6104b7818487610a3c565b9750975097509750505050506104ce565b50505050505b9193509193565b7f000000000000000000000000000000000000000000000000000000000000000081565b6020810151815160608301516000928392839283926001600160a01b038082169084161092849261052a92906109e8565b905060005a9050816001600160a01b031663128acb08308561054f8c60400151610a26565b60808d01516001600160a01b03161561056c578c60800151610592565b8761058b5773fffd8963efd1fc6a506488495d951d5263988d25610592565b6401000276a45b8d600001518e606001518f602001516040516020016105b3939291906117f1565b6040516020818303038152906040526040518663ffffffff1660e01b81526004016105e29594939291906118a0565b6040805180830381600087803b1580156105fb57600080fd5b505af192505050801561062b575060408051601f3d908101601f19168201909252610628918101906115e3565b60015b6104c8573d808015610659576040519150601f19603f3d011682016040523d82523d6000602084013e61065e565b606091505b505a820394506104b7818487610a3c565b6000606080600061067f86610981565b67ffffffffffffffff8111801561069557600080fd5b506040519080825280602002602001820160405280156106bf578160200160208202803683370190505b5092506106cb86610981565b67ffffffffffffffff811180156106e157600080fd5b5060405190808252806020026020018201604052801561070b578160200160208202803683370190505b50915060005b600080600061071f8a610992565b92509250925060008060008061077b6040518060a00160405280896001600160a01b03168152602001886001600160a01b031681526020018f81526020018762ffffff16815260200160006001600160a01b03168152506104f9565b9350935093509350828b898151811061079057fe5b60200260200101906001600160a01b031690816001600160a01b031681525050818a89815181106107bd57fe5b63ffffffff90921660209283029190910190910152929b50968201966001909601958b926107ea8e6109c3565b156102b9576107f88e6109cb565b9d5050505050505050610711565b60008313806108155750600082135b61081e57600080fd5b600080600061082c84610992565b92509250925061085e7f0000000000000000000000000000000000000000000000000000000000000000848484610af6565b50600080600080891361088a57856001600160a01b0316856001600160a01b031610888a6000036108a5565b846001600160a01b0316866001600160a01b03161089896000035b92509250925060006108b88787876109e8565b9050600080826001600160a01b0316633850c7bd6040518163ffffffff1660e01b815260040160e06040518083038186803b1580156108f657600080fd5b505afa15801561090a573d6000803e3d6000fd5b505050506040513d601f19601f8201168201806040525081019061092e91906116d9565b505050505091509150851561095457604051848152826020820152816040820152606081fd5b6000541561096a57600054841461096a57600080fd5b604051858152826020820152816040820152606081fd5b80516017601319909101045b919050565b600080806109a08482610b15565b92506109ad846014610b77565b90506109ba846017610b15565b91509193909250565b516042111590565b80516060906109e290839060179060161901610bc9565b92915050565b6000610a1e7f0000000000000000000000000000000000000000000000000000000000000000610a19868686610ca5565b610cfb565b949350505050565b6000600160ff1b8210610a3857600080fd5b5090565b600080600080600080876001600160a01b0316633850c7bd6040518163ffffffff1660e01b815260040160e06040518083038186803b158015610a7e57600080fd5b505afa158015610a92573d6000803e3d6000fd5b505050506040513d601f19601f82011682018060405250810190610ab691906116d9565b50939650610acb94508d9350610dac92505050565b91975095509050610ae66001600160a01b0389168383610e30565b9350869250505093509350935093565b6000610b0c85610b07868686610ca5565b611410565b95945050505050565b600081826014011015610b435760405162461bcd60e51b8152600401610b3a90611a0c565b60405180910390fd5b8160140183511015610b675760405162461bcd60e51b8152600401610b3a906119b2565b500160200151600160601b900490565b600081826003011015610b9c5760405162461bcd60e51b8152600401610b3a90611907565b8160030183511015610bc05760405162461bcd60e51b8152600401610b3a9061195a565b50016003015190565b60608182601f011015610bee5760405162461bcd60e51b8152600401610b3a90611932565b828284011015610c105760405162461bcd60e51b8152600401610b3a90611932565b81830184511015610c335760405162461bcd60e51b8152600401610b3a906119e1565b606082158015610c525760405191506000825260208201604052610c9c565b6040519150601f8416801560200281840101858101878315602002848b0101015b81831015610c8b578051835260209283019201610c73565b5050858452601f01601f1916604052505b50949350505050565b610cad61144e565b826001600160a01b0316846001600160a01b03161115610ccb579192915b50604080516060810182526001600160a01b03948516815292909316602083015262ffffff169181019190915290565b600081602001516001600160a01b031682600001516001600160a01b031610610d2357600080fd5b82826000015183602001518460400151604051602001610d4593929190611878565b60408051601f19818403018152908290528051602091820120610d8d939290917fe34f199b19b2b4f47f68442619d555527d244f78a3297ea89325f843f87b8b54910161182c565b60408051601f1981840301815291905280516020909101209392505050565b60008060008351606014610e0f57604484511015610ddc5760405162461bcd60e51b8152600401610b3a90611988565b60048401935083806020019051810190610df69190611654565b60405162461bcd60e51b8152600401610b3a91906118f4565b83806020019051810190610e239190611788565b9250925092509193909250565b60008060008060008060008060088b6001600160a01b031663d0c93a7c6040518163ffffffff1660e01b815260040160206040518083038186803b158015610e7757600080fd5b505afa158015610e8b573d6000803e3d6000fd5b505050506040513d601f19601f82011682018060405250810190610eaf91906115c2565b60020b8b60020b81610ebd57fe5b0560020b901d905060006101008c6001600160a01b031663d0c93a7c6040518163ffffffff1660e01b815260040160206040518083038186803b158015610f0357600080fd5b505afa158015610f17573d6000803e3d6000fd5b505050506040513d601f19601f82011682018060405250810190610f3b91906115c2565b60020b8c60020b81610f4957fe5b0560020b81610f5457fe5b079050600060088d6001600160a01b031663d0c93a7c6040518163ffffffff1660e01b815260040160206040518083038186803b158015610f9457600080fd5b505afa158015610fa8573d6000803e3d6000fd5b505050506040513d601f19601f82011682018060405250810190610fcc91906115c2565b60020b8c60020b81610fda57fe5b0560020b901d905060006101008e6001600160a01b031663d0c93a7c6040518163ffffffff1660e01b815260040160206040518083038186803b15801561102057600080fd5b505afa158015611034573d6000803e3d6000fd5b505050506040513d601f19601f8201168201806040525081019061105891906115c2565b60020b8d60020b8161106657fe5b0560020b8161107157fe5b07905060008160ff166001901b8f6001600160a01b0316635339c296856040518263ffffffff1660e01b81526004016110aa91906118e6565b60206040518083038186803b1580156110c257600080fd5b505afa1580156110d6573d6000803e3d6000fd5b505050506040513d601f19601f820116820180604052508101906110fa9190611770565b1611801561118857508d6001600160a01b031663d0c93a7c6040518163ffffffff1660e01b815260040160206040518083038186803b15801561113c57600080fd5b505afa158015611150573d6000803e3d6000fd5b505050506040513d601f19601f8201168201806040525081019061117491906115c2565b60020b8c60020b8161118257fe5b0760020b155b801561119957508b60020b8d60020b135b945060008360ff166001901b8f6001600160a01b0316635339c296876040518263ffffffff1660e01b81526004016111d191906118e6565b60206040518083038186803b1580156111e957600080fd5b505afa1580156111fd573d6000803e3d6000fd5b505050506040513d601f19601f820116820180604052508101906112219190611770565b161180156112af57508d6001600160a01b031663d0c93a7c6040518163ffffffff1660e01b815260040160206040518083038186803b15801561126357600080fd5b505afa158015611277573d6000803e3d6000fd5b505050506040513d601f19601f8201168201806040525081019061129b91906115c2565b60020b8d60020b816112a957fe5b0760020b155b80156112c057508b60020b8d60020b125b95508160010b8460010b12806112ec57508160010b8460010b1480156112ec57508060ff168360ff1611155b156113025783995082975081985080965061130f565b8199508097508398508296505b505060001960ff87161b9150505b8560010b8760010b136113e8578560010b8760010b14156113445760001960ff858103161c165b6000818c6001600160a01b0316635339c2968a6040518263ffffffff1660e01b815260040161137391906118e6565b60206040518083038186803b15801561138b57600080fd5b505afa15801561139f573d6000803e3d6000fd5b505050506040513d601f19601f820116820180604052508101906113c39190611770565b1690506113cf81611433565b61ffff169890980197505060019095019460001961131d565b81156113f5576001880397505b8215611402576001880397505b505050505050509392505050565b600061141c8383610cfb565b9050336001600160a01b038216146109e257600080fd5b6000805b82156109e257600019830190921691600101611437565b604080516060810182526000808252602082018190529181019190915290565b600082601f83011261147e578081fd5b813561149161148c82611b21565b611afd565b8181528460208386010111156114a5578283fd5b816020850160208301379081016020019190915292915050565b8051600281900b811461098d57600080fd5b600060a082840312156114e2578081fd5b60405160a0810181811067ffffffffffffffff821117156114ff57fe5b604052905080823561151081611b73565b8152602083013561152081611b73565b602082015260408381013590820152606083013562ffffff8116811461154557600080fd5b606082015261155660808401611562565b60808201525092915050565b803561098d81611b73565b805161ffff8116811461098d57600080fd5b60008060408385031215611591578182fd5b823567ffffffffffffffff8111156115a7578283fd5b6115b38582860161146e565b95602094909401359450505050565b6000602082840312156115d3578081fd5b6115dc826114bf565b9392505050565b600080604083850312156115f5578182fd5b505080516020909101519092909150565b60008060006060848603121561161a578081fd5b8335925060208401359150604084013567ffffffffffffffff81111561163e578182fd5b61164a8682870161146e565b9150509250925092565b600060208284031215611665578081fd5b815167ffffffffffffffff81111561167b578182fd5b8201601f8101841361168b578182fd5b805161169961148c82611b21565b8181528560208385010111156116ad578384fd5b610b0c826020830160208601611b43565b600060a082840312156116cf578081fd5b6115dc83836114d1565b600080600080600080600060e0888a0312156116f3578283fd5b87516116fe81611b73565b965061170c602089016114bf565b955061171a6040890161156d565b94506117286060890161156d565b93506117366080890161156d565b925060a088015160ff8116811461174b578283fd5b60c08901519092508015158114611760578182fd5b8091505092959891949750929550565b600060208284031215611781578081fd5b5051919050565b60008060006060848603121561179c578081fd5b8351925060208401516117ae81611b73565b91506117bc604085016114bf565b90509250925092565b600081518084526117dd816020860160208601611b43565b601f01601f19169290920160200192915050565b606093841b6bffffffffffffffffffffffff19908116825260e89390931b6001600160e81b0319166014820152921b166017820152602b0190565b6001600160f81b0319815260609390931b6bffffffffffffffffffffffff191660018401526015830191909152603582015260550190565b6001600160a01b0391909116815260200190565b6001600160a01b03938416815291909216602082015262ffffff909116604082015260600190565b6001600160a01b0386811682528515156020830152604082018590528316606082015260a0608082018190526000906118db908301846117c5565b979650505050505050565b60019190910b815260200190565b6000602082526115dc60208301846117c5565b602080825260119082015270746f55696e7432345f6f766572666c6f7760781b604082015260600190565b6020808252600e908201526d736c6963655f6f766572666c6f7760901b604082015260600190565b602080825260149082015273746f55696e7432345f6f75744f66426f756e647360601b604082015260600190565b60208082526010908201526f2ab732bc3832b1ba32b21032b93937b960811b604082015260600190565b602080825260159082015274746f416464726573735f6f75744f66426f756e647360581b604082015260600190565b602080825260119082015270736c6963655f6f75744f66426f756e647360781b604082015260600190565b602080825260129082015271746f416464726573735f6f766572666c6f7760701b604082015260600190565b600060808201868352602060808185015281875180845260a0860191508289019350845b81811015611a815784516001600160a01b031683529383019391830191600101611a5c565b505084810360408601528651808252908201925081870190845b81811015611abd57825163ffffffff1685529383019391830191600101611a9b565b5050505060609290920192909252949350505050565b9384526001600160a01b0392909216602084015263ffffffff166040830152606082015260800190565b60405181810167ffffffffffffffff81118282101715611b1957fe5b604052919050565b600067ffffffffffffffff821115611b3557fe5b50601f01601f191660200190565b60005b83811015611b5e578181015183820152602001611b46565b83811115611b6d576000848401525b50505050565b6001600160a01b0381168114611b8857600080fd5b5056fea2646970667358221220f9781e692a78af0d4cf3d953b2910c65f323dcbfa5050a9175ebdcd49f284adb64736f6c63430007060033",
					"opcodes": "PUSH1 0xC0 PUSH1 0x40 MSTORE CALLVALUE DUP1 ISZERO PUSH3 0x11 JUMPI PUSH1 0x0 DUP1 REVERT JUMPDEST POP PUSH1 0x40 MLOAD PUSH3 0x1C9C CODESIZE SUB DUP1 PUSH3 0x1C9C DUP4 CODECOPY DUP2 ADD PUSH1 0x40 DUP2 SWAP1 MSTORE PUSH3 0x34 SWAP2 PUSH3 0x70 JUMP JUMPDEST PUSH1 0x1 PUSH1 0x1 PUSH1 0x60 SHL SUB NOT PUSH1 0x60 SWAP3 DUP4 SHL DUP2 AND PUSH1 0x80 MSTORE SWAP2 SHL AND PUSH1 0xA0 MSTORE PUSH3 0xA7 JUMP JUMPDEST DUP1 MLOAD PUSH1 0x1 PUSH1 0x1 PUSH1 0xA0 SHL SUB DUP2 AND DUP2 EQ PUSH3 0x6B JUMPI PUSH1 0x0 DUP1 REVERT JUMPDEST SWAP2 SWAP1 POP JUMP JUMPDEST PUSH1 0x0 DUP1 PUSH1 0x40 DUP4 DUP6 SUB SLT ISZERO PUSH3 0x83 JUMPI DUP2 DUP3 REVERT JUMPDEST PUSH3 0x8E DUP4 PUSH3 0x53 JUMP JUMPDEST SWAP2 POP PUSH3 0x9E PUSH1 0x20 DUP5 ADD PUSH3 0x53 JUMP JUMPDEST SWAP1 POP SWAP3 POP SWAP3 SWAP1 POP JUMP JUMPDEST PUSH1 0x80 MLOAD PUSH1 0x60 SHR PUSH1 0xA0 MLOAD PUSH1 0x60 SHR PUSH2 0x1BC1 PUSH3 0xDB PUSH1 0x0 CODECOPY DUP1 PUSH2 0x2E0 MSTORE POP DUP1 PUSH2 0x4D7 MSTORE DUP1 PUSH2 0x837 MSTORE DUP1 PUSH2 0x9EF MSTORE POP PUSH2 0x1BC1 PUSH1 0x0 RETURN INVALID PUSH1 0x80 PUSH1 0x40 MSTORE CALLVALUE DUP1 ISZERO PUSH2 0x10 JUMPI PUSH1 0x0 DUP1 REVERT JUMPDEST POP PUSH1 0x4 CALLDATASIZE LT PUSH2 0x7D JUMPI PUSH1 0x0 CALLDATALOAD PUSH1 0xE0 SHR DUP1 PUSH4 0xC45A0155 GT PUSH2 0x5B JUMPI DUP1 PUSH4 0xC45A0155 EQ PUSH2 0xE6 JUMPI DUP1 PUSH4 0xC6A5026A EQ PUSH2 0xEE JUMPI DUP1 PUSH4 0xCDCA1753 EQ PUSH2 0x101 JUMPI DUP1 PUSH4 0xFA461E33 EQ PUSH2 0x114 JUMPI PUSH2 0x7D JUMP JUMPDEST DUP1 PUSH4 0x2F80BB1D EQ PUSH2 0x82 JUMPI DUP1 PUSH4 0x4AA4A4FC EQ PUSH2 0xAE JUMPI DUP1 PUSH4 0xBD21704A EQ PUSH2 0xC3 JUMPI JUMPDEST PUSH1 0x0 DUP1 REVERT JUMPDEST PUSH2 0x95 PUSH2 0x90 CALLDATASIZE PUSH1 0x4 PUSH2 0x157F JUMP JUMPDEST PUSH2 0x129 JUMP JUMPDEST PUSH1 0x40 MLOAD PUSH2 0xA5 SWAP5 SWAP4 SWAP3 SWAP2 SWAP1 PUSH2 0x1A38 JUMP JUMPDEST PUSH1 0x40 MLOAD DUP1 SWAP2 SUB SWAP1 RETURN JUMPDEST PUSH2 0xB6 PUSH2 0x2DE JUMP JUMPDEST PUSH1 0x40 MLOAD PUSH2 0xA5 SWAP2 SWAP1 PUSH2 0x1864 JUMP JUMPDEST PUSH2 0xD6 PUSH2 0xD1 CALLDATASIZE PUSH1 0x4 PUSH2 0x16BE JUMP JUMPDEST PUSH2 0x302 JUMP JUMPDEST PUSH1 0x40 MLOAD PUSH2 0xA5 SWAP5 SWAP4 SWAP3 SWAP2 SWAP1 PUSH2 0x1AD3 JUMP JUMPDEST PUSH2 0xB6 PUSH2 0x4D5 JUMP JUMPDEST PUSH2 0xD6 PUSH2 0xFC CALLDATASIZE PUSH1 0x4 PUSH2 0x16BE JUMP JUMPDEST PUSH2 0x4F9 JUMP JUMPDEST PUSH2 0x95 PUSH2 0x10F CALLDATASIZE PUSH1 0x4 PUSH2 0x157F JUMP JUMPDEST PUSH2 0x66F JUMP JUMPDEST PUSH2 0x127 PUSH2 0x122 CALLDATASIZE PUSH1 0x4 PUSH2 0x1606 JUMP JUMPDEST PUSH2 0x806 JUMP JUMPDEST STOP JUMPDEST PUSH1 0x0 PUSH1 0x60 DUP1 PUSH1 0x0 PUSH2 0x139 DUP7 PUSH2 0x981 JUMP JUMPDEST PUSH8 0xFFFFFFFFFFFFFFFF DUP2 GT DUP1 ISZERO PUSH2 0x14F JUMPI PUSH1 0x0 DUP1 REVERT JUMPDEST POP PUSH1 0x40 MLOAD SWAP1 DUP1 DUP3 MSTORE DUP1 PUSH1 0x20 MUL PUSH1 0x20 ADD DUP3 ADD PUSH1 0x40 MSTORE DUP1 ISZERO PUSH2 0x179 JUMPI DUP2 PUSH1 0x20 ADD PUSH1 0x20 DUP3 MUL DUP1 CALLDATASIZE DUP4 CALLDATACOPY ADD SWAP1 POP JUMPDEST POP SWAP3 POP PUSH2 0x185 DUP7 PUSH2 0x981 JUMP JUMPDEST PUSH8 0xFFFFFFFFFFFFFFFF DUP2 GT DUP1 ISZERO PUSH2 0x19B JUMPI PUSH1 0x0 DUP1 REVERT JUMPDEST POP PUSH1 0x40 MLOAD SWAP1 DUP1 DUP3 MSTORE DUP1 PUSH1 0x20 MUL PUSH1 0x20 ADD DUP3 ADD PUSH1 0x40 MSTORE DUP1 ISZERO PUSH2 0x1C5 JUMPI DUP2 PUSH1 0x20 ADD PUSH1 0x20 DUP3 MUL DUP1 CALLDATASIZE DUP4 CALLDATACOPY ADD SWAP1 POP JUMPDEST POP SWAP2 POP PUSH1 0x0 JUMPDEST PUSH1 0x0 DUP1 PUSH1 0x0 PUSH2 0x1D9 DUP11 PUSH2 0x992 JUMP JUMPDEST SWAP3 POP SWAP3 POP SWAP3 POP PUSH1 0x0 DUP1 PUSH1 0x0 DUP1 PUSH2 0x235 PUSH1 0x40 MLOAD DUP1 PUSH1 0xA0 ADD PUSH1 0x40 MSTORE DUP1 DUP9 PUSH1 0x1 PUSH1 0x1 PUSH1 0xA0 SHL SUB AND DUP2 MSTORE PUSH1 0x20 ADD DUP10 PUSH1 0x1 PUSH1 0x1 PUSH1 0xA0 SHL SUB AND DUP2 MSTORE PUSH1 0x20 ADD DUP16 DUP2 MSTORE PUSH1 0x20 ADD DUP8 PUSH3 0xFFFFFF AND DUP2 MSTORE PUSH1 0x20 ADD PUSH1 0x0 PUSH1 0x1 PUSH1 0x1 PUSH1 0xA0 SHL SUB AND DUP2 MSTORE POP PUSH2 0x302 JUMP JUMPDEST SWAP4 POP SWAP4 POP SWAP4 POP SWAP4 POP DUP3 DUP12 DUP10 DUP2 MLOAD DUP2 LT PUSH2 0x24A JUMPI INVALID JUMPDEST PUSH1 0x20 MUL PUSH1 0x20 ADD ADD SWAP1 PUSH1 0x1 PUSH1 0x1 PUSH1 0xA0 SHL SUB AND SWAP1 DUP2 PUSH1 0x1 PUSH1 0x1 PUSH1 0xA0 SHL SUB AND DUP2 MSTORE POP POP DUP2 DUP11 DUP10 DUP2 MLOAD DUP2 LT PUSH2 0x277 JUMPI INVALID JUMPDEST PUSH4 0xFFFFFFFF SWAP1 SWAP3 AND PUSH1 0x20 SWAP3 DUP4 MUL SWAP2 SWAP1 SWAP2 ADD SWAP1 SWAP2 ADD MSTORE SWAP3 SWAP12 POP SWAP7 DUP3 ADD SWAP7 PUSH1 0x1 SWAP1 SWAP7 ADD SWAP6 DUP12 SWAP3 PUSH2 0x2A4 DUP15 PUSH2 0x9C3 JUMP JUMPDEST ISZERO PUSH2 0x2B9 JUMPI PUSH2 0x2B2 DUP15 PUSH2 0x9CB JUMP JUMPDEST SWAP14 POP PUSH2 0x2C9 JUMP JUMPDEST DUP13 SWAP12 POP POP POP POP POP POP POP POP POP PUSH2 0x2D5 JUMP JUMPDEST POP POP POP POP POP POP POP PUSH2 0x1CB JUMP JUMPDEST SWAP3 SWAP6 SWAP2 SWAP5 POP SWAP3 POP JUMP JUMPDEST PUSH32 0x0 DUP2 JUMP JUMPDEST PUSH1 0x20 DUP2 ADD MLOAD DUP2 MLOAD PUSH1 0x60 DUP4 ADD MLOAD PUSH1 0x0 SWAP3 DUP4 SWAP3 DUP4 SWAP3 DUP4 SWAP3 PUSH1 0x1 PUSH1 0x1 PUSH1 0xA0 SHL SUB DUP1 DUP3 AND SWAP1 DUP5 AND LT SWAP3 DUP5 SWAP3 PUSH2 0x333 SWAP3 SWAP1 PUSH2 0x9E8 JUMP JUMPDEST SWAP1 POP DUP7 PUSH1 0x80 ADD MLOAD PUSH1 0x1 PUSH1 0x1 PUSH1 0xA0 SHL SUB AND PUSH1 0x0 EQ ISZERO PUSH2 0x354 JUMPI PUSH1 0x40 DUP8 ADD MLOAD PUSH1 0x0 SSTORE JUMPDEST PUSH1 0x0 GAS SWAP1 POP DUP2 PUSH1 0x1 PUSH1 0x1 PUSH1 0xA0 SHL SUB AND PUSH4 0x128ACB08 ADDRESS DUP6 PUSH2 0x377 DUP13 PUSH1 0x40 ADD MLOAD PUSH2 0xA26 JUMP JUMPDEST PUSH1 0x0 SUB DUP13 PUSH1 0x80 ADD MLOAD PUSH1 0x1 PUSH1 0x1 PUSH1 0xA0 SHL SUB AND PUSH1 0x0 EQ PUSH2 0x399 JUMPI DUP13 PUSH1 0x80 ADD MLOAD PUSH2 0x3BF JUMP JUMPDEST DUP8 PUSH2 0x3B8 JUMPI PUSH20 0xFFFD8963EFD1FC6A506488495D951D5263988D25 PUSH2 0x3BF JUMP JUMPDEST PUSH5 0x1000276A4 JUMPDEST DUP14 PUSH1 0x20 ADD MLOAD DUP15 PUSH1 0x60 ADD MLOAD DUP16 PUSH1 0x0 ADD MLOAD PUSH1 0x40 MLOAD PUSH1 0x20 ADD PUSH2 0x3E0 SWAP4 SWAP3 SWAP2 SWAP1 PUSH2 0x17F1 JUMP JUMPDEST PUSH1 0x40 MLOAD PUSH1 0x20 DUP2 DUP4 SUB SUB DUP2 MSTORE SWAP1 PUSH1 0x40 MSTORE PUSH1 0x40 MLOAD DUP7 PUSH4 0xFFFFFFFF AND PUSH1 0xE0 SHL DUP2 MSTORE PUSH1 0x4 ADD PUSH2 0x40F SWAP6 SWAP5 SWAP4 SWAP3 SWAP2 SWAP1 PUSH2 0x18A0 JUMP JUMPDEST PUSH1 0x40 DUP1 MLOAD DUP1 DUP4 SUB DUP2 PUSH1 0x0 DUP8 DUP1 EXTCODESIZE ISZERO DUP1 ISZERO PUSH2 0x428 JUMPI PUSH1 0x0 DUP1 REVERT JUMPDEST POP GAS CALL SWAP3 POP POP POP DUP1 ISZERO PUSH2 0x458 JUMPI POP PUSH1 0x40 DUP1 MLOAD PUSH1 0x1F RETURNDATASIZE SWAP1 DUP2 ADD PUSH1 0x1F NOT AND DUP3 ADD SWAP1 SWAP3 MSTORE PUSH2 0x455 SWAP2 DUP2 ADD SWAP1 PUSH2 0x15E3 JUMP JUMPDEST PUSH1 0x1 JUMPDEST PUSH2 0x4C8 JUMPI RETURNDATASIZE DUP1 DUP1 ISZERO PUSH2 0x486 JUMPI PUSH1 0x40 MLOAD SWAP2 POP PUSH1 0x1F NOT PUSH1 0x3F RETURNDATASIZE ADD AND DUP3 ADD PUSH1 0x40 MSTORE RETURNDATASIZE DUP3 MSTORE RETURNDATASIZE PUSH1 0x0 PUSH1 0x20 DUP5 ADD RETURNDATACOPY PUSH2 0x48B JUMP JUMPDEST PUSH1 0x60 SWAP2 POP JUMPDEST POP GAS DUP3 SUB SWAP5 POP DUP9 PUSH1 0x80 ADD MLOAD PUSH1 0x1 PUSH1 0x1 PUSH1 0xA0 SHL SUB AND PUSH1 0x0 EQ ISZERO PUSH2 0x4AC JUMPI PUSH1 0x0 DUP1 SSTORE JUMPDEST PUSH2 0x4B7 DUP2 DUP5 DUP8 PUSH2 0xA3C JUMP JUMPDEST SWAP8 POP SWAP8 POP SWAP8 POP SWAP8 POP POP POP POP POP PUSH2 0x4CE JUMP JUMPDEST POP POP POP POP POP JUMPDEST SWAP2 SWAP4 POP SWAP2 SWAP4 JUMP JUMPDEST PUSH32 0x0 DUP2 JUMP JUMPDEST PUSH1 0x20 DUP2 ADD MLOAD DUP2 MLOAD PUSH1 0x60 DUP4 ADD MLOAD PUSH1 0x0 SWAP3 DUP4 SWAP3 DUP4 SWAP3 DUP4 SWAP3 PUSH1 0x1 PUSH1 0x1 PUSH1 0xA0 SHL SUB DUP1 DUP3 AND SWAP1 DUP5 AND LT SWAP3 DUP5 SWAP3 PUSH2 0x52A SWAP3 SWAP1 PUSH2 0x9E8 JUMP JUMPDEST SWAP1 POP PUSH1 0x0 GAS SWAP1 POP DUP2 PUSH1 0x1 PUSH1 0x1 PUSH1 0xA0 SHL SUB AND PUSH4 0x128ACB08 ADDRESS DUP6 PUSH2 0x54F DUP13 PUSH1 0x40 ADD MLOAD PUSH2 0xA26 JUMP JUMPDEST PUSH1 0x80 DUP14 ADD MLOAD PUSH1 0x1 PUSH1 0x1 PUSH1 0xA0 SHL SUB AND ISZERO PUSH2 0x56C JUMPI DUP13 PUSH1 0x80 ADD MLOAD PUSH2 0x592 JUMP JUMPDEST DUP8 PUSH2 0x58B JUMPI PUSH20 0xFFFD8963EFD1FC6A506488495D951D5263988D25 PUSH2 0x592 JUMP JUMPDEST PUSH5 0x1000276A4 JUMPDEST DUP14 PUSH1 0x0 ADD MLOAD DUP15 PUSH1 0x60 ADD MLOAD DUP16 PUSH1 0x20 ADD MLOAD PUSH1 0x40 MLOAD PUSH1 0x20 ADD PUSH2 0x5B3 SWAP4 SWAP3 SWAP2 SWAP1 PUSH2 0x17F1 JUMP JUMPDEST PUSH1 0x40 MLOAD PUSH1 0x20 DUP2 DUP4 SUB SUB DUP2 MSTORE SWAP1 PUSH1 0x40 MSTORE PUSH1 0x40 MLOAD DUP7 PUSH4 0xFFFFFFFF AND PUSH1 0xE0 SHL DUP2 MSTORE PUSH1 0x4 ADD PUSH2 0x5E2 SWAP6 SWAP5 SWAP4 SWAP3 SWAP2 SWAP1 PUSH2 0x18A0 JUMP JUMPDEST PUSH1 0x40 DUP1 MLOAD DUP1 DUP4 SUB DUP2 PUSH1 0x0 DUP8 DUP1 EXTCODESIZE ISZERO DUP1 ISZERO PUSH2 0x5FB JUMPI PUSH1 0x0 DUP1 REVERT JUMPDEST POP GAS CALL SWAP3 POP POP POP DUP1 ISZERO PUSH2 0x62B JUMPI POP PUSH1 0x40 DUP1 MLOAD PUSH1 0x1F RETURNDATASIZE SWAP1 DUP2 ADD PUSH1 0x1F NOT AND DUP3 ADD SWAP1 SWAP3 MSTORE PUSH2 0x628 SWAP2 DUP2 ADD SWAP1 PUSH2 0x15E3 JUMP JUMPDEST PUSH1 0x1 JUMPDEST PUSH2 0x4C8 JUMPI RETURNDATASIZE DUP1 DUP1 ISZERO PUSH2 0x659 JUMPI PUSH1 0x40 MLOAD SWAP2 POP PUSH1 0x1F NOT PUSH1 0x3F RETURNDATASIZE ADD AND DUP3 ADD PUSH1 0x40 MSTORE RETURNDATASIZE DUP3 MSTORE RETURNDATASIZE PUSH1 0x0 PUSH1 0x20 DUP5 ADD RETURNDATACOPY PUSH2 0x65E JUMP JUMPDEST PUSH1 0x60 SWAP2 POP JUMPDEST POP GAS DUP3 SUB SWAP5 POP PUSH2 0x4B7 DUP2 DUP5 DUP8 PUSH2 0xA3C JUMP JUMPDEST PUSH1 0x0 PUSH1 0x60 DUP1 PUSH1 0x0 PUSH2 0x67F DUP7 PUSH2 0x981 JUMP JUMPDEST PUSH8 0xFFFFFFFFFFFFFFFF DUP2 GT DUP1 ISZERO PUSH2 0x695 JUMPI PUSH1 0x0 DUP1 REVERT JUMPDEST POP PUSH1 0x40 MLOAD SWAP1 DUP1 DUP3 MSTORE DUP1 PUSH1 0x20 MUL PUSH1 0x20 ADD DUP3 ADD PUSH1 0x40 MSTORE DUP1 ISZERO PUSH2 0x6BF JUMPI DUP2 PUSH1 0x20 ADD PUSH1 0x20 DUP3 MUL DUP1 CALLDATASIZE DUP4 CALLDATACOPY ADD SWAP1 POP JUMPDEST POP SWAP3 POP PUSH2 0x6CB DUP7 PUSH2 0x981 JUMP JUMPDEST PUSH8 0xFFFFFFFFFFFFFFFF DUP2 GT DUP1 ISZERO PUSH2 0x6E1 JUMPI PUSH1 0x0 DUP1 REVERT JUMPDEST POP PUSH1 0x40 MLOAD SWAP1 DUP1 DUP3 MSTORE DUP1 PUSH1 0x20 MUL PUSH1 0x20 ADD DUP3 ADD PUSH1 0x40 MSTORE DUP1 ISZERO PUSH2 0x70B JUMPI DUP2 PUSH1 0x20 ADD PUSH1 0x20 DUP3 MUL DUP1 CALLDATASIZE DUP4 CALLDATACOPY ADD SWAP1 POP JUMPDEST POP SWAP2 POP PUSH1 0x0 JUMPDEST PUSH1 0x0 DUP1 PUSH1 0x0 PUSH2 0x71F DUP11 PUSH2 0x992 JUMP JUMPDEST SWAP3 POP SWAP3 POP SWAP3 POP PUSH1 0x0 DUP1 PUSH1 0x0 DUP1 PUSH2 0x77B PUSH1 0x40 MLOAD DUP1 PUSH1 0xA0 ADD PUSH1 0x40 MSTORE DUP1 DUP10 PUSH1 0x1 PUSH1 0x1 PUSH1 0xA0 SHL SUB AND DUP2 MSTORE PUSH1 0x20 ADD DUP9 PUSH1 0x1 PUSH1 0x1 PUSH1 0xA0 SHL SUB AND DUP2 MSTORE PUSH1 0x20 ADD DUP16 DUP2 MSTORE PUSH1 0x20 ADD DUP8 PUSH3 0xFFFFFF AND DUP2 MSTORE PUSH1 0x20 ADD PUSH1 0x0 PUSH1 0x1 PUSH1 0x1 PUSH1 0xA0 SHL SUB AND DUP2 MSTORE POP PUSH2 0x4F9 JUMP JUMPDEST SWAP4 POP SWAP4 POP SWAP4 POP SWAP4 POP DUP3 DUP12 DUP10 DUP2 MLOAD DUP2 LT PUSH2 0x790 JUMPI INVALID JUMPDEST PUSH1 0x20 MUL PUSH1 0x20 ADD ADD SWAP1 PUSH1 0x1 PUSH1 0x1 PUSH1 0xA0 SHL SUB AND SWAP1 DUP2 PUSH1 0x1 PUSH1 0x1 PUSH1 0xA0 SHL SUB AND DUP2 MSTORE POP POP DUP2 DUP11 DUP10 DUP2 MLOAD DUP2 LT PUSH2 0x7BD JUMPI INVALID JUMPDEST PUSH4 0xFFFFFFFF SWAP1 SWAP3 AND PUSH1 0x20 SWAP3 DUP4 MUL SWAP2 SWAP1 SWAP2 ADD SWAP1 SWAP2 ADD MSTORE SWAP3 SWAP12 POP SWAP7 DUP3 ADD SWAP7 PUSH1 0x1 SWAP1 SWAP7 ADD SWAP6 DUP12 SWAP3 PUSH2 0x7EA DUP15 PUSH2 0x9C3 JUMP JUMPDEST ISZERO PUSH2 0x2B9 JUMPI PUSH2 0x7F8 DUP15 PUSH2 0x9CB JUMP JUMPDEST SWAP14 POP POP POP POP POP POP POP POP PUSH2 0x711 JUMP JUMPDEST PUSH1 0x0 DUP4 SGT DUP1 PUSH2 0x815 JUMPI POP PUSH1 0x0 DUP3 SGT JUMPDEST PUSH2 0x81E JUMPI PUSH1 0x0 DUP1 REVERT JUMPDEST PUSH1 0x0 DUP1 PUSH1 0x0 PUSH2 0x82C DUP5 PUSH2 0x992 JUMP JUMPDEST SWAP3 POP SWAP3 POP SWAP3 POP PUSH2 0x85E PUSH32 0x0 DUP5 DUP5 DUP5 PUSH2 0xAF6 JUMP JUMPDEST POP PUSH1 0x0 DUP1 PUSH1 0x0 DUP1 DUP10 SGT PUSH2 0x88A JUMPI DUP6 PUSH1 0x1 PUSH1 0x1 PUSH1 0xA0 SHL SUB AND DUP6 PUSH1 0x1 PUSH1 0x1 PUSH1 0xA0 SHL SUB AND LT DUP9 DUP11 PUSH1 0x0 SUB PUSH2 0x8A5 JUMP JUMPDEST DUP5 PUSH1 0x1 PUSH1 0x1 PUSH1 0xA0 SHL SUB AND DUP7 PUSH1 0x1 PUSH1 0x1 PUSH1 0xA0 SHL SUB AND LT DUP10 DUP10 PUSH1 0x0 SUB JUMPDEST SWAP3 POP SWAP3 POP SWAP3 POP PUSH1 0x0 PUSH2 0x8B8 DUP8 DUP8 DUP8 PUSH2 0x9E8 JUMP JUMPDEST SWAP1 POP PUSH1 0x0 DUP1 DUP3 PUSH1 0x1 PUSH1 0x1 PUSH1 0xA0 SHL SUB AND PUSH4 0x3850C7BD PUSH1 0x40 MLOAD DUP2 PUSH4 0xFFFFFFFF AND PUSH1 0xE0 SHL DUP2 MSTORE PUSH1 0x4 ADD PUSH1 0xE0 PUSH1 0x40 MLOAD DUP1 DUP4 SUB DUP2 DUP7 DUP1 EXTCODESIZE ISZERO DUP1 ISZERO PUSH2 0x8F6 JUMPI PUSH1 0x0 DUP1 REVERT JUMPDEST POP GAS STATICCALL ISZERO DUP1 ISZERO PUSH2 0x90A JUMPI RETURNDATASIZE PUSH1 0x0 DUP1 RETURNDATACOPY RETURNDATASIZE PUSH1 0x0 REVERT JUMPDEST POP POP POP POP PUSH1 0x40 MLOAD RETURNDATASIZE PUSH1 0x1F NOT PUSH1 0x1F DUP3 ADD AND DUP3 ADD DUP1 PUSH1 0x40 MSTORE POP DUP2 ADD SWAP1 PUSH2 0x92E SWAP2 SWAP1 PUSH2 0x16D9 JUMP JUMPDEST POP POP POP POP POP SWAP2 POP SWAP2 POP DUP6 ISZERO PUSH2 0x954 JUMPI PUSH1 0x40 MLOAD DUP5 DUP2 MSTORE DUP3 PUSH1 0x20 DUP3 ADD MSTORE DUP2 PUSH1 0x40 DUP3 ADD MSTORE PUSH1 0x60 DUP2 REVERT JUMPDEST PUSH1 0x0 SLOAD ISZERO PUSH2 0x96A JUMPI PUSH1 0x0 SLOAD DUP5 EQ PUSH2 0x96A JUMPI PUSH1 0x0 DUP1 REVERT JUMPDEST PUSH1 0x40 MLOAD DUP6 DUP2 MSTORE DUP3 PUSH1 0x20 DUP3 ADD MSTORE DUP2 PUSH1 0x40 DUP3 ADD MSTORE PUSH1 0x60 DUP2 REVERT JUMPDEST DUP1 MLOAD PUSH1 0x17 PUSH1 0x13 NOT SWAP1 SWAP2 ADD DIV JUMPDEST SWAP2 SWAP1 POP JUMP JUMPDEST PUSH1 0x0 DUP1 DUP1 PUSH2 0x9A0 DUP5 DUP3 PUSH2 0xB15 JUMP JUMPDEST SWAP3 POP PUSH2 0x9AD DUP5 PUSH1 0x14 PUSH2 0xB77 JUMP JUMPDEST SWAP1 POP PUSH2 0x9BA DUP5 PUSH1 0x17 PUSH2 0xB15 JUMP JUMPDEST SWAP2 POP SWAP2 SWAP4 SWAP1 SWAP3 POP JUMP JUMPDEST MLOAD PUSH1 0x42 GT ISZERO SWAP1 JUMP JUMPDEST DUP1 MLOAD PUSH1 0x60 SWAP1 PUSH2 0x9E2 SWAP1 DUP4 SWAP1 PUSH1 0x17 SWAP1 PUSH1 0x16 NOT ADD PUSH2 0xBC9 JUMP JUMPDEST SWAP3 SWAP2 POP POP JUMP JUMPDEST PUSH1 0x0 PUSH2 0xA1E PUSH32 0x0 PUSH2 0xA19 DUP7 DUP7 DUP7 PUSH2 0xCA5 JUMP JUMPDEST PUSH2 0xCFB JUMP JUMPDEST SWAP5 SWAP4 POP POP POP POP JUMP JUMPDEST PUSH1 0x0 PUSH1 0x1 PUSH1 0xFF SHL DUP3 LT PUSH2 0xA38 JUMPI PUSH1 0x0 DUP1 REVERT JUMPDEST POP SWAP1 JUMP JUMPDEST PUSH1 0x0 DUP1 PUSH1 0x0 DUP1 PUSH1 0x0 DUP1 DUP8 PUSH1 0x1 PUSH1 0x1 PUSH1 0xA0 SHL SUB AND PUSH4 0x3850C7BD PUSH1 0x40 MLOAD DUP2 PUSH4 0xFFFFFFFF AND PUSH1 0xE0 SHL DUP2 MSTORE PUSH1 0x4 ADD PUSH1 0xE0 PUSH1 0x40 MLOAD DUP1 DUP4 SUB DUP2 DUP7 DUP1 EXTCODESIZE ISZERO DUP1 ISZERO PUSH2 0xA7E JUMPI PUSH1 0x0 DUP1 REVERT JUMPDEST POP GAS STATICCALL ISZERO DUP1 ISZERO PUSH2 0xA92 JUMPI RETURNDATASIZE PUSH1 0x0 DUP1 RETURNDATACOPY RETURNDATASIZE PUSH1 0x0 REVERT JUMPDEST POP POP POP POP PUSH1 0x40 MLOAD RETURNDATASIZE PUSH1 0x1F NOT PUSH1 0x1F DUP3 ADD AND DUP3 ADD DUP1 PUSH1 0x40 MSTORE POP DUP2 ADD SWAP1 PUSH2 0xAB6 SWAP2 SWAP1 PUSH2 0x16D9 JUMP JUMPDEST POP SWAP4 SWAP7 POP PUSH2 0xACB SWAP5 POP DUP14 SWAP4 POP PUSH2 0xDAC SWAP3 POP POP POP JUMP JUMPDEST SWAP2 SWAP8 POP SWAP6 POP SWAP1 POP PUSH2 0xAE6 PUSH1 0x1 PUSH1 0x1 PUSH1 0xA0 SHL SUB DUP10 AND DUP4 DUP4 PUSH2 0xE30 JUMP JUMPDEST SWAP4 POP DUP7 SWAP3 POP POP POP SWAP4 POP SWAP4 POP SWAP4 POP SWAP4 JUMP JUMPDEST PUSH1 0x0 PUSH2 0xB0C DUP6 PUSH2 0xB07 DUP7 DUP7 DUP7 PUSH2 0xCA5 JUMP JUMPDEST PUSH2 0x1410 JUMP JUMPDEST SWAP6 SWAP5 POP POP POP POP POP JUMP JUMPDEST PUSH1 0x0 DUP2 DUP3 PUSH1 0x14 ADD LT ISZERO PUSH2 0xB43 JUMPI PUSH1 0x40 MLOAD PUSH3 0x461BCD PUSH1 0xE5 SHL DUP2 MSTORE PUSH1 0x4 ADD PUSH2 0xB3A SWAP1 PUSH2 0x1A0C JUMP JUMPDEST PUSH1 0x40 MLOAD DUP1 SWAP2 SUB SWAP1 REVERT JUMPDEST DUP2 PUSH1 0x14 ADD DUP4 MLOAD LT ISZERO PUSH2 0xB67 JUMPI PUSH1 0x40 MLOAD PUSH3 0x461BCD PUSH1 0xE5 SHL DUP2 MSTORE PUSH1 0x4 ADD PUSH2 0xB3A SWAP1 PUSH2 0x19B2 JUMP JUMPDEST POP ADD PUSH1 0x20 ADD MLOAD PUSH1 0x1 PUSH1 0x60 SHL SWAP1 DIV SWAP1 JUMP JUMPDEST PUSH1 0x0 DUP2 DUP3 PUSH1 0x3 ADD LT ISZERO PUSH2 0xB9C JUMPI PUSH1 0x40 MLOAD PUSH3 0x461BCD PUSH1 0xE5 SHL DUP2 MSTORE PUSH1 0x4 ADD PUSH2 0xB3A SWAP1 PUSH2 0x1907 JUMP JUMPDEST DUP2 PUSH1 0x3 ADD DUP4 MLOAD LT ISZERO PUSH2 0xBC0 JUMPI PUSH1 0x40 MLOAD PUSH3 0x461BCD PUSH1 0xE5 SHL DUP2 MSTORE PUSH1 0x4 ADD PUSH2 0xB3A SWAP1 PUSH2 0x195A JUMP JUMPDEST POP ADD PUSH1 0x3 ADD MLOAD SWAP1 JUMP JUMPDEST PUSH1 0x60 DUP2 DUP3 PUSH1 0x1F ADD LT ISZERO PUSH2 0xBEE JUMPI PUSH1 0x40 MLOAD PUSH3 0x461BCD PUSH1 0xE5 SHL DUP2 MSTORE PUSH1 0x4 ADD PUSH2 0xB3A SWAP1 PUSH2 0x1932 JUMP JUMPDEST DUP3 DUP3 DUP5 ADD LT ISZERO PUSH2 0xC10 JUMPI PUSH1 0x40 MLOAD PUSH3 0x461BCD PUSH1 0xE5 SHL DUP2 MSTORE PUSH1 0x4 ADD PUSH2 0xB3A SWAP1 PUSH2 0x1932 JUMP JUMPDEST DUP2 DUP4 ADD DUP5 MLOAD LT ISZERO PUSH2 0xC33 JUMPI PUSH1 0x40 MLOAD PUSH3 0x461BCD PUSH1 0xE5 SHL DUP2 MSTORE PUSH1 0x4 ADD PUSH2 0xB3A SWAP1 PUSH2 0x19E1 JUMP JUMPDEST PUSH1 0x60 DUP3 ISZERO DUP1 ISZERO PUSH2 0xC52 JUMPI PUSH1 0x40 MLOAD SWAP2 POP PUSH1 0x0 DUP3 MSTORE PUSH1 0x20 DUP3 ADD PUSH1 0x40 MSTORE PUSH2 0xC9C JUMP JUMPDEST PUSH1 0x40 MLOAD SWAP2 POP PUSH1 0x1F DUP5 AND DUP1 ISZERO PUSH1 0x20 MUL DUP2 DUP5 ADD ADD DUP6 DUP2 ADD DUP8 DUP4 ISZERO PUSH1 0x20 MUL DUP5 DUP12 ADD ADD ADD JUMPDEST DUP2 DUP4 LT ISZERO PUSH2 0xC8B JUMPI DUP1 MLOAD DUP4 MSTORE PUSH1 0x20 SWAP3 DUP4 ADD SWAP3 ADD PUSH2 0xC73 JUMP JUMPDEST POP POP DUP6 DUP5 MSTORE PUSH1 0x1F ADD PUSH1 0x1F NOT AND PUSH1 0x40 MSTORE POP JUMPDEST POP SWAP5 SWAP4 POP POP POP POP JUMP JUMPDEST PUSH2 0xCAD PUSH2 0x144E JUMP JUMPDEST DUP3 PUSH1 0x1 PUSH1 0x1 PUSH1 0xA0 SHL SUB AND DUP5 PUSH1 0x1 PUSH1 0x1 PUSH1 0xA0 SHL SUB AND GT ISZERO PUSH2 0xCCB JUMPI SWAP2 SWAP3 SWAP2 JUMPDEST POP PUSH1 0x40 DUP1 MLOAD PUSH1 0x60 DUP2 ADD DUP3 MSTORE PUSH1 0x1 PUSH1 0x1 PUSH1 0xA0 SHL SUB SWAP5 DUP6 AND DUP2 MSTORE SWAP3 SWAP1 SWAP4 AND PUSH1 0x20 DUP4 ADD MSTORE PUSH3 0xFFFFFF AND SWAP2 DUP2 ADD SWAP2 SWAP1 SWAP2 MSTORE SWAP1 JUMP JUMPDEST PUSH1 0x0 DUP2 PUSH1 0x20 ADD MLOAD PUSH1 0x1 PUSH1 0x1 PUSH1 0xA0 SHL SUB AND DUP3 PUSH1 0x0 ADD MLOAD PUSH1 0x1 PUSH1 0x1 PUSH1 0xA0 SHL SUB AND LT PUSH2 0xD23 JUMPI PUSH1 0x0 DUP1 REVERT JUMPDEST DUP3 DUP3 PUSH1 0x0 ADD MLOAD DUP4 PUSH1 0x20 ADD MLOAD DUP5 PUSH1 0x40 ADD MLOAD PUSH1 0x40 MLOAD PUSH1 0x20 ADD PUSH2 0xD45 SWAP4 SWAP3 SWAP2 SWAP1 PUSH2 0x1878 JUMP JUMPDEST PUSH1 0x40 DUP1 MLOAD PUSH1 0x1F NOT DUP2 DUP5 SUB ADD DUP2 MSTORE SWAP1 DUP3 SWAP1 MSTORE DUP1 MLOAD PUSH1 0x20 SWAP2 DUP3 ADD KECCAK256 PUSH2 0xD8D SWAP4 SWAP3 SWAP1 SWAP2 PUSH32 0xE34F199B19B2B4F47F68442619D555527D244F78A3297EA89325F843F87B8B54 SWAP2 ADD PUSH2 0x182C JUMP JUMPDEST PUSH1 0x40 DUP1 MLOAD PUSH1 0x1F NOT DUP2 DUP5 SUB ADD DUP2 MSTORE SWAP2 SWAP1 MSTORE DUP1 MLOAD PUSH1 0x20 SWAP1 SWAP2 ADD KECCAK256 SWAP4 SWAP3 POP POP POP JUMP JUMPDEST PUSH1 0x0 DUP1 PUSH1 0x0 DUP4 MLOAD PUSH1 0x60 EQ PUSH2 0xE0F JUMPI PUSH1 0x44 DUP5 MLOAD LT ISZERO PUSH2 0xDDC JUMPI PUSH1 0x40 MLOAD PUSH3 0x461BCD PUSH1 0xE5 SHL DUP2 MSTORE PUSH1 0x4 ADD PUSH2 0xB3A SWAP1 PUSH2 0x1988 JUMP JUMPDEST PUSH1 0x4 DUP5 ADD SWAP4 POP DUP4 DUP1 PUSH1 0x20 ADD SWAP1 MLOAD DUP2 ADD SWAP1 PUSH2 0xDF6 SWAP2 SWAP1 PUSH2 0x1654 JUMP JUMPDEST PUSH1 0x40 MLOAD PUSH3 0x461BCD PUSH1 0xE5 SHL DUP2 MSTORE PUSH1 0x4 ADD PUSH2 0xB3A SWAP2 SWAP1 PUSH2 0x18F4 JUMP JUMPDEST DUP4 DUP1 PUSH1 0x20 ADD SWAP1 MLOAD DUP2 ADD SWAP1 PUSH2 0xE23 SWAP2 SWAP1 PUSH2 0x1788 JUMP JUMPDEST SWAP3 POP SWAP3 POP SWAP3 POP SWAP2 SWAP4 SWAP1 SWAP3 POP JUMP JUMPDEST PUSH1 0x0 DUP1 PUSH1 0x0 DUP1 PUSH1 0x0 DUP1 PUSH1 0x0 DUP1 PUSH1 0x8 DUP12 PUSH1 0x1 PUSH1 0x1 PUSH1 0xA0 SHL SUB AND PUSH4 0xD0C93A7C PUSH1 0x40 MLOAD DUP2 PUSH4 0xFFFFFFFF AND PUSH1 0xE0 SHL DUP2 MSTORE PUSH1 0x4 ADD PUSH1 0x20 PUSH1 0x40 MLOAD DUP1 DUP4 SUB DUP2 DUP7 DUP1 EXTCODESIZE ISZERO DUP1 ISZERO PUSH2 0xE77 JUMPI PUSH1 0x0 DUP1 REVERT JUMPDEST POP GAS STATICCALL ISZERO DUP1 ISZERO PUSH2 0xE8B JUMPI RETURNDATASIZE PUSH1 0x0 DUP1 RETURNDATACOPY RETURNDATASIZE PUSH1 0x0 REVERT JUMPDEST POP POP POP POP PUSH1 0x40 MLOAD RETURNDATASIZE PUSH1 0x1F NOT PUSH1 0x1F DUP3 ADD AND DUP3 ADD DUP1 PUSH1 0x40 MSTORE POP DUP2 ADD SWAP1 PUSH2 0xEAF SWAP2 SWAP1 PUSH2 0x15C2 JUMP JUMPDEST PUSH1 0x2 SIGNEXTEND DUP12 PUSH1 0x2 SIGNEXTEND DUP2 PUSH2 0xEBD JUMPI INVALID JUMPDEST SDIV PUSH1 0x2 SIGNEXTEND SWAP1 SAR SWAP1 POP PUSH1 0x0 PUSH2 0x100 DUP13 PUSH1 0x1 PUSH1 0x1 PUSH1 0xA0 SHL SUB AND PUSH4 0xD0C93A7C PUSH1 0x40 MLOAD DUP2 PUSH4 0xFFFFFFFF AND PUSH1 0xE0 SHL DUP2 MSTORE PUSH1 0x4 ADD PUSH1 0x20 PUSH1 0x40 MLOAD DUP1 DUP4 SUB DUP2 DUP7 DUP1 EXTCODESIZE ISZERO DUP1 ISZERO PUSH2 0xF03 JUMPI PUSH1 0x0 DUP1 REVERT JUMPDEST POP GAS STATICCALL ISZERO DUP1 ISZERO PUSH2 0xF17 JUMPI RETURNDATASIZE PUSH1 0x0 DUP1 RETURNDATACOPY RETURNDATASIZE PUSH1 0x0 REVERT JUMPDEST POP POP POP POP PUSH1 0x40 MLOAD RETURNDATASIZE PUSH1 0x1F NOT PUSH1 0x1F DUP3 ADD AND DUP3 ADD DUP1 PUSH1 0x40 MSTORE POP DUP2 ADD SWAP1 PUSH2 0xF3B SWAP2 SWAP1 PUSH2 0x15C2 JUMP JUMPDEST PUSH1 0x2 SIGNEXTEND DUP13 PUSH1 0x2 SIGNEXTEND DUP2 PUSH2 0xF49 JUMPI INVALID JUMPDEST SDIV PUSH1 0x2 SIGNEXTEND DUP2 PUSH2 0xF54 JUMPI INVALID JUMPDEST SMOD SWAP1 POP PUSH1 0x0 PUSH1 0x8 DUP14 PUSH1 0x1 PUSH1 0x1 PUSH1 0xA0 SHL SUB AND PUSH4 0xD0C93A7C PUSH1 0x40 MLOAD DUP2 PUSH4 0xFFFFFFFF AND PUSH1 0xE0 SHL DUP2 MSTORE PUSH1 0x4 ADD PUSH1 0x20 PUSH1 0x40 MLOAD DUP1 DUP4 SUB DUP2 DUP7 DUP1 EXTCODESIZE ISZERO DUP1 ISZERO PUSH2 0xF94 JUMPI PUSH1 0x0 DUP1 REVERT JUMPDEST POP GAS STATICCALL ISZERO DUP1 ISZERO PUSH2 0xFA8 JUMPI RETURNDATASIZE PUSH1 0x0 DUP1 RETURNDATACOPY RETURNDATASIZE PUSH1 0x0 REVERT JUMPDEST POP POP POP POP PUSH1 0x40 MLOAD RETURNDATASIZE PUSH1 0x1F NOT PUSH1 0x1F DUP3 ADD AND DUP3 ADD DUP1 PUSH1 0x40 MSTORE POP DUP2 ADD SWAP1 PUSH2 0xFCC SWAP2 SWAP1 PUSH2 0x15C2 JUMP JUMPDEST PUSH1 0x2 SIGNEXTEND DUP13 PUSH1 0x2 SIGNEXTEND DUP2 PUSH2 0xFDA JUMPI INVALID JUMPDEST SDIV PUSH1 0x2 SIGNEXTEND SWAP1 SAR SWAP1 POP PUSH1 0x0 PUSH2 0x100 DUP15 PUSH1 0x1 PUSH1 0x1 PUSH1 0xA0 SHL SUB AND PUSH4 0xD0C93A7C PUSH1 0x40 MLOAD DUP2 PUSH4 0xFFFFFFFF AND PUSH1 0xE0 SHL DUP2 MSTORE PUSH1 0x4 ADD PUSH1 0x20 PUSH1 0x40 MLOAD DUP1 DUP4 SUB DUP2 DUP7 DUP1 EXTCODESIZE ISZERO DUP1 ISZERO PUSH2 0x1020 JUMPI PUSH1 0x0 DUP1 REVERT JUMPDEST POP GAS STATICCALL ISZERO DUP1 ISZERO PUSH2 0x1034 JUMPI RETURNDATASIZE PUSH1 0x0 DUP1 RETURNDATACOPY RETURNDATASIZE PUSH1 0x0 REVERT JUMPDEST POP POP POP POP PUSH1 0x40 MLOAD RETURNDATASIZE PUSH1 0x1F NOT PUSH1 0x1F DUP3 ADD AND DUP3 ADD DUP1 PUSH1 0x40 MSTORE POP DUP2 ADD SWAP1 PUSH2 0x1058 SWAP2 SWAP1 PUSH2 0x15C2 JUMP JUMPDEST PUSH1 0x2 SIGNEXTEND DUP14 PUSH1 0x2 SIGNEXTEND DUP2 PUSH2 0x1066 JUMPI INVALID JUMPDEST SDIV PUSH1 0x2 SIGNEXTEND DUP2 PUSH2 0x1071 JUMPI INVALID JUMPDEST SMOD SWAP1 POP PUSH1 0x0 DUP2 PUSH1 0xFF AND PUSH1 0x1 SWAP1 SHL DUP16 PUSH1 0x1 PUSH1 0x1 PUSH1 0xA0 SHL SUB AND PUSH4 0x5339C296 DUP6 PUSH1 0x40 MLOAD DUP3 PUSH4 0xFFFFFFFF AND PUSH1 0xE0 SHL DUP2 MSTORE PUSH1 0x4 ADD PUSH2 0x10AA SWAP2 SWAP1 PUSH2 0x18E6 JUMP JUMPDEST PUSH1 0x20 PUSH1 0x40 MLOAD DUP1 DUP4 SUB DUP2 DUP7 DUP1 EXTCODESIZE ISZERO DUP1 ISZERO PUSH2 0x10C2 JUMPI PUSH1 0x0 DUP1 REVERT JUMPDEST POP GAS STATICCALL ISZERO DUP1 ISZERO PUSH2 0x10D6 JUMPI RETURNDATASIZE PUSH1 0x0 DUP1 RETURNDATACOPY RETURNDATASIZE PUSH1 0x0 REVERT JUMPDEST POP POP POP POP PUSH1 0x40 MLOAD RETURNDATASIZE PUSH1 0x1F NOT PUSH1 0x1F DUP3 ADD AND DUP3 ADD DUP1 PUSH1 0x40 MSTORE POP DUP2 ADD SWAP1 PUSH2 0x10FA SWAP2 SWAP1 PUSH2 0x1770 JUMP JUMPDEST AND GT DUP1 ISZERO PUSH2 0x1188 JUMPI POP DUP14 PUSH1 0x1 PUSH1 0x1 PUSH1 0xA0 SHL SUB AND PUSH4 0xD0C93A7C PUSH1 0x40 MLOAD DUP2 PUSH4 0xFFFFFFFF AND PUSH1 0xE0 SHL DUP2 MSTORE PUSH1 0x4 ADD PUSH1 0x20 PUSH1 0x40 MLOAD DUP1 DUP4 SUB DUP2 DUP7 DUP1 EXTCODESIZE ISZERO DUP1 ISZERO PUSH2 0x113C JUMPI PUSH1 0x0 DUP1 REVERT JUMPDEST POP GAS STATICCALL ISZERO DUP1 ISZERO PUSH2 0x1150 JUMPI RETURNDATASIZE PUSH1 0x0 DUP1 RETURNDATACOPY RETURNDATASIZE PUSH1 0x0 REVERT JUMPDEST POP POP POP POP PUSH1 0x40 MLOAD RETURNDATASIZE PUSH1 0x1F NOT PUSH1 0x1F DUP3 ADD AND DUP3 ADD DUP1 PUSH1 0x40 MSTORE POP DUP2 ADD SWAP1 PUSH2 0x1174 SWAP2 SWAP1 PUSH2 0x15C2 JUMP JUMPDEST PUSH1 0x2 SIGNEXTEND DUP13 PUSH1 0x2 SIGNEXTEND DUP2 PUSH2 0x1182 JUMPI INVALID JUMPDEST SMOD PUSH1 0x2 SIGNEXTEND ISZERO JUMPDEST DUP1 ISZERO PUSH2 0x1199 JUMPI POP DUP12 PUSH1 0x2 SIGNEXTEND DUP14 PUSH1 0x2 SIGNEXTEND SGT JUMPDEST SWAP5 POP PUSH1 0x0 DUP4 PUSH1 0xFF AND PUSH1 0x1 SWAP1 SHL DUP16 PUSH1 0x1 PUSH1 0x1 PUSH1 0xA0 SHL SUB AND PUSH4 0x5339C296 DUP8 PUSH1 0x40 MLOAD DUP3 PUSH4 0xFFFFFFFF AND PUSH1 0xE0 SHL DUP2 MSTORE PUSH1 0x4 ADD PUSH2 0x11D1 SWAP2 SWAP1 PUSH2 0x18E6 JUMP JUMPDEST PUSH1 0x20 PUSH1 0x40 MLOAD DUP1 DUP4 SUB DUP2 DUP7 DUP1 EXTCODESIZE ISZERO DUP1 ISZERO PUSH2 0x11E9 JUMPI PUSH1 0x0 DUP1 REVERT JUMPDEST POP GAS STATICCALL ISZERO DUP1 ISZERO PUSH2 0x11FD JUMPI RETURNDATASIZE PUSH1 0x0 DUP1 RETURNDATACOPY RETURNDATASIZE PUSH1 0x0 REVERT JUMPDEST POP POP POP POP PUSH1 0x40 MLOAD RETURNDATASIZE PUSH1 0x1F NOT PUSH1 0x1F DUP3 ADD AND DUP3 ADD DUP1 PUSH1 0x40 MSTORE POP DUP2 ADD SWAP1 PUSH2 0x1221 SWAP2 SWAP1 PUSH2 0x1770 JUMP JUMPDEST AND GT DUP1 ISZERO PUSH2 0x12AF JUMPI POP DUP14 PUSH1 0x1 PUSH1 0x1 PUSH1 0xA0 SHL SUB AND PUSH4 0xD0C93A7C PUSH1 0x40 MLOAD DUP2 PUSH4 0xFFFFFFFF AND PUSH1 0xE0 SHL DUP2 MSTORE PUSH1 0x4 ADD PUSH1 0x20 PUSH1 0x40 MLOAD DUP1 DUP4 SUB DUP2 DUP7 DUP1 EXTCODESIZE ISZERO DUP1 ISZERO PUSH2 0x1263 JUMPI PUSH1 0x0 DUP1 REVERT JUMPDEST POP GAS STATICCALL ISZERO DUP1 ISZERO PUSH2 0x1277 JUMPI RETURNDATASIZE PUSH1 0x0 DUP1 RETURNDATACOPY RETURNDATASIZE PUSH1 0x0 REVERT JUMPDEST POP POP POP POP PUSH1 0x40 MLOAD RETURNDATASIZE PUSH1 0x1F NOT PUSH1 0x1F DUP3 ADD AND DUP3 ADD DUP1 PUSH1 0x40 MSTORE POP DUP2 ADD SWAP1 PUSH2 0x129B SWAP2 SWAP1 PUSH2 0x15C2 JUMP JUMPDEST PUSH1 0x2 SIGNEXTEND DUP14 PUSH1 0x2 SIGNEXTEND DUP2 PUSH2 0x12A9 JUMPI INVALID JUMPDEST SMOD PUSH1 0x2 SIGNEXTEND ISZERO JUMPDEST DUP1 ISZERO PUSH2 0x12C0 JUMPI POP DUP12 PUSH1 0x2 SIGNEXTEND DUP14 PUSH1 0x2 SIGNEXTEND SLT JUMPDEST SWAP6 POP DUP2 PUSH1 0x1 SIGNEXTEND DUP5 PUSH1 0x1 SIGNEXTEND SLT DUP1 PUSH2 0x12EC JUMPI POP DUP2 PUSH1 0x1 SIGNEXTEND DUP5 PUSH1 0x1 SIGNEXTEND EQ DUP1 ISZERO PUSH2 0x12EC JUMPI POP DUP1 PUSH1 0xFF AND DUP4 PUSH1 0xFF AND GT ISZERO JUMPDEST ISZERO PUSH2 0x1302 JUMPI DUP4 SWAP10 POP DUP3 SWAP8 POP DUP2 SWAP9 POP DUP1 SWAP7 POP PUSH2 0x130F JUMP JUMPDEST DUP2 SWAP10 POP DUP1 SWAP8 POP DUP4 SWAP9 POP DUP3 SWAP7 POP JUMPDEST POP POP PUSH1 0x0 NOT PUSH1 0xFF DUP8 AND SHL SWAP2 POP POP JUMPDEST DUP6 PUSH1 0x1 SIGNEXTEND DUP8 PUSH1 0x1 SIGNEXTEND SGT PUSH2 0x13E8 JUMPI DUP6 PUSH1 0x1 SIGNEXTEND DUP8 PUSH1 0x1 SIGNEXTEND EQ ISZERO PUSH2 0x1344 JUMPI PUSH1 0x0 NOT PUSH1 0xFF DUP6 DUP2 SUB AND SHR AND JUMPDEST PUSH1 0x0 DUP2 DUP13 PUSH1 0x1 PUSH1 0x1 PUSH1 0xA0 SHL SUB AND PUSH4 0x5339C296 DUP11 PUSH1 0x40 MLOAD DUP3 PUSH4 0xFFFFFFFF AND PUSH1 0xE0 SHL DUP2 MSTORE PUSH1 0x4 ADD PUSH2 0x1373 SWAP2 SWAP1 PUSH2 0x18E6 JUMP JUMPDEST PUSH1 0x20 PUSH1 0x40 MLOAD DUP1 DUP4 SUB DUP2 DUP7 DUP1 EXTCODESIZE ISZERO DUP1 ISZERO PUSH2 0x138B JUMPI PUSH1 0x0 DUP1 REVERT JUMPDEST POP GAS STATICCALL ISZERO DUP1 ISZERO PUSH2 0x139F JUMPI RETURNDATASIZE PUSH1 0x0 DUP1 RETURNDATACOPY RETURNDATASIZE PUSH1 0x0 REVERT JUMPDEST POP POP POP POP PUSH1 0x40 MLOAD RETURNDATASIZE PUSH1 0x1F NOT PUSH1 0x1F DUP3 ADD AND DUP3 ADD DUP1 PUSH1 0x40 MSTORE POP DUP2 ADD SWAP1 PUSH2 0x13C3 SWAP2 SWAP1 PUSH2 0x1770 JUMP JUMPDEST AND SWAP1 POP PUSH2 0x13CF DUP2 PUSH2 0x1433 JUMP JUMPDEST PUSH2 0xFFFF AND SWAP9 SWAP1 SWAP9 ADD SWAP8 POP POP PUSH1 0x1 SWAP1 SWAP6 ADD SWAP5 PUSH1 0x0 NOT PUSH2 0x131D JUMP JUMPDEST DUP2 ISZERO PUSH2 0x13F5 JUMPI PUSH1 0x1 DUP9 SUB SWAP8 POP JUMPDEST DUP3 ISZERO PUSH2 0x1402 JUMPI PUSH1 0x1 DUP9 SUB SWAP8 POP JUMPDEST POP POP POP POP POP POP POP SWAP4 SWAP3 POP POP POP JUMP JUMPDEST PUSH1 0x0 PUSH2 0x141C DUP4 DUP4 PUSH2 0xCFB JUMP JUMPDEST SWAP1 POP CALLER PUSH1 0x1 PUSH1 0x1 PUSH1 0xA0 SHL SUB DUP3 AND EQ PUSH2 0x9E2 JUMPI PUSH1 0x0 DUP1 REVERT JUMPDEST PUSH1 0x0 DUP1 JUMPDEST DUP3 ISZERO PUSH2 0x9E2 JUMPI PUSH1 0x0 NOT DUP4 ADD SWAP1 SWAP3 AND SWAP2 PUSH1 0x1 ADD PUSH2 0x1437 JUMP JUMPDEST PUSH1 0x40 DUP1 MLOAD PUSH1 0x60 DUP2 ADD DUP3 MSTORE PUSH1 0x0 DUP1 DUP3 MSTORE PUSH1 0x20 DUP3 ADD DUP2 SWAP1 MSTORE SWAP2 DUP2 ADD SWAP2 SWAP1 SWAP2 MSTORE SWAP1 JUMP JUMPDEST PUSH1 0x0 DUP3 PUSH1 0x1F DUP4 ADD SLT PUSH2 0x147E JUMPI DUP1 DUP2 REVERT JUMPDEST DUP2 CALLDATALOAD PUSH2 0x1491 PUSH2 0x148C DUP3 PUSH2 0x1B21 JUMP JUMPDEST PUSH2 0x1AFD JUMP JUMPDEST DUP2 DUP2 MSTORE DUP5 PUSH1 0x20 DUP4 DUP7 ADD ADD GT ISZERO PUSH2 0x14A5 JUMPI DUP3 DUP4 REVERT JUMPDEST DUP2 PUSH1 0x20 DUP6 ADD PUSH1 0x20 DUP4 ADD CALLDATACOPY SWAP1 DUP2 ADD PUSH1 0x20 ADD SWAP2 SWAP1 SWAP2 MSTORE SWAP3 SWAP2 POP POP JUMP JUMPDEST DUP1 MLOAD PUSH1 0x2 DUP2 SWAP1 SIGNEXTEND DUP2 EQ PUSH2 0x98D JUMPI PUSH1 0x0 DUP1 REVERT JUMPDEST PUSH1 0x0 PUSH1 0xA0 DUP3 DUP5 SUB SLT ISZERO PUSH2 0x14E2 JUMPI DUP1 DUP2 REVERT JUMPDEST PUSH1 0x40 MLOAD PUSH1 0xA0 DUP2 ADD DUP2 DUP2 LT PUSH8 0xFFFFFFFFFFFFFFFF DUP3 GT OR ISZERO PUSH2 0x14FF JUMPI INVALID JUMPDEST PUSH1 0x40 MSTORE SWAP1 POP DUP1 DUP3 CALLDATALOAD PUSH2 0x1510 DUP2 PUSH2 0x1B73 JUMP JUMPDEST DUP2 MSTORE PUSH1 0x20 DUP4 ADD CALLDATALOAD PUSH2 0x1520 DUP2 PUSH2 0x1B73 JUMP JUMPDEST PUSH1 0x20 DUP3 ADD MSTORE PUSH1 0x40 DUP4 DUP2 ADD CALLDATALOAD SWAP1 DUP3 ADD MSTORE PUSH1 0x60 DUP4 ADD CALLDATALOAD PUSH3 0xFFFFFF DUP2 AND DUP2 EQ PUSH2 0x1545 JUMPI PUSH1 0x0 DUP1 REVERT JUMPDEST PUSH1 0x60 DUP3 ADD MSTORE PUSH2 0x1556 PUSH1 0x80 DUP5 ADD PUSH2 0x1562 JUMP JUMPDEST PUSH1 0x80 DUP3 ADD MSTORE POP SWAP3 SWAP2 POP POP JUMP JUMPDEST DUP1 CALLDATALOAD PUSH2 0x98D DUP2 PUSH2 0x1B73 JUMP JUMPDEST DUP1 MLOAD PUSH2 0xFFFF DUP2 AND DUP2 EQ PUSH2 0x98D JUMPI PUSH1 0x0 DUP1 REVERT JUMPDEST PUSH1 0x0 DUP1 PUSH1 0x40 DUP4 DUP6 SUB SLT ISZERO PUSH2 0x1591 JUMPI DUP2 DUP3 REVERT JUMPDEST DUP3 CALLDATALOAD PUSH8 0xFFFFFFFFFFFFFFFF DUP2 GT ISZERO PUSH2 0x15A7 JUMPI DUP3 DUP4 REVERT JUMPDEST PUSH2 0x15B3 DUP6 DUP3 DUP7 ADD PUSH2 0x146E JUMP JUMPDEST SWAP6 PUSH1 0x20 SWAP5 SWAP1 SWAP5 ADD CALLDATALOAD SWAP5 POP POP POP POP JUMP JUMPDEST PUSH1 0x0 PUSH1 0x20 DUP3 DUP5 SUB SLT ISZERO PUSH2 0x15D3 JUMPI DUP1 DUP2 REVERT JUMPDEST PUSH2 0x15DC DUP3 PUSH2 0x14BF JUMP JUMPDEST SWAP4 SWAP3 POP POP POP JUMP JUMPDEST PUSH1 0x0 DUP1 PUSH1 0x40 DUP4 DUP6 SUB SLT ISZERO PUSH2 0x15F5 JUMPI DUP2 DUP3 REVERT JUMPDEST POP POP DUP1 MLOAD PUSH1 0x20 SWAP1 SWAP2 ADD MLOAD SWAP1 SWAP3 SWAP1 SWAP2 POP JUMP JUMPDEST PUSH1 0x0 DUP1 PUSH1 0x0 PUSH1 0x60 DUP5 DUP7 SUB SLT ISZERO PUSH2 0x161A JUMPI DUP1 DUP2 REVERT JUMPDEST DUP4 CALLDATALOAD SWAP3 POP PUSH1 0x20 DUP5 ADD CALLDATALOAD SWAP2 POP PUSH1 0x40 DUP5 ADD CALLDATALOAD PUSH8 0xFFFFFFFFFFFFFFFF DUP2 GT ISZERO PUSH2 0x163E JUMPI DUP2 DUP3 REVERT JUMPDEST PUSH2 0x164A DUP7 DUP3 DUP8 ADD PUSH2 0x146E JUMP JUMPDEST SWAP2 POP POP SWAP3 POP SWAP3 POP SWAP3 JUMP JUMPDEST PUSH1 0x0 PUSH1 0x20 DUP3 DUP5 SUB SLT ISZERO PUSH2 0x1665 JUMPI DUP1 DUP2 REVERT JUMPDEST DUP2 MLOAD PUSH8 0xFFFFFFFFFFFFFFFF DUP2 GT ISZERO PUSH2 0x167B JUMPI DUP2 DUP3 REVERT JUMPDEST DUP3 ADD PUSH1 0x1F DUP2 ADD DUP5 SGT PUSH2 0x168B JUMPI DUP2 DUP3 REVERT JUMPDEST DUP1 MLOAD PUSH2 0x1699 PUSH2 0x148C DUP3 PUSH2 0x1B21 JUMP JUMPDEST DUP2 DUP2 MSTORE DUP6 PUSH1 0x20 DUP4 DUP6 ADD ADD GT ISZERO PUSH2 0x16AD JUMPI DUP4 DUP5 REVERT JUMPDEST PUSH2 0xB0C DUP3 PUSH1 0x20 DUP4 ADD PUSH1 0x20 DUP7 ADD PUSH2 0x1B43 JUMP JUMPDEST PUSH1 0x0 PUSH1 0xA0 DUP3 DUP5 SUB SLT ISZERO PUSH2 0x16CF JUMPI DUP1 DUP2 REVERT JUMPDEST PUSH2 0x15DC DUP4 DUP4 PUSH2 0x14D1 JUMP JUMPDEST PUSH1 0x0 DUP1 PUSH1 0x0 DUP1 PUSH1 0x0 DUP1 PUSH1 0x0 PUSH1 0xE0 DUP9 DUP11 SUB SLT ISZERO PUSH2 0x16F3 JUMPI DUP3 DUP4 REVERT JUMPDEST DUP8 MLOAD PUSH2 0x16FE DUP2 PUSH2 0x1B73 JUMP JUMPDEST SWAP7 POP PUSH2 0x170C PUSH1 0x20 DUP10 ADD PUSH2 0x14BF JUMP JUMPDEST SWAP6 POP PUSH2 0x171A PUSH1 0x40 DUP10 ADD PUSH2 0x156D JUMP JUMPDEST SWAP5 POP PUSH2 0x1728 PUSH1 0x60 DUP10 ADD PUSH2 0x156D JUMP JUMPDEST SWAP4 POP PUSH2 0x1736 PUSH1 0x80 DUP10 ADD PUSH2 0x156D JUMP JUMPDEST SWAP3 POP PUSH1 0xA0 DUP9 ADD MLOAD PUSH1 0xFF DUP2 AND DUP2 EQ PUSH2 0x174B JUMPI DUP3 DUP4 REVERT JUMPDEST PUSH1 0xC0 DUP10 ADD MLOAD SWAP1 SWAP3 POP DUP1 ISZERO ISZERO DUP2 EQ PUSH2 0x1760 JUMPI DUP2 DUP3 REVERT JUMPDEST DUP1 SWAP2 POP POP SWAP3 SWAP6 SWAP9 SWAP2 SWAP5 SWAP8 POP SWAP3 SWAP6 POP JUMP JUMPDEST PUSH1 0x0 PUSH1 0x20 DUP3 DUP5 SUB SLT ISZERO PUSH2 0x1781 JUMPI DUP1 DUP2 REVERT JUMPDEST POP MLOAD SWAP2 SWAP1 POP JUMP JUMPDEST PUSH1 0x0 DUP1 PUSH1 0x0 PUSH1 0x60 DUP5 DUP7 SUB SLT ISZERO PUSH2 0x179C JUMPI DUP1 DUP2 REVERT JUMPDEST DUP4 MLOAD SWAP3 POP PUSH1 0x20 DUP5 ADD MLOAD PUSH2 0x17AE DUP2 PUSH2 0x1B73 JUMP JUMPDEST SWAP2 POP PUSH2 0x17BC PUSH1 0x40 DUP6 ADD PUSH2 0x14BF JUMP JUMPDEST SWAP1 POP SWAP3 POP SWAP3 POP SWAP3 JUMP JUMPDEST PUSH1 0x0 DUP2 MLOAD DUP1 DUP5 MSTORE PUSH2 0x17DD DUP2 PUSH1 0x20 DUP7 ADD PUSH1 0x20 DUP7 ADD PUSH2 0x1B43 JUMP JUMPDEST PUSH1 0x1F ADD PUSH1 0x1F NOT AND SWAP3 SWAP1 SWAP3 ADD PUSH1 0x20 ADD SWAP3 SWAP2 POP POP JUMP JUMPDEST PUSH1 0x60 SWAP4 DUP5 SHL PUSH12 0xFFFFFFFFFFFFFFFFFFFFFFFF NOT SWAP1 DUP2 AND DUP3 MSTORE PUSH1 0xE8 SWAP4 SWAP1 SWAP4 SHL PUSH1 0x1 PUSH1 0x1 PUSH1 0xE8 SHL SUB NOT AND PUSH1 0x14 DUP3 ADD MSTORE SWAP3 SHL AND PUSH1 0x17 DUP3 ADD MSTORE PUSH1 0x2B ADD SWAP1 JUMP JUMPDEST PUSH1 0x1 PUSH1 0x1 PUSH1 0xF8 SHL SUB NOT DUP2 MSTORE PUSH1 0x60 SWAP4 SWAP1 SWAP4 SHL PUSH12 0xFFFFFFFFFFFFFFFFFFFFFFFF NOT AND PUSH1 0x1 DUP5 ADD MSTORE PUSH1 0x15 DUP4 ADD SWAP2 SWAP1 SWAP2 MSTORE PUSH1 0x35 DUP3 ADD MSTORE PUSH1 0x55 ADD SWAP1 JUMP JUMPDEST PUSH1 0x1 PUSH1 0x1 PUSH1 0xA0 SHL SUB SWAP2 SWAP1 SWAP2 AND DUP2 MSTORE PUSH1 0x20 ADD SWAP1 JUMP JUMPDEST PUSH1 0x1 PUSH1 0x1 PUSH1 0xA0 SHL SUB SWAP4 DUP5 AND DUP2 MSTORE SWAP2 SWAP1 SWAP3 AND PUSH1 0x20 DUP3 ADD MSTORE PUSH3 0xFFFFFF SWAP1 SWAP2 AND PUSH1 0x40 DUP3 ADD MSTORE PUSH1 0x60 ADD SWAP1 JUMP JUMPDEST PUSH1 0x1 PUSH1 0x1 PUSH1 0xA0 SHL SUB DUP7 DUP2 AND DUP3 MSTORE DUP6 ISZERO ISZERO PUSH1 0x20 DUP4 ADD MSTORE PUSH1 0x40 DUP3 ADD DUP6 SWAP1 MSTORE DUP4 AND PUSH1 0x60 DUP3 ADD MSTORE PUSH1 0xA0 PUSH1 0x80 DUP3 ADD DUP2 SWAP1 MSTORE PUSH1 0x0 SWAP1 PUSH2 0x18DB SWAP1 DUP4 ADD DUP5 PUSH2 0x17C5 JUMP JUMPDEST SWAP8 SWAP7 POP POP POP POP POP POP POP JUMP JUMPDEST PUSH1 0x1 SWAP2 SWAP1 SWAP2 SIGNEXTEND DUP2 MSTORE PUSH1 0x20 ADD SWAP1 JUMP JUMPDEST PUSH1 0x0 PUSH1 0x20 DUP3 MSTORE PUSH2 0x15DC PUSH1 0x20 DUP4 ADD DUP5 PUSH2 0x17C5 JUMP JUMPDEST PUSH1 0x20 DUP1 DUP3 MSTORE PUSH1 0x11 SWAP1 DUP3 ADD MSTORE PUSH17 0x746F55696E7432345F6F766572666C6F77 PUSH1 0x78 SHL PUSH1 0x40 DUP3 ADD MSTORE PUSH1 0x60 ADD SWAP1 JUMP JUMPDEST PUSH1 0x20 DUP1 DUP3 MSTORE PUSH1 0xE SWAP1 DUP3 ADD MSTORE PUSH14 0x736C6963655F6F766572666C6F77 PUSH1 0x90 SHL PUSH1 0x40 DUP3 ADD MSTORE PUSH1 0x60 ADD SWAP1 JUMP JUMPDEST PUSH1 0x20 DUP1 DUP3 MSTORE PUSH1 0x14 SWAP1 DUP3 ADD MSTORE PUSH20 0x746F55696E7432345F6F75744F66426F756E6473 PUSH1 0x60 SHL PUSH1 0x40 DUP3 ADD MSTORE PUSH1 0x60 ADD SWAP1 JUMP JUMPDEST PUSH1 0x20 DUP1 DUP3 MSTORE PUSH1 0x10 SWAP1 DUP3 ADD MSTORE PUSH16 0x2AB732BC3832B1BA32B21032B93937B9 PUSH1 0x81 SHL PUSH1 0x40 DUP3 ADD MSTORE PUSH1 0x60 ADD SWAP1 JUMP JUMPDEST PUSH1 0x20 DUP1 DUP3 MSTORE PUSH1 0x15 SWAP1 DUP3 ADD MSTORE PUSH21 0x746F416464726573735F6F75744F66426F756E6473 PUSH1 0x58 SHL PUSH1 0x40 DUP3 ADD MSTORE PUSH1 0x60 ADD SWAP1 JUMP JUMPDEST PUSH1 0x20 DUP1 DUP3 MSTORE PUSH1 0x11 SWAP1 DUP3 ADD MSTORE PUSH17 0x736C6963655F6F75744F66426F756E6473 PUSH1 0x78 SHL PUSH1 0x40 DUP3 ADD MSTORE PUSH1 0x60 ADD SWAP1 JUMP JUMPDEST PUSH1 0x20 DUP1 DUP3 MSTORE PUSH1 0x12 SWAP1 DUP3 ADD MSTORE PUSH18 0x746F416464726573735F6F766572666C6F77 PUSH1 0x70 SHL PUSH1 0x40 DUP3 ADD MSTORE PUSH1 0x60 ADD SWAP1 JUMP JUMPDEST PUSH1 0x0 PUSH1 0x80 DUP3 ADD DUP7 DUP4 MSTORE PUSH1 0x20 PUSH1 0x80 DUP2 DUP6 ADD MSTORE DUP2 DUP8 MLOAD DUP1 DUP5 MSTORE PUSH1 0xA0 DUP7 ADD SWAP2 POP DUP3 DUP10 ADD SWAP4 POP DUP5 JUMPDEST DUP2 DUP2 LT ISZERO PUSH2 0x1A81 JUMPI DUP5 MLOAD PUSH1 0x1 PUSH1 0x1 PUSH1 0xA0 SHL SUB AND DUP4 MSTORE SWAP4 DUP4 ADD SWAP4 SWAP2 DUP4 ADD SWAP2 PUSH1 0x1 ADD PUSH2 0x1A5C JUMP JUMPDEST POP POP DUP5 DUP2 SUB PUSH1 0x40 DUP7 ADD MSTORE DUP7 MLOAD DUP1 DUP3 MSTORE SWAP1 DUP3 ADD SWAP3 POP DUP2 DUP8 ADD SWAP1 DUP5 JUMPDEST DUP2 DUP2 LT ISZERO PUSH2 0x1ABD JUMPI DUP3 MLOAD PUSH4 0xFFFFFFFF AND DUP6 MSTORE SWAP4 DUP4 ADD SWAP4 SWAP2 DUP4 ADD SWAP2 PUSH1 0x1 ADD PUSH2 0x1A9B JUMP JUMPDEST POP POP POP POP PUSH1 0x60 SWAP3 SWAP1 SWAP3 ADD SWAP3 SWAP1 SWAP3 MSTORE SWAP5 SWAP4 POP POP POP POP JUMP JUMPDEST SWAP4 DUP5 MSTORE PUSH1 0x1 PUSH1 0x1 PUSH1 0xA0 SHL SUB SWAP3 SWAP1 SWAP3 AND PUSH1 0x20 DUP5 ADD MSTORE PUSH4 0xFFFFFFFF AND PUSH1 0x40 DUP4 ADD MSTORE PUSH1 0x60 DUP3 ADD MSTORE PUSH1 0x80 ADD SWAP1 JUMP JUMPDEST PUSH1 0x40 MLOAD DUP2 DUP2 ADD PUSH8 0xFFFFFFFFFFFFFFFF DUP2 GT DUP3 DUP3 LT OR ISZERO PUSH2 0x1B19 JUMPI INVALID JUMPDEST PUSH1 0x40 MSTORE SWAP2 SWAP1 POP JUMP JUMPDEST PUSH1 0x0 PUSH8 0xFFFFFFFFFFFFFFFF DUP3 GT ISZERO PUSH2 0x1B35 JUMPI INVALID JUMPDEST POP PUSH1 0x1F ADD PUSH1 0x1F NOT AND PUSH1 0x20 ADD SWAP1 JUMP JUMPDEST PUSH1 0x0 JUMPDEST DUP4 DUP2 LT ISZERO PUSH2 0x1B5E JUMPI DUP2 DUP2 ADD MLOAD DUP4 DUP3 ADD MSTORE PUSH1 0x20 ADD PUSH2 0x1B46 JUMP JUMPDEST DUP4 DUP2 GT ISZERO PUSH2 0x1B6D JUMPI PUSH1 0x0 DUP5 DUP5 ADD MSTORE JUMPDEST POP POP POP POP JUMP JUMPDEST PUSH1 0x1 PUSH1 0x1 PUSH1 0xA0 SHL SUB DUP2 AND DUP2 EQ PUSH2 0x1B88 JUMPI PUSH1 0x0 DUP1 REVERT JUMPDEST POP JUMP INVALID LOG2 PUSH5 0x6970667358 0x22 SLT KECCAK256 0xF9 PUSH25 0x1E692A78AF0D4CF3D953B2910C65F323DCBFA5050A9175EBDC 0xD4 SWAP16 0x28 0x4A 0xDB PUSH5 0x736F6C6343 STOP SMOD MOD STOP CALLER "
				},
				"gasEstimates": {
					"creation": {
						"codeDepositCost": "1421000",
						"executionCost": "infinite",
						"totalCost": "infinite"
					},
					"external": {
						"WETH9()": "infinite",
						"factory()": "infinite",
						"quoteExactInput(bytes,uint256)": "infinite",
						"quoteExactInputSingle((address,address,uint256,uint24,uint160))": "infinite",
						"quoteExactOutput(bytes,uint256)": "infinite",
						"quoteExactOutputSingle((address,address,uint256,uint24,uint160))": "infinite",
						"uniswapV3SwapCallback(int256,int256,bytes)": "infinite"
					},
					"internal": {
						"getPool(address,address,uint24)": "infinite",
						"handleRevert(bytes memory,contract IUniswapV3Pool,uint256)": "infinite",
						"parseRevertReason(bytes memory)": "infinite"
					}
				},
				"methodIdentifiers": {
					"WETH9()": "4aa4a4fc",
					"factory()": "c45a0155",
					"quoteExactInput(bytes,uint256)": "cdca1753",
					"quoteExactInputSingle((address,address,uint256,uint24,uint160))": "c6a5026a",
					"quoteExactOutput(bytes,uint256)": "2f80bb1d",
					"quoteExactOutputSingle((address,address,uint256,uint24,uint160))": "bd21704a",
					"uniswapV3SwapCallback(int256,int256,bytes)": "fa461e33"
				}
			},
			"storageLayout": {
				"storage": [
					{
						"astId": 2436,
						"contract": "contracts/lens/QuoterV2_flattened.sol:QuoterV2",
						"label": "amountOutCached",
						"offset": 0,
						"slot": "0",
						"type": "t_uint256"
					}
				],
				"types": {
					"t_uint256": {
						"encoding": "inplace",
						"label": "uint256",
						"numberOfBytes": "32"
					}
				}
			},
			"userdoc": {
				"kind": "user",
				"methods": {
					"quoteExactInput(bytes,uint256)": {
						"notice": "Returns the amount out received for a given exact input swap without executing the swap"
					},
					"quoteExactInputSingle((address,address,uint256,uint24,uint160))": {
						"notice": "Returns the amount out received for a given exact input but for a swap of a single pool"
					},
					"quoteExactOutput(bytes,uint256)": {
						"notice": "Returns the amount in required for a given exact output swap without executing the swap"
					},
					"quoteExactOutputSingle((address,address,uint256,uint24,uint160))": {
						"notice": "Returns the amount in required to receive the given exact output amount but for a swap of a single pool"
					},
					"uniswapV3SwapCallback(int256,int256,bytes)": {
						"notice": "Called to `msg.sender` after executing a swap via IUniswapV3Pool#swap."
					}
				},
				"notice": "Allows getting the expected amount out or amount in for a given swap without executing the swap",
				"version": 1
			}
		}
	}
}